{
	"contracts/contracts/Core.sol": {
		"StarQuest": {
			"abi": [
				{
					"inputs": [
						{
							"internalType": "address",
							"name": "_storageWallet",
							"type": "address"
						}
					],
					"stateMutability": "nonpayable",
					"type": "constructor"
				},
				{
					"anonymous": false,
					"inputs": [
						{
							"indexed": true,
							"internalType": "address",
							"name": "aiAgent",
							"type": "address"
						},
						{
							"indexed": false,
							"internalType": "bool",
							"name": "authorized",
							"type": "bool"
						}
					],
					"name": "AIAgentAuthorized",
					"type": "event"
				},
				{
					"anonymous": false,
					"inputs": [
						{
							"indexed": true,
							"internalType": "uint256",
							"name": "challengeId",
							"type": "uint256"
						},
						{
							"indexed": true,
							"internalType": "address",
							"name": "player",
							"type": "address"
						},
						{
							"indexed": false,
							"internalType": "bool",
							"name": "success",
							"type": "bool"
						},
						{
							"indexed": false,
							"internalType": "uint256",
							"name": "payout",
							"type": "uint256"
						}
					],
					"name": "ChallengeCompleted",
					"type": "event"
				},
				{
					"anonymous": false,
					"inputs": [
						{
							"indexed": true,
							"internalType": "uint256",
							"name": "challengeId",
							"type": "uint256"
						},
						{
							"indexed": true,
							"internalType": "address",
							"name": "player",
							"type": "address"
						},
						{
							"indexed": false,
							"internalType": "uint256",
							"name": "starId",
							"type": "uint256"
						},
						{
							"indexed": false,
							"internalType": "string",
							"name": "challengeHash",
							"type": "string"
						}
					],
					"name": "ChallengeCreated",
					"type": "event"
				},
				{
					"anonymous": false,
					"inputs": [
						{
							"indexed": true,
							"internalType": "address",
							"name": "player",
							"type": "address"
						},
						{
							"indexed": false,
							"internalType": "uint256",
							"name": "amount",
							"type": "uint256"
						}
					],
					"name": "EmergencyWithdrawal",
					"type": "event"
				},
				{
					"anonymous": false,
					"inputs": [
						{
							"indexed": true,
							"internalType": "address",
							"name": "previousOwner",
							"type": "address"
						},
						{
							"indexed": true,
							"internalType": "address",
							"name": "newOwner",
							"type": "address"
						}
					],
					"name": "OwnershipTransferred",
					"type": "event"
				},
				{
					"anonymous": false,
					"inputs": [
						{
							"indexed": false,
							"internalType": "address",
							"name": "account",
							"type": "address"
						}
					],
					"name": "Paused",
					"type": "event"
				},
				{
					"anonymous": false,
					"inputs": [
						{
							"indexed": true,
							"internalType": "address",
							"name": "player",
							"type": "address"
						},
						{
							"indexed": false,
							"internalType": "uint256",
							"name": "amount",
							"type": "uint256"
						},
						{
							"indexed": false,
							"internalType": "uint256",
							"name": "challengeId",
							"type": "uint256"
						}
					],
					"name": "Staked",
					"type": "event"
				},
				{
					"anonymous": false,
					"inputs": [
						{
							"indexed": true,
							"internalType": "uint256",
							"name": "starId",
							"type": "uint256"
						},
						{
							"indexed": false,
							"internalType": "int256",
							"name": "latitude",
							"type": "int256"
						},
						{
							"indexed": false,
							"internalType": "int256",
							"name": "longitude",
							"type": "int256"
						},
						{
							"indexed": false,
							"internalType": "enum StarQuest.StarType",
							"name": "starType",
							"type": "uint8"
						}
					],
					"name": "StarAdded",
					"type": "event"
				},
				{
					"anonymous": false,
					"inputs": [
						{
							"indexed": true,
							"internalType": "uint256",
							"name": "starId",
							"type": "uint256"
						},
						{
							"indexed": false,
							"internalType": "bool",
							"name": "active",
							"type": "bool"
						}
					],
					"name": "StarUpdated",
					"type": "event"
				},
				{
					"anonymous": false,
					"inputs": [
						{
							"indexed": false,
							"internalType": "address",
							"name": "account",
							"type": "address"
						}
					],
					"name": "Unpaused",
					"type": "event"
				},
				{
					"inputs": [
						{
							"internalType": "uint256",
							"name": "starId",
							"type": "uint256"
						},
						{
							"internalType": "int256",
							"name": "latitude",
							"type": "int256"
						},
						{
							"internalType": "int256",
							"name": "longitude",
							"type": "int256"
						},
						{
							"internalType": "uint256",
							"name": "radius",
							"type": "uint256"
						},
						{
							"internalType": "enum StarQuest.StarType",
							"name": "starType",
							"type": "uint8"
						}
					],
					"name": "addStar",
					"outputs": [],
					"stateMutability": "nonpayable",
					"type": "function"
				},
				{
					"inputs": [
						{
							"internalType": "address",
							"name": "aiAgent",
							"type": "address"
						},
						{
							"internalType": "bool",
							"name": "authorized",
							"type": "bool"
						}
					],
					"name": "authorizeAI",
					"outputs": [],
					"stateMutability": "nonpayable",
					"type": "function"
				},
				{
					"inputs": [
						{
							"internalType": "address",
							"name": "",
							"type": "address"
						}
					],
					"name": "authorizedAI",
					"outputs": [
						{
							"internalType": "bool",
							"name": "",
							"type": "bool"
						}
					],
					"stateMutability": "view",
					"type": "function"
				},
				{
					"inputs": [
						{
							"internalType": "uint256",
							"name": "",
							"type": "uint256"
						}
					],
					"name": "challenges",
					"outputs": [
						{
							"internalType": "uint256",
							"name": "id",
							"type": "uint256"
						},
						{
							"internalType": "address",
							"name": "player",
							"type": "address"
						},
						{
							"internalType": "uint256",
							"name": "stakeAmount",
							"type": "uint256"
						},
						{
							"internalType": "string",
							"name": "challengeHash",
							"type": "string"
						},
						{
							"internalType": "string",
							"name": "proofHash",
							"type": "string"
						},
						{
							"internalType": "enum StarQuest.ChallengeStatus",
							"name": "status",
							"type": "uint8"
						},
						{
							"internalType": "uint256",
							"name": "createdAt",
							"type": "uint256"
						},
						{
							"internalType": "uint256",
							"name": "completedAt",
							"type": "uint256"
						},
						{
							"internalType": "bool",
							"name": "aiVerified",
							"type": "bool"
						},
						{
							"internalType": "uint256",
							"name": "starId",
							"type": "uint256"
						},
						{
							"internalType": "enum StarQuest.StarType",
							"name": "starType",
							"type": "uint8"
						}
					],
					"stateMutability": "view",
					"type": "function"
				},
				{
					"inputs": [
						{
							"internalType": "uint256",
							"name": "challengeId",
							"type": "uint256"
						},
						{
							"internalType": "string",
							"name": "proofHash",
							"type": "string"
						},
						{
							"internalType": "bool",
							"name": "success",
							"type": "bool"
						}
					],
					"name": "completeChallenge",
					"outputs": [],
					"stateMutability": "nonpayable",
					"type": "function"
				},
				{
					"inputs": [
						{
							"internalType": "uint256",
							"name": "starId",
							"type": "uint256"
						}
					],
					"name": "createStake",
					"outputs": [],
					"stateMutability": "payable",
					"type": "function"
				},
				{
					"inputs": [],
					"name": "emergencyWithdraw",
					"outputs": [],
					"stateMutability": "nonpayable",
					"type": "function"
				},
				{
					"inputs": [
						{
							"internalType": "uint256",
							"name": "challengeId",
							"type": "uint256"
						}
					],
					"name": "getChallengeDetails",
					"outputs": [
						{
							"components": [
								{
									"internalType": "uint256",
									"name": "id",
									"type": "uint256"
								},
								{
									"internalType": "address",
									"name": "player",
									"type": "address"
								},
								{
									"internalType": "uint256",
									"name": "stakeAmount",
									"type": "uint256"
								},
								{
									"internalType": "string",
									"name": "challengeHash",
									"type": "string"
								},
								{
									"internalType": "string",
									"name": "proofHash",
									"type": "string"
								},
								{
									"internalType": "enum StarQuest.ChallengeStatus",
									"name": "status",
									"type": "uint8"
								},
								{
									"internalType": "uint256",
									"name": "createdAt",
									"type": "uint256"
								},
								{
									"internalType": "uint256",
									"name": "completedAt",
									"type": "uint256"
								},
								{
									"internalType": "bool",
									"name": "aiVerified",
									"type": "bool"
								},
								{
									"internalType": "uint256",
									"name": "starId",
									"type": "uint256"
								},
								{
									"internalType": "enum StarQuest.StarType",
									"name": "starType",
									"type": "uint8"
								}
							],
							"internalType": "struct StarQuest.Challenge",
							"name": "",
							"type": "tuple"
						}
					],
					"stateMutability": "view",
					"type": "function"
				},
				{
					"inputs": [
						{
							"internalType": "address",
							"name": "player",
							"type": "address"
						}
					],
					"name": "getPlayerChallengeHistory",
					"outputs": [
						{
							"internalType": "uint256[]",
							"name": "",
							"type": "uint256[]"
						}
					],
					"stateMutability": "view",
					"type": "function"
				},
				{
					"inputs": [
						{
							"internalType": "uint256",
							"name": "starId",
							"type": "uint256"
						}
					],
					"name": "getStarDetails",
					"outputs": [
						{
							"components": [
								{
									"internalType": "uint256",
									"name": "id",
									"type": "uint256"
								},
								{
									"internalType": "int256",
									"name": "latitude",
									"type": "int256"
								},
								{
									"internalType": "int256",
									"name": "longitude",
									"type": "int256"
								},
								{
									"internalType": "uint256",
									"name": "radius",
									"type": "uint256"
								},
								{
									"internalType": "enum StarQuest.StarType",
									"name": "starType",
									"type": "uint8"
								},
								{
									"internalType": "bool",
									"name": "active",
									"type": "bool"
								},
								{
									"internalType": "uint256",
									"name": "challengesCompleted",
									"type": "uint256"
								},
								{
									"internalType": "uint256",
									"name": "totalStaked",
									"type": "uint256"
								}
							],
							"internalType": "struct StarQuest.Star",
							"name": "",
							"type": "tuple"
						}
					],
					"stateMutability": "view",
					"type": "function"
				},
				{
					"inputs": [
						{
							"internalType": "enum StarQuest.StarType",
							"name": "starType",
							"type": "uint8"
						}
					],
					"name": "getStarMultiplier",
					"outputs": [
						{
							"internalType": "uint256",
							"name": "",
							"type": "uint256"
						}
					],
					"stateMutability": "pure",
					"type": "function"
				},
				{
					"inputs": [],
					"name": "houseFeePercent",
					"outputs": [
						{
							"internalType": "uint256",
							"name": "",
							"type": "uint256"
						}
					],
					"stateMutability": "view",
					"type": "function"
				},
				{
					"inputs": [],
					"name": "maximumStake",
					"outputs": [
						{
							"internalType": "uint256",
							"name": "",
							"type": "uint256"
						}
					],
					"stateMutability": "view",
					"type": "function"
				},
				{
					"inputs": [],
					"name": "minimumStake",
					"outputs": [
						{
							"internalType": "uint256",
							"name": "",
							"type": "uint256"
						}
					],
					"stateMutability": "view",
					"type": "function"
				},
				{
					"inputs": [],
					"name": "oracleContract",
					"outputs": [
						{
							"internalType": "address",
							"name": "",
							"type": "address"
						}
					],
					"stateMutability": "view",
					"type": "function"
				},
				{
					"inputs": [],
					"name": "owner",
					"outputs": [
						{
							"internalType": "address",
							"name": "",
							"type": "address"
						}
					],
					"stateMutability": "view",
					"type": "function"
				},
				{
					"inputs": [],
					"name": "pause",
					"outputs": [],
					"stateMutability": "nonpayable",
					"type": "function"
				},
				{
					"inputs": [],
					"name": "paused",
					"outputs": [
						{
							"internalType": "bool",
							"name": "",
							"type": "bool"
						}
					],
					"stateMutability": "view",
					"type": "function"
				},
				{
					"inputs": [
						{
							"internalType": "address",
							"name": "",
							"type": "address"
						},
						{
							"internalType": "uint256",
							"name": "",
							"type": "uint256"
						}
					],
					"name": "playerChallengeHistory",
					"outputs": [
						{
							"internalType": "uint256",
							"name": "",
							"type": "uint256"
						}
					],
					"stateMutability": "view",
					"type": "function"
				},
				{
					"inputs": [
						{
							"internalType": "address",
							"name": "",
							"type": "address"
						}
					],
					"name": "playerStakes",
					"outputs": [
						{
							"internalType": "uint256",
							"name": "amount",
							"type": "uint256"
						},
						{
							"internalType": "uint256",
							"name": "timestamp",
							"type": "uint256"
						},
						{
							"internalType": "bool",
							"name": "active",
							"type": "bool"
						},
						{
							"internalType": "uint256",
							"name": "challengeId",
							"type": "uint256"
						}
					],
					"stateMutability": "view",
					"type": "function"
				},
				{
					"inputs": [
						{
							"internalType": "address",
							"name": "",
							"type": "address"
						}
					],
					"name": "playerStats",
					"outputs": [
						{
							"internalType": "uint256",
							"name": "totalStaked",
							"type": "uint256"
						},
						{
							"internalType": "uint256",
							"name": "totalWon",
							"type": "uint256"
						},
						{
							"internalType": "uint256",
							"name": "challengesCompleted",
							"type": "uint256"
						},
						{
							"internalType": "uint256",
							"name": "challengesFailed",
							"type": "uint256"
						},
						{
							"internalType": "uint256",
							"name": "currentStreak",
							"type": "uint256"
						},
						{
							"internalType": "uint256",
							"name": "longestStreak",
							"type": "uint256"
						},
						{
							"internalType": "uint256",
							"name": "lastPlayedTimestamp",
							"type": "uint256"
						}
					],
					"stateMutability": "view",
					"type": "function"
				},
				{
					"inputs": [],
					"name": "renounceOwnership",
					"outputs": [],
					"stateMutability": "nonpayable",
					"type": "function"
				},
				{
					"inputs": [
						{
							"internalType": "uint256",
							"name": "_minimumStake",
							"type": "uint256"
						},
						{
							"internalType": "uint256",
							"name": "_maximumStake",
							"type": "uint256"
						},
						{
							"internalType": "uint256",
							"name": "_winMultiplier",
							"type": "uint256"
						},
						{
							"internalType": "uint256",
							"name": "_houseFeePercent",
							"type": "uint256"
						},
						{
							"internalType": "address",
							"name": "_storageWallet",
							"type": "address"
						}
					],
					"name": "setGameParameters",
					"outputs": [],
					"stateMutability": "nonpayable",
					"type": "function"
				},
				{
					"inputs": [
						{
							"internalType": "uint256",
							"name": "",
							"type": "uint256"
						}
					],
					"name": "stars",
					"outputs": [
						{
							"internalType": "uint256",
							"name": "id",
							"type": "uint256"
						},
						{
							"internalType": "int256",
							"name": "latitude",
							"type": "int256"
						},
						{
							"internalType": "int256",
							"name": "longitude",
							"type": "int256"
						},
						{
							"internalType": "uint256",
							"name": "radius",
							"type": "uint256"
						},
						{
							"internalType": "enum StarQuest.StarType",
							"name": "starType",
							"type": "uint8"
						},
						{
							"internalType": "bool",
							"name": "active",
							"type": "bool"
						},
						{
							"internalType": "uint256",
							"name": "challengesCompleted",
							"type": "uint256"
						},
						{
							"internalType": "uint256",
							"name": "totalStaked",
							"type": "uint256"
						}
					],
					"stateMutability": "view",
					"type": "function"
				},
				{
					"inputs": [],
					"name": "storageWallet",
					"outputs": [
						{
							"internalType": "address",
							"name": "",
							"type": "address"
						}
					],
					"stateMutability": "view",
					"type": "function"
				},
				{
					"inputs": [
						{
							"internalType": "uint256",
							"name": "challengeId",
							"type": "uint256"
						},
						{
							"internalType": "string",
							"name": "challengeHash",
							"type": "string"
						}
					],
					"name": "submitChallenge",
					"outputs": [],
					"stateMutability": "nonpayable",
					"type": "function"
				},
				{
					"inputs": [
						{
							"internalType": "address",
							"name": "newOwner",
							"type": "address"
						}
					],
					"name": "transferOwnership",
					"outputs": [],
					"stateMutability": "nonpayable",
					"type": "function"
				},
				{
					"inputs": [],
					"name": "unpause",
					"outputs": [],
					"stateMutability": "nonpayable",
					"type": "function"
				},
				{
					"inputs": [
						{
							"internalType": "uint256",
							"name": "starId",
							"type": "uint256"
						},
						{
							"internalType": "bool",
							"name": "active",
							"type": "bool"
						}
					],
					"name": "updateStar",
					"outputs": [],
					"stateMutability": "nonpayable",
					"type": "function"
				},
				{
					"inputs": [],
					"name": "winMultiplier",
					"outputs": [
						{
							"internalType": "uint256",
							"name": "",
							"type": "uint256"
						}
					],
					"stateMutability": "view",
					"type": "function"
				},
				{
					"inputs": [],
					"name": "withdrawBalance",
					"outputs": [],
					"stateMutability": "nonpayable",
					"type": "function"
				},
				{
					"stateMutability": "payable",
					"type": "receive"
				}
			],
			"devdoc": {
				"details": "Main game logic contract for StarQuest AR with staking and challenges Deployed on Hedera EVM (Testnet/Mainnet)",
				"events": {
					"Paused(address)": {
						"details": "Emitted when the pause is triggered by `account`."
					},
					"Unpaused(address)": {
						"details": "Emitted when the pause is lifted by `account`."
					}
				},
				"kind": "dev",
				"methods": {
					"addStar(uint256,int256,int256,uint256,uint8)": {
						"details": "Add a new star location (only owner)"
					},
					"authorizeAI(address,bool)": {
						"details": "Authorize AI agent"
					},
					"completeChallenge(uint256,string,bool)": {
						"details": "Complete challenge with AI verification",
						"params": {
							"challengeId": "The challenge ID",
							"proofHash": "IPFS hash of player's proof",
							"success": "Whether the challenge was successful"
						}
					},
					"createStake(uint256)": {
						"details": "Stake HBAR/ETH to participate in a challenge",
						"params": {
							"starId": "The ID of the star to challenge"
						}
					},
					"emergencyWithdraw()": {
						"details": "Emergency withdrawal (only in case of issues)"
					},
					"getChallengeDetails(uint256)": {
						"details": "Get challenge details"
					},
					"getPlayerChallengeHistory(address)": {
						"details": "Get player's challenge history"
					},
					"getStarDetails(uint256)": {
						"details": "Get star details"
					},
					"getStarMultiplier(uint8)": {
						"details": "Get multiplier based on star type"
					},
					"owner()": {
						"details": "Returns the address of the current owner."
					},
					"pause()": {
						"details": "Pause/unpause contract"
					},
					"paused()": {
						"details": "Returns true if the contract is paused, and false otherwise."
					},
					"renounceOwnership()": {
						"details": "Leaves the contract without owner. It will not be possible to call `onlyOwner` functions. Can only be called by the current owner. NOTE: Renouncing ownership will leave the contract without an owner, thereby disabling any functionality that is only available to the owner."
					},
					"setGameParameters(uint256,uint256,uint256,uint256,address)": {
						"details": "Set game parameters (only owner)"
					},
					"submitChallenge(uint256,string)": {
						"details": "Submit challenge data (called by AI service)",
						"params": {
							"challengeHash": "IPFS hash of challenge data",
							"challengeId": "The challenge ID"
						}
					},
					"transferOwnership(address)": {
						"details": "Transfers ownership of the contract to a new account (`newOwner`). Can only be called by the current owner."
					},
					"updateStar(uint256,bool)": {
						"details": "Update star status"
					},
					"withdrawBalance()": {
						"details": "Withdraw contract balance (only owner)"
					}
				},
				"title": "StarQuest Core Contract",
				"version": 1
			},
			"evm": {
				"assembly": "    /* \"contracts/contracts/Core.sol\":673:12966  contract StarQuest is Ownable, ReentrancyGuard, Pausable {... */\n  mstore(0x40, 0x80)\n    /* \"contracts/contracts/Core.sol\":906:916  0.01 ether */\n  0x2386f26fc10000\n    /* \"contracts/contracts/Core.sol\":876:916  uint256 public minimumStake = 0.01 ether */\n  0x04\n  sstore\n    /* \"contracts/contracts/Core.sol\":953:961  10 ether */\n  0x8ac7230489e80000\n    /* \"contracts/contracts/Core.sol\":923:961  uint256 public maximumStake = 10 ether */\n  0x05\n  sstore\n    /* \"contracts/contracts/Core.sol\":999:1002  200 */\n  0xc8\n    /* \"contracts/contracts/Core.sol\":968:1002  uint256 public winMultiplier = 200 */\n  0x06\n  sstore\n    /* \"contracts/contracts/Core.sol\":1073:1074  5 */\n  0x05\n    /* \"contracts/contracts/Core.sol\":1040:1074  uint256 public houseFeePercent = 5 */\n  0x07\n  sstore\n    /* \"contracts/contracts/Core.sol\":3835:3961  constructor(address _storageWallet) {... */\n  callvalue\n  dup1\n  iszero\n  tag_1\n  jumpi\n  0x00\n  dup1\n  revert\ntag_1:\n  pop\n  mload(0x40)\n  sub(codesize, bytecodeSize)\n  dup1\n  bytecodeSize\n  dup4\n  codecopy\n  dup2\n  dup2\n  add\n  0x40\n  mstore\n  dup2\n  add\n  swap1\n  tag_2\n  swap2\n  swap1\n  tag_3\n  jump\t// in\ntag_2:\n    /* \"https://github.com/OpenZeppelin/openzeppelin-contracts/blob/v4.9.6/contracts/access/Ownable.sol\":936:968  _transferOwnership(_msgSender()) */\n  tag_9\n    /* \"https://github.com/OpenZeppelin/openzeppelin-contracts/blob/v4.9.6/contracts/access/Ownable.sol\":955:967  _msgSender() */\n  tag_10\n    /* \"https://github.com/OpenZeppelin/openzeppelin-contracts/blob/v4.9.6/contracts/access/Ownable.sol\":955:965  _msgSender */\n  shl(0x20, tag_11)\n    /* \"https://github.com/OpenZeppelin/openzeppelin-contracts/blob/v4.9.6/contracts/access/Ownable.sol\":955:967  _msgSender() */\n  0x20\n  shr\n  jump\t// in\ntag_10:\n    /* \"https://github.com/OpenZeppelin/openzeppelin-contracts/blob/v4.9.6/contracts/access/Ownable.sol\":936:954  _transferOwnership */\n  shl(0x20, tag_12)\n    /* \"https://github.com/OpenZeppelin/openzeppelin-contracts/blob/v4.9.6/contracts/access/Ownable.sol\":936:968  _transferOwnership(_msgSender()) */\n  0x20\n  shr\n  jump\t// in\ntag_9:\n    /* \"https://github.com/OpenZeppelin/openzeppelin-contracts/blob/v4.9.6/contracts/security/ReentrancyGuard.sol\":1716:1717  1 */\n  0x01\n    /* \"https://github.com/OpenZeppelin/openzeppelin-contracts/blob/v4.9.6/contracts/security/ReentrancyGuard.sol\":1821:1828  _status */\n  dup1\n    /* \"https://github.com/OpenZeppelin/openzeppelin-contracts/blob/v4.9.6/contracts/security/ReentrancyGuard.sol\":1821:1843  _status = _NOT_ENTERED */\n  dup2\n  swap1\n  sstore\n  pop\n    /* \"https://github.com/OpenZeppelin/openzeppelin-contracts/blob/v4.9.6/contracts/security/Pausable.sol\":1006:1011  false */\n  0x00\n    /* \"https://github.com/OpenZeppelin/openzeppelin-contracts/blob/v4.9.6/contracts/security/Pausable.sol\":996:1003  _paused */\n  0x02\n  0x00\n    /* \"https://github.com/OpenZeppelin/openzeppelin-contracts/blob/v4.9.6/contracts/security/Pausable.sol\":996:1011  _paused = false */\n  0x0100\n  exp\n  dup2\n  sload\n  dup2\n  0xff\n  mul\n  not\n  and\n  swap1\n  dup4\n  iszero\n  iszero\n  mul\n  or\n  swap1\n  sstore\n  pop\n    /* \"contracts/contracts/Core.sol\":3898:3912  _storageWallet */\n  dup1\n    /* \"contracts/contracts/Core.sol\":3882:3895  storageWallet */\n  0x02\n  0x01\n    /* \"contracts/contracts/Core.sol\":3882:3912  storageWallet = _storageWallet */\n  0x0100\n  exp\n  dup2\n  sload\n  dup2\n  0xffffffffffffffffffffffffffffffffffffffff\n  mul\n  not\n  and\n  swap1\n  dup4\n  0xffffffffffffffffffffffffffffffffffffffff\n  and\n  mul\n  or\n  swap1\n  sstore\n  pop\n    /* \"contracts/contracts/Core.sol\":3923:3953  _transferOwnership(msg.sender) */\n  tag_16\n    /* \"contracts/contracts/Core.sol\":3942:3952  msg.sender */\n  caller\n    /* \"contracts/contracts/Core.sol\":3923:3941  _transferOwnership */\n  shl(0x20, tag_12)\n    /* \"contracts/contracts/Core.sol\":3923:3953  _transferOwnership(msg.sender) */\n  0x20\n  shr\n  jump\t// in\ntag_16:\n    /* \"contracts/contracts/Core.sol\":3835:3961  constructor(address _storageWallet) {... */\n  pop\n    /* \"contracts/contracts/Core.sol\":673:12966  contract StarQuest is Ownable, ReentrancyGuard, Pausable {... */\n  jump(tag_17)\n    /* \"https://github.com/OpenZeppelin/openzeppelin-contracts/blob/v4.9.6/contracts/utils/Context.sol\":655:751  function _msgSender() internal view virtual returns (address) {... */\ntag_11:\n    /* \"https://github.com/OpenZeppelin/openzeppelin-contracts/blob/v4.9.6/contracts/utils/Context.sol\":708:715  address */\n  0x00\n    /* \"https://github.com/OpenZeppelin/openzeppelin-contracts/blob/v4.9.6/contracts/utils/Context.sol\":734:744  msg.sender */\n  caller\n    /* \"https://github.com/OpenZeppelin/openzeppelin-contracts/blob/v4.9.6/contracts/utils/Context.sol\":727:744  return msg.sender */\n  swap1\n  pop\n    /* \"https://github.com/OpenZeppelin/openzeppelin-contracts/blob/v4.9.6/contracts/utils/Context.sol\":655:751  function _msgSender() internal view virtual returns (address) {... */\n  swap1\n  jump\t// out\n    /* \"https://github.com/OpenZeppelin/openzeppelin-contracts/blob/v4.9.6/contracts/access/Ownable.sol\":2426:2613  function _transferOwnership(address newOwner) internal virtual {... */\ntag_12:\n    /* \"https://github.com/OpenZeppelin/openzeppelin-contracts/blob/v4.9.6/contracts/access/Ownable.sol\":2499:2515  address oldOwner */\n  0x00\n    /* \"https://github.com/OpenZeppelin/openzeppelin-contracts/blob/v4.9.6/contracts/access/Ownable.sol\":2518:2524  _owner */\n  dup1\n  0x00\n  swap1\n  sload\n  swap1\n  0x0100\n  exp\n  swap1\n  div\n  0xffffffffffffffffffffffffffffffffffffffff\n  and\n    /* \"https://github.com/OpenZeppelin/openzeppelin-contracts/blob/v4.9.6/contracts/access/Ownable.sol\":2499:2524  address oldOwner = _owner */\n  swap1\n  pop\n    /* \"https://github.com/OpenZeppelin/openzeppelin-contracts/blob/v4.9.6/contracts/access/Ownable.sol\":2543:2551  newOwner */\n  dup2\n    /* \"https://github.com/OpenZeppelin/openzeppelin-contracts/blob/v4.9.6/contracts/access/Ownable.sol\":2534:2540  _owner */\n  0x00\n  dup1\n    /* \"https://github.com/OpenZeppelin/openzeppelin-contracts/blob/v4.9.6/contracts/access/Ownable.sol\":2534:2551  _owner = newOwner */\n  0x0100\n  exp\n  dup2\n  sload\n  dup2\n  0xffffffffffffffffffffffffffffffffffffffff\n  mul\n  not\n  and\n  swap1\n  dup4\n  0xffffffffffffffffffffffffffffffffffffffff\n  and\n  mul\n  or\n  swap1\n  sstore\n  pop\n    /* \"https://github.com/OpenZeppelin/openzeppelin-contracts/blob/v4.9.6/contracts/access/Ownable.sol\":2597:2605  newOwner */\n  dup2\n    /* \"https://github.com/OpenZeppelin/openzeppelin-contracts/blob/v4.9.6/contracts/access/Ownable.sol\":2566:2606  OwnershipTransferred(oldOwner, newOwner) */\n  0xffffffffffffffffffffffffffffffffffffffff\n  and\n    /* \"https://github.com/OpenZeppelin/openzeppelin-contracts/blob/v4.9.6/contracts/access/Ownable.sol\":2587:2595  oldOwner */\n  dup2\n    /* \"https://github.com/OpenZeppelin/openzeppelin-contracts/blob/v4.9.6/contracts/access/Ownable.sol\":2566:2606  OwnershipTransferred(oldOwner, newOwner) */\n  0xffffffffffffffffffffffffffffffffffffffff\n  and\n  0x8be0079c531659141344cd1fd0a4f28419497f9722a3daafe3b4186f6b6457e0\n  mload(0x40)\n  mload(0x40)\n  dup1\n  swap2\n  sub\n  swap1\n  log3\n    /* \"https://github.com/OpenZeppelin/openzeppelin-contracts/blob/v4.9.6/contracts/access/Ownable.sol\":2489:2613  {... */\n  pop\n    /* \"https://github.com/OpenZeppelin/openzeppelin-contracts/blob/v4.9.6/contracts/access/Ownable.sol\":2426:2613  function _transferOwnership(address newOwner) internal virtual {... */\n  pop\n  jump\t// out\n    /* \"#utility.yul\":88:205   */\ntag_21:\n    /* \"#utility.yul\":197:198   */\n  0x00\n    /* \"#utility.yul\":194:195   */\n  dup1\n    /* \"#utility.yul\":187:199   */\n  revert\n    /* \"#utility.yul\":334:460   */\ntag_23:\n    /* \"#utility.yul\":371:378   */\n  0x00\n    /* \"#utility.yul\":411:453   */\n  0xffffffffffffffffffffffffffffffffffffffff\n    /* \"#utility.yul\":404:409   */\n  dup3\n    /* \"#utility.yul\":400:454   */\n  and\n    /* \"#utility.yul\":389:454   */\n  swap1\n  pop\n    /* \"#utility.yul\":334:460   */\n  swap2\n  swap1\n  pop\n  jump\t// out\n    /* \"#utility.yul\":466:562   */\ntag_24:\n    /* \"#utility.yul\":503:510   */\n  0x00\n    /* \"#utility.yul\":532:556   */\n  tag_33\n    /* \"#utility.yul\":550:555   */\n  dup3\n    /* \"#utility.yul\":532:556   */\n  tag_23\n  jump\t// in\ntag_33:\n    /* \"#utility.yul\":521:556   */\n  swap1\n  pop\n    /* \"#utility.yul\":466:562   */\n  swap2\n  swap1\n  pop\n  jump\t// out\n    /* \"#utility.yul\":568:690   */\ntag_25:\n    /* \"#utility.yul\":641:665   */\n  tag_35\n    /* \"#utility.yul\":659:664   */\n  dup2\n    /* \"#utility.yul\":641:665   */\n  tag_24\n  jump\t// in\ntag_35:\n    /* \"#utility.yul\":634:639   */\n  dup2\n    /* \"#utility.yul\":631:666   */\n  eq\n    /* \"#utility.yul\":621:684   */\n  tag_36\n  jumpi\n    /* \"#utility.yul\":680:681   */\n  0x00\n    /* \"#utility.yul\":677:678   */\n  dup1\n    /* \"#utility.yul\":670:682   */\n  revert\n    /* \"#utility.yul\":621:684   */\ntag_36:\n    /* \"#utility.yul\":568:690   */\n  pop\n  jump\t// out\n    /* \"#utility.yul\":696:839   */\ntag_26:\n    /* \"#utility.yul\":753:758   */\n  0x00\n    /* \"#utility.yul\":784:790   */\n  dup2\n    /* \"#utility.yul\":778:791   */\n  mload\n    /* \"#utility.yul\":769:791   */\n  swap1\n  pop\n    /* \"#utility.yul\":800:833   */\n  tag_38\n    /* \"#utility.yul\":827:832   */\n  dup2\n    /* \"#utility.yul\":800:833   */\n  tag_25\n  jump\t// in\ntag_38:\n    /* \"#utility.yul\":696:839   */\n  swap3\n  swap2\n  pop\n  pop\n  jump\t// out\n    /* \"#utility.yul\":845:1196   */\ntag_3:\n    /* \"#utility.yul\":915:921   */\n  0x00\n    /* \"#utility.yul\":964:966   */\n  0x20\n    /* \"#utility.yul\":952:961   */\n  dup3\n    /* \"#utility.yul\":943:950   */\n  dup5\n    /* \"#utility.yul\":939:962   */\n  sub\n    /* \"#utility.yul\":935:967   */\n  slt\n    /* \"#utility.yul\":932:1051   */\n  iszero\n  tag_40\n  jumpi\n    /* \"#utility.yul\":970:1049   */\n  tag_41\n  tag_21\n  jump\t// in\ntag_41:\n    /* \"#utility.yul\":932:1051   */\ntag_40:\n    /* \"#utility.yul\":1090:1091   */\n  0x00\n    /* \"#utility.yul\":1115:1179   */\n  tag_42\n    /* \"#utility.yul\":1171:1178   */\n  dup5\n    /* \"#utility.yul\":1162:1168   */\n  dup3\n    /* \"#utility.yul\":1151:1160   */\n  dup6\n    /* \"#utility.yul\":1147:1169   */\n  add\n    /* \"#utility.yul\":1115:1179   */\n  tag_26\n  jump\t// in\ntag_42:\n    /* \"#utility.yul\":1105:1179   */\n  swap2\n  pop\n    /* \"#utility.yul\":1061:1189   */\n  pop\n    /* \"#utility.yul\":845:1196   */\n  swap3\n  swap2\n  pop\n  pop\n  jump\t// out\n    /* \"contracts/contracts/Core.sol\":673:12966  contract StarQuest is Ownable, ReentrancyGuard, Pausable {... */\ntag_17:\n  dataSize(sub_0)\n  dup1\n  dataOffset(sub_0)\n  0x00\n  codecopy\n  0x00\n  return\nstop\n\nsub_0: assembly {\n        /* \"contracts/contracts/Core.sol\":673:12966  contract StarQuest is Ownable, ReentrancyGuard, Pausable {... */\n      mstore(0x40, 0x80)\n      jumpi(tag_1, lt(calldatasize, 0x04))\n      shr(0xe0, calldataload(0x00))\n      dup1\n      0x8da5cb5b\n      gt\n      tag_34\n      jumpi\n      dup1\n      0xbbed7fdb\n      gt\n      tag_35\n      jumpi\n      dup1\n      0xd1ba26f9\n      gt\n      tag_36\n      jumpi\n      dup1\n      0xd1ba26f9\n      eq\n      tag_30\n      jumpi\n      dup1\n      0xdb2e21bc\n      eq\n      tag_31\n      jumpi\n      dup1\n      0xec5ffac2\n      eq\n      tag_32\n      jumpi\n      dup1\n      0xf2fde38b\n      eq\n      tag_33\n      jumpi\n      jump(tag_2)\n    tag_36:\n      dup1\n      0xbbed7fdb\n      eq\n      tag_26\n      jumpi\n      dup1\n      0xbece7532\n      eq\n      tag_27\n      jumpi\n      dup1\n      0xcdafbbb6\n      eq\n      tag_28\n      jumpi\n      dup1\n      0xcf24141a\n      eq\n      tag_29\n      jumpi\n      jump(tag_2)\n    tag_35:\n      dup1\n      0xa66d6dc0\n      gt\n      tag_37\n      jumpi\n      dup1\n      0xa66d6dc0\n      eq\n      tag_22\n      jumpi\n      dup1\n      0xb4986922\n      eq\n      tag_23\n      jumpi\n      dup1\n      0xb5c6b453\n      eq\n      tag_24\n      jumpi\n      dup1\n      0xb7d44644\n      eq\n      tag_25\n      jumpi\n      jump(tag_2)\n    tag_37:\n      dup1\n      0x8da5cb5b\n      eq\n      tag_18\n      jumpi\n      dup1\n      0x8f1d3776\n      eq\n      tag_19\n      jumpi\n      dup1\n      0x929a1923\n      eq\n      tag_20\n      jumpi\n      dup1\n      0x9e32aaa3\n      eq\n      tag_21\n      jumpi\n      jump(tag_2)\n    tag_34:\n      dup1\n      0x4b0ea4a6\n      gt\n      tag_38\n      jumpi\n      dup1\n      0x685c6342\n      gt\n      tag_39\n      jumpi\n      dup1\n      0x685c6342\n      eq\n      tag_14\n      jumpi\n      dup1\n      0x6a60bd00\n      eq\n      tag_15\n      jumpi\n      dup1\n      0x715018a6\n      eq\n      tag_16\n      jumpi\n      dup1\n      0x8456cb59\n      eq\n      tag_17\n      jumpi\n      jump(tag_2)\n    tag_39:\n      dup1\n      0x4b0ea4a6\n      eq\n      tag_10\n      jumpi\n      dup1\n      0x5c975abb\n      eq\n      tag_11\n      jumpi\n      dup1\n      0x5fd8c710\n      eq\n      tag_12\n      jumpi\n      dup1\n      0x619f3f61\n      eq\n      tag_13\n      jumpi\n      jump(tag_2)\n    tag_38:\n      dup1\n      0x358b3855\n      gt\n      tag_40\n      jumpi\n      dup1\n      0x358b3855\n      eq\n      tag_6\n      jumpi\n      dup1\n      0x3d40a54f\n      eq\n      tag_7\n      jumpi\n      dup1\n      0x3e27fee2\n      eq\n      tag_8\n      jumpi\n      dup1\n      0x3f4ba83a\n      eq\n      tag_9\n      jumpi\n      jump(tag_2)\n    tag_40:\n      dup1\n      0x0355c892\n      eq\n      tag_3\n      jumpi\n      dup1\n      0x1bf6ddae\n      eq\n      tag_4\n      jumpi\n      dup1\n      0x3081eafe\n      eq\n      tag_5\n      jumpi\n      jump(tag_2)\n    tag_1:\n      jumpi(tag_2, calldatasize)\n      stop\n    tag_2:\n      0x00\n      dup1\n      revert\n        /* \"contracts/contracts/Core.sol\":10121:10344  function updateStar(uint256 starId, bool active) external onlyOwner {... */\n    tag_3:\n      callvalue\n      dup1\n      iszero\n      tag_43\n      jumpi\n      0x00\n      dup1\n      revert\n    tag_43:\n      pop\n      tag_44\n      0x04\n      dup1\n      calldatasize\n      sub\n      dup2\n      add\n      swap1\n      tag_45\n      swap2\n      swap1\n      tag_46\n      jump\t// in\n    tag_45:\n      tag_47\n      jump\t// in\n    tag_44:\n      stop\n        /* \"contracts/contracts/Core.sol\":4099:5441  function createStake(uint256 starId) ... */\n    tag_4:\n      tag_48\n      0x04\n      dup1\n      calldatasize\n      sub\n      dup2\n      add\n      swap1\n      tag_49\n      swap2\n      swap1\n      tag_50\n      jump\t// in\n    tag_49:\n      tag_51\n      jump\t// in\n    tag_48:\n      stop\n        /* \"contracts/contracts/Core.sol\":11848:11963  function getStarDetails(uint256 starId) external view returns (Star memory) {... */\n    tag_5:\n      callvalue\n      dup1\n      iszero\n      tag_52\n      jumpi\n      0x00\n      dup1\n      revert\n    tag_52:\n      pop\n      tag_53\n      0x04\n      dup1\n      calldatasize\n      sub\n      dup2\n      add\n      swap1\n      tag_54\n      swap2\n      swap1\n      tag_50\n      jump\t// in\n    tag_54:\n      tag_55\n      jump\t// in\n    tag_53:\n      mload(0x40)\n      tag_56\n      swap2\n      swap1\n      tag_57\n      jump\t// in\n    tag_56:\n      mload(0x40)\n      dup1\n      swap2\n      sub\n      swap1\n      return\n        /* \"contracts/contracts/Core.sol\":2805:2864  mapping(address => uint256[]) public playerChallengeHistory */\n    tag_6:\n      callvalue\n      dup1\n      iszero\n      tag_58\n      jumpi\n      0x00\n      dup1\n      revert\n    tag_58:\n      pop\n      tag_59\n      0x04\n      dup1\n      calldatasize\n      sub\n      dup2\n      add\n      swap1\n      tag_60\n      swap2\n      swap1\n      tag_61\n      jump\t// in\n    tag_60:\n      tag_62\n      jump\t// in\n    tag_59:\n      mload(0x40)\n      tag_63\n      swap2\n      swap1\n      tag_64\n      jump\t// in\n    tag_63:\n      mload(0x40)\n      dup1\n      swap2\n      sub\n      swap1\n      return\n        /* \"contracts/contracts/Core.sol\":11652:11792  function getChallengeDetails(uint256 challengeId) external view returns (Challenge memory) {... */\n    tag_7:\n      callvalue\n      dup1\n      iszero\n      tag_65\n      jumpi\n      0x00\n      dup1\n      revert\n    tag_65:\n      pop\n      tag_66\n      0x04\n      dup1\n      calldatasize\n      sub\n      dup2\n      add\n      swap1\n      tag_67\n      swap2\n      swap1\n      tag_50\n      jump\t// in\n    tag_67:\n      tag_68\n      jump\t// in\n    tag_66:\n      mload(0x40)\n      tag_69\n      swap2\n      swap1\n      tag_70\n      jump\t// in\n    tag_69:\n      mload(0x40)\n      dup1\n      swap2\n      sub\n      swap1\n      return\n        /* \"contracts/contracts/Core.sol\":1040:1074  uint256 public houseFeePercent = 5 */\n    tag_8:\n      callvalue\n      dup1\n      iszero\n      tag_71\n      jumpi\n      0x00\n      dup1\n      revert\n    tag_71:\n      pop\n      tag_72\n      tag_73\n      jump\t// in\n    tag_72:\n      mload(0x40)\n      tag_74\n      swap2\n      swap1\n      tag_64\n      jump\t// in\n    tag_74:\n      mload(0x40)\n      dup1\n      swap2\n      sub\n      swap1\n      return\n        /* \"contracts/contracts/Core.sol\":12599:12666  function unpause() external onlyOwner {... */\n    tag_9:\n      callvalue\n      dup1\n      iszero\n      tag_75\n      jumpi\n      0x00\n      dup1\n      revert\n    tag_75:\n      pop\n      tag_76\n      tag_77\n      jump\t// in\n    tag_76:\n      stop\n        /* \"contracts/contracts/Core.sol\":9012:9373  function getStarMultiplier(StarType starType) public pure returns (uint256) {... */\n    tag_10:\n      callvalue\n      dup1\n      iszero\n      tag_78\n      jumpi\n      0x00\n      dup1\n      revert\n    tag_78:\n      pop\n      tag_79\n      0x04\n      dup1\n      calldatasize\n      sub\n      dup2\n      add\n      swap1\n      tag_80\n      swap2\n      swap1\n      tag_81\n      jump\t// in\n    tag_80:\n      tag_82\n      jump\t// in\n    tag_79:\n      mload(0x40)\n      tag_83\n      swap2\n      swap1\n      tag_64\n      jump\t// in\n    tag_83:\n      mload(0x40)\n      dup1\n      swap2\n      sub\n      swap1\n      return\n        /* \"https://github.com/OpenZeppelin/openzeppelin-contracts/blob/v4.9.6/contracts/security/Pausable.sol\":1615:1699  function paused() public view virtual returns (bool) {... */\n    tag_11:\n      callvalue\n      dup1\n      iszero\n      tag_84\n      jumpi\n      0x00\n      dup1\n      revert\n    tag_84:\n      pop\n      tag_85\n      tag_86\n      jump\t// in\n    tag_85:\n      mload(0x40)\n      tag_87\n      swap2\n      swap1\n      tag_88\n      jump\t// in\n    tag_87:\n      mload(0x40)\n      dup1\n      swap2\n      sub\n      swap1\n      return\n        /* \"contracts/contracts/Core.sol\":12744:12857  function withdrawBalance() external onlyOwner {... */\n    tag_12:\n      callvalue\n      dup1\n      iszero\n      tag_89\n      jumpi\n      0x00\n      dup1\n      revert\n    tag_89:\n      pop\n      tag_90\n      tag_91\n      jump\t// in\n    tag_90:\n      stop\n        /* \"contracts/contracts/Core.sol\":805:833  address public storageWallet */\n    tag_13:\n      callvalue\n      dup1\n      iszero\n      tag_92\n      jumpi\n      0x00\n      dup1\n      revert\n    tag_92:\n      pop\n      tag_93\n      tag_94\n      jump\t// in\n    tag_93:\n      mload(0x40)\n      tag_95\n      swap2\n      swap1\n      tag_96\n      jump\t// in\n    tag_95:\n      mload(0x40)\n      dup1\n      swap2\n      sub\n      swap1\n      return\n        /* \"contracts/contracts/Core.sol\":2613:2650  mapping(uint256 => Star) public stars */\n    tag_14:\n      callvalue\n      dup1\n      iszero\n      tag_97\n      jumpi\n      0x00\n      dup1\n      revert\n    tag_97:\n      pop\n      tag_98\n      0x04\n      dup1\n      calldatasize\n      sub\n      dup2\n      add\n      swap1\n      tag_99\n      swap2\n      swap1\n      tag_50\n      jump\t// in\n    tag_99:\n      tag_100\n      jump\t// in\n    tag_98:\n      mload(0x40)\n      tag_101\n      swap9\n      swap8\n      swap7\n      swap6\n      swap5\n      swap4\n      swap3\n      swap2\n      swap1\n      tag_102\n      jump\t// in\n    tag_101:\n      mload(0x40)\n      dup1\n      swap2\n      sub\n      swap1\n      return\n        /* \"contracts/contracts/Core.sol\":6305:8939  function completeChallenge(... */\n    tag_15:\n      callvalue\n      dup1\n      iszero\n      tag_103\n      jumpi\n      0x00\n      dup1\n      revert\n    tag_103:\n      pop\n      tag_104\n      0x04\n      dup1\n      calldatasize\n      sub\n      dup2\n      add\n      swap1\n      tag_105\n      swap2\n      swap1\n      tag_106\n      jump\t// in\n    tag_105:\n      tag_107\n      jump\t// in\n    tag_104:\n      stop\n        /* \"https://github.com/OpenZeppelin/openzeppelin-contracts/blob/v4.9.6/contracts/access/Ownable.sol\":1824:1925  function renounceOwnership() public virtual onlyOwner {... */\n    tag_16:\n      callvalue\n      dup1\n      iszero\n      tag_108\n      jumpi\n      0x00\n      dup1\n      revert\n    tag_108:\n      pop\n      tag_109\n      tag_110\n      jump\t// in\n    tag_109:\n      stop\n        /* \"contracts/contracts/Core.sol\":12528:12591  function pause() external onlyOwner {... */\n    tag_17:\n      callvalue\n      dup1\n      iszero\n      tag_111\n      jumpi\n      0x00\n      dup1\n      revert\n    tag_111:\n      pop\n      tag_112\n      tag_113\n      jump\t// in\n    tag_112:\n      stop\n        /* \"https://github.com/OpenZeppelin/openzeppelin-contracts/blob/v4.9.6/contracts/access/Ownable.sol\":1201:1286  function owner() public view virtual returns (address) {... */\n    tag_18:\n      callvalue\n      dup1\n      iszero\n      tag_114\n      jumpi\n      0x00\n      dup1\n      revert\n    tag_114:\n      pop\n      tag_115\n      tag_116\n      jump\t// in\n    tag_115:\n      mload(0x40)\n      tag_117\n      swap2\n      swap1\n      tag_96\n      jump\t// in\n    tag_117:\n      mload(0x40)\n      dup1\n      swap2\n      sub\n      swap1\n      return\n        /* \"contracts/contracts/Core.sol\":2559:2606  mapping(uint256 => Challenge) public challenges */\n    tag_19:\n      callvalue\n      dup1\n      iszero\n      tag_118\n      jumpi\n      0x00\n      dup1\n      revert\n    tag_118:\n      pop\n      tag_119\n      0x04\n      dup1\n      calldatasize\n      sub\n      dup2\n      add\n      swap1\n      tag_120\n      swap2\n      swap1\n      tag_50\n      jump\t// in\n    tag_120:\n      tag_121\n      jump\t// in\n    tag_119:\n      mload(0x40)\n      tag_122\n      swap12\n      swap11\n      swap10\n      swap9\n      swap8\n      swap7\n      swap6\n      swap5\n      swap4\n      swap3\n      swap2\n      swap1\n      tag_123\n      jump\t// in\n    tag_122:\n      mload(0x40)\n      dup1\n      swap2\n      sub\n      swap1\n      return\n        /* \"contracts/contracts/Core.sol\":11443:11591  function getPlayerChallengeHistory(address player) external view returns (uint256[] memory) {... */\n    tag_20:\n      callvalue\n      dup1\n      iszero\n      tag_124\n      jumpi\n      0x00\n      dup1\n      revert\n    tag_124:\n      pop\n      tag_125\n      0x04\n      dup1\n      calldatasize\n      sub\n      dup2\n      add\n      swap1\n      tag_126\n      swap2\n      swap1\n      tag_127\n      jump\t// in\n    tag_126:\n      tag_128\n      jump\t// in\n    tag_125:\n      mload(0x40)\n      tag_129\n      swap2\n      swap1\n      tag_130\n      jump\t// in\n    tag_129:\n      mload(0x40)\n      dup1\n      swap2\n      sub\n      swap1\n      return\n        /* \"contracts/contracts/Core.sol\":2714:2758  mapping(address => bool) public authorizedAI */\n    tag_21:\n      callvalue\n      dup1\n      iszero\n      tag_131\n      jumpi\n      0x00\n      dup1\n      revert\n    tag_131:\n      pop\n      tag_132\n      0x04\n      dup1\n      calldatasize\n      sub\n      dup2\n      add\n      swap1\n      tag_133\n      swap2\n      swap1\n      tag_127\n      jump\t// in\n    tag_133:\n      tag_134\n      jump\t// in\n    tag_132:\n      mload(0x40)\n      tag_135\n      swap2\n      swap1\n      tag_88\n      jump\t// in\n    tag_135:\n      mload(0x40)\n      dup1\n      swap2\n      sub\n      swap1\n      return\n        /* \"contracts/contracts/Core.sol\":12035:12466  function setGameParameters(... */\n    tag_22:\n      callvalue\n      dup1\n      iszero\n      tag_136\n      jumpi\n      0x00\n      dup1\n      revert\n    tag_136:\n      pop\n      tag_137\n      0x04\n      dup1\n      calldatasize\n      sub\n      dup2\n      add\n      swap1\n      tag_138\n      swap2\n      swap1\n      tag_139\n      jump\t// in\n    tag_138:\n      tag_140\n      jump\t// in\n    tag_137:\n      stop\n        /* \"contracts/contracts/Core.sol\":10402:10583  function authorizeAI(address aiAgent, bool authorized) external onlyOwner {... */\n    tag_23:\n      callvalue\n      dup1\n      iszero\n      tag_141\n      jumpi\n      0x00\n      dup1\n      revert\n    tag_141:\n      pop\n      tag_142\n      0x04\n      dup1\n      calldatasize\n      sub\n      dup2\n      add\n      swap1\n      tag_143\n      swap2\n      swap1\n      tag_144\n      jump\t// in\n    tag_143:\n      tag_145\n      jump\t// in\n    tag_142:\n      stop\n        /* \"contracts/contracts/Core.sol\":923:961  uint256 public maximumStake = 10 ether */\n    tag_24:\n      callvalue\n      dup1\n      iszero\n      tag_146\n      jumpi\n      0x00\n      dup1\n      revert\n    tag_146:\n      pop\n      tag_147\n      tag_148\n      jump\t// in\n    tag_147:\n      mload(0x40)\n      tag_149\n      swap2\n      swap1\n      tag_64\n      jump\t// in\n    tag_149:\n      mload(0x40)\n      dup1\n      swap2\n      sub\n      swap1\n      return\n        /* \"contracts/contracts/Core.sol\":2507:2552  mapping(address => Stake) public playerStakes */\n    tag_25:\n      callvalue\n      dup1\n      iszero\n      tag_150\n      jumpi\n      0x00\n      dup1\n      revert\n    tag_150:\n      pop\n      tag_151\n      0x04\n      dup1\n      calldatasize\n      sub\n      dup2\n      add\n      swap1\n      tag_152\n      swap2\n      swap1\n      tag_127\n      jump\t// in\n    tag_152:\n      tag_153\n      jump\t// in\n    tag_151:\n      mload(0x40)\n      tag_154\n      swap5\n      swap4\n      swap3\n      swap2\n      swap1\n      tag_155\n      jump\t// in\n    tag_154:\n      mload(0x40)\n      dup1\n      swap2\n      sub\n      swap1\n      return\n        /* \"contracts/contracts/Core.sol\":5626:6069  function submitChallenge(uint256 challengeId, string memory challengeHash) ... */\n    tag_26:\n      callvalue\n      dup1\n      iszero\n      tag_156\n      jumpi\n      0x00\n      dup1\n      revert\n    tag_156:\n      pop\n      tag_157\n      0x04\n      dup1\n      calldatasize\n      sub\n      dup2\n      add\n      swap1\n      tag_158\n      swap2\n      swap1\n      tag_159\n      jump\t// in\n    tag_158:\n      tag_160\n      jump\t// in\n    tag_157:\n      stop\n        /* \"contracts/contracts/Core.sol\":840:869  address public oracleContract */\n    tag_27:\n      callvalue\n      dup1\n      iszero\n      tag_161\n      jumpi\n      0x00\n      dup1\n      revert\n    tag_161:\n      pop\n      tag_162\n      tag_163\n      jump\t// in\n    tag_162:\n      mload(0x40)\n      tag_164\n      swap2\n      swap1\n      tag_96\n      jump\t// in\n    tag_164:\n      mload(0x40)\n      dup1\n      swap2\n      sub\n      swap1\n      return\n        /* \"contracts/contracts/Core.sol\":2657:2707  mapping(address => PlayerStats) public playerStats */\n    tag_28:\n      callvalue\n      dup1\n      iszero\n      tag_165\n      jumpi\n      0x00\n      dup1\n      revert\n    tag_165:\n      pop\n      tag_166\n      0x04\n      dup1\n      calldatasize\n      sub\n      dup2\n      add\n      swap1\n      tag_167\n      swap2\n      swap1\n      tag_127\n      jump\t// in\n    tag_167:\n      tag_168\n      jump\t// in\n    tag_166:\n      mload(0x40)\n      tag_169\n      swap8\n      swap7\n      swap6\n      swap5\n      swap4\n      swap3\n      swap2\n      swap1\n      tag_170\n      jump\t// in\n    tag_169:\n      mload(0x40)\n      dup1\n      swap2\n      sub\n      swap1\n      return\n        /* \"contracts/contracts/Core.sol\":968:1002  uint256 public winMultiplier = 200 */\n    tag_29:\n      callvalue\n      dup1\n      iszero\n      tag_171\n      jumpi\n      0x00\n      dup1\n      revert\n    tag_171:\n      pop\n      tag_172\n      tag_173\n      jump\t// in\n    tag_172:\n      mload(0x40)\n      tag_174\n      swap2\n      swap1\n      tag_64\n      jump\t// in\n    tag_174:\n      mload(0x40)\n      dup1\n      swap2\n      sub\n      swap1\n      return\n        /* \"contracts/contracts/Core.sol\":9449:10063  function addStar(... */\n    tag_30:\n      callvalue\n      dup1\n      iszero\n      tag_175\n      jumpi\n      0x00\n      dup1\n      revert\n    tag_175:\n      pop\n      tag_176\n      0x04\n      dup1\n      calldatasize\n      sub\n      dup2\n      add\n      swap1\n      tag_177\n      swap2\n      swap1\n      tag_178\n      jump\t// in\n    tag_177:\n      tag_179\n      jump\t// in\n    tag_176:\n      stop\n        /* \"contracts/contracts/Core.sol\":10668:11373  function emergencyWithdraw() external nonReentrant {... */\n    tag_31:\n      callvalue\n      dup1\n      iszero\n      tag_180\n      jumpi\n      0x00\n      dup1\n      revert\n    tag_180:\n      pop\n      tag_181\n      tag_182\n      jump\t// in\n    tag_181:\n      stop\n        /* \"contracts/contracts/Core.sol\":876:916  uint256 public minimumStake = 0.01 ether */\n    tag_32:\n      callvalue\n      dup1\n      iszero\n      tag_183\n      jumpi\n      0x00\n      dup1\n      revert\n    tag_183:\n      pop\n      tag_184\n      tag_185\n      jump\t// in\n    tag_184:\n      mload(0x40)\n      tag_186\n      swap2\n      swap1\n      tag_64\n      jump\t// in\n    tag_186:\n      mload(0x40)\n      dup1\n      swap2\n      sub\n      swap1\n      return\n        /* \"https://github.com/OpenZeppelin/openzeppelin-contracts/blob/v4.9.6/contracts/access/Ownable.sol\":2074:2272  function transferOwnership(address newOwner) public virtual onlyOwner {... */\n    tag_33:\n      callvalue\n      dup1\n      iszero\n      tag_187\n      jumpi\n      0x00\n      dup1\n      revert\n    tag_187:\n      pop\n      tag_188\n      0x04\n      dup1\n      calldatasize\n      sub\n      dup2\n      add\n      swap1\n      tag_189\n      swap2\n      swap1\n      tag_127\n      jump\t// in\n    tag_189:\n      tag_190\n      jump\t// in\n    tag_188:\n      stop\n        /* \"contracts/contracts/Core.sol\":10121:10344  function updateStar(uint256 starId, bool active) external onlyOwner {... */\n    tag_47:\n        /* \"https://github.com/OpenZeppelin/openzeppelin-contracts/blob/v4.9.6/contracts/access/Ownable.sol\":1094:1107  _checkOwner() */\n      tag_192\n        /* \"https://github.com/OpenZeppelin/openzeppelin-contracts/blob/v4.9.6/contracts/access/Ownable.sol\":1094:1105  _checkOwner */\n      tag_193\n        /* \"https://github.com/OpenZeppelin/openzeppelin-contracts/blob/v4.9.6/contracts/access/Ownable.sol\":1094:1107  _checkOwner() */\n      jump\t// in\n    tag_192:\n        /* \"contracts/contracts/Core.sol\":10228:10229  0 */\n      0x00\n        /* \"contracts/contracts/Core.sol\":10208:10213  stars */\n      0x0c\n        /* \"contracts/contracts/Core.sol\":10208:10221  stars[starId] */\n      0x00\n        /* \"contracts/contracts/Core.sol\":10214:10220  starId */\n      dup5\n        /* \"contracts/contracts/Core.sol\":10208:10221  stars[starId] */\n      dup2\n      mstore\n      0x20\n      add\n      swap1\n      dup2\n      mstore\n      0x20\n      add\n      0x00\n      keccak256\n        /* \"contracts/contracts/Core.sol\":10208:10224  stars[starId].id */\n      0x00\n      add\n      sload\n        /* \"contracts/contracts/Core.sol\":10208:10229  stars[starId].id != 0 */\n      sub\n        /* \"contracts/contracts/Core.sol\":10200:10253  require(stars[starId].id != 0, \"Star does not exist\") */\n      tag_195\n      jumpi\n      mload(0x40)\n      0x08c379a000000000000000000000000000000000000000000000000000000000\n      dup2\n      mstore\n      0x04\n      add\n      tag_196\n      swap1\n      tag_197\n      jump\t// in\n    tag_196:\n      mload(0x40)\n      dup1\n      swap2\n      sub\n      swap1\n      revert\n    tag_195:\n        /* \"contracts/contracts/Core.sol\":10287:10293  active */\n      dup1\n        /* \"contracts/contracts/Core.sol\":10264:10269  stars */\n      0x0c\n        /* \"contracts/contracts/Core.sol\":10264:10277  stars[starId] */\n      0x00\n        /* \"contracts/contracts/Core.sol\":10270:10276  starId */\n      dup5\n        /* \"contracts/contracts/Core.sol\":10264:10277  stars[starId] */\n      dup2\n      mstore\n      0x20\n      add\n      swap1\n      dup2\n      mstore\n      0x20\n      add\n      0x00\n      keccak256\n        /* \"contracts/contracts/Core.sol\":10264:10284  stars[starId].active */\n      0x04\n      add\n      0x01\n        /* \"contracts/contracts/Core.sol\":10264:10293  stars[starId].active = active */\n      0x0100\n      exp\n      dup2\n      sload\n      dup2\n      0xff\n      mul\n      not\n      and\n      swap1\n      dup4\n      iszero\n      iszero\n      mul\n      or\n      swap1\n      sstore\n      pop\n        /* \"contracts/contracts/Core.sol\":10321:10327  starId */\n      dup2\n        /* \"contracts/contracts/Core.sol\":10309:10336  StarUpdated(starId, active) */\n      0xce5d422e23968aa174a8455b0889f3d82d14cfd63c91191ef04bfaa6a030dcb0\n        /* \"contracts/contracts/Core.sol\":10329:10335  active */\n      dup3\n        /* \"contracts/contracts/Core.sol\":10309:10336  StarUpdated(starId, active) */\n      mload(0x40)\n      tag_198\n      swap2\n      swap1\n      tag_88\n      jump\t// in\n    tag_198:\n      mload(0x40)\n      dup1\n      swap2\n      sub\n      swap1\n      log2\n        /* \"contracts/contracts/Core.sol\":10121:10344  function updateStar(uint256 starId, bool active) external onlyOwner {... */\n      pop\n      pop\n      jump\t// out\n        /* \"contracts/contracts/Core.sol\":4099:5441  function createStake(uint256 starId) ... */\n    tag_51:\n        /* \"https://github.com/OpenZeppelin/openzeppelin-contracts/blob/v4.9.6/contracts/security/ReentrancyGuard.sol\":2261:2282  _nonReentrantBefore() */\n      tag_200\n        /* \"https://github.com/OpenZeppelin/openzeppelin-contracts/blob/v4.9.6/contracts/security/ReentrancyGuard.sol\":2261:2280  _nonReentrantBefore */\n      tag_201\n        /* \"https://github.com/OpenZeppelin/openzeppelin-contracts/blob/v4.9.6/contracts/security/ReentrancyGuard.sol\":2261:2282  _nonReentrantBefore() */\n      jump\t// in\n    tag_200:\n        /* \"https://github.com/OpenZeppelin/openzeppelin-contracts/blob/v4.9.6/contracts/security/Pausable.sol\":1239:1258  _requireNotPaused() */\n      tag_203\n        /* \"https://github.com/OpenZeppelin/openzeppelin-contracts/blob/v4.9.6/contracts/security/Pausable.sol\":1239:1256  _requireNotPaused */\n      tag_204\n        /* \"https://github.com/OpenZeppelin/openzeppelin-contracts/blob/v4.9.6/contracts/security/Pausable.sol\":1239:1258  _requireNotPaused() */\n      jump\t// in\n    tag_203:\n        /* \"contracts/contracts/Core.sol\":4247:4256  msg.value */\n      callvalue\n        /* \"contracts/contracts/Core.sol\":3744:3756  minimumStake */\n      sload(0x04)\n        /* \"contracts/contracts/Core.sol\":3734:3740  amount */\n      dup2\n        /* \"contracts/contracts/Core.sol\":3734:3756  amount >= minimumStake */\n      lt\n      iszero\n        /* \"contracts/contracts/Core.sol\":3734:3782  amount >= minimumStake && amount <= maximumStake */\n      dup1\n      iszero\n      tag_206\n      jumpi\n      pop\n        /* \"contracts/contracts/Core.sol\":3770:3782  maximumStake */\n      sload(0x05)\n        /* \"contracts/contracts/Core.sol\":3760:3766  amount */\n      dup2\n        /* \"contracts/contracts/Core.sol\":3760:3782  amount <= maximumStake */\n      gt\n      iszero\n        /* \"contracts/contracts/Core.sol\":3734:3782  amount >= minimumStake && amount <= maximumStake */\n    tag_206:\n        /* \"contracts/contracts/Core.sol\":3726:3807  require(amount >= minimumStake && amount <= maximumStake, \"Invalid stake amount\") */\n      tag_207\n      jumpi\n      mload(0x40)\n      0x08c379a000000000000000000000000000000000000000000000000000000000\n      dup2\n      mstore\n      0x04\n      add\n      tag_208\n      swap1\n      tag_209\n      jump\t// in\n    tag_208:\n      mload(0x40)\n      dup1\n      swap2\n      sub\n      swap1\n      revert\n    tag_207:\n        /* \"contracts/contracts/Core.sol\":4283:4288  stars */\n      0x0c\n        /* \"contracts/contracts/Core.sol\":4283:4296  stars[starId] */\n      0x00\n        /* \"contracts/contracts/Core.sol\":4289:4295  starId */\n      dup4\n        /* \"contracts/contracts/Core.sol\":4283:4296  stars[starId] */\n      dup2\n      mstore\n      0x20\n      add\n      swap1\n      dup2\n      mstore\n      0x20\n      add\n      0x00\n      keccak256\n        /* \"contracts/contracts/Core.sol\":4283:4303  stars[starId].active */\n      0x04\n      add\n      0x01\n      swap1\n      sload\n      swap1\n      0x0100\n      exp\n      swap1\n      div\n      0xff\n      and\n        /* \"contracts/contracts/Core.sol\":4275:4323  require(stars[starId].active, \"Star not active\") */\n      tag_211\n      jumpi\n      mload(0x40)\n      0x08c379a000000000000000000000000000000000000000000000000000000000\n      dup2\n      mstore\n      0x04\n      add\n      tag_212\n      swap1\n      tag_213\n      jump\t// in\n    tag_212:\n      mload(0x40)\n      dup1\n      swap2\n      sub\n      swap1\n      revert\n    tag_211:\n        /* \"contracts/contracts/Core.sol\":4343:4355  playerStakes */\n      0x0a\n        /* \"contracts/contracts/Core.sol\":4343:4367  playerStakes[msg.sender] */\n      0x00\n        /* \"contracts/contracts/Core.sol\":4356:4366  msg.sender */\n      caller\n        /* \"contracts/contracts/Core.sol\":4343:4367  playerStakes[msg.sender] */\n      0xffffffffffffffffffffffffffffffffffffffff\n      and\n      0xffffffffffffffffffffffffffffffffffffffff\n      and\n      dup2\n      mstore\n      0x20\n      add\n      swap1\n      dup2\n      mstore\n      0x20\n      add\n      0x00\n      keccak256\n        /* \"contracts/contracts/Core.sol\":4343:4374  playerStakes[msg.sender].active */\n      0x02\n      add\n      0x00\n      swap1\n      sload\n      swap1\n      0x0100\n      exp\n      swap1\n      div\n      0xff\n      and\n        /* \"contracts/contracts/Core.sol\":4342:4374  !playerStakes[msg.sender].active */\n      iszero\n        /* \"contracts/contracts/Core.sol\":4334:4404  require(!playerStakes[msg.sender].active, \"Already have active stake\") */\n      tag_214\n      jumpi\n      mload(0x40)\n      0x08c379a000000000000000000000000000000000000000000000000000000000\n      dup2\n      mstore\n      0x04\n      add\n      tag_215\n      swap1\n      tag_216\n      jump\t// in\n    tag_215:\n      mload(0x40)\n      dup1\n      swap2\n      sub\n      swap1\n      revert\n    tag_214:\n        /* \"contracts/contracts/Core.sol\":4417:4436  uint256 challengeId */\n      0x00\n        /* \"contracts/contracts/Core.sol\":4439:4462  _challengeIds.current() */\n      tag_217\n        /* \"contracts/contracts/Core.sol\":4439:4452  _challengeIds */\n      0x08\n        /* \"contracts/contracts/Core.sol\":4439:4460  _challengeIds.current */\n      tag_218\n        /* \"contracts/contracts/Core.sol\":4439:4462  _challengeIds.current() */\n      jump\t// in\n    tag_217:\n        /* \"contracts/contracts/Core.sol\":4417:4462  uint256 challengeId = _challengeIds.current() */\n      swap1\n      pop\n        /* \"contracts/contracts/Core.sol\":4473:4498  _challengeIds.increment() */\n      tag_219\n        /* \"contracts/contracts/Core.sol\":4473:4486  _challengeIds */\n      0x08\n        /* \"contracts/contracts/Core.sol\":4473:4496  _challengeIds.increment */\n      tag_220\n        /* \"contracts/contracts/Core.sol\":4473:4498  _challengeIds.increment() */\n      jump\t// in\n    tag_219:\n        /* \"contracts/contracts/Core.sol\":4563:4720  Stake({... */\n      mload(0x40)\n      dup1\n      0x80\n      add\n      0x40\n      mstore\n      dup1\n        /* \"contracts/contracts/Core.sol\":4592:4601  msg.value */\n      callvalue\n        /* \"contracts/contracts/Core.sol\":4563:4720  Stake({... */\n      dup2\n      mstore\n      0x20\n      add\n        /* \"contracts/contracts/Core.sol\":4627:4642  block.timestamp */\n      timestamp\n        /* \"contracts/contracts/Core.sol\":4563:4720  Stake({... */\n      dup2\n      mstore\n      0x20\n      add\n        /* \"contracts/contracts/Core.sol\":4665:4669  true */\n      0x01\n        /* \"contracts/contracts/Core.sol\":4563:4720  Stake({... */\n      iszero\n      iszero\n      dup2\n      mstore\n      0x20\n      add\n        /* \"contracts/contracts/Core.sol\":4697:4708  challengeId */\n      dup3\n        /* \"contracts/contracts/Core.sol\":4563:4720  Stake({... */\n      dup2\n      mstore\n      pop\n        /* \"contracts/contracts/Core.sol\":4536:4548  playerStakes */\n      0x0a\n        /* \"contracts/contracts/Core.sol\":4536:4560  playerStakes[msg.sender] */\n      0x00\n        /* \"contracts/contracts/Core.sol\":4549:4559  msg.sender */\n      caller\n        /* \"contracts/contracts/Core.sol\":4536:4560  playerStakes[msg.sender] */\n      0xffffffffffffffffffffffffffffffffffffffff\n      and\n      0xffffffffffffffffffffffffffffffffffffffff\n      and\n      dup2\n      mstore\n      0x20\n      add\n      swap1\n      dup2\n      mstore\n      0x20\n      add\n      0x00\n      keccak256\n        /* \"contracts/contracts/Core.sol\":4536:4720  playerStakes[msg.sender] = Stake({... */\n      0x00\n      dup3\n      add\n      mload\n      dup2\n      0x00\n      add\n      sstore\n      0x20\n      dup3\n      add\n      mload\n      dup2\n      0x01\n      add\n      sstore\n      0x40\n      dup3\n      add\n      mload\n      dup2\n      0x02\n      add\n      exp(0x0100, 0x00)\n      dup2\n      sload\n      dup2\n      0xff\n      mul\n      not\n      and\n      swap1\n      dup4\n      iszero\n      iszero\n      mul\n      or\n      swap1\n      sstore\n      pop\n      0x60\n      dup3\n      add\n      mload\n      dup2\n      0x03\n      add\n      sstore\n      swap1\n      pop\n      pop\n        /* \"contracts/contracts/Core.sol\":4788:5193  Challenge({... */\n      mload(0x40)\n      dup1\n      0x0160\n      add\n      0x40\n      mstore\n      dup1\n        /* \"contracts/contracts/Core.sol\":4817:4828  challengeId */\n      dup3\n        /* \"contracts/contracts/Core.sol\":4788:5193  Challenge({... */\n      dup2\n      mstore\n      0x20\n      add\n        /* \"contracts/contracts/Core.sol\":4851:4861  msg.sender */\n      caller\n        /* \"contracts/contracts/Core.sol\":4788:5193  Challenge({... */\n      0xffffffffffffffffffffffffffffffffffffffff\n      and\n      dup2\n      mstore\n      0x20\n      add\n        /* \"contracts/contracts/Core.sol\":4889:4898  msg.value */\n      callvalue\n        /* \"contracts/contracts/Core.sol\":4788:5193  Challenge({... */\n      dup2\n      mstore\n      0x20\n      add\n      mload(0x40)\n      dup1\n      0x20\n      add\n      0x40\n      mstore\n      dup1\n      0x00\n      dup2\n      mstore\n      pop\n      dup2\n      mstore\n      0x20\n      add\n      mload(0x40)\n      dup1\n      0x20\n      add\n      0x40\n      mstore\n      dup1\n      0x00\n      dup2\n      mstore\n      pop\n      dup2\n      mstore\n      0x20\n      add\n        /* \"contracts/contracts/Core.sol\":4981:5003  ChallengeStatus.Active */\n      0x00\n        /* \"contracts/contracts/Core.sol\":4788:5193  Challenge({... */\n      0x03\n      dup2\n      gt\n      iszero\n      tag_221\n      jumpi\n      tag_222\n      tag_223\n      jump\t// in\n    tag_222:\n    tag_221:\n      dup2\n      mstore\n      0x20\n      add\n        /* \"contracts/contracts/Core.sol\":5029:5044  block.timestamp */\n      timestamp\n        /* \"contracts/contracts/Core.sol\":4788:5193  Challenge({... */\n      dup2\n      mstore\n      0x20\n      add\n        /* \"contracts/contracts/Core.sol\":5072:5073  0 */\n      0x00\n        /* \"contracts/contracts/Core.sol\":4788:5193  Challenge({... */\n      dup2\n      mstore\n      0x20\n      add\n        /* \"contracts/contracts/Core.sol\":5100:5105  false */\n      0x00\n        /* \"contracts/contracts/Core.sol\":4788:5193  Challenge({... */\n      iszero\n      iszero\n      dup2\n      mstore\n      0x20\n      add\n        /* \"contracts/contracts/Core.sol\":5128:5134  starId */\n      dup5\n        /* \"contracts/contracts/Core.sol\":4788:5193  Challenge({... */\n      dup2\n      mstore\n      0x20\n      add\n        /* \"contracts/contracts/Core.sol\":5159:5164  stars */\n      0x0c\n        /* \"contracts/contracts/Core.sol\":5159:5172  stars[starId] */\n      0x00\n        /* \"contracts/contracts/Core.sol\":5165:5171  starId */\n      dup7\n        /* \"contracts/contracts/Core.sol\":5159:5172  stars[starId] */\n      dup2\n      mstore\n      0x20\n      add\n      swap1\n      dup2\n      mstore\n      0x20\n      add\n      0x00\n      keccak256\n        /* \"contracts/contracts/Core.sol\":5159:5181  stars[starId].starType */\n      0x04\n      add\n      0x00\n      swap1\n      sload\n      swap1\n      0x0100\n      exp\n      swap1\n      div\n      0xff\n      and\n        /* \"contracts/contracts/Core.sol\":4788:5193  Challenge({... */\n      0x03\n      dup2\n      gt\n      iszero\n      tag_224\n      jumpi\n      tag_225\n      tag_223\n      jump\t// in\n    tag_225:\n    tag_224:\n      dup2\n      mstore\n      pop\n        /* \"contracts/contracts/Core.sol\":4762:4772  challenges */\n      0x0b\n        /* \"contracts/contracts/Core.sol\":4762:4785  challenges[challengeId] */\n      0x00\n        /* \"contracts/contracts/Core.sol\":4773:4784  challengeId */\n      dup4\n        /* \"contracts/contracts/Core.sol\":4762:4785  challenges[challengeId] */\n      dup2\n      mstore\n      0x20\n      add\n      swap1\n      dup2\n      mstore\n      0x20\n      add\n      0x00\n      keccak256\n        /* \"contracts/contracts/Core.sol\":4762:5193  challenges[challengeId] = Challenge({... */\n      0x00\n      dup3\n      add\n      mload\n      dup2\n      0x00\n      add\n      sstore\n      0x20\n      dup3\n      add\n      mload\n      dup2\n      0x01\n      add\n      exp(0x0100, 0x00)\n      dup2\n      sload\n      dup2\n      0xffffffffffffffffffffffffffffffffffffffff\n      mul\n      not\n      and\n      swap1\n      dup4\n      0xffffffffffffffffffffffffffffffffffffffff\n      and\n      mul\n      or\n      swap1\n      sstore\n      pop\n      0x40\n      dup3\n      add\n      mload\n      dup2\n      0x02\n      add\n      sstore\n      0x60\n      dup3\n      add\n      mload\n      dup2\n      0x03\n      add\n      swap1\n      dup2\n      tag_226\n      swap2\n      swap1\n      tag_227\n      jump\t// in\n    tag_226:\n      pop\n      0x80\n      dup3\n      add\n      mload\n      dup2\n      0x04\n      add\n      swap1\n      dup2\n      tag_228\n      swap2\n      swap1\n      tag_227\n      jump\t// in\n    tag_228:\n      pop\n      0xa0\n      dup3\n      add\n      mload\n      dup2\n      0x05\n      add\n      exp(0x0100, 0x00)\n      dup2\n      sload\n      dup2\n      0xff\n      mul\n      not\n      and\n      swap1\n      dup4\n      0x03\n      dup2\n      gt\n      iszero\n      tag_229\n      jumpi\n      tag_230\n      tag_223\n      jump\t// in\n    tag_230:\n    tag_229:\n      mul\n      or\n      swap1\n      sstore\n      pop\n      0xc0\n      dup3\n      add\n      mload\n      dup2\n      0x06\n      add\n      sstore\n      0xe0\n      dup3\n      add\n      mload\n      dup2\n      0x07\n      add\n      sstore\n      0x0100\n      dup3\n      add\n      mload\n      dup2\n      0x08\n      add\n      exp(0x0100, 0x00)\n      dup2\n      sload\n      dup2\n      0xff\n      mul\n      not\n      and\n      swap1\n      dup4\n      iszero\n      iszero\n      mul\n      or\n      swap1\n      sstore\n      pop\n      0x0120\n      dup3\n      add\n      mload\n      dup2\n      0x09\n      add\n      sstore\n      0x0140\n      dup3\n      add\n      mload\n      dup2\n      0x0a\n      add\n      exp(0x0100, 0x00)\n      dup2\n      sload\n      dup2\n      0xff\n      mul\n      not\n      and\n      swap1\n      dup4\n      0x03\n      dup2\n      gt\n      iszero\n      tag_231\n      jumpi\n      tag_232\n      tag_223\n      jump\t// in\n    tag_232:\n    tag_231:\n      mul\n      or\n      swap1\n      sstore\n      pop\n      swap1\n      pop\n      pop\n        /* \"contracts/contracts/Core.sol\":5265:5274  msg.value */\n      callvalue\n        /* \"contracts/contracts/Core.sol\":5236:5241  stars */\n      0x0c\n        /* \"contracts/contracts/Core.sol\":5236:5249  stars[starId] */\n      0x00\n        /* \"contracts/contracts/Core.sol\":5242:5248  starId */\n      dup6\n        /* \"contracts/contracts/Core.sol\":5236:5249  stars[starId] */\n      dup2\n      mstore\n      0x20\n      add\n      swap1\n      dup2\n      mstore\n      0x20\n      add\n      0x00\n      keccak256\n        /* \"contracts/contracts/Core.sol\":5236:5261  stars[starId].totalStaked */\n      0x06\n      add\n      0x00\n        /* \"contracts/contracts/Core.sol\":5236:5274  stars[starId].totalStaked += msg.value */\n      dup3\n      dup3\n      sload\n      tag_233\n      swap2\n      swap1\n      tag_234\n      jump\t// in\n    tag_233:\n      swap3\n      pop\n      pop\n      dup2\n      swap1\n      sstore\n      pop\n        /* \"contracts/contracts/Core.sol\":5321:5343  playerChallengeHistory */\n      0x0f\n        /* \"contracts/contracts/Core.sol\":5321:5355  playerChallengeHistory[msg.sender] */\n      0x00\n        /* \"contracts/contracts/Core.sol\":5344:5354  msg.sender */\n      caller\n        /* \"contracts/contracts/Core.sol\":5321:5355  playerChallengeHistory[msg.sender] */\n      0xffffffffffffffffffffffffffffffffffffffff\n      and\n      0xffffffffffffffffffffffffffffffffffffffff\n      and\n      dup2\n      mstore\n      0x20\n      add\n      swap1\n      dup2\n      mstore\n      0x20\n      add\n      0x00\n      keccak256\n        /* \"contracts/contracts/Core.sol\":5361:5372  challengeId */\n      dup2\n        /* \"contracts/contracts/Core.sol\":5321:5373  playerChallengeHistory[msg.sender].push(challengeId) */\n      swap1\n      dup1\n      0x01\n      dup2\n      sload\n      add\n      dup1\n      dup3\n      sstore\n      dup1\n      swap2\n      pop\n      pop\n      0x01\n      swap1\n      sub\n      swap1\n      0x00\n      mstore\n      keccak256(0x00, 0x20)\n      add\n      0x00\n      swap1\n      swap2\n      swap1\n      swap2\n      swap1\n      swap2\n      pop\n      sstore\n        /* \"contracts/contracts/Core.sol\":5398:5408  msg.sender */\n      caller\n        /* \"contracts/contracts/Core.sol\":5391:5433  Staked(msg.sender, msg.value, challengeId) */\n      0xffffffffffffffffffffffffffffffffffffffff\n      and\n      0x1449c6dd7851abc30abf37f57715f492010519147cc2652fbc38202c18a6ee90\n        /* \"contracts/contracts/Core.sol\":5410:5419  msg.value */\n      callvalue\n        /* \"contracts/contracts/Core.sol\":5421:5432  challengeId */\n      dup4\n        /* \"contracts/contracts/Core.sol\":5391:5433  Staked(msg.sender, msg.value, challengeId) */\n      mload(0x40)\n      tag_236\n      swap3\n      swap2\n      swap1\n      tag_237\n      jump\t// in\n    tag_236:\n      mload(0x40)\n      dup1\n      swap2\n      sub\n      swap1\n      log2\n        /* \"contracts/contracts/Core.sol\":4264:5441  {... */\n      pop\n        /* \"https://github.com/OpenZeppelin/openzeppelin-contracts/blob/v4.9.6/contracts/security/Pausable.sol\":1268:1269  _ */\n      pop\n        /* \"https://github.com/OpenZeppelin/openzeppelin-contracts/blob/v4.9.6/contracts/security/ReentrancyGuard.sol\":2303:2323  _nonReentrantAfter() */\n      tag_238\n        /* \"https://github.com/OpenZeppelin/openzeppelin-contracts/blob/v4.9.6/contracts/security/ReentrancyGuard.sol\":2303:2321  _nonReentrantAfter */\n      tag_239\n        /* \"https://github.com/OpenZeppelin/openzeppelin-contracts/blob/v4.9.6/contracts/security/ReentrancyGuard.sol\":2303:2323  _nonReentrantAfter() */\n      jump\t// in\n    tag_238:\n        /* \"contracts/contracts/Core.sol\":4099:5441  function createStake(uint256 starId) ... */\n      pop\n      jump\t// out\n        /* \"contracts/contracts/Core.sol\":11848:11963  function getStarDetails(uint256 starId) external view returns (Star memory) {... */\n    tag_55:\n        /* \"contracts/contracts/Core.sol\":11911:11922  Star memory */\n      tag_240\n      tag_241\n      jump\t// in\n    tag_240:\n        /* \"contracts/contracts/Core.sol\":11942:11947  stars */\n      0x0c\n        /* \"contracts/contracts/Core.sol\":11942:11955  stars[starId] */\n      0x00\n        /* \"contracts/contracts/Core.sol\":11948:11954  starId */\n      dup4\n        /* \"contracts/contracts/Core.sol\":11942:11955  stars[starId] */\n      dup2\n      mstore\n      0x20\n      add\n      swap1\n      dup2\n      mstore\n      0x20\n      add\n      0x00\n      keccak256\n        /* \"contracts/contracts/Core.sol\":11935:11955  return stars[starId] */\n      mload(0x40)\n      dup1\n      0x0100\n      add\n      0x40\n      mstore\n      swap1\n      dup2\n      0x00\n      dup3\n      add\n      sload\n      dup2\n      mstore\n      0x20\n      add\n      0x01\n      dup3\n      add\n      sload\n      dup2\n      mstore\n      0x20\n      add\n      0x02\n      dup3\n      add\n      sload\n      dup2\n      mstore\n      0x20\n      add\n      0x03\n      dup3\n      add\n      sload\n      dup2\n      mstore\n      0x20\n      add\n      0x04\n      dup3\n      add\n      0x00\n      swap1\n      sload\n      swap1\n      0x0100\n      exp\n      swap1\n      div\n      0xff\n      and\n      0x03\n      dup2\n      gt\n      iszero\n      tag_243\n      jumpi\n      tag_244\n      tag_223\n      jump\t// in\n    tag_244:\n    tag_243:\n      0x03\n      dup2\n      gt\n      iszero\n      tag_245\n      jumpi\n      tag_246\n      tag_223\n      jump\t// in\n    tag_246:\n    tag_245:\n      dup2\n      mstore\n      0x20\n      add\n      0x04\n      dup3\n      add\n      0x01\n      swap1\n      sload\n      swap1\n      0x0100\n      exp\n      swap1\n      div\n      0xff\n      and\n      iszero\n      iszero\n      iszero\n      iszero\n      dup2\n      mstore\n      0x20\n      add\n      0x05\n      dup3\n      add\n      sload\n      dup2\n      mstore\n      0x20\n      add\n      0x06\n      dup3\n      add\n      sload\n      dup2\n      mstore\n      pop\n      pop\n      swap1\n      pop\n        /* \"contracts/contracts/Core.sol\":11848:11963  function getStarDetails(uint256 starId) external view returns (Star memory) {... */\n      swap2\n      swap1\n      pop\n      jump\t// out\n        /* \"contracts/contracts/Core.sol\":2805:2864  mapping(address => uint256[]) public playerChallengeHistory */\n    tag_62:\n      mstore(0x20, 0x0f)\n      dup2\n      0x00\n      mstore\n      keccak256(0x00, 0x40)\n      dup2\n      dup2\n      sload\n      dup2\n      lt\n      tag_247\n      jumpi\n      0x00\n      dup1\n      revert\n    tag_247:\n      swap1\n      0x00\n      mstore\n      keccak256(0x00, 0x20)\n      add\n      0x00\n      swap2\n      pop\n      swap2\n      pop\n      pop\n      sload\n      dup2\n      jump\t// out\n        /* \"contracts/contracts/Core.sol\":11652:11792  function getChallengeDetails(uint256 challengeId) external view returns (Challenge memory) {... */\n    tag_68:\n        /* \"contracts/contracts/Core.sol\":11725:11741  Challenge memory */\n      tag_249\n      tag_250\n      jump\t// in\n    tag_249:\n        /* \"contracts/contracts/Core.sol\":11761:11771  challenges */\n      0x0b\n        /* \"contracts/contracts/Core.sol\":11761:11784  challenges[challengeId] */\n      0x00\n        /* \"contracts/contracts/Core.sol\":11772:11783  challengeId */\n      dup4\n        /* \"contracts/contracts/Core.sol\":11761:11784  challenges[challengeId] */\n      dup2\n      mstore\n      0x20\n      add\n      swap1\n      dup2\n      mstore\n      0x20\n      add\n      0x00\n      keccak256\n        /* \"contracts/contracts/Core.sol\":11754:11784  return challenges[challengeId] */\n      mload(0x40)\n      dup1\n      0x0160\n      add\n      0x40\n      mstore\n      swap1\n      dup2\n      0x00\n      dup3\n      add\n      sload\n      dup2\n      mstore\n      0x20\n      add\n      0x01\n      dup3\n      add\n      0x00\n      swap1\n      sload\n      swap1\n      0x0100\n      exp\n      swap1\n      div\n      0xffffffffffffffffffffffffffffffffffffffff\n      and\n      0xffffffffffffffffffffffffffffffffffffffff\n      and\n      0xffffffffffffffffffffffffffffffffffffffff\n      and\n      dup2\n      mstore\n      0x20\n      add\n      0x02\n      dup3\n      add\n      sload\n      dup2\n      mstore\n      0x20\n      add\n      0x03\n      dup3\n      add\n      dup1\n      sload\n      tag_252\n      swap1\n      tag_253\n      jump\t// in\n    tag_252:\n      dup1\n      0x1f\n      add\n      0x20\n      dup1\n      swap2\n      div\n      mul\n      0x20\n      add\n      mload(0x40)\n      swap1\n      dup2\n      add\n      0x40\n      mstore\n      dup1\n      swap3\n      swap2\n      swap1\n      dup2\n      dup2\n      mstore\n      0x20\n      add\n      dup3\n      dup1\n      sload\n      tag_254\n      swap1\n      tag_253\n      jump\t// in\n    tag_254:\n      dup1\n      iszero\n      tag_255\n      jumpi\n      dup1\n      0x1f\n      lt\n      tag_256\n      jumpi\n      0x0100\n      dup1\n      dup4\n      sload\n      div\n      mul\n      dup4\n      mstore\n      swap2\n      0x20\n      add\n      swap2\n      jump(tag_255)\n    tag_256:\n      dup3\n      add\n      swap2\n      swap1\n      0x00\n      mstore\n      keccak256(0x00, 0x20)\n      swap1\n    tag_257:\n      dup2\n      sload\n      dup2\n      mstore\n      swap1\n      0x01\n      add\n      swap1\n      0x20\n      add\n      dup1\n      dup4\n      gt\n      tag_257\n      jumpi\n      dup3\n      swap1\n      sub\n      0x1f\n      and\n      dup3\n      add\n      swap2\n    tag_255:\n      pop\n      pop\n      pop\n      pop\n      pop\n      dup2\n      mstore\n      0x20\n      add\n      0x04\n      dup3\n      add\n      dup1\n      sload\n      tag_258\n      swap1\n      tag_253\n      jump\t// in\n    tag_258:\n      dup1\n      0x1f\n      add\n      0x20\n      dup1\n      swap2\n      div\n      mul\n      0x20\n      add\n      mload(0x40)\n      swap1\n      dup2\n      add\n      0x40\n      mstore\n      dup1\n      swap3\n      swap2\n      swap1\n      dup2\n      dup2\n      mstore\n      0x20\n      add\n      dup3\n      dup1\n      sload\n      tag_259\n      swap1\n      tag_253\n      jump\t// in\n    tag_259:\n      dup1\n      iszero\n      tag_260\n      jumpi\n      dup1\n      0x1f\n      lt\n      tag_261\n      jumpi\n      0x0100\n      dup1\n      dup4\n      sload\n      div\n      mul\n      dup4\n      mstore\n      swap2\n      0x20\n      add\n      swap2\n      jump(tag_260)\n    tag_261:\n      dup3\n      add\n      swap2\n      swap1\n      0x00\n      mstore\n      keccak256(0x00, 0x20)\n      swap1\n    tag_262:\n      dup2\n      sload\n      dup2\n      mstore\n      swap1\n      0x01\n      add\n      swap1\n      0x20\n      add\n      dup1\n      dup4\n      gt\n      tag_262\n      jumpi\n      dup3\n      swap1\n      sub\n      0x1f\n      and\n      dup3\n      add\n      swap2\n    tag_260:\n      pop\n      pop\n      pop\n      pop\n      pop\n      dup2\n      mstore\n      0x20\n      add\n      0x05\n      dup3\n      add\n      0x00\n      swap1\n      sload\n      swap1\n      0x0100\n      exp\n      swap1\n      div\n      0xff\n      and\n      0x03\n      dup2\n      gt\n      iszero\n      tag_263\n      jumpi\n      tag_264\n      tag_223\n      jump\t// in\n    tag_264:\n    tag_263:\n      0x03\n      dup2\n      gt\n      iszero\n      tag_265\n      jumpi\n      tag_266\n      tag_223\n      jump\t// in\n    tag_266:\n    tag_265:\n      dup2\n      mstore\n      0x20\n      add\n      0x06\n      dup3\n      add\n      sload\n      dup2\n      mstore\n      0x20\n      add\n      0x07\n      dup3\n      add\n      sload\n      dup2\n      mstore\n      0x20\n      add\n      0x08\n      dup3\n      add\n      0x00\n      swap1\n      sload\n      swap1\n      0x0100\n      exp\n      swap1\n      div\n      0xff\n      and\n      iszero\n      iszero\n      iszero\n      iszero\n      dup2\n      mstore\n      0x20\n      add\n      0x09\n      dup3\n      add\n      sload\n      dup2\n      mstore\n      0x20\n      add\n      0x0a\n      dup3\n      add\n      0x00\n      swap1\n      sload\n      swap1\n      0x0100\n      exp\n      swap1\n      div\n      0xff\n      and\n      0x03\n      dup2\n      gt\n      iszero\n      tag_267\n      jumpi\n      tag_268\n      tag_223\n      jump\t// in\n    tag_268:\n    tag_267:\n      0x03\n      dup2\n      gt\n      iszero\n      tag_269\n      jumpi\n      tag_270\n      tag_223\n      jump\t// in\n    tag_270:\n    tag_269:\n      dup2\n      mstore\n      pop\n      pop\n      swap1\n      pop\n        /* \"contracts/contracts/Core.sol\":11652:11792  function getChallengeDetails(uint256 challengeId) external view returns (Challenge memory) {... */\n      swap2\n      swap1\n      pop\n      jump\t// out\n        /* \"contracts/contracts/Core.sol\":1040:1074  uint256 public houseFeePercent = 5 */\n    tag_73:\n      sload(0x07)\n      dup2\n      jump\t// out\n        /* \"contracts/contracts/Core.sol\":12599:12666  function unpause() external onlyOwner {... */\n    tag_77:\n        /* \"https://github.com/OpenZeppelin/openzeppelin-contracts/blob/v4.9.6/contracts/access/Ownable.sol\":1094:1107  _checkOwner() */\n      tag_272\n        /* \"https://github.com/OpenZeppelin/openzeppelin-contracts/blob/v4.9.6/contracts/access/Ownable.sol\":1094:1105  _checkOwner */\n      tag_193\n        /* \"https://github.com/OpenZeppelin/openzeppelin-contracts/blob/v4.9.6/contracts/access/Ownable.sol\":1094:1107  _checkOwner() */\n      jump\t// in\n    tag_272:\n        /* \"contracts/contracts/Core.sol\":12648:12658  _unpause() */\n      tag_274\n        /* \"contracts/contracts/Core.sol\":12648:12656  _unpause */\n      tag_275\n        /* \"contracts/contracts/Core.sol\":12648:12658  _unpause() */\n      jump\t// in\n    tag_274:\n        /* \"contracts/contracts/Core.sol\":12599:12666  function unpause() external onlyOwner {... */\n      jump\t// out\n        /* \"contracts/contracts/Core.sol\":9012:9373  function getStarMultiplier(StarType starType) public pure returns (uint256) {... */\n    tag_82:\n        /* \"contracts/contracts/Core.sol\":9079:9086  uint256 */\n      0x00\n        /* \"contracts/contracts/Core.sol\":9115:9130  StarType.Common */\n      dup1\n        /* \"contracts/contracts/Core.sol\":9103:9130  starType == StarType.Common */\n      0x03\n      dup2\n      gt\n      iszero\n      tag_277\n      jumpi\n      tag_278\n      tag_223\n      jump\t// in\n    tag_278:\n    tag_277:\n        /* \"contracts/contracts/Core.sol\":9103:9111  starType */\n      dup3\n        /* \"contracts/contracts/Core.sol\":9103:9130  starType == StarType.Common */\n      0x03\n      dup2\n      gt\n      iszero\n      tag_279\n      jumpi\n      tag_280\n      tag_223\n      jump\t// in\n    tag_280:\n    tag_279:\n      sub\n        /* \"contracts/contracts/Core.sol\":9099:9142  if (starType == StarType.Common) return 150 */\n      tag_281\n      jumpi\n        /* \"contracts/contracts/Core.sol\":9139:9142  150 */\n      0x96\n        /* \"contracts/contracts/Core.sol\":9132:9142  return 150 */\n      swap1\n      pop\n      jump(tag_276)\n        /* \"contracts/contracts/Core.sol\":9099:9142  if (starType == StarType.Common) return 150 */\n    tag_281:\n        /* \"contracts/contracts/Core.sol\":9177:9190  StarType.Rare */\n      0x01\n        /* \"contracts/contracts/Core.sol\":9165:9190  starType == StarType.Rare */\n      0x03\n      dup2\n      gt\n      iszero\n      tag_282\n      jumpi\n      tag_283\n      tag_223\n      jump\t// in\n    tag_283:\n    tag_282:\n        /* \"contracts/contracts/Core.sol\":9165:9173  starType */\n      dup3\n        /* \"contracts/contracts/Core.sol\":9165:9190  starType == StarType.Rare */\n      0x03\n      dup2\n      gt\n      iszero\n      tag_284\n      jumpi\n      tag_285\n      tag_223\n      jump\t// in\n    tag_285:\n    tag_284:\n      sub\n        /* \"contracts/contracts/Core.sol\":9161:9202  if (starType == StarType.Rare) return 200 */\n      tag_286\n      jumpi\n        /* \"contracts/contracts/Core.sol\":9199:9202  200 */\n      0xc8\n        /* \"contracts/contracts/Core.sol\":9192:9202  return 200 */\n      swap1\n      pop\n      jump(tag_276)\n        /* \"contracts/contracts/Core.sol\":9161:9202  if (starType == StarType.Rare) return 200 */\n    tag_286:\n        /* \"contracts/contracts/Core.sol\":9237:9250  StarType.Epic */\n      0x02\n        /* \"contracts/contracts/Core.sol\":9225:9250  starType == StarType.Epic */\n      0x03\n      dup2\n      gt\n      iszero\n      tag_287\n      jumpi\n      tag_288\n      tag_223\n      jump\t// in\n    tag_288:\n    tag_287:\n        /* \"contracts/contracts/Core.sol\":9225:9233  starType */\n      dup3\n        /* \"contracts/contracts/Core.sol\":9225:9250  starType == StarType.Epic */\n      0x03\n      dup2\n      gt\n      iszero\n      tag_289\n      jumpi\n      tag_290\n      tag_223\n      jump\t// in\n    tag_290:\n    tag_289:\n      sub\n        /* \"contracts/contracts/Core.sol\":9221:9262  if (starType == StarType.Epic) return 300 */\n      tag_291\n      jumpi\n        /* \"contracts/contracts/Core.sol\":9259:9262  300 */\n      0x012c\n        /* \"contracts/contracts/Core.sol\":9252:9262  return 300 */\n      swap1\n      pop\n      jump(tag_276)\n        /* \"contracts/contracts/Core.sol\":9221:9262  if (starType == StarType.Epic) return 300 */\n    tag_291:\n        /* \"contracts/contracts/Core.sol\":9297:9315  StarType.Legendary */\n      0x03\n        /* \"contracts/contracts/Core.sol\":9285:9315  starType == StarType.Legendary */\n      dup1\n      dup2\n      gt\n      iszero\n      tag_292\n      jumpi\n      tag_293\n      tag_223\n      jump\t// in\n    tag_293:\n    tag_292:\n        /* \"contracts/contracts/Core.sol\":9285:9293  starType */\n      dup3\n        /* \"contracts/contracts/Core.sol\":9285:9315  starType == StarType.Legendary */\n      0x03\n      dup2\n      gt\n      iszero\n      tag_294\n      jumpi\n      tag_295\n      tag_223\n      jump\t// in\n    tag_295:\n    tag_294:\n      sub\n        /* \"contracts/contracts/Core.sol\":9281:9327  if (starType == StarType.Legendary) return 500 */\n      tag_296\n      jumpi\n        /* \"contracts/contracts/Core.sol\":9324:9327  500 */\n      0x01f4\n        /* \"contracts/contracts/Core.sol\":9317:9327  return 500 */\n      swap1\n      pop\n      jump(tag_276)\n        /* \"contracts/contracts/Core.sol\":9281:9327  if (starType == StarType.Legendary) return 500 */\n    tag_296:\n        /* \"contracts/contracts/Core.sol\":9351:9354  150 */\n      0x96\n        /* \"contracts/contracts/Core.sol\":9344:9354  return 150 */\n      swap1\n      pop\n        /* \"contracts/contracts/Core.sol\":9012:9373  function getStarMultiplier(StarType starType) public pure returns (uint256) {... */\n    tag_276:\n      swap2\n      swap1\n      pop\n      jump\t// out\n        /* \"https://github.com/OpenZeppelin/openzeppelin-contracts/blob/v4.9.6/contracts/security/Pausable.sol\":1615:1699  function paused() public view virtual returns (bool) {... */\n    tag_86:\n        /* \"https://github.com/OpenZeppelin/openzeppelin-contracts/blob/v4.9.6/contracts/security/Pausable.sol\":1662:1666  bool */\n      0x00\n        /* \"https://github.com/OpenZeppelin/openzeppelin-contracts/blob/v4.9.6/contracts/security/Pausable.sol\":1685:1692  _paused */\n      0x02\n      0x00\n      swap1\n      sload\n      swap1\n      0x0100\n      exp\n      swap1\n      div\n      0xff\n      and\n        /* \"https://github.com/OpenZeppelin/openzeppelin-contracts/blob/v4.9.6/contracts/security/Pausable.sol\":1678:1692  return _paused */\n      swap1\n      pop\n        /* \"https://github.com/OpenZeppelin/openzeppelin-contracts/blob/v4.9.6/contracts/security/Pausable.sol\":1615:1699  function paused() public view virtual returns (bool) {... */\n      swap1\n      jump\t// out\n        /* \"contracts/contracts/Core.sol\":12744:12857  function withdrawBalance() external onlyOwner {... */\n    tag_91:\n        /* \"https://github.com/OpenZeppelin/openzeppelin-contracts/blob/v4.9.6/contracts/access/Ownable.sol\":1094:1107  _checkOwner() */\n      tag_299\n        /* \"https://github.com/OpenZeppelin/openzeppelin-contracts/blob/v4.9.6/contracts/access/Ownable.sol\":1094:1105  _checkOwner */\n      tag_193\n        /* \"https://github.com/OpenZeppelin/openzeppelin-contracts/blob/v4.9.6/contracts/access/Ownable.sol\":1094:1107  _checkOwner() */\n      jump\t// in\n    tag_299:\n        /* \"contracts/contracts/Core.sol\":12809:12816  owner() */\n      tag_301\n        /* \"contracts/contracts/Core.sol\":12809:12814  owner */\n      tag_116\n        /* \"contracts/contracts/Core.sol\":12809:12816  owner() */\n      jump\t// in\n    tag_301:\n        /* \"contracts/contracts/Core.sol\":12801:12826  payable(owner()).transfer */\n      0xffffffffffffffffffffffffffffffffffffffff\n      and\n        /* \"contracts/contracts/Core.sol\":12801:12849  payable(owner()).transfer(address(this).balance) */\n      0x08fc\n        /* \"contracts/contracts/Core.sol\":12827:12848  address(this).balance */\n      selfbalance\n        /* \"contracts/contracts/Core.sol\":12801:12849  payable(owner()).transfer(address(this).balance) */\n      swap1\n      dup2\n      iszero\n      mul\n      swap1\n      mload(0x40)\n      0x00\n      mload(0x40)\n      dup1\n      dup4\n      sub\n      dup2\n      dup6\n      dup9\n      dup9\n      call\n      swap4\n      pop\n      pop\n      pop\n      pop\n      iszero\n      dup1\n      iszero\n      tag_303\n      jumpi\n      returndatasize\n      0x00\n      dup1\n      returndatacopy\n      revert(0x00, returndatasize)\n    tag_303:\n      pop\n        /* \"contracts/contracts/Core.sol\":12744:12857  function withdrawBalance() external onlyOwner {... */\n      jump\t// out\n        /* \"contracts/contracts/Core.sol\":805:833  address public storageWallet */\n    tag_94:\n      0x02\n      0x01\n      swap1\n      sload\n      swap1\n      0x0100\n      exp\n      swap1\n      div\n      0xffffffffffffffffffffffffffffffffffffffff\n      and\n      dup2\n      jump\t// out\n        /* \"contracts/contracts/Core.sol\":2613:2650  mapping(uint256 => Star) public stars */\n    tag_100:\n      mstore(0x20, 0x0c)\n      dup1\n      0x00\n      mstore\n      keccak256(0x00, 0x40)\n      0x00\n      swap2\n      pop\n      swap1\n      pop\n      dup1\n      0x00\n      add\n      sload\n      swap1\n      dup1\n      0x01\n      add\n      sload\n      swap1\n      dup1\n      0x02\n      add\n      sload\n      swap1\n      dup1\n      0x03\n      add\n      sload\n      swap1\n      dup1\n      0x04\n      add\n      0x00\n      swap1\n      sload\n      swap1\n      0x0100\n      exp\n      swap1\n      div\n      0xff\n      and\n      swap1\n      dup1\n      0x04\n      add\n      0x01\n      swap1\n      sload\n      swap1\n      0x0100\n      exp\n      swap1\n      div\n      0xff\n      and\n      swap1\n      dup1\n      0x05\n      add\n      sload\n      swap1\n      dup1\n      0x06\n      add\n      sload\n      swap1\n      pop\n      dup9\n      jump\t// out\n        /* \"contracts/contracts/Core.sol\":6305:8939  function completeChallenge(... */\n    tag_107:\n        /* \"contracts/contracts/Core.sol\":3574:3586  authorizedAI */\n      0x0e\n        /* \"contracts/contracts/Core.sol\":3574:3598  authorizedAI[msg.sender] */\n      0x00\n        /* \"contracts/contracts/Core.sol\":3587:3597  msg.sender */\n      caller\n        /* \"contracts/contracts/Core.sol\":3574:3598  authorizedAI[msg.sender] */\n      0xffffffffffffffffffffffffffffffffffffffff\n      and\n      0xffffffffffffffffffffffffffffffffffffffff\n      and\n      dup2\n      mstore\n      0x20\n      add\n      swap1\n      dup2\n      mstore\n      0x20\n      add\n      0x00\n      keccak256\n      0x00\n      swap1\n      sload\n      swap1\n      0x0100\n      exp\n      swap1\n      div\n      0xff\n      and\n        /* \"contracts/contracts/Core.sol\":3574:3623  authorizedAI[msg.sender] || msg.sender == owner() */\n      dup1\n      tag_305\n      jumpi\n      pop\n        /* \"contracts/contracts/Core.sol\":3616:3623  owner() */\n      tag_306\n        /* \"contracts/contracts/Core.sol\":3616:3621  owner */\n      tag_116\n        /* \"contracts/contracts/Core.sol\":3616:3623  owner() */\n      jump\t// in\n    tag_306:\n        /* \"contracts/contracts/Core.sol\":3602:3623  msg.sender == owner() */\n      0xffffffffffffffffffffffffffffffffffffffff\n      and\n        /* \"contracts/contracts/Core.sol\":3602:3612  msg.sender */\n      caller\n        /* \"contracts/contracts/Core.sol\":3602:3623  msg.sender == owner() */\n      0xffffffffffffffffffffffffffffffffffffffff\n      and\n      eq\n        /* \"contracts/contracts/Core.sol\":3574:3623  authorizedAI[msg.sender] || msg.sender == owner() */\n    tag_305:\n        /* \"contracts/contracts/Core.sol\":3566:3645  require(authorizedAI[msg.sender] || msg.sender == owner(), \"Not authorized AI\") */\n      tag_307\n      jumpi\n      mload(0x40)\n      0x08c379a000000000000000000000000000000000000000000000000000000000\n      dup2\n      mstore\n      0x04\n      add\n      tag_308\n      swap1\n      tag_309\n      jump\t// in\n    tag_308:\n      mload(0x40)\n      dup1\n      swap2\n      sub\n      swap1\n      revert\n    tag_307:\n        /* \"https://github.com/OpenZeppelin/openzeppelin-contracts/blob/v4.9.6/contracts/security/ReentrancyGuard.sol\":2261:2282  _nonReentrantBefore() */\n      tag_311\n        /* \"https://github.com/OpenZeppelin/openzeppelin-contracts/blob/v4.9.6/contracts/security/ReentrancyGuard.sol\":2261:2280  _nonReentrantBefore */\n      tag_201\n        /* \"https://github.com/OpenZeppelin/openzeppelin-contracts/blob/v4.9.6/contracts/security/ReentrancyGuard.sol\":2261:2282  _nonReentrantBefore() */\n      jump\t// in\n    tag_311:\n        /* \"contracts/contracts/Core.sol\":6514:6541  Challenge storage challenge */\n      0x00\n        /* \"contracts/contracts/Core.sol\":6544:6554  challenges */\n      0x0b\n        /* \"contracts/contracts/Core.sol\":6544:6567  challenges[challengeId] */\n      0x00\n        /* \"contracts/contracts/Core.sol\":6555:6566  challengeId */\n      dup6\n        /* \"contracts/contracts/Core.sol\":6544:6567  challenges[challengeId] */\n      dup2\n      mstore\n      0x20\n      add\n      swap1\n      dup2\n      mstore\n      0x20\n      add\n      0x00\n      keccak256\n        /* \"contracts/contracts/Core.sol\":6514:6567  Challenge storage challenge = challenges[challengeId] */\n      swap1\n      pop\n        /* \"contracts/contracts/Core.sol\":6606:6628  ChallengeStatus.Active */\n      0x00\n        /* \"contracts/contracts/Core.sol\":6586:6628  challenge.status == ChallengeStatus.Active */\n      0x03\n      dup2\n      gt\n      iszero\n      tag_313\n      jumpi\n      tag_314\n      tag_223\n      jump\t// in\n    tag_314:\n    tag_313:\n        /* \"contracts/contracts/Core.sol\":6586:6595  challenge */\n      dup2\n        /* \"contracts/contracts/Core.sol\":6586:6602  challenge.status */\n      0x05\n      add\n      0x00\n      swap1\n      sload\n      swap1\n      0x0100\n      exp\n      swap1\n      div\n      0xff\n      and\n        /* \"contracts/contracts/Core.sol\":6586:6628  challenge.status == ChallengeStatus.Active */\n      0x03\n      dup2\n      gt\n      iszero\n      tag_315\n      jumpi\n      tag_316\n      tag_223\n      jump\t// in\n    tag_316:\n    tag_315:\n      eq\n        /* \"contracts/contracts/Core.sol\":6578:6653  require(challenge.status == ChallengeStatus.Active, \"Challenge not active\") */\n      tag_317\n      jumpi\n      mload(0x40)\n      0x08c379a000000000000000000000000000000000000000000000000000000000\n      dup2\n      mstore\n      0x04\n      add\n      tag_318\n      swap1\n      tag_319\n      jump\t// in\n    tag_318:\n      mload(0x40)\n      dup1\n      swap2\n      sub\n      swap1\n      revert\n    tag_317:\n        /* \"contracts/contracts/Core.sol\":6674:6688  address player */\n      0x00\n        /* \"contracts/contracts/Core.sol\":6691:6700  challenge */\n      dup2\n        /* \"contracts/contracts/Core.sol\":6691:6707  challenge.player */\n      0x01\n      add\n      0x00\n      swap1\n      sload\n      swap1\n      0x0100\n      exp\n      swap1\n      div\n      0xffffffffffffffffffffffffffffffffffffffff\n      and\n        /* \"contracts/contracts/Core.sol\":6674:6707  address player = challenge.player */\n      swap1\n      pop\n        /* \"contracts/contracts/Core.sol\":6718:6747  Stake storage playerStakeData */\n      0x00\n        /* \"contracts/contracts/Core.sol\":6750:6762  playerStakes */\n      0x0a\n        /* \"contracts/contracts/Core.sol\":6750:6770  playerStakes[player] */\n      0x00\n        /* \"contracts/contracts/Core.sol\":6763:6769  player */\n      dup4\n        /* \"contracts/contracts/Core.sol\":6750:6770  playerStakes[player] */\n      0xffffffffffffffffffffffffffffffffffffffff\n      and\n      0xffffffffffffffffffffffffffffffffffffffff\n      and\n      dup2\n      mstore\n      0x20\n      add\n      swap1\n      dup2\n      mstore\n      0x20\n      add\n      0x00\n      keccak256\n        /* \"contracts/contracts/Core.sol\":6718:6770  Stake storage playerStakeData = playerStakes[player] */\n      swap1\n      pop\n        /* \"contracts/contracts/Core.sol\":6789:6804  playerStakeData */\n      dup1\n        /* \"contracts/contracts/Core.sol\":6789:6811  playerStakeData.active */\n      0x02\n      add\n      0x00\n      swap1\n      sload\n      swap1\n      0x0100\n      exp\n      swap1\n      div\n      0xff\n      and\n        /* \"contracts/contracts/Core.sol\":6789:6857  playerStakeData.active && playerStakeData.challengeId == challengeId */\n      dup1\n      iszero\n      tag_320\n      jumpi\n      pop\n        /* \"contracts/contracts/Core.sol\":6846:6857  challengeId */\n      dup6\n        /* \"contracts/contracts/Core.sol\":6815:6830  playerStakeData */\n      dup2\n        /* \"contracts/contracts/Core.sol\":6815:6842  playerStakeData.challengeId */\n      0x03\n      add\n      sload\n        /* \"contracts/contracts/Core.sol\":6815:6857  playerStakeData.challengeId == challengeId */\n      eq\n        /* \"contracts/contracts/Core.sol\":6789:6857  playerStakeData.active && playerStakeData.challengeId == challengeId */\n    tag_320:\n        /* \"contracts/contracts/Core.sol\":6781:6875  require(playerStakeData.active && playerStakeData.challengeId == challengeId, \"Invalid stake\") */\n      tag_321\n      jumpi\n      mload(0x40)\n      0x08c379a000000000000000000000000000000000000000000000000000000000\n      dup2\n      mstore\n      0x04\n      add\n      tag_322\n      swap1\n      tag_323\n      jump\t// in\n    tag_322:\n      mload(0x40)\n      dup1\n      swap2\n      sub\n      swap1\n      revert\n    tag_321:\n        /* \"contracts/contracts/Core.sol\":6939:6948  proofHash */\n      dup5\n        /* \"contracts/contracts/Core.sol\":6917:6926  challenge */\n      dup4\n        /* \"contracts/contracts/Core.sol\":6917:6936  challenge.proofHash */\n      0x04\n      add\n        /* \"contracts/contracts/Core.sol\":6917:6948  challenge.proofHash = proofHash */\n      swap1\n      dup2\n      tag_324\n      swap2\n      swap1\n      tag_227\n      jump\t// in\n    tag_324:\n      pop\n        /* \"contracts/contracts/Core.sol\":6983:6998  block.timestamp */\n      timestamp\n        /* \"contracts/contracts/Core.sol\":6959:6968  challenge */\n      dup4\n        /* \"contracts/contracts/Core.sol\":6959:6980  challenge.completedAt */\n      0x07\n      add\n        /* \"contracts/contracts/Core.sol\":6959:6998  challenge.completedAt = block.timestamp */\n      dup2\n      swap1\n      sstore\n      pop\n        /* \"contracts/contracts/Core.sol\":7032:7036  true */\n      0x01\n        /* \"contracts/contracts/Core.sol\":7009:7018  challenge */\n      dup4\n        /* \"contracts/contracts/Core.sol\":7009:7029  challenge.aiVerified */\n      0x08\n      add\n      0x00\n        /* \"contracts/contracts/Core.sol\":7009:7036  challenge.aiVerified = true */\n      0x0100\n      exp\n      dup2\n      sload\n      dup2\n      0xff\n      mul\n      not\n      and\n      swap1\n      dup4\n      iszero\n      iszero\n      mul\n      or\n      swap1\n      sstore\n      pop\n        /* \"contracts/contracts/Core.sol\":7066:7073  success */\n      dup4\n        /* \"contracts/contracts/Core.sol\":7066:7126  success ? ChallengeStatus.Completed : ChallengeStatus.Failed */\n      tag_325\n      jumpi\n        /* \"contracts/contracts/Core.sol\":7104:7126  ChallengeStatus.Failed */\n      0x02\n        /* \"contracts/contracts/Core.sol\":7066:7126  success ? ChallengeStatus.Completed : ChallengeStatus.Failed */\n      jump(tag_326)\n    tag_325:\n        /* \"contracts/contracts/Core.sol\":7076:7101  ChallengeStatus.Completed */\n      0x01\n        /* \"contracts/contracts/Core.sol\":7066:7126  success ? ChallengeStatus.Completed : ChallengeStatus.Failed */\n    tag_326:\n        /* \"contracts/contracts/Core.sol\":7047:7056  challenge */\n      dup4\n        /* \"contracts/contracts/Core.sol\":7047:7063  challenge.status */\n      0x05\n      add\n      0x00\n        /* \"contracts/contracts/Core.sol\":7047:7126  challenge.status = success ? ChallengeStatus.Completed : ChallengeStatus.Failed */\n      0x0100\n      exp\n      dup2\n      sload\n      dup2\n      0xff\n      mul\n      not\n      and\n      swap1\n      dup4\n      0x03\n      dup2\n      gt\n      iszero\n      tag_327\n      jumpi\n      tag_328\n      tag_223\n      jump\t// in\n    tag_328:\n    tag_327:\n      mul\n      or\n      swap1\n      sstore\n      pop\n        /* \"contracts/contracts/Core.sol\":7193:7198  false */\n      0x00\n        /* \"contracts/contracts/Core.sol\":7168:7183  playerStakeData */\n      dup2\n        /* \"contracts/contracts/Core.sol\":7168:7190  playerStakeData.active */\n      0x02\n      add\n      0x00\n        /* \"contracts/contracts/Core.sol\":7168:7198  playerStakeData.active = false */\n      0x0100\n      exp\n      dup2\n      sload\n      dup2\n      0xff\n      mul\n      not\n      and\n      swap1\n      dup4\n      iszero\n      iszero\n      mul\n      or\n      swap1\n      sstore\n      pop\n        /* \"contracts/contracts/Core.sol\":7211:7225  uint256 payout */\n      0x00\n        /* \"contracts/contracts/Core.sol\":7246:7253  success */\n      dup5\n        /* \"contracts/contracts/Core.sol\":7242:8594  if (success) {... */\n      iszero\n      tag_329\n      jumpi\n        /* \"contracts/contracts/Core.sol\":7337:7359  uint256 baseMultiplier */\n      0x00\n        /* \"contracts/contracts/Core.sol\":7362:7399  getStarMultiplier(challenge.starType) */\n      tag_330\n        /* \"contracts/contracts/Core.sol\":7380:7389  challenge */\n      dup6\n        /* \"contracts/contracts/Core.sol\":7380:7398  challenge.starType */\n      0x0a\n      add\n      0x00\n      swap1\n      sload\n      swap1\n      0x0100\n      exp\n      swap1\n      div\n      0xff\n      and\n        /* \"contracts/contracts/Core.sol\":7362:7379  getStarMultiplier */\n      tag_82\n        /* \"contracts/contracts/Core.sol\":7362:7399  getStarMultiplier(challenge.starType) */\n      jump\t// in\n    tag_330:\n        /* \"contracts/contracts/Core.sol\":7337:7399  uint256 baseMultiplier = getStarMultiplier(challenge.starType) */\n      swap1\n      pop\n        /* \"contracts/contracts/Core.sol\":7467:7470  100 */\n      0x64\n        /* \"contracts/contracts/Core.sol\":7449:7463  baseMultiplier */\n      dup2\n        /* \"contracts/contracts/Core.sol\":7424:7439  playerStakeData */\n      dup5\n        /* \"contracts/contracts/Core.sol\":7424:7446  playerStakeData.amount */\n      0x00\n      add\n      sload\n        /* \"contracts/contracts/Core.sol\":7424:7463  playerStakeData.amount * baseMultiplier */\n      tag_331\n      swap2\n      swap1\n      tag_332\n      jump\t// in\n    tag_331:\n        /* \"contracts/contracts/Core.sol\":7423:7470  (playerStakeData.amount * baseMultiplier) / 100 */\n      tag_333\n      swap2\n      swap1\n      tag_334\n      jump\t// in\n    tag_333:\n        /* \"contracts/contracts/Core.sol\":7414:7470  payout = (playerStakeData.amount * baseMultiplier) / 100 */\n      swap2\n      pop\n        /* \"contracts/contracts/Core.sol\":7532:7548  uint256 houseFee */\n      0x00\n        /* \"contracts/contracts/Core.sol\":7580:7583  100 */\n      0x64\n        /* \"contracts/contracts/Core.sol\":7561:7576  houseFeePercent */\n      sload(0x07)\n        /* \"contracts/contracts/Core.sol\":7552:7558  payout */\n      dup5\n        /* \"contracts/contracts/Core.sol\":7552:7576  payout * houseFeePercent */\n      tag_335\n      swap2\n      swap1\n      tag_332\n      jump\t// in\n    tag_335:\n        /* \"contracts/contracts/Core.sol\":7551:7583  (payout * houseFeePercent) / 100 */\n      tag_336\n      swap2\n      swap1\n      tag_334\n      jump\t// in\n    tag_336:\n        /* \"contracts/contracts/Core.sol\":7532:7583  uint256 houseFee = (payout * houseFeePercent) / 100 */\n      swap1\n      pop\n        /* \"contracts/contracts/Core.sol\":7608:7616  houseFee */\n      dup1\n        /* \"contracts/contracts/Core.sol\":7598:7616  payout -= houseFee */\n      dup4\n      tag_337\n      swap2\n      swap1\n      tag_338\n      jump\t// in\n    tag_337:\n      swap3\n      pop\n        /* \"contracts/contracts/Core.sol\":7683:7689  player */\n      dup5\n        /* \"contracts/contracts/Core.sol\":7675:7699  payable(player).transfer */\n      0xffffffffffffffffffffffffffffffffffffffff\n      and\n        /* \"contracts/contracts/Core.sol\":7675:7707  payable(player).transfer(payout) */\n      0x08fc\n        /* \"contracts/contracts/Core.sol\":7700:7706  payout */\n      dup5\n        /* \"contracts/contracts/Core.sol\":7675:7707  payable(player).transfer(payout) */\n      swap1\n      dup2\n      iszero\n      mul\n      swap1\n      mload(0x40)\n      0x00\n      mload(0x40)\n      dup1\n      dup4\n      sub\n      dup2\n      dup6\n      dup9\n      dup9\n      call\n      swap4\n      pop\n      pop\n      pop\n      pop\n      iszero\n      dup1\n      iszero\n      tag_340\n      jumpi\n      returndatasize\n      0x00\n      dup1\n      returndatacopy\n      revert(0x00, returndatasize)\n    tag_340:\n      pop\n        /* \"contracts/contracts/Core.sol\":7804:7805  0 */\n      0x00\n        /* \"contracts/contracts/Core.sol\":7793:7801  houseFee */\n      dup2\n        /* \"contracts/contracts/Core.sol\":7793:7805  houseFee > 0 */\n      gt\n        /* \"contracts/contracts/Core.sol\":7789:7883  if (houseFee > 0) {... */\n      iszero\n      tag_341\n      jumpi\n        /* \"contracts/contracts/Core.sol\":7834:7847  storageWallet */\n      0x02\n      0x01\n      swap1\n      sload\n      swap1\n      0x0100\n      exp\n      swap1\n      div\n      0xffffffffffffffffffffffffffffffffffffffff\n      and\n        /* \"contracts/contracts/Core.sol\":7826:7857  payable(storageWallet).transfer */\n      0xffffffffffffffffffffffffffffffffffffffff\n      and\n        /* \"contracts/contracts/Core.sol\":7826:7867  payable(storageWallet).transfer(houseFee) */\n      0x08fc\n        /* \"contracts/contracts/Core.sol\":7858:7866  houseFee */\n      dup3\n        /* \"contracts/contracts/Core.sol\":7826:7867  payable(storageWallet).transfer(houseFee) */\n      swap1\n      dup2\n      iszero\n      mul\n      swap1\n      mload(0x40)\n      0x00\n      mload(0x40)\n      dup1\n      dup4\n      sub\n      dup2\n      dup6\n      dup9\n      dup9\n      call\n      swap4\n      pop\n      pop\n      pop\n      pop\n      iszero\n      dup1\n      iszero\n      tag_343\n      jumpi\n      returndatasize\n      0x00\n      dup1\n      returndatacopy\n      revert(0x00, returndatasize)\n    tag_343:\n      pop\n        /* \"contracts/contracts/Core.sol\":7789:7883  if (houseFee > 0) {... */\n    tag_341:\n        /* \"contracts/contracts/Core.sol\":7945:7970  PlayerStats storage stats */\n      0x00\n        /* \"contracts/contracts/Core.sol\":7973:7984  playerStats */\n      0x0d\n        /* \"contracts/contracts/Core.sol\":7973:7992  playerStats[player] */\n      0x00\n        /* \"contracts/contracts/Core.sol\":7985:7991  player */\n      dup8\n        /* \"contracts/contracts/Core.sol\":7973:7992  playerStats[player] */\n      0xffffffffffffffffffffffffffffffffffffffff\n      and\n      0xffffffffffffffffffffffffffffffffffffffff\n      and\n      dup2\n      mstore\n      0x20\n      add\n      swap1\n      dup2\n      mstore\n      0x20\n      add\n      0x00\n      keccak256\n        /* \"contracts/contracts/Core.sol\":7945:7992  PlayerStats storage stats = playerStats[player] */\n      swap1\n      pop\n        /* \"contracts/contracts/Core.sol\":8025:8031  payout */\n      dup4\n        /* \"contracts/contracts/Core.sol\":8007:8012  stats */\n      dup2\n        /* \"contracts/contracts/Core.sol\":8007:8021  stats.totalWon */\n      0x01\n      add\n      0x00\n        /* \"contracts/contracts/Core.sol\":8007:8031  stats.totalWon += payout */\n      dup3\n      dup3\n      sload\n      tag_344\n      swap2\n      swap1\n      tag_234\n      jump\t// in\n    tag_344:\n      swap3\n      pop\n      pop\n      dup2\n      swap1\n      sstore\n      pop\n        /* \"contracts/contracts/Core.sol\":8046:8051  stats */\n      dup1\n        /* \"contracts/contracts/Core.sol\":8046:8071  stats.challengesCompleted */\n      0x02\n      add\n      0x00\n        /* \"contracts/contracts/Core.sol\":8046:8073  stats.challengesCompleted++ */\n      dup2\n      sload\n      dup1\n      swap3\n      swap2\n      swap1\n      tag_345\n      swap1\n      tag_346\n      jump\t// in\n    tag_345:\n      swap2\n      swap1\n      pop\n      sstore\n      pop\n        /* \"contracts/contracts/Core.sol\":8088:8093  stats */\n      dup1\n        /* \"contracts/contracts/Core.sol\":8088:8107  stats.currentStreak */\n      0x04\n      add\n      0x00\n        /* \"contracts/contracts/Core.sol\":8088:8109  stats.currentStreak++ */\n      dup2\n      sload\n      dup1\n      swap3\n      swap2\n      swap1\n      tag_347\n      swap1\n      tag_346\n      jump\t// in\n    tag_347:\n      swap2\n      swap1\n      pop\n      sstore\n      pop\n        /* \"contracts/contracts/Core.sol\":8150:8155  stats */\n      dup1\n        /* \"contracts/contracts/Core.sol\":8150:8169  stats.longestStreak */\n      0x05\n      add\n      sload\n        /* \"contracts/contracts/Core.sol\":8128:8133  stats */\n      dup2\n        /* \"contracts/contracts/Core.sol\":8128:8147  stats.currentStreak */\n      0x04\n      add\n      sload\n        /* \"contracts/contracts/Core.sol\":8128:8169  stats.currentStreak > stats.longestStreak */\n      gt\n        /* \"contracts/contracts/Core.sol\":8124:8247  if (stats.currentStreak > stats.longestStreak) {... */\n      iszero\n      tag_348\n      jumpi\n        /* \"contracts/contracts/Core.sol\":8212:8217  stats */\n      dup1\n        /* \"contracts/contracts/Core.sol\":8212:8231  stats.currentStreak */\n      0x04\n      add\n      sload\n        /* \"contracts/contracts/Core.sol\":8190:8195  stats */\n      dup2\n        /* \"contracts/contracts/Core.sol\":8190:8209  stats.longestStreak */\n      0x05\n      add\n        /* \"contracts/contracts/Core.sol\":8190:8231  stats.longestStreak = stats.currentStreak */\n      dup2\n      swap1\n      sstore\n      pop\n        /* \"contracts/contracts/Core.sol\":8124:8247  if (stats.currentStreak > stats.longestStreak) {... */\n    tag_348:\n        /* \"contracts/contracts/Core.sol\":7255:8258  {... */\n      pop\n      pop\n      pop\n        /* \"contracts/contracts/Core.sol\":7242:8594  if (success) {... */\n      jump(tag_349)\n    tag_329:\n        /* \"contracts/contracts/Core.sol\":8336:8349  storageWallet */\n      0x02\n      0x01\n      swap1\n      sload\n      swap1\n      0x0100\n      exp\n      swap1\n      div\n      0xffffffffffffffffffffffffffffffffffffffff\n      and\n        /* \"contracts/contracts/Core.sol\":8328:8359  payable(storageWallet).transfer */\n      0xffffffffffffffffffffffffffffffffffffffff\n      and\n        /* \"contracts/contracts/Core.sol\":8328:8383  payable(storageWallet).transfer(playerStakeData.amount) */\n      0x08fc\n        /* \"contracts/contracts/Core.sol\":8360:8375  playerStakeData */\n      dup4\n        /* \"contracts/contracts/Core.sol\":8360:8382  playerStakeData.amount */\n      0x00\n      add\n      sload\n        /* \"contracts/contracts/Core.sol\":8328:8383  payable(storageWallet).transfer(playerStakeData.amount) */\n      swap1\n      dup2\n      iszero\n      mul\n      swap1\n      mload(0x40)\n      0x00\n      mload(0x40)\n      dup1\n      dup4\n      sub\n      dup2\n      dup6\n      dup9\n      dup9\n      call\n      swap4\n      pop\n      pop\n      pop\n      pop\n      iszero\n      dup1\n      iszero\n      tag_351\n      jumpi\n      returndatasize\n      0x00\n      dup1\n      returndatacopy\n      revert(0x00, returndatasize)\n    tag_351:\n      pop\n        /* \"contracts/contracts/Core.sol\":8458:8483  PlayerStats storage stats */\n      0x00\n        /* \"contracts/contracts/Core.sol\":8486:8497  playerStats */\n      0x0d\n        /* \"contracts/contracts/Core.sol\":8486:8505  playerStats[player] */\n      0x00\n        /* \"contracts/contracts/Core.sol\":8498:8504  player */\n      dup6\n        /* \"contracts/contracts/Core.sol\":8486:8505  playerStats[player] */\n      0xffffffffffffffffffffffffffffffffffffffff\n      and\n      0xffffffffffffffffffffffffffffffffffffffff\n      and\n      dup2\n      mstore\n      0x20\n      add\n      swap1\n      dup2\n      mstore\n      0x20\n      add\n      0x00\n      keccak256\n        /* \"contracts/contracts/Core.sol\":8458:8505  PlayerStats storage stats = playerStats[player] */\n      swap1\n      pop\n        /* \"contracts/contracts/Core.sol\":8520:8525  stats */\n      dup1\n        /* \"contracts/contracts/Core.sol\":8520:8542  stats.challengesFailed */\n      0x03\n      add\n      0x00\n        /* \"contracts/contracts/Core.sol\":8520:8544  stats.challengesFailed++ */\n      dup2\n      sload\n      dup1\n      swap3\n      swap2\n      swap1\n      tag_352\n      swap1\n      tag_346\n      jump\t// in\n    tag_352:\n      swap2\n      swap1\n      pop\n      sstore\n      pop\n        /* \"contracts/contracts/Core.sol\":8581:8582  0 */\n      0x00\n        /* \"contracts/contracts/Core.sol\":8559:8564  stats */\n      dup2\n        /* \"contracts/contracts/Core.sol\":8559:8578  stats.currentStreak */\n      0x04\n      add\n        /* \"contracts/contracts/Core.sol\":8559:8582  stats.currentStreak = 0 */\n      dup2\n      swap1\n      sstore\n      pop\n        /* \"contracts/contracts/Core.sol\":8264:8594  {... */\n      pop\n        /* \"contracts/contracts/Core.sol\":7242:8594  if (success) {... */\n    tag_349:\n        /* \"contracts/contracts/Core.sol\":8636:8641  stars */\n      0x0c\n        /* \"contracts/contracts/Core.sol\":8636:8659  stars[challenge.starId] */\n      0x00\n        /* \"contracts/contracts/Core.sol\":8642:8651  challenge */\n      dup6\n        /* \"contracts/contracts/Core.sol\":8642:8658  challenge.starId */\n      0x09\n      add\n      sload\n        /* \"contracts/contracts/Core.sol\":8636:8659  stars[challenge.starId] */\n      dup2\n      mstore\n      0x20\n      add\n      swap1\n      dup2\n      mstore\n      0x20\n      add\n      0x00\n      keccak256\n        /* \"contracts/contracts/Core.sol\":8636:8679  stars[challenge.starId].challengesCompleted */\n      0x05\n      add\n      0x00\n        /* \"contracts/contracts/Core.sol\":8636:8681  stars[challenge.starId].challengesCompleted++ */\n      dup2\n      sload\n      dup1\n      swap3\n      swap2\n      swap1\n      tag_353\n      swap1\n      tag_346\n      jump\t// in\n    tag_353:\n      swap2\n      swap1\n      pop\n      sstore\n      pop\n        /* \"contracts/contracts/Core.sol\":8767:8782  playerStakeData */\n      dup2\n        /* \"contracts/contracts/Core.sol\":8767:8789  playerStakeData.amount */\n      0x00\n      add\n      sload\n        /* \"contracts/contracts/Core.sol\":8732:8743  playerStats */\n      0x0d\n        /* \"contracts/contracts/Core.sol\":8732:8751  playerStats[player] */\n      0x00\n        /* \"contracts/contracts/Core.sol\":8744:8750  player */\n      dup6\n        /* \"contracts/contracts/Core.sol\":8732:8751  playerStats[player] */\n      0xffffffffffffffffffffffffffffffffffffffff\n      and\n      0xffffffffffffffffffffffffffffffffffffffff\n      and\n      dup2\n      mstore\n      0x20\n      add\n      swap1\n      dup2\n      mstore\n      0x20\n      add\n      0x00\n      keccak256\n        /* \"contracts/contracts/Core.sol\":8732:8763  playerStats[player].totalStaked */\n      0x00\n      add\n      0x00\n        /* \"contracts/contracts/Core.sol\":8732:8789  playerStats[player].totalStaked += playerStakeData.amount */\n      dup3\n      dup3\n      sload\n      tag_354\n      swap2\n      swap1\n      tag_234\n      jump\t// in\n    tag_354:\n      swap3\n      pop\n      pop\n      dup2\n      swap1\n      sstore\n      pop\n        /* \"contracts/contracts/Core.sol\":8842:8857  block.timestamp */\n      timestamp\n        /* \"contracts/contracts/Core.sol\":8800:8811  playerStats */\n      0x0d\n        /* \"contracts/contracts/Core.sol\":8800:8819  playerStats[player] */\n      0x00\n        /* \"contracts/contracts/Core.sol\":8812:8818  player */\n      dup6\n        /* \"contracts/contracts/Core.sol\":8800:8819  playerStats[player] */\n      0xffffffffffffffffffffffffffffffffffffffff\n      and\n      0xffffffffffffffffffffffffffffffffffffffff\n      and\n      dup2\n      mstore\n      0x20\n      add\n      swap1\n      dup2\n      mstore\n      0x20\n      add\n      0x00\n      keccak256\n        /* \"contracts/contracts/Core.sol\":8800:8839  playerStats[player].lastPlayedTimestamp */\n      0x06\n      add\n        /* \"contracts/contracts/Core.sol\":8800:8857  playerStats[player].lastPlayedTimestamp = block.timestamp */\n      dup2\n      swap1\n      sstore\n      pop\n        /* \"contracts/contracts/Core.sol\":8907:8913  player */\n      dup3\n        /* \"contracts/contracts/Core.sol\":8875:8931  ChallengeCompleted(challengeId, player, success, payout) */\n      0xffffffffffffffffffffffffffffffffffffffff\n      and\n        /* \"contracts/contracts/Core.sol\":8894:8905  challengeId */\n      dup8\n        /* \"contracts/contracts/Core.sol\":8875:8931  ChallengeCompleted(challengeId, player, success, payout) */\n      0xf531285ca704745eddab0f3ffd7e758c9d25cc5307e3c886d15ed35f880c6ee1\n        /* \"contracts/contracts/Core.sol\":8915:8922  success */\n      dup8\n        /* \"contracts/contracts/Core.sol\":8924:8930  payout */\n      dup5\n        /* \"contracts/contracts/Core.sol\":8875:8931  ChallengeCompleted(challengeId, player, success, payout) */\n      mload(0x40)\n      tag_355\n      swap3\n      swap2\n      swap1\n      tag_356\n      jump\t// in\n    tag_355:\n      mload(0x40)\n      dup1\n      swap2\n      sub\n      swap1\n      log3\n        /* \"contracts/contracts/Core.sol\":6503:8939  {... */\n      pop\n      pop\n      pop\n      pop\n        /* \"https://github.com/OpenZeppelin/openzeppelin-contracts/blob/v4.9.6/contracts/security/ReentrancyGuard.sol\":2303:2323  _nonReentrantAfter() */\n      tag_357\n        /* \"https://github.com/OpenZeppelin/openzeppelin-contracts/blob/v4.9.6/contracts/security/ReentrancyGuard.sol\":2303:2321  _nonReentrantAfter */\n      tag_239\n        /* \"https://github.com/OpenZeppelin/openzeppelin-contracts/blob/v4.9.6/contracts/security/ReentrancyGuard.sol\":2303:2323  _nonReentrantAfter() */\n      jump\t// in\n    tag_357:\n        /* \"contracts/contracts/Core.sol\":6305:8939  function completeChallenge(... */\n      pop\n      pop\n      pop\n      jump\t// out\n        /* \"https://github.com/OpenZeppelin/openzeppelin-contracts/blob/v4.9.6/contracts/access/Ownable.sol\":1824:1925  function renounceOwnership() public virtual onlyOwner {... */\n    tag_110:\n        /* \"https://github.com/OpenZeppelin/openzeppelin-contracts/blob/v4.9.6/contracts/access/Ownable.sol\":1094:1107  _checkOwner() */\n      tag_359\n        /* \"https://github.com/OpenZeppelin/openzeppelin-contracts/blob/v4.9.6/contracts/access/Ownable.sol\":1094:1105  _checkOwner */\n      tag_193\n        /* \"https://github.com/OpenZeppelin/openzeppelin-contracts/blob/v4.9.6/contracts/access/Ownable.sol\":1094:1107  _checkOwner() */\n      jump\t// in\n    tag_359:\n        /* \"https://github.com/OpenZeppelin/openzeppelin-contracts/blob/v4.9.6/contracts/access/Ownable.sol\":1888:1918  _transferOwnership(address(0)) */\n      tag_361\n        /* \"https://github.com/OpenZeppelin/openzeppelin-contracts/blob/v4.9.6/contracts/access/Ownable.sol\":1915:1916  0 */\n      0x00\n        /* \"https://github.com/OpenZeppelin/openzeppelin-contracts/blob/v4.9.6/contracts/access/Ownable.sol\":1888:1906  _transferOwnership */\n      tag_362\n        /* \"https://github.com/OpenZeppelin/openzeppelin-contracts/blob/v4.9.6/contracts/access/Ownable.sol\":1888:1918  _transferOwnership(address(0)) */\n      jump\t// in\n    tag_361:\n        /* \"https://github.com/OpenZeppelin/openzeppelin-contracts/blob/v4.9.6/contracts/access/Ownable.sol\":1824:1925  function renounceOwnership() public virtual onlyOwner {... */\n      jump\t// out\n        /* \"contracts/contracts/Core.sol\":12528:12591  function pause() external onlyOwner {... */\n    tag_113:\n        /* \"https://github.com/OpenZeppelin/openzeppelin-contracts/blob/v4.9.6/contracts/access/Ownable.sol\":1094:1107  _checkOwner() */\n      tag_364\n        /* \"https://github.com/OpenZeppelin/openzeppelin-contracts/blob/v4.9.6/contracts/access/Ownable.sol\":1094:1105  _checkOwner */\n      tag_193\n        /* \"https://github.com/OpenZeppelin/openzeppelin-contracts/blob/v4.9.6/contracts/access/Ownable.sol\":1094:1107  _checkOwner() */\n      jump\t// in\n    tag_364:\n        /* \"contracts/contracts/Core.sol\":12575:12583  _pause() */\n      tag_366\n        /* \"contracts/contracts/Core.sol\":12575:12581  _pause */\n      tag_367\n        /* \"contracts/contracts/Core.sol\":12575:12583  _pause() */\n      jump\t// in\n    tag_366:\n        /* \"contracts/contracts/Core.sol\":12528:12591  function pause() external onlyOwner {... */\n      jump\t// out\n        /* \"https://github.com/OpenZeppelin/openzeppelin-contracts/blob/v4.9.6/contracts/access/Ownable.sol\":1201:1286  function owner() public view virtual returns (address) {... */\n    tag_116:\n        /* \"https://github.com/OpenZeppelin/openzeppelin-contracts/blob/v4.9.6/contracts/access/Ownable.sol\":1247:1254  address */\n      0x00\n        /* \"https://github.com/OpenZeppelin/openzeppelin-contracts/blob/v4.9.6/contracts/access/Ownable.sol\":1273:1279  _owner */\n      dup1\n      0x00\n      swap1\n      sload\n      swap1\n      0x0100\n      exp\n      swap1\n      div\n      0xffffffffffffffffffffffffffffffffffffffff\n      and\n        /* \"https://github.com/OpenZeppelin/openzeppelin-contracts/blob/v4.9.6/contracts/access/Ownable.sol\":1266:1279  return _owner */\n      swap1\n      pop\n        /* \"https://github.com/OpenZeppelin/openzeppelin-contracts/blob/v4.9.6/contracts/access/Ownable.sol\":1201:1286  function owner() public view virtual returns (address) {... */\n      swap1\n      jump\t// out\n        /* \"contracts/contracts/Core.sol\":2559:2606  mapping(uint256 => Challenge) public challenges */\n    tag_121:\n      mstore(0x20, 0x0b)\n      dup1\n      0x00\n      mstore\n      keccak256(0x00, 0x40)\n      0x00\n      swap2\n      pop\n      swap1\n      pop\n      dup1\n      0x00\n      add\n      sload\n      swap1\n      dup1\n      0x01\n      add\n      0x00\n      swap1\n      sload\n      swap1\n      0x0100\n      exp\n      swap1\n      div\n      0xffffffffffffffffffffffffffffffffffffffff\n      and\n      swap1\n      dup1\n      0x02\n      add\n      sload\n      swap1\n      dup1\n      0x03\n      add\n      dup1\n      sload\n      tag_369\n      swap1\n      tag_253\n      jump\t// in\n    tag_369:\n      dup1\n      0x1f\n      add\n      0x20\n      dup1\n      swap2\n      div\n      mul\n      0x20\n      add\n      mload(0x40)\n      swap1\n      dup2\n      add\n      0x40\n      mstore\n      dup1\n      swap3\n      swap2\n      swap1\n      dup2\n      dup2\n      mstore\n      0x20\n      add\n      dup3\n      dup1\n      sload\n      tag_370\n      swap1\n      tag_253\n      jump\t// in\n    tag_370:\n      dup1\n      iszero\n      tag_371\n      jumpi\n      dup1\n      0x1f\n      lt\n      tag_372\n      jumpi\n      0x0100\n      dup1\n      dup4\n      sload\n      div\n      mul\n      dup4\n      mstore\n      swap2\n      0x20\n      add\n      swap2\n      jump(tag_371)\n    tag_372:\n      dup3\n      add\n      swap2\n      swap1\n      0x00\n      mstore\n      keccak256(0x00, 0x20)\n      swap1\n    tag_373:\n      dup2\n      sload\n      dup2\n      mstore\n      swap1\n      0x01\n      add\n      swap1\n      0x20\n      add\n      dup1\n      dup4\n      gt\n      tag_373\n      jumpi\n      dup3\n      swap1\n      sub\n      0x1f\n      and\n      dup3\n      add\n      swap2\n    tag_371:\n      pop\n      pop\n      pop\n      pop\n      pop\n      swap1\n      dup1\n      0x04\n      add\n      dup1\n      sload\n      tag_374\n      swap1\n      tag_253\n      jump\t// in\n    tag_374:\n      dup1\n      0x1f\n      add\n      0x20\n      dup1\n      swap2\n      div\n      mul\n      0x20\n      add\n      mload(0x40)\n      swap1\n      dup2\n      add\n      0x40\n      mstore\n      dup1\n      swap3\n      swap2\n      swap1\n      dup2\n      dup2\n      mstore\n      0x20\n      add\n      dup3\n      dup1\n      sload\n      tag_375\n      swap1\n      tag_253\n      jump\t// in\n    tag_375:\n      dup1\n      iszero\n      tag_376\n      jumpi\n      dup1\n      0x1f\n      lt\n      tag_377\n      jumpi\n      0x0100\n      dup1\n      dup4\n      sload\n      div\n      mul\n      dup4\n      mstore\n      swap2\n      0x20\n      add\n      swap2\n      jump(tag_376)\n    tag_377:\n      dup3\n      add\n      swap2\n      swap1\n      0x00\n      mstore\n      keccak256(0x00, 0x20)\n      swap1\n    tag_378:\n      dup2\n      sload\n      dup2\n      mstore\n      swap1\n      0x01\n      add\n      swap1\n      0x20\n      add\n      dup1\n      dup4\n      gt\n      tag_378\n      jumpi\n      dup3\n      swap1\n      sub\n      0x1f\n      and\n      dup3\n      add\n      swap2\n    tag_376:\n      pop\n      pop\n      pop\n      pop\n      pop\n      swap1\n      dup1\n      0x05\n      add\n      0x00\n      swap1\n      sload\n      swap1\n      0x0100\n      exp\n      swap1\n      div\n      0xff\n      and\n      swap1\n      dup1\n      0x06\n      add\n      sload\n      swap1\n      dup1\n      0x07\n      add\n      sload\n      swap1\n      dup1\n      0x08\n      add\n      0x00\n      swap1\n      sload\n      swap1\n      0x0100\n      exp\n      swap1\n      div\n      0xff\n      and\n      swap1\n      dup1\n      0x09\n      add\n      sload\n      swap1\n      dup1\n      0x0a\n      add\n      0x00\n      swap1\n      sload\n      swap1\n      0x0100\n      exp\n      swap1\n      div\n      0xff\n      and\n      swap1\n      pop\n      dup12\n      jump\t// out\n        /* \"contracts/contracts/Core.sol\":11443:11591  function getPlayerChallengeHistory(address player) external view returns (uint256[] memory) {... */\n    tag_128:\n        /* \"contracts/contracts/Core.sol\":11517:11533  uint256[] memory */\n      0x60\n        /* \"contracts/contracts/Core.sol\":11553:11575  playerChallengeHistory */\n      0x0f\n        /* \"contracts/contracts/Core.sol\":11553:11583  playerChallengeHistory[player] */\n      0x00\n        /* \"contracts/contracts/Core.sol\":11576:11582  player */\n      dup4\n        /* \"contracts/contracts/Core.sol\":11553:11583  playerChallengeHistory[player] */\n      0xffffffffffffffffffffffffffffffffffffffff\n      and\n      0xffffffffffffffffffffffffffffffffffffffff\n      and\n      dup2\n      mstore\n      0x20\n      add\n      swap1\n      dup2\n      mstore\n      0x20\n      add\n      0x00\n      keccak256\n        /* \"contracts/contracts/Core.sol\":11546:11583  return playerChallengeHistory[player] */\n      dup1\n      sload\n      dup1\n      0x20\n      mul\n      0x20\n      add\n      mload(0x40)\n      swap1\n      dup2\n      add\n      0x40\n      mstore\n      dup1\n      swap3\n      swap2\n      swap1\n      dup2\n      dup2\n      mstore\n      0x20\n      add\n      dup3\n      dup1\n      sload\n      dup1\n      iszero\n      tag_380\n      jumpi\n      0x20\n      mul\n      dup3\n      add\n      swap2\n      swap1\n      0x00\n      mstore\n      keccak256(0x00, 0x20)\n      swap1\n    tag_381:\n      dup2\n      sload\n      dup2\n      mstore\n      0x20\n      add\n      swap1\n      0x01\n      add\n      swap1\n      dup1\n      dup4\n      gt\n      tag_381\n      jumpi\n    tag_380:\n      pop\n      pop\n      pop\n      pop\n      pop\n      swap1\n      pop\n        /* \"contracts/contracts/Core.sol\":11443:11591  function getPlayerChallengeHistory(address player) external view returns (uint256[] memory) {... */\n      swap2\n      swap1\n      pop\n      jump\t// out\n        /* \"contracts/contracts/Core.sol\":2714:2758  mapping(address => bool) public authorizedAI */\n    tag_134:\n      mstore(0x20, 0x0e)\n      dup1\n      0x00\n      mstore\n      keccak256(0x00, 0x40)\n      0x00\n      swap2\n      pop\n      sload\n      swap1\n      0x0100\n      exp\n      swap1\n      div\n      0xff\n      and\n      dup2\n      jump\t// out\n        /* \"contracts/contracts/Core.sol\":12035:12466  function setGameParameters(... */\n    tag_140:\n        /* \"https://github.com/OpenZeppelin/openzeppelin-contracts/blob/v4.9.6/contracts/access/Ownable.sol\":1094:1107  _checkOwner() */\n      tag_383\n        /* \"https://github.com/OpenZeppelin/openzeppelin-contracts/blob/v4.9.6/contracts/access/Ownable.sol\":1094:1105  _checkOwner */\n      tag_193\n        /* \"https://github.com/OpenZeppelin/openzeppelin-contracts/blob/v4.9.6/contracts/access/Ownable.sol\":1094:1107  _checkOwner() */\n      jump\t// in\n    tag_383:\n        /* \"contracts/contracts/Core.sol\":12279:12292  _minimumStake */\n      dup5\n        /* \"contracts/contracts/Core.sol\":12264:12276  minimumStake */\n      0x04\n        /* \"contracts/contracts/Core.sol\":12264:12292  minimumStake = _minimumStake */\n      dup2\n      swap1\n      sstore\n      pop\n        /* \"contracts/contracts/Core.sol\":12318:12331  _maximumStake */\n      dup4\n        /* \"contracts/contracts/Core.sol\":12303:12315  maximumStake */\n      0x05\n        /* \"contracts/contracts/Core.sol\":12303:12331  maximumStake = _maximumStake */\n      dup2\n      swap1\n      sstore\n      pop\n        /* \"contracts/contracts/Core.sol\":12358:12372  _winMultiplier */\n      dup3\n        /* \"contracts/contracts/Core.sol\":12342:12355  winMultiplier */\n      0x06\n        /* \"contracts/contracts/Core.sol\":12342:12372  winMultiplier = _winMultiplier */\n      dup2\n      swap1\n      sstore\n      pop\n        /* \"contracts/contracts/Core.sol\":12401:12417  _houseFeePercent */\n      dup2\n        /* \"contracts/contracts/Core.sol\":12383:12398  houseFeePercent */\n      0x07\n        /* \"contracts/contracts/Core.sol\":12383:12417  houseFeePercent = _houseFeePercent */\n      dup2\n      swap1\n      sstore\n      pop\n        /* \"contracts/contracts/Core.sol\":12444:12458  _storageWallet */\n      dup1\n        /* \"contracts/contracts/Core.sol\":12428:12441  storageWallet */\n      0x02\n      0x01\n        /* \"contracts/contracts/Core.sol\":12428:12458  storageWallet = _storageWallet */\n      0x0100\n      exp\n      dup2\n      sload\n      dup2\n      0xffffffffffffffffffffffffffffffffffffffff\n      mul\n      not\n      and\n      swap1\n      dup4\n      0xffffffffffffffffffffffffffffffffffffffff\n      and\n      mul\n      or\n      swap1\n      sstore\n      pop\n        /* \"contracts/contracts/Core.sol\":12035:12466  function setGameParameters(... */\n      pop\n      pop\n      pop\n      pop\n      pop\n      jump\t// out\n        /* \"contracts/contracts/Core.sol\":10402:10583  function authorizeAI(address aiAgent, bool authorized) external onlyOwner {... */\n    tag_145:\n        /* \"https://github.com/OpenZeppelin/openzeppelin-contracts/blob/v4.9.6/contracts/access/Ownable.sol\":1094:1107  _checkOwner() */\n      tag_386\n        /* \"https://github.com/OpenZeppelin/openzeppelin-contracts/blob/v4.9.6/contracts/access/Ownable.sol\":1094:1105  _checkOwner */\n      tag_193\n        /* \"https://github.com/OpenZeppelin/openzeppelin-contracts/blob/v4.9.6/contracts/access/Ownable.sol\":1094:1107  _checkOwner() */\n      jump\t// in\n    tag_386:\n        /* \"contracts/contracts/Core.sol\":10511:10521  authorized */\n      dup1\n        /* \"contracts/contracts/Core.sol\":10487:10499  authorizedAI */\n      0x0e\n        /* \"contracts/contracts/Core.sol\":10487:10508  authorizedAI[aiAgent] */\n      0x00\n        /* \"contracts/contracts/Core.sol\":10500:10507  aiAgent */\n      dup5\n        /* \"contracts/contracts/Core.sol\":10487:10508  authorizedAI[aiAgent] */\n      0xffffffffffffffffffffffffffffffffffffffff\n      and\n      0xffffffffffffffffffffffffffffffffffffffff\n      and\n      dup2\n      mstore\n      0x20\n      add\n      swap1\n      dup2\n      mstore\n      0x20\n      add\n      0x00\n      keccak256\n      0x00\n        /* \"contracts/contracts/Core.sol\":10487:10521  authorizedAI[aiAgent] = authorized */\n      0x0100\n      exp\n      dup2\n      sload\n      dup2\n      0xff\n      mul\n      not\n      and\n      swap1\n      dup4\n      iszero\n      iszero\n      mul\n      or\n      swap1\n      sstore\n      pop\n        /* \"contracts/contracts/Core.sol\":10555:10562  aiAgent */\n      dup2\n        /* \"contracts/contracts/Core.sol\":10537:10575  AIAgentAuthorized(aiAgent, authorized) */\n      0xffffffffffffffffffffffffffffffffffffffff\n      and\n      0x1964273d193fb2f4735c932d08bbdb5cbaaf807bb74a86b6f4be09af78d42c92\n        /* \"contracts/contracts/Core.sol\":10564:10574  authorized */\n      dup3\n        /* \"contracts/contracts/Core.sol\":10537:10575  AIAgentAuthorized(aiAgent, authorized) */\n      mload(0x40)\n      tag_388\n      swap2\n      swap1\n      tag_88\n      jump\t// in\n    tag_388:\n      mload(0x40)\n      dup1\n      swap2\n      sub\n      swap1\n      log2\n        /* \"contracts/contracts/Core.sol\":10402:10583  function authorizeAI(address aiAgent, bool authorized) external onlyOwner {... */\n      pop\n      pop\n      jump\t// out\n        /* \"contracts/contracts/Core.sol\":923:961  uint256 public maximumStake = 10 ether */\n    tag_148:\n      sload(0x05)\n      dup2\n      jump\t// out\n        /* \"contracts/contracts/Core.sol\":2507:2552  mapping(address => Stake) public playerStakes */\n    tag_153:\n      mstore(0x20, 0x0a)\n      dup1\n      0x00\n      mstore\n      keccak256(0x00, 0x40)\n      0x00\n      swap2\n      pop\n      swap1\n      pop\n      dup1\n      0x00\n      add\n      sload\n      swap1\n      dup1\n      0x01\n      add\n      sload\n      swap1\n      dup1\n      0x02\n      add\n      0x00\n      swap1\n      sload\n      swap1\n      0x0100\n      exp\n      swap1\n      div\n      0xff\n      and\n      swap1\n      dup1\n      0x03\n      add\n      sload\n      swap1\n      pop\n      dup5\n      jump\t// out\n        /* \"contracts/contracts/Core.sol\":5626:6069  function submitChallenge(uint256 challengeId, string memory challengeHash) ... */\n    tag_160:\n        /* \"contracts/contracts/Core.sol\":3574:3586  authorizedAI */\n      0x0e\n        /* \"contracts/contracts/Core.sol\":3574:3598  authorizedAI[msg.sender] */\n      0x00\n        /* \"contracts/contracts/Core.sol\":3587:3597  msg.sender */\n      caller\n        /* \"contracts/contracts/Core.sol\":3574:3598  authorizedAI[msg.sender] */\n      0xffffffffffffffffffffffffffffffffffffffff\n      and\n      0xffffffffffffffffffffffffffffffffffffffff\n      and\n      dup2\n      mstore\n      0x20\n      add\n      swap1\n      dup2\n      mstore\n      0x20\n      add\n      0x00\n      keccak256\n      0x00\n      swap1\n      sload\n      swap1\n      0x0100\n      exp\n      swap1\n      div\n      0xff\n      and\n        /* \"contracts/contracts/Core.sol\":3574:3623  authorizedAI[msg.sender] || msg.sender == owner() */\n      dup1\n      tag_390\n      jumpi\n      pop\n        /* \"contracts/contracts/Core.sol\":3616:3623  owner() */\n      tag_391\n        /* \"contracts/contracts/Core.sol\":3616:3621  owner */\n      tag_116\n        /* \"contracts/contracts/Core.sol\":3616:3623  owner() */\n      jump\t// in\n    tag_391:\n        /* \"contracts/contracts/Core.sol\":3602:3623  msg.sender == owner() */\n      0xffffffffffffffffffffffffffffffffffffffff\n      and\n        /* \"contracts/contracts/Core.sol\":3602:3612  msg.sender */\n      caller\n        /* \"contracts/contracts/Core.sol\":3602:3623  msg.sender == owner() */\n      0xffffffffffffffffffffffffffffffffffffffff\n      and\n      eq\n        /* \"contracts/contracts/Core.sol\":3574:3623  authorizedAI[msg.sender] || msg.sender == owner() */\n    tag_390:\n        /* \"contracts/contracts/Core.sol\":3566:3645  require(authorizedAI[msg.sender] || msg.sender == owner(), \"Not authorized AI\") */\n      tag_392\n      jumpi\n      mload(0x40)\n      0x08c379a000000000000000000000000000000000000000000000000000000000\n      dup2\n      mstore\n      0x04\n      add\n      tag_393\n      swap1\n      tag_309\n      jump\t// in\n    tag_393:\n      mload(0x40)\n      dup1\n      swap2\n      sub\n      swap1\n      revert\n    tag_392:\n        /* \"contracts/contracts/Core.sol\":5806:5828  ChallengeStatus.Active */\n      0x00\n        /* \"contracts/contracts/Core.sol\":5772:5828  challenges[challengeId].status == ChallengeStatus.Active */\n      0x03\n      dup2\n      gt\n      iszero\n      tag_395\n      jumpi\n      tag_396\n      tag_223\n      jump\t// in\n    tag_396:\n    tag_395:\n        /* \"contracts/contracts/Core.sol\":5772:5782  challenges */\n      0x0b\n        /* \"contracts/contracts/Core.sol\":5772:5795  challenges[challengeId] */\n      0x00\n        /* \"contracts/contracts/Core.sol\":5783:5794  challengeId */\n      dup5\n        /* \"contracts/contracts/Core.sol\":5772:5795  challenges[challengeId] */\n      dup2\n      mstore\n      0x20\n      add\n      swap1\n      dup2\n      mstore\n      0x20\n      add\n      0x00\n      keccak256\n        /* \"contracts/contracts/Core.sol\":5772:5802  challenges[challengeId].status */\n      0x05\n      add\n      0x00\n      swap1\n      sload\n      swap1\n      0x0100\n      exp\n      swap1\n      div\n      0xff\n      and\n        /* \"contracts/contracts/Core.sol\":5772:5828  challenges[challengeId].status == ChallengeStatus.Active */\n      0x03\n      dup2\n      gt\n      iszero\n      tag_397\n      jumpi\n      tag_398\n      tag_223\n      jump\t// in\n    tag_398:\n    tag_397:\n      eq\n        /* \"contracts/contracts/Core.sol\":5764:5853  require(challenges[challengeId].status == ChallengeStatus.Active, \"Challenge not active\") */\n      tag_399\n      jumpi\n      mload(0x40)\n      0x08c379a000000000000000000000000000000000000000000000000000000000\n      dup2\n      mstore\n      0x04\n      add\n      tag_400\n      swap1\n      tag_319\n      jump\t// in\n    tag_400:\n      mload(0x40)\n      dup1\n      swap2\n      sub\n      swap1\n      revert\n    tag_399:\n        /* \"contracts/contracts/Core.sol\":5914:5927  challengeHash */\n      dup1\n        /* \"contracts/contracts/Core.sol\":5874:5884  challenges */\n      0x0b\n        /* \"contracts/contracts/Core.sol\":5874:5897  challenges[challengeId] */\n      0x00\n        /* \"contracts/contracts/Core.sol\":5885:5896  challengeId */\n      dup5\n        /* \"contracts/contracts/Core.sol\":5874:5897  challenges[challengeId] */\n      dup2\n      mstore\n      0x20\n      add\n      swap1\n      dup2\n      mstore\n      0x20\n      add\n      0x00\n      keccak256\n        /* \"contracts/contracts/Core.sol\":5874:5911  challenges[challengeId].challengeHash */\n      0x03\n      add\n        /* \"contracts/contracts/Core.sol\":5874:5927  challenges[challengeId].challengeHash = challengeHash */\n      swap1\n      dup2\n      tag_401\n      swap2\n      swap1\n      tag_227\n      jump\t// in\n    tag_401:\n      pop\n        /* \"contracts/contracts/Core.sol\":5983:5993  challenges */\n      0x0b\n        /* \"contracts/contracts/Core.sol\":5983:6006  challenges[challengeId] */\n      0x00\n        /* \"contracts/contracts/Core.sol\":5994:6005  challengeId */\n      dup4\n        /* \"contracts/contracts/Core.sol\":5983:6006  challenges[challengeId] */\n      dup2\n      mstore\n      0x20\n      add\n      swap1\n      dup2\n      mstore\n      0x20\n      add\n      0x00\n      keccak256\n        /* \"contracts/contracts/Core.sol\":5983:6013  challenges[challengeId].player */\n      0x01\n      add\n      0x00\n      swap1\n      sload\n      swap1\n      0x0100\n      exp\n      swap1\n      div\n      0xffffffffffffffffffffffffffffffffffffffff\n      and\n        /* \"contracts/contracts/Core.sol\":5953:6061  ChallengeCreated(challengeId, challenges[challengeId].player, challenges[challengeId].starId, challengeHash) */\n      0xffffffffffffffffffffffffffffffffffffffff\n      and\n        /* \"contracts/contracts/Core.sol\":5970:5981  challengeId */\n      dup3\n        /* \"contracts/contracts/Core.sol\":5953:6061  ChallengeCreated(challengeId, challenges[challengeId].player, challenges[challengeId].starId, challengeHash) */\n      0x2045572326018ac04cf292b4443d536bd6c25c4d945e0b5e707382e73829f779\n        /* \"contracts/contracts/Core.sol\":6015:6025  challenges */\n      0x0b\n        /* \"contracts/contracts/Core.sol\":6015:6038  challenges[challengeId] */\n      0x00\n        /* \"contracts/contracts/Core.sol\":6026:6037  challengeId */\n      dup7\n        /* \"contracts/contracts/Core.sol\":6015:6038  challenges[challengeId] */\n      dup2\n      mstore\n      0x20\n      add\n      swap1\n      dup2\n      mstore\n      0x20\n      add\n      0x00\n      keccak256\n        /* \"contracts/contracts/Core.sol\":6015:6045  challenges[challengeId].starId */\n      0x09\n      add\n      sload\n        /* \"contracts/contracts/Core.sol\":6047:6060  challengeHash */\n      dup5\n        /* \"contracts/contracts/Core.sol\":5953:6061  ChallengeCreated(challengeId, challenges[challengeId].player, challenges[challengeId].starId, challengeHash) */\n      mload(0x40)\n      tag_402\n      swap3\n      swap2\n      swap1\n      tag_403\n      jump\t// in\n    tag_402:\n      mload(0x40)\n      dup1\n      swap2\n      sub\n      swap1\n      log3\n        /* \"contracts/contracts/Core.sol\":5626:6069  function submitChallenge(uint256 challengeId, string memory challengeHash) ... */\n      pop\n      pop\n      jump\t// out\n        /* \"contracts/contracts/Core.sol\":840:869  address public oracleContract */\n    tag_163:\n      0x03\n      0x00\n      swap1\n      sload\n      swap1\n      0x0100\n      exp\n      swap1\n      div\n      0xffffffffffffffffffffffffffffffffffffffff\n      and\n      dup2\n      jump\t// out\n        /* \"contracts/contracts/Core.sol\":2657:2707  mapping(address => PlayerStats) public playerStats */\n    tag_168:\n      mstore(0x20, 0x0d)\n      dup1\n      0x00\n      mstore\n      keccak256(0x00, 0x40)\n      0x00\n      swap2\n      pop\n      swap1\n      pop\n      dup1\n      0x00\n      add\n      sload\n      swap1\n      dup1\n      0x01\n      add\n      sload\n      swap1\n      dup1\n      0x02\n      add\n      sload\n      swap1\n      dup1\n      0x03\n      add\n      sload\n      swap1\n      dup1\n      0x04\n      add\n      sload\n      swap1\n      dup1\n      0x05\n      add\n      sload\n      swap1\n      dup1\n      0x06\n      add\n      sload\n      swap1\n      pop\n      dup8\n      jump\t// out\n        /* \"contracts/contracts/Core.sol\":968:1002  uint256 public winMultiplier = 200 */\n    tag_173:\n      sload(0x06)\n      dup2\n      jump\t// out\n        /* \"contracts/contracts/Core.sol\":9449:10063  function addStar(... */\n    tag_179:\n        /* \"https://github.com/OpenZeppelin/openzeppelin-contracts/blob/v4.9.6/contracts/access/Ownable.sol\":1094:1107  _checkOwner() */\n      tag_405\n        /* \"https://github.com/OpenZeppelin/openzeppelin-contracts/blob/v4.9.6/contracts/access/Ownable.sol\":1094:1105  _checkOwner */\n      tag_193\n        /* \"https://github.com/OpenZeppelin/openzeppelin-contracts/blob/v4.9.6/contracts/access/Ownable.sol\":1094:1107  _checkOwner() */\n      jump\t// in\n    tag_405:\n        /* \"contracts/contracts/Core.sol\":9662:9663  0 */\n      0x00\n        /* \"contracts/contracts/Core.sol\":9642:9647  stars */\n      0x0c\n        /* \"contracts/contracts/Core.sol\":9642:9655  stars[starId] */\n      0x00\n        /* \"contracts/contracts/Core.sol\":9648:9654  starId */\n      dup8\n        /* \"contracts/contracts/Core.sol\":9642:9655  stars[starId] */\n      dup2\n      mstore\n      0x20\n      add\n      swap1\n      dup2\n      mstore\n      0x20\n      add\n      0x00\n      keccak256\n        /* \"contracts/contracts/Core.sol\":9642:9658  stars[starId].id */\n      0x00\n      add\n      sload\n        /* \"contracts/contracts/Core.sol\":9642:9663  stars[starId].id == 0 */\n      eq\n        /* \"contracts/contracts/Core.sol\":9634:9687  require(stars[starId].id == 0, \"Star already exists\") */\n      tag_407\n      jumpi\n      mload(0x40)\n      0x08c379a000000000000000000000000000000000000000000000000000000000\n      dup2\n      mstore\n      0x04\n      add\n      tag_408\n      swap1\n      tag_409\n      jump\t// in\n    tag_408:\n      mload(0x40)\n      dup1\n      swap2\n      sub\n      swap1\n      revert\n    tag_407:\n        /* \"contracts/contracts/Core.sol\":9724:9989  Star({... */\n      mload(0x40)\n      dup1\n      0x0100\n      add\n      0x40\n      mstore\n      dup1\n        /* \"contracts/contracts/Core.sol\":9748:9754  starId */\n      dup7\n        /* \"contracts/contracts/Core.sol\":9724:9989  Star({... */\n      dup2\n      mstore\n      0x20\n      add\n        /* \"contracts/contracts/Core.sol\":9779:9787  latitude */\n      dup6\n        /* \"contracts/contracts/Core.sol\":9724:9989  Star({... */\n      dup2\n      mstore\n      0x20\n      add\n        /* \"contracts/contracts/Core.sol\":9813:9822  longitude */\n      dup5\n        /* \"contracts/contracts/Core.sol\":9724:9989  Star({... */\n      dup2\n      mstore\n      0x20\n      add\n        /* \"contracts/contracts/Core.sol\":9845:9851  radius */\n      dup4\n        /* \"contracts/contracts/Core.sol\":9724:9989  Star({... */\n      dup2\n      mstore\n      0x20\n      add\n        /* \"contracts/contracts/Core.sol\":9876:9884  starType */\n      dup3\n        /* \"contracts/contracts/Core.sol\":9724:9989  Star({... */\n      0x03\n      dup2\n      gt\n      iszero\n      tag_410\n      jumpi\n      tag_411\n      tag_223\n      jump\t// in\n    tag_411:\n    tag_410:\n      dup2\n      mstore\n      0x20\n      add\n        /* \"contracts/contracts/Core.sol\":9907:9911  true */\n      0x01\n        /* \"contracts/contracts/Core.sol\":9724:9989  Star({... */\n      iszero\n      iszero\n      dup2\n      mstore\n      0x20\n      add\n        /* \"contracts/contracts/Core.sol\":9947:9948  0 */\n      0x00\n        /* \"contracts/contracts/Core.sol\":9724:9989  Star({... */\n      dup2\n      mstore\n      0x20\n      add\n        /* \"contracts/contracts/Core.sol\":9976:9977  0 */\n      0x00\n        /* \"contracts/contracts/Core.sol\":9724:9989  Star({... */\n      dup2\n      mstore\n      pop\n        /* \"contracts/contracts/Core.sol\":9708:9713  stars */\n      0x0c\n        /* \"contracts/contracts/Core.sol\":9708:9721  stars[starId] */\n      0x00\n        /* \"contracts/contracts/Core.sol\":9714:9720  starId */\n      dup8\n        /* \"contracts/contracts/Core.sol\":9708:9721  stars[starId] */\n      dup2\n      mstore\n      0x20\n      add\n      swap1\n      dup2\n      mstore\n      0x20\n      add\n      0x00\n      keccak256\n        /* \"contracts/contracts/Core.sol\":9708:9989  stars[starId] = Star({... */\n      0x00\n      dup3\n      add\n      mload\n      dup2\n      0x00\n      add\n      sstore\n      0x20\n      dup3\n      add\n      mload\n      dup2\n      0x01\n      add\n      sstore\n      0x40\n      dup3\n      add\n      mload\n      dup2\n      0x02\n      add\n      sstore\n      0x60\n      dup3\n      add\n      mload\n      dup2\n      0x03\n      add\n      sstore\n      0x80\n      dup3\n      add\n      mload\n      dup2\n      0x04\n      add\n      exp(0x0100, 0x00)\n      dup2\n      sload\n      dup2\n      0xff\n      mul\n      not\n      and\n      swap1\n      dup4\n      0x03\n      dup2\n      gt\n      iszero\n      tag_412\n      jumpi\n      tag_413\n      tag_223\n      jump\t// in\n    tag_413:\n    tag_412:\n      mul\n      or\n      swap1\n      sstore\n      pop\n      0xa0\n      dup3\n      add\n      mload\n      dup2\n      0x04\n      add\n      exp(0x0100, 0x01)\n      dup2\n      sload\n      dup2\n      0xff\n      mul\n      not\n      and\n      swap1\n      dup4\n      iszero\n      iszero\n      mul\n      or\n      swap1\n      sstore\n      pop\n      0xc0\n      dup3\n      add\n      mload\n      dup2\n      0x05\n      add\n      sstore\n      0xe0\n      dup3\n      add\n      mload\n      dup2\n      0x06\n      add\n      sstore\n      swap1\n      pop\n      pop\n        /* \"contracts/contracts/Core.sol\":10017:10023  starId */\n      dup5\n        /* \"contracts/contracts/Core.sol\":10007:10055  StarAdded(starId, latitude, longitude, starType) */\n      0x129587d9e08ad0ce02eaf47578bf568fda838194ab25452b17963223b17435dd\n        /* \"contracts/contracts/Core.sol\":10025:10033  latitude */\n      dup6\n        /* \"contracts/contracts/Core.sol\":10035:10044  longitude */\n      dup6\n        /* \"contracts/contracts/Core.sol\":10046:10054  starType */\n      dup5\n        /* \"contracts/contracts/Core.sol\":10007:10055  StarAdded(starId, latitude, longitude, starType) */\n      mload(0x40)\n      tag_414\n      swap4\n      swap3\n      swap2\n      swap1\n      tag_415\n      jump\t// in\n    tag_414:\n      mload(0x40)\n      dup1\n      swap2\n      sub\n      swap1\n      log2\n        /* \"contracts/contracts/Core.sol\":9449:10063  function addStar(... */\n      pop\n      pop\n      pop\n      pop\n      pop\n      jump\t// out\n        /* \"contracts/contracts/Core.sol\":10668:11373  function emergencyWithdraw() external nonReentrant {... */\n    tag_182:\n        /* \"https://github.com/OpenZeppelin/openzeppelin-contracts/blob/v4.9.6/contracts/security/ReentrancyGuard.sol\":2261:2282  _nonReentrantBefore() */\n      tag_417\n        /* \"https://github.com/OpenZeppelin/openzeppelin-contracts/blob/v4.9.6/contracts/security/ReentrancyGuard.sol\":2261:2280  _nonReentrantBefore */\n      tag_201\n        /* \"https://github.com/OpenZeppelin/openzeppelin-contracts/blob/v4.9.6/contracts/security/ReentrancyGuard.sol\":2261:2282  _nonReentrantBefore() */\n      jump\t// in\n    tag_417:\n        /* \"contracts/contracts/Core.sol\":10730:10759  Stake storage playerStakeData */\n      0x00\n        /* \"contracts/contracts/Core.sol\":10762:10774  playerStakes */\n      0x0a\n        /* \"contracts/contracts/Core.sol\":10762:10786  playerStakes[msg.sender] */\n      0x00\n        /* \"contracts/contracts/Core.sol\":10775:10785  msg.sender */\n      caller\n        /* \"contracts/contracts/Core.sol\":10762:10786  playerStakes[msg.sender] */\n      0xffffffffffffffffffffffffffffffffffffffff\n      and\n      0xffffffffffffffffffffffffffffffffffffffff\n      and\n      dup2\n      mstore\n      0x20\n      add\n      swap1\n      dup2\n      mstore\n      0x20\n      add\n      0x00\n      keccak256\n        /* \"contracts/contracts/Core.sol\":10730:10786  Stake storage playerStakeData = playerStakes[msg.sender] */\n      swap1\n      pop\n        /* \"contracts/contracts/Core.sol\":10805:10820  playerStakeData */\n      dup1\n        /* \"contracts/contracts/Core.sol\":10805:10827  playerStakeData.active */\n      0x02\n      add\n      0x00\n      swap1\n      sload\n      swap1\n      0x0100\n      exp\n      swap1\n      div\n      0xff\n      and\n        /* \"contracts/contracts/Core.sol\":10797:10847  require(playerStakeData.active, \"No active stake\") */\n      tag_419\n      jumpi\n      mload(0x40)\n      0x08c379a000000000000000000000000000000000000000000000000000000000\n      dup2\n      mstore\n      0x04\n      add\n      tag_420\n      swap1\n      tag_421\n      jump\t// in\n    tag_420:\n      mload(0x40)\n      dup1\n      swap2\n      sub\n      swap1\n      revert\n    tag_419:\n        /* \"contracts/contracts/Core.sol\":10912:10920  24 hours */\n      0x015180\n        /* \"contracts/contracts/Core.sol\":10884:10899  playerStakeData */\n      dup2\n        /* \"contracts/contracts/Core.sol\":10884:10909  playerStakeData.timestamp */\n      0x01\n      add\n      sload\n        /* \"contracts/contracts/Core.sol\":10884:10920  playerStakeData.timestamp + 24 hours */\n      tag_422\n      swap2\n      swap1\n      tag_234\n      jump\t// in\n    tag_422:\n        /* \"contracts/contracts/Core.sol\":10866:10881  block.timestamp */\n      timestamp\n        /* \"contracts/contracts/Core.sol\":10866:10920  block.timestamp > playerStakeData.timestamp + 24 hours */\n      gt\n        /* \"contracts/contracts/Core.sol\":10858:10943  require(block.timestamp > playerStakeData.timestamp + 24 hours, \"Must wait 24 hours\") */\n      tag_423\n      jumpi\n      mload(0x40)\n      0x08c379a000000000000000000000000000000000000000000000000000000000\n      dup2\n      mstore\n      0x04\n      add\n      tag_424\n      swap1\n      tag_425\n      jump\t// in\n    tag_424:\n      mload(0x40)\n      dup1\n      swap2\n      sub\n      swap1\n      revert\n    tag_423:\n        /* \"contracts/contracts/Core.sol\":10956:10970  uint256 amount */\n      0x00\n        /* \"contracts/contracts/Core.sol\":10973:10988  playerStakeData */\n      dup2\n        /* \"contracts/contracts/Core.sol\":10973:10995  playerStakeData.amount */\n      0x00\n      add\n      sload\n        /* \"contracts/contracts/Core.sol\":10956:10995  uint256 amount = playerStakeData.amount */\n      swap1\n      pop\n        /* \"contracts/contracts/Core.sol\":11031:11036  false */\n      0x00\n        /* \"contracts/contracts/Core.sol\":11006:11021  playerStakeData */\n      dup3\n        /* \"contracts/contracts/Core.sol\":11006:11028  playerStakeData.active */\n      0x02\n      add\n      0x00\n        /* \"contracts/contracts/Core.sol\":11006:11036  playerStakeData.active = false */\n      0x0100\n      exp\n      dup2\n      sload\n      dup2\n      0xff\n      mul\n      not\n      and\n      swap1\n      dup4\n      iszero\n      iszero\n      mul\n      or\n      swap1\n      sstore\n      pop\n        /* \"contracts/contracts/Core.sol\":11140:11162  ChallengeStatus.Active */\n      0x00\n        /* \"contracts/contracts/Core.sol\":11090:11162  challenges[playerStakeData.challengeId].status == ChallengeStatus.Active */\n      0x03\n      dup2\n      gt\n      iszero\n      tag_426\n      jumpi\n      tag_427\n      tag_223\n      jump\t// in\n    tag_427:\n    tag_426:\n        /* \"contracts/contracts/Core.sol\":11090:11100  challenges */\n      0x0b\n        /* \"contracts/contracts/Core.sol\":11090:11129  challenges[playerStakeData.challengeId] */\n      0x00\n        /* \"contracts/contracts/Core.sol\":11101:11116  playerStakeData */\n      dup5\n        /* \"contracts/contracts/Core.sol\":11101:11128  playerStakeData.challengeId */\n      0x03\n      add\n      sload\n        /* \"contracts/contracts/Core.sol\":11090:11129  challenges[playerStakeData.challengeId] */\n      dup2\n      mstore\n      0x20\n      add\n      swap1\n      dup2\n      mstore\n      0x20\n      add\n      0x00\n      keccak256\n        /* \"contracts/contracts/Core.sol\":11090:11136  challenges[playerStakeData.challengeId].status */\n      0x05\n      add\n      0x00\n      swap1\n      sload\n      swap1\n      0x0100\n      exp\n      swap1\n      div\n      0xff\n      and\n        /* \"contracts/contracts/Core.sol\":11090:11162  challenges[playerStakeData.challengeId].status == ChallengeStatus.Active */\n      0x03\n      dup2\n      gt\n      iszero\n      tag_428\n      jumpi\n      tag_429\n      tag_223\n      jump\t// in\n    tag_429:\n    tag_428:\n      sub\n        /* \"contracts/contracts/Core.sol\":11086:11262  if (challenges[playerStakeData.challengeId].status == ChallengeStatus.Active) {... */\n      tag_430\n      jumpi\n        /* \"contracts/contracts/Core.sol\":11228:11250  ChallengeStatus.Failed */\n      0x02\n        /* \"contracts/contracts/Core.sol\":11179:11189  challenges */\n      0x0b\n        /* \"contracts/contracts/Core.sol\":11179:11218  challenges[playerStakeData.challengeId] */\n      0x00\n        /* \"contracts/contracts/Core.sol\":11190:11205  playerStakeData */\n      dup5\n        /* \"contracts/contracts/Core.sol\":11190:11217  playerStakeData.challengeId */\n      0x03\n      add\n      sload\n        /* \"contracts/contracts/Core.sol\":11179:11218  challenges[playerStakeData.challengeId] */\n      dup2\n      mstore\n      0x20\n      add\n      swap1\n      dup2\n      mstore\n      0x20\n      add\n      0x00\n      keccak256\n        /* \"contracts/contracts/Core.sol\":11179:11225  challenges[playerStakeData.challengeId].status */\n      0x05\n      add\n      0x00\n        /* \"contracts/contracts/Core.sol\":11179:11250  challenges[playerStakeData.challengeId].status = ChallengeStatus.Failed */\n      0x0100\n      exp\n      dup2\n      sload\n      dup2\n      0xff\n      mul\n      not\n      and\n      swap1\n      dup4\n      0x03\n      dup2\n      gt\n      iszero\n      tag_431\n      jumpi\n      tag_432\n      tag_223\n      jump\t// in\n    tag_432:\n    tag_431:\n      mul\n      or\n      swap1\n      sstore\n      pop\n        /* \"contracts/contracts/Core.sol\":11086:11262  if (challenges[playerStakeData.challengeId].status == ChallengeStatus.Active) {... */\n    tag_430:\n        /* \"contracts/contracts/Core.sol\":11282:11292  msg.sender */\n      caller\n        /* \"contracts/contracts/Core.sol\":11274:11302  payable(msg.sender).transfer */\n      0xffffffffffffffffffffffffffffffffffffffff\n      and\n        /* \"contracts/contracts/Core.sol\":11274:11310  payable(msg.sender).transfer(amount) */\n      0x08fc\n        /* \"contracts/contracts/Core.sol\":11303:11309  amount */\n      dup3\n        /* \"contracts/contracts/Core.sol\":11274:11310  payable(msg.sender).transfer(amount) */\n      swap1\n      dup2\n      iszero\n      mul\n      swap1\n      mload(0x40)\n      0x00\n      mload(0x40)\n      dup1\n      dup4\n      sub\n      dup2\n      dup6\n      dup9\n      dup9\n      call\n      swap4\n      pop\n      pop\n      pop\n      pop\n      iszero\n      dup1\n      iszero\n      tag_434\n      jumpi\n      returndatasize\n      0x00\n      dup1\n      returndatacopy\n      revert(0x00, returndatasize)\n    tag_434:\n      pop\n        /* \"contracts/contracts/Core.sol\":11346:11356  msg.sender */\n      caller\n        /* \"contracts/contracts/Core.sol\":11326:11365  EmergencyWithdrawal(msg.sender, amount) */\n      0xffffffffffffffffffffffffffffffffffffffff\n      and\n      0x23d6711a1d031134a36921253c75aa59e967d38e369ac625992824315e204f20\n        /* \"contracts/contracts/Core.sol\":11358:11364  amount */\n      dup3\n        /* \"contracts/contracts/Core.sol\":11326:11365  EmergencyWithdrawal(msg.sender, amount) */\n      mload(0x40)\n      tag_435\n      swap2\n      swap1\n      tag_64\n      jump\t// in\n    tag_435:\n      mload(0x40)\n      dup1\n      swap2\n      sub\n      swap1\n      log2\n        /* \"contracts/contracts/Core.sol\":10719:11373  {... */\n      pop\n      pop\n        /* \"https://github.com/OpenZeppelin/openzeppelin-contracts/blob/v4.9.6/contracts/security/ReentrancyGuard.sol\":2303:2323  _nonReentrantAfter() */\n      tag_436\n        /* \"https://github.com/OpenZeppelin/openzeppelin-contracts/blob/v4.9.6/contracts/security/ReentrancyGuard.sol\":2303:2321  _nonReentrantAfter */\n      tag_239\n        /* \"https://github.com/OpenZeppelin/openzeppelin-contracts/blob/v4.9.6/contracts/security/ReentrancyGuard.sol\":2303:2323  _nonReentrantAfter() */\n      jump\t// in\n    tag_436:\n        /* \"contracts/contracts/Core.sol\":10668:11373  function emergencyWithdraw() external nonReentrant {... */\n      jump\t// out\n        /* \"contracts/contracts/Core.sol\":876:916  uint256 public minimumStake = 0.01 ether */\n    tag_185:\n      sload(0x04)\n      dup2\n      jump\t// out\n        /* \"https://github.com/OpenZeppelin/openzeppelin-contracts/blob/v4.9.6/contracts/access/Ownable.sol\":2074:2272  function transferOwnership(address newOwner) public virtual onlyOwner {... */\n    tag_190:\n        /* \"https://github.com/OpenZeppelin/openzeppelin-contracts/blob/v4.9.6/contracts/access/Ownable.sol\":1094:1107  _checkOwner() */\n      tag_438\n        /* \"https://github.com/OpenZeppelin/openzeppelin-contracts/blob/v4.9.6/contracts/access/Ownable.sol\":1094:1105  _checkOwner */\n      tag_193\n        /* \"https://github.com/OpenZeppelin/openzeppelin-contracts/blob/v4.9.6/contracts/access/Ownable.sol\":1094:1107  _checkOwner() */\n      jump\t// in\n    tag_438:\n        /* \"https://github.com/OpenZeppelin/openzeppelin-contracts/blob/v4.9.6/contracts/access/Ownable.sol\":2182:2183  0 */\n      0x00\n        /* \"https://github.com/OpenZeppelin/openzeppelin-contracts/blob/v4.9.6/contracts/access/Ownable.sol\":2162:2184  newOwner != address(0) */\n      0xffffffffffffffffffffffffffffffffffffffff\n      and\n        /* \"https://github.com/OpenZeppelin/openzeppelin-contracts/blob/v4.9.6/contracts/access/Ownable.sol\":2162:2170  newOwner */\n      dup2\n        /* \"https://github.com/OpenZeppelin/openzeppelin-contracts/blob/v4.9.6/contracts/access/Ownable.sol\":2162:2184  newOwner != address(0) */\n      0xffffffffffffffffffffffffffffffffffffffff\n      and\n      sub\n        /* \"https://github.com/OpenZeppelin/openzeppelin-contracts/blob/v4.9.6/contracts/access/Ownable.sol\":2154:2227  require(newOwner != address(0), \"Ownable: new owner is the zero address\") */\n      tag_440\n      jumpi\n      mload(0x40)\n      0x08c379a000000000000000000000000000000000000000000000000000000000\n      dup2\n      mstore\n      0x04\n      add\n      tag_441\n      swap1\n      tag_442\n      jump\t// in\n    tag_441:\n      mload(0x40)\n      dup1\n      swap2\n      sub\n      swap1\n      revert\n    tag_440:\n        /* \"https://github.com/OpenZeppelin/openzeppelin-contracts/blob/v4.9.6/contracts/access/Ownable.sol\":2237:2265  _transferOwnership(newOwner) */\n      tag_443\n        /* \"https://github.com/OpenZeppelin/openzeppelin-contracts/blob/v4.9.6/contracts/access/Ownable.sol\":2256:2264  newOwner */\n      dup2\n        /* \"https://github.com/OpenZeppelin/openzeppelin-contracts/blob/v4.9.6/contracts/access/Ownable.sol\":2237:2255  _transferOwnership */\n      tag_362\n        /* \"https://github.com/OpenZeppelin/openzeppelin-contracts/blob/v4.9.6/contracts/access/Ownable.sol\":2237:2265  _transferOwnership(newOwner) */\n      jump\t// in\n    tag_443:\n        /* \"https://github.com/OpenZeppelin/openzeppelin-contracts/blob/v4.9.6/contracts/access/Ownable.sol\":2074:2272  function transferOwnership(address newOwner) public virtual onlyOwner {... */\n      pop\n      jump\t// out\n        /* \"https://github.com/OpenZeppelin/openzeppelin-contracts/blob/v4.9.6/contracts/access/Ownable.sol\":1359:1489  function _checkOwner() internal view virtual {... */\n    tag_193:\n        /* \"https://github.com/OpenZeppelin/openzeppelin-contracts/blob/v4.9.6/contracts/access/Ownable.sol\":1433:1445  _msgSender() */\n      tag_445\n        /* \"https://github.com/OpenZeppelin/openzeppelin-contracts/blob/v4.9.6/contracts/access/Ownable.sol\":1433:1443  _msgSender */\n      tag_446\n        /* \"https://github.com/OpenZeppelin/openzeppelin-contracts/blob/v4.9.6/contracts/access/Ownable.sol\":1433:1445  _msgSender() */\n      jump\t// in\n    tag_445:\n        /* \"https://github.com/OpenZeppelin/openzeppelin-contracts/blob/v4.9.6/contracts/access/Ownable.sol\":1422:1445  owner() == _msgSender() */\n      0xffffffffffffffffffffffffffffffffffffffff\n      and\n        /* \"https://github.com/OpenZeppelin/openzeppelin-contracts/blob/v4.9.6/contracts/access/Ownable.sol\":1422:1429  owner() */\n      tag_447\n        /* \"https://github.com/OpenZeppelin/openzeppelin-contracts/blob/v4.9.6/contracts/access/Ownable.sol\":1422:1427  owner */\n      tag_116\n        /* \"https://github.com/OpenZeppelin/openzeppelin-contracts/blob/v4.9.6/contracts/access/Ownable.sol\":1422:1429  owner() */\n      jump\t// in\n    tag_447:\n        /* \"https://github.com/OpenZeppelin/openzeppelin-contracts/blob/v4.9.6/contracts/access/Ownable.sol\":1422:1445  owner() == _msgSender() */\n      0xffffffffffffffffffffffffffffffffffffffff\n      and\n      eq\n        /* \"https://github.com/OpenZeppelin/openzeppelin-contracts/blob/v4.9.6/contracts/access/Ownable.sol\":1414:1482  require(owner() == _msgSender(), \"Ownable: caller is not the owner\") */\n      tag_448\n      jumpi\n      mload(0x40)\n      0x08c379a000000000000000000000000000000000000000000000000000000000\n      dup2\n      mstore\n      0x04\n      add\n      tag_449\n      swap1\n      tag_450\n      jump\t// in\n    tag_449:\n      mload(0x40)\n      dup1\n      swap2\n      sub\n      swap1\n      revert\n    tag_448:\n        /* \"https://github.com/OpenZeppelin/openzeppelin-contracts/blob/v4.9.6/contracts/access/Ownable.sol\":1359:1489  function _checkOwner() internal view virtual {... */\n      jump\t// out\n        /* \"https://github.com/OpenZeppelin/openzeppelin-contracts/blob/v4.9.6/contracts/security/ReentrancyGuard.sol\":2336:2623  function _nonReentrantBefore() private {... */\n    tag_201:\n        /* \"https://github.com/OpenZeppelin/openzeppelin-contracts/blob/v4.9.6/contracts/security/ReentrancyGuard.sol\":1759:1760  2 */\n      0x02\n        /* \"https://github.com/OpenZeppelin/openzeppelin-contracts/blob/v4.9.6/contracts/security/ReentrancyGuard.sol\":2468:2475  _status */\n      sload(0x01)\n        /* \"https://github.com/OpenZeppelin/openzeppelin-contracts/blob/v4.9.6/contracts/security/ReentrancyGuard.sol\":2468:2487  _status != _ENTERED */\n      sub\n        /* \"https://github.com/OpenZeppelin/openzeppelin-contracts/blob/v4.9.6/contracts/security/ReentrancyGuard.sol\":2460:2523  require(_status != _ENTERED, \"ReentrancyGuard: reentrant call\") */\n      tag_452\n      jumpi\n      mload(0x40)\n      0x08c379a000000000000000000000000000000000000000000000000000000000\n      dup2\n      mstore\n      0x04\n      add\n      tag_453\n      swap1\n      tag_454\n      jump\t// in\n    tag_453:\n      mload(0x40)\n      dup1\n      swap2\n      sub\n      swap1\n      revert\n    tag_452:\n        /* \"https://github.com/OpenZeppelin/openzeppelin-contracts/blob/v4.9.6/contracts/security/ReentrancyGuard.sol\":1759:1760  2 */\n      0x02\n        /* \"https://github.com/OpenZeppelin/openzeppelin-contracts/blob/v4.9.6/contracts/security/ReentrancyGuard.sol\":2598:2605  _status */\n      0x01\n        /* \"https://github.com/OpenZeppelin/openzeppelin-contracts/blob/v4.9.6/contracts/security/ReentrancyGuard.sol\":2598:2616  _status = _ENTERED */\n      dup2\n      swap1\n      sstore\n      pop\n        /* \"https://github.com/OpenZeppelin/openzeppelin-contracts/blob/v4.9.6/contracts/security/ReentrancyGuard.sol\":2336:2623  function _nonReentrantBefore() private {... */\n      jump\t// out\n        /* \"https://github.com/OpenZeppelin/openzeppelin-contracts/blob/v4.9.6/contracts/security/Pausable.sol\":1767:1873  function _requireNotPaused() internal view virtual {... */\n    tag_204:\n        /* \"https://github.com/OpenZeppelin/openzeppelin-contracts/blob/v4.9.6/contracts/security/Pausable.sol\":1837:1845  paused() */\n      tag_456\n        /* \"https://github.com/OpenZeppelin/openzeppelin-contracts/blob/v4.9.6/contracts/security/Pausable.sol\":1837:1843  paused */\n      tag_86\n        /* \"https://github.com/OpenZeppelin/openzeppelin-contracts/blob/v4.9.6/contracts/security/Pausable.sol\":1837:1845  paused() */\n      jump\t// in\n    tag_456:\n        /* \"https://github.com/OpenZeppelin/openzeppelin-contracts/blob/v4.9.6/contracts/security/Pausable.sol\":1836:1845  !paused() */\n      iszero\n        /* \"https://github.com/OpenZeppelin/openzeppelin-contracts/blob/v4.9.6/contracts/security/Pausable.sol\":1828:1866  require(!paused(), \"Pausable: paused\") */\n      tag_457\n      jumpi\n      mload(0x40)\n      0x08c379a000000000000000000000000000000000000000000000000000000000\n      dup2\n      mstore\n      0x04\n      add\n      tag_458\n      swap1\n      tag_459\n      jump\t// in\n    tag_458:\n      mload(0x40)\n      dup1\n      swap2\n      sub\n      swap1\n      revert\n    tag_457:\n        /* \"https://github.com/OpenZeppelin/openzeppelin-contracts/blob/v4.9.6/contracts/security/Pausable.sol\":1767:1873  function _requireNotPaused() internal view virtual {... */\n      jump\t// out\n        /* \"https://github.com/OpenZeppelin/openzeppelin-contracts/blob/v4.9.6/contracts/utils/Counters.sol\":827:939  function current(Counter storage counter) internal view returns (uint256) {... */\n    tag_218:\n        /* \"https://github.com/OpenZeppelin/openzeppelin-contracts/blob/v4.9.6/contracts/utils/Counters.sol\":892:899  uint256 */\n      0x00\n        /* \"https://github.com/OpenZeppelin/openzeppelin-contracts/blob/v4.9.6/contracts/utils/Counters.sol\":918:925  counter */\n      dup2\n        /* \"https://github.com/OpenZeppelin/openzeppelin-contracts/blob/v4.9.6/contracts/utils/Counters.sol\":918:932  counter._value */\n      0x00\n      add\n      sload\n        /* \"https://github.com/OpenZeppelin/openzeppelin-contracts/blob/v4.9.6/contracts/utils/Counters.sol\":911:932  return counter._value */\n      swap1\n      pop\n        /* \"https://github.com/OpenZeppelin/openzeppelin-contracts/blob/v4.9.6/contracts/utils/Counters.sol\":827:939  function current(Counter storage counter) internal view returns (uint256) {... */\n      swap2\n      swap1\n      pop\n      jump\t// out\n        /* \"https://github.com/OpenZeppelin/openzeppelin-contracts/blob/v4.9.6/contracts/utils/Counters.sol\":945:1068  function increment(Counter storage counter) internal {... */\n    tag_220:\n        /* \"https://github.com/OpenZeppelin/openzeppelin-contracts/blob/v4.9.6/contracts/utils/Counters.sol\":1050:1051  1 */\n      0x01\n        /* \"https://github.com/OpenZeppelin/openzeppelin-contracts/blob/v4.9.6/contracts/utils/Counters.sol\":1032:1039  counter */\n      dup2\n        /* \"https://github.com/OpenZeppelin/openzeppelin-contracts/blob/v4.9.6/contracts/utils/Counters.sol\":1032:1046  counter._value */\n      0x00\n      add\n      0x00\n        /* \"https://github.com/OpenZeppelin/openzeppelin-contracts/blob/v4.9.6/contracts/utils/Counters.sol\":1032:1051  counter._value += 1 */\n      dup3\n      dup3\n      sload\n      add\n      swap3\n      pop\n      pop\n      dup2\n      swap1\n      sstore\n      pop\n        /* \"https://github.com/OpenZeppelin/openzeppelin-contracts/blob/v4.9.6/contracts/utils/Counters.sol\":945:1068  function increment(Counter storage counter) internal {... */\n      pop\n      jump\t// out\n        /* \"https://github.com/OpenZeppelin/openzeppelin-contracts/blob/v4.9.6/contracts/security/ReentrancyGuard.sol\":2629:2838  function _nonReentrantAfter() private {... */\n    tag_239:\n        /* \"https://github.com/OpenZeppelin/openzeppelin-contracts/blob/v4.9.6/contracts/security/ReentrancyGuard.sol\":1716:1717  1 */\n      0x01\n        /* \"https://github.com/OpenZeppelin/openzeppelin-contracts/blob/v4.9.6/contracts/security/ReentrancyGuard.sol\":2809:2816  _status */\n      dup1\n        /* \"https://github.com/OpenZeppelin/openzeppelin-contracts/blob/v4.9.6/contracts/security/ReentrancyGuard.sol\":2809:2831  _status = _NOT_ENTERED */\n      dup2\n      swap1\n      sstore\n      pop\n        /* \"https://github.com/OpenZeppelin/openzeppelin-contracts/blob/v4.9.6/contracts/security/ReentrancyGuard.sol\":2629:2838  function _nonReentrantAfter() private {... */\n      jump\t// out\n        /* \"https://github.com/OpenZeppelin/openzeppelin-contracts/blob/v4.9.6/contracts/security/Pausable.sol\":2433:2550  function _unpause() internal virtual whenPaused {... */\n    tag_275:\n        /* \"https://github.com/OpenZeppelin/openzeppelin-contracts/blob/v4.9.6/contracts/security/Pausable.sol\":1486:1502  _requirePaused() */\n      tag_464\n        /* \"https://github.com/OpenZeppelin/openzeppelin-contracts/blob/v4.9.6/contracts/security/Pausable.sol\":1486:1500  _requirePaused */\n      tag_465\n        /* \"https://github.com/OpenZeppelin/openzeppelin-contracts/blob/v4.9.6/contracts/security/Pausable.sol\":1486:1502  _requirePaused() */\n      jump\t// in\n    tag_464:\n        /* \"https://github.com/OpenZeppelin/openzeppelin-contracts/blob/v4.9.6/contracts/security/Pausable.sol\":2501:2506  false */\n      0x00\n        /* \"https://github.com/OpenZeppelin/openzeppelin-contracts/blob/v4.9.6/contracts/security/Pausable.sol\":2491:2498  _paused */\n      0x02\n      0x00\n        /* \"https://github.com/OpenZeppelin/openzeppelin-contracts/blob/v4.9.6/contracts/security/Pausable.sol\":2491:2506  _paused = false */\n      0x0100\n      exp\n      dup2\n      sload\n      dup2\n      0xff\n      mul\n      not\n      and\n      swap1\n      dup4\n      iszero\n      iszero\n      mul\n      or\n      swap1\n      sstore\n      pop\n        /* \"https://github.com/OpenZeppelin/openzeppelin-contracts/blob/v4.9.6/contracts/security/Pausable.sol\":2521:2543  Unpaused(_msgSender()) */\n      0x5db9ee0a495bf2e6ff9c91a7834c1ba4fdd244a5e8aa4e537bd38aeae4b073aa\n        /* \"https://github.com/OpenZeppelin/openzeppelin-contracts/blob/v4.9.6/contracts/security/Pausable.sol\":2530:2542  _msgSender() */\n      tag_467\n        /* \"https://github.com/OpenZeppelin/openzeppelin-contracts/blob/v4.9.6/contracts/security/Pausable.sol\":2530:2540  _msgSender */\n      tag_446\n        /* \"https://github.com/OpenZeppelin/openzeppelin-contracts/blob/v4.9.6/contracts/security/Pausable.sol\":2530:2542  _msgSender() */\n      jump\t// in\n    tag_467:\n        /* \"https://github.com/OpenZeppelin/openzeppelin-contracts/blob/v4.9.6/contracts/security/Pausable.sol\":2521:2543  Unpaused(_msgSender()) */\n      mload(0x40)\n      tag_468\n      swap2\n      swap1\n      tag_96\n      jump\t// in\n    tag_468:\n      mload(0x40)\n      dup1\n      swap2\n      sub\n      swap1\n      log1\n        /* \"https://github.com/OpenZeppelin/openzeppelin-contracts/blob/v4.9.6/contracts/security/Pausable.sol\":2433:2550  function _unpause() internal virtual whenPaused {... */\n      jump\t// out\n        /* \"https://github.com/OpenZeppelin/openzeppelin-contracts/blob/v4.9.6/contracts/access/Ownable.sol\":2426:2613  function _transferOwnership(address newOwner) internal virtual {... */\n    tag_362:\n        /* \"https://github.com/OpenZeppelin/openzeppelin-contracts/blob/v4.9.6/contracts/access/Ownable.sol\":2499:2515  address oldOwner */\n      0x00\n        /* \"https://github.com/OpenZeppelin/openzeppelin-contracts/blob/v4.9.6/contracts/access/Ownable.sol\":2518:2524  _owner */\n      dup1\n      0x00\n      swap1\n      sload\n      swap1\n      0x0100\n      exp\n      swap1\n      div\n      0xffffffffffffffffffffffffffffffffffffffff\n      and\n        /* \"https://github.com/OpenZeppelin/openzeppelin-contracts/blob/v4.9.6/contracts/access/Ownable.sol\":2499:2524  address oldOwner = _owner */\n      swap1\n      pop\n        /* \"https://github.com/OpenZeppelin/openzeppelin-contracts/blob/v4.9.6/contracts/access/Ownable.sol\":2543:2551  newOwner */\n      dup2\n        /* \"https://github.com/OpenZeppelin/openzeppelin-contracts/blob/v4.9.6/contracts/access/Ownable.sol\":2534:2540  _owner */\n      0x00\n      dup1\n        /* \"https://github.com/OpenZeppelin/openzeppelin-contracts/blob/v4.9.6/contracts/access/Ownable.sol\":2534:2551  _owner = newOwner */\n      0x0100\n      exp\n      dup2\n      sload\n      dup2\n      0xffffffffffffffffffffffffffffffffffffffff\n      mul\n      not\n      and\n      swap1\n      dup4\n      0xffffffffffffffffffffffffffffffffffffffff\n      and\n      mul\n      or\n      swap1\n      sstore\n      pop\n        /* \"https://github.com/OpenZeppelin/openzeppelin-contracts/blob/v4.9.6/contracts/access/Ownable.sol\":2597:2605  newOwner */\n      dup2\n        /* \"https://github.com/OpenZeppelin/openzeppelin-contracts/blob/v4.9.6/contracts/access/Ownable.sol\":2566:2606  OwnershipTransferred(oldOwner, newOwner) */\n      0xffffffffffffffffffffffffffffffffffffffff\n      and\n        /* \"https://github.com/OpenZeppelin/openzeppelin-contracts/blob/v4.9.6/contracts/access/Ownable.sol\":2587:2595  oldOwner */\n      dup2\n        /* \"https://github.com/OpenZeppelin/openzeppelin-contracts/blob/v4.9.6/contracts/access/Ownable.sol\":2566:2606  OwnershipTransferred(oldOwner, newOwner) */\n      0xffffffffffffffffffffffffffffffffffffffff\n      and\n      0x8be0079c531659141344cd1fd0a4f28419497f9722a3daafe3b4186f6b6457e0\n      mload(0x40)\n      mload(0x40)\n      dup1\n      swap2\n      sub\n      swap1\n      log3\n        /* \"https://github.com/OpenZeppelin/openzeppelin-contracts/blob/v4.9.6/contracts/access/Ownable.sol\":2489:2613  {... */\n      pop\n        /* \"https://github.com/OpenZeppelin/openzeppelin-contracts/blob/v4.9.6/contracts/access/Ownable.sol\":2426:2613  function _transferOwnership(address newOwner) internal virtual {... */\n      pop\n      jump\t// out\n        /* \"https://github.com/OpenZeppelin/openzeppelin-contracts/blob/v4.9.6/contracts/security/Pausable.sol\":2186:2301  function _pause() internal virtual whenNotPaused {... */\n    tag_367:\n        /* \"https://github.com/OpenZeppelin/openzeppelin-contracts/blob/v4.9.6/contracts/security/Pausable.sol\":1239:1258  _requireNotPaused() */\n      tag_471\n        /* \"https://github.com/OpenZeppelin/openzeppelin-contracts/blob/v4.9.6/contracts/security/Pausable.sol\":1239:1256  _requireNotPaused */\n      tag_204\n        /* \"https://github.com/OpenZeppelin/openzeppelin-contracts/blob/v4.9.6/contracts/security/Pausable.sol\":1239:1258  _requireNotPaused() */\n      jump\t// in\n    tag_471:\n        /* \"https://github.com/OpenZeppelin/openzeppelin-contracts/blob/v4.9.6/contracts/security/Pausable.sol\":2255:2259  true */\n      0x01\n        /* \"https://github.com/OpenZeppelin/openzeppelin-contracts/blob/v4.9.6/contracts/security/Pausable.sol\":2245:2252  _paused */\n      0x02\n      0x00\n        /* \"https://github.com/OpenZeppelin/openzeppelin-contracts/blob/v4.9.6/contracts/security/Pausable.sol\":2245:2259  _paused = true */\n      0x0100\n      exp\n      dup2\n      sload\n      dup2\n      0xff\n      mul\n      not\n      and\n      swap1\n      dup4\n      iszero\n      iszero\n      mul\n      or\n      swap1\n      sstore\n      pop\n        /* \"https://github.com/OpenZeppelin/openzeppelin-contracts/blob/v4.9.6/contracts/security/Pausable.sol\":2274:2294  Paused(_msgSender()) */\n      0x62e78cea01bee320cd4e420270b5ea74000d11b0c9f74754ebdbfc544b05a258\n        /* \"https://github.com/OpenZeppelin/openzeppelin-contracts/blob/v4.9.6/contracts/security/Pausable.sol\":2281:2293  _msgSender() */\n      tag_473\n        /* \"https://github.com/OpenZeppelin/openzeppelin-contracts/blob/v4.9.6/contracts/security/Pausable.sol\":2281:2291  _msgSender */\n      tag_446\n        /* \"https://github.com/OpenZeppelin/openzeppelin-contracts/blob/v4.9.6/contracts/security/Pausable.sol\":2281:2293  _msgSender() */\n      jump\t// in\n    tag_473:\n        /* \"https://github.com/OpenZeppelin/openzeppelin-contracts/blob/v4.9.6/contracts/security/Pausable.sol\":2274:2294  Paused(_msgSender()) */\n      mload(0x40)\n      tag_474\n      swap2\n      swap1\n      tag_96\n      jump\t// in\n    tag_474:\n      mload(0x40)\n      dup1\n      swap2\n      sub\n      swap1\n      log1\n        /* \"https://github.com/OpenZeppelin/openzeppelin-contracts/blob/v4.9.6/contracts/security/Pausable.sol\":2186:2301  function _pause() internal virtual whenNotPaused {... */\n      jump\t// out\n        /* \"https://github.com/OpenZeppelin/openzeppelin-contracts/blob/v4.9.6/contracts/utils/Context.sol\":655:751  function _msgSender() internal view virtual returns (address) {... */\n    tag_446:\n        /* \"https://github.com/OpenZeppelin/openzeppelin-contracts/blob/v4.9.6/contracts/utils/Context.sol\":708:715  address */\n      0x00\n        /* \"https://github.com/OpenZeppelin/openzeppelin-contracts/blob/v4.9.6/contracts/utils/Context.sol\":734:744  msg.sender */\n      caller\n        /* \"https://github.com/OpenZeppelin/openzeppelin-contracts/blob/v4.9.6/contracts/utils/Context.sol\":727:744  return msg.sender */\n      swap1\n      pop\n        /* \"https://github.com/OpenZeppelin/openzeppelin-contracts/blob/v4.9.6/contracts/utils/Context.sol\":655:751  function _msgSender() internal view virtual returns (address) {... */\n      swap1\n      jump\t// out\n        /* \"https://github.com/OpenZeppelin/openzeppelin-contracts/blob/v4.9.6/contracts/security/Pausable.sol\":1945:2051  function _requirePaused() internal view virtual {... */\n    tag_465:\n        /* \"https://github.com/OpenZeppelin/openzeppelin-contracts/blob/v4.9.6/contracts/security/Pausable.sol\":2011:2019  paused() */\n      tag_477\n        /* \"https://github.com/OpenZeppelin/openzeppelin-contracts/blob/v4.9.6/contracts/security/Pausable.sol\":2011:2017  paused */\n      tag_86\n        /* \"https://github.com/OpenZeppelin/openzeppelin-contracts/blob/v4.9.6/contracts/security/Pausable.sol\":2011:2019  paused() */\n      jump\t// in\n    tag_477:\n        /* \"https://github.com/OpenZeppelin/openzeppelin-contracts/blob/v4.9.6/contracts/security/Pausable.sol\":2003:2044  require(paused(), \"Pausable: not paused\") */\n      tag_478\n      jumpi\n      mload(0x40)\n      0x08c379a000000000000000000000000000000000000000000000000000000000\n      dup2\n      mstore\n      0x04\n      add\n      tag_479\n      swap1\n      tag_480\n      jump\t// in\n    tag_479:\n      mload(0x40)\n      dup1\n      swap2\n      sub\n      swap1\n      revert\n    tag_478:\n        /* \"https://github.com/OpenZeppelin/openzeppelin-contracts/blob/v4.9.6/contracts/security/Pausable.sol\":1945:2051  function _requirePaused() internal view virtual {... */\n      jump\t// out\n    tag_241:\n      mload(0x40)\n      dup1\n      0x0100\n      add\n      0x40\n      mstore\n      dup1\n      0x00\n      dup2\n      mstore\n      0x20\n      add\n      0x00\n      dup2\n      mstore\n      0x20\n      add\n      0x00\n      dup2\n      mstore\n      0x20\n      add\n      0x00\n      dup2\n      mstore\n      0x20\n      add\n      0x00\n      0x03\n      dup2\n      gt\n      iszero\n      tag_481\n      jumpi\n      tag_482\n      tag_223\n      jump\t// in\n    tag_482:\n    tag_481:\n      dup2\n      mstore\n      0x20\n      add\n      iszero(iszero(0x00))\n      dup2\n      mstore\n      0x20\n      add\n      0x00\n      dup2\n      mstore\n      0x20\n      add\n      0x00\n      dup2\n      mstore\n      pop\n      swap1\n      jump\t// out\n    tag_250:\n      mload(0x40)\n      dup1\n      0x0160\n      add\n      0x40\n      mstore\n      dup1\n      0x00\n      dup2\n      mstore\n      0x20\n      add\n      and(0xffffffffffffffffffffffffffffffffffffffff, 0x00)\n      dup2\n      mstore\n      0x20\n      add\n      0x00\n      dup2\n      mstore\n      0x20\n      add\n      0x60\n      dup2\n      mstore\n      0x20\n      add\n      0x60\n      dup2\n      mstore\n      0x20\n      add\n      0x00\n      0x03\n      dup2\n      gt\n      iszero\n      tag_483\n      jumpi\n      tag_484\n      tag_223\n      jump\t// in\n    tag_484:\n    tag_483:\n      dup2\n      mstore\n      0x20\n      add\n      0x00\n      dup2\n      mstore\n      0x20\n      add\n      0x00\n      dup2\n      mstore\n      0x20\n      add\n      iszero(iszero(0x00))\n      dup2\n      mstore\n      0x20\n      add\n      0x00\n      dup2\n      mstore\n      0x20\n      add\n      0x00\n      0x03\n      dup2\n      gt\n      iszero\n      tag_485\n      jumpi\n      tag_486\n      tag_223\n      jump\t// in\n    tag_486:\n    tag_485:\n      dup2\n      mstore\n      pop\n      swap1\n      jump\t// out\n        /* \"#utility.yul\":7:82   */\n    tag_487:\n        /* \"#utility.yul\":40:46   */\n      0x00\n        /* \"#utility.yul\":73:75   */\n      0x40\n        /* \"#utility.yul\":67:76   */\n      mload\n        /* \"#utility.yul\":57:76   */\n      swap1\n      pop\n        /* \"#utility.yul\":7:82   */\n      swap1\n      jump\t// out\n        /* \"#utility.yul\":88:205   */\n    tag_488:\n        /* \"#utility.yul\":197:198   */\n      0x00\n        /* \"#utility.yul\":194:195   */\n      dup1\n        /* \"#utility.yul\":187:199   */\n      revert\n        /* \"#utility.yul\":211:328   */\n    tag_489:\n        /* \"#utility.yul\":320:321   */\n      0x00\n        /* \"#utility.yul\":317:318   */\n      dup1\n        /* \"#utility.yul\":310:322   */\n      revert\n        /* \"#utility.yul\":334:411   */\n    tag_490:\n        /* \"#utility.yul\":371:378   */\n      0x00\n        /* \"#utility.yul\":400:405   */\n      dup2\n        /* \"#utility.yul\":389:405   */\n      swap1\n      pop\n        /* \"#utility.yul\":334:411   */\n      swap2\n      swap1\n      pop\n      jump\t// out\n        /* \"#utility.yul\":417:539   */\n    tag_491:\n        /* \"#utility.yul\":490:514   */\n      tag_601\n        /* \"#utility.yul\":508:513   */\n      dup2\n        /* \"#utility.yul\":490:514   */\n      tag_490\n      jump\t// in\n    tag_601:\n        /* \"#utility.yul\":483:488   */\n      dup2\n        /* \"#utility.yul\":480:515   */\n      eq\n        /* \"#utility.yul\":470:533   */\n      tag_602\n      jumpi\n        /* \"#utility.yul\":529:530   */\n      0x00\n        /* \"#utility.yul\":526:527   */\n      dup1\n        /* \"#utility.yul\":519:531   */\n      revert\n        /* \"#utility.yul\":470:533   */\n    tag_602:\n        /* \"#utility.yul\":417:539   */\n      pop\n      jump\t// out\n        /* \"#utility.yul\":545:684   */\n    tag_492:\n        /* \"#utility.yul\":591:596   */\n      0x00\n        /* \"#utility.yul\":629:635   */\n      dup2\n        /* \"#utility.yul\":616:636   */\n      calldataload\n        /* \"#utility.yul\":607:636   */\n      swap1\n      pop\n        /* \"#utility.yul\":645:678   */\n      tag_604\n        /* \"#utility.yul\":672:677   */\n      dup2\n        /* \"#utility.yul\":645:678   */\n      tag_491\n      jump\t// in\n    tag_604:\n        /* \"#utility.yul\":545:684   */\n      swap3\n      swap2\n      pop\n      pop\n      jump\t// out\n        /* \"#utility.yul\":690:780   */\n    tag_493:\n        /* \"#utility.yul\":724:731   */\n      0x00\n        /* \"#utility.yul\":767:772   */\n      dup2\n        /* \"#utility.yul\":760:773   */\n      iszero\n        /* \"#utility.yul\":753:774   */\n      iszero\n        /* \"#utility.yul\":742:774   */\n      swap1\n      pop\n        /* \"#utility.yul\":690:780   */\n      swap2\n      swap1\n      pop\n      jump\t// out\n        /* \"#utility.yul\":786:902   */\n    tag_494:\n        /* \"#utility.yul\":856:877   */\n      tag_607\n        /* \"#utility.yul\":871:876   */\n      dup2\n        /* \"#utility.yul\":856:877   */\n      tag_493\n      jump\t// in\n    tag_607:\n        /* \"#utility.yul\":849:854   */\n      dup2\n        /* \"#utility.yul\":846:878   */\n      eq\n        /* \"#utility.yul\":836:896   */\n      tag_608\n      jumpi\n        /* \"#utility.yul\":892:893   */\n      0x00\n        /* \"#utility.yul\":889:890   */\n      dup1\n        /* \"#utility.yul\":882:894   */\n      revert\n        /* \"#utility.yul\":836:896   */\n    tag_608:\n        /* \"#utility.yul\":786:902   */\n      pop\n      jump\t// out\n        /* \"#utility.yul\":908:1041   */\n    tag_495:\n        /* \"#utility.yul\":951:956   */\n      0x00\n        /* \"#utility.yul\":989:995   */\n      dup2\n        /* \"#utility.yul\":976:996   */\n      calldataload\n        /* \"#utility.yul\":967:996   */\n      swap1\n      pop\n        /* \"#utility.yul\":1005:1035   */\n      tag_610\n        /* \"#utility.yul\":1029:1034   */\n      dup2\n        /* \"#utility.yul\":1005:1035   */\n      tag_494\n      jump\t// in\n    tag_610:\n        /* \"#utility.yul\":908:1041   */\n      swap3\n      swap2\n      pop\n      pop\n      jump\t// out\n        /* \"#utility.yul\":1047:1515   */\n    tag_46:\n        /* \"#utility.yul\":1112:1118   */\n      0x00\n        /* \"#utility.yul\":1120:1126   */\n      dup1\n        /* \"#utility.yul\":1169:1171   */\n      0x40\n        /* \"#utility.yul\":1157:1166   */\n      dup4\n        /* \"#utility.yul\":1148:1155   */\n      dup6\n        /* \"#utility.yul\":1144:1167   */\n      sub\n        /* \"#utility.yul\":1140:1172   */\n      slt\n        /* \"#utility.yul\":1137:1256   */\n      iszero\n      tag_612\n      jumpi\n        /* \"#utility.yul\":1175:1254   */\n      tag_613\n      tag_488\n      jump\t// in\n    tag_613:\n        /* \"#utility.yul\":1137:1256   */\n    tag_612:\n        /* \"#utility.yul\":1295:1296   */\n      0x00\n        /* \"#utility.yul\":1320:1373   */\n      tag_614\n        /* \"#utility.yul\":1365:1372   */\n      dup6\n        /* \"#utility.yul\":1356:1362   */\n      dup3\n        /* \"#utility.yul\":1345:1354   */\n      dup7\n        /* \"#utility.yul\":1341:1363   */\n      add\n        /* \"#utility.yul\":1320:1373   */\n      tag_492\n      jump\t// in\n    tag_614:\n        /* \"#utility.yul\":1310:1373   */\n      swap3\n      pop\n        /* \"#utility.yul\":1266:1383   */\n      pop\n        /* \"#utility.yul\":1422:1424   */\n      0x20\n        /* \"#utility.yul\":1448:1498   */\n      tag_615\n        /* \"#utility.yul\":1490:1497   */\n      dup6\n        /* \"#utility.yul\":1481:1487   */\n      dup3\n        /* \"#utility.yul\":1470:1479   */\n      dup7\n        /* \"#utility.yul\":1466:1488   */\n      add\n        /* \"#utility.yul\":1448:1498   */\n      tag_495\n      jump\t// in\n    tag_615:\n        /* \"#utility.yul\":1438:1498   */\n      swap2\n      pop\n        /* \"#utility.yul\":1393:1508   */\n      pop\n        /* \"#utility.yul\":1047:1515   */\n      swap3\n      pop\n      swap3\n      swap1\n      pop\n      jump\t// out\n        /* \"#utility.yul\":1521:1850   */\n    tag_50:\n        /* \"#utility.yul\":1580:1586   */\n      0x00\n        /* \"#utility.yul\":1629:1631   */\n      0x20\n        /* \"#utility.yul\":1617:1626   */\n      dup3\n        /* \"#utility.yul\":1608:1615   */\n      dup5\n        /* \"#utility.yul\":1604:1627   */\n      sub\n        /* \"#utility.yul\":1600:1632   */\n      slt\n        /* \"#utility.yul\":1597:1716   */\n      iszero\n      tag_617\n      jumpi\n        /* \"#utility.yul\":1635:1714   */\n      tag_618\n      tag_488\n      jump\t// in\n    tag_618:\n        /* \"#utility.yul\":1597:1716   */\n    tag_617:\n        /* \"#utility.yul\":1755:1756   */\n      0x00\n        /* \"#utility.yul\":1780:1833   */\n      tag_619\n        /* \"#utility.yul\":1825:1832   */\n      dup5\n        /* \"#utility.yul\":1816:1822   */\n      dup3\n        /* \"#utility.yul\":1805:1814   */\n      dup6\n        /* \"#utility.yul\":1801:1823   */\n      add\n        /* \"#utility.yul\":1780:1833   */\n      tag_492\n      jump\t// in\n    tag_619:\n        /* \"#utility.yul\":1770:1833   */\n      swap2\n      pop\n        /* \"#utility.yul\":1726:1843   */\n      pop\n        /* \"#utility.yul\":1521:1850   */\n      swap3\n      swap2\n      pop\n      pop\n      jump\t// out\n        /* \"#utility.yul\":1856:1964   */\n    tag_496:\n        /* \"#utility.yul\":1933:1957   */\n      tag_621\n        /* \"#utility.yul\":1951:1956   */\n      dup2\n        /* \"#utility.yul\":1933:1957   */\n      tag_490\n      jump\t// in\n    tag_621:\n        /* \"#utility.yul\":1928:1931   */\n      dup3\n        /* \"#utility.yul\":1921:1958   */\n      mstore\n        /* \"#utility.yul\":1856:1964   */\n      pop\n      pop\n      jump\t// out\n        /* \"#utility.yul\":1970:2046   */\n    tag_497:\n        /* \"#utility.yul\":2006:2013   */\n      0x00\n        /* \"#utility.yul\":2035:2040   */\n      dup2\n        /* \"#utility.yul\":2024:2040   */\n      swap1\n      pop\n        /* \"#utility.yul\":1970:2046   */\n      swap2\n      swap1\n      pop\n      jump\t// out\n        /* \"#utility.yul\":2052:2157   */\n    tag_498:\n        /* \"#utility.yul\":2127:2150   */\n      tag_624\n        /* \"#utility.yul\":2144:2149   */\n      dup2\n        /* \"#utility.yul\":2127:2150   */\n      tag_497\n      jump\t// in\n    tag_624:\n        /* \"#utility.yul\":2122:2125   */\n      dup3\n        /* \"#utility.yul\":2115:2151   */\n      mstore\n        /* \"#utility.yul\":2052:2157   */\n      pop\n      pop\n      jump\t// out\n        /* \"#utility.yul\":2163:2343   */\n    tag_223:\n        /* \"#utility.yul\":2211:2288   */\n      0x4e487b7100000000000000000000000000000000000000000000000000000000\n        /* \"#utility.yul\":2208:2209   */\n      0x00\n        /* \"#utility.yul\":2201:2289   */\n      mstore\n        /* \"#utility.yul\":2308:2312   */\n      0x21\n        /* \"#utility.yul\":2305:2306   */\n      0x04\n        /* \"#utility.yul\":2298:2313   */\n      mstore\n        /* \"#utility.yul\":2332:2336   */\n      0x24\n        /* \"#utility.yul\":2329:2330   */\n      0x00\n        /* \"#utility.yul\":2322:2337   */\n      revert\n        /* \"#utility.yul\":2349:2465   */\n    tag_499:\n        /* \"#utility.yul\":2433:2434   */\n      0x04\n        /* \"#utility.yul\":2426:2431   */\n      dup2\n        /* \"#utility.yul\":2423:2435   */\n      lt\n        /* \"#utility.yul\":2413:2459   */\n      tag_627\n      jumpi\n        /* \"#utility.yul\":2439:2457   */\n      tag_628\n      tag_223\n      jump\t// in\n    tag_628:\n        /* \"#utility.yul\":2413:2459   */\n    tag_627:\n        /* \"#utility.yul\":2349:2465   */\n      pop\n      jump\t// out\n        /* \"#utility.yul\":2471:2604   */\n    tag_500:\n        /* \"#utility.yul\":2519:2526   */\n      0x00\n        /* \"#utility.yul\":2548:2553   */\n      dup2\n        /* \"#utility.yul\":2537:2553   */\n      swap1\n      pop\n        /* \"#utility.yul\":2554:2598   */\n      tag_630\n        /* \"#utility.yul\":2592:2597   */\n      dup3\n        /* \"#utility.yul\":2554:2598   */\n      tag_499\n      jump\t// in\n    tag_630:\n        /* \"#utility.yul\":2471:2604   */\n      swap2\n      swap1\n      pop\n      jump\t// out\n        /* \"#utility.yul\":2610:2743   */\n    tag_501:\n        /* \"#utility.yul\":2669:2678   */\n      0x00\n        /* \"#utility.yul\":2702:2737   */\n      tag_632\n        /* \"#utility.yul\":2731:2736   */\n      dup3\n        /* \"#utility.yul\":2702:2737   */\n      tag_500\n      jump\t// in\n    tag_632:\n        /* \"#utility.yul\":2689:2737   */\n      swap1\n      pop\n        /* \"#utility.yul\":2610:2743   */\n      swap2\n      swap1\n      pop\n      jump\t// out\n        /* \"#utility.yul\":2749:2888   */\n    tag_502:\n        /* \"#utility.yul\":2835:2881   */\n      tag_634\n        /* \"#utility.yul\":2875:2880   */\n      dup2\n        /* \"#utility.yul\":2835:2881   */\n      tag_501\n      jump\t// in\n    tag_634:\n        /* \"#utility.yul\":2830:2833   */\n      dup3\n        /* \"#utility.yul\":2823:2882   */\n      mstore\n        /* \"#utility.yul\":2749:2888   */\n      pop\n      pop\n      jump\t// out\n        /* \"#utility.yul\":2894:2993   */\n    tag_503:\n        /* \"#utility.yul\":2965:2986   */\n      tag_636\n        /* \"#utility.yul\":2980:2985   */\n      dup2\n        /* \"#utility.yul\":2965:2986   */\n      tag_493\n      jump\t// in\n    tag_636:\n        /* \"#utility.yul\":2960:2963   */\n      dup3\n        /* \"#utility.yul\":2953:2987   */\n      mstore\n        /* \"#utility.yul\":2894:2993   */\n      pop\n      pop\n      jump\t// out\n        /* \"#utility.yul\":3053:4634   */\n    tag_504:\n        /* \"#utility.yul\":3192:3198   */\n      0x0100\n        /* \"#utility.yul\":3187:3190   */\n      dup3\n        /* \"#utility.yul\":3183:3199   */\n      add\n        /* \"#utility.yul\":3279:3283   */\n      0x00\n        /* \"#utility.yul\":3272:3277   */\n      dup3\n        /* \"#utility.yul\":3268:3284   */\n      add\n        /* \"#utility.yul\":3262:3285   */\n      mload\n        /* \"#utility.yul\":3298:3361   */\n      tag_638\n        /* \"#utility.yul\":3355:3359   */\n      0x00\n        /* \"#utility.yul\":3350:3353   */\n      dup6\n        /* \"#utility.yul\":3346:3360   */\n      add\n        /* \"#utility.yul\":3332:3344   */\n      dup3\n        /* \"#utility.yul\":3298:3361   */\n      tag_496\n      jump\t// in\n    tag_638:\n        /* \"#utility.yul\":3209:3371   */\n      pop\n        /* \"#utility.yul\":3457:3461   */\n      0x20\n        /* \"#utility.yul\":3450:3455   */\n      dup3\n        /* \"#utility.yul\":3446:3462   */\n      add\n        /* \"#utility.yul\":3440:3463   */\n      mload\n        /* \"#utility.yul\":3476:3537   */\n      tag_639\n        /* \"#utility.yul\":3531:3535   */\n      0x20\n        /* \"#utility.yul\":3526:3529   */\n      dup6\n        /* \"#utility.yul\":3522:3536   */\n      add\n        /* \"#utility.yul\":3508:3520   */\n      dup3\n        /* \"#utility.yul\":3476:3537   */\n      tag_498\n      jump\t// in\n    tag_639:\n        /* \"#utility.yul\":3381:3547   */\n      pop\n        /* \"#utility.yul\":3634:3638   */\n      0x40\n        /* \"#utility.yul\":3627:3632   */\n      dup3\n        /* \"#utility.yul\":3623:3639   */\n      add\n        /* \"#utility.yul\":3617:3640   */\n      mload\n        /* \"#utility.yul\":3653:3714   */\n      tag_640\n        /* \"#utility.yul\":3708:3712   */\n      0x40\n        /* \"#utility.yul\":3703:3706   */\n      dup6\n        /* \"#utility.yul\":3699:3713   */\n      add\n        /* \"#utility.yul\":3685:3697   */\n      dup3\n        /* \"#utility.yul\":3653:3714   */\n      tag_498\n      jump\t// in\n    tag_640:\n        /* \"#utility.yul\":3557:3724   */\n      pop\n        /* \"#utility.yul\":3808:3812   */\n      0x60\n        /* \"#utility.yul\":3801:3806   */\n      dup3\n        /* \"#utility.yul\":3797:3813   */\n      add\n        /* \"#utility.yul\":3791:3814   */\n      mload\n        /* \"#utility.yul\":3827:3890   */\n      tag_641\n        /* \"#utility.yul\":3884:3888   */\n      0x60\n        /* \"#utility.yul\":3879:3882   */\n      dup6\n        /* \"#utility.yul\":3875:3889   */\n      add\n        /* \"#utility.yul\":3861:3873   */\n      dup3\n        /* \"#utility.yul\":3827:3890   */\n      tag_496\n      jump\t// in\n    tag_641:\n        /* \"#utility.yul\":3734:3900   */\n      pop\n        /* \"#utility.yul\":3986:3990   */\n      0x80\n        /* \"#utility.yul\":3979:3984   */\n      dup3\n        /* \"#utility.yul\":3975:3991   */\n      add\n        /* \"#utility.yul\":3969:3992   */\n      mload\n        /* \"#utility.yul\":4005:4077   */\n      tag_642\n        /* \"#utility.yul\":4071:4075   */\n      0x80\n        /* \"#utility.yul\":4066:4069   */\n      dup6\n        /* \"#utility.yul\":4062:4076   */\n      add\n        /* \"#utility.yul\":4048:4060   */\n      dup3\n        /* \"#utility.yul\":4005:4077   */\n      tag_502\n      jump\t// in\n    tag_642:\n        /* \"#utility.yul\":3910:4087   */\n      pop\n        /* \"#utility.yul\":4171:4175   */\n      0xa0\n        /* \"#utility.yul\":4164:4169   */\n      dup3\n        /* \"#utility.yul\":4160:4176   */\n      add\n        /* \"#utility.yul\":4154:4177   */\n      mload\n        /* \"#utility.yul\":4190:4247   */\n      tag_643\n        /* \"#utility.yul\":4241:4245   */\n      0xa0\n        /* \"#utility.yul\":4236:4239   */\n      dup6\n        /* \"#utility.yul\":4232:4246   */\n      add\n        /* \"#utility.yul\":4218:4230   */\n      dup3\n        /* \"#utility.yul\":4190:4247   */\n      tag_503\n      jump\t// in\n    tag_643:\n        /* \"#utility.yul\":4097:4257   */\n      pop\n        /* \"#utility.yul\":4354:4358   */\n      0xc0\n        /* \"#utility.yul\":4347:4352   */\n      dup3\n        /* \"#utility.yul\":4343:4359   */\n      add\n        /* \"#utility.yul\":4337:4360   */\n      mload\n        /* \"#utility.yul\":4373:4436   */\n      tag_644\n        /* \"#utility.yul\":4430:4434   */\n      0xc0\n        /* \"#utility.yul\":4425:4428   */\n      dup6\n        /* \"#utility.yul\":4421:4435   */\n      add\n        /* \"#utility.yul\":4407:4419   */\n      dup3\n        /* \"#utility.yul\":4373:4436   */\n      tag_496\n      jump\t// in\n    tag_644:\n        /* \"#utility.yul\":4267:4446   */\n      pop\n        /* \"#utility.yul\":4535:4539   */\n      0xe0\n        /* \"#utility.yul\":4528:4533   */\n      dup3\n        /* \"#utility.yul\":4524:4540   */\n      add\n        /* \"#utility.yul\":4518:4541   */\n      mload\n        /* \"#utility.yul\":4554:4617   */\n      tag_645\n        /* \"#utility.yul\":4611:4615   */\n      0xe0\n        /* \"#utility.yul\":4606:4609   */\n      dup6\n        /* \"#utility.yul\":4602:4616   */\n      add\n        /* \"#utility.yul\":4588:4600   */\n      dup3\n        /* \"#utility.yul\":4554:4617   */\n      tag_496\n      jump\t// in\n    tag_645:\n        /* \"#utility.yul\":4456:4627   */\n      pop\n        /* \"#utility.yul\":3161:4634   */\n      pop\n        /* \"#utility.yul\":3053:4634   */\n      pop\n      pop\n      jump\t// out\n        /* \"#utility.yul\":4640:4947   */\n    tag_57:\n        /* \"#utility.yul\":4775:4779   */\n      0x00\n        /* \"#utility.yul\":4813:4816   */\n      0x0100\n        /* \"#utility.yul\":4802:4811   */\n      dup3\n        /* \"#utility.yul\":4798:4817   */\n      add\n        /* \"#utility.yul\":4790:4817   */\n      swap1\n      pop\n        /* \"#utility.yul\":4827:4940   */\n      tag_647\n        /* \"#utility.yul\":4937:4938   */\n      0x00\n        /* \"#utility.yul\":4926:4935   */\n      dup4\n        /* \"#utility.yul\":4922:4939   */\n      add\n        /* \"#utility.yul\":4913:4919   */\n      dup5\n        /* \"#utility.yul\":4827:4940   */\n      tag_504\n      jump\t// in\n    tag_647:\n        /* \"#utility.yul\":4640:4947   */\n      swap3\n      swap2\n      pop\n      pop\n      jump\t// out\n        /* \"#utility.yul\":4953:5079   */\n    tag_505:\n        /* \"#utility.yul\":4990:4997   */\n      0x00\n        /* \"#utility.yul\":5030:5072   */\n      0xffffffffffffffffffffffffffffffffffffffff\n        /* \"#utility.yul\":5023:5028   */\n      dup3\n        /* \"#utility.yul\":5019:5073   */\n      and\n        /* \"#utility.yul\":5008:5073   */\n      swap1\n      pop\n        /* \"#utility.yul\":4953:5079   */\n      swap2\n      swap1\n      pop\n      jump\t// out\n        /* \"#utility.yul\":5085:5181   */\n    tag_506:\n        /* \"#utility.yul\":5122:5129   */\n      0x00\n        /* \"#utility.yul\":5151:5175   */\n      tag_650\n        /* \"#utility.yul\":5169:5174   */\n      dup3\n        /* \"#utility.yul\":5151:5175   */\n      tag_505\n      jump\t// in\n    tag_650:\n        /* \"#utility.yul\":5140:5175   */\n      swap1\n      pop\n        /* \"#utility.yul\":5085:5181   */\n      swap2\n      swap1\n      pop\n      jump\t// out\n        /* \"#utility.yul\":5187:5309   */\n    tag_507:\n        /* \"#utility.yul\":5260:5284   */\n      tag_652\n        /* \"#utility.yul\":5278:5283   */\n      dup2\n        /* \"#utility.yul\":5260:5284   */\n      tag_506\n      jump\t// in\n    tag_652:\n        /* \"#utility.yul\":5253:5258   */\n      dup2\n        /* \"#utility.yul\":5250:5285   */\n      eq\n        /* \"#utility.yul\":5240:5303   */\n      tag_653\n      jumpi\n        /* \"#utility.yul\":5299:5300   */\n      0x00\n        /* \"#utility.yul\":5296:5297   */\n      dup1\n        /* \"#utility.yul\":5289:5301   */\n      revert\n        /* \"#utility.yul\":5240:5303   */\n    tag_653:\n        /* \"#utility.yul\":5187:5309   */\n      pop\n      jump\t// out\n        /* \"#utility.yul\":5315:5454   */\n    tag_508:\n        /* \"#utility.yul\":5361:5366   */\n      0x00\n        /* \"#utility.yul\":5399:5405   */\n      dup2\n        /* \"#utility.yul\":5386:5406   */\n      calldataload\n        /* \"#utility.yul\":5377:5406   */\n      swap1\n      pop\n        /* \"#utility.yul\":5415:5448   */\n      tag_655\n        /* \"#utility.yul\":5442:5447   */\n      dup2\n        /* \"#utility.yul\":5415:5448   */\n      tag_507\n      jump\t// in\n    tag_655:\n        /* \"#utility.yul\":5315:5454   */\n      swap3\n      swap2\n      pop\n      pop\n      jump\t// out\n        /* \"#utility.yul\":5460:5934   */\n    tag_61:\n        /* \"#utility.yul\":5528:5534   */\n      0x00\n        /* \"#utility.yul\":5536:5542   */\n      dup1\n        /* \"#utility.yul\":5585:5587   */\n      0x40\n        /* \"#utility.yul\":5573:5582   */\n      dup4\n        /* \"#utility.yul\":5564:5571   */\n      dup6\n        /* \"#utility.yul\":5560:5583   */\n      sub\n        /* \"#utility.yul\":5556:5588   */\n      slt\n        /* \"#utility.yul\":5553:5672   */\n      iszero\n      tag_657\n      jumpi\n        /* \"#utility.yul\":5591:5670   */\n      tag_658\n      tag_488\n      jump\t// in\n    tag_658:\n        /* \"#utility.yul\":5553:5672   */\n    tag_657:\n        /* \"#utility.yul\":5711:5712   */\n      0x00\n        /* \"#utility.yul\":5736:5789   */\n      tag_659\n        /* \"#utility.yul\":5781:5788   */\n      dup6\n        /* \"#utility.yul\":5772:5778   */\n      dup3\n        /* \"#utility.yul\":5761:5770   */\n      dup7\n        /* \"#utility.yul\":5757:5779   */\n      add\n        /* \"#utility.yul\":5736:5789   */\n      tag_508\n      jump\t// in\n    tag_659:\n        /* \"#utility.yul\":5726:5789   */\n      swap3\n      pop\n        /* \"#utility.yul\":5682:5799   */\n      pop\n        /* \"#utility.yul\":5838:5840   */\n      0x20\n        /* \"#utility.yul\":5864:5917   */\n      tag_660\n        /* \"#utility.yul\":5909:5916   */\n      dup6\n        /* \"#utility.yul\":5900:5906   */\n      dup3\n        /* \"#utility.yul\":5889:5898   */\n      dup7\n        /* \"#utility.yul\":5885:5907   */\n      add\n        /* \"#utility.yul\":5864:5917   */\n      tag_492\n      jump\t// in\n    tag_660:\n        /* \"#utility.yul\":5854:5917   */\n      swap2\n      pop\n        /* \"#utility.yul\":5809:5927   */\n      pop\n        /* \"#utility.yul\":5460:5934   */\n      swap3\n      pop\n      swap3\n      swap1\n      pop\n      jump\t// out\n        /* \"#utility.yul\":5940:6058   */\n    tag_509:\n        /* \"#utility.yul\":6027:6051   */\n      tag_662\n        /* \"#utility.yul\":6045:6050   */\n      dup2\n        /* \"#utility.yul\":6027:6051   */\n      tag_490\n      jump\t// in\n    tag_662:\n        /* \"#utility.yul\":6022:6025   */\n      dup3\n        /* \"#utility.yul\":6015:6052   */\n      mstore\n        /* \"#utility.yul\":5940:6058   */\n      pop\n      pop\n      jump\t// out\n        /* \"#utility.yul\":6064:6286   */\n    tag_64:\n        /* \"#utility.yul\":6157:6161   */\n      0x00\n        /* \"#utility.yul\":6195:6197   */\n      0x20\n        /* \"#utility.yul\":6184:6193   */\n      dup3\n        /* \"#utility.yul\":6180:6198   */\n      add\n        /* \"#utility.yul\":6172:6198   */\n      swap1\n      pop\n        /* \"#utility.yul\":6208:6279   */\n      tag_664\n        /* \"#utility.yul\":6276:6277   */\n      0x00\n        /* \"#utility.yul\":6265:6274   */\n      dup4\n        /* \"#utility.yul\":6261:6278   */\n      add\n        /* \"#utility.yul\":6252:6258   */\n      dup5\n        /* \"#utility.yul\":6208:6279   */\n      tag_509\n      jump\t// in\n    tag_664:\n        /* \"#utility.yul\":6064:6286   */\n      swap3\n      swap2\n      pop\n      pop\n      jump\t// out\n        /* \"#utility.yul\":6292:6400   */\n    tag_510:\n        /* \"#utility.yul\":6369:6393   */\n      tag_666\n        /* \"#utility.yul\":6387:6392   */\n      dup2\n        /* \"#utility.yul\":6369:6393   */\n      tag_506\n      jump\t// in\n    tag_666:\n        /* \"#utility.yul\":6364:6367   */\n      dup3\n        /* \"#utility.yul\":6357:6394   */\n      mstore\n        /* \"#utility.yul\":6292:6400   */\n      pop\n      pop\n      jump\t// out\n        /* \"#utility.yul\":6406:6505   */\n    tag_511:\n        /* \"#utility.yul\":6458:6464   */\n      0x00\n        /* \"#utility.yul\":6492:6497   */\n      dup2\n        /* \"#utility.yul\":6486:6498   */\n      mload\n        /* \"#utility.yul\":6476:6498   */\n      swap1\n      pop\n        /* \"#utility.yul\":6406:6505   */\n      swap2\n      swap1\n      pop\n      jump\t// out\n        /* \"#utility.yul\":6511:6670   */\n    tag_512:\n        /* \"#utility.yul\":6585:6596   */\n      0x00\n        /* \"#utility.yul\":6619:6625   */\n      dup3\n        /* \"#utility.yul\":6614:6617   */\n      dup3\n        /* \"#utility.yul\":6607:6626   */\n      mstore\n        /* \"#utility.yul\":6659:6663   */\n      0x20\n        /* \"#utility.yul\":6654:6657   */\n      dup3\n        /* \"#utility.yul\":6650:6664   */\n      add\n        /* \"#utility.yul\":6635:6664   */\n      swap1\n      pop\n        /* \"#utility.yul\":6511:6670   */\n      swap3\n      swap2\n      pop\n      pop\n      jump\t// out\n        /* \"#utility.yul\":6676:6922   */\n    tag_513:\n        /* \"#utility.yul\":6757:6758   */\n      0x00\n        /* \"#utility.yul\":6767:6880   */\n    tag_670:\n        /* \"#utility.yul\":6781:6787   */\n      dup4\n        /* \"#utility.yul\":6778:6779   */\n      dup2\n        /* \"#utility.yul\":6775:6788   */\n      lt\n        /* \"#utility.yul\":6767:6880   */\n      iszero\n      tag_672\n      jumpi\n        /* \"#utility.yul\":6866:6867   */\n      dup1\n        /* \"#utility.yul\":6861:6864   */\n      dup3\n        /* \"#utility.yul\":6857:6868   */\n      add\n        /* \"#utility.yul\":6851:6869   */\n      mload\n        /* \"#utility.yul\":6847:6848   */\n      dup2\n        /* \"#utility.yul\":6842:6845   */\n      dup5\n        /* \"#utility.yul\":6838:6849   */\n      add\n        /* \"#utility.yul\":6831:6870   */\n      mstore\n        /* \"#utility.yul\":6803:6805   */\n      0x20\n        /* \"#utility.yul\":6800:6801   */\n      dup2\n        /* \"#utility.yul\":6796:6806   */\n      add\n        /* \"#utility.yul\":6791:6806   */\n      swap1\n      pop\n        /* \"#utility.yul\":6767:6880   */\n      jump(tag_670)\n    tag_672:\n        /* \"#utility.yul\":6914:6915   */\n      0x00\n        /* \"#utility.yul\":6905:6911   */\n      dup5\n        /* \"#utility.yul\":6900:6903   */\n      dup5\n        /* \"#utility.yul\":6896:6912   */\n      add\n        /* \"#utility.yul\":6889:6916   */\n      mstore\n        /* \"#utility.yul\":6738:6922   */\n      pop\n        /* \"#utility.yul\":6676:6922   */\n      pop\n      pop\n      pop\n      jump\t// out\n        /* \"#utility.yul\":6928:7030   */\n    tag_514:\n        /* \"#utility.yul\":6969:6975   */\n      0x00\n        /* \"#utility.yul\":7020:7022   */\n      0x1f\n        /* \"#utility.yul\":7016:7023   */\n      not\n        /* \"#utility.yul\":7011:7013   */\n      0x1f\n        /* \"#utility.yul\":7004:7009   */\n      dup4\n        /* \"#utility.yul\":7000:7014   */\n      add\n        /* \"#utility.yul\":6996:7024   */\n      and\n        /* \"#utility.yul\":6986:7024   */\n      swap1\n      pop\n        /* \"#utility.yul\":6928:7030   */\n      swap2\n      swap1\n      pop\n      jump\t// out\n        /* \"#utility.yul\":7036:7393   */\n    tag_515:\n        /* \"#utility.yul\":7114:7117   */\n      0x00\n        /* \"#utility.yul\":7142:7181   */\n      tag_675\n        /* \"#utility.yul\":7175:7180   */\n      dup3\n        /* \"#utility.yul\":7142:7181   */\n      tag_511\n      jump\t// in\n    tag_675:\n        /* \"#utility.yul\":7197:7258   */\n      tag_676\n        /* \"#utility.yul\":7251:7257   */\n      dup2\n        /* \"#utility.yul\":7246:7249   */\n      dup6\n        /* \"#utility.yul\":7197:7258   */\n      tag_512\n      jump\t// in\n    tag_676:\n        /* \"#utility.yul\":7190:7258   */\n      swap4\n      pop\n        /* \"#utility.yul\":7267:7332   */\n      tag_677\n        /* \"#utility.yul\":7325:7331   */\n      dup2\n        /* \"#utility.yul\":7320:7323   */\n      dup6\n        /* \"#utility.yul\":7313:7317   */\n      0x20\n        /* \"#utility.yul\":7306:7311   */\n      dup7\n        /* \"#utility.yul\":7302:7318   */\n      add\n        /* \"#utility.yul\":7267:7332   */\n      tag_513\n      jump\t// in\n    tag_677:\n        /* \"#utility.yul\":7357:7386   */\n      tag_678\n        /* \"#utility.yul\":7379:7385   */\n      dup2\n        /* \"#utility.yul\":7357:7386   */\n      tag_514\n      jump\t// in\n    tag_678:\n        /* \"#utility.yul\":7352:7355   */\n      dup5\n        /* \"#utility.yul\":7348:7387   */\n      add\n        /* \"#utility.yul\":7341:7387   */\n      swap2\n      pop\n        /* \"#utility.yul\":7118:7393   */\n      pop\n        /* \"#utility.yul\":7036:7393   */\n      swap3\n      swap2\n      pop\n      pop\n      jump\t// out\n        /* \"#utility.yul\":7399:7522   */\n    tag_516:\n        /* \"#utility.yul\":7490:7491   */\n      0x04\n        /* \"#utility.yul\":7483:7488   */\n      dup2\n        /* \"#utility.yul\":7480:7492   */\n      lt\n        /* \"#utility.yul\":7470:7516   */\n      tag_680\n      jumpi\n        /* \"#utility.yul\":7496:7514   */\n      tag_681\n      tag_223\n      jump\t// in\n    tag_681:\n        /* \"#utility.yul\":7470:7516   */\n    tag_680:\n        /* \"#utility.yul\":7399:7522   */\n      pop\n      jump\t// out\n        /* \"#utility.yul\":7528:7675   */\n    tag_517:\n        /* \"#utility.yul\":7583:7590   */\n      0x00\n        /* \"#utility.yul\":7612:7617   */\n      dup2\n        /* \"#utility.yul\":7601:7617   */\n      swap1\n      pop\n        /* \"#utility.yul\":7618:7669   */\n      tag_683\n        /* \"#utility.yul\":7663:7668   */\n      dup3\n        /* \"#utility.yul\":7618:7669   */\n      tag_516\n      jump\t// in\n    tag_683:\n        /* \"#utility.yul\":7528:7675   */\n      swap2\n      swap1\n      pop\n      jump\t// out\n        /* \"#utility.yul\":7681:7828   */\n    tag_518:\n        /* \"#utility.yul\":7747:7756   */\n      0x00\n        /* \"#utility.yul\":7780:7822   */\n      tag_685\n        /* \"#utility.yul\":7816:7821   */\n      dup3\n        /* \"#utility.yul\":7780:7822   */\n      tag_517\n      jump\t// in\n    tag_685:\n        /* \"#utility.yul\":7767:7822   */\n      swap1\n      pop\n        /* \"#utility.yul\":7681:7828   */\n      swap2\n      swap1\n      pop\n      jump\t// out\n        /* \"#utility.yul\":7834:7987   */\n    tag_519:\n        /* \"#utility.yul\":7927:7980   */\n      tag_687\n        /* \"#utility.yul\":7974:7979   */\n      dup2\n        /* \"#utility.yul\":7927:7980   */\n      tag_518\n      jump\t// in\n    tag_687:\n        /* \"#utility.yul\":7922:7925   */\n      dup3\n        /* \"#utility.yul\":7915:7981   */\n      mstore\n        /* \"#utility.yul\":7834:7987   */\n      pop\n      pop\n      jump\t// out\n        /* \"#utility.yul\":8057:10380   */\n    tag_520:\n        /* \"#utility.yul\":8176:8179   */\n      0x00\n        /* \"#utility.yul\":8212:8218   */\n      0x0160\n        /* \"#utility.yul\":8207:8210   */\n      dup4\n        /* \"#utility.yul\":8203:8219   */\n      add\n        /* \"#utility.yul\":8299:8303   */\n      0x00\n        /* \"#utility.yul\":8292:8297   */\n      dup4\n        /* \"#utility.yul\":8288:8304   */\n      add\n        /* \"#utility.yul\":8282:8305   */\n      mload\n        /* \"#utility.yul\":8318:8381   */\n      tag_689\n        /* \"#utility.yul\":8375:8379   */\n      0x00\n        /* \"#utility.yul\":8370:8373   */\n      dup7\n        /* \"#utility.yul\":8366:8380   */\n      add\n        /* \"#utility.yul\":8352:8364   */\n      dup3\n        /* \"#utility.yul\":8318:8381   */\n      tag_496\n      jump\t// in\n    tag_689:\n        /* \"#utility.yul\":8229:8391   */\n      pop\n        /* \"#utility.yul\":8475:8479   */\n      0x20\n        /* \"#utility.yul\":8468:8473   */\n      dup4\n        /* \"#utility.yul\":8464:8480   */\n      add\n        /* \"#utility.yul\":8458:8481   */\n      mload\n        /* \"#utility.yul\":8494:8557   */\n      tag_690\n        /* \"#utility.yul\":8551:8555   */\n      0x20\n        /* \"#utility.yul\":8546:8549   */\n      dup7\n        /* \"#utility.yul\":8542:8556   */\n      add\n        /* \"#utility.yul\":8528:8540   */\n      dup3\n        /* \"#utility.yul\":8494:8557   */\n      tag_510\n      jump\t// in\n    tag_690:\n        /* \"#utility.yul\":8401:8567   */\n      pop\n        /* \"#utility.yul\":8656:8660   */\n      0x40\n        /* \"#utility.yul\":8649:8654   */\n      dup4\n        /* \"#utility.yul\":8645:8661   */\n      add\n        /* \"#utility.yul\":8639:8662   */\n      mload\n        /* \"#utility.yul\":8675:8738   */\n      tag_691\n        /* \"#utility.yul\":8732:8736   */\n      0x40\n        /* \"#utility.yul\":8727:8730   */\n      dup7\n        /* \"#utility.yul\":8723:8737   */\n      add\n        /* \"#utility.yul\":8709:8721   */\n      dup3\n        /* \"#utility.yul\":8675:8738   */\n      tag_496\n      jump\t// in\n    tag_691:\n        /* \"#utility.yul\":8577:8748   */\n      pop\n        /* \"#utility.yul\":8839:8843   */\n      0x60\n        /* \"#utility.yul\":8832:8837   */\n      dup4\n        /* \"#utility.yul\":8828:8844   */\n      add\n        /* \"#utility.yul\":8822:8845   */\n      mload\n        /* \"#utility.yul\":8892:8895   */\n      dup5\n        /* \"#utility.yul\":8886:8890   */\n      dup3\n        /* \"#utility.yul\":8882:8896   */\n      sub\n        /* \"#utility.yul\":8875:8879   */\n      0x60\n        /* \"#utility.yul\":8870:8873   */\n      dup7\n        /* \"#utility.yul\":8866:8880   */\n      add\n        /* \"#utility.yul\":8859:8897   */\n      mstore\n        /* \"#utility.yul\":8918:8991   */\n      tag_692\n        /* \"#utility.yul\":8986:8990   */\n      dup3\n        /* \"#utility.yul\":8972:8984   */\n      dup3\n        /* \"#utility.yul\":8918:8991   */\n      tag_515\n      jump\t// in\n    tag_692:\n        /* \"#utility.yul\":8910:8991   */\n      swap2\n      pop\n        /* \"#utility.yul\":8758:9002   */\n      pop\n        /* \"#utility.yul\":9089:9093   */\n      0x80\n        /* \"#utility.yul\":9082:9087   */\n      dup4\n        /* \"#utility.yul\":9078:9094   */\n      add\n        /* \"#utility.yul\":9072:9095   */\n      mload\n        /* \"#utility.yul\":9142:9145   */\n      dup5\n        /* \"#utility.yul\":9136:9140   */\n      dup3\n        /* \"#utility.yul\":9132:9146   */\n      sub\n        /* \"#utility.yul\":9125:9129   */\n      0x80\n        /* \"#utility.yul\":9120:9123   */\n      dup7\n        /* \"#utility.yul\":9116:9130   */\n      add\n        /* \"#utility.yul\":9109:9147   */\n      mstore\n        /* \"#utility.yul\":9168:9241   */\n      tag_693\n        /* \"#utility.yul\":9236:9240   */\n      dup3\n        /* \"#utility.yul\":9222:9234   */\n      dup3\n        /* \"#utility.yul\":9168:9241   */\n      tag_515\n      jump\t// in\n    tag_693:\n        /* \"#utility.yul\":9160:9241   */\n      swap2\n      pop\n        /* \"#utility.yul\":9012:9252   */\n      pop\n        /* \"#utility.yul\":9336:9340   */\n      0xa0\n        /* \"#utility.yul\":9329:9334   */\n      dup4\n        /* \"#utility.yul\":9325:9341   */\n      add\n        /* \"#utility.yul\":9319:9342   */\n      mload\n        /* \"#utility.yul\":9355:9434   */\n      tag_694\n        /* \"#utility.yul\":9428:9432   */\n      0xa0\n        /* \"#utility.yul\":9423:9426   */\n      dup7\n        /* \"#utility.yul\":9419:9433   */\n      add\n        /* \"#utility.yul\":9405:9417   */\n      dup3\n        /* \"#utility.yul\":9355:9434   */\n      tag_519\n      jump\t// in\n    tag_694:\n        /* \"#utility.yul\":9262:9444   */\n      pop\n        /* \"#utility.yul\":9531:9535   */\n      0xc0\n        /* \"#utility.yul\":9524:9529   */\n      dup4\n        /* \"#utility.yul\":9520:9536   */\n      add\n        /* \"#utility.yul\":9514:9537   */\n      mload\n        /* \"#utility.yul\":9550:9613   */\n      tag_695\n        /* \"#utility.yul\":9607:9611   */\n      0xc0\n        /* \"#utility.yul\":9602:9605   */\n      dup7\n        /* \"#utility.yul\":9598:9612   */\n      add\n        /* \"#utility.yul\":9584:9596   */\n      dup3\n        /* \"#utility.yul\":9550:9613   */\n      tag_496\n      jump\t// in\n    tag_695:\n        /* \"#utility.yul\":9454:9623   */\n      pop\n        /* \"#utility.yul\":9712:9716   */\n      0xe0\n        /* \"#utility.yul\":9705:9710   */\n      dup4\n        /* \"#utility.yul\":9701:9717   */\n      add\n        /* \"#utility.yul\":9695:9718   */\n      mload\n        /* \"#utility.yul\":9731:9794   */\n      tag_696\n        /* \"#utility.yul\":9788:9792   */\n      0xe0\n        /* \"#utility.yul\":9783:9786   */\n      dup7\n        /* \"#utility.yul\":9779:9793   */\n      add\n        /* \"#utility.yul\":9765:9777   */\n      dup3\n        /* \"#utility.yul\":9731:9794   */\n      tag_496\n      jump\t// in\n    tag_696:\n        /* \"#utility.yul\":9633:9804   */\n      pop\n        /* \"#utility.yul\":9892:9898   */\n      0x0100\n        /* \"#utility.yul\":9885:9890   */\n      dup4\n        /* \"#utility.yul\":9881:9899   */\n      add\n        /* \"#utility.yul\":9875:9900   */\n      mload\n        /* \"#utility.yul\":9913:9972   */\n      tag_697\n        /* \"#utility.yul\":9964:9970   */\n      0x0100\n        /* \"#utility.yul\":9959:9962   */\n      dup7\n        /* \"#utility.yul\":9955:9971   */\n      add\n        /* \"#utility.yul\":9941:9953   */\n      dup3\n        /* \"#utility.yul\":9913:9972   */\n      tag_503\n      jump\t// in\n    tag_697:\n        /* \"#utility.yul\":9814:9982   */\n      pop\n        /* \"#utility.yul\":10066:10072   */\n      0x0120\n        /* \"#utility.yul\":10059:10064   */\n      dup4\n        /* \"#utility.yul\":10055:10073   */\n      add\n        /* \"#utility.yul\":10049:10074   */\n      mload\n        /* \"#utility.yul\":10087:10152   */\n      tag_698\n        /* \"#utility.yul\":10144:10150   */\n      0x0120\n        /* \"#utility.yul\":10139:10142   */\n      dup7\n        /* \"#utility.yul\":10135:10151   */\n      add\n        /* \"#utility.yul\":10121:10133   */\n      dup3\n        /* \"#utility.yul\":10087:10152   */\n      tag_496\n      jump\t// in\n    tag_698:\n        /* \"#utility.yul\":9992:10162   */\n      pop\n        /* \"#utility.yul\":10248:10254   */\n      0x0140\n        /* \"#utility.yul\":10241:10246   */\n      dup4\n        /* \"#utility.yul\":10237:10255   */\n      add\n        /* \"#utility.yul\":10231:10256   */\n      mload\n        /* \"#utility.yul\":10269:10343   */\n      tag_699\n        /* \"#utility.yul\":10335:10341   */\n      0x0140\n        /* \"#utility.yul\":10330:10333   */\n      dup7\n        /* \"#utility.yul\":10326:10342   */\n      add\n        /* \"#utility.yul\":10312:10324   */\n      dup3\n        /* \"#utility.yul\":10269:10343   */\n      tag_502\n      jump\t// in\n    tag_699:\n        /* \"#utility.yul\":10172:10353   */\n      pop\n        /* \"#utility.yul\":10370:10374   */\n      dup1\n        /* \"#utility.yul\":10363:10374   */\n      swap2\n      pop\n        /* \"#utility.yul\":8181:10380   */\n      pop\n        /* \"#utility.yul\":8057:10380   */\n      swap3\n      swap2\n      pop\n      pop\n      jump\t// out\n        /* \"#utility.yul\":10386:10759   */\n    tag_70:\n        /* \"#utility.yul\":10529:10533   */\n      0x00\n        /* \"#utility.yul\":10567:10569   */\n      0x20\n        /* \"#utility.yul\":10556:10565   */\n      dup3\n        /* \"#utility.yul\":10552:10570   */\n      add\n        /* \"#utility.yul\":10544:10570   */\n      swap1\n      pop\n        /* \"#utility.yul\":10616:10625   */\n      dup2\n        /* \"#utility.yul\":10610:10614   */\n      dup2\n        /* \"#utility.yul\":10606:10626   */\n      sub\n        /* \"#utility.yul\":10602:10603   */\n      0x00\n        /* \"#utility.yul\":10591:10600   */\n      dup4\n        /* \"#utility.yul\":10587:10604   */\n      add\n        /* \"#utility.yul\":10580:10627   */\n      mstore\n        /* \"#utility.yul\":10644:10752   */\n      tag_701\n        /* \"#utility.yul\":10747:10751   */\n      dup2\n        /* \"#utility.yul\":10738:10744   */\n      dup5\n        /* \"#utility.yul\":10644:10752   */\n      tag_520\n      jump\t// in\n    tag_701:\n        /* \"#utility.yul\":10636:10752   */\n      swap1\n      pop\n        /* \"#utility.yul\":10386:10759   */\n      swap3\n      swap2\n      pop\n      pop\n      jump\t// out\n        /* \"#utility.yul\":10765:10875   */\n    tag_521:\n        /* \"#utility.yul\":10849:10850   */\n      0x04\n        /* \"#utility.yul\":10842:10847   */\n      dup2\n        /* \"#utility.yul\":10839:10851   */\n      lt\n        /* \"#utility.yul\":10829:10869   */\n      tag_703\n      jumpi\n        /* \"#utility.yul\":10865:10866   */\n      0x00\n        /* \"#utility.yul\":10862:10863   */\n      dup1\n        /* \"#utility.yul\":10855:10867   */\n      revert\n        /* \"#utility.yul\":10829:10869   */\n    tag_703:\n        /* \"#utility.yul\":10765:10875   */\n      pop\n      jump\t// out\n        /* \"#utility.yul\":10881:11042   */\n    tag_522:\n        /* \"#utility.yul\":10938:10943   */\n      0x00\n        /* \"#utility.yul\":10976:10982   */\n      dup2\n        /* \"#utility.yul\":10963:10983   */\n      calldataload\n        /* \"#utility.yul\":10954:10983   */\n      swap1\n      pop\n        /* \"#utility.yul\":10992:11036   */\n      tag_705\n        /* \"#utility.yul\":11030:11035   */\n      dup2\n        /* \"#utility.yul\":10992:11036   */\n      tag_521\n      jump\t// in\n    tag_705:\n        /* \"#utility.yul\":10881:11042   */\n      swap3\n      swap2\n      pop\n      pop\n      jump\t// out\n        /* \"#utility.yul\":11048:11399   */\n    tag_81:\n        /* \"#utility.yul\":11118:11124   */\n      0x00\n        /* \"#utility.yul\":11167:11169   */\n      0x20\n        /* \"#utility.yul\":11155:11164   */\n      dup3\n        /* \"#utility.yul\":11146:11153   */\n      dup5\n        /* \"#utility.yul\":11142:11165   */\n      sub\n        /* \"#utility.yul\":11138:11170   */\n      slt\n        /* \"#utility.yul\":11135:11254   */\n      iszero\n      tag_707\n      jumpi\n        /* \"#utility.yul\":11173:11252   */\n      tag_708\n      tag_488\n      jump\t// in\n    tag_708:\n        /* \"#utility.yul\":11135:11254   */\n    tag_707:\n        /* \"#utility.yul\":11293:11294   */\n      0x00\n        /* \"#utility.yul\":11318:11382   */\n      tag_709\n        /* \"#utility.yul\":11374:11381   */\n      dup5\n        /* \"#utility.yul\":11365:11371   */\n      dup3\n        /* \"#utility.yul\":11354:11363   */\n      dup6\n        /* \"#utility.yul\":11350:11372   */\n      add\n        /* \"#utility.yul\":11318:11382   */\n      tag_522\n      jump\t// in\n    tag_709:\n        /* \"#utility.yul\":11308:11382   */\n      swap2\n      pop\n        /* \"#utility.yul\":11264:11392   */\n      pop\n        /* \"#utility.yul\":11048:11399   */\n      swap3\n      swap2\n      pop\n      pop\n      jump\t// out\n        /* \"#utility.yul\":11405:11514   */\n    tag_523:\n        /* \"#utility.yul\":11486:11507   */\n      tag_711\n        /* \"#utility.yul\":11501:11506   */\n      dup2\n        /* \"#utility.yul\":11486:11507   */\n      tag_493\n      jump\t// in\n    tag_711:\n        /* \"#utility.yul\":11481:11484   */\n      dup3\n        /* \"#utility.yul\":11474:11508   */\n      mstore\n        /* \"#utility.yul\":11405:11514   */\n      pop\n      pop\n      jump\t// out\n        /* \"#utility.yul\":11520:11730   */\n    tag_88:\n        /* \"#utility.yul\":11607:11611   */\n      0x00\n        /* \"#utility.yul\":11645:11647   */\n      0x20\n        /* \"#utility.yul\":11634:11643   */\n      dup3\n        /* \"#utility.yul\":11630:11648   */\n      add\n        /* \"#utility.yul\":11622:11648   */\n      swap1\n      pop\n        /* \"#utility.yul\":11658:11723   */\n      tag_713\n        /* \"#utility.yul\":11720:11721   */\n      0x00\n        /* \"#utility.yul\":11709:11718   */\n      dup4\n        /* \"#utility.yul\":11705:11722   */\n      add\n        /* \"#utility.yul\":11696:11702   */\n      dup5\n        /* \"#utility.yul\":11658:11723   */\n      tag_523\n      jump\t// in\n    tag_713:\n        /* \"#utility.yul\":11520:11730   */\n      swap3\n      swap2\n      pop\n      pop\n      jump\t// out\n        /* \"#utility.yul\":11736:11854   */\n    tag_524:\n        /* \"#utility.yul\":11823:11847   */\n      tag_715\n        /* \"#utility.yul\":11841:11846   */\n      dup2\n        /* \"#utility.yul\":11823:11847   */\n      tag_506\n      jump\t// in\n    tag_715:\n        /* \"#utility.yul\":11818:11821   */\n      dup3\n        /* \"#utility.yul\":11811:11848   */\n      mstore\n        /* \"#utility.yul\":11736:11854   */\n      pop\n      pop\n      jump\t// out\n        /* \"#utility.yul\":11860:12082   */\n    tag_96:\n        /* \"#utility.yul\":11953:11957   */\n      0x00\n        /* \"#utility.yul\":11991:11993   */\n      0x20\n        /* \"#utility.yul\":11980:11989   */\n      dup3\n        /* \"#utility.yul\":11976:11994   */\n      add\n        /* \"#utility.yul\":11968:11994   */\n      swap1\n      pop\n        /* \"#utility.yul\":12004:12075   */\n      tag_717\n        /* \"#utility.yul\":12072:12073   */\n      0x00\n        /* \"#utility.yul\":12061:12070   */\n      dup4\n        /* \"#utility.yul\":12057:12074   */\n      add\n        /* \"#utility.yul\":12048:12054   */\n      dup5\n        /* \"#utility.yul\":12004:12075   */\n      tag_524\n      jump\t// in\n    tag_717:\n        /* \"#utility.yul\":11860:12082   */\n      swap3\n      swap2\n      pop\n      pop\n      jump\t// out\n        /* \"#utility.yul\":12088:12203   */\n    tag_525:\n        /* \"#utility.yul\":12173:12196   */\n      tag_719\n        /* \"#utility.yul\":12190:12195   */\n      dup2\n        /* \"#utility.yul\":12173:12196   */\n      tag_497\n      jump\t// in\n    tag_719:\n        /* \"#utility.yul\":12168:12171   */\n      dup3\n        /* \"#utility.yul\":12161:12197   */\n      mstore\n        /* \"#utility.yul\":12088:12203   */\n      pop\n      pop\n      jump\t// out\n        /* \"#utility.yul\":12209:12358   */\n    tag_526:\n        /* \"#utility.yul\":12305:12351   */\n      tag_721\n        /* \"#utility.yul\":12345:12350   */\n      dup2\n        /* \"#utility.yul\":12305:12351   */\n      tag_501\n      jump\t// in\n    tag_721:\n        /* \"#utility.yul\":12300:12303   */\n      dup3\n        /* \"#utility.yul\":12293:12352   */\n      mstore\n        /* \"#utility.yul\":12209:12358   */\n      pop\n      pop\n      jump\t// out\n        /* \"#utility.yul\":12364:13359   */\n    tag_102:\n        /* \"#utility.yul\":12652:12656   */\n      0x00\n        /* \"#utility.yul\":12690:12693   */\n      0x0100\n        /* \"#utility.yul\":12679:12688   */\n      dup3\n        /* \"#utility.yul\":12675:12694   */\n      add\n        /* \"#utility.yul\":12667:12694   */\n      swap1\n      pop\n        /* \"#utility.yul\":12704:12775   */\n      tag_723\n        /* \"#utility.yul\":12772:12773   */\n      0x00\n        /* \"#utility.yul\":12761:12770   */\n      dup4\n        /* \"#utility.yul\":12757:12774   */\n      add\n        /* \"#utility.yul\":12748:12754   */\n      dup12\n        /* \"#utility.yul\":12704:12775   */\n      tag_509\n      jump\t// in\n    tag_723:\n        /* \"#utility.yul\":12785:12855   */\n      tag_724\n        /* \"#utility.yul\":12851:12853   */\n      0x20\n        /* \"#utility.yul\":12840:12849   */\n      dup4\n        /* \"#utility.yul\":12836:12854   */\n      add\n        /* \"#utility.yul\":12827:12833   */\n      dup11\n        /* \"#utility.yul\":12785:12855   */\n      tag_525\n      jump\t// in\n    tag_724:\n        /* \"#utility.yul\":12865:12935   */\n      tag_725\n        /* \"#utility.yul\":12931:12933   */\n      0x40\n        /* \"#utility.yul\":12920:12929   */\n      dup4\n        /* \"#utility.yul\":12916:12934   */\n      add\n        /* \"#utility.yul\":12907:12913   */\n      dup10\n        /* \"#utility.yul\":12865:12935   */\n      tag_525\n      jump\t// in\n    tag_725:\n        /* \"#utility.yul\":12945:13017   */\n      tag_726\n        /* \"#utility.yul\":13013:13015   */\n      0x60\n        /* \"#utility.yul\":13002:13011   */\n      dup4\n        /* \"#utility.yul\":12998:13016   */\n      add\n        /* \"#utility.yul\":12989:12995   */\n      dup9\n        /* \"#utility.yul\":12945:13017   */\n      tag_509\n      jump\t// in\n    tag_726:\n        /* \"#utility.yul\":13027:13109   */\n      tag_727\n        /* \"#utility.yul\":13104:13107   */\n      0x80\n        /* \"#utility.yul\":13093:13102   */\n      dup4\n        /* \"#utility.yul\":13089:13108   */\n      add\n        /* \"#utility.yul\":13080:13086   */\n      dup8\n        /* \"#utility.yul\":13027:13109   */\n      tag_526\n      jump\t// in\n    tag_727:\n        /* \"#utility.yul\":13119:13186   */\n      tag_728\n        /* \"#utility.yul\":13181:13184   */\n      0xa0\n        /* \"#utility.yul\":13170:13179   */\n      dup4\n        /* \"#utility.yul\":13166:13185   */\n      add\n        /* \"#utility.yul\":13157:13163   */\n      dup7\n        /* \"#utility.yul\":13119:13186   */\n      tag_523\n      jump\t// in\n    tag_728:\n        /* \"#utility.yul\":13196:13269   */\n      tag_729\n        /* \"#utility.yul\":13264:13267   */\n      0xc0\n        /* \"#utility.yul\":13253:13262   */\n      dup4\n        /* \"#utility.yul\":13249:13268   */\n      add\n        /* \"#utility.yul\":13240:13246   */\n      dup6\n        /* \"#utility.yul\":13196:13269   */\n      tag_509\n      jump\t// in\n    tag_729:\n        /* \"#utility.yul\":13279:13352   */\n      tag_730\n        /* \"#utility.yul\":13347:13350   */\n      0xe0\n        /* \"#utility.yul\":13336:13345   */\n      dup4\n        /* \"#utility.yul\":13332:13351   */\n      add\n        /* \"#utility.yul\":13323:13329   */\n      dup5\n        /* \"#utility.yul\":13279:13352   */\n      tag_509\n      jump\t// in\n    tag_730:\n        /* \"#utility.yul\":12364:13359   */\n      swap10\n      swap9\n      pop\n      pop\n      pop\n      pop\n      pop\n      pop\n      pop\n      pop\n      pop\n      jump\t// out\n        /* \"#utility.yul\":13365:13482   */\n    tag_527:\n        /* \"#utility.yul\":13474:13475   */\n      0x00\n        /* \"#utility.yul\":13471:13472   */\n      dup1\n        /* \"#utility.yul\":13464:13476   */\n      revert\n        /* \"#utility.yul\":13488:13605   */\n    tag_528:\n        /* \"#utility.yul\":13597:13598   */\n      0x00\n        /* \"#utility.yul\":13594:13595   */\n      dup1\n        /* \"#utility.yul\":13587:13599   */\n      revert\n        /* \"#utility.yul\":13611:13791   */\n    tag_529:\n        /* \"#utility.yul\":13659:13736   */\n      0x4e487b7100000000000000000000000000000000000000000000000000000000\n        /* \"#utility.yul\":13656:13657   */\n      0x00\n        /* \"#utility.yul\":13649:13737   */\n      mstore\n        /* \"#utility.yul\":13756:13760   */\n      0x41\n        /* \"#utility.yul\":13753:13754   */\n      0x04\n        /* \"#utility.yul\":13746:13761   */\n      mstore\n        /* \"#utility.yul\":13780:13784   */\n      0x24\n        /* \"#utility.yul\":13777:13778   */\n      0x00\n        /* \"#utility.yul\":13770:13785   */\n      revert\n        /* \"#utility.yul\":13797:14078   */\n    tag_530:\n        /* \"#utility.yul\":13880:13907   */\n      tag_735\n        /* \"#utility.yul\":13902:13906   */\n      dup3\n        /* \"#utility.yul\":13880:13907   */\n      tag_514\n      jump\t// in\n    tag_735:\n        /* \"#utility.yul\":13872:13878   */\n      dup2\n        /* \"#utility.yul\":13868:13908   */\n      add\n        /* \"#utility.yul\":14010:14016   */\n      dup2\n        /* \"#utility.yul\":13998:14008   */\n      dup2\n        /* \"#utility.yul\":13995:14017   */\n      lt\n        /* \"#utility.yul\":13974:13992   */\n      0xffffffffffffffff\n        /* \"#utility.yul\":13962:13972   */\n      dup3\n        /* \"#utility.yul\":13959:13993   */\n      gt\n        /* \"#utility.yul\":13956:14018   */\n      or\n        /* \"#utility.yul\":13953:14041   */\n      iszero\n      tag_736\n      jumpi\n        /* \"#utility.yul\":14021:14039   */\n      tag_737\n      tag_529\n      jump\t// in\n    tag_737:\n        /* \"#utility.yul\":13953:14041   */\n    tag_736:\n        /* \"#utility.yul\":14061:14071   */\n      dup1\n        /* \"#utility.yul\":14057:14059   */\n      0x40\n        /* \"#utility.yul\":14050:14072   */\n      mstore\n        /* \"#utility.yul\":13840:14078   */\n      pop\n        /* \"#utility.yul\":13797:14078   */\n      pop\n      pop\n      jump\t// out\n        /* \"#utility.yul\":14084:14213   */\n    tag_531:\n        /* \"#utility.yul\":14118:14124   */\n      0x00\n        /* \"#utility.yul\":14145:14165   */\n      tag_739\n      tag_487\n      jump\t// in\n    tag_739:\n        /* \"#utility.yul\":14135:14165   */\n      swap1\n      pop\n        /* \"#utility.yul\":14174:14207   */\n      tag_740\n        /* \"#utility.yul\":14202:14206   */\n      dup3\n        /* \"#utility.yul\":14194:14200   */\n      dup3\n        /* \"#utility.yul\":14174:14207   */\n      tag_530\n      jump\t// in\n    tag_740:\n        /* \"#utility.yul\":14084:14213   */\n      swap2\n      swap1\n      pop\n      jump\t// out\n        /* \"#utility.yul\":14219:14527   */\n    tag_532:\n        /* \"#utility.yul\":14281:14285   */\n      0x00\n        /* \"#utility.yul\":14371:14389   */\n      0xffffffffffffffff\n        /* \"#utility.yul\":14363:14369   */\n      dup3\n        /* \"#utility.yul\":14360:14390   */\n      gt\n        /* \"#utility.yul\":14357:14413   */\n      iszero\n      tag_742\n      jumpi\n        /* \"#utility.yul\":14393:14411   */\n      tag_743\n      tag_529\n      jump\t// in\n    tag_743:\n        /* \"#utility.yul\":14357:14413   */\n    tag_742:\n        /* \"#utility.yul\":14431:14460   */\n      tag_744\n        /* \"#utility.yul\":14453:14459   */\n      dup3\n        /* \"#utility.yul\":14431:14460   */\n      tag_514\n      jump\t// in\n    tag_744:\n        /* \"#utility.yul\":14423:14460   */\n      swap1\n      pop\n        /* \"#utility.yul\":14515:14519   */\n      0x20\n        /* \"#utility.yul\":14509:14513   */\n      dup2\n        /* \"#utility.yul\":14505:14520   */\n      add\n        /* \"#utility.yul\":14497:14520   */\n      swap1\n      pop\n        /* \"#utility.yul\":14219:14527   */\n      swap2\n      swap1\n      pop\n      jump\t// out\n        /* \"#utility.yul\":14533:14679   */\n    tag_533:\n        /* \"#utility.yul\":14630:14636   */\n      dup3\n        /* \"#utility.yul\":14625:14628   */\n      dup2\n        /* \"#utility.yul\":14620:14623   */\n      dup4\n        /* \"#utility.yul\":14607:14637   */\n      calldatacopy\n        /* \"#utility.yul\":14671:14672   */\n      0x00\n        /* \"#utility.yul\":14662:14668   */\n      dup4\n        /* \"#utility.yul\":14657:14660   */\n      dup4\n        /* \"#utility.yul\":14653:14669   */\n      add\n        /* \"#utility.yul\":14646:14673   */\n      mstore\n        /* \"#utility.yul\":14533:14679   */\n      pop\n      pop\n      pop\n      jump\t// out\n        /* \"#utility.yul\":14685:15110   */\n    tag_534:\n        /* \"#utility.yul\":14763:14768   */\n      0x00\n        /* \"#utility.yul\":14788:14854   */\n      tag_747\n        /* \"#utility.yul\":14804:14853   */\n      tag_748\n        /* \"#utility.yul\":14846:14852   */\n      dup5\n        /* \"#utility.yul\":14804:14853   */\n      tag_532\n      jump\t// in\n    tag_748:\n        /* \"#utility.yul\":14788:14854   */\n      tag_531\n      jump\t// in\n    tag_747:\n        /* \"#utility.yul\":14779:14854   */\n      swap1\n      pop\n        /* \"#utility.yul\":14877:14883   */\n      dup3\n        /* \"#utility.yul\":14870:14875   */\n      dup2\n        /* \"#utility.yul\":14863:14884   */\n      mstore\n        /* \"#utility.yul\":14915:14919   */\n      0x20\n        /* \"#utility.yul\":14908:14913   */\n      dup2\n        /* \"#utility.yul\":14904:14920   */\n      add\n        /* \"#utility.yul\":14953:14956   */\n      dup5\n        /* \"#utility.yul\":14944:14950   */\n      dup5\n        /* \"#utility.yul\":14939:14942   */\n      dup5\n        /* \"#utility.yul\":14935:14951   */\n      add\n        /* \"#utility.yul\":14932:14957   */\n      gt\n        /* \"#utility.yul\":14929:15041   */\n      iszero\n      tag_749\n      jumpi\n        /* \"#utility.yul\":14960:15039   */\n      tag_750\n      tag_528\n      jump\t// in\n    tag_750:\n        /* \"#utility.yul\":14929:15041   */\n    tag_749:\n        /* \"#utility.yul\":15050:15104   */\n      tag_751\n        /* \"#utility.yul\":15097:15103   */\n      dup5\n        /* \"#utility.yul\":15092:15095   */\n      dup3\n        /* \"#utility.yul\":15087:15090   */\n      dup6\n        /* \"#utility.yul\":15050:15104   */\n      tag_533\n      jump\t// in\n    tag_751:\n        /* \"#utility.yul\":14769:15110   */\n      pop\n        /* \"#utility.yul\":14685:15110   */\n      swap4\n      swap3\n      pop\n      pop\n      pop\n      jump\t// out\n        /* \"#utility.yul\":15130:15470   */\n    tag_535:\n        /* \"#utility.yul\":15186:15191   */\n      0x00\n        /* \"#utility.yul\":15235:15238   */\n      dup3\n        /* \"#utility.yul\":15228:15232   */\n      0x1f\n        /* \"#utility.yul\":15220:15226   */\n      dup4\n        /* \"#utility.yul\":15216:15233   */\n      add\n        /* \"#utility.yul\":15212:15239   */\n      slt\n        /* \"#utility.yul\":15202:15324   */\n      tag_753\n      jumpi\n        /* \"#utility.yul\":15243:15322   */\n      tag_754\n      tag_527\n      jump\t// in\n    tag_754:\n        /* \"#utility.yul\":15202:15324   */\n    tag_753:\n        /* \"#utility.yul\":15360:15366   */\n      dup2\n        /* \"#utility.yul\":15347:15367   */\n      calldataload\n        /* \"#utility.yul\":15385:15464   */\n      tag_755\n        /* \"#utility.yul\":15460:15463   */\n      dup5\n        /* \"#utility.yul\":15452:15458   */\n      dup3\n        /* \"#utility.yul\":15445:15449   */\n      0x20\n        /* \"#utility.yul\":15437:15443   */\n      dup7\n        /* \"#utility.yul\":15433:15450   */\n      add\n        /* \"#utility.yul\":15385:15464   */\n      tag_534\n      jump\t// in\n    tag_755:\n        /* \"#utility.yul\":15376:15464   */\n      swap2\n      pop\n        /* \"#utility.yul\":15192:15470   */\n      pop\n        /* \"#utility.yul\":15130:15470   */\n      swap3\n      swap2\n      pop\n      pop\n      jump\t// out\n        /* \"#utility.yul\":15476:16269   */\n    tag_106:\n        /* \"#utility.yul\":15560:15566   */\n      0x00\n        /* \"#utility.yul\":15568:15574   */\n      dup1\n        /* \"#utility.yul\":15576:15582   */\n      0x00\n        /* \"#utility.yul\":15625:15627   */\n      0x60\n        /* \"#utility.yul\":15613:15622   */\n      dup5\n        /* \"#utility.yul\":15604:15611   */\n      dup7\n        /* \"#utility.yul\":15600:15623   */\n      sub\n        /* \"#utility.yul\":15596:15628   */\n      slt\n        /* \"#utility.yul\":15593:15712   */\n      iszero\n      tag_757\n      jumpi\n        /* \"#utility.yul\":15631:15710   */\n      tag_758\n      tag_488\n      jump\t// in\n    tag_758:\n        /* \"#utility.yul\":15593:15712   */\n    tag_757:\n        /* \"#utility.yul\":15751:15752   */\n      0x00\n        /* \"#utility.yul\":15776:15829   */\n      tag_759\n        /* \"#utility.yul\":15821:15828   */\n      dup7\n        /* \"#utility.yul\":15812:15818   */\n      dup3\n        /* \"#utility.yul\":15801:15810   */\n      dup8\n        /* \"#utility.yul\":15797:15819   */\n      add\n        /* \"#utility.yul\":15776:15829   */\n      tag_492\n      jump\t// in\n    tag_759:\n        /* \"#utility.yul\":15766:15829   */\n      swap4\n      pop\n        /* \"#utility.yul\":15722:15839   */\n      pop\n        /* \"#utility.yul\":15906:15908   */\n      0x20\n        /* \"#utility.yul\":15895:15904   */\n      dup5\n        /* \"#utility.yul\":15891:15909   */\n      add\n        /* \"#utility.yul\":15878:15910   */\n      calldataload\n        /* \"#utility.yul\":15937:15955   */\n      0xffffffffffffffff\n        /* \"#utility.yul\":15929:15935   */\n      dup2\n        /* \"#utility.yul\":15926:15956   */\n      gt\n        /* \"#utility.yul\":15923:16040   */\n      iszero\n      tag_760\n      jumpi\n        /* \"#utility.yul\":15959:16038   */\n      tag_761\n      tag_489\n      jump\t// in\n    tag_761:\n        /* \"#utility.yul\":15923:16040   */\n    tag_760:\n        /* \"#utility.yul\":16064:16127   */\n      tag_762\n        /* \"#utility.yul\":16119:16126   */\n      dup7\n        /* \"#utility.yul\":16110:16116   */\n      dup3\n        /* \"#utility.yul\":16099:16108   */\n      dup8\n        /* \"#utility.yul\":16095:16117   */\n      add\n        /* \"#utility.yul\":16064:16127   */\n      tag_535\n      jump\t// in\n    tag_762:\n        /* \"#utility.yul\":16054:16127   */\n      swap3\n      pop\n        /* \"#utility.yul\":15849:16137   */\n      pop\n        /* \"#utility.yul\":16176:16178   */\n      0x40\n        /* \"#utility.yul\":16202:16252   */\n      tag_763\n        /* \"#utility.yul\":16244:16251   */\n      dup7\n        /* \"#utility.yul\":16235:16241   */\n      dup3\n        /* \"#utility.yul\":16224:16233   */\n      dup8\n        /* \"#utility.yul\":16220:16242   */\n      add\n        /* \"#utility.yul\":16202:16252   */\n      tag_495\n      jump\t// in\n    tag_763:\n        /* \"#utility.yul\":16192:16252   */\n      swap2\n      pop\n        /* \"#utility.yul\":16147:16262   */\n      pop\n        /* \"#utility.yul\":15476:16269   */\n      swap3\n      pop\n      swap3\n      pop\n      swap3\n      jump\t// out\n        /* \"#utility.yul\":16275:16444   */\n    tag_536:\n        /* \"#utility.yul\":16359:16370   */\n      0x00\n        /* \"#utility.yul\":16393:16399   */\n      dup3\n        /* \"#utility.yul\":16388:16391   */\n      dup3\n        /* \"#utility.yul\":16381:16400   */\n      mstore\n        /* \"#utility.yul\":16433:16437   */\n      0x20\n        /* \"#utility.yul\":16428:16431   */\n      dup3\n        /* \"#utility.yul\":16424:16438   */\n      add\n        /* \"#utility.yul\":16409:16438   */\n      swap1\n      pop\n        /* \"#utility.yul\":16275:16444   */\n      swap3\n      swap2\n      pop\n      pop\n      jump\t// out\n        /* \"#utility.yul\":16450:16827   */\n    tag_537:\n        /* \"#utility.yul\":16538:16541   */\n      0x00\n        /* \"#utility.yul\":16566:16605   */\n      tag_766\n        /* \"#utility.yul\":16599:16604   */\n      dup3\n        /* \"#utility.yul\":16566:16605   */\n      tag_511\n      jump\t// in\n    tag_766:\n        /* \"#utility.yul\":16621:16692   */\n      tag_767\n        /* \"#utility.yul\":16685:16691   */\n      dup2\n        /* \"#utility.yul\":16680:16683   */\n      dup6\n        /* \"#utility.yul\":16621:16692   */\n      tag_536\n      jump\t// in\n    tag_767:\n        /* \"#utility.yul\":16614:16692   */\n      swap4\n      pop\n        /* \"#utility.yul\":16701:16766   */\n      tag_768\n        /* \"#utility.yul\":16759:16765   */\n      dup2\n        /* \"#utility.yul\":16754:16757   */\n      dup6\n        /* \"#utility.yul\":16747:16751   */\n      0x20\n        /* \"#utility.yul\":16740:16745   */\n      dup7\n        /* \"#utility.yul\":16736:16752   */\n      add\n        /* \"#utility.yul\":16701:16766   */\n      tag_513\n      jump\t// in\n    tag_768:\n        /* \"#utility.yul\":16791:16820   */\n      tag_769\n        /* \"#utility.yul\":16813:16819   */\n      dup2\n        /* \"#utility.yul\":16791:16820   */\n      tag_514\n      jump\t// in\n    tag_769:\n        /* \"#utility.yul\":16786:16789   */\n      dup5\n        /* \"#utility.yul\":16782:16821   */\n      add\n        /* \"#utility.yul\":16775:16821   */\n      swap2\n      pop\n        /* \"#utility.yul\":16542:16827   */\n      pop\n        /* \"#utility.yul\":16450:16827   */\n      swap3\n      swap2\n      pop\n      pop\n      jump\t// out\n        /* \"#utility.yul\":16833:16996   */\n    tag_538:\n        /* \"#utility.yul\":16936:16989   */\n      tag_771\n        /* \"#utility.yul\":16983:16988   */\n      dup2\n        /* \"#utility.yul\":16936:16989   */\n      tag_518\n      jump\t// in\n    tag_771:\n        /* \"#utility.yul\":16931:16934   */\n      dup3\n        /* \"#utility.yul\":16924:16990   */\n      mstore\n        /* \"#utility.yul\":16833:16996   */\n      pop\n      pop\n      jump\t// out\n        /* \"#utility.yul\":17002:18554   */\n    tag_123:\n        /* \"#utility.yul\":17435:17439   */\n      0x00\n        /* \"#utility.yul\":17473:17476   */\n      0x0160\n        /* \"#utility.yul\":17462:17471   */\n      dup3\n        /* \"#utility.yul\":17458:17477   */\n      add\n        /* \"#utility.yul\":17450:17477   */\n      swap1\n      pop\n        /* \"#utility.yul\":17487:17558   */\n      tag_773\n        /* \"#utility.yul\":17555:17556   */\n      0x00\n        /* \"#utility.yul\":17544:17553   */\n      dup4\n        /* \"#utility.yul\":17540:17557   */\n      add\n        /* \"#utility.yul\":17531:17537   */\n      dup15\n        /* \"#utility.yul\":17487:17558   */\n      tag_509\n      jump\t// in\n    tag_773:\n        /* \"#utility.yul\":17568:17640   */\n      tag_774\n        /* \"#utility.yul\":17636:17638   */\n      0x20\n        /* \"#utility.yul\":17625:17634   */\n      dup4\n        /* \"#utility.yul\":17621:17639   */\n      add\n        /* \"#utility.yul\":17612:17618   */\n      dup14\n        /* \"#utility.yul\":17568:17640   */\n      tag_524\n      jump\t// in\n    tag_774:\n        /* \"#utility.yul\":17650:17722   */\n      tag_775\n        /* \"#utility.yul\":17718:17720   */\n      0x40\n        /* \"#utility.yul\":17707:17716   */\n      dup4\n        /* \"#utility.yul\":17703:17721   */\n      add\n        /* \"#utility.yul\":17694:17700   */\n      dup13\n        /* \"#utility.yul\":17650:17722   */\n      tag_509\n      jump\t// in\n    tag_775:\n        /* \"#utility.yul\":17769:17778   */\n      dup2\n        /* \"#utility.yul\":17763:17767   */\n      dup2\n        /* \"#utility.yul\":17759:17779   */\n      sub\n        /* \"#utility.yul\":17754:17756   */\n      0x60\n        /* \"#utility.yul\":17743:17752   */\n      dup4\n        /* \"#utility.yul\":17739:17757   */\n      add\n        /* \"#utility.yul\":17732:17780   */\n      mstore\n        /* \"#utility.yul\":17797:17875   */\n      tag_776\n        /* \"#utility.yul\":17870:17874   */\n      dup2\n        /* \"#utility.yul\":17861:17867   */\n      dup12\n        /* \"#utility.yul\":17797:17875   */\n      tag_537\n      jump\t// in\n    tag_776:\n        /* \"#utility.yul\":17789:17875   */\n      swap1\n      pop\n        /* \"#utility.yul\":17923:17932   */\n      dup2\n        /* \"#utility.yul\":17917:17921   */\n      dup2\n        /* \"#utility.yul\":17913:17933   */\n      sub\n        /* \"#utility.yul\":17907:17910   */\n      0x80\n        /* \"#utility.yul\":17896:17905   */\n      dup4\n        /* \"#utility.yul\":17892:17911   */\n      add\n        /* \"#utility.yul\":17885:17934   */\n      mstore\n        /* \"#utility.yul\":17951:18029   */\n      tag_777\n        /* \"#utility.yul\":18024:18028   */\n      dup2\n        /* \"#utility.yul\":18015:18021   */\n      dup11\n        /* \"#utility.yul\":17951:18029   */\n      tag_537\n      jump\t// in\n    tag_777:\n        /* \"#utility.yul\":17943:18029   */\n      swap1\n      pop\n        /* \"#utility.yul\":18039:18128   */\n      tag_778\n        /* \"#utility.yul\":18123:18126   */\n      0xa0\n        /* \"#utility.yul\":18112:18121   */\n      dup4\n        /* \"#utility.yul\":18108:18127   */\n      add\n        /* \"#utility.yul\":18099:18105   */\n      dup10\n        /* \"#utility.yul\":18039:18128   */\n      tag_538\n      jump\t// in\n    tag_778:\n        /* \"#utility.yul\":18138:18211   */\n      tag_779\n        /* \"#utility.yul\":18206:18209   */\n      0xc0\n        /* \"#utility.yul\":18195:18204   */\n      dup4\n        /* \"#utility.yul\":18191:18210   */\n      add\n        /* \"#utility.yul\":18182:18188   */\n      dup9\n        /* \"#utility.yul\":18138:18211   */\n      tag_509\n      jump\t// in\n    tag_779:\n        /* \"#utility.yul\":18221:18294   */\n      tag_780\n        /* \"#utility.yul\":18289:18292   */\n      0xe0\n        /* \"#utility.yul\":18278:18287   */\n      dup4\n        /* \"#utility.yul\":18274:18293   */\n      add\n        /* \"#utility.yul\":18265:18271   */\n      dup8\n        /* \"#utility.yul\":18221:18294   */\n      tag_509\n      jump\t// in\n    tag_780:\n        /* \"#utility.yul\":18304:18371   */\n      tag_781\n        /* \"#utility.yul\":18366:18369   */\n      0x0100\n        /* \"#utility.yul\":18355:18364   */\n      dup4\n        /* \"#utility.yul\":18351:18370   */\n      add\n        /* \"#utility.yul\":18342:18348   */\n      dup7\n        /* \"#utility.yul\":18304:18371   */\n      tag_523\n      jump\t// in\n    tag_781:\n        /* \"#utility.yul\":18381:18454   */\n      tag_782\n        /* \"#utility.yul\":18449:18452   */\n      0x0120\n        /* \"#utility.yul\":18438:18447   */\n      dup4\n        /* \"#utility.yul\":18434:18453   */\n      add\n        /* \"#utility.yul\":18425:18431   */\n      dup6\n        /* \"#utility.yul\":18381:18454   */\n      tag_509\n      jump\t// in\n    tag_782:\n        /* \"#utility.yul\":18464:18547   */\n      tag_783\n        /* \"#utility.yul\":18542:18545   */\n      0x0140\n        /* \"#utility.yul\":18531:18540   */\n      dup4\n        /* \"#utility.yul\":18527:18546   */\n      add\n        /* \"#utility.yul\":18517:18524   */\n      dup5\n        /* \"#utility.yul\":18464:18547   */\n      tag_526\n      jump\t// in\n    tag_783:\n        /* \"#utility.yul\":17002:18554   */\n      swap13\n      swap12\n      pop\n      pop\n      pop\n      pop\n      pop\n      pop\n      pop\n      pop\n      pop\n      pop\n      pop\n      pop\n      jump\t// out\n        /* \"#utility.yul\":18560:18889   */\n    tag_127:\n        /* \"#utility.yul\":18619:18625   */\n      0x00\n        /* \"#utility.yul\":18668:18670   */\n      0x20\n        /* \"#utility.yul\":18656:18665   */\n      dup3\n        /* \"#utility.yul\":18647:18654   */\n      dup5\n        /* \"#utility.yul\":18643:18666   */\n      sub\n        /* \"#utility.yul\":18639:18671   */\n      slt\n        /* \"#utility.yul\":18636:18755   */\n      iszero\n      tag_785\n      jumpi\n        /* \"#utility.yul\":18674:18753   */\n      tag_786\n      tag_488\n      jump\t// in\n    tag_786:\n        /* \"#utility.yul\":18636:18755   */\n    tag_785:\n        /* \"#utility.yul\":18794:18795   */\n      0x00\n        /* \"#utility.yul\":18819:18872   */\n      tag_787\n        /* \"#utility.yul\":18864:18871   */\n      dup5\n        /* \"#utility.yul\":18855:18861   */\n      dup3\n        /* \"#utility.yul\":18844:18853   */\n      dup6\n        /* \"#utility.yul\":18840:18862   */\n      add\n        /* \"#utility.yul\":18819:18872   */\n      tag_508\n      jump\t// in\n    tag_787:\n        /* \"#utility.yul\":18809:18872   */\n      swap2\n      pop\n        /* \"#utility.yul\":18765:18882   */\n      pop\n        /* \"#utility.yul\":18560:18889   */\n      swap3\n      swap2\n      pop\n      pop\n      jump\t// out\n        /* \"#utility.yul\":18895:19009   */\n    tag_539:\n        /* \"#utility.yul\":18962:18968   */\n      0x00\n        /* \"#utility.yul\":18996:19001   */\n      dup2\n        /* \"#utility.yul\":18990:19002   */\n      mload\n        /* \"#utility.yul\":18980:19002   */\n      swap1\n      pop\n        /* \"#utility.yul\":18895:19009   */\n      swap2\n      swap1\n      pop\n      jump\t// out\n        /* \"#utility.yul\":19015:19199   */\n    tag_540:\n        /* \"#utility.yul\":19114:19125   */\n      0x00\n        /* \"#utility.yul\":19148:19154   */\n      dup3\n        /* \"#utility.yul\":19143:19146   */\n      dup3\n        /* \"#utility.yul\":19136:19155   */\n      mstore\n        /* \"#utility.yul\":19188:19192   */\n      0x20\n        /* \"#utility.yul\":19183:19186   */\n      dup3\n        /* \"#utility.yul\":19179:19193   */\n      add\n        /* \"#utility.yul\":19164:19193   */\n      swap1\n      pop\n        /* \"#utility.yul\":19015:19199   */\n      swap3\n      swap2\n      pop\n      pop\n      jump\t// out\n        /* \"#utility.yul\":19205:19337   */\n    tag_541:\n        /* \"#utility.yul\":19272:19276   */\n      0x00\n        /* \"#utility.yul\":19295:19298   */\n      dup2\n        /* \"#utility.yul\":19287:19298   */\n      swap1\n      pop\n        /* \"#utility.yul\":19325:19329   */\n      0x20\n        /* \"#utility.yul\":19320:19323   */\n      dup3\n        /* \"#utility.yul\":19316:19330   */\n      add\n        /* \"#utility.yul\":19308:19330   */\n      swap1\n      pop\n        /* \"#utility.yul\":19205:19337   */\n      swap2\n      swap1\n      pop\n      jump\t// out\n        /* \"#utility.yul\":19343:19522   */\n    tag_542:\n        /* \"#utility.yul\":19412:19422   */\n      0x00\n        /* \"#utility.yul\":19433:19479   */\n      tag_792\n        /* \"#utility.yul\":19475:19478   */\n      dup4\n        /* \"#utility.yul\":19467:19473   */\n      dup4\n        /* \"#utility.yul\":19433:19479   */\n      tag_496\n      jump\t// in\n    tag_792:\n        /* \"#utility.yul\":19511:19515   */\n      0x20\n        /* \"#utility.yul\":19506:19509   */\n      dup4\n        /* \"#utility.yul\":19502:19516   */\n      add\n        /* \"#utility.yul\":19488:19516   */\n      swap1\n      pop\n        /* \"#utility.yul\":19343:19522   */\n      swap3\n      swap2\n      pop\n      pop\n      jump\t// out\n        /* \"#utility.yul\":19528:19641   */\n    tag_543:\n        /* \"#utility.yul\":19598:19602   */\n      0x00\n        /* \"#utility.yul\":19630:19634   */\n      0x20\n        /* \"#utility.yul\":19625:19628   */\n      dup3\n        /* \"#utility.yul\":19621:19635   */\n      add\n        /* \"#utility.yul\":19613:19635   */\n      swap1\n      pop\n        /* \"#utility.yul\":19528:19641   */\n      swap2\n      swap1\n      pop\n      jump\t// out\n        /* \"#utility.yul\":19677:20409   */\n    tag_544:\n        /* \"#utility.yul\":19796:19799   */\n      0x00\n        /* \"#utility.yul\":19825:19879   */\n      tag_795\n        /* \"#utility.yul\":19873:19878   */\n      dup3\n        /* \"#utility.yul\":19825:19879   */\n      tag_539\n      jump\t// in\n    tag_795:\n        /* \"#utility.yul\":19895:19981   */\n      tag_796\n        /* \"#utility.yul\":19974:19980   */\n      dup2\n        /* \"#utility.yul\":19969:19972   */\n      dup6\n        /* \"#utility.yul\":19895:19981   */\n      tag_540\n      jump\t// in\n    tag_796:\n        /* \"#utility.yul\":19888:19981   */\n      swap4\n      pop\n        /* \"#utility.yul\":20005:20061   */\n      tag_797\n        /* \"#utility.yul\":20055:20060   */\n      dup4\n        /* \"#utility.yul\":20005:20061   */\n      tag_541\n      jump\t// in\n    tag_797:\n        /* \"#utility.yul\":20084:20091   */\n      dup1\n        /* \"#utility.yul\":20115:20116   */\n      0x00\n        /* \"#utility.yul\":20100:20384   */\n    tag_798:\n        /* \"#utility.yul\":20125:20131   */\n      dup4\n        /* \"#utility.yul\":20122:20123   */\n      dup2\n        /* \"#utility.yul\":20119:20132   */\n      lt\n        /* \"#utility.yul\":20100:20384   */\n      iszero\n      tag_800\n      jumpi\n        /* \"#utility.yul\":20201:20207   */\n      dup2\n        /* \"#utility.yul\":20195:20208   */\n      mload\n        /* \"#utility.yul\":20228:20291   */\n      tag_801\n        /* \"#utility.yul\":20287:20290   */\n      dup9\n        /* \"#utility.yul\":20272:20285   */\n      dup3\n        /* \"#utility.yul\":20228:20291   */\n      tag_542\n      jump\t// in\n    tag_801:\n        /* \"#utility.yul\":20221:20291   */\n      swap8\n      pop\n        /* \"#utility.yul\":20314:20374   */\n      tag_802\n        /* \"#utility.yul\":20367:20373   */\n      dup4\n        /* \"#utility.yul\":20314:20374   */\n      tag_543\n      jump\t// in\n    tag_802:\n        /* \"#utility.yul\":20304:20374   */\n      swap3\n      pop\n        /* \"#utility.yul\":20160:20384   */\n      pop\n        /* \"#utility.yul\":20147:20148   */\n      0x01\n        /* \"#utility.yul\":20144:20145   */\n      dup2\n        /* \"#utility.yul\":20140:20149   */\n      add\n        /* \"#utility.yul\":20135:20149   */\n      swap1\n      pop\n        /* \"#utility.yul\":20100:20384   */\n      jump(tag_798)\n    tag_800:\n        /* \"#utility.yul\":20104:20118   */\n      pop\n        /* \"#utility.yul\":20400:20403   */\n      dup6\n        /* \"#utility.yul\":20393:20403   */\n      swap4\n      pop\n        /* \"#utility.yul\":19801:20409   */\n      pop\n      pop\n      pop\n        /* \"#utility.yul\":19677:20409   */\n      swap3\n      swap2\n      pop\n      pop\n      jump\t// out\n        /* \"#utility.yul\":20415:20788   */\n    tag_130:\n        /* \"#utility.yul\":20558:20562   */\n      0x00\n        /* \"#utility.yul\":20596:20598   */\n      0x20\n        /* \"#utility.yul\":20585:20594   */\n      dup3\n        /* \"#utility.yul\":20581:20599   */\n      add\n        /* \"#utility.yul\":20573:20599   */\n      swap1\n      pop\n        /* \"#utility.yul\":20645:20654   */\n      dup2\n        /* \"#utility.yul\":20639:20643   */\n      dup2\n        /* \"#utility.yul\":20635:20655   */\n      sub\n        /* \"#utility.yul\":20631:20632   */\n      0x00\n        /* \"#utility.yul\":20620:20629   */\n      dup4\n        /* \"#utility.yul\":20616:20633   */\n      add\n        /* \"#utility.yul\":20609:20656   */\n      mstore\n        /* \"#utility.yul\":20673:20781   */\n      tag_804\n        /* \"#utility.yul\":20776:20780   */\n      dup2\n        /* \"#utility.yul\":20767:20773   */\n      dup5\n        /* \"#utility.yul\":20673:20781   */\n      tag_544\n      jump\t// in\n    tag_804:\n        /* \"#utility.yul\":20665:20781   */\n      swap1\n      pop\n        /* \"#utility.yul\":20415:20788   */\n      swap3\n      swap2\n      pop\n      pop\n      jump\t// out\n        /* \"#utility.yul\":20794:21705   */\n    tag_139:\n        /* \"#utility.yul\":20889:20895   */\n      0x00\n        /* \"#utility.yul\":20897:20903   */\n      dup1\n        /* \"#utility.yul\":20905:20911   */\n      0x00\n        /* \"#utility.yul\":20913:20919   */\n      dup1\n        /* \"#utility.yul\":20921:20927   */\n      0x00\n        /* \"#utility.yul\":20970:20973   */\n      0xa0\n        /* \"#utility.yul\":20958:20967   */\n      dup7\n        /* \"#utility.yul\":20949:20956   */\n      dup9\n        /* \"#utility.yul\":20945:20968   */\n      sub\n        /* \"#utility.yul\":20941:20974   */\n      slt\n        /* \"#utility.yul\":20938:21058   */\n      iszero\n      tag_806\n      jumpi\n        /* \"#utility.yul\":20977:21056   */\n      tag_807\n      tag_488\n      jump\t// in\n    tag_807:\n        /* \"#utility.yul\":20938:21058   */\n    tag_806:\n        /* \"#utility.yul\":21097:21098   */\n      0x00\n        /* \"#utility.yul\":21122:21175   */\n      tag_808\n        /* \"#utility.yul\":21167:21174   */\n      dup9\n        /* \"#utility.yul\":21158:21164   */\n      dup3\n        /* \"#utility.yul\":21147:21156   */\n      dup10\n        /* \"#utility.yul\":21143:21165   */\n      add\n        /* \"#utility.yul\":21122:21175   */\n      tag_492\n      jump\t// in\n    tag_808:\n        /* \"#utility.yul\":21112:21175   */\n      swap6\n      pop\n        /* \"#utility.yul\":21068:21185   */\n      pop\n        /* \"#utility.yul\":21224:21226   */\n      0x20\n        /* \"#utility.yul\":21250:21303   */\n      tag_809\n        /* \"#utility.yul\":21295:21302   */\n      dup9\n        /* \"#utility.yul\":21286:21292   */\n      dup3\n        /* \"#utility.yul\":21275:21284   */\n      dup10\n        /* \"#utility.yul\":21271:21293   */\n      add\n        /* \"#utility.yul\":21250:21303   */\n      tag_492\n      jump\t// in\n    tag_809:\n        /* \"#utility.yul\":21240:21303   */\n      swap5\n      pop\n        /* \"#utility.yul\":21195:21313   */\n      pop\n        /* \"#utility.yul\":21352:21354   */\n      0x40\n        /* \"#utility.yul\":21378:21431   */\n      tag_810\n        /* \"#utility.yul\":21423:21430   */\n      dup9\n        /* \"#utility.yul\":21414:21420   */\n      dup3\n        /* \"#utility.yul\":21403:21412   */\n      dup10\n        /* \"#utility.yul\":21399:21421   */\n      add\n        /* \"#utility.yul\":21378:21431   */\n      tag_492\n      jump\t// in\n    tag_810:\n        /* \"#utility.yul\":21368:21431   */\n      swap4\n      pop\n        /* \"#utility.yul\":21323:21441   */\n      pop\n        /* \"#utility.yul\":21480:21482   */\n      0x60\n        /* \"#utility.yul\":21506:21559   */\n      tag_811\n        /* \"#utility.yul\":21551:21558   */\n      dup9\n        /* \"#utility.yul\":21542:21548   */\n      dup3\n        /* \"#utility.yul\":21531:21540   */\n      dup10\n        /* \"#utility.yul\":21527:21549   */\n      add\n        /* \"#utility.yul\":21506:21559   */\n      tag_492\n      jump\t// in\n    tag_811:\n        /* \"#utility.yul\":21496:21559   */\n      swap3\n      pop\n        /* \"#utility.yul\":21451:21569   */\n      pop\n        /* \"#utility.yul\":21608:21611   */\n      0x80\n        /* \"#utility.yul\":21635:21688   */\n      tag_812\n        /* \"#utility.yul\":21680:21687   */\n      dup9\n        /* \"#utility.yul\":21671:21677   */\n      dup3\n        /* \"#utility.yul\":21660:21669   */\n      dup10\n        /* \"#utility.yul\":21656:21678   */\n      add\n        /* \"#utility.yul\":21635:21688   */\n      tag_508\n      jump\t// in\n    tag_812:\n        /* \"#utility.yul\":21625:21688   */\n      swap2\n      pop\n        /* \"#utility.yul\":21579:21698   */\n      pop\n        /* \"#utility.yul\":20794:21705   */\n      swap3\n      swap6\n      pop\n      swap3\n      swap6\n      swap1\n      swap4\n      pop\n      jump\t// out\n        /* \"#utility.yul\":21711:22179   */\n    tag_144:\n        /* \"#utility.yul\":21776:21782   */\n      0x00\n        /* \"#utility.yul\":21784:21790   */\n      dup1\n        /* \"#utility.yul\":21833:21835   */\n      0x40\n        /* \"#utility.yul\":21821:21830   */\n      dup4\n        /* \"#utility.yul\":21812:21819   */\n      dup6\n        /* \"#utility.yul\":21808:21831   */\n      sub\n        /* \"#utility.yul\":21804:21836   */\n      slt\n        /* \"#utility.yul\":21801:21920   */\n      iszero\n      tag_814\n      jumpi\n        /* \"#utility.yul\":21839:21918   */\n      tag_815\n      tag_488\n      jump\t// in\n    tag_815:\n        /* \"#utility.yul\":21801:21920   */\n    tag_814:\n        /* \"#utility.yul\":21959:21960   */\n      0x00\n        /* \"#utility.yul\":21984:22037   */\n      tag_816\n        /* \"#utility.yul\":22029:22036   */\n      dup6\n        /* \"#utility.yul\":22020:22026   */\n      dup3\n        /* \"#utility.yul\":22009:22018   */\n      dup7\n        /* \"#utility.yul\":22005:22027   */\n      add\n        /* \"#utility.yul\":21984:22037   */\n      tag_508\n      jump\t// in\n    tag_816:\n        /* \"#utility.yul\":21974:22037   */\n      swap3\n      pop\n        /* \"#utility.yul\":21930:22047   */\n      pop\n        /* \"#utility.yul\":22086:22088   */\n      0x20\n        /* \"#utility.yul\":22112:22162   */\n      tag_817\n        /* \"#utility.yul\":22154:22161   */\n      dup6\n        /* \"#utility.yul\":22145:22151   */\n      dup3\n        /* \"#utility.yul\":22134:22143   */\n      dup7\n        /* \"#utility.yul\":22130:22152   */\n      add\n        /* \"#utility.yul\":22112:22162   */\n      tag_495\n      jump\t// in\n    tag_817:\n        /* \"#utility.yul\":22102:22162   */\n      swap2\n      pop\n        /* \"#utility.yul\":22057:22172   */\n      pop\n        /* \"#utility.yul\":21711:22179   */\n      swap3\n      pop\n      swap3\n      swap1\n      pop\n      jump\t// out\n        /* \"#utility.yul\":22185:22726   */\n    tag_155:\n        /* \"#utility.yul\":22356:22360   */\n      0x00\n        /* \"#utility.yul\":22394:22397   */\n      0x80\n        /* \"#utility.yul\":22383:22392   */\n      dup3\n        /* \"#utility.yul\":22379:22398   */\n      add\n        /* \"#utility.yul\":22371:22398   */\n      swap1\n      pop\n        /* \"#utility.yul\":22408:22479   */\n      tag_819\n        /* \"#utility.yul\":22476:22477   */\n      0x00\n        /* \"#utility.yul\":22465:22474   */\n      dup4\n        /* \"#utility.yul\":22461:22478   */\n      add\n        /* \"#utility.yul\":22452:22458   */\n      dup8\n        /* \"#utility.yul\":22408:22479   */\n      tag_509\n      jump\t// in\n    tag_819:\n        /* \"#utility.yul\":22489:22561   */\n      tag_820\n        /* \"#utility.yul\":22557:22559   */\n      0x20\n        /* \"#utility.yul\":22546:22555   */\n      dup4\n        /* \"#utility.yul\":22542:22560   */\n      add\n        /* \"#utility.yul\":22533:22539   */\n      dup7\n        /* \"#utility.yul\":22489:22561   */\n      tag_509\n      jump\t// in\n    tag_820:\n        /* \"#utility.yul\":22571:22637   */\n      tag_821\n        /* \"#utility.yul\":22633:22635   */\n      0x40\n        /* \"#utility.yul\":22622:22631   */\n      dup4\n        /* \"#utility.yul\":22618:22636   */\n      add\n        /* \"#utility.yul\":22609:22615   */\n      dup6\n        /* \"#utility.yul\":22571:22637   */\n      tag_523\n      jump\t// in\n    tag_821:\n        /* \"#utility.yul\":22647:22719   */\n      tag_822\n        /* \"#utility.yul\":22715:22717   */\n      0x60\n        /* \"#utility.yul\":22704:22713   */\n      dup4\n        /* \"#utility.yul\":22700:22718   */\n      add\n        /* \"#utility.yul\":22691:22697   */\n      dup5\n        /* \"#utility.yul\":22647:22719   */\n      tag_509\n      jump\t// in\n    tag_822:\n        /* \"#utility.yul\":22185:22726   */\n      swap6\n      swap5\n      pop\n      pop\n      pop\n      pop\n      pop\n      jump\t// out\n        /* \"#utility.yul\":22732:23386   */\n    tag_159:\n        /* \"#utility.yul\":22810:22816   */\n      0x00\n        /* \"#utility.yul\":22818:22824   */\n      dup1\n        /* \"#utility.yul\":22867:22869   */\n      0x40\n        /* \"#utility.yul\":22855:22864   */\n      dup4\n        /* \"#utility.yul\":22846:22853   */\n      dup6\n        /* \"#utility.yul\":22842:22865   */\n      sub\n        /* \"#utility.yul\":22838:22870   */\n      slt\n        /* \"#utility.yul\":22835:22954   */\n      iszero\n      tag_824\n      jumpi\n        /* \"#utility.yul\":22873:22952   */\n      tag_825\n      tag_488\n      jump\t// in\n    tag_825:\n        /* \"#utility.yul\":22835:22954   */\n    tag_824:\n        /* \"#utility.yul\":22993:22994   */\n      0x00\n        /* \"#utility.yul\":23018:23071   */\n      tag_826\n        /* \"#utility.yul\":23063:23070   */\n      dup6\n        /* \"#utility.yul\":23054:23060   */\n      dup3\n        /* \"#utility.yul\":23043:23052   */\n      dup7\n        /* \"#utility.yul\":23039:23061   */\n      add\n        /* \"#utility.yul\":23018:23071   */\n      tag_492\n      jump\t// in\n    tag_826:\n        /* \"#utility.yul\":23008:23071   */\n      swap3\n      pop\n        /* \"#utility.yul\":22964:23081   */\n      pop\n        /* \"#utility.yul\":23148:23150   */\n      0x20\n        /* \"#utility.yul\":23137:23146   */\n      dup4\n        /* \"#utility.yul\":23133:23151   */\n      add\n        /* \"#utility.yul\":23120:23152   */\n      calldataload\n        /* \"#utility.yul\":23179:23197   */\n      0xffffffffffffffff\n        /* \"#utility.yul\":23171:23177   */\n      dup2\n        /* \"#utility.yul\":23168:23198   */\n      gt\n        /* \"#utility.yul\":23165:23282   */\n      iszero\n      tag_827\n      jumpi\n        /* \"#utility.yul\":23201:23280   */\n      tag_828\n      tag_489\n      jump\t// in\n    tag_828:\n        /* \"#utility.yul\":23165:23282   */\n    tag_827:\n        /* \"#utility.yul\":23306:23369   */\n      tag_829\n        /* \"#utility.yul\":23361:23368   */\n      dup6\n        /* \"#utility.yul\":23352:23358   */\n      dup3\n        /* \"#utility.yul\":23341:23350   */\n      dup7\n        /* \"#utility.yul\":23337:23359   */\n      add\n        /* \"#utility.yul\":23306:23369   */\n      tag_535\n      jump\t// in\n    tag_829:\n        /* \"#utility.yul\":23296:23369   */\n      swap2\n      pop\n        /* \"#utility.yul\":23091:23379   */\n      pop\n        /* \"#utility.yul\":22732:23386   */\n      swap3\n      pop\n      swap3\n      swap1\n      pop\n      jump\t// out\n        /* \"#utility.yul\":23392:24278   */\n    tag_170:\n        /* \"#utility.yul\":23653:23657   */\n      0x00\n        /* \"#utility.yul\":23691:23694   */\n      0xe0\n        /* \"#utility.yul\":23680:23689   */\n      dup3\n        /* \"#utility.yul\":23676:23695   */\n      add\n        /* \"#utility.yul\":23668:23695   */\n      swap1\n      pop\n        /* \"#utility.yul\":23705:23776   */\n      tag_831\n        /* \"#utility.yul\":23773:23774   */\n      0x00\n        /* \"#utility.yul\":23762:23771   */\n      dup4\n        /* \"#utility.yul\":23758:23775   */\n      add\n        /* \"#utility.yul\":23749:23755   */\n      dup11\n        /* \"#utility.yul\":23705:23776   */\n      tag_509\n      jump\t// in\n    tag_831:\n        /* \"#utility.yul\":23786:23858   */\n      tag_832\n        /* \"#utility.yul\":23854:23856   */\n      0x20\n        /* \"#utility.yul\":23843:23852   */\n      dup4\n        /* \"#utility.yul\":23839:23857   */\n      add\n        /* \"#utility.yul\":23830:23836   */\n      dup10\n        /* \"#utility.yul\":23786:23858   */\n      tag_509\n      jump\t// in\n    tag_832:\n        /* \"#utility.yul\":23868:23940   */\n      tag_833\n        /* \"#utility.yul\":23936:23938   */\n      0x40\n        /* \"#utility.yul\":23925:23934   */\n      dup4\n        /* \"#utility.yul\":23921:23939   */\n      add\n        /* \"#utility.yul\":23912:23918   */\n      dup9\n        /* \"#utility.yul\":23868:23940   */\n      tag_509\n      jump\t// in\n    tag_833:\n        /* \"#utility.yul\":23950:24022   */\n      tag_834\n        /* \"#utility.yul\":24018:24020   */\n      0x60\n        /* \"#utility.yul\":24007:24016   */\n      dup4\n        /* \"#utility.yul\":24003:24021   */\n      add\n        /* \"#utility.yul\":23994:24000   */\n      dup8\n        /* \"#utility.yul\":23950:24022   */\n      tag_509\n      jump\t// in\n    tag_834:\n        /* \"#utility.yul\":24032:24105   */\n      tag_835\n        /* \"#utility.yul\":24100:24103   */\n      0x80\n        /* \"#utility.yul\":24089:24098   */\n      dup4\n        /* \"#utility.yul\":24085:24104   */\n      add\n        /* \"#utility.yul\":24076:24082   */\n      dup7\n        /* \"#utility.yul\":24032:24105   */\n      tag_509\n      jump\t// in\n    tag_835:\n        /* \"#utility.yul\":24115:24188   */\n      tag_836\n        /* \"#utility.yul\":24183:24186   */\n      0xa0\n        /* \"#utility.yul\":24172:24181   */\n      dup4\n        /* \"#utility.yul\":24168:24187   */\n      add\n        /* \"#utility.yul\":24159:24165   */\n      dup6\n        /* \"#utility.yul\":24115:24188   */\n      tag_509\n      jump\t// in\n    tag_836:\n        /* \"#utility.yul\":24198:24271   */\n      tag_837\n        /* \"#utility.yul\":24266:24269   */\n      0xc0\n        /* \"#utility.yul\":24255:24264   */\n      dup4\n        /* \"#utility.yul\":24251:24270   */\n      add\n        /* \"#utility.yul\":24242:24248   */\n      dup5\n        /* \"#utility.yul\":24198:24271   */\n      tag_509\n      jump\t// in\n    tag_837:\n        /* \"#utility.yul\":23392:24278   */\n      swap9\n      swap8\n      pop\n      pop\n      pop\n      pop\n      pop\n      pop\n      pop\n      pop\n      jump\t// out\n        /* \"#utility.yul\":24284:24404   */\n    tag_545:\n        /* \"#utility.yul\":24356:24379   */\n      tag_839\n        /* \"#utility.yul\":24373:24378   */\n      dup2\n        /* \"#utility.yul\":24356:24379   */\n      tag_497\n      jump\t// in\n    tag_839:\n        /* \"#utility.yul\":24349:24354   */\n      dup2\n        /* \"#utility.yul\":24346:24380   */\n      eq\n        /* \"#utility.yul\":24336:24398   */\n      tag_840\n      jumpi\n        /* \"#utility.yul\":24394:24395   */\n      0x00\n        /* \"#utility.yul\":24391:24392   */\n      dup1\n        /* \"#utility.yul\":24384:24396   */\n      revert\n        /* \"#utility.yul\":24336:24398   */\n    tag_840:\n        /* \"#utility.yul\":24284:24404   */\n      pop\n      jump\t// out\n        /* \"#utility.yul\":24410:24547   */\n    tag_546:\n        /* \"#utility.yul\":24455:24460   */\n      0x00\n        /* \"#utility.yul\":24493:24499   */\n      dup2\n        /* \"#utility.yul\":24480:24500   */\n      calldataload\n        /* \"#utility.yul\":24471:24500   */\n      swap1\n      pop\n        /* \"#utility.yul\":24509:24541   */\n      tag_842\n        /* \"#utility.yul\":24535:24540   */\n      dup2\n        /* \"#utility.yul\":24509:24541   */\n      tag_545\n      jump\t// in\n    tag_842:\n        /* \"#utility.yul\":24410:24547   */\n      swap3\n      swap2\n      pop\n      pop\n      jump\t// out\n        /* \"#utility.yul\":24553:25482   */\n    tag_178:\n        /* \"#utility.yul\":24657:24663   */\n      0x00\n        /* \"#utility.yul\":24665:24671   */\n      dup1\n        /* \"#utility.yul\":24673:24679   */\n      0x00\n        /* \"#utility.yul\":24681:24687   */\n      dup1\n        /* \"#utility.yul\":24689:24695   */\n      0x00\n        /* \"#utility.yul\":24738:24741   */\n      0xa0\n        /* \"#utility.yul\":24726:24735   */\n      dup7\n        /* \"#utility.yul\":24717:24724   */\n      dup9\n        /* \"#utility.yul\":24713:24736   */\n      sub\n        /* \"#utility.yul\":24709:24742   */\n      slt\n        /* \"#utility.yul\":24706:24826   */\n      iszero\n      tag_844\n      jumpi\n        /* \"#utility.yul\":24745:24824   */\n      tag_845\n      tag_488\n      jump\t// in\n    tag_845:\n        /* \"#utility.yul\":24706:24826   */\n    tag_844:\n        /* \"#utility.yul\":24865:24866   */\n      0x00\n        /* \"#utility.yul\":24890:24943   */\n      tag_846\n        /* \"#utility.yul\":24935:24942   */\n      dup9\n        /* \"#utility.yul\":24926:24932   */\n      dup3\n        /* \"#utility.yul\":24915:24924   */\n      dup10\n        /* \"#utility.yul\":24911:24933   */\n      add\n        /* \"#utility.yul\":24890:24943   */\n      tag_492\n      jump\t// in\n    tag_846:\n        /* \"#utility.yul\":24880:24943   */\n      swap6\n      pop\n        /* \"#utility.yul\":24836:24953   */\n      pop\n        /* \"#utility.yul\":24992:24994   */\n      0x20\n        /* \"#utility.yul\":25018:25070   */\n      tag_847\n        /* \"#utility.yul\":25062:25069   */\n      dup9\n        /* \"#utility.yul\":25053:25059   */\n      dup3\n        /* \"#utility.yul\":25042:25051   */\n      dup10\n        /* \"#utility.yul\":25038:25060   */\n      add\n        /* \"#utility.yul\":25018:25070   */\n      tag_546\n      jump\t// in\n    tag_847:\n        /* \"#utility.yul\":25008:25070   */\n      swap5\n      pop\n        /* \"#utility.yul\":24963:25080   */\n      pop\n        /* \"#utility.yul\":25119:25121   */\n      0x40\n        /* \"#utility.yul\":25145:25197   */\n      tag_848\n        /* \"#utility.yul\":25189:25196   */\n      dup9\n        /* \"#utility.yul\":25180:25186   */\n      dup3\n        /* \"#utility.yul\":25169:25178   */\n      dup10\n        /* \"#utility.yul\":25165:25187   */\n      add\n        /* \"#utility.yul\":25145:25197   */\n      tag_546\n      jump\t// in\n    tag_848:\n        /* \"#utility.yul\":25135:25197   */\n      swap4\n      pop\n        /* \"#utility.yul\":25090:25207   */\n      pop\n        /* \"#utility.yul\":25246:25248   */\n      0x60\n        /* \"#utility.yul\":25272:25325   */\n      tag_849\n        /* \"#utility.yul\":25317:25324   */\n      dup9\n        /* \"#utility.yul\":25308:25314   */\n      dup3\n        /* \"#utility.yul\":25297:25306   */\n      dup10\n        /* \"#utility.yul\":25293:25315   */\n      add\n        /* \"#utility.yul\":25272:25325   */\n      tag_492\n      jump\t// in\n    tag_849:\n        /* \"#utility.yul\":25262:25325   */\n      swap3\n      pop\n        /* \"#utility.yul\":25217:25335   */\n      pop\n        /* \"#utility.yul\":25374:25377   */\n      0x80\n        /* \"#utility.yul\":25401:25465   */\n      tag_850\n        /* \"#utility.yul\":25457:25464   */\n      dup9\n        /* \"#utility.yul\":25448:25454   */\n      dup3\n        /* \"#utility.yul\":25437:25446   */\n      dup10\n        /* \"#utility.yul\":25433:25455   */\n      add\n        /* \"#utility.yul\":25401:25465   */\n      tag_522\n      jump\t// in\n    tag_850:\n        /* \"#utility.yul\":25391:25465   */\n      swap2\n      pop\n        /* \"#utility.yul\":25345:25475   */\n      pop\n        /* \"#utility.yul\":24553:25482   */\n      swap3\n      swap6\n      pop\n      swap3\n      swap6\n      swap1\n      swap4\n      pop\n      jump\t// out\n        /* \"#utility.yul\":25488:25657   */\n    tag_547:\n        /* \"#utility.yul\":25628:25649   */\n      0x5374617220646f6573206e6f7420657869737400000000000000000000000000\n        /* \"#utility.yul\":25624:25625   */\n      0x00\n        /* \"#utility.yul\":25616:25622   */\n      dup3\n        /* \"#utility.yul\":25612:25626   */\n      add\n        /* \"#utility.yul\":25605:25650   */\n      mstore\n        /* \"#utility.yul\":25488:25657   */\n      pop\n      jump\t// out\n        /* \"#utility.yul\":25663:26029   */\n    tag_548:\n        /* \"#utility.yul\":25805:25808   */\n      0x00\n        /* \"#utility.yul\":25826:25893   */\n      tag_853\n        /* \"#utility.yul\":25890:25892   */\n      0x13\n        /* \"#utility.yul\":25885:25888   */\n      dup4\n        /* \"#utility.yul\":25826:25893   */\n      tag_536\n      jump\t// in\n    tag_853:\n        /* \"#utility.yul\":25819:25893   */\n      swap2\n      pop\n        /* \"#utility.yul\":25902:25995   */\n      tag_854\n        /* \"#utility.yul\":25991:25994   */\n      dup3\n        /* \"#utility.yul\":25902:25995   */\n      tag_547\n      jump\t// in\n    tag_854:\n        /* \"#utility.yul\":26020:26022   */\n      0x20\n        /* \"#utility.yul\":26015:26018   */\n      dup3\n        /* \"#utility.yul\":26011:26023   */\n      add\n        /* \"#utility.yul\":26004:26023   */\n      swap1\n      pop\n        /* \"#utility.yul\":25663:26029   */\n      swap2\n      swap1\n      pop\n      jump\t// out\n        /* \"#utility.yul\":26035:26454   */\n    tag_197:\n        /* \"#utility.yul\":26201:26205   */\n      0x00\n        /* \"#utility.yul\":26239:26241   */\n      0x20\n        /* \"#utility.yul\":26228:26237   */\n      dup3\n        /* \"#utility.yul\":26224:26242   */\n      add\n        /* \"#utility.yul\":26216:26242   */\n      swap1\n      pop\n        /* \"#utility.yul\":26288:26297   */\n      dup2\n        /* \"#utility.yul\":26282:26286   */\n      dup2\n        /* \"#utility.yul\":26278:26298   */\n      sub\n        /* \"#utility.yul\":26274:26275   */\n      0x00\n        /* \"#utility.yul\":26263:26272   */\n      dup4\n        /* \"#utility.yul\":26259:26276   */\n      add\n        /* \"#utility.yul\":26252:26299   */\n      mstore\n        /* \"#utility.yul\":26316:26447   */\n      tag_856\n        /* \"#utility.yul\":26442:26446   */\n      dup2\n        /* \"#utility.yul\":26316:26447   */\n      tag_548\n      jump\t// in\n    tag_856:\n        /* \"#utility.yul\":26308:26447   */\n      swap1\n      pop\n        /* \"#utility.yul\":26035:26454   */\n      swap2\n      swap1\n      pop\n      jump\t// out\n        /* \"#utility.yul\":26460:26630   */\n    tag_549:\n        /* \"#utility.yul\":26600:26622   */\n      0x496e76616c6964207374616b6520616d6f756e74000000000000000000000000\n        /* \"#utility.yul\":26596:26597   */\n      0x00\n        /* \"#utility.yul\":26588:26594   */\n      dup3\n        /* \"#utility.yul\":26584:26598   */\n      add\n        /* \"#utility.yul\":26577:26623   */\n      mstore\n        /* \"#utility.yul\":26460:26630   */\n      pop\n      jump\t// out\n        /* \"#utility.yul\":26636:27002   */\n    tag_550:\n        /* \"#utility.yul\":26778:26781   */\n      0x00\n        /* \"#utility.yul\":26799:26866   */\n      tag_859\n        /* \"#utility.yul\":26863:26865   */\n      0x14\n        /* \"#utility.yul\":26858:26861   */\n      dup4\n        /* \"#utility.yul\":26799:26866   */\n      tag_536\n      jump\t// in\n    tag_859:\n        /* \"#utility.yul\":26792:26866   */\n      swap2\n      pop\n        /* \"#utility.yul\":26875:26968   */\n      tag_860\n        /* \"#utility.yul\":26964:26967   */\n      dup3\n        /* \"#utility.yul\":26875:26968   */\n      tag_549\n      jump\t// in\n    tag_860:\n        /* \"#utility.yul\":26993:26995   */\n      0x20\n        /* \"#utility.yul\":26988:26991   */\n      dup3\n        /* \"#utility.yul\":26984:26996   */\n      add\n        /* \"#utility.yul\":26977:26996   */\n      swap1\n      pop\n        /* \"#utility.yul\":26636:27002   */\n      swap2\n      swap1\n      pop\n      jump\t// out\n        /* \"#utility.yul\":27008:27427   */\n    tag_209:\n        /* \"#utility.yul\":27174:27178   */\n      0x00\n        /* \"#utility.yul\":27212:27214   */\n      0x20\n        /* \"#utility.yul\":27201:27210   */\n      dup3\n        /* \"#utility.yul\":27197:27215   */\n      add\n        /* \"#utility.yul\":27189:27215   */\n      swap1\n      pop\n        /* \"#utility.yul\":27261:27270   */\n      dup2\n        /* \"#utility.yul\":27255:27259   */\n      dup2\n        /* \"#utility.yul\":27251:27271   */\n      sub\n        /* \"#utility.yul\":27247:27248   */\n      0x00\n        /* \"#utility.yul\":27236:27245   */\n      dup4\n        /* \"#utility.yul\":27232:27249   */\n      add\n        /* \"#utility.yul\":27225:27272   */\n      mstore\n        /* \"#utility.yul\":27289:27420   */\n      tag_862\n        /* \"#utility.yul\":27415:27419   */\n      dup2\n        /* \"#utility.yul\":27289:27420   */\n      tag_550\n      jump\t// in\n    tag_862:\n        /* \"#utility.yul\":27281:27420   */\n      swap1\n      pop\n        /* \"#utility.yul\":27008:27427   */\n      swap2\n      swap1\n      pop\n      jump\t// out\n        /* \"#utility.yul\":27433:27598   */\n    tag_551:\n        /* \"#utility.yul\":27573:27590   */\n      0x53746172206e6f74206163746976650000000000000000000000000000000000\n        /* \"#utility.yul\":27569:27570   */\n      0x00\n        /* \"#utility.yul\":27561:27567   */\n      dup3\n        /* \"#utility.yul\":27557:27571   */\n      add\n        /* \"#utility.yul\":27550:27591   */\n      mstore\n        /* \"#utility.yul\":27433:27598   */\n      pop\n      jump\t// out\n        /* \"#utility.yul\":27604:27970   */\n    tag_552:\n        /* \"#utility.yul\":27746:27749   */\n      0x00\n        /* \"#utility.yul\":27767:27834   */\n      tag_865\n        /* \"#utility.yul\":27831:27833   */\n      0x0f\n        /* \"#utility.yul\":27826:27829   */\n      dup4\n        /* \"#utility.yul\":27767:27834   */\n      tag_536\n      jump\t// in\n    tag_865:\n        /* \"#utility.yul\":27760:27834   */\n      swap2\n      pop\n        /* \"#utility.yul\":27843:27936   */\n      tag_866\n        /* \"#utility.yul\":27932:27935   */\n      dup3\n        /* \"#utility.yul\":27843:27936   */\n      tag_551\n      jump\t// in\n    tag_866:\n        /* \"#utility.yul\":27961:27963   */\n      0x20\n        /* \"#utility.yul\":27956:27959   */\n      dup3\n        /* \"#utility.yul\":27952:27964   */\n      add\n        /* \"#utility.yul\":27945:27964   */\n      swap1\n      pop\n        /* \"#utility.yul\":27604:27970   */\n      swap2\n      swap1\n      pop\n      jump\t// out\n        /* \"#utility.yul\":27976:28395   */\n    tag_213:\n        /* \"#utility.yul\":28142:28146   */\n      0x00\n        /* \"#utility.yul\":28180:28182   */\n      0x20\n        /* \"#utility.yul\":28169:28178   */\n      dup3\n        /* \"#utility.yul\":28165:28183   */\n      add\n        /* \"#utility.yul\":28157:28183   */\n      swap1\n      pop\n        /* \"#utility.yul\":28229:28238   */\n      dup2\n        /* \"#utility.yul\":28223:28227   */\n      dup2\n        /* \"#utility.yul\":28219:28239   */\n      sub\n        /* \"#utility.yul\":28215:28216   */\n      0x00\n        /* \"#utility.yul\":28204:28213   */\n      dup4\n        /* \"#utility.yul\":28200:28217   */\n      add\n        /* \"#utility.yul\":28193:28240   */\n      mstore\n        /* \"#utility.yul\":28257:28388   */\n      tag_868\n        /* \"#utility.yul\":28383:28387   */\n      dup2\n        /* \"#utility.yul\":28257:28388   */\n      tag_552\n      jump\t// in\n    tag_868:\n        /* \"#utility.yul\":28249:28388   */\n      swap1\n      pop\n        /* \"#utility.yul\":27976:28395   */\n      swap2\n      swap1\n      pop\n      jump\t// out\n        /* \"#utility.yul\":28401:28576   */\n    tag_553:\n        /* \"#utility.yul\":28541:28568   */\n      0x416c7265616479206861766520616374697665207374616b6500000000000000\n        /* \"#utility.yul\":28537:28538   */\n      0x00\n        /* \"#utility.yul\":28529:28535   */\n      dup3\n        /* \"#utility.yul\":28525:28539   */\n      add\n        /* \"#utility.yul\":28518:28569   */\n      mstore\n        /* \"#utility.yul\":28401:28576   */\n      pop\n      jump\t// out\n        /* \"#utility.yul\":28582:28948   */\n    tag_554:\n        /* \"#utility.yul\":28724:28727   */\n      0x00\n        /* \"#utility.yul\":28745:28812   */\n      tag_871\n        /* \"#utility.yul\":28809:28811   */\n      0x19\n        /* \"#utility.yul\":28804:28807   */\n      dup4\n        /* \"#utility.yul\":28745:28812   */\n      tag_536\n      jump\t// in\n    tag_871:\n        /* \"#utility.yul\":28738:28812   */\n      swap2\n      pop\n        /* \"#utility.yul\":28821:28914   */\n      tag_872\n        /* \"#utility.yul\":28910:28913   */\n      dup3\n        /* \"#utility.yul\":28821:28914   */\n      tag_553\n      jump\t// in\n    tag_872:\n        /* \"#utility.yul\":28939:28941   */\n      0x20\n        /* \"#utility.yul\":28934:28937   */\n      dup3\n        /* \"#utility.yul\":28930:28942   */\n      add\n        /* \"#utility.yul\":28923:28942   */\n      swap1\n      pop\n        /* \"#utility.yul\":28582:28948   */\n      swap2\n      swap1\n      pop\n      jump\t// out\n        /* \"#utility.yul\":28954:29373   */\n    tag_216:\n        /* \"#utility.yul\":29120:29124   */\n      0x00\n        /* \"#utility.yul\":29158:29160   */\n      0x20\n        /* \"#utility.yul\":29147:29156   */\n      dup3\n        /* \"#utility.yul\":29143:29161   */\n      add\n        /* \"#utility.yul\":29135:29161   */\n      swap1\n      pop\n        /* \"#utility.yul\":29207:29216   */\n      dup2\n        /* \"#utility.yul\":29201:29205   */\n      dup2\n        /* \"#utility.yul\":29197:29217   */\n      sub\n        /* \"#utility.yul\":29193:29194   */\n      0x00\n        /* \"#utility.yul\":29182:29191   */\n      dup4\n        /* \"#utility.yul\":29178:29195   */\n      add\n        /* \"#utility.yul\":29171:29218   */\n      mstore\n        /* \"#utility.yul\":29235:29366   */\n      tag_874\n        /* \"#utility.yul\":29361:29365   */\n      dup2\n        /* \"#utility.yul\":29235:29366   */\n      tag_554\n      jump\t// in\n    tag_874:\n        /* \"#utility.yul\":29227:29366   */\n      swap1\n      pop\n        /* \"#utility.yul\":28954:29373   */\n      swap2\n      swap1\n      pop\n      jump\t// out\n        /* \"#utility.yul\":29379:29559   */\n    tag_555:\n        /* \"#utility.yul\":29427:29504   */\n      0x4e487b7100000000000000000000000000000000000000000000000000000000\n        /* \"#utility.yul\":29424:29425   */\n      0x00\n        /* \"#utility.yul\":29417:29505   */\n      mstore\n        /* \"#utility.yul\":29524:29528   */\n      0x22\n        /* \"#utility.yul\":29521:29522   */\n      0x04\n        /* \"#utility.yul\":29514:29529   */\n      mstore\n        /* \"#utility.yul\":29548:29552   */\n      0x24\n        /* \"#utility.yul\":29545:29546   */\n      0x00\n        /* \"#utility.yul\":29538:29553   */\n      revert\n        /* \"#utility.yul\":29565:29885   */\n    tag_253:\n        /* \"#utility.yul\":29609:29615   */\n      0x00\n        /* \"#utility.yul\":29646:29647   */\n      0x02\n        /* \"#utility.yul\":29640:29644   */\n      dup3\n        /* \"#utility.yul\":29636:29648   */\n      div\n        /* \"#utility.yul\":29626:29648   */\n      swap1\n      pop\n        /* \"#utility.yul\":29693:29694   */\n      0x01\n        /* \"#utility.yul\":29687:29691   */\n      dup3\n        /* \"#utility.yul\":29683:29695   */\n      and\n        /* \"#utility.yul\":29714:29732   */\n      dup1\n        /* \"#utility.yul\":29704:29785   */\n      tag_877\n      jumpi\n        /* \"#utility.yul\":29770:29774   */\n      0x7f\n        /* \"#utility.yul\":29762:29768   */\n      dup3\n        /* \"#utility.yul\":29758:29775   */\n      and\n        /* \"#utility.yul\":29748:29775   */\n      swap2\n      pop\n        /* \"#utility.yul\":29704:29785   */\n    tag_877:\n        /* \"#utility.yul\":29832:29834   */\n      0x20\n        /* \"#utility.yul\":29824:29830   */\n      dup3\n        /* \"#utility.yul\":29821:29835   */\n      lt\n        /* \"#utility.yul\":29801:29819   */\n      dup2\n        /* \"#utility.yul\":29798:29836   */\n      sub\n        /* \"#utility.yul\":29795:29879   */\n      tag_878\n      jumpi\n        /* \"#utility.yul\":29851:29869   */\n      tag_879\n      tag_555\n      jump\t// in\n    tag_879:\n        /* \"#utility.yul\":29795:29879   */\n    tag_878:\n        /* \"#utility.yul\":29616:29885   */\n      pop\n        /* \"#utility.yul\":29565:29885   */\n      swap2\n      swap1\n      pop\n      jump\t// out\n        /* \"#utility.yul\":29891:30032   */\n    tag_556:\n        /* \"#utility.yul\":29940:29944   */\n      0x00\n        /* \"#utility.yul\":29963:29966   */\n      dup2\n        /* \"#utility.yul\":29955:29966   */\n      swap1\n      pop\n        /* \"#utility.yul\":29986:29989   */\n      dup2\n        /* \"#utility.yul\":29983:29984   */\n      0x00\n        /* \"#utility.yul\":29976:29990   */\n      mstore\n        /* \"#utility.yul\":30020:30024   */\n      0x20\n        /* \"#utility.yul\":30017:30018   */\n      0x00\n        /* \"#utility.yul\":30007:30025   */\n      keccak256\n        /* \"#utility.yul\":29999:30025   */\n      swap1\n      pop\n        /* \"#utility.yul\":29891:30032   */\n      swap2\n      swap1\n      pop\n      jump\t// out\n        /* \"#utility.yul\":30038:30131   */\n    tag_557:\n        /* \"#utility.yul\":30075:30081   */\n      0x00\n        /* \"#utility.yul\":30122:30124   */\n      0x20\n        /* \"#utility.yul\":30117:30119   */\n      0x1f\n        /* \"#utility.yul\":30110:30115   */\n      dup4\n        /* \"#utility.yul\":30106:30120   */\n      add\n        /* \"#utility.yul\":30102:30125   */\n      div\n        /* \"#utility.yul\":30092:30125   */\n      swap1\n      pop\n        /* \"#utility.yul\":30038:30131   */\n      swap2\n      swap1\n      pop\n      jump\t// out\n        /* \"#utility.yul\":30137:30244   */\n    tag_558:\n        /* \"#utility.yul\":30181:30189   */\n      0x00\n        /* \"#utility.yul\":30231:30236   */\n      dup3\n        /* \"#utility.yul\":30225:30229   */\n      dup3\n        /* \"#utility.yul\":30221:30237   */\n      shl\n        /* \"#utility.yul\":30200:30237   */\n      swap1\n      pop\n        /* \"#utility.yul\":30137:30244   */\n      swap3\n      swap2\n      pop\n      pop\n      jump\t// out\n        /* \"#utility.yul\":30250:30643   */\n    tag_559:\n        /* \"#utility.yul\":30319:30325   */\n      0x00\n        /* \"#utility.yul\":30369:30370   */\n      0x08\n        /* \"#utility.yul\":30357:30367   */\n      dup4\n        /* \"#utility.yul\":30353:30371   */\n      mul\n        /* \"#utility.yul\":30392:30489   */\n      tag_884\n        /* \"#utility.yul\":30422:30488   */\n      0xffffffffffffffffffffffffffffffffffffffffffffffffffffffffffffffff\n        /* \"#utility.yul\":30411:30420   */\n      dup3\n        /* \"#utility.yul\":30392:30489   */\n      tag_558\n      jump\t// in\n    tag_884:\n        /* \"#utility.yul\":30510:30549   */\n      tag_885\n        /* \"#utility.yul\":30540:30548   */\n      dup7\n        /* \"#utility.yul\":30529:30538   */\n      dup4\n        /* \"#utility.yul\":30510:30549   */\n      tag_558\n      jump\t// in\n    tag_885:\n        /* \"#utility.yul\":30498:30549   */\n      swap6\n      pop\n        /* \"#utility.yul\":30582:30586   */\n      dup1\n        /* \"#utility.yul\":30578:30587   */\n      not\n        /* \"#utility.yul\":30571:30576   */\n      dup5\n        /* \"#utility.yul\":30567:30588   */\n      and\n        /* \"#utility.yul\":30558:30588   */\n      swap4\n      pop\n        /* \"#utility.yul\":30631:30635   */\n      dup1\n        /* \"#utility.yul\":30621:30629   */\n      dup7\n        /* \"#utility.yul\":30617:30636   */\n      and\n        /* \"#utility.yul\":30610:30615   */\n      dup5\n        /* \"#utility.yul\":30607:30637   */\n      or\n        /* \"#utility.yul\":30597:30637   */\n      swap3\n      pop\n        /* \"#utility.yul\":30326:30643   */\n      pop\n      pop\n        /* \"#utility.yul\":30250:30643   */\n      swap4\n      swap3\n      pop\n      pop\n      pop\n      jump\t// out\n        /* \"#utility.yul\":30649:30709   */\n    tag_560:\n        /* \"#utility.yul\":30677:30680   */\n      0x00\n        /* \"#utility.yul\":30698:30703   */\n      dup2\n        /* \"#utility.yul\":30691:30703   */\n      swap1\n      pop\n        /* \"#utility.yul\":30649:30709   */\n      swap2\n      swap1\n      pop\n      jump\t// out\n        /* \"#utility.yul\":30715:30857   */\n    tag_561:\n        /* \"#utility.yul\":30765:30774   */\n      0x00\n        /* \"#utility.yul\":30798:30851   */\n      tag_888\n        /* \"#utility.yul\":30816:30850   */\n      tag_889\n        /* \"#utility.yul\":30825:30849   */\n      tag_890\n        /* \"#utility.yul\":30843:30848   */\n      dup5\n        /* \"#utility.yul\":30825:30849   */\n      tag_490\n      jump\t// in\n    tag_890:\n        /* \"#utility.yul\":30816:30850   */\n      tag_560\n      jump\t// in\n    tag_889:\n        /* \"#utility.yul\":30798:30851   */\n      tag_490\n      jump\t// in\n    tag_888:\n        /* \"#utility.yul\":30785:30851   */\n      swap1\n      pop\n        /* \"#utility.yul\":30715:30857   */\n      swap2\n      swap1\n      pop\n      jump\t// out\n        /* \"#utility.yul\":30863:30938   */\n    tag_562:\n        /* \"#utility.yul\":30906:30909   */\n      0x00\n        /* \"#utility.yul\":30927:30932   */\n      dup2\n        /* \"#utility.yul\":30920:30932   */\n      swap1\n      pop\n        /* \"#utility.yul\":30863:30938   */\n      swap2\n      swap1\n      pop\n      jump\t// out\n        /* \"#utility.yul\":30944:31213   */\n    tag_563:\n        /* \"#utility.yul\":31054:31093   */\n      tag_893\n        /* \"#utility.yul\":31085:31092   */\n      dup4\n        /* \"#utility.yul\":31054:31093   */\n      tag_561\n      jump\t// in\n    tag_893:\n        /* \"#utility.yul\":31115:31206   */\n      tag_894\n        /* \"#utility.yul\":31164:31205   */\n      tag_895\n        /* \"#utility.yul\":31188:31204   */\n      dup3\n        /* \"#utility.yul\":31164:31205   */\n      tag_562\n      jump\t// in\n    tag_895:\n        /* \"#utility.yul\":31156:31162   */\n      dup5\n        /* \"#utility.yul\":31149:31153   */\n      dup5\n        /* \"#utility.yul\":31143:31154   */\n      sload\n        /* \"#utility.yul\":31115:31206   */\n      tag_559\n      jump\t// in\n    tag_894:\n        /* \"#utility.yul\":31109:31113   */\n      dup3\n        /* \"#utility.yul\":31102:31207   */\n      sstore\n        /* \"#utility.yul\":31020:31213   */\n      pop\n        /* \"#utility.yul\":30944:31213   */\n      pop\n      pop\n      pop\n      jump\t// out\n        /* \"#utility.yul\":31219:31292   */\n    tag_564:\n        /* \"#utility.yul\":31264:31267   */\n      0x00\n        /* \"#utility.yul\":31219:31292   */\n      swap1\n      jump\t// out\n        /* \"#utility.yul\":31298:31487   */\n    tag_565:\n        /* \"#utility.yul\":31375:31407   */\n      tag_898\n      tag_564\n      jump\t// in\n    tag_898:\n        /* \"#utility.yul\":31416:31481   */\n      tag_899\n        /* \"#utility.yul\":31474:31480   */\n      dup2\n        /* \"#utility.yul\":31466:31472   */\n      dup5\n        /* \"#utility.yul\":31460:31464   */\n      dup5\n        /* \"#utility.yul\":31416:31481   */\n      tag_563\n      jump\t// in\n    tag_899:\n        /* \"#utility.yul\":31351:31487   */\n      pop\n        /* \"#utility.yul\":31298:31487   */\n      pop\n      pop\n      jump\t// out\n        /* \"#utility.yul\":31493:31679   */\n    tag_566:\n        /* \"#utility.yul\":31553:31673   */\n    tag_901:\n        /* \"#utility.yul\":31570:31573   */\n      dup2\n        /* \"#utility.yul\":31563:31568   */\n      dup2\n        /* \"#utility.yul\":31560:31574   */\n      lt\n        /* \"#utility.yul\":31553:31673   */\n      iszero\n      tag_903\n      jumpi\n        /* \"#utility.yul\":31624:31663   */\n      tag_904\n        /* \"#utility.yul\":31661:31662   */\n      0x00\n        /* \"#utility.yul\":31654:31659   */\n      dup3\n        /* \"#utility.yul\":31624:31663   */\n      tag_565\n      jump\t// in\n    tag_904:\n        /* \"#utility.yul\":31597:31598   */\n      0x01\n        /* \"#utility.yul\":31590:31595   */\n      dup2\n        /* \"#utility.yul\":31586:31599   */\n      add\n        /* \"#utility.yul\":31577:31599   */\n      swap1\n      pop\n        /* \"#utility.yul\":31553:31673   */\n      jump(tag_901)\n    tag_903:\n        /* \"#utility.yul\":31493:31679   */\n      pop\n      pop\n      jump\t// out\n        /* \"#utility.yul\":31685:32228   */\n    tag_567:\n        /* \"#utility.yul\":31786:31788   */\n      0x1f\n        /* \"#utility.yul\":31781:31784   */\n      dup3\n        /* \"#utility.yul\":31778:31789   */\n      gt\n        /* \"#utility.yul\":31775:32221   */\n      iszero\n      tag_906\n      jumpi\n        /* \"#utility.yul\":31820:31858   */\n      tag_907\n        /* \"#utility.yul\":31852:31857   */\n      dup2\n        /* \"#utility.yul\":31820:31858   */\n      tag_556\n      jump\t// in\n    tag_907:\n        /* \"#utility.yul\":31904:31933   */\n      tag_908\n        /* \"#utility.yul\":31922:31932   */\n      dup5\n        /* \"#utility.yul\":31904:31933   */\n      tag_557\n      jump\t// in\n    tag_908:\n        /* \"#utility.yul\":31894:31902   */\n      dup2\n        /* \"#utility.yul\":31890:31934   */\n      add\n        /* \"#utility.yul\":32087:32089   */\n      0x20\n        /* \"#utility.yul\":32075:32085   */\n      dup6\n        /* \"#utility.yul\":32072:32090   */\n      lt\n        /* \"#utility.yul\":32069:32118   */\n      iszero\n      tag_909\n      jumpi\n        /* \"#utility.yul\":32108:32116   */\n      dup2\n        /* \"#utility.yul\":32093:32116   */\n      swap1\n      pop\n        /* \"#utility.yul\":32069:32118   */\n    tag_909:\n        /* \"#utility.yul\":32131:32211   */\n      tag_910\n        /* \"#utility.yul\":32187:32209   */\n      tag_911\n        /* \"#utility.yul\":32205:32208   */\n      dup6\n        /* \"#utility.yul\":32187:32209   */\n      tag_557\n      jump\t// in\n    tag_911:\n        /* \"#utility.yul\":32177:32185   */\n      dup4\n        /* \"#utility.yul\":32173:32210   */\n      add\n        /* \"#utility.yul\":32160:32171   */\n      dup3\n        /* \"#utility.yul\":32131:32211   */\n      tag_566\n      jump\t// in\n    tag_910:\n        /* \"#utility.yul\":31790:32221   */\n      pop\n      pop\n        /* \"#utility.yul\":31775:32221   */\n    tag_906:\n        /* \"#utility.yul\":31685:32228   */\n      pop\n      pop\n      pop\n      jump\t// out\n        /* \"#utility.yul\":32234:32351   */\n    tag_568:\n        /* \"#utility.yul\":32288:32296   */\n      0x00\n        /* \"#utility.yul\":32338:32343   */\n      dup3\n        /* \"#utility.yul\":32332:32336   */\n      dup3\n        /* \"#utility.yul\":32328:32344   */\n      shr\n        /* \"#utility.yul\":32307:32344   */\n      swap1\n      pop\n        /* \"#utility.yul\":32234:32351   */\n      swap3\n      swap2\n      pop\n      pop\n      jump\t// out\n        /* \"#utility.yul\":32357:32526   */\n    tag_569:\n        /* \"#utility.yul\":32401:32407   */\n      0x00\n        /* \"#utility.yul\":32434:32485   */\n      tag_914\n        /* \"#utility.yul\":32482:32483   */\n      0x00\n        /* \"#utility.yul\":32478:32484   */\n      not\n        /* \"#utility.yul\":32470:32475   */\n      dup5\n        /* \"#utility.yul\":32467:32468   */\n      0x08\n        /* \"#utility.yul\":32463:32476   */\n      mul\n        /* \"#utility.yul\":32434:32485   */\n      tag_568\n      jump\t// in\n    tag_914:\n        /* \"#utility.yul\":32430:32486   */\n      not\n        /* \"#utility.yul\":32515:32519   */\n      dup1\n        /* \"#utility.yul\":32509:32513   */\n      dup4\n        /* \"#utility.yul\":32505:32520   */\n      and\n        /* \"#utility.yul\":32495:32520   */\n      swap2\n      pop\n        /* \"#utility.yul\":32408:32526   */\n      pop\n        /* \"#utility.yul\":32357:32526   */\n      swap3\n      swap2\n      pop\n      pop\n      jump\t// out\n        /* \"#utility.yul\":32531:32826   */\n    tag_570:\n        /* \"#utility.yul\":32607:32611   */\n      0x00\n        /* \"#utility.yul\":32753:32782   */\n      tag_916\n        /* \"#utility.yul\":32778:32781   */\n      dup4\n        /* \"#utility.yul\":32772:32776   */\n      dup4\n        /* \"#utility.yul\":32753:32782   */\n      tag_569\n      jump\t// in\n    tag_916:\n        /* \"#utility.yul\":32745:32782   */\n      swap2\n      pop\n        /* \"#utility.yul\":32815:32818   */\n      dup3\n        /* \"#utility.yul\":32812:32813   */\n      0x02\n        /* \"#utility.yul\":32808:32819   */\n      mul\n        /* \"#utility.yul\":32802:32806   */\n      dup3\n        /* \"#utility.yul\":32799:32820   */\n      or\n        /* \"#utility.yul\":32791:32820   */\n      swap1\n      pop\n        /* \"#utility.yul\":32531:32826   */\n      swap3\n      swap2\n      pop\n      pop\n      jump\t// out\n        /* \"#utility.yul\":32831:34226   */\n    tag_227:\n        /* \"#utility.yul\":32948:32985   */\n      tag_918\n        /* \"#utility.yul\":32981:32984   */\n      dup3\n        /* \"#utility.yul\":32948:32985   */\n      tag_511\n      jump\t// in\n    tag_918:\n        /* \"#utility.yul\":33050:33068   */\n      0xffffffffffffffff\n        /* \"#utility.yul\":33042:33048   */\n      dup2\n        /* \"#utility.yul\":33039:33069   */\n      gt\n        /* \"#utility.yul\":33036:33092   */\n      iszero\n      tag_919\n      jumpi\n        /* \"#utility.yul\":33072:33090   */\n      tag_920\n      tag_529\n      jump\t// in\n    tag_920:\n        /* \"#utility.yul\":33036:33092   */\n    tag_919:\n        /* \"#utility.yul\":33116:33154   */\n      tag_921\n        /* \"#utility.yul\":33148:33152   */\n      dup3\n        /* \"#utility.yul\":33142:33153   */\n      sload\n        /* \"#utility.yul\":33116:33154   */\n      tag_253\n      jump\t// in\n    tag_921:\n        /* \"#utility.yul\":33201:33268   */\n      tag_922\n        /* \"#utility.yul\":33261:33267   */\n      dup3\n        /* \"#utility.yul\":33253:33259   */\n      dup3\n        /* \"#utility.yul\":33247:33251   */\n      dup6\n        /* \"#utility.yul\":33201:33268   */\n      tag_567\n      jump\t// in\n    tag_922:\n        /* \"#utility.yul\":33295:33296   */\n      0x00\n        /* \"#utility.yul\":33319:33323   */\n      0x20\n        /* \"#utility.yul\":33306:33323   */\n      swap1\n      pop\n        /* \"#utility.yul\":33351:33353   */\n      0x1f\n        /* \"#utility.yul\":33343:33349   */\n      dup4\n        /* \"#utility.yul\":33340:33354   */\n      gt\n        /* \"#utility.yul\":33368:33369   */\n      0x01\n        /* \"#utility.yul\":33363:33981   */\n      dup2\n      eq\n      tag_924\n      jumpi\n        /* \"#utility.yul\":34025:34026   */\n      0x00\n        /* \"#utility.yul\":34042:34048   */\n      dup5\n        /* \"#utility.yul\":34039:34116   */\n      iszero\n      tag_925\n      jumpi\n        /* \"#utility.yul\":34091:34100   */\n      dup3\n        /* \"#utility.yul\":34086:34089   */\n      dup8\n        /* \"#utility.yul\":34082:34101   */\n      add\n        /* \"#utility.yul\":34076:34102   */\n      mload\n        /* \"#utility.yul\":34067:34102   */\n      swap1\n      pop\n        /* \"#utility.yul\":34039:34116   */\n    tag_925:\n        /* \"#utility.yul\":34142:34209   */\n      tag_926\n        /* \"#utility.yul\":34202:34208   */\n      dup6\n        /* \"#utility.yul\":34195:34200   */\n      dup3\n        /* \"#utility.yul\":34142:34209   */\n      tag_570\n      jump\t// in\n    tag_926:\n        /* \"#utility.yul\":34136:34140   */\n      dup7\n        /* \"#utility.yul\":34129:34210   */\n      sstore\n        /* \"#utility.yul\":33998:34220   */\n      pop\n        /* \"#utility.yul\":33333:34220   */\n      jump(tag_923)\n        /* \"#utility.yul\":33363:33981   */\n    tag_924:\n        /* \"#utility.yul\":33415:33419   */\n      0x1f\n        /* \"#utility.yul\":33411:33420   */\n      not\n        /* \"#utility.yul\":33403:33409   */\n      dup5\n        /* \"#utility.yul\":33399:33421   */\n      and\n        /* \"#utility.yul\":33449:33486   */\n      tag_927\n        /* \"#utility.yul\":33481:33485   */\n      dup7\n        /* \"#utility.yul\":33449:33486   */\n      tag_556\n      jump\t// in\n    tag_927:\n        /* \"#utility.yul\":33508:33509   */\n      0x00\n        /* \"#utility.yul\":33522:33730   */\n    tag_928:\n        /* \"#utility.yul\":33536:33543   */\n      dup3\n        /* \"#utility.yul\":33533:33534   */\n      dup2\n        /* \"#utility.yul\":33530:33544   */\n      lt\n        /* \"#utility.yul\":33522:33730   */\n      iszero\n      tag_930\n      jumpi\n        /* \"#utility.yul\":33615:33624   */\n      dup5\n        /* \"#utility.yul\":33610:33613   */\n      dup10\n        /* \"#utility.yul\":33606:33625   */\n      add\n        /* \"#utility.yul\":33600:33626   */\n      mload\n        /* \"#utility.yul\":33592:33598   */\n      dup3\n        /* \"#utility.yul\":33585:33627   */\n      sstore\n        /* \"#utility.yul\":33666:33667   */\n      0x01\n        /* \"#utility.yul\":33658:33664   */\n      dup3\n        /* \"#utility.yul\":33654:33668   */\n      add\n        /* \"#utility.yul\":33644:33668   */\n      swap2\n      pop\n        /* \"#utility.yul\":33713:33715   */\n      0x20\n        /* \"#utility.yul\":33702:33711   */\n      dup6\n        /* \"#utility.yul\":33698:33716   */\n      add\n        /* \"#utility.yul\":33685:33716   */\n      swap5\n      pop\n        /* \"#utility.yul\":33559:33563   */\n      0x20\n        /* \"#utility.yul\":33556:33557   */\n      dup2\n        /* \"#utility.yul\":33552:33564   */\n      add\n        /* \"#utility.yul\":33547:33564   */\n      swap1\n      pop\n        /* \"#utility.yul\":33522:33730   */\n      jump(tag_928)\n    tag_930:\n        /* \"#utility.yul\":33758:33764   */\n      dup7\n        /* \"#utility.yul\":33749:33756   */\n      dup4\n        /* \"#utility.yul\":33746:33765   */\n      lt\n        /* \"#utility.yul\":33743:33922   */\n      iszero\n      tag_931\n      jumpi\n        /* \"#utility.yul\":33816:33825   */\n      dup5\n        /* \"#utility.yul\":33811:33814   */\n      dup10\n        /* \"#utility.yul\":33807:33826   */\n      add\n        /* \"#utility.yul\":33801:33827   */\n      mload\n        /* \"#utility.yul\":33859:33907   */\n      tag_932\n        /* \"#utility.yul\":33901:33905   */\n      0x1f\n        /* \"#utility.yul\":33893:33899   */\n      dup10\n        /* \"#utility.yul\":33889:33906   */\n      and\n        /* \"#utility.yul\":33878:33887   */\n      dup3\n        /* \"#utility.yul\":33859:33907   */\n      tag_569\n      jump\t// in\n    tag_932:\n        /* \"#utility.yul\":33851:33857   */\n      dup4\n        /* \"#utility.yul\":33844:33908   */\n      sstore\n        /* \"#utility.yul\":33766:33922   */\n      pop\n        /* \"#utility.yul\":33743:33922   */\n    tag_931:\n        /* \"#utility.yul\":33968:33969   */\n      0x01\n        /* \"#utility.yul\":33964:33965   */\n      0x02\n        /* \"#utility.yul\":33956:33962   */\n      dup9\n        /* \"#utility.yul\":33952:33966   */\n      mul\n        /* \"#utility.yul\":33948:33970   */\n      add\n        /* \"#utility.yul\":33942:33946   */\n      dup9\n        /* \"#utility.yul\":33935:33971   */\n      sstore\n        /* \"#utility.yul\":33370:33981   */\n      pop\n      pop\n      pop\n        /* \"#utility.yul\":33333:34220   */\n    tag_923:\n      pop\n        /* \"#utility.yul\":32923:34226   */\n      pop\n      pop\n      pop\n        /* \"#utility.yul\":32831:34226   */\n      pop\n      pop\n      jump\t// out\n        /* \"#utility.yul\":34232:34412   */\n    tag_571:\n        /* \"#utility.yul\":34280:34357   */\n      0x4e487b7100000000000000000000000000000000000000000000000000000000\n        /* \"#utility.yul\":34277:34278   */\n      0x00\n        /* \"#utility.yul\":34270:34358   */\n      mstore\n        /* \"#utility.yul\":34377:34381   */\n      0x11\n        /* \"#utility.yul\":34374:34375   */\n      0x04\n        /* \"#utility.yul\":34367:34382   */\n      mstore\n        /* \"#utility.yul\":34401:34405   */\n      0x24\n        /* \"#utility.yul\":34398:34399   */\n      0x00\n        /* \"#utility.yul\":34391:34406   */\n      revert\n        /* \"#utility.yul\":34418:34609   */\n    tag_234:\n        /* \"#utility.yul\":34458:34461   */\n      0x00\n        /* \"#utility.yul\":34477:34497   */\n      tag_935\n        /* \"#utility.yul\":34495:34496   */\n      dup3\n        /* \"#utility.yul\":34477:34497   */\n      tag_490\n      jump\t// in\n    tag_935:\n        /* \"#utility.yul\":34472:34497   */\n      swap2\n      pop\n        /* \"#utility.yul\":34511:34531   */\n      tag_936\n        /* \"#utility.yul\":34529:34530   */\n      dup4\n        /* \"#utility.yul\":34511:34531   */\n      tag_490\n      jump\t// in\n    tag_936:\n        /* \"#utility.yul\":34506:34531   */\n      swap3\n      pop\n        /* \"#utility.yul\":34554:34555   */\n      dup3\n        /* \"#utility.yul\":34551:34552   */\n      dup3\n        /* \"#utility.yul\":34547:34556   */\n      add\n        /* \"#utility.yul\":34540:34556   */\n      swap1\n      pop\n        /* \"#utility.yul\":34575:34578   */\n      dup1\n        /* \"#utility.yul\":34572:34573   */\n      dup3\n        /* \"#utility.yul\":34569:34579   */\n      gt\n        /* \"#utility.yul\":34566:34602   */\n      iszero\n      tag_937\n      jumpi\n        /* \"#utility.yul\":34582:34600   */\n      tag_938\n      tag_571\n      jump\t// in\n    tag_938:\n        /* \"#utility.yul\":34566:34602   */\n    tag_937:\n        /* \"#utility.yul\":34418:34609   */\n      swap3\n      swap2\n      pop\n      pop\n      jump\t// out\n        /* \"#utility.yul\":34615:34947   */\n    tag_237:\n        /* \"#utility.yul\":34736:34740   */\n      0x00\n        /* \"#utility.yul\":34774:34776   */\n      0x40\n        /* \"#utility.yul\":34763:34772   */\n      dup3\n        /* \"#utility.yul\":34759:34777   */\n      add\n        /* \"#utility.yul\":34751:34777   */\n      swap1\n      pop\n        /* \"#utility.yul\":34787:34858   */\n      tag_940\n        /* \"#utility.yul\":34855:34856   */\n      0x00\n        /* \"#utility.yul\":34844:34853   */\n      dup4\n        /* \"#utility.yul\":34840:34857   */\n      add\n        /* \"#utility.yul\":34831:34837   */\n      dup6\n        /* \"#utility.yul\":34787:34858   */\n      tag_509\n      jump\t// in\n    tag_940:\n        /* \"#utility.yul\":34868:34940   */\n      tag_941\n        /* \"#utility.yul\":34936:34938   */\n      0x20\n        /* \"#utility.yul\":34925:34934   */\n      dup4\n        /* \"#utility.yul\":34921:34939   */\n      add\n        /* \"#utility.yul\":34912:34918   */\n      dup5\n        /* \"#utility.yul\":34868:34940   */\n      tag_509\n      jump\t// in\n    tag_941:\n        /* \"#utility.yul\":34615:34947   */\n      swap4\n      swap3\n      pop\n      pop\n      pop\n      jump\t// out\n        /* \"#utility.yul\":34953:35120   */\n    tag_572:\n        /* \"#utility.yul\":35093:35112   */\n      0x4e6f7420617574686f72697a6564204149000000000000000000000000000000\n        /* \"#utility.yul\":35089:35090   */\n      0x00\n        /* \"#utility.yul\":35081:35087   */\n      dup3\n        /* \"#utility.yul\":35077:35091   */\n      add\n        /* \"#utility.yul\":35070:35113   */\n      mstore\n        /* \"#utility.yul\":34953:35120   */\n      pop\n      jump\t// out\n        /* \"#utility.yul\":35126:35492   */\n    tag_573:\n        /* \"#utility.yul\":35268:35271   */\n      0x00\n        /* \"#utility.yul\":35289:35356   */\n      tag_944\n        /* \"#utility.yul\":35353:35355   */\n      0x11\n        /* \"#utility.yul\":35348:35351   */\n      dup4\n        /* \"#utility.yul\":35289:35356   */\n      tag_536\n      jump\t// in\n    tag_944:\n        /* \"#utility.yul\":35282:35356   */\n      swap2\n      pop\n        /* \"#utility.yul\":35365:35458   */\n      tag_945\n        /* \"#utility.yul\":35454:35457   */\n      dup3\n        /* \"#utility.yul\":35365:35458   */\n      tag_572\n      jump\t// in\n    tag_945:\n        /* \"#utility.yul\":35483:35485   */\n      0x20\n        /* \"#utility.yul\":35478:35481   */\n      dup3\n        /* \"#utility.yul\":35474:35486   */\n      add\n        /* \"#utility.yul\":35467:35486   */\n      swap1\n      pop\n        /* \"#utility.yul\":35126:35492   */\n      swap2\n      swap1\n      pop\n      jump\t// out\n        /* \"#utility.yul\":35498:35917   */\n    tag_309:\n        /* \"#utility.yul\":35664:35668   */\n      0x00\n        /* \"#utility.yul\":35702:35704   */\n      0x20\n        /* \"#utility.yul\":35691:35700   */\n      dup3\n        /* \"#utility.yul\":35687:35705   */\n      add\n        /* \"#utility.yul\":35679:35705   */\n      swap1\n      pop\n        /* \"#utility.yul\":35751:35760   */\n      dup2\n        /* \"#utility.yul\":35745:35749   */\n      dup2\n        /* \"#utility.yul\":35741:35761   */\n      sub\n        /* \"#utility.yul\":35737:35738   */\n      0x00\n        /* \"#utility.yul\":35726:35735   */\n      dup4\n        /* \"#utility.yul\":35722:35739   */\n      add\n        /* \"#utility.yul\":35715:35762   */\n      mstore\n        /* \"#utility.yul\":35779:35910   */\n      tag_947\n        /* \"#utility.yul\":35905:35909   */\n      dup2\n        /* \"#utility.yul\":35779:35910   */\n      tag_573\n      jump\t// in\n    tag_947:\n        /* \"#utility.yul\":35771:35910   */\n      swap1\n      pop\n        /* \"#utility.yul\":35498:35917   */\n      swap2\n      swap1\n      pop\n      jump\t// out\n        /* \"#utility.yul\":35923:36093   */\n    tag_574:\n        /* \"#utility.yul\":36063:36085   */\n      0x4368616c6c656e6765206e6f7420616374697665000000000000000000000000\n        /* \"#utility.yul\":36059:36060   */\n      0x00\n        /* \"#utility.yul\":36051:36057   */\n      dup3\n        /* \"#utility.yul\":36047:36061   */\n      add\n        /* \"#utility.yul\":36040:36086   */\n      mstore\n        /* \"#utility.yul\":35923:36093   */\n      pop\n      jump\t// out\n        /* \"#utility.yul\":36099:36465   */\n    tag_575:\n        /* \"#utility.yul\":36241:36244   */\n      0x00\n        /* \"#utility.yul\":36262:36329   */\n      tag_950\n        /* \"#utility.yul\":36326:36328   */\n      0x14\n        /* \"#utility.yul\":36321:36324   */\n      dup4\n        /* \"#utility.yul\":36262:36329   */\n      tag_536\n      jump\t// in\n    tag_950:\n        /* \"#utility.yul\":36255:36329   */\n      swap2\n      pop\n        /* \"#utility.yul\":36338:36431   */\n      tag_951\n        /* \"#utility.yul\":36427:36430   */\n      dup3\n        /* \"#utility.yul\":36338:36431   */\n      tag_574\n      jump\t// in\n    tag_951:\n        /* \"#utility.yul\":36456:36458   */\n      0x20\n        /* \"#utility.yul\":36451:36454   */\n      dup3\n        /* \"#utility.yul\":36447:36459   */\n      add\n        /* \"#utility.yul\":36440:36459   */\n      swap1\n      pop\n        /* \"#utility.yul\":36099:36465   */\n      swap2\n      swap1\n      pop\n      jump\t// out\n        /* \"#utility.yul\":36471:36890   */\n    tag_319:\n        /* \"#utility.yul\":36637:36641   */\n      0x00\n        /* \"#utility.yul\":36675:36677   */\n      0x20\n        /* \"#utility.yul\":36664:36673   */\n      dup3\n        /* \"#utility.yul\":36660:36678   */\n      add\n        /* \"#utility.yul\":36652:36678   */\n      swap1\n      pop\n        /* \"#utility.yul\":36724:36733   */\n      dup2\n        /* \"#utility.yul\":36718:36722   */\n      dup2\n        /* \"#utility.yul\":36714:36734   */\n      sub\n        /* \"#utility.yul\":36710:36711   */\n      0x00\n        /* \"#utility.yul\":36699:36708   */\n      dup4\n        /* \"#utility.yul\":36695:36712   */\n      add\n        /* \"#utility.yul\":36688:36735   */\n      mstore\n        /* \"#utility.yul\":36752:36883   */\n      tag_953\n        /* \"#utility.yul\":36878:36882   */\n      dup2\n        /* \"#utility.yul\":36752:36883   */\n      tag_575\n      jump\t// in\n    tag_953:\n        /* \"#utility.yul\":36744:36883   */\n      swap1\n      pop\n        /* \"#utility.yul\":36471:36890   */\n      swap2\n      swap1\n      pop\n      jump\t// out\n        /* \"#utility.yul\":36896:37059   */\n    tag_576:\n        /* \"#utility.yul\":37036:37051   */\n      0x496e76616c6964207374616b6500000000000000000000000000000000000000\n        /* \"#utility.yul\":37032:37033   */\n      0x00\n        /* \"#utility.yul\":37024:37030   */\n      dup3\n        /* \"#utility.yul\":37020:37034   */\n      add\n        /* \"#utility.yul\":37013:37052   */\n      mstore\n        /* \"#utility.yul\":36896:37059   */\n      pop\n      jump\t// out\n        /* \"#utility.yul\":37065:37431   */\n    tag_577:\n        /* \"#utility.yul\":37207:37210   */\n      0x00\n        /* \"#utility.yul\":37228:37295   */\n      tag_956\n        /* \"#utility.yul\":37292:37294   */\n      0x0d\n        /* \"#utility.yul\":37287:37290   */\n      dup4\n        /* \"#utility.yul\":37228:37295   */\n      tag_536\n      jump\t// in\n    tag_956:\n        /* \"#utility.yul\":37221:37295   */\n      swap2\n      pop\n        /* \"#utility.yul\":37304:37397   */\n      tag_957\n        /* \"#utility.yul\":37393:37396   */\n      dup3\n        /* \"#utility.yul\":37304:37397   */\n      tag_576\n      jump\t// in\n    tag_957:\n        /* \"#utility.yul\":37422:37424   */\n      0x20\n        /* \"#utility.yul\":37417:37420   */\n      dup3\n        /* \"#utility.yul\":37413:37425   */\n      add\n        /* \"#utility.yul\":37406:37425   */\n      swap1\n      pop\n        /* \"#utility.yul\":37065:37431   */\n      swap2\n      swap1\n      pop\n      jump\t// out\n        /* \"#utility.yul\":37437:37856   */\n    tag_323:\n        /* \"#utility.yul\":37603:37607   */\n      0x00\n        /* \"#utility.yul\":37641:37643   */\n      0x20\n        /* \"#utility.yul\":37630:37639   */\n      dup3\n        /* \"#utility.yul\":37626:37644   */\n      add\n        /* \"#utility.yul\":37618:37644   */\n      swap1\n      pop\n        /* \"#utility.yul\":37690:37699   */\n      dup2\n        /* \"#utility.yul\":37684:37688   */\n      dup2\n        /* \"#utility.yul\":37680:37700   */\n      sub\n        /* \"#utility.yul\":37676:37677   */\n      0x00\n        /* \"#utility.yul\":37665:37674   */\n      dup4\n        /* \"#utility.yul\":37661:37678   */\n      add\n        /* \"#utility.yul\":37654:37701   */\n      mstore\n        /* \"#utility.yul\":37718:37849   */\n      tag_959\n        /* \"#utility.yul\":37844:37848   */\n      dup2\n        /* \"#utility.yul\":37718:37849   */\n      tag_577\n      jump\t// in\n    tag_959:\n        /* \"#utility.yul\":37710:37849   */\n      swap1\n      pop\n        /* \"#utility.yul\":37437:37856   */\n      swap2\n      swap1\n      pop\n      jump\t// out\n        /* \"#utility.yul\":37862:38272   */\n    tag_332:\n        /* \"#utility.yul\":37902:37909   */\n      0x00\n        /* \"#utility.yul\":37925:37945   */\n      tag_961\n        /* \"#utility.yul\":37943:37944   */\n      dup3\n        /* \"#utility.yul\":37925:37945   */\n      tag_490\n      jump\t// in\n    tag_961:\n        /* \"#utility.yul\":37920:37945   */\n      swap2\n      pop\n        /* \"#utility.yul\":37959:37979   */\n      tag_962\n        /* \"#utility.yul\":37977:37978   */\n      dup4\n        /* \"#utility.yul\":37959:37979   */\n      tag_490\n      jump\t// in\n    tag_962:\n        /* \"#utility.yul\":37954:37979   */\n      swap3\n      pop\n        /* \"#utility.yul\":38014:38015   */\n      dup3\n        /* \"#utility.yul\":38011:38012   */\n      dup3\n        /* \"#utility.yul\":38007:38016   */\n      mul\n        /* \"#utility.yul\":38036:38066   */\n      tag_963\n        /* \"#utility.yul\":38054:38065   */\n      dup2\n        /* \"#utility.yul\":38036:38066   */\n      tag_490\n      jump\t// in\n    tag_963:\n        /* \"#utility.yul\":38025:38066   */\n      swap2\n      pop\n        /* \"#utility.yul\":38215:38216   */\n      dup3\n        /* \"#utility.yul\":38206:38213   */\n      dup3\n        /* \"#utility.yul\":38202:38217   */\n      div\n        /* \"#utility.yul\":38199:38200   */\n      dup5\n        /* \"#utility.yul\":38196:38218   */\n      eq\n        /* \"#utility.yul\":38176:38177   */\n      dup4\n        /* \"#utility.yul\":38169:38178   */\n      iszero\n        /* \"#utility.yul\":38149:38232   */\n      or\n        /* \"#utility.yul\":38126:38265   */\n      tag_964\n      jumpi\n        /* \"#utility.yul\":38245:38263   */\n      tag_965\n      tag_571\n      jump\t// in\n    tag_965:\n        /* \"#utility.yul\":38126:38265   */\n    tag_964:\n        /* \"#utility.yul\":37910:38272   */\n      pop\n        /* \"#utility.yul\":37862:38272   */\n      swap3\n      swap2\n      pop\n      pop\n      jump\t// out\n        /* \"#utility.yul\":38278:38458   */\n    tag_578:\n        /* \"#utility.yul\":38326:38403   */\n      0x4e487b7100000000000000000000000000000000000000000000000000000000\n        /* \"#utility.yul\":38323:38324   */\n      0x00\n        /* \"#utility.yul\":38316:38404   */\n      mstore\n        /* \"#utility.yul\":38423:38427   */\n      0x12\n        /* \"#utility.yul\":38420:38421   */\n      0x04\n        /* \"#utility.yul\":38413:38428   */\n      mstore\n        /* \"#utility.yul\":38447:38451   */\n      0x24\n        /* \"#utility.yul\":38444:38445   */\n      0x00\n        /* \"#utility.yul\":38437:38452   */\n      revert\n        /* \"#utility.yul\":38464:38649   */\n    tag_334:\n        /* \"#utility.yul\":38504:38505   */\n      0x00\n        /* \"#utility.yul\":38521:38541   */\n      tag_968\n        /* \"#utility.yul\":38539:38540   */\n      dup3\n        /* \"#utility.yul\":38521:38541   */\n      tag_490\n      jump\t// in\n    tag_968:\n        /* \"#utility.yul\":38516:38541   */\n      swap2\n      pop\n        /* \"#utility.yul\":38555:38575   */\n      tag_969\n        /* \"#utility.yul\":38573:38574   */\n      dup4\n        /* \"#utility.yul\":38555:38575   */\n      tag_490\n      jump\t// in\n    tag_969:\n        /* \"#utility.yul\":38550:38575   */\n      swap3\n      pop\n        /* \"#utility.yul\":38594:38595   */\n      dup3\n        /* \"#utility.yul\":38584:38619   */\n      tag_970\n      jumpi\n        /* \"#utility.yul\":38599:38617   */\n      tag_971\n      tag_578\n      jump\t// in\n    tag_971:\n        /* \"#utility.yul\":38584:38619   */\n    tag_970:\n        /* \"#utility.yul\":38641:38642   */\n      dup3\n        /* \"#utility.yul\":38638:38639   */\n      dup3\n        /* \"#utility.yul\":38634:38643   */\n      div\n        /* \"#utility.yul\":38629:38643   */\n      swap1\n      pop\n        /* \"#utility.yul\":38464:38649   */\n      swap3\n      swap2\n      pop\n      pop\n      jump\t// out\n        /* \"#utility.yul\":38655:38849   */\n    tag_338:\n        /* \"#utility.yul\":38695:38699   */\n      0x00\n        /* \"#utility.yul\":38715:38735   */\n      tag_973\n        /* \"#utility.yul\":38733:38734   */\n      dup3\n        /* \"#utility.yul\":38715:38735   */\n      tag_490\n      jump\t// in\n    tag_973:\n        /* \"#utility.yul\":38710:38735   */\n      swap2\n      pop\n        /* \"#utility.yul\":38749:38769   */\n      tag_974\n        /* \"#utility.yul\":38767:38768   */\n      dup4\n        /* \"#utility.yul\":38749:38769   */\n      tag_490\n      jump\t// in\n    tag_974:\n        /* \"#utility.yul\":38744:38769   */\n      swap3\n      pop\n        /* \"#utility.yul\":38793:38794   */\n      dup3\n        /* \"#utility.yul\":38790:38791   */\n      dup3\n        /* \"#utility.yul\":38786:38795   */\n      sub\n        /* \"#utility.yul\":38778:38795   */\n      swap1\n      pop\n        /* \"#utility.yul\":38817:38818   */\n      dup2\n        /* \"#utility.yul\":38811:38815   */\n      dup2\n        /* \"#utility.yul\":38808:38819   */\n      gt\n        /* \"#utility.yul\":38805:38842   */\n      iszero\n      tag_975\n      jumpi\n        /* \"#utility.yul\":38822:38840   */\n      tag_976\n      tag_571\n      jump\t// in\n    tag_976:\n        /* \"#utility.yul\":38805:38842   */\n    tag_975:\n        /* \"#utility.yul\":38655:38849   */\n      swap3\n      swap2\n      pop\n      pop\n      jump\t// out\n        /* \"#utility.yul\":38855:39088   */\n    tag_346:\n        /* \"#utility.yul\":38894:38897   */\n      0x00\n        /* \"#utility.yul\":38917:38941   */\n      tag_978\n        /* \"#utility.yul\":38935:38940   */\n      dup3\n        /* \"#utility.yul\":38917:38941   */\n      tag_490\n      jump\t// in\n    tag_978:\n        /* \"#utility.yul\":38908:38941   */\n      swap2\n      pop\n        /* \"#utility.yul\":38963:39029   */\n      0xffffffffffffffffffffffffffffffffffffffffffffffffffffffffffffffff\n        /* \"#utility.yul\":38956:38961   */\n      dup3\n        /* \"#utility.yul\":38953:39030   */\n      sub\n        /* \"#utility.yul\":38950:39053   */\n      tag_979\n      jumpi\n        /* \"#utility.yul\":39033:39051   */\n      tag_980\n      tag_571\n      jump\t// in\n    tag_980:\n        /* \"#utility.yul\":38950:39053   */\n    tag_979:\n        /* \"#utility.yul\":39080:39081   */\n      0x01\n        /* \"#utility.yul\":39073:39078   */\n      dup3\n        /* \"#utility.yul\":39069:39082   */\n      add\n        /* \"#utility.yul\":39062:39082   */\n      swap1\n      pop\n        /* \"#utility.yul\":38855:39088   */\n      swap2\n      swap1\n      pop\n      jump\t// out\n        /* \"#utility.yul\":39094:39414   */\n    tag_356:\n        /* \"#utility.yul\":39209:39213   */\n      0x00\n        /* \"#utility.yul\":39247:39249   */\n      0x40\n        /* \"#utility.yul\":39236:39245   */\n      dup3\n        /* \"#utility.yul\":39232:39250   */\n      add\n        /* \"#utility.yul\":39224:39250   */\n      swap1\n      pop\n        /* \"#utility.yul\":39260:39325   */\n      tag_982\n        /* \"#utility.yul\":39322:39323   */\n      0x00\n        /* \"#utility.yul\":39311:39320   */\n      dup4\n        /* \"#utility.yul\":39307:39324   */\n      add\n        /* \"#utility.yul\":39298:39304   */\n      dup6\n        /* \"#utility.yul\":39260:39325   */\n      tag_523\n      jump\t// in\n    tag_982:\n        /* \"#utility.yul\":39335:39407   */\n      tag_983\n        /* \"#utility.yul\":39403:39405   */\n      0x20\n        /* \"#utility.yul\":39392:39401   */\n      dup4\n        /* \"#utility.yul\":39388:39406   */\n      add\n        /* \"#utility.yul\":39379:39385   */\n      dup5\n        /* \"#utility.yul\":39335:39407   */\n      tag_509\n      jump\t// in\n    tag_983:\n        /* \"#utility.yul\":39094:39414   */\n      swap4\n      swap3\n      pop\n      pop\n      pop\n      jump\t// out\n        /* \"#utility.yul\":39420:39843   */\n    tag_403:\n        /* \"#utility.yul\":39561:39565   */\n      0x00\n        /* \"#utility.yul\":39599:39601   */\n      0x40\n        /* \"#utility.yul\":39588:39597   */\n      dup3\n        /* \"#utility.yul\":39584:39602   */\n      add\n        /* \"#utility.yul\":39576:39602   */\n      swap1\n      pop\n        /* \"#utility.yul\":39612:39683   */\n      tag_985\n        /* \"#utility.yul\":39680:39681   */\n      0x00\n        /* \"#utility.yul\":39669:39678   */\n      dup4\n        /* \"#utility.yul\":39665:39682   */\n      add\n        /* \"#utility.yul\":39656:39662   */\n      dup6\n        /* \"#utility.yul\":39612:39683   */\n      tag_509\n      jump\t// in\n    tag_985:\n        /* \"#utility.yul\":39730:39739   */\n      dup2\n        /* \"#utility.yul\":39724:39728   */\n      dup2\n        /* \"#utility.yul\":39720:39740   */\n      sub\n        /* \"#utility.yul\":39715:39717   */\n      0x20\n        /* \"#utility.yul\":39704:39713   */\n      dup4\n        /* \"#utility.yul\":39700:39718   */\n      add\n        /* \"#utility.yul\":39693:39741   */\n      mstore\n        /* \"#utility.yul\":39758:39836   */\n      tag_986\n        /* \"#utility.yul\":39831:39835   */\n      dup2\n        /* \"#utility.yul\":39822:39828   */\n      dup5\n        /* \"#utility.yul\":39758:39836   */\n      tag_537\n      jump\t// in\n    tag_986:\n        /* \"#utility.yul\":39750:39836   */\n      swap1\n      pop\n        /* \"#utility.yul\":39420:39843   */\n      swap4\n      swap3\n      pop\n      pop\n      pop\n      jump\t// out\n        /* \"#utility.yul\":39849:40018   */\n    tag_579:\n        /* \"#utility.yul\":39989:40010   */\n      0x5374617220616c72656164792065786973747300000000000000000000000000\n        /* \"#utility.yul\":39985:39986   */\n      0x00\n        /* \"#utility.yul\":39977:39983   */\n      dup3\n        /* \"#utility.yul\":39973:39987   */\n      add\n        /* \"#utility.yul\":39966:40011   */\n      mstore\n        /* \"#utility.yul\":39849:40018   */\n      pop\n      jump\t// out\n        /* \"#utility.yul\":40024:40390   */\n    tag_580:\n        /* \"#utility.yul\":40166:40169   */\n      0x00\n        /* \"#utility.yul\":40187:40254   */\n      tag_989\n        /* \"#utility.yul\":40251:40253   */\n      0x13\n        /* \"#utility.yul\":40246:40249   */\n      dup4\n        /* \"#utility.yul\":40187:40254   */\n      tag_536\n      jump\t// in\n    tag_989:\n        /* \"#utility.yul\":40180:40254   */\n      swap2\n      pop\n        /* \"#utility.yul\":40263:40356   */\n      tag_990\n        /* \"#utility.yul\":40352:40355   */\n      dup3\n        /* \"#utility.yul\":40263:40356   */\n      tag_579\n      jump\t// in\n    tag_990:\n        /* \"#utility.yul\":40381:40383   */\n      0x20\n        /* \"#utility.yul\":40376:40379   */\n      dup3\n        /* \"#utility.yul\":40372:40384   */\n      add\n        /* \"#utility.yul\":40365:40384   */\n      swap1\n      pop\n        /* \"#utility.yul\":40024:40390   */\n      swap2\n      swap1\n      pop\n      jump\t// out\n        /* \"#utility.yul\":40396:40815   */\n    tag_409:\n        /* \"#utility.yul\":40562:40566   */\n      0x00\n        /* \"#utility.yul\":40600:40602   */\n      0x20\n        /* \"#utility.yul\":40589:40598   */\n      dup3\n        /* \"#utility.yul\":40585:40603   */\n      add\n        /* \"#utility.yul\":40577:40603   */\n      swap1\n      pop\n        /* \"#utility.yul\":40649:40658   */\n      dup2\n        /* \"#utility.yul\":40643:40647   */\n      dup2\n        /* \"#utility.yul\":40639:40659   */\n      sub\n        /* \"#utility.yul\":40635:40636   */\n      0x00\n        /* \"#utility.yul\":40624:40633   */\n      dup4\n        /* \"#utility.yul\":40620:40637   */\n      add\n        /* \"#utility.yul\":40613:40660   */\n      mstore\n        /* \"#utility.yul\":40677:40808   */\n      tag_992\n        /* \"#utility.yul\":40803:40807   */\n      dup2\n        /* \"#utility.yul\":40677:40808   */\n      tag_580\n      jump\t// in\n    tag_992:\n        /* \"#utility.yul\":40669:40808   */\n      swap1\n      pop\n        /* \"#utility.yul\":40396:40815   */\n      swap2\n      swap1\n      pop\n      jump\t// out\n        /* \"#utility.yul\":40821:41273   */\n    tag_415:\n        /* \"#utility.yul\":40975:40979   */\n      0x00\n        /* \"#utility.yul\":41013:41015   */\n      0x60\n        /* \"#utility.yul\":41002:41011   */\n      dup3\n        /* \"#utility.yul\":40998:41016   */\n      add\n        /* \"#utility.yul\":40990:41016   */\n      swap1\n      pop\n        /* \"#utility.yul\":41026:41095   */\n      tag_994\n        /* \"#utility.yul\":41092:41093   */\n      0x00\n        /* \"#utility.yul\":41081:41090   */\n      dup4\n        /* \"#utility.yul\":41077:41094   */\n      add\n        /* \"#utility.yul\":41068:41074   */\n      dup7\n        /* \"#utility.yul\":41026:41095   */\n      tag_525\n      jump\t// in\n    tag_994:\n        /* \"#utility.yul\":41105:41175   */\n      tag_995\n        /* \"#utility.yul\":41171:41173   */\n      0x20\n        /* \"#utility.yul\":41160:41169   */\n      dup4\n        /* \"#utility.yul\":41156:41174   */\n      add\n        /* \"#utility.yul\":41147:41153   */\n      dup6\n        /* \"#utility.yul\":41105:41175   */\n      tag_525\n      jump\t// in\n    tag_995:\n        /* \"#utility.yul\":41185:41266   */\n      tag_996\n        /* \"#utility.yul\":41262:41264   */\n      0x40\n        /* \"#utility.yul\":41251:41260   */\n      dup4\n        /* \"#utility.yul\":41247:41265   */\n      add\n        /* \"#utility.yul\":41238:41244   */\n      dup5\n        /* \"#utility.yul\":41185:41266   */\n      tag_526\n      jump\t// in\n    tag_996:\n        /* \"#utility.yul\":40821:41273   */\n      swap5\n      swap4\n      pop\n      pop\n      pop\n      pop\n      jump\t// out\n        /* \"#utility.yul\":41279:41444   */\n    tag_581:\n        /* \"#utility.yul\":41419:41436   */\n      0x4e6f20616374697665207374616b650000000000000000000000000000000000\n        /* \"#utility.yul\":41415:41416   */\n      0x00\n        /* \"#utility.yul\":41407:41413   */\n      dup3\n        /* \"#utility.yul\":41403:41417   */\n      add\n        /* \"#utility.yul\":41396:41437   */\n      mstore\n        /* \"#utility.yul\":41279:41444   */\n      pop\n      jump\t// out\n        /* \"#utility.yul\":41450:41816   */\n    tag_582:\n        /* \"#utility.yul\":41592:41595   */\n      0x00\n        /* \"#utility.yul\":41613:41680   */\n      tag_999\n        /* \"#utility.yul\":41677:41679   */\n      0x0f\n        /* \"#utility.yul\":41672:41675   */\n      dup4\n        /* \"#utility.yul\":41613:41680   */\n      tag_536\n      jump\t// in\n    tag_999:\n        /* \"#utility.yul\":41606:41680   */\n      swap2\n      pop\n        /* \"#utility.yul\":41689:41782   */\n      tag_1000\n        /* \"#utility.yul\":41778:41781   */\n      dup3\n        /* \"#utility.yul\":41689:41782   */\n      tag_581\n      jump\t// in\n    tag_1000:\n        /* \"#utility.yul\":41807:41809   */\n      0x20\n        /* \"#utility.yul\":41802:41805   */\n      dup3\n        /* \"#utility.yul\":41798:41810   */\n      add\n        /* \"#utility.yul\":41791:41810   */\n      swap1\n      pop\n        /* \"#utility.yul\":41450:41816   */\n      swap2\n      swap1\n      pop\n      jump\t// out\n        /* \"#utility.yul\":41822:42241   */\n    tag_421:\n        /* \"#utility.yul\":41988:41992   */\n      0x00\n        /* \"#utility.yul\":42026:42028   */\n      0x20\n        /* \"#utility.yul\":42015:42024   */\n      dup3\n        /* \"#utility.yul\":42011:42029   */\n      add\n        /* \"#utility.yul\":42003:42029   */\n      swap1\n      pop\n        /* \"#utility.yul\":42075:42084   */\n      dup2\n        /* \"#utility.yul\":42069:42073   */\n      dup2\n        /* \"#utility.yul\":42065:42085   */\n      sub\n        /* \"#utility.yul\":42061:42062   */\n      0x00\n        /* \"#utility.yul\":42050:42059   */\n      dup4\n        /* \"#utility.yul\":42046:42063   */\n      add\n        /* \"#utility.yul\":42039:42086   */\n      mstore\n        /* \"#utility.yul\":42103:42234   */\n      tag_1002\n        /* \"#utility.yul\":42229:42233   */\n      dup2\n        /* \"#utility.yul\":42103:42234   */\n      tag_582\n      jump\t// in\n    tag_1002:\n        /* \"#utility.yul\":42095:42234   */\n      swap1\n      pop\n        /* \"#utility.yul\":41822:42241   */\n      swap2\n      swap1\n      pop\n      jump\t// out\n        /* \"#utility.yul\":42247:42415   */\n    tag_583:\n        /* \"#utility.yul\":42387:42407   */\n      0x4d757374207761697420323420686f7572730000000000000000000000000000\n        /* \"#utility.yul\":42383:42384   */\n      0x00\n        /* \"#utility.yul\":42375:42381   */\n      dup3\n        /* \"#utility.yul\":42371:42385   */\n      add\n        /* \"#utility.yul\":42364:42408   */\n      mstore\n        /* \"#utility.yul\":42247:42415   */\n      pop\n      jump\t// out\n        /* \"#utility.yul\":42421:42787   */\n    tag_584:\n        /* \"#utility.yul\":42563:42566   */\n      0x00\n        /* \"#utility.yul\":42584:42651   */\n      tag_1005\n        /* \"#utility.yul\":42648:42650   */\n      0x12\n        /* \"#utility.yul\":42643:42646   */\n      dup4\n        /* \"#utility.yul\":42584:42651   */\n      tag_536\n      jump\t// in\n    tag_1005:\n        /* \"#utility.yul\":42577:42651   */\n      swap2\n      pop\n        /* \"#utility.yul\":42660:42753   */\n      tag_1006\n        /* \"#utility.yul\":42749:42752   */\n      dup3\n        /* \"#utility.yul\":42660:42753   */\n      tag_583\n      jump\t// in\n    tag_1006:\n        /* \"#utility.yul\":42778:42780   */\n      0x20\n        /* \"#utility.yul\":42773:42776   */\n      dup3\n        /* \"#utility.yul\":42769:42781   */\n      add\n        /* \"#utility.yul\":42762:42781   */\n      swap1\n      pop\n        /* \"#utility.yul\":42421:42787   */\n      swap2\n      swap1\n      pop\n      jump\t// out\n        /* \"#utility.yul\":42793:43212   */\n    tag_425:\n        /* \"#utility.yul\":42959:42963   */\n      0x00\n        /* \"#utility.yul\":42997:42999   */\n      0x20\n        /* \"#utility.yul\":42986:42995   */\n      dup3\n        /* \"#utility.yul\":42982:43000   */\n      add\n        /* \"#utility.yul\":42974:43000   */\n      swap1\n      pop\n        /* \"#utility.yul\":43046:43055   */\n      dup2\n        /* \"#utility.yul\":43040:43044   */\n      dup2\n        /* \"#utility.yul\":43036:43056   */\n      sub\n        /* \"#utility.yul\":43032:43033   */\n      0x00\n        /* \"#utility.yul\":43021:43030   */\n      dup4\n        /* \"#utility.yul\":43017:43034   */\n      add\n        /* \"#utility.yul\":43010:43057   */\n      mstore\n        /* \"#utility.yul\":43074:43205   */\n      tag_1008\n        /* \"#utility.yul\":43200:43204   */\n      dup2\n        /* \"#utility.yul\":43074:43205   */\n      tag_584\n      jump\t// in\n    tag_1008:\n        /* \"#utility.yul\":43066:43205   */\n      swap1\n      pop\n        /* \"#utility.yul\":42793:43212   */\n      swap2\n      swap1\n      pop\n      jump\t// out\n        /* \"#utility.yul\":43218:43443   */\n    tag_585:\n        /* \"#utility.yul\":43358:43392   */\n      0x4f776e61626c653a206e6577206f776e657220697320746865207a65726f2061\n        /* \"#utility.yul\":43354:43355   */\n      0x00\n        /* \"#utility.yul\":43346:43352   */\n      dup3\n        /* \"#utility.yul\":43342:43356   */\n      add\n        /* \"#utility.yul\":43335:43393   */\n      mstore\n        /* \"#utility.yul\":43427:43435   */\n      0x6464726573730000000000000000000000000000000000000000000000000000\n        /* \"#utility.yul\":43422:43424   */\n      0x20\n        /* \"#utility.yul\":43414:43420   */\n      dup3\n        /* \"#utility.yul\":43410:43425   */\n      add\n        /* \"#utility.yul\":43403:43436   */\n      mstore\n        /* \"#utility.yul\":43218:43443   */\n      pop\n      jump\t// out\n        /* \"#utility.yul\":43449:43815   */\n    tag_586:\n        /* \"#utility.yul\":43591:43594   */\n      0x00\n        /* \"#utility.yul\":43612:43679   */\n      tag_1011\n        /* \"#utility.yul\":43676:43678   */\n      0x26\n        /* \"#utility.yul\":43671:43674   */\n      dup4\n        /* \"#utility.yul\":43612:43679   */\n      tag_536\n      jump\t// in\n    tag_1011:\n        /* \"#utility.yul\":43605:43679   */\n      swap2\n      pop\n        /* \"#utility.yul\":43688:43781   */\n      tag_1012\n        /* \"#utility.yul\":43777:43780   */\n      dup3\n        /* \"#utility.yul\":43688:43781   */\n      tag_585\n      jump\t// in\n    tag_1012:\n        /* \"#utility.yul\":43806:43808   */\n      0x40\n        /* \"#utility.yul\":43801:43804   */\n      dup3\n        /* \"#utility.yul\":43797:43809   */\n      add\n        /* \"#utility.yul\":43790:43809   */\n      swap1\n      pop\n        /* \"#utility.yul\":43449:43815   */\n      swap2\n      swap1\n      pop\n      jump\t// out\n        /* \"#utility.yul\":43821:44240   */\n    tag_442:\n        /* \"#utility.yul\":43987:43991   */\n      0x00\n        /* \"#utility.yul\":44025:44027   */\n      0x20\n        /* \"#utility.yul\":44014:44023   */\n      dup3\n        /* \"#utility.yul\":44010:44028   */\n      add\n        /* \"#utility.yul\":44002:44028   */\n      swap1\n      pop\n        /* \"#utility.yul\":44074:44083   */\n      dup2\n        /* \"#utility.yul\":44068:44072   */\n      dup2\n        /* \"#utility.yul\":44064:44084   */\n      sub\n        /* \"#utility.yul\":44060:44061   */\n      0x00\n        /* \"#utility.yul\":44049:44058   */\n      dup4\n        /* \"#utility.yul\":44045:44062   */\n      add\n        /* \"#utility.yul\":44038:44085   */\n      mstore\n        /* \"#utility.yul\":44102:44233   */\n      tag_1014\n        /* \"#utility.yul\":44228:44232   */\n      dup2\n        /* \"#utility.yul\":44102:44233   */\n      tag_586\n      jump\t// in\n    tag_1014:\n        /* \"#utility.yul\":44094:44233   */\n      swap1\n      pop\n        /* \"#utility.yul\":43821:44240   */\n      swap2\n      swap1\n      pop\n      jump\t// out\n        /* \"#utility.yul\":44246:44428   */\n    tag_587:\n        /* \"#utility.yul\":44386:44420   */\n      0x4f776e61626c653a2063616c6c6572206973206e6f7420746865206f776e6572\n        /* \"#utility.yul\":44382:44383   */\n      0x00\n        /* \"#utility.yul\":44374:44380   */\n      dup3\n        /* \"#utility.yul\":44370:44384   */\n      add\n        /* \"#utility.yul\":44363:44421   */\n      mstore\n        /* \"#utility.yul\":44246:44428   */\n      pop\n      jump\t// out\n        /* \"#utility.yul\":44434:44800   */\n    tag_588:\n        /* \"#utility.yul\":44576:44579   */\n      0x00\n        /* \"#utility.yul\":44597:44664   */\n      tag_1017\n        /* \"#utility.yul\":44661:44663   */\n      0x20\n        /* \"#utility.yul\":44656:44659   */\n      dup4\n        /* \"#utility.yul\":44597:44664   */\n      tag_536\n      jump\t// in\n    tag_1017:\n        /* \"#utility.yul\":44590:44664   */\n      swap2\n      pop\n        /* \"#utility.yul\":44673:44766   */\n      tag_1018\n        /* \"#utility.yul\":44762:44765   */\n      dup3\n        /* \"#utility.yul\":44673:44766   */\n      tag_587\n      jump\t// in\n    tag_1018:\n        /* \"#utility.yul\":44791:44793   */\n      0x20\n        /* \"#utility.yul\":44786:44789   */\n      dup3\n        /* \"#utility.yul\":44782:44794   */\n      add\n        /* \"#utility.yul\":44775:44794   */\n      swap1\n      pop\n        /* \"#utility.yul\":44434:44800   */\n      swap2\n      swap1\n      pop\n      jump\t// out\n        /* \"#utility.yul\":44806:45225   */\n    tag_450:\n        /* \"#utility.yul\":44972:44976   */\n      0x00\n        /* \"#utility.yul\":45010:45012   */\n      0x20\n        /* \"#utility.yul\":44999:45008   */\n      dup3\n        /* \"#utility.yul\":44995:45013   */\n      add\n        /* \"#utility.yul\":44987:45013   */\n      swap1\n      pop\n        /* \"#utility.yul\":45059:45068   */\n      dup2\n        /* \"#utility.yul\":45053:45057   */\n      dup2\n        /* \"#utility.yul\":45049:45069   */\n      sub\n        /* \"#utility.yul\":45045:45046   */\n      0x00\n        /* \"#utility.yul\":45034:45043   */\n      dup4\n        /* \"#utility.yul\":45030:45047   */\n      add\n        /* \"#utility.yul\":45023:45070   */\n      mstore\n        /* \"#utility.yul\":45087:45218   */\n      tag_1020\n        /* \"#utility.yul\":45213:45217   */\n      dup2\n        /* \"#utility.yul\":45087:45218   */\n      tag_588\n      jump\t// in\n    tag_1020:\n        /* \"#utility.yul\":45079:45218   */\n      swap1\n      pop\n        /* \"#utility.yul\":44806:45225   */\n      swap2\n      swap1\n      pop\n      jump\t// out\n        /* \"#utility.yul\":45231:45412   */\n    tag_589:\n        /* \"#utility.yul\":45371:45404   */\n      0x5265656e7472616e637947756172643a207265656e7472616e742063616c6c00\n        /* \"#utility.yul\":45367:45368   */\n      0x00\n        /* \"#utility.yul\":45359:45365   */\n      dup3\n        /* \"#utility.yul\":45355:45369   */\n      add\n        /* \"#utility.yul\":45348:45405   */\n      mstore\n        /* \"#utility.yul\":45231:45412   */\n      pop\n      jump\t// out\n        /* \"#utility.yul\":45418:45784   */\n    tag_590:\n        /* \"#utility.yul\":45560:45563   */\n      0x00\n        /* \"#utility.yul\":45581:45648   */\n      tag_1023\n        /* \"#utility.yul\":45645:45647   */\n      0x1f\n        /* \"#utility.yul\":45640:45643   */\n      dup4\n        /* \"#utility.yul\":45581:45648   */\n      tag_536\n      jump\t// in\n    tag_1023:\n        /* \"#utility.yul\":45574:45648   */\n      swap2\n      pop\n        /* \"#utility.yul\":45657:45750   */\n      tag_1024\n        /* \"#utility.yul\":45746:45749   */\n      dup3\n        /* \"#utility.yul\":45657:45750   */\n      tag_589\n      jump\t// in\n    tag_1024:\n        /* \"#utility.yul\":45775:45777   */\n      0x20\n        /* \"#utility.yul\":45770:45773   */\n      dup3\n        /* \"#utility.yul\":45766:45778   */\n      add\n        /* \"#utility.yul\":45759:45778   */\n      swap1\n      pop\n        /* \"#utility.yul\":45418:45784   */\n      swap2\n      swap1\n      pop\n      jump\t// out\n        /* \"#utility.yul\":45790:46209   */\n    tag_454:\n        /* \"#utility.yul\":45956:45960   */\n      0x00\n        /* \"#utility.yul\":45994:45996   */\n      0x20\n        /* \"#utility.yul\":45983:45992   */\n      dup3\n        /* \"#utility.yul\":45979:45997   */\n      add\n        /* \"#utility.yul\":45971:45997   */\n      swap1\n      pop\n        /* \"#utility.yul\":46043:46052   */\n      dup2\n        /* \"#utility.yul\":46037:46041   */\n      dup2\n        /* \"#utility.yul\":46033:46053   */\n      sub\n        /* \"#utility.yul\":46029:46030   */\n      0x00\n        /* \"#utility.yul\":46018:46027   */\n      dup4\n        /* \"#utility.yul\":46014:46031   */\n      add\n        /* \"#utility.yul\":46007:46054   */\n      mstore\n        /* \"#utility.yul\":46071:46202   */\n      tag_1026\n        /* \"#utility.yul\":46197:46201   */\n      dup2\n        /* \"#utility.yul\":46071:46202   */\n      tag_590\n      jump\t// in\n    tag_1026:\n        /* \"#utility.yul\":46063:46202   */\n      swap1\n      pop\n        /* \"#utility.yul\":45790:46209   */\n      swap2\n      swap1\n      pop\n      jump\t// out\n        /* \"#utility.yul\":46215:46381   */\n    tag_591:\n        /* \"#utility.yul\":46355:46373   */\n      0x5061757361626c653a2070617573656400000000000000000000000000000000\n        /* \"#utility.yul\":46351:46352   */\n      0x00\n        /* \"#utility.yul\":46343:46349   */\n      dup3\n        /* \"#utility.yul\":46339:46353   */\n      add\n        /* \"#utility.yul\":46332:46374   */\n      mstore\n        /* \"#utility.yul\":46215:46381   */\n      pop\n      jump\t// out\n        /* \"#utility.yul\":46387:46753   */\n    tag_592:\n        /* \"#utility.yul\":46529:46532   */\n      0x00\n        /* \"#utility.yul\":46550:46617   */\n      tag_1029\n        /* \"#utility.yul\":46614:46616   */\n      0x10\n        /* \"#utility.yul\":46609:46612   */\n      dup4\n        /* \"#utility.yul\":46550:46617   */\n      tag_536\n      jump\t// in\n    tag_1029:\n        /* \"#utility.yul\":46543:46617   */\n      swap2\n      pop\n        /* \"#utility.yul\":46626:46719   */\n      tag_1030\n        /* \"#utility.yul\":46715:46718   */\n      dup3\n        /* \"#utility.yul\":46626:46719   */\n      tag_591\n      jump\t// in\n    tag_1030:\n        /* \"#utility.yul\":46744:46746   */\n      0x20\n        /* \"#utility.yul\":46739:46742   */\n      dup3\n        /* \"#utility.yul\":46735:46747   */\n      add\n        /* \"#utility.yul\":46728:46747   */\n      swap1\n      pop\n        /* \"#utility.yul\":46387:46753   */\n      swap2\n      swap1\n      pop\n      jump\t// out\n        /* \"#utility.yul\":46759:47178   */\n    tag_459:\n        /* \"#utility.yul\":46925:46929   */\n      0x00\n        /* \"#utility.yul\":46963:46965   */\n      0x20\n        /* \"#utility.yul\":46952:46961   */\n      dup3\n        /* \"#utility.yul\":46948:46966   */\n      add\n        /* \"#utility.yul\":46940:46966   */\n      swap1\n      pop\n        /* \"#utility.yul\":47012:47021   */\n      dup2\n        /* \"#utility.yul\":47006:47010   */\n      dup2\n        /* \"#utility.yul\":47002:47022   */\n      sub\n        /* \"#utility.yul\":46998:46999   */\n      0x00\n        /* \"#utility.yul\":46987:46996   */\n      dup4\n        /* \"#utility.yul\":46983:47000   */\n      add\n        /* \"#utility.yul\":46976:47023   */\n      mstore\n        /* \"#utility.yul\":47040:47171   */\n      tag_1032\n        /* \"#utility.yul\":47166:47170   */\n      dup2\n        /* \"#utility.yul\":47040:47171   */\n      tag_592\n      jump\t// in\n    tag_1032:\n        /* \"#utility.yul\":47032:47171   */\n      swap1\n      pop\n        /* \"#utility.yul\":46759:47178   */\n      swap2\n      swap1\n      pop\n      jump\t// out\n        /* \"#utility.yul\":47184:47354   */\n    tag_593:\n        /* \"#utility.yul\":47324:47346   */\n      0x5061757361626c653a206e6f7420706175736564000000000000000000000000\n        /* \"#utility.yul\":47320:47321   */\n      0x00\n        /* \"#utility.yul\":47312:47318   */\n      dup3\n        /* \"#utility.yul\":47308:47322   */\n      add\n        /* \"#utility.yul\":47301:47347   */\n      mstore\n        /* \"#utility.yul\":47184:47354   */\n      pop\n      jump\t// out\n        /* \"#utility.yul\":47360:47726   */\n    tag_594:\n        /* \"#utility.yul\":47502:47505   */\n      0x00\n        /* \"#utility.yul\":47523:47590   */\n      tag_1035\n        /* \"#utility.yul\":47587:47589   */\n      0x14\n        /* \"#utility.yul\":47582:47585   */\n      dup4\n        /* \"#utility.yul\":47523:47590   */\n      tag_536\n      jump\t// in\n    tag_1035:\n        /* \"#utility.yul\":47516:47590   */\n      swap2\n      pop\n        /* \"#utility.yul\":47599:47692   */\n      tag_1036\n        /* \"#utility.yul\":47688:47691   */\n      dup3\n        /* \"#utility.yul\":47599:47692   */\n      tag_593\n      jump\t// in\n    tag_1036:\n        /* \"#utility.yul\":47717:47719   */\n      0x20\n        /* \"#utility.yul\":47712:47715   */\n      dup3\n        /* \"#utility.yul\":47708:47720   */\n      add\n        /* \"#utility.yul\":47701:47720   */\n      swap1\n      pop\n        /* \"#utility.yul\":47360:47726   */\n      swap2\n      swap1\n      pop\n      jump\t// out\n        /* \"#utility.yul\":47732:48151   */\n    tag_480:\n        /* \"#utility.yul\":47898:47902   */\n      0x00\n        /* \"#utility.yul\":47936:47938   */\n      0x20\n        /* \"#utility.yul\":47925:47934   */\n      dup3\n        /* \"#utility.yul\":47921:47939   */\n      add\n        /* \"#utility.yul\":47913:47939   */\n      swap1\n      pop\n        /* \"#utility.yul\":47985:47994   */\n      dup2\n        /* \"#utility.yul\":47979:47983   */\n      dup2\n        /* \"#utility.yul\":47975:47995   */\n      sub\n        /* \"#utility.yul\":47971:47972   */\n      0x00\n        /* \"#utility.yul\":47960:47969   */\n      dup4\n        /* \"#utility.yul\":47956:47973   */\n      add\n        /* \"#utility.yul\":47949:47996   */\n      mstore\n        /* \"#utility.yul\":48013:48144   */\n      tag_1038\n        /* \"#utility.yul\":48139:48143   */\n      dup2\n        /* \"#utility.yul\":48013:48144   */\n      tag_594\n      jump\t// in\n    tag_1038:\n        /* \"#utility.yul\":48005:48144   */\n      swap1\n      pop\n        /* \"#utility.yul\":47732:48151   */\n      swap2\n      swap1\n      pop\n      jump\t// out\n\n    auxdata: 0xa2646970667358221220944086c039ed6caca28e079c1bb63ee61fd05904f55dc8dcb5a25cb3f8c5fcb264736f6c63430008130033\n}\n",
				"bytecode": {
					"linkReferences": {},
					"object": "6080604052662386f26fc10000600455678ac7230489e8000060055560c860065560056007553480156200003257600080fd5b506040516200430c3803806200430c833981810160405281019062000058919062000229565b620000786200006c620000f360201b60201c565b620000fb60201b60201c565b600180819055506000600260006101000a81548160ff02191690831515021790555080600260016101000a81548173ffffffffffffffffffffffffffffffffffffffff021916908373ffffffffffffffffffffffffffffffffffffffff160217905550620000ec33620000fb60201b60201c565b506200025b565b600033905090565b60008060009054906101000a900473ffffffffffffffffffffffffffffffffffffffff169050816000806101000a81548173ffffffffffffffffffffffffffffffffffffffff021916908373ffffffffffffffffffffffffffffffffffffffff1602179055508173ffffffffffffffffffffffffffffffffffffffff168173ffffffffffffffffffffffffffffffffffffffff167f8be0079c531659141344cd1fd0a4f28419497f9722a3daafe3b4186f6b6457e060405160405180910390a35050565b600080fd5b600073ffffffffffffffffffffffffffffffffffffffff82169050919050565b6000620001f182620001c4565b9050919050565b6200020381620001e4565b81146200020f57600080fd5b50565b6000815190506200022381620001f8565b92915050565b600060208284031215620002425762000241620001bf565b5b6000620002528482850162000212565b91505092915050565b6140a1806200026b6000396000f3fe6080604052600436106101dc5760003560e01c80638da5cb5b11610102578063bbed7fdb11610095578063d1ba26f911610064578063d1ba26f9146106d6578063db2e21bc146106ff578063ec5ffac214610716578063f2fde38b14610741576101e3565b8063bbed7fdb14610614578063bece75321461063d578063cdafbbb614610668578063cf24141a146106ab576101e3565b8063a66d6dc0116100d1578063a66d6dc014610557578063b498692214610580578063b5c6b453146105a9578063b7d44644146105d4576101e3565b80638da5cb5b1461046b5780638f1d377614610496578063929a1923146104dd5780639e32aaa31461051a576101e3565b80634b0ea4a61161017a578063685c634211610149578063685c6342146103d05780636a60bd0014610414578063715018a61461043d5780638456cb5914610454576101e3565b80634b0ea4a6146103265780635c975abb146103635780635fd8c7101461038e578063619f3f61146103a5576101e3565b8063358b3855116101b6578063358b38551461026a5780633d40a54f146102a75780633e27fee2146102e45780633f4ba83a1461030f576101e3565b80630355c892146101e85780631bf6ddae146102115780633081eafe1461022d576101e3565b366101e357005b600080fd5b3480156101f457600080fd5b5061020f600480360381019061020a91906128d1565b61076a565b005b61022b60048036038101906102269190612911565b610835565b005b34801561023957600080fd5b50610254600480360381019061024f9190612911565b610d42565b6040516102619190612a8e565b60405180910390f35b34801561027657600080fd5b50610291600480360381019061028c9190612b08565b610e02565b60405161029e9190612b57565b60405180910390f35b3480156102b357600080fd5b506102ce60048036038101906102c99190612911565b610e33565b6040516102db9190612d4f565b60405180910390f35b3480156102f057600080fd5b506102f961109e565b6040516103069190612b57565b60405180910390f35b34801561031b57600080fd5b506103246110a4565b005b34801561033257600080fd5b5061034d60048036038101906103489190612d96565b6110b6565b60405161035a9190612b57565b60405180910390f35b34801561036f57600080fd5b50610378611196565b6040516103859190612dd2565b60405180910390f35b34801561039a57600080fd5b506103a36111ad565b005b3480156103b157600080fd5b506103ba611205565b6040516103c79190612dfc565b60405180910390f35b3480156103dc57600080fd5b506103f760048036038101906103f29190612911565b61122b565b60405161040b989796959493929190612e35565b60405180910390f35b34801561042057600080fd5b5061043b60048036038101906104369190612fe8565b61128d565b005b34801561044957600080fd5b50610452611936565b005b34801561046057600080fd5b5061046961194a565b005b34801561047757600080fd5b5061048061195c565b60405161048d9190612dfc565b60405180910390f35b3480156104a257600080fd5b506104bd60048036038101906104b89190612911565b611985565b6040516104d49b9a999897969594939291906130b0565b60405180910390f35b3480156104e957600080fd5b5061050460048036038101906104ff9190613169565b611b36565b6040516105119190613245565b60405180910390f35b34801561052657600080fd5b50610541600480360381019061053c9190613169565b611bcd565b60405161054e9190612dd2565b60405180910390f35b34801561056357600080fd5b5061057e60048036038101906105799190613267565b611bed565b005b34801561058c57600080fd5b506105a760048036038101906105a291906132e2565b611c59565b005b3480156105b557600080fd5b506105be611d0a565b6040516105cb9190612b57565b60405180910390f35b3480156105e057600080fd5b506105fb60048036038101906105f69190613169565b611d10565b60405161060b9493929190613322565b60405180910390f35b34801561062057600080fd5b5061063b60048036038101906106369190613367565b611d4d565b005b34801561064957600080fd5b50610652611f65565b60405161065f9190612dfc565b60405180910390f35b34801561067457600080fd5b5061068f600480360381019061068a9190613169565b611f8b565b6040516106a297969594939291906133c3565b60405180910390f35b3480156106b757600080fd5b506106c0611fcd565b6040516106cd9190612b57565b60405180910390f35b3480156106e257600080fd5b506106fd60048036038101906106f8919061345e565b611fd3565b005b34801561070b57600080fd5b5061071461216a565b005b34801561072257600080fd5b5061072b6123b8565b6040516107389190612b57565b60405180910390f35b34801561074d57600080fd5b5061076860048036038101906107639190613169565b6123be565b005b610772612441565b6000600c600084815260200190815260200160002060000154036107cb576040517f08c379a00000000000000000000000000000000000000000000000000000000081526004016107c290613525565b60405180910390fd5b80600c600084815260200190815260200160002060040160016101000a81548160ff021916908315150217905550817fce5d422e23968aa174a8455b0889f3d82d14cfd63c91191ef04bfaa6a030dcb0826040516108299190612dd2565b60405180910390a25050565b61083d6124bf565b61084561250e565b34600454811015801561085a57506005548111155b610899576040517f08c379a000000000000000000000000000000000000000000000000000000000815260040161089090613591565b60405180910390fd5b600c600083815260200190815260200160002060040160019054906101000a900460ff166108fc576040517f08c379a00000000000000000000000000000000000000000000000000000000081526004016108f3906135fd565b60405180910390fd5b600a60003373ffffffffffffffffffffffffffffffffffffffff1673ffffffffffffffffffffffffffffffffffffffff16815260200190815260200160002060020160009054906101000a900460ff161561098c576040517f08c379a000000000000000000000000000000000000000000000000000000000815260040161098390613669565b60405180910390fd5b60006109986008612558565b90506109a46008612566565b604051806080016040528034815260200142815260200160011515815260200182815250600a60003373ffffffffffffffffffffffffffffffffffffffff1673ffffffffffffffffffffffffffffffffffffffff168152602001908152602001600020600082015181600001556020820151816001015560408201518160020160006101000a81548160ff021916908315150217905550606082015181600301559050506040518061016001604052808281526020013373ffffffffffffffffffffffffffffffffffffffff16815260200134815260200160405180602001604052806000815250815260200160405180602001604052806000815250815260200160006003811115610aba57610ab9612966565b5b815260200142815260200160008152602001600015158152602001848152602001600c600086815260200190815260200160002060040160009054906101000a900460ff166003811115610b1157610b10612966565b5b815250600b60008381526020019081526020016000206000820151816000015560208201518160010160006101000a81548173ffffffffffffffffffffffffffffffffffffffff021916908373ffffffffffffffffffffffffffffffffffffffff160217905550604082015181600201556060820151816003019081610b979190613895565b506080820151816004019081610bad9190613895565b5060a08201518160050160006101000a81548160ff02191690836003811115610bd957610bd8612966565b5b021790555060c0820151816006015560e082015181600701556101008201518160080160006101000a81548160ff021916908315150217905550610120820151816009015561014082015181600a0160006101000a81548160ff02191690836003811115610c4a57610c49612966565b5b021790555090505034600c60008581526020019081526020016000206006016000828254610c789190613996565b92505081905550600f60003373ffffffffffffffffffffffffffffffffffffffff1673ffffffffffffffffffffffffffffffffffffffff1681526020019081526020016000208190806001815401808255809150506001900390600052602060002001600090919091909150553373ffffffffffffffffffffffffffffffffffffffff167f1449c6dd7851abc30abf37f57715f492010519147cc2652fbc38202c18a6ee903483604051610d2d9291906139ca565b60405180910390a25050610d3f61257c565b50565b610d4a612760565b600c600083815260200190815260200160002060405180610100016040529081600082015481526020016001820154815260200160028201548152602001600382015481526020016004820160009054906101000a900460ff166003811115610db657610db5612966565b5b6003811115610dc857610dc7612966565b5b81526020016004820160019054906101000a900460ff16151515158152602001600582015481526020016006820154815250509050919050565b600f6020528160005260406000208181548110610e1e57600080fd5b90600052602060002001600091509150505481565b610e3b6127b9565b600b600083815260200190815260200160002060405180610160016040529081600082015481526020016001820160009054906101000a900473ffffffffffffffffffffffffffffffffffffffff1673ffffffffffffffffffffffffffffffffffffffff1673ffffffffffffffffffffffffffffffffffffffff16815260200160028201548152602001600382018054610ed4906136b8565b80601f0160208091040260200160405190810160405280929190818152602001828054610f00906136b8565b8015610f4d5780601f10610f2257610100808354040283529160200191610f4d565b820191906000526020600020905b815481529060010190602001808311610f3057829003601f168201915b50505050508152602001600482018054610f66906136b8565b80601f0160208091040260200160405190810160405280929190818152602001828054610f92906136b8565b8015610fdf5780601f10610fb457610100808354040283529160200191610fdf565b820191906000526020600020905b815481529060010190602001808311610fc257829003601f168201915b505050505081526020016005820160009054906101000a900460ff16600381111561100d5761100c612966565b5b600381111561101f5761101e612966565b5b815260200160068201548152602001600782015481526020016008820160009054906101000a900460ff1615151515815260200160098201548152602001600a820160009054906101000a900460ff16600381111561108157611080612966565b5b600381111561109357611092612966565b5b815250509050919050565b60075481565b6110ac612441565b6110b4612585565b565b60008060038111156110cb576110ca612966565b5b8260038111156110de576110dd612966565b5b036110ec5760969050611191565b60016003811115611100576110ff612966565b5b82600381111561111357611112612966565b5b036111215760c89050611191565b6002600381111561113557611134612966565b5b82600381111561114857611147612966565b5b036111575761012c9050611191565b60038081111561116a57611169612966565b5b82600381111561117d5761117c612966565b5b0361118c576101f49050611191565b609690505b919050565b6000600260009054906101000a900460ff16905090565b6111b5612441565b6111bd61195c565b73ffffffffffffffffffffffffffffffffffffffff166108fc479081150290604051600060405180830381858888f19350505050158015611202573d6000803e3d6000fd5b50565b600260019054906101000a900473ffffffffffffffffffffffffffffffffffffffff1681565b600c6020528060005260406000206000915090508060000154908060010154908060020154908060030154908060040160009054906101000a900460ff16908060040160019054906101000a900460ff16908060050154908060060154905088565b600e60003373ffffffffffffffffffffffffffffffffffffffff1673ffffffffffffffffffffffffffffffffffffffff16815260200190815260200160002060009054906101000a900460ff168061131757506112e861195c565b73ffffffffffffffffffffffffffffffffffffffff163373ffffffffffffffffffffffffffffffffffffffff16145b611356576040517f08c379a000000000000000000000000000000000000000000000000000000000815260040161134d90613a3f565b60405180910390fd5b61135e6124bf565b6000600b600085815260200190815260200160002090506000600381111561138957611388612966565b5b8160050160009054906101000a900460ff1660038111156113ad576113ac612966565b5b146113ed576040517f08c379a00000000000000000000000000000000000000000000000000000000081526004016113e490613aab565b60405180910390fd5b60008160010160009054906101000a900473ffffffffffffffffffffffffffffffffffffffff1690506000600a60008373ffffffffffffffffffffffffffffffffffffffff1673ffffffffffffffffffffffffffffffffffffffff16815260200190815260200160002090508060020160009054906101000a900460ff16801561147a5750858160030154145b6114b9576040517f08c379a00000000000000000000000000000000000000000000000000000000081526004016114b090613b17565b60405180910390fd5b848360040190816114ca9190613895565b5042836007018190555060018360080160006101000a81548160ff021916908315150217905550836114fd576002611500565b60015b8360050160006101000a81548160ff0219169083600381111561152657611525612966565b5b021790555060008160020160006101000a81548160ff0219169083151502179055506000841561172a57600061156c85600a0160009054906101000a900460ff166110b6565b905060648184600001546115809190613b37565b61158a9190613ba8565b9150600060646007548461159e9190613b37565b6115a89190613ba8565b905080836115b69190613bd9565b92508473ffffffffffffffffffffffffffffffffffffffff166108fc849081150290604051600060405180830381858888f193505050501580156115fe573d6000803e3d6000fd5b50600081111561167257600260019054906101000a900473ffffffffffffffffffffffffffffffffffffffff1673ffffffffffffffffffffffffffffffffffffffff166108fc829081150290604051600060405180830381858888f19350505050158015611670573d6000803e3d6000fd5b505b6000600d60008773ffffffffffffffffffffffffffffffffffffffff1673ffffffffffffffffffffffffffffffffffffffff1681526020019081526020016000209050838160010160008282546116c99190613996565b925050819055508060020160008154809291906116e590613c0d565b91905055508060040160008154809291906116ff90613c0d565b919050555080600501548160040154111561172257806004015481600501819055505b505050611800565b600260019054906101000a900473ffffffffffffffffffffffffffffffffffffffff1673ffffffffffffffffffffffffffffffffffffffff166108fc83600001549081150290604051600060405180830381858888f19350505050158015611796573d6000803e3d6000fd5b506000600d60008573ffffffffffffffffffffffffffffffffffffffff1673ffffffffffffffffffffffffffffffffffffffff16815260200190815260200160002090508060030160008154809291906117ef90613c0d565b919050555060008160040181905550505b600c600085600901548152602001908152602001600020600501600081548092919061182b90613c0d565b91905055508160000154600d60008573ffffffffffffffffffffffffffffffffffffffff1673ffffffffffffffffffffffffffffffffffffffff16815260200190815260200160002060000160008282546118869190613996565b9250508190555042600d60008573ffffffffffffffffffffffffffffffffffffffff1673ffffffffffffffffffffffffffffffffffffffff168152602001908152602001600020600601819055508273ffffffffffffffffffffffffffffffffffffffff16877ff531285ca704745eddab0f3ffd7e758c9d25cc5307e3c886d15ed35f880c6ee1878460405161191d929190613c55565b60405180910390a35050505061193161257c565b505050565b61193e612441565b61194860006125e8565b565b611952612441565b61195a6126ac565b565b60008060009054906101000a900473ffffffffffffffffffffffffffffffffffffffff16905090565b600b6020528060005260406000206000915090508060000154908060010160009054906101000a900473ffffffffffffffffffffffffffffffffffffffff16908060020154908060030180546119da906136b8565b80601f0160208091040260200160405190810160405280929190818152602001828054611a06906136b8565b8015611a535780601f10611a2857610100808354040283529160200191611a53565b820191906000526020600020905b815481529060010190602001808311611a3657829003601f168201915b505050505090806004018054611a68906136b8565b80601f0160208091040260200160405190810160405280929190818152602001828054611a94906136b8565b8015611ae15780601f10611ab657610100808354040283529160200191611ae1565b820191906000526020600020905b815481529060010190602001808311611ac457829003601f168201915b5050505050908060050160009054906101000a900460ff16908060060154908060070154908060080160009054906101000a900460ff169080600901549080600a0160009054906101000a900460ff1690508b565b6060600f60008373ffffffffffffffffffffffffffffffffffffffff1673ffffffffffffffffffffffffffffffffffffffff168152602001908152602001600020805480602002602001604051908101604052809291908181526020018280548015611bc157602002820191906000526020600020905b815481526020019060010190808311611bad575b50505050509050919050565b600e6020528060005260406000206000915054906101000a900460ff1681565b611bf5612441565b8460048190555083600581905550826006819055508160078190555080600260016101000a81548173ffffffffffffffffffffffffffffffffffffffff021916908373ffffffffffffffffffffffffffffffffffffffff1602179055505050505050565b611c61612441565b80600e60008473ffffffffffffffffffffffffffffffffffffffff1673ffffffffffffffffffffffffffffffffffffffff16815260200190815260200160002060006101000a81548160ff0219169083151502179055508173ffffffffffffffffffffffffffffffffffffffff167f1964273d193fb2f4735c932d08bbdb5cbaaf807bb74a86b6f4be09af78d42c9282604051611cfe9190612dd2565b60405180910390a25050565b60055481565b600a6020528060005260406000206000915090508060000154908060010154908060020160009054906101000a900460ff16908060030154905084565b600e60003373ffffffffffffffffffffffffffffffffffffffff1673ffffffffffffffffffffffffffffffffffffffff16815260200190815260200160002060009054906101000a900460ff1680611dd75750611da861195c565b73ffffffffffffffffffffffffffffffffffffffff163373ffffffffffffffffffffffffffffffffffffffff16145b611e16576040517f08c379a0000000000000000000000000000000000000000000000000000000008152600401611e0d90613a3f565b60405180910390fd5b60006003811115611e2a57611e29612966565b5b600b600084815260200190815260200160002060050160009054906101000a900460ff166003811115611e6057611e5f612966565b5b14611ea0576040517f08c379a0000000000000000000000000000000000000000000000000000000008152600401611e9790613aab565b60405180910390fd5b80600b60008481526020019081526020016000206003019081611ec39190613895565b50600b600083815260200190815260200160002060010160009054906101000a900473ffffffffffffffffffffffffffffffffffffffff1673ffffffffffffffffffffffffffffffffffffffff16827f2045572326018ac04cf292b4443d536bd6c25c4d945e0b5e707382e73829f779600b60008681526020019081526020016000206009015484604051611f59929190613c7e565b60405180910390a35050565b600360009054906101000a900473ffffffffffffffffffffffffffffffffffffffff1681565b600d6020528060005260406000206000915090508060000154908060010154908060020154908060030154908060040154908060050154908060060154905087565b60065481565b611fdb612441565b6000600c60008781526020019081526020016000206000015414612034576040517f08c379a000000000000000000000000000000000000000000000000000000000815260040161202b90613cfa565b60405180910390fd5b60405180610100016040528086815260200185815260200184815260200183815260200182600381111561206b5761206a612966565b5b8152602001600115158152602001600081526020016000815250600c60008781526020019081526020016000206000820151816000015560208201518160010155604082015181600201556060820151816003015560808201518160040160006101000a81548160ff021916908360038111156120eb576120ea612966565b5b021790555060a08201518160040160016101000a81548160ff02191690831515021790555060c0820151816005015560e08201518160060155905050847f129587d9e08ad0ce02eaf47578bf568fda838194ab25452b17963223b17435dd85858460405161215b93929190613d1a565b60405180910390a25050505050565b6121726124bf565b6000600a60003373ffffffffffffffffffffffffffffffffffffffff1673ffffffffffffffffffffffffffffffffffffffff16815260200190815260200160002090508060020160009054906101000a900460ff16612206576040517f08c379a00000000000000000000000000000000000000000000000000000000081526004016121fd90613d9d565b60405180910390fd5b6201518081600101546122199190613996565b421161225a576040517f08c379a000000000000000000000000000000000000000000000000000000000815260040161225190613e09565b60405180910390fd5b60008160000154905060008260020160006101000a81548160ff0219169083151502179055506000600381111561229457612293612966565b5b600b60008460030154815260200190815260200160002060050160009054906101000a900460ff1660038111156122ce576122cd612966565b5b03612317576002600b60008460030154815260200190815260200160002060050160006101000a81548160ff0219169083600381111561231157612310612966565b5b02179055505b3373ffffffffffffffffffffffffffffffffffffffff166108fc829081150290604051600060405180830381858888f1935050505015801561235d573d6000803e3d6000fd5b503373ffffffffffffffffffffffffffffffffffffffff167f23d6711a1d031134a36921253c75aa59e967d38e369ac625992824315e204f20826040516123a49190612b57565b60405180910390a250506123b661257c565b565b60045481565b6123c6612441565b600073ffffffffffffffffffffffffffffffffffffffff168173ffffffffffffffffffffffffffffffffffffffff1603612435576040517f08c379a000000000000000000000000000000000000000000000000000000000815260040161242c90613e9b565b60405180910390fd5b61243e816125e8565b50565b61244961270f565b73ffffffffffffffffffffffffffffffffffffffff1661246761195c565b73ffffffffffffffffffffffffffffffffffffffff16146124bd576040517f08c379a00000000000000000000000000000000000000000000000000000000081526004016124b490613f07565b60405180910390fd5b565b600260015403612504576040517f08c379a00000000000000000000000000000000000000000000000000000000081526004016124fb90613f73565b60405180910390fd5b6002600181905550565b612516611196565b15612556576040517f08c379a000000000000000000000000000000000000000000000000000000000815260040161254d90613fdf565b60405180910390fd5b565b600081600001549050919050565b6001816000016000828254019250508190555050565b60018081905550565b61258d612717565b6000600260006101000a81548160ff0219169083151502179055507f5db9ee0a495bf2e6ff9c91a7834c1ba4fdd244a5e8aa4e537bd38aeae4b073aa6125d161270f565b6040516125de9190612dfc565b60405180910390a1565b60008060009054906101000a900473ffffffffffffffffffffffffffffffffffffffff169050816000806101000a81548173ffffffffffffffffffffffffffffffffffffffff021916908373ffffffffffffffffffffffffffffffffffffffff1602179055508173ffffffffffffffffffffffffffffffffffffffff168173ffffffffffffffffffffffffffffffffffffffff167f8be0079c531659141344cd1fd0a4f28419497f9722a3daafe3b4186f6b6457e060405160405180910390a35050565b6126b461250e565b6001600260006101000a81548160ff0219169083151502179055507f62e78cea01bee320cd4e420270b5ea74000d11b0c9f74754ebdbfc544b05a2586126f861270f565b6040516127059190612dfc565b60405180910390a1565b600033905090565b61271f611196565b61275e576040517f08c379a00000000000000000000000000000000000000000000000000000000081526004016127559061404b565b60405180910390fd5b565b604051806101000160405280600081526020016000815260200160008152602001600081526020016000600381111561279c5761279b612966565b5b815260200160001515815260200160008152602001600081525090565b60405180610160016040528060008152602001600073ffffffffffffffffffffffffffffffffffffffff1681526020016000815260200160608152602001606081526020016000600381111561281257612811612966565b5b81526020016000815260200160008152602001600015158152602001600081526020016000600381111561284957612848612966565b5b81525090565b6000604051905090565b600080fd5b600080fd5b6000819050919050565b61287681612863565b811461288157600080fd5b50565b6000813590506128938161286d565b92915050565b60008115159050919050565b6128ae81612899565b81146128b957600080fd5b50565b6000813590506128cb816128a5565b92915050565b600080604083850312156128e8576128e7612859565b5b60006128f685828601612884565b9250506020612907858286016128bc565b9150509250929050565b60006020828403121561292757612926612859565b5b600061293584828501612884565b91505092915050565b61294781612863565b82525050565b6000819050919050565b6129608161294d565b82525050565b7f4e487b7100000000000000000000000000000000000000000000000000000000600052602160045260246000fd5b600481106129a6576129a5612966565b5b50565b60008190506129b782612995565b919050565b60006129c7826129a9565b9050919050565b6129d7816129bc565b82525050565b6129e681612899565b82525050565b61010082016000820151612a03600085018261293e565b506020820151612a166020850182612957565b506040820151612a296040850182612957565b506060820151612a3c606085018261293e565b506080820151612a4f60808501826129ce565b5060a0820151612a6260a08501826129dd565b5060c0820151612a7560c085018261293e565b5060e0820151612a8860e085018261293e565b50505050565b600061010082019050612aa460008301846129ec565b92915050565b600073ffffffffffffffffffffffffffffffffffffffff82169050919050565b6000612ad582612aaa565b9050919050565b612ae581612aca565b8114612af057600080fd5b50565b600081359050612b0281612adc565b92915050565b60008060408385031215612b1f57612b1e612859565b5b6000612b2d85828601612af3565b9250506020612b3e85828601612884565b9150509250929050565b612b5181612863565b82525050565b6000602082019050612b6c6000830184612b48565b92915050565b612b7b81612aca565b82525050565b600081519050919050565b600082825260208201905092915050565b60005b83811015612bbb578082015181840152602081019050612ba0565b60008484015250505050565b6000601f19601f8301169050919050565b6000612be382612b81565b612bed8185612b8c565b9350612bfd818560208601612b9d565b612c0681612bc7565b840191505092915050565b60048110612c2257612c21612966565b5b50565b6000819050612c3382612c11565b919050565b6000612c4382612c25565b9050919050565b612c5381612c38565b82525050565b600061016083016000830151612c72600086018261293e565b506020830151612c856020860182612b72565b506040830151612c98604086018261293e565b5060608301518482036060860152612cb08282612bd8565b91505060808301518482036080860152612cca8282612bd8565b91505060a0830151612cdf60a0860182612c4a565b5060c0830151612cf260c086018261293e565b5060e0830151612d0560e086018261293e565b50610100830151612d1a6101008601826129dd565b50610120830151612d2f61012086018261293e565b50610140830151612d446101408601826129ce565b508091505092915050565b60006020820190508181036000830152612d698184612c59565b905092915050565b60048110612d7e57600080fd5b50565b600081359050612d9081612d71565b92915050565b600060208284031215612dac57612dab612859565b5b6000612dba84828501612d81565b91505092915050565b612dcc81612899565b82525050565b6000602082019050612de76000830184612dc3565b92915050565b612df681612aca565b82525050565b6000602082019050612e116000830184612ded565b92915050565b612e208161294d565b82525050565b612e2f816129bc565b82525050565b600061010082019050612e4b600083018b612b48565b612e58602083018a612e17565b612e656040830189612e17565b612e726060830188612b48565b612e7f6080830187612e26565b612e8c60a0830186612dc3565b612e9960c0830185612b48565b612ea660e0830184612b48565b9998505050505050505050565b600080fd5b600080fd5b7f4e487b7100000000000000000000000000000000000000000000000000000000600052604160045260246000fd5b612ef582612bc7565b810181811067ffffffffffffffff82111715612f1457612f13612ebd565b5b80604052505050565b6000612f2761284f565b9050612f338282612eec565b919050565b600067ffffffffffffffff821115612f5357612f52612ebd565b5b612f5c82612bc7565b9050602081019050919050565b82818337600083830152505050565b6000612f8b612f8684612f38565b612f1d565b905082815260208101848484011115612fa757612fa6612eb8565b5b612fb2848285612f69565b509392505050565b600082601f830112612fcf57612fce612eb3565b5b8135612fdf848260208601612f78565b91505092915050565b60008060006060848603121561300157613000612859565b5b600061300f86828701612884565b935050602084013567ffffffffffffffff8111156130305761302f61285e565b5b61303c86828701612fba565b925050604061304d868287016128bc565b9150509250925092565b600082825260208201905092915050565b600061307382612b81565b61307d8185613057565b935061308d818560208601612b9d565b61309681612bc7565b840191505092915050565b6130aa81612c38565b82525050565b6000610160820190506130c6600083018e612b48565b6130d3602083018d612ded565b6130e0604083018c612b48565b81810360608301526130f2818b613068565b90508181036080830152613106818a613068565b905061311560a08301896130a1565b61312260c0830188612b48565b61312f60e0830187612b48565b61313d610100830186612dc3565b61314b610120830185612b48565b613159610140830184612e26565b9c9b505050505050505050505050565b60006020828403121561317f5761317e612859565b5b600061318d84828501612af3565b91505092915050565b600081519050919050565b600082825260208201905092915050565b6000819050602082019050919050565b60006131ce838361293e565b60208301905092915050565b6000602082019050919050565b60006131f282613196565b6131fc81856131a1565b9350613207836131b2565b8060005b8381101561323857815161321f88826131c2565b975061322a836131da565b92505060018101905061320b565b5085935050505092915050565b6000602082019050818103600083015261325f81846131e7565b905092915050565b600080600080600060a0868803121561328357613282612859565b5b600061329188828901612884565b95505060206132a288828901612884565b94505060406132b388828901612884565b93505060606132c488828901612884565b92505060806132d588828901612af3565b9150509295509295909350565b600080604083850312156132f9576132f8612859565b5b600061330785828601612af3565b9250506020613318858286016128bc565b9150509250929050565b60006080820190506133376000830187612b48565b6133446020830186612b48565b6133516040830185612dc3565b61335e6060830184612b48565b95945050505050565b6000806040838503121561337e5761337d612859565b5b600061338c85828601612884565b925050602083013567ffffffffffffffff8111156133ad576133ac61285e565b5b6133b985828601612fba565b9150509250929050565b600060e0820190506133d8600083018a612b48565b6133e56020830189612b48565b6133f26040830188612b48565b6133ff6060830187612b48565b61340c6080830186612b48565b61341960a0830185612b48565b61342660c0830184612b48565b98975050505050505050565b61343b8161294d565b811461344657600080fd5b50565b60008135905061345881613432565b92915050565b600080600080600060a0868803121561347a57613479612859565b5b600061348888828901612884565b955050602061349988828901613449565b94505060406134aa88828901613449565b93505060606134bb88828901612884565b92505060806134cc88828901612d81565b9150509295509295909350565b7f5374617220646f6573206e6f7420657869737400000000000000000000000000600082015250565b600061350f601383613057565b915061351a826134d9565b602082019050919050565b6000602082019050818103600083015261353e81613502565b9050919050565b7f496e76616c6964207374616b6520616d6f756e74000000000000000000000000600082015250565b600061357b601483613057565b915061358682613545565b602082019050919050565b600060208201905081810360008301526135aa8161356e565b9050919050565b7f53746172206e6f74206163746976650000000000000000000000000000000000600082015250565b60006135e7600f83613057565b91506135f2826135b1565b602082019050919050565b60006020820190508181036000830152613616816135da565b9050919050565b7f416c7265616479206861766520616374697665207374616b6500000000000000600082015250565b6000613653601983613057565b915061365e8261361d565b602082019050919050565b6000602082019050818103600083015261368281613646565b9050919050565b7f4e487b7100000000000000000000000000000000000000000000000000000000600052602260045260246000fd5b600060028204905060018216806136d057607f821691505b6020821081036136e3576136e2613689565b5b50919050565b60008190508160005260206000209050919050565b60006020601f8301049050919050565b600082821b905092915050565b60006008830261374b7fffffffffffffffffffffffffffffffffffffffffffffffffffffffffffffffff8261370e565b613755868361370e565b95508019841693508086168417925050509392505050565b6000819050919050565b600061379261378d61378884612863565b61376d565b612863565b9050919050565b6000819050919050565b6137ac83613777565b6137c06137b882613799565b84845461371b565b825550505050565b600090565b6137d56137c8565b6137e08184846137a3565b505050565b5b81811015613804576137f96000826137cd565b6001810190506137e6565b5050565b601f8211156138495761381a816136e9565b613823846136fe565b81016020851015613832578190505b61384661383e856136fe565b8301826137e5565b50505b505050565b600082821c905092915050565b600061386c6000198460080261384e565b1980831691505092915050565b6000613885838361385b565b9150826002028217905092915050565b61389e82612b81565b67ffffffffffffffff8111156138b7576138b6612ebd565b5b6138c182546136b8565b6138cc828285613808565b600060209050601f8311600181146138ff57600084156138ed578287015190505b6138f78582613879565b86555061395f565b601f19841661390d866136e9565b60005b8281101561393557848901518255600182019150602085019450602081019050613910565b86831015613952578489015161394e601f89168261385b565b8355505b6001600288020188555050505b505050505050565b7f4e487b7100000000000000000000000000000000000000000000000000000000600052601160045260246000fd5b60006139a182612863565b91506139ac83612863565b92508282019050808211156139c4576139c3613967565b5b92915050565b60006040820190506139df6000830185612b48565b6139ec6020830184612b48565b9392505050565b7f4e6f7420617574686f72697a6564204149000000000000000000000000000000600082015250565b6000613a29601183613057565b9150613a34826139f3565b602082019050919050565b60006020820190508181036000830152613a5881613a1c565b9050919050565b7f4368616c6c656e6765206e6f7420616374697665000000000000000000000000600082015250565b6000613a95601483613057565b9150613aa082613a5f565b602082019050919050565b60006020820190508181036000830152613ac481613a88565b9050919050565b7f496e76616c6964207374616b6500000000000000000000000000000000000000600082015250565b6000613b01600d83613057565b9150613b0c82613acb565b602082019050919050565b60006020820190508181036000830152613b3081613af4565b9050919050565b6000613b4282612863565b9150613b4d83612863565b9250828202613b5b81612863565b91508282048414831517613b7257613b71613967565b5b5092915050565b7f4e487b7100000000000000000000000000000000000000000000000000000000600052601260045260246000fd5b6000613bb382612863565b9150613bbe83612863565b925082613bce57613bcd613b79565b5b828204905092915050565b6000613be482612863565b9150613bef83612863565b9250828203905081811115613c0757613c06613967565b5b92915050565b6000613c1882612863565b91507fffffffffffffffffffffffffffffffffffffffffffffffffffffffffffffffff8203613c4a57613c49613967565b5b600182019050919050565b6000604082019050613c6a6000830185612dc3565b613c776020830184612b48565b9392505050565b6000604082019050613c936000830185612b48565b8181036020830152613ca58184613068565b90509392505050565b7f5374617220616c72656164792065786973747300000000000000000000000000600082015250565b6000613ce4601383613057565b9150613cef82613cae565b602082019050919050565b60006020820190508181036000830152613d1381613cd7565b9050919050565b6000606082019050613d2f6000830186612e17565b613d3c6020830185612e17565b613d496040830184612e26565b949350505050565b7f4e6f20616374697665207374616b650000000000000000000000000000000000600082015250565b6000613d87600f83613057565b9150613d9282613d51565b602082019050919050565b60006020820190508181036000830152613db681613d7a565b9050919050565b7f4d757374207761697420323420686f7572730000000000000000000000000000600082015250565b6000613df3601283613057565b9150613dfe82613dbd565b602082019050919050565b60006020820190508181036000830152613e2281613de6565b9050919050565b7f4f776e61626c653a206e6577206f776e657220697320746865207a65726f206160008201527f6464726573730000000000000000000000000000000000000000000000000000602082015250565b6000613e85602683613057565b9150613e9082613e29565b604082019050919050565b60006020820190508181036000830152613eb481613e78565b9050919050565b7f4f776e61626c653a2063616c6c6572206973206e6f7420746865206f776e6572600082015250565b6000613ef1602083613057565b9150613efc82613ebb565b602082019050919050565b60006020820190508181036000830152613f2081613ee4565b9050919050565b7f5265656e7472616e637947756172643a207265656e7472616e742063616c6c00600082015250565b6000613f5d601f83613057565b9150613f6882613f27565b602082019050919050565b60006020820190508181036000830152613f8c81613f50565b9050919050565b7f5061757361626c653a2070617573656400000000000000000000000000000000600082015250565b6000613fc9601083613057565b9150613fd482613f93565b602082019050919050565b60006020820190508181036000830152613ff881613fbc565b9050919050565b7f5061757361626c653a206e6f7420706175736564000000000000000000000000600082015250565b6000614035601483613057565b915061404082613fff565b602082019050919050565b6000602082019050818103600083015261406481614028565b905091905056fea2646970667358221220944086c039ed6caca28e079c1bb63ee61fd05904f55dc8dcb5a25cb3f8c5fcb264736f6c63430008130033",
					"opcodes": "PUSH1 0x80 PUSH1 0x40 MSTORE PUSH7 0x2386F26FC10000 PUSH1 0x4 SSTORE PUSH8 0x8AC7230489E80000 PUSH1 0x5 SSTORE PUSH1 0xC8 PUSH1 0x6 SSTORE PUSH1 0x5 PUSH1 0x7 SSTORE CALLVALUE DUP1 ISZERO PUSH3 0x32 JUMPI PUSH1 0x0 DUP1 REVERT JUMPDEST POP PUSH1 0x40 MLOAD PUSH3 0x430C CODESIZE SUB DUP1 PUSH3 0x430C DUP4 CODECOPY DUP2 DUP2 ADD PUSH1 0x40 MSTORE DUP2 ADD SWAP1 PUSH3 0x58 SWAP2 SWAP1 PUSH3 0x229 JUMP JUMPDEST PUSH3 0x78 PUSH3 0x6C PUSH3 0xF3 PUSH1 0x20 SHL PUSH1 0x20 SHR JUMP JUMPDEST PUSH3 0xFB PUSH1 0x20 SHL PUSH1 0x20 SHR JUMP JUMPDEST PUSH1 0x1 DUP1 DUP2 SWAP1 SSTORE POP PUSH1 0x0 PUSH1 0x2 PUSH1 0x0 PUSH2 0x100 EXP DUP2 SLOAD DUP2 PUSH1 0xFF MUL NOT AND SWAP1 DUP4 ISZERO ISZERO MUL OR SWAP1 SSTORE POP DUP1 PUSH1 0x2 PUSH1 0x1 PUSH2 0x100 EXP DUP2 SLOAD DUP2 PUSH20 0xFFFFFFFFFFFFFFFFFFFFFFFFFFFFFFFFFFFFFFFF MUL NOT AND SWAP1 DUP4 PUSH20 0xFFFFFFFFFFFFFFFFFFFFFFFFFFFFFFFFFFFFFFFF AND MUL OR SWAP1 SSTORE POP PUSH3 0xEC CALLER PUSH3 0xFB PUSH1 0x20 SHL PUSH1 0x20 SHR JUMP JUMPDEST POP PUSH3 0x25B JUMP JUMPDEST PUSH1 0x0 CALLER SWAP1 POP SWAP1 JUMP JUMPDEST PUSH1 0x0 DUP1 PUSH1 0x0 SWAP1 SLOAD SWAP1 PUSH2 0x100 EXP SWAP1 DIV PUSH20 0xFFFFFFFFFFFFFFFFFFFFFFFFFFFFFFFFFFFFFFFF AND SWAP1 POP DUP2 PUSH1 0x0 DUP1 PUSH2 0x100 EXP DUP2 SLOAD DUP2 PUSH20 0xFFFFFFFFFFFFFFFFFFFFFFFFFFFFFFFFFFFFFFFF MUL NOT AND SWAP1 DUP4 PUSH20 0xFFFFFFFFFFFFFFFFFFFFFFFFFFFFFFFFFFFFFFFF AND MUL OR SWAP1 SSTORE POP DUP2 PUSH20 0xFFFFFFFFFFFFFFFFFFFFFFFFFFFFFFFFFFFFFFFF AND DUP2 PUSH20 0xFFFFFFFFFFFFFFFFFFFFFFFFFFFFFFFFFFFFFFFF AND PUSH32 0x8BE0079C531659141344CD1FD0A4F28419497F9722A3DAAFE3B4186F6B6457E0 PUSH1 0x40 MLOAD PUSH1 0x40 MLOAD DUP1 SWAP2 SUB SWAP1 LOG3 POP POP JUMP JUMPDEST PUSH1 0x0 DUP1 REVERT JUMPDEST PUSH1 0x0 PUSH20 0xFFFFFFFFFFFFFFFFFFFFFFFFFFFFFFFFFFFFFFFF DUP3 AND SWAP1 POP SWAP2 SWAP1 POP JUMP JUMPDEST PUSH1 0x0 PUSH3 0x1F1 DUP3 PUSH3 0x1C4 JUMP JUMPDEST SWAP1 POP SWAP2 SWAP1 POP JUMP JUMPDEST PUSH3 0x203 DUP2 PUSH3 0x1E4 JUMP JUMPDEST DUP2 EQ PUSH3 0x20F JUMPI PUSH1 0x0 DUP1 REVERT JUMPDEST POP JUMP JUMPDEST PUSH1 0x0 DUP2 MLOAD SWAP1 POP PUSH3 0x223 DUP2 PUSH3 0x1F8 JUMP JUMPDEST SWAP3 SWAP2 POP POP JUMP JUMPDEST PUSH1 0x0 PUSH1 0x20 DUP3 DUP5 SUB SLT ISZERO PUSH3 0x242 JUMPI PUSH3 0x241 PUSH3 0x1BF JUMP JUMPDEST JUMPDEST PUSH1 0x0 PUSH3 0x252 DUP5 DUP3 DUP6 ADD PUSH3 0x212 JUMP JUMPDEST SWAP2 POP POP SWAP3 SWAP2 POP POP JUMP JUMPDEST PUSH2 0x40A1 DUP1 PUSH3 0x26B PUSH1 0x0 CODECOPY PUSH1 0x0 RETURN INVALID PUSH1 0x80 PUSH1 0x40 MSTORE PUSH1 0x4 CALLDATASIZE LT PUSH2 0x1DC JUMPI PUSH1 0x0 CALLDATALOAD PUSH1 0xE0 SHR DUP1 PUSH4 0x8DA5CB5B GT PUSH2 0x102 JUMPI DUP1 PUSH4 0xBBED7FDB GT PUSH2 0x95 JUMPI DUP1 PUSH4 0xD1BA26F9 GT PUSH2 0x64 JUMPI DUP1 PUSH4 0xD1BA26F9 EQ PUSH2 0x6D6 JUMPI DUP1 PUSH4 0xDB2E21BC EQ PUSH2 0x6FF JUMPI DUP1 PUSH4 0xEC5FFAC2 EQ PUSH2 0x716 JUMPI DUP1 PUSH4 0xF2FDE38B EQ PUSH2 0x741 JUMPI PUSH2 0x1E3 JUMP JUMPDEST DUP1 PUSH4 0xBBED7FDB EQ PUSH2 0x614 JUMPI DUP1 PUSH4 0xBECE7532 EQ PUSH2 0x63D JUMPI DUP1 PUSH4 0xCDAFBBB6 EQ PUSH2 0x668 JUMPI DUP1 PUSH4 0xCF24141A EQ PUSH2 0x6AB JUMPI PUSH2 0x1E3 JUMP JUMPDEST DUP1 PUSH4 0xA66D6DC0 GT PUSH2 0xD1 JUMPI DUP1 PUSH4 0xA66D6DC0 EQ PUSH2 0x557 JUMPI DUP1 PUSH4 0xB4986922 EQ PUSH2 0x580 JUMPI DUP1 PUSH4 0xB5C6B453 EQ PUSH2 0x5A9 JUMPI DUP1 PUSH4 0xB7D44644 EQ PUSH2 0x5D4 JUMPI PUSH2 0x1E3 JUMP JUMPDEST DUP1 PUSH4 0x8DA5CB5B EQ PUSH2 0x46B JUMPI DUP1 PUSH4 0x8F1D3776 EQ PUSH2 0x496 JUMPI DUP1 PUSH4 0x929A1923 EQ PUSH2 0x4DD JUMPI DUP1 PUSH4 0x9E32AAA3 EQ PUSH2 0x51A JUMPI PUSH2 0x1E3 JUMP JUMPDEST DUP1 PUSH4 0x4B0EA4A6 GT PUSH2 0x17A JUMPI DUP1 PUSH4 0x685C6342 GT PUSH2 0x149 JUMPI DUP1 PUSH4 0x685C6342 EQ PUSH2 0x3D0 JUMPI DUP1 PUSH4 0x6A60BD00 EQ PUSH2 0x414 JUMPI DUP1 PUSH4 0x715018A6 EQ PUSH2 0x43D JUMPI DUP1 PUSH4 0x8456CB59 EQ PUSH2 0x454 JUMPI PUSH2 0x1E3 JUMP JUMPDEST DUP1 PUSH4 0x4B0EA4A6 EQ PUSH2 0x326 JUMPI DUP1 PUSH4 0x5C975ABB EQ PUSH2 0x363 JUMPI DUP1 PUSH4 0x5FD8C710 EQ PUSH2 0x38E JUMPI DUP1 PUSH4 0x619F3F61 EQ PUSH2 0x3A5 JUMPI PUSH2 0x1E3 JUMP JUMPDEST DUP1 PUSH4 0x358B3855 GT PUSH2 0x1B6 JUMPI DUP1 PUSH4 0x358B3855 EQ PUSH2 0x26A JUMPI DUP1 PUSH4 0x3D40A54F EQ PUSH2 0x2A7 JUMPI DUP1 PUSH4 0x3E27FEE2 EQ PUSH2 0x2E4 JUMPI DUP1 PUSH4 0x3F4BA83A EQ PUSH2 0x30F JUMPI PUSH2 0x1E3 JUMP JUMPDEST DUP1 PUSH4 0x355C892 EQ PUSH2 0x1E8 JUMPI DUP1 PUSH4 0x1BF6DDAE EQ PUSH2 0x211 JUMPI DUP1 PUSH4 0x3081EAFE EQ PUSH2 0x22D JUMPI PUSH2 0x1E3 JUMP JUMPDEST CALLDATASIZE PUSH2 0x1E3 JUMPI STOP JUMPDEST PUSH1 0x0 DUP1 REVERT JUMPDEST CALLVALUE DUP1 ISZERO PUSH2 0x1F4 JUMPI PUSH1 0x0 DUP1 REVERT JUMPDEST POP PUSH2 0x20F PUSH1 0x4 DUP1 CALLDATASIZE SUB DUP2 ADD SWAP1 PUSH2 0x20A SWAP2 SWAP1 PUSH2 0x28D1 JUMP JUMPDEST PUSH2 0x76A JUMP JUMPDEST STOP JUMPDEST PUSH2 0x22B PUSH1 0x4 DUP1 CALLDATASIZE SUB DUP2 ADD SWAP1 PUSH2 0x226 SWAP2 SWAP1 PUSH2 0x2911 JUMP JUMPDEST PUSH2 0x835 JUMP JUMPDEST STOP JUMPDEST CALLVALUE DUP1 ISZERO PUSH2 0x239 JUMPI PUSH1 0x0 DUP1 REVERT JUMPDEST POP PUSH2 0x254 PUSH1 0x4 DUP1 CALLDATASIZE SUB DUP2 ADD SWAP1 PUSH2 0x24F SWAP2 SWAP1 PUSH2 0x2911 JUMP JUMPDEST PUSH2 0xD42 JUMP JUMPDEST PUSH1 0x40 MLOAD PUSH2 0x261 SWAP2 SWAP1 PUSH2 0x2A8E JUMP JUMPDEST PUSH1 0x40 MLOAD DUP1 SWAP2 SUB SWAP1 RETURN JUMPDEST CALLVALUE DUP1 ISZERO PUSH2 0x276 JUMPI PUSH1 0x0 DUP1 REVERT JUMPDEST POP PUSH2 0x291 PUSH1 0x4 DUP1 CALLDATASIZE SUB DUP2 ADD SWAP1 PUSH2 0x28C SWAP2 SWAP1 PUSH2 0x2B08 JUMP JUMPDEST PUSH2 0xE02 JUMP JUMPDEST PUSH1 0x40 MLOAD PUSH2 0x29E SWAP2 SWAP1 PUSH2 0x2B57 JUMP JUMPDEST PUSH1 0x40 MLOAD DUP1 SWAP2 SUB SWAP1 RETURN JUMPDEST CALLVALUE DUP1 ISZERO PUSH2 0x2B3 JUMPI PUSH1 0x0 DUP1 REVERT JUMPDEST POP PUSH2 0x2CE PUSH1 0x4 DUP1 CALLDATASIZE SUB DUP2 ADD SWAP1 PUSH2 0x2C9 SWAP2 SWAP1 PUSH2 0x2911 JUMP JUMPDEST PUSH2 0xE33 JUMP JUMPDEST PUSH1 0x40 MLOAD PUSH2 0x2DB SWAP2 SWAP1 PUSH2 0x2D4F JUMP JUMPDEST PUSH1 0x40 MLOAD DUP1 SWAP2 SUB SWAP1 RETURN JUMPDEST CALLVALUE DUP1 ISZERO PUSH2 0x2F0 JUMPI PUSH1 0x0 DUP1 REVERT JUMPDEST POP PUSH2 0x2F9 PUSH2 0x109E JUMP JUMPDEST PUSH1 0x40 MLOAD PUSH2 0x306 SWAP2 SWAP1 PUSH2 0x2B57 JUMP JUMPDEST PUSH1 0x40 MLOAD DUP1 SWAP2 SUB SWAP1 RETURN JUMPDEST CALLVALUE DUP1 ISZERO PUSH2 0x31B JUMPI PUSH1 0x0 DUP1 REVERT JUMPDEST POP PUSH2 0x324 PUSH2 0x10A4 JUMP JUMPDEST STOP JUMPDEST CALLVALUE DUP1 ISZERO PUSH2 0x332 JUMPI PUSH1 0x0 DUP1 REVERT JUMPDEST POP PUSH2 0x34D PUSH1 0x4 DUP1 CALLDATASIZE SUB DUP2 ADD SWAP1 PUSH2 0x348 SWAP2 SWAP1 PUSH2 0x2D96 JUMP JUMPDEST PUSH2 0x10B6 JUMP JUMPDEST PUSH1 0x40 MLOAD PUSH2 0x35A SWAP2 SWAP1 PUSH2 0x2B57 JUMP JUMPDEST PUSH1 0x40 MLOAD DUP1 SWAP2 SUB SWAP1 RETURN JUMPDEST CALLVALUE DUP1 ISZERO PUSH2 0x36F JUMPI PUSH1 0x0 DUP1 REVERT JUMPDEST POP PUSH2 0x378 PUSH2 0x1196 JUMP JUMPDEST PUSH1 0x40 MLOAD PUSH2 0x385 SWAP2 SWAP1 PUSH2 0x2DD2 JUMP JUMPDEST PUSH1 0x40 MLOAD DUP1 SWAP2 SUB SWAP1 RETURN JUMPDEST CALLVALUE DUP1 ISZERO PUSH2 0x39A JUMPI PUSH1 0x0 DUP1 REVERT JUMPDEST POP PUSH2 0x3A3 PUSH2 0x11AD JUMP JUMPDEST STOP JUMPDEST CALLVALUE DUP1 ISZERO PUSH2 0x3B1 JUMPI PUSH1 0x0 DUP1 REVERT JUMPDEST POP PUSH2 0x3BA PUSH2 0x1205 JUMP JUMPDEST PUSH1 0x40 MLOAD PUSH2 0x3C7 SWAP2 SWAP1 PUSH2 0x2DFC JUMP JUMPDEST PUSH1 0x40 MLOAD DUP1 SWAP2 SUB SWAP1 RETURN JUMPDEST CALLVALUE DUP1 ISZERO PUSH2 0x3DC JUMPI PUSH1 0x0 DUP1 REVERT JUMPDEST POP PUSH2 0x3F7 PUSH1 0x4 DUP1 CALLDATASIZE SUB DUP2 ADD SWAP1 PUSH2 0x3F2 SWAP2 SWAP1 PUSH2 0x2911 JUMP JUMPDEST PUSH2 0x122B JUMP JUMPDEST PUSH1 0x40 MLOAD PUSH2 0x40B SWAP9 SWAP8 SWAP7 SWAP6 SWAP5 SWAP4 SWAP3 SWAP2 SWAP1 PUSH2 0x2E35 JUMP JUMPDEST PUSH1 0x40 MLOAD DUP1 SWAP2 SUB SWAP1 RETURN JUMPDEST CALLVALUE DUP1 ISZERO PUSH2 0x420 JUMPI PUSH1 0x0 DUP1 REVERT JUMPDEST POP PUSH2 0x43B PUSH1 0x4 DUP1 CALLDATASIZE SUB DUP2 ADD SWAP1 PUSH2 0x436 SWAP2 SWAP1 PUSH2 0x2FE8 JUMP JUMPDEST PUSH2 0x128D JUMP JUMPDEST STOP JUMPDEST CALLVALUE DUP1 ISZERO PUSH2 0x449 JUMPI PUSH1 0x0 DUP1 REVERT JUMPDEST POP PUSH2 0x452 PUSH2 0x1936 JUMP JUMPDEST STOP JUMPDEST CALLVALUE DUP1 ISZERO PUSH2 0x460 JUMPI PUSH1 0x0 DUP1 REVERT JUMPDEST POP PUSH2 0x469 PUSH2 0x194A JUMP JUMPDEST STOP JUMPDEST CALLVALUE DUP1 ISZERO PUSH2 0x477 JUMPI PUSH1 0x0 DUP1 REVERT JUMPDEST POP PUSH2 0x480 PUSH2 0x195C JUMP JUMPDEST PUSH1 0x40 MLOAD PUSH2 0x48D SWAP2 SWAP1 PUSH2 0x2DFC JUMP JUMPDEST PUSH1 0x40 MLOAD DUP1 SWAP2 SUB SWAP1 RETURN JUMPDEST CALLVALUE DUP1 ISZERO PUSH2 0x4A2 JUMPI PUSH1 0x0 DUP1 REVERT JUMPDEST POP PUSH2 0x4BD PUSH1 0x4 DUP1 CALLDATASIZE SUB DUP2 ADD SWAP1 PUSH2 0x4B8 SWAP2 SWAP1 PUSH2 0x2911 JUMP JUMPDEST PUSH2 0x1985 JUMP JUMPDEST PUSH1 0x40 MLOAD PUSH2 0x4D4 SWAP12 SWAP11 SWAP10 SWAP9 SWAP8 SWAP7 SWAP6 SWAP5 SWAP4 SWAP3 SWAP2 SWAP1 PUSH2 0x30B0 JUMP JUMPDEST PUSH1 0x40 MLOAD DUP1 SWAP2 SUB SWAP1 RETURN JUMPDEST CALLVALUE DUP1 ISZERO PUSH2 0x4E9 JUMPI PUSH1 0x0 DUP1 REVERT JUMPDEST POP PUSH2 0x504 PUSH1 0x4 DUP1 CALLDATASIZE SUB DUP2 ADD SWAP1 PUSH2 0x4FF SWAP2 SWAP1 PUSH2 0x3169 JUMP JUMPDEST PUSH2 0x1B36 JUMP JUMPDEST PUSH1 0x40 MLOAD PUSH2 0x511 SWAP2 SWAP1 PUSH2 0x3245 JUMP JUMPDEST PUSH1 0x40 MLOAD DUP1 SWAP2 SUB SWAP1 RETURN JUMPDEST CALLVALUE DUP1 ISZERO PUSH2 0x526 JUMPI PUSH1 0x0 DUP1 REVERT JUMPDEST POP PUSH2 0x541 PUSH1 0x4 DUP1 CALLDATASIZE SUB DUP2 ADD SWAP1 PUSH2 0x53C SWAP2 SWAP1 PUSH2 0x3169 JUMP JUMPDEST PUSH2 0x1BCD JUMP JUMPDEST PUSH1 0x40 MLOAD PUSH2 0x54E SWAP2 SWAP1 PUSH2 0x2DD2 JUMP JUMPDEST PUSH1 0x40 MLOAD DUP1 SWAP2 SUB SWAP1 RETURN JUMPDEST CALLVALUE DUP1 ISZERO PUSH2 0x563 JUMPI PUSH1 0x0 DUP1 REVERT JUMPDEST POP PUSH2 0x57E PUSH1 0x4 DUP1 CALLDATASIZE SUB DUP2 ADD SWAP1 PUSH2 0x579 SWAP2 SWAP1 PUSH2 0x3267 JUMP JUMPDEST PUSH2 0x1BED JUMP JUMPDEST STOP JUMPDEST CALLVALUE DUP1 ISZERO PUSH2 0x58C JUMPI PUSH1 0x0 DUP1 REVERT JUMPDEST POP PUSH2 0x5A7 PUSH1 0x4 DUP1 CALLDATASIZE SUB DUP2 ADD SWAP1 PUSH2 0x5A2 SWAP2 SWAP1 PUSH2 0x32E2 JUMP JUMPDEST PUSH2 0x1C59 JUMP JUMPDEST STOP JUMPDEST CALLVALUE DUP1 ISZERO PUSH2 0x5B5 JUMPI PUSH1 0x0 DUP1 REVERT JUMPDEST POP PUSH2 0x5BE PUSH2 0x1D0A JUMP JUMPDEST PUSH1 0x40 MLOAD PUSH2 0x5CB SWAP2 SWAP1 PUSH2 0x2B57 JUMP JUMPDEST PUSH1 0x40 MLOAD DUP1 SWAP2 SUB SWAP1 RETURN JUMPDEST CALLVALUE DUP1 ISZERO PUSH2 0x5E0 JUMPI PUSH1 0x0 DUP1 REVERT JUMPDEST POP PUSH2 0x5FB PUSH1 0x4 DUP1 CALLDATASIZE SUB DUP2 ADD SWAP1 PUSH2 0x5F6 SWAP2 SWAP1 PUSH2 0x3169 JUMP JUMPDEST PUSH2 0x1D10 JUMP JUMPDEST PUSH1 0x40 MLOAD PUSH2 0x60B SWAP5 SWAP4 SWAP3 SWAP2 SWAP1 PUSH2 0x3322 JUMP JUMPDEST PUSH1 0x40 MLOAD DUP1 SWAP2 SUB SWAP1 RETURN JUMPDEST CALLVALUE DUP1 ISZERO PUSH2 0x620 JUMPI PUSH1 0x0 DUP1 REVERT JUMPDEST POP PUSH2 0x63B PUSH1 0x4 DUP1 CALLDATASIZE SUB DUP2 ADD SWAP1 PUSH2 0x636 SWAP2 SWAP1 PUSH2 0x3367 JUMP JUMPDEST PUSH2 0x1D4D JUMP JUMPDEST STOP JUMPDEST CALLVALUE DUP1 ISZERO PUSH2 0x649 JUMPI PUSH1 0x0 DUP1 REVERT JUMPDEST POP PUSH2 0x652 PUSH2 0x1F65 JUMP JUMPDEST PUSH1 0x40 MLOAD PUSH2 0x65F SWAP2 SWAP1 PUSH2 0x2DFC JUMP JUMPDEST PUSH1 0x40 MLOAD DUP1 SWAP2 SUB SWAP1 RETURN JUMPDEST CALLVALUE DUP1 ISZERO PUSH2 0x674 JUMPI PUSH1 0x0 DUP1 REVERT JUMPDEST POP PUSH2 0x68F PUSH1 0x4 DUP1 CALLDATASIZE SUB DUP2 ADD SWAP1 PUSH2 0x68A SWAP2 SWAP1 PUSH2 0x3169 JUMP JUMPDEST PUSH2 0x1F8B JUMP JUMPDEST PUSH1 0x40 MLOAD PUSH2 0x6A2 SWAP8 SWAP7 SWAP6 SWAP5 SWAP4 SWAP3 SWAP2 SWAP1 PUSH2 0x33C3 JUMP JUMPDEST PUSH1 0x40 MLOAD DUP1 SWAP2 SUB SWAP1 RETURN JUMPDEST CALLVALUE DUP1 ISZERO PUSH2 0x6B7 JUMPI PUSH1 0x0 DUP1 REVERT JUMPDEST POP PUSH2 0x6C0 PUSH2 0x1FCD JUMP JUMPDEST PUSH1 0x40 MLOAD PUSH2 0x6CD SWAP2 SWAP1 PUSH2 0x2B57 JUMP JUMPDEST PUSH1 0x40 MLOAD DUP1 SWAP2 SUB SWAP1 RETURN JUMPDEST CALLVALUE DUP1 ISZERO PUSH2 0x6E2 JUMPI PUSH1 0x0 DUP1 REVERT JUMPDEST POP PUSH2 0x6FD PUSH1 0x4 DUP1 CALLDATASIZE SUB DUP2 ADD SWAP1 PUSH2 0x6F8 SWAP2 SWAP1 PUSH2 0x345E JUMP JUMPDEST PUSH2 0x1FD3 JUMP JUMPDEST STOP JUMPDEST CALLVALUE DUP1 ISZERO PUSH2 0x70B JUMPI PUSH1 0x0 DUP1 REVERT JUMPDEST POP PUSH2 0x714 PUSH2 0x216A JUMP JUMPDEST STOP JUMPDEST CALLVALUE DUP1 ISZERO PUSH2 0x722 JUMPI PUSH1 0x0 DUP1 REVERT JUMPDEST POP PUSH2 0x72B PUSH2 0x23B8 JUMP JUMPDEST PUSH1 0x40 MLOAD PUSH2 0x738 SWAP2 SWAP1 PUSH2 0x2B57 JUMP JUMPDEST PUSH1 0x40 MLOAD DUP1 SWAP2 SUB SWAP1 RETURN JUMPDEST CALLVALUE DUP1 ISZERO PUSH2 0x74D JUMPI PUSH1 0x0 DUP1 REVERT JUMPDEST POP PUSH2 0x768 PUSH1 0x4 DUP1 CALLDATASIZE SUB DUP2 ADD SWAP1 PUSH2 0x763 SWAP2 SWAP1 PUSH2 0x3169 JUMP JUMPDEST PUSH2 0x23BE JUMP JUMPDEST STOP JUMPDEST PUSH2 0x772 PUSH2 0x2441 JUMP JUMPDEST PUSH1 0x0 PUSH1 0xC PUSH1 0x0 DUP5 DUP2 MSTORE PUSH1 0x20 ADD SWAP1 DUP2 MSTORE PUSH1 0x20 ADD PUSH1 0x0 KECCAK256 PUSH1 0x0 ADD SLOAD SUB PUSH2 0x7CB JUMPI PUSH1 0x40 MLOAD PUSH32 0x8C379A000000000000000000000000000000000000000000000000000000000 DUP2 MSTORE PUSH1 0x4 ADD PUSH2 0x7C2 SWAP1 PUSH2 0x3525 JUMP JUMPDEST PUSH1 0x40 MLOAD DUP1 SWAP2 SUB SWAP1 REVERT JUMPDEST DUP1 PUSH1 0xC PUSH1 0x0 DUP5 DUP2 MSTORE PUSH1 0x20 ADD SWAP1 DUP2 MSTORE PUSH1 0x20 ADD PUSH1 0x0 KECCAK256 PUSH1 0x4 ADD PUSH1 0x1 PUSH2 0x100 EXP DUP2 SLOAD DUP2 PUSH1 0xFF MUL NOT AND SWAP1 DUP4 ISZERO ISZERO MUL OR SWAP1 SSTORE POP DUP2 PUSH32 0xCE5D422E23968AA174A8455B0889F3D82D14CFD63C91191EF04BFAA6A030DCB0 DUP3 PUSH1 0x40 MLOAD PUSH2 0x829 SWAP2 SWAP1 PUSH2 0x2DD2 JUMP JUMPDEST PUSH1 0x40 MLOAD DUP1 SWAP2 SUB SWAP1 LOG2 POP POP JUMP JUMPDEST PUSH2 0x83D PUSH2 0x24BF JUMP JUMPDEST PUSH2 0x845 PUSH2 0x250E JUMP JUMPDEST CALLVALUE PUSH1 0x4 SLOAD DUP2 LT ISZERO DUP1 ISZERO PUSH2 0x85A JUMPI POP PUSH1 0x5 SLOAD DUP2 GT ISZERO JUMPDEST PUSH2 0x899 JUMPI PUSH1 0x40 MLOAD PUSH32 0x8C379A000000000000000000000000000000000000000000000000000000000 DUP2 MSTORE PUSH1 0x4 ADD PUSH2 0x890 SWAP1 PUSH2 0x3591 JUMP JUMPDEST PUSH1 0x40 MLOAD DUP1 SWAP2 SUB SWAP1 REVERT JUMPDEST PUSH1 0xC PUSH1 0x0 DUP4 DUP2 MSTORE PUSH1 0x20 ADD SWAP1 DUP2 MSTORE PUSH1 0x20 ADD PUSH1 0x0 KECCAK256 PUSH1 0x4 ADD PUSH1 0x1 SWAP1 SLOAD SWAP1 PUSH2 0x100 EXP SWAP1 DIV PUSH1 0xFF AND PUSH2 0x8FC JUMPI PUSH1 0x40 MLOAD PUSH32 0x8C379A000000000000000000000000000000000000000000000000000000000 DUP2 MSTORE PUSH1 0x4 ADD PUSH2 0x8F3 SWAP1 PUSH2 0x35FD JUMP JUMPDEST PUSH1 0x40 MLOAD DUP1 SWAP2 SUB SWAP1 REVERT JUMPDEST PUSH1 0xA PUSH1 0x0 CALLER PUSH20 0xFFFFFFFFFFFFFFFFFFFFFFFFFFFFFFFFFFFFFFFF AND PUSH20 0xFFFFFFFFFFFFFFFFFFFFFFFFFFFFFFFFFFFFFFFF AND DUP2 MSTORE PUSH1 0x20 ADD SWAP1 DUP2 MSTORE PUSH1 0x20 ADD PUSH1 0x0 KECCAK256 PUSH1 0x2 ADD PUSH1 0x0 SWAP1 SLOAD SWAP1 PUSH2 0x100 EXP SWAP1 DIV PUSH1 0xFF AND ISZERO PUSH2 0x98C JUMPI PUSH1 0x40 MLOAD PUSH32 0x8C379A000000000000000000000000000000000000000000000000000000000 DUP2 MSTORE PUSH1 0x4 ADD PUSH2 0x983 SWAP1 PUSH2 0x3669 JUMP JUMPDEST PUSH1 0x40 MLOAD DUP1 SWAP2 SUB SWAP1 REVERT JUMPDEST PUSH1 0x0 PUSH2 0x998 PUSH1 0x8 PUSH2 0x2558 JUMP JUMPDEST SWAP1 POP PUSH2 0x9A4 PUSH1 0x8 PUSH2 0x2566 JUMP JUMPDEST PUSH1 0x40 MLOAD DUP1 PUSH1 0x80 ADD PUSH1 0x40 MSTORE DUP1 CALLVALUE DUP2 MSTORE PUSH1 0x20 ADD TIMESTAMP DUP2 MSTORE PUSH1 0x20 ADD PUSH1 0x1 ISZERO ISZERO DUP2 MSTORE PUSH1 0x20 ADD DUP3 DUP2 MSTORE POP PUSH1 0xA PUSH1 0x0 CALLER PUSH20 0xFFFFFFFFFFFFFFFFFFFFFFFFFFFFFFFFFFFFFFFF AND PUSH20 0xFFFFFFFFFFFFFFFFFFFFFFFFFFFFFFFFFFFFFFFF AND DUP2 MSTORE PUSH1 0x20 ADD SWAP1 DUP2 MSTORE PUSH1 0x20 ADD PUSH1 0x0 KECCAK256 PUSH1 0x0 DUP3 ADD MLOAD DUP2 PUSH1 0x0 ADD SSTORE PUSH1 0x20 DUP3 ADD MLOAD DUP2 PUSH1 0x1 ADD SSTORE PUSH1 0x40 DUP3 ADD MLOAD DUP2 PUSH1 0x2 ADD PUSH1 0x0 PUSH2 0x100 EXP DUP2 SLOAD DUP2 PUSH1 0xFF MUL NOT AND SWAP1 DUP4 ISZERO ISZERO MUL OR SWAP1 SSTORE POP PUSH1 0x60 DUP3 ADD MLOAD DUP2 PUSH1 0x3 ADD SSTORE SWAP1 POP POP PUSH1 0x40 MLOAD DUP1 PUSH2 0x160 ADD PUSH1 0x40 MSTORE DUP1 DUP3 DUP2 MSTORE PUSH1 0x20 ADD CALLER PUSH20 0xFFFFFFFFFFFFFFFFFFFFFFFFFFFFFFFFFFFFFFFF AND DUP2 MSTORE PUSH1 0x20 ADD CALLVALUE DUP2 MSTORE PUSH1 0x20 ADD PUSH1 0x40 MLOAD DUP1 PUSH1 0x20 ADD PUSH1 0x40 MSTORE DUP1 PUSH1 0x0 DUP2 MSTORE POP DUP2 MSTORE PUSH1 0x20 ADD PUSH1 0x40 MLOAD DUP1 PUSH1 0x20 ADD PUSH1 0x40 MSTORE DUP1 PUSH1 0x0 DUP2 MSTORE POP DUP2 MSTORE PUSH1 0x20 ADD PUSH1 0x0 PUSH1 0x3 DUP2 GT ISZERO PUSH2 0xABA JUMPI PUSH2 0xAB9 PUSH2 0x2966 JUMP JUMPDEST JUMPDEST DUP2 MSTORE PUSH1 0x20 ADD TIMESTAMP DUP2 MSTORE PUSH1 0x20 ADD PUSH1 0x0 DUP2 MSTORE PUSH1 0x20 ADD PUSH1 0x0 ISZERO ISZERO DUP2 MSTORE PUSH1 0x20 ADD DUP5 DUP2 MSTORE PUSH1 0x20 ADD PUSH1 0xC PUSH1 0x0 DUP7 DUP2 MSTORE PUSH1 0x20 ADD SWAP1 DUP2 MSTORE PUSH1 0x20 ADD PUSH1 0x0 KECCAK256 PUSH1 0x4 ADD PUSH1 0x0 SWAP1 SLOAD SWAP1 PUSH2 0x100 EXP SWAP1 DIV PUSH1 0xFF AND PUSH1 0x3 DUP2 GT ISZERO PUSH2 0xB11 JUMPI PUSH2 0xB10 PUSH2 0x2966 JUMP JUMPDEST JUMPDEST DUP2 MSTORE POP PUSH1 0xB PUSH1 0x0 DUP4 DUP2 MSTORE PUSH1 0x20 ADD SWAP1 DUP2 MSTORE PUSH1 0x20 ADD PUSH1 0x0 KECCAK256 PUSH1 0x0 DUP3 ADD MLOAD DUP2 PUSH1 0x0 ADD SSTORE PUSH1 0x20 DUP3 ADD MLOAD DUP2 PUSH1 0x1 ADD PUSH1 0x0 PUSH2 0x100 EXP DUP2 SLOAD DUP2 PUSH20 0xFFFFFFFFFFFFFFFFFFFFFFFFFFFFFFFFFFFFFFFF MUL NOT AND SWAP1 DUP4 PUSH20 0xFFFFFFFFFFFFFFFFFFFFFFFFFFFFFFFFFFFFFFFF AND MUL OR SWAP1 SSTORE POP PUSH1 0x40 DUP3 ADD MLOAD DUP2 PUSH1 0x2 ADD SSTORE PUSH1 0x60 DUP3 ADD MLOAD DUP2 PUSH1 0x3 ADD SWAP1 DUP2 PUSH2 0xB97 SWAP2 SWAP1 PUSH2 0x3895 JUMP JUMPDEST POP PUSH1 0x80 DUP3 ADD MLOAD DUP2 PUSH1 0x4 ADD SWAP1 DUP2 PUSH2 0xBAD SWAP2 SWAP1 PUSH2 0x3895 JUMP JUMPDEST POP PUSH1 0xA0 DUP3 ADD MLOAD DUP2 PUSH1 0x5 ADD PUSH1 0x0 PUSH2 0x100 EXP DUP2 SLOAD DUP2 PUSH1 0xFF MUL NOT AND SWAP1 DUP4 PUSH1 0x3 DUP2 GT ISZERO PUSH2 0xBD9 JUMPI PUSH2 0xBD8 PUSH2 0x2966 JUMP JUMPDEST JUMPDEST MUL OR SWAP1 SSTORE POP PUSH1 0xC0 DUP3 ADD MLOAD DUP2 PUSH1 0x6 ADD SSTORE PUSH1 0xE0 DUP3 ADD MLOAD DUP2 PUSH1 0x7 ADD SSTORE PUSH2 0x100 DUP3 ADD MLOAD DUP2 PUSH1 0x8 ADD PUSH1 0x0 PUSH2 0x100 EXP DUP2 SLOAD DUP2 PUSH1 0xFF MUL NOT AND SWAP1 DUP4 ISZERO ISZERO MUL OR SWAP1 SSTORE POP PUSH2 0x120 DUP3 ADD MLOAD DUP2 PUSH1 0x9 ADD SSTORE PUSH2 0x140 DUP3 ADD MLOAD DUP2 PUSH1 0xA ADD PUSH1 0x0 PUSH2 0x100 EXP DUP2 SLOAD DUP2 PUSH1 0xFF MUL NOT AND SWAP1 DUP4 PUSH1 0x3 DUP2 GT ISZERO PUSH2 0xC4A JUMPI PUSH2 0xC49 PUSH2 0x2966 JUMP JUMPDEST JUMPDEST MUL OR SWAP1 SSTORE POP SWAP1 POP POP CALLVALUE PUSH1 0xC PUSH1 0x0 DUP6 DUP2 MSTORE PUSH1 0x20 ADD SWAP1 DUP2 MSTORE PUSH1 0x20 ADD PUSH1 0x0 KECCAK256 PUSH1 0x6 ADD PUSH1 0x0 DUP3 DUP3 SLOAD PUSH2 0xC78 SWAP2 SWAP1 PUSH2 0x3996 JUMP JUMPDEST SWAP3 POP POP DUP2 SWAP1 SSTORE POP PUSH1 0xF PUSH1 0x0 CALLER PUSH20 0xFFFFFFFFFFFFFFFFFFFFFFFFFFFFFFFFFFFFFFFF AND PUSH20 0xFFFFFFFFFFFFFFFFFFFFFFFFFFFFFFFFFFFFFFFF AND DUP2 MSTORE PUSH1 0x20 ADD SWAP1 DUP2 MSTORE PUSH1 0x20 ADD PUSH1 0x0 KECCAK256 DUP2 SWAP1 DUP1 PUSH1 0x1 DUP2 SLOAD ADD DUP1 DUP3 SSTORE DUP1 SWAP2 POP POP PUSH1 0x1 SWAP1 SUB SWAP1 PUSH1 0x0 MSTORE PUSH1 0x20 PUSH1 0x0 KECCAK256 ADD PUSH1 0x0 SWAP1 SWAP2 SWAP1 SWAP2 SWAP1 SWAP2 POP SSTORE CALLER PUSH20 0xFFFFFFFFFFFFFFFFFFFFFFFFFFFFFFFFFFFFFFFF AND PUSH32 0x1449C6DD7851ABC30ABF37F57715F492010519147CC2652FBC38202C18A6EE90 CALLVALUE DUP4 PUSH1 0x40 MLOAD PUSH2 0xD2D SWAP3 SWAP2 SWAP1 PUSH2 0x39CA JUMP JUMPDEST PUSH1 0x40 MLOAD DUP1 SWAP2 SUB SWAP1 LOG2 POP POP PUSH2 0xD3F PUSH2 0x257C JUMP JUMPDEST POP JUMP JUMPDEST PUSH2 0xD4A PUSH2 0x2760 JUMP JUMPDEST PUSH1 0xC PUSH1 0x0 DUP4 DUP2 MSTORE PUSH1 0x20 ADD SWAP1 DUP2 MSTORE PUSH1 0x20 ADD PUSH1 0x0 KECCAK256 PUSH1 0x40 MLOAD DUP1 PUSH2 0x100 ADD PUSH1 0x40 MSTORE SWAP1 DUP2 PUSH1 0x0 DUP3 ADD SLOAD DUP2 MSTORE PUSH1 0x20 ADD PUSH1 0x1 DUP3 ADD SLOAD DUP2 MSTORE PUSH1 0x20 ADD PUSH1 0x2 DUP3 ADD SLOAD DUP2 MSTORE PUSH1 0x20 ADD PUSH1 0x3 DUP3 ADD SLOAD DUP2 MSTORE PUSH1 0x20 ADD PUSH1 0x4 DUP3 ADD PUSH1 0x0 SWAP1 SLOAD SWAP1 PUSH2 0x100 EXP SWAP1 DIV PUSH1 0xFF AND PUSH1 0x3 DUP2 GT ISZERO PUSH2 0xDB6 JUMPI PUSH2 0xDB5 PUSH2 0x2966 JUMP JUMPDEST JUMPDEST PUSH1 0x3 DUP2 GT ISZERO PUSH2 0xDC8 JUMPI PUSH2 0xDC7 PUSH2 0x2966 JUMP JUMPDEST JUMPDEST DUP2 MSTORE PUSH1 0x20 ADD PUSH1 0x4 DUP3 ADD PUSH1 0x1 SWAP1 SLOAD SWAP1 PUSH2 0x100 EXP SWAP1 DIV PUSH1 0xFF AND ISZERO ISZERO ISZERO ISZERO DUP2 MSTORE PUSH1 0x20 ADD PUSH1 0x5 DUP3 ADD SLOAD DUP2 MSTORE PUSH1 0x20 ADD PUSH1 0x6 DUP3 ADD SLOAD DUP2 MSTORE POP POP SWAP1 POP SWAP2 SWAP1 POP JUMP JUMPDEST PUSH1 0xF PUSH1 0x20 MSTORE DUP2 PUSH1 0x0 MSTORE PUSH1 0x40 PUSH1 0x0 KECCAK256 DUP2 DUP2 SLOAD DUP2 LT PUSH2 0xE1E JUMPI PUSH1 0x0 DUP1 REVERT JUMPDEST SWAP1 PUSH1 0x0 MSTORE PUSH1 0x20 PUSH1 0x0 KECCAK256 ADD PUSH1 0x0 SWAP2 POP SWAP2 POP POP SLOAD DUP2 JUMP JUMPDEST PUSH2 0xE3B PUSH2 0x27B9 JUMP JUMPDEST PUSH1 0xB PUSH1 0x0 DUP4 DUP2 MSTORE PUSH1 0x20 ADD SWAP1 DUP2 MSTORE PUSH1 0x20 ADD PUSH1 0x0 KECCAK256 PUSH1 0x40 MLOAD DUP1 PUSH2 0x160 ADD PUSH1 0x40 MSTORE SWAP1 DUP2 PUSH1 0x0 DUP3 ADD SLOAD DUP2 MSTORE PUSH1 0x20 ADD PUSH1 0x1 DUP3 ADD PUSH1 0x0 SWAP1 SLOAD SWAP1 PUSH2 0x100 EXP SWAP1 DIV PUSH20 0xFFFFFFFFFFFFFFFFFFFFFFFFFFFFFFFFFFFFFFFF AND PUSH20 0xFFFFFFFFFFFFFFFFFFFFFFFFFFFFFFFFFFFFFFFF AND PUSH20 0xFFFFFFFFFFFFFFFFFFFFFFFFFFFFFFFFFFFFFFFF AND DUP2 MSTORE PUSH1 0x20 ADD PUSH1 0x2 DUP3 ADD SLOAD DUP2 MSTORE PUSH1 0x20 ADD PUSH1 0x3 DUP3 ADD DUP1 SLOAD PUSH2 0xED4 SWAP1 PUSH2 0x36B8 JUMP JUMPDEST DUP1 PUSH1 0x1F ADD PUSH1 0x20 DUP1 SWAP2 DIV MUL PUSH1 0x20 ADD PUSH1 0x40 MLOAD SWAP1 DUP2 ADD PUSH1 0x40 MSTORE DUP1 SWAP3 SWAP2 SWAP1 DUP2 DUP2 MSTORE PUSH1 0x20 ADD DUP3 DUP1 SLOAD PUSH2 0xF00 SWAP1 PUSH2 0x36B8 JUMP JUMPDEST DUP1 ISZERO PUSH2 0xF4D JUMPI DUP1 PUSH1 0x1F LT PUSH2 0xF22 JUMPI PUSH2 0x100 DUP1 DUP4 SLOAD DIV MUL DUP4 MSTORE SWAP2 PUSH1 0x20 ADD SWAP2 PUSH2 0xF4D JUMP JUMPDEST DUP3 ADD SWAP2 SWAP1 PUSH1 0x0 MSTORE PUSH1 0x20 PUSH1 0x0 KECCAK256 SWAP1 JUMPDEST DUP2 SLOAD DUP2 MSTORE SWAP1 PUSH1 0x1 ADD SWAP1 PUSH1 0x20 ADD DUP1 DUP4 GT PUSH2 0xF30 JUMPI DUP3 SWAP1 SUB PUSH1 0x1F AND DUP3 ADD SWAP2 JUMPDEST POP POP POP POP POP DUP2 MSTORE PUSH1 0x20 ADD PUSH1 0x4 DUP3 ADD DUP1 SLOAD PUSH2 0xF66 SWAP1 PUSH2 0x36B8 JUMP JUMPDEST DUP1 PUSH1 0x1F ADD PUSH1 0x20 DUP1 SWAP2 DIV MUL PUSH1 0x20 ADD PUSH1 0x40 MLOAD SWAP1 DUP2 ADD PUSH1 0x40 MSTORE DUP1 SWAP3 SWAP2 SWAP1 DUP2 DUP2 MSTORE PUSH1 0x20 ADD DUP3 DUP1 SLOAD PUSH2 0xF92 SWAP1 PUSH2 0x36B8 JUMP JUMPDEST DUP1 ISZERO PUSH2 0xFDF JUMPI DUP1 PUSH1 0x1F LT PUSH2 0xFB4 JUMPI PUSH2 0x100 DUP1 DUP4 SLOAD DIV MUL DUP4 MSTORE SWAP2 PUSH1 0x20 ADD SWAP2 PUSH2 0xFDF JUMP JUMPDEST DUP3 ADD SWAP2 SWAP1 PUSH1 0x0 MSTORE PUSH1 0x20 PUSH1 0x0 KECCAK256 SWAP1 JUMPDEST DUP2 SLOAD DUP2 MSTORE SWAP1 PUSH1 0x1 ADD SWAP1 PUSH1 0x20 ADD DUP1 DUP4 GT PUSH2 0xFC2 JUMPI DUP3 SWAP1 SUB PUSH1 0x1F AND DUP3 ADD SWAP2 JUMPDEST POP POP POP POP POP DUP2 MSTORE PUSH1 0x20 ADD PUSH1 0x5 DUP3 ADD PUSH1 0x0 SWAP1 SLOAD SWAP1 PUSH2 0x100 EXP SWAP1 DIV PUSH1 0xFF AND PUSH1 0x3 DUP2 GT ISZERO PUSH2 0x100D JUMPI PUSH2 0x100C PUSH2 0x2966 JUMP JUMPDEST JUMPDEST PUSH1 0x3 DUP2 GT ISZERO PUSH2 0x101F JUMPI PUSH2 0x101E PUSH2 0x2966 JUMP JUMPDEST JUMPDEST DUP2 MSTORE PUSH1 0x20 ADD PUSH1 0x6 DUP3 ADD SLOAD DUP2 MSTORE PUSH1 0x20 ADD PUSH1 0x7 DUP3 ADD SLOAD DUP2 MSTORE PUSH1 0x20 ADD PUSH1 0x8 DUP3 ADD PUSH1 0x0 SWAP1 SLOAD SWAP1 PUSH2 0x100 EXP SWAP1 DIV PUSH1 0xFF AND ISZERO ISZERO ISZERO ISZERO DUP2 MSTORE PUSH1 0x20 ADD PUSH1 0x9 DUP3 ADD SLOAD DUP2 MSTORE PUSH1 0x20 ADD PUSH1 0xA DUP3 ADD PUSH1 0x0 SWAP1 SLOAD SWAP1 PUSH2 0x100 EXP SWAP1 DIV PUSH1 0xFF AND PUSH1 0x3 DUP2 GT ISZERO PUSH2 0x1081 JUMPI PUSH2 0x1080 PUSH2 0x2966 JUMP JUMPDEST JUMPDEST PUSH1 0x3 DUP2 GT ISZERO PUSH2 0x1093 JUMPI PUSH2 0x1092 PUSH2 0x2966 JUMP JUMPDEST JUMPDEST DUP2 MSTORE POP POP SWAP1 POP SWAP2 SWAP1 POP JUMP JUMPDEST PUSH1 0x7 SLOAD DUP2 JUMP JUMPDEST PUSH2 0x10AC PUSH2 0x2441 JUMP JUMPDEST PUSH2 0x10B4 PUSH2 0x2585 JUMP JUMPDEST JUMP JUMPDEST PUSH1 0x0 DUP1 PUSH1 0x3 DUP2 GT ISZERO PUSH2 0x10CB JUMPI PUSH2 0x10CA PUSH2 0x2966 JUMP JUMPDEST JUMPDEST DUP3 PUSH1 0x3 DUP2 GT ISZERO PUSH2 0x10DE JUMPI PUSH2 0x10DD PUSH2 0x2966 JUMP JUMPDEST JUMPDEST SUB PUSH2 0x10EC JUMPI PUSH1 0x96 SWAP1 POP PUSH2 0x1191 JUMP JUMPDEST PUSH1 0x1 PUSH1 0x3 DUP2 GT ISZERO PUSH2 0x1100 JUMPI PUSH2 0x10FF PUSH2 0x2966 JUMP JUMPDEST JUMPDEST DUP3 PUSH1 0x3 DUP2 GT ISZERO PUSH2 0x1113 JUMPI PUSH2 0x1112 PUSH2 0x2966 JUMP JUMPDEST JUMPDEST SUB PUSH2 0x1121 JUMPI PUSH1 0xC8 SWAP1 POP PUSH2 0x1191 JUMP JUMPDEST PUSH1 0x2 PUSH1 0x3 DUP2 GT ISZERO PUSH2 0x1135 JUMPI PUSH2 0x1134 PUSH2 0x2966 JUMP JUMPDEST JUMPDEST DUP3 PUSH1 0x3 DUP2 GT ISZERO PUSH2 0x1148 JUMPI PUSH2 0x1147 PUSH2 0x2966 JUMP JUMPDEST JUMPDEST SUB PUSH2 0x1157 JUMPI PUSH2 0x12C SWAP1 POP PUSH2 0x1191 JUMP JUMPDEST PUSH1 0x3 DUP1 DUP2 GT ISZERO PUSH2 0x116A JUMPI PUSH2 0x1169 PUSH2 0x2966 JUMP JUMPDEST JUMPDEST DUP3 PUSH1 0x3 DUP2 GT ISZERO PUSH2 0x117D JUMPI PUSH2 0x117C PUSH2 0x2966 JUMP JUMPDEST JUMPDEST SUB PUSH2 0x118C JUMPI PUSH2 0x1F4 SWAP1 POP PUSH2 0x1191 JUMP JUMPDEST PUSH1 0x96 SWAP1 POP JUMPDEST SWAP2 SWAP1 POP JUMP JUMPDEST PUSH1 0x0 PUSH1 0x2 PUSH1 0x0 SWAP1 SLOAD SWAP1 PUSH2 0x100 EXP SWAP1 DIV PUSH1 0xFF AND SWAP1 POP SWAP1 JUMP JUMPDEST PUSH2 0x11B5 PUSH2 0x2441 JUMP JUMPDEST PUSH2 0x11BD PUSH2 0x195C JUMP JUMPDEST PUSH20 0xFFFFFFFFFFFFFFFFFFFFFFFFFFFFFFFFFFFFFFFF AND PUSH2 0x8FC SELFBALANCE SWAP1 DUP2 ISZERO MUL SWAP1 PUSH1 0x40 MLOAD PUSH1 0x0 PUSH1 0x40 MLOAD DUP1 DUP4 SUB DUP2 DUP6 DUP9 DUP9 CALL SWAP4 POP POP POP POP ISZERO DUP1 ISZERO PUSH2 0x1202 JUMPI RETURNDATASIZE PUSH1 0x0 DUP1 RETURNDATACOPY RETURNDATASIZE PUSH1 0x0 REVERT JUMPDEST POP JUMP JUMPDEST PUSH1 0x2 PUSH1 0x1 SWAP1 SLOAD SWAP1 PUSH2 0x100 EXP SWAP1 DIV PUSH20 0xFFFFFFFFFFFFFFFFFFFFFFFFFFFFFFFFFFFFFFFF AND DUP2 JUMP JUMPDEST PUSH1 0xC PUSH1 0x20 MSTORE DUP1 PUSH1 0x0 MSTORE PUSH1 0x40 PUSH1 0x0 KECCAK256 PUSH1 0x0 SWAP2 POP SWAP1 POP DUP1 PUSH1 0x0 ADD SLOAD SWAP1 DUP1 PUSH1 0x1 ADD SLOAD SWAP1 DUP1 PUSH1 0x2 ADD SLOAD SWAP1 DUP1 PUSH1 0x3 ADD SLOAD SWAP1 DUP1 PUSH1 0x4 ADD PUSH1 0x0 SWAP1 SLOAD SWAP1 PUSH2 0x100 EXP SWAP1 DIV PUSH1 0xFF AND SWAP1 DUP1 PUSH1 0x4 ADD PUSH1 0x1 SWAP1 SLOAD SWAP1 PUSH2 0x100 EXP SWAP1 DIV PUSH1 0xFF AND SWAP1 DUP1 PUSH1 0x5 ADD SLOAD SWAP1 DUP1 PUSH1 0x6 ADD SLOAD SWAP1 POP DUP9 JUMP JUMPDEST PUSH1 0xE PUSH1 0x0 CALLER PUSH20 0xFFFFFFFFFFFFFFFFFFFFFFFFFFFFFFFFFFFFFFFF AND PUSH20 0xFFFFFFFFFFFFFFFFFFFFFFFFFFFFFFFFFFFFFFFF AND DUP2 MSTORE PUSH1 0x20 ADD SWAP1 DUP2 MSTORE PUSH1 0x20 ADD PUSH1 0x0 KECCAK256 PUSH1 0x0 SWAP1 SLOAD SWAP1 PUSH2 0x100 EXP SWAP1 DIV PUSH1 0xFF AND DUP1 PUSH2 0x1317 JUMPI POP PUSH2 0x12E8 PUSH2 0x195C JUMP JUMPDEST PUSH20 0xFFFFFFFFFFFFFFFFFFFFFFFFFFFFFFFFFFFFFFFF AND CALLER PUSH20 0xFFFFFFFFFFFFFFFFFFFFFFFFFFFFFFFFFFFFFFFF AND EQ JUMPDEST PUSH2 0x1356 JUMPI PUSH1 0x40 MLOAD PUSH32 0x8C379A000000000000000000000000000000000000000000000000000000000 DUP2 MSTORE PUSH1 0x4 ADD PUSH2 0x134D SWAP1 PUSH2 0x3A3F JUMP JUMPDEST PUSH1 0x40 MLOAD DUP1 SWAP2 SUB SWAP1 REVERT JUMPDEST PUSH2 0x135E PUSH2 0x24BF JUMP JUMPDEST PUSH1 0x0 PUSH1 0xB PUSH1 0x0 DUP6 DUP2 MSTORE PUSH1 0x20 ADD SWAP1 DUP2 MSTORE PUSH1 0x20 ADD PUSH1 0x0 KECCAK256 SWAP1 POP PUSH1 0x0 PUSH1 0x3 DUP2 GT ISZERO PUSH2 0x1389 JUMPI PUSH2 0x1388 PUSH2 0x2966 JUMP JUMPDEST JUMPDEST DUP2 PUSH1 0x5 ADD PUSH1 0x0 SWAP1 SLOAD SWAP1 PUSH2 0x100 EXP SWAP1 DIV PUSH1 0xFF AND PUSH1 0x3 DUP2 GT ISZERO PUSH2 0x13AD JUMPI PUSH2 0x13AC PUSH2 0x2966 JUMP JUMPDEST JUMPDEST EQ PUSH2 0x13ED JUMPI PUSH1 0x40 MLOAD PUSH32 0x8C379A000000000000000000000000000000000000000000000000000000000 DUP2 MSTORE PUSH1 0x4 ADD PUSH2 0x13E4 SWAP1 PUSH2 0x3AAB JUMP JUMPDEST PUSH1 0x40 MLOAD DUP1 SWAP2 SUB SWAP1 REVERT JUMPDEST PUSH1 0x0 DUP2 PUSH1 0x1 ADD PUSH1 0x0 SWAP1 SLOAD SWAP1 PUSH2 0x100 EXP SWAP1 DIV PUSH20 0xFFFFFFFFFFFFFFFFFFFFFFFFFFFFFFFFFFFFFFFF AND SWAP1 POP PUSH1 0x0 PUSH1 0xA PUSH1 0x0 DUP4 PUSH20 0xFFFFFFFFFFFFFFFFFFFFFFFFFFFFFFFFFFFFFFFF AND PUSH20 0xFFFFFFFFFFFFFFFFFFFFFFFFFFFFFFFFFFFFFFFF AND DUP2 MSTORE PUSH1 0x20 ADD SWAP1 DUP2 MSTORE PUSH1 0x20 ADD PUSH1 0x0 KECCAK256 SWAP1 POP DUP1 PUSH1 0x2 ADD PUSH1 0x0 SWAP1 SLOAD SWAP1 PUSH2 0x100 EXP SWAP1 DIV PUSH1 0xFF AND DUP1 ISZERO PUSH2 0x147A JUMPI POP DUP6 DUP2 PUSH1 0x3 ADD SLOAD EQ JUMPDEST PUSH2 0x14B9 JUMPI PUSH1 0x40 MLOAD PUSH32 0x8C379A000000000000000000000000000000000000000000000000000000000 DUP2 MSTORE PUSH1 0x4 ADD PUSH2 0x14B0 SWAP1 PUSH2 0x3B17 JUMP JUMPDEST PUSH1 0x40 MLOAD DUP1 SWAP2 SUB SWAP1 REVERT JUMPDEST DUP5 DUP4 PUSH1 0x4 ADD SWAP1 DUP2 PUSH2 0x14CA SWAP2 SWAP1 PUSH2 0x3895 JUMP JUMPDEST POP TIMESTAMP DUP4 PUSH1 0x7 ADD DUP2 SWAP1 SSTORE POP PUSH1 0x1 DUP4 PUSH1 0x8 ADD PUSH1 0x0 PUSH2 0x100 EXP DUP2 SLOAD DUP2 PUSH1 0xFF MUL NOT AND SWAP1 DUP4 ISZERO ISZERO MUL OR SWAP1 SSTORE POP DUP4 PUSH2 0x14FD JUMPI PUSH1 0x2 PUSH2 0x1500 JUMP JUMPDEST PUSH1 0x1 JUMPDEST DUP4 PUSH1 0x5 ADD PUSH1 0x0 PUSH2 0x100 EXP DUP2 SLOAD DUP2 PUSH1 0xFF MUL NOT AND SWAP1 DUP4 PUSH1 0x3 DUP2 GT ISZERO PUSH2 0x1526 JUMPI PUSH2 0x1525 PUSH2 0x2966 JUMP JUMPDEST JUMPDEST MUL OR SWAP1 SSTORE POP PUSH1 0x0 DUP2 PUSH1 0x2 ADD PUSH1 0x0 PUSH2 0x100 EXP DUP2 SLOAD DUP2 PUSH1 0xFF MUL NOT AND SWAP1 DUP4 ISZERO ISZERO MUL OR SWAP1 SSTORE POP PUSH1 0x0 DUP5 ISZERO PUSH2 0x172A JUMPI PUSH1 0x0 PUSH2 0x156C DUP6 PUSH1 0xA ADD PUSH1 0x0 SWAP1 SLOAD SWAP1 PUSH2 0x100 EXP SWAP1 DIV PUSH1 0xFF AND PUSH2 0x10B6 JUMP JUMPDEST SWAP1 POP PUSH1 0x64 DUP2 DUP5 PUSH1 0x0 ADD SLOAD PUSH2 0x1580 SWAP2 SWAP1 PUSH2 0x3B37 JUMP JUMPDEST PUSH2 0x158A SWAP2 SWAP1 PUSH2 0x3BA8 JUMP JUMPDEST SWAP2 POP PUSH1 0x0 PUSH1 0x64 PUSH1 0x7 SLOAD DUP5 PUSH2 0x159E SWAP2 SWAP1 PUSH2 0x3B37 JUMP JUMPDEST PUSH2 0x15A8 SWAP2 SWAP1 PUSH2 0x3BA8 JUMP JUMPDEST SWAP1 POP DUP1 DUP4 PUSH2 0x15B6 SWAP2 SWAP1 PUSH2 0x3BD9 JUMP JUMPDEST SWAP3 POP DUP5 PUSH20 0xFFFFFFFFFFFFFFFFFFFFFFFFFFFFFFFFFFFFFFFF AND PUSH2 0x8FC DUP5 SWAP1 DUP2 ISZERO MUL SWAP1 PUSH1 0x40 MLOAD PUSH1 0x0 PUSH1 0x40 MLOAD DUP1 DUP4 SUB DUP2 DUP6 DUP9 DUP9 CALL SWAP4 POP POP POP POP ISZERO DUP1 ISZERO PUSH2 0x15FE JUMPI RETURNDATASIZE PUSH1 0x0 DUP1 RETURNDATACOPY RETURNDATASIZE PUSH1 0x0 REVERT JUMPDEST POP PUSH1 0x0 DUP2 GT ISZERO PUSH2 0x1672 JUMPI PUSH1 0x2 PUSH1 0x1 SWAP1 SLOAD SWAP1 PUSH2 0x100 EXP SWAP1 DIV PUSH20 0xFFFFFFFFFFFFFFFFFFFFFFFFFFFFFFFFFFFFFFFF AND PUSH20 0xFFFFFFFFFFFFFFFFFFFFFFFFFFFFFFFFFFFFFFFF AND PUSH2 0x8FC DUP3 SWAP1 DUP2 ISZERO MUL SWAP1 PUSH1 0x40 MLOAD PUSH1 0x0 PUSH1 0x40 MLOAD DUP1 DUP4 SUB DUP2 DUP6 DUP9 DUP9 CALL SWAP4 POP POP POP POP ISZERO DUP1 ISZERO PUSH2 0x1670 JUMPI RETURNDATASIZE PUSH1 0x0 DUP1 RETURNDATACOPY RETURNDATASIZE PUSH1 0x0 REVERT JUMPDEST POP JUMPDEST PUSH1 0x0 PUSH1 0xD PUSH1 0x0 DUP8 PUSH20 0xFFFFFFFFFFFFFFFFFFFFFFFFFFFFFFFFFFFFFFFF AND PUSH20 0xFFFFFFFFFFFFFFFFFFFFFFFFFFFFFFFFFFFFFFFF AND DUP2 MSTORE PUSH1 0x20 ADD SWAP1 DUP2 MSTORE PUSH1 0x20 ADD PUSH1 0x0 KECCAK256 SWAP1 POP DUP4 DUP2 PUSH1 0x1 ADD PUSH1 0x0 DUP3 DUP3 SLOAD PUSH2 0x16C9 SWAP2 SWAP1 PUSH2 0x3996 JUMP JUMPDEST SWAP3 POP POP DUP2 SWAP1 SSTORE POP DUP1 PUSH1 0x2 ADD PUSH1 0x0 DUP2 SLOAD DUP1 SWAP3 SWAP2 SWAP1 PUSH2 0x16E5 SWAP1 PUSH2 0x3C0D JUMP JUMPDEST SWAP2 SWAP1 POP SSTORE POP DUP1 PUSH1 0x4 ADD PUSH1 0x0 DUP2 SLOAD DUP1 SWAP3 SWAP2 SWAP1 PUSH2 0x16FF SWAP1 PUSH2 0x3C0D JUMP JUMPDEST SWAP2 SWAP1 POP SSTORE POP DUP1 PUSH1 0x5 ADD SLOAD DUP2 PUSH1 0x4 ADD SLOAD GT ISZERO PUSH2 0x1722 JUMPI DUP1 PUSH1 0x4 ADD SLOAD DUP2 PUSH1 0x5 ADD DUP2 SWAP1 SSTORE POP JUMPDEST POP POP POP PUSH2 0x1800 JUMP JUMPDEST PUSH1 0x2 PUSH1 0x1 SWAP1 SLOAD SWAP1 PUSH2 0x100 EXP SWAP1 DIV PUSH20 0xFFFFFFFFFFFFFFFFFFFFFFFFFFFFFFFFFFFFFFFF AND PUSH20 0xFFFFFFFFFFFFFFFFFFFFFFFFFFFFFFFFFFFFFFFF AND PUSH2 0x8FC DUP4 PUSH1 0x0 ADD SLOAD SWAP1 DUP2 ISZERO MUL SWAP1 PUSH1 0x40 MLOAD PUSH1 0x0 PUSH1 0x40 MLOAD DUP1 DUP4 SUB DUP2 DUP6 DUP9 DUP9 CALL SWAP4 POP POP POP POP ISZERO DUP1 ISZERO PUSH2 0x1796 JUMPI RETURNDATASIZE PUSH1 0x0 DUP1 RETURNDATACOPY RETURNDATASIZE PUSH1 0x0 REVERT JUMPDEST POP PUSH1 0x0 PUSH1 0xD PUSH1 0x0 DUP6 PUSH20 0xFFFFFFFFFFFFFFFFFFFFFFFFFFFFFFFFFFFFFFFF AND PUSH20 0xFFFFFFFFFFFFFFFFFFFFFFFFFFFFFFFFFFFFFFFF AND DUP2 MSTORE PUSH1 0x20 ADD SWAP1 DUP2 MSTORE PUSH1 0x20 ADD PUSH1 0x0 KECCAK256 SWAP1 POP DUP1 PUSH1 0x3 ADD PUSH1 0x0 DUP2 SLOAD DUP1 SWAP3 SWAP2 SWAP1 PUSH2 0x17EF SWAP1 PUSH2 0x3C0D JUMP JUMPDEST SWAP2 SWAP1 POP SSTORE POP PUSH1 0x0 DUP2 PUSH1 0x4 ADD DUP2 SWAP1 SSTORE POP POP JUMPDEST PUSH1 0xC PUSH1 0x0 DUP6 PUSH1 0x9 ADD SLOAD DUP2 MSTORE PUSH1 0x20 ADD SWAP1 DUP2 MSTORE PUSH1 0x20 ADD PUSH1 0x0 KECCAK256 PUSH1 0x5 ADD PUSH1 0x0 DUP2 SLOAD DUP1 SWAP3 SWAP2 SWAP1 PUSH2 0x182B SWAP1 PUSH2 0x3C0D JUMP JUMPDEST SWAP2 SWAP1 POP SSTORE POP DUP2 PUSH1 0x0 ADD SLOAD PUSH1 0xD PUSH1 0x0 DUP6 PUSH20 0xFFFFFFFFFFFFFFFFFFFFFFFFFFFFFFFFFFFFFFFF AND PUSH20 0xFFFFFFFFFFFFFFFFFFFFFFFFFFFFFFFFFFFFFFFF AND DUP2 MSTORE PUSH1 0x20 ADD SWAP1 DUP2 MSTORE PUSH1 0x20 ADD PUSH1 0x0 KECCAK256 PUSH1 0x0 ADD PUSH1 0x0 DUP3 DUP3 SLOAD PUSH2 0x1886 SWAP2 SWAP1 PUSH2 0x3996 JUMP JUMPDEST SWAP3 POP POP DUP2 SWAP1 SSTORE POP TIMESTAMP PUSH1 0xD PUSH1 0x0 DUP6 PUSH20 0xFFFFFFFFFFFFFFFFFFFFFFFFFFFFFFFFFFFFFFFF AND PUSH20 0xFFFFFFFFFFFFFFFFFFFFFFFFFFFFFFFFFFFFFFFF AND DUP2 MSTORE PUSH1 0x20 ADD SWAP1 DUP2 MSTORE PUSH1 0x20 ADD PUSH1 0x0 KECCAK256 PUSH1 0x6 ADD DUP2 SWAP1 SSTORE POP DUP3 PUSH20 0xFFFFFFFFFFFFFFFFFFFFFFFFFFFFFFFFFFFFFFFF AND DUP8 PUSH32 0xF531285CA704745EDDAB0F3FFD7E758C9D25CC5307E3C886D15ED35F880C6EE1 DUP8 DUP5 PUSH1 0x40 MLOAD PUSH2 0x191D SWAP3 SWAP2 SWAP1 PUSH2 0x3C55 JUMP JUMPDEST PUSH1 0x40 MLOAD DUP1 SWAP2 SUB SWAP1 LOG3 POP POP POP POP PUSH2 0x1931 PUSH2 0x257C JUMP JUMPDEST POP POP POP JUMP JUMPDEST PUSH2 0x193E PUSH2 0x2441 JUMP JUMPDEST PUSH2 0x1948 PUSH1 0x0 PUSH2 0x25E8 JUMP JUMPDEST JUMP JUMPDEST PUSH2 0x1952 PUSH2 0x2441 JUMP JUMPDEST PUSH2 0x195A PUSH2 0x26AC JUMP JUMPDEST JUMP JUMPDEST PUSH1 0x0 DUP1 PUSH1 0x0 SWAP1 SLOAD SWAP1 PUSH2 0x100 EXP SWAP1 DIV PUSH20 0xFFFFFFFFFFFFFFFFFFFFFFFFFFFFFFFFFFFFFFFF AND SWAP1 POP SWAP1 JUMP JUMPDEST PUSH1 0xB PUSH1 0x20 MSTORE DUP1 PUSH1 0x0 MSTORE PUSH1 0x40 PUSH1 0x0 KECCAK256 PUSH1 0x0 SWAP2 POP SWAP1 POP DUP1 PUSH1 0x0 ADD SLOAD SWAP1 DUP1 PUSH1 0x1 ADD PUSH1 0x0 SWAP1 SLOAD SWAP1 PUSH2 0x100 EXP SWAP1 DIV PUSH20 0xFFFFFFFFFFFFFFFFFFFFFFFFFFFFFFFFFFFFFFFF AND SWAP1 DUP1 PUSH1 0x2 ADD SLOAD SWAP1 DUP1 PUSH1 0x3 ADD DUP1 SLOAD PUSH2 0x19DA SWAP1 PUSH2 0x36B8 JUMP JUMPDEST DUP1 PUSH1 0x1F ADD PUSH1 0x20 DUP1 SWAP2 DIV MUL PUSH1 0x20 ADD PUSH1 0x40 MLOAD SWAP1 DUP2 ADD PUSH1 0x40 MSTORE DUP1 SWAP3 SWAP2 SWAP1 DUP2 DUP2 MSTORE PUSH1 0x20 ADD DUP3 DUP1 SLOAD PUSH2 0x1A06 SWAP1 PUSH2 0x36B8 JUMP JUMPDEST DUP1 ISZERO PUSH2 0x1A53 JUMPI DUP1 PUSH1 0x1F LT PUSH2 0x1A28 JUMPI PUSH2 0x100 DUP1 DUP4 SLOAD DIV MUL DUP4 MSTORE SWAP2 PUSH1 0x20 ADD SWAP2 PUSH2 0x1A53 JUMP JUMPDEST DUP3 ADD SWAP2 SWAP1 PUSH1 0x0 MSTORE PUSH1 0x20 PUSH1 0x0 KECCAK256 SWAP1 JUMPDEST DUP2 SLOAD DUP2 MSTORE SWAP1 PUSH1 0x1 ADD SWAP1 PUSH1 0x20 ADD DUP1 DUP4 GT PUSH2 0x1A36 JUMPI DUP3 SWAP1 SUB PUSH1 0x1F AND DUP3 ADD SWAP2 JUMPDEST POP POP POP POP POP SWAP1 DUP1 PUSH1 0x4 ADD DUP1 SLOAD PUSH2 0x1A68 SWAP1 PUSH2 0x36B8 JUMP JUMPDEST DUP1 PUSH1 0x1F ADD PUSH1 0x20 DUP1 SWAP2 DIV MUL PUSH1 0x20 ADD PUSH1 0x40 MLOAD SWAP1 DUP2 ADD PUSH1 0x40 MSTORE DUP1 SWAP3 SWAP2 SWAP1 DUP2 DUP2 MSTORE PUSH1 0x20 ADD DUP3 DUP1 SLOAD PUSH2 0x1A94 SWAP1 PUSH2 0x36B8 JUMP JUMPDEST DUP1 ISZERO PUSH2 0x1AE1 JUMPI DUP1 PUSH1 0x1F LT PUSH2 0x1AB6 JUMPI PUSH2 0x100 DUP1 DUP4 SLOAD DIV MUL DUP4 MSTORE SWAP2 PUSH1 0x20 ADD SWAP2 PUSH2 0x1AE1 JUMP JUMPDEST DUP3 ADD SWAP2 SWAP1 PUSH1 0x0 MSTORE PUSH1 0x20 PUSH1 0x0 KECCAK256 SWAP1 JUMPDEST DUP2 SLOAD DUP2 MSTORE SWAP1 PUSH1 0x1 ADD SWAP1 PUSH1 0x20 ADD DUP1 DUP4 GT PUSH2 0x1AC4 JUMPI DUP3 SWAP1 SUB PUSH1 0x1F AND DUP3 ADD SWAP2 JUMPDEST POP POP POP POP POP SWAP1 DUP1 PUSH1 0x5 ADD PUSH1 0x0 SWAP1 SLOAD SWAP1 PUSH2 0x100 EXP SWAP1 DIV PUSH1 0xFF AND SWAP1 DUP1 PUSH1 0x6 ADD SLOAD SWAP1 DUP1 PUSH1 0x7 ADD SLOAD SWAP1 DUP1 PUSH1 0x8 ADD PUSH1 0x0 SWAP1 SLOAD SWAP1 PUSH2 0x100 EXP SWAP1 DIV PUSH1 0xFF AND SWAP1 DUP1 PUSH1 0x9 ADD SLOAD SWAP1 DUP1 PUSH1 0xA ADD PUSH1 0x0 SWAP1 SLOAD SWAP1 PUSH2 0x100 EXP SWAP1 DIV PUSH1 0xFF AND SWAP1 POP DUP12 JUMP JUMPDEST PUSH1 0x60 PUSH1 0xF PUSH1 0x0 DUP4 PUSH20 0xFFFFFFFFFFFFFFFFFFFFFFFFFFFFFFFFFFFFFFFF AND PUSH20 0xFFFFFFFFFFFFFFFFFFFFFFFFFFFFFFFFFFFFFFFF AND DUP2 MSTORE PUSH1 0x20 ADD SWAP1 DUP2 MSTORE PUSH1 0x20 ADD PUSH1 0x0 KECCAK256 DUP1 SLOAD DUP1 PUSH1 0x20 MUL PUSH1 0x20 ADD PUSH1 0x40 MLOAD SWAP1 DUP2 ADD PUSH1 0x40 MSTORE DUP1 SWAP3 SWAP2 SWAP1 DUP2 DUP2 MSTORE PUSH1 0x20 ADD DUP3 DUP1 SLOAD DUP1 ISZERO PUSH2 0x1BC1 JUMPI PUSH1 0x20 MUL DUP3 ADD SWAP2 SWAP1 PUSH1 0x0 MSTORE PUSH1 0x20 PUSH1 0x0 KECCAK256 SWAP1 JUMPDEST DUP2 SLOAD DUP2 MSTORE PUSH1 0x20 ADD SWAP1 PUSH1 0x1 ADD SWAP1 DUP1 DUP4 GT PUSH2 0x1BAD JUMPI JUMPDEST POP POP POP POP POP SWAP1 POP SWAP2 SWAP1 POP JUMP JUMPDEST PUSH1 0xE PUSH1 0x20 MSTORE DUP1 PUSH1 0x0 MSTORE PUSH1 0x40 PUSH1 0x0 KECCAK256 PUSH1 0x0 SWAP2 POP SLOAD SWAP1 PUSH2 0x100 EXP SWAP1 DIV PUSH1 0xFF AND DUP2 JUMP JUMPDEST PUSH2 0x1BF5 PUSH2 0x2441 JUMP JUMPDEST DUP5 PUSH1 0x4 DUP2 SWAP1 SSTORE POP DUP4 PUSH1 0x5 DUP2 SWAP1 SSTORE POP DUP3 PUSH1 0x6 DUP2 SWAP1 SSTORE POP DUP2 PUSH1 0x7 DUP2 SWAP1 SSTORE POP DUP1 PUSH1 0x2 PUSH1 0x1 PUSH2 0x100 EXP DUP2 SLOAD DUP2 PUSH20 0xFFFFFFFFFFFFFFFFFFFFFFFFFFFFFFFFFFFFFFFF MUL NOT AND SWAP1 DUP4 PUSH20 0xFFFFFFFFFFFFFFFFFFFFFFFFFFFFFFFFFFFFFFFF AND MUL OR SWAP1 SSTORE POP POP POP POP POP POP JUMP JUMPDEST PUSH2 0x1C61 PUSH2 0x2441 JUMP JUMPDEST DUP1 PUSH1 0xE PUSH1 0x0 DUP5 PUSH20 0xFFFFFFFFFFFFFFFFFFFFFFFFFFFFFFFFFFFFFFFF AND PUSH20 0xFFFFFFFFFFFFFFFFFFFFFFFFFFFFFFFFFFFFFFFF AND DUP2 MSTORE PUSH1 0x20 ADD SWAP1 DUP2 MSTORE PUSH1 0x20 ADD PUSH1 0x0 KECCAK256 PUSH1 0x0 PUSH2 0x100 EXP DUP2 SLOAD DUP2 PUSH1 0xFF MUL NOT AND SWAP1 DUP4 ISZERO ISZERO MUL OR SWAP1 SSTORE POP DUP2 PUSH20 0xFFFFFFFFFFFFFFFFFFFFFFFFFFFFFFFFFFFFFFFF AND PUSH32 0x1964273D193FB2F4735C932D08BBDB5CBAAF807BB74A86B6F4BE09AF78D42C92 DUP3 PUSH1 0x40 MLOAD PUSH2 0x1CFE SWAP2 SWAP1 PUSH2 0x2DD2 JUMP JUMPDEST PUSH1 0x40 MLOAD DUP1 SWAP2 SUB SWAP1 LOG2 POP POP JUMP JUMPDEST PUSH1 0x5 SLOAD DUP2 JUMP JUMPDEST PUSH1 0xA PUSH1 0x20 MSTORE DUP1 PUSH1 0x0 MSTORE PUSH1 0x40 PUSH1 0x0 KECCAK256 PUSH1 0x0 SWAP2 POP SWAP1 POP DUP1 PUSH1 0x0 ADD SLOAD SWAP1 DUP1 PUSH1 0x1 ADD SLOAD SWAP1 DUP1 PUSH1 0x2 ADD PUSH1 0x0 SWAP1 SLOAD SWAP1 PUSH2 0x100 EXP SWAP1 DIV PUSH1 0xFF AND SWAP1 DUP1 PUSH1 0x3 ADD SLOAD SWAP1 POP DUP5 JUMP JUMPDEST PUSH1 0xE PUSH1 0x0 CALLER PUSH20 0xFFFFFFFFFFFFFFFFFFFFFFFFFFFFFFFFFFFFFFFF AND PUSH20 0xFFFFFFFFFFFFFFFFFFFFFFFFFFFFFFFFFFFFFFFF AND DUP2 MSTORE PUSH1 0x20 ADD SWAP1 DUP2 MSTORE PUSH1 0x20 ADD PUSH1 0x0 KECCAK256 PUSH1 0x0 SWAP1 SLOAD SWAP1 PUSH2 0x100 EXP SWAP1 DIV PUSH1 0xFF AND DUP1 PUSH2 0x1DD7 JUMPI POP PUSH2 0x1DA8 PUSH2 0x195C JUMP JUMPDEST PUSH20 0xFFFFFFFFFFFFFFFFFFFFFFFFFFFFFFFFFFFFFFFF AND CALLER PUSH20 0xFFFFFFFFFFFFFFFFFFFFFFFFFFFFFFFFFFFFFFFF AND EQ JUMPDEST PUSH2 0x1E16 JUMPI PUSH1 0x40 MLOAD PUSH32 0x8C379A000000000000000000000000000000000000000000000000000000000 DUP2 MSTORE PUSH1 0x4 ADD PUSH2 0x1E0D SWAP1 PUSH2 0x3A3F JUMP JUMPDEST PUSH1 0x40 MLOAD DUP1 SWAP2 SUB SWAP1 REVERT JUMPDEST PUSH1 0x0 PUSH1 0x3 DUP2 GT ISZERO PUSH2 0x1E2A JUMPI PUSH2 0x1E29 PUSH2 0x2966 JUMP JUMPDEST JUMPDEST PUSH1 0xB PUSH1 0x0 DUP5 DUP2 MSTORE PUSH1 0x20 ADD SWAP1 DUP2 MSTORE PUSH1 0x20 ADD PUSH1 0x0 KECCAK256 PUSH1 0x5 ADD PUSH1 0x0 SWAP1 SLOAD SWAP1 PUSH2 0x100 EXP SWAP1 DIV PUSH1 0xFF AND PUSH1 0x3 DUP2 GT ISZERO PUSH2 0x1E60 JUMPI PUSH2 0x1E5F PUSH2 0x2966 JUMP JUMPDEST JUMPDEST EQ PUSH2 0x1EA0 JUMPI PUSH1 0x40 MLOAD PUSH32 0x8C379A000000000000000000000000000000000000000000000000000000000 DUP2 MSTORE PUSH1 0x4 ADD PUSH2 0x1E97 SWAP1 PUSH2 0x3AAB JUMP JUMPDEST PUSH1 0x40 MLOAD DUP1 SWAP2 SUB SWAP1 REVERT JUMPDEST DUP1 PUSH1 0xB PUSH1 0x0 DUP5 DUP2 MSTORE PUSH1 0x20 ADD SWAP1 DUP2 MSTORE PUSH1 0x20 ADD PUSH1 0x0 KECCAK256 PUSH1 0x3 ADD SWAP1 DUP2 PUSH2 0x1EC3 SWAP2 SWAP1 PUSH2 0x3895 JUMP JUMPDEST POP PUSH1 0xB PUSH1 0x0 DUP4 DUP2 MSTORE PUSH1 0x20 ADD SWAP1 DUP2 MSTORE PUSH1 0x20 ADD PUSH1 0x0 KECCAK256 PUSH1 0x1 ADD PUSH1 0x0 SWAP1 SLOAD SWAP1 PUSH2 0x100 EXP SWAP1 DIV PUSH20 0xFFFFFFFFFFFFFFFFFFFFFFFFFFFFFFFFFFFFFFFF AND PUSH20 0xFFFFFFFFFFFFFFFFFFFFFFFFFFFFFFFFFFFFFFFF AND DUP3 PUSH32 0x2045572326018AC04CF292B4443D536BD6C25C4D945E0B5E707382E73829F779 PUSH1 0xB PUSH1 0x0 DUP7 DUP2 MSTORE PUSH1 0x20 ADD SWAP1 DUP2 MSTORE PUSH1 0x20 ADD PUSH1 0x0 KECCAK256 PUSH1 0x9 ADD SLOAD DUP5 PUSH1 0x40 MLOAD PUSH2 0x1F59 SWAP3 SWAP2 SWAP1 PUSH2 0x3C7E JUMP JUMPDEST PUSH1 0x40 MLOAD DUP1 SWAP2 SUB SWAP1 LOG3 POP POP JUMP JUMPDEST PUSH1 0x3 PUSH1 0x0 SWAP1 SLOAD SWAP1 PUSH2 0x100 EXP SWAP1 DIV PUSH20 0xFFFFFFFFFFFFFFFFFFFFFFFFFFFFFFFFFFFFFFFF AND DUP2 JUMP JUMPDEST PUSH1 0xD PUSH1 0x20 MSTORE DUP1 PUSH1 0x0 MSTORE PUSH1 0x40 PUSH1 0x0 KECCAK256 PUSH1 0x0 SWAP2 POP SWAP1 POP DUP1 PUSH1 0x0 ADD SLOAD SWAP1 DUP1 PUSH1 0x1 ADD SLOAD SWAP1 DUP1 PUSH1 0x2 ADD SLOAD SWAP1 DUP1 PUSH1 0x3 ADD SLOAD SWAP1 DUP1 PUSH1 0x4 ADD SLOAD SWAP1 DUP1 PUSH1 0x5 ADD SLOAD SWAP1 DUP1 PUSH1 0x6 ADD SLOAD SWAP1 POP DUP8 JUMP JUMPDEST PUSH1 0x6 SLOAD DUP2 JUMP JUMPDEST PUSH2 0x1FDB PUSH2 0x2441 JUMP JUMPDEST PUSH1 0x0 PUSH1 0xC PUSH1 0x0 DUP8 DUP2 MSTORE PUSH1 0x20 ADD SWAP1 DUP2 MSTORE PUSH1 0x20 ADD PUSH1 0x0 KECCAK256 PUSH1 0x0 ADD SLOAD EQ PUSH2 0x2034 JUMPI PUSH1 0x40 MLOAD PUSH32 0x8C379A000000000000000000000000000000000000000000000000000000000 DUP2 MSTORE PUSH1 0x4 ADD PUSH2 0x202B SWAP1 PUSH2 0x3CFA JUMP JUMPDEST PUSH1 0x40 MLOAD DUP1 SWAP2 SUB SWAP1 REVERT JUMPDEST PUSH1 0x40 MLOAD DUP1 PUSH2 0x100 ADD PUSH1 0x40 MSTORE DUP1 DUP7 DUP2 MSTORE PUSH1 0x20 ADD DUP6 DUP2 MSTORE PUSH1 0x20 ADD DUP5 DUP2 MSTORE PUSH1 0x20 ADD DUP4 DUP2 MSTORE PUSH1 0x20 ADD DUP3 PUSH1 0x3 DUP2 GT ISZERO PUSH2 0x206B JUMPI PUSH2 0x206A PUSH2 0x2966 JUMP JUMPDEST JUMPDEST DUP2 MSTORE PUSH1 0x20 ADD PUSH1 0x1 ISZERO ISZERO DUP2 MSTORE PUSH1 0x20 ADD PUSH1 0x0 DUP2 MSTORE PUSH1 0x20 ADD PUSH1 0x0 DUP2 MSTORE POP PUSH1 0xC PUSH1 0x0 DUP8 DUP2 MSTORE PUSH1 0x20 ADD SWAP1 DUP2 MSTORE PUSH1 0x20 ADD PUSH1 0x0 KECCAK256 PUSH1 0x0 DUP3 ADD MLOAD DUP2 PUSH1 0x0 ADD SSTORE PUSH1 0x20 DUP3 ADD MLOAD DUP2 PUSH1 0x1 ADD SSTORE PUSH1 0x40 DUP3 ADD MLOAD DUP2 PUSH1 0x2 ADD SSTORE PUSH1 0x60 DUP3 ADD MLOAD DUP2 PUSH1 0x3 ADD SSTORE PUSH1 0x80 DUP3 ADD MLOAD DUP2 PUSH1 0x4 ADD PUSH1 0x0 PUSH2 0x100 EXP DUP2 SLOAD DUP2 PUSH1 0xFF MUL NOT AND SWAP1 DUP4 PUSH1 0x3 DUP2 GT ISZERO PUSH2 0x20EB JUMPI PUSH2 0x20EA PUSH2 0x2966 JUMP JUMPDEST JUMPDEST MUL OR SWAP1 SSTORE POP PUSH1 0xA0 DUP3 ADD MLOAD DUP2 PUSH1 0x4 ADD PUSH1 0x1 PUSH2 0x100 EXP DUP2 SLOAD DUP2 PUSH1 0xFF MUL NOT AND SWAP1 DUP4 ISZERO ISZERO MUL OR SWAP1 SSTORE POP PUSH1 0xC0 DUP3 ADD MLOAD DUP2 PUSH1 0x5 ADD SSTORE PUSH1 0xE0 DUP3 ADD MLOAD DUP2 PUSH1 0x6 ADD SSTORE SWAP1 POP POP DUP5 PUSH32 0x129587D9E08AD0CE02EAF47578BF568FDA838194AB25452B17963223B17435DD DUP6 DUP6 DUP5 PUSH1 0x40 MLOAD PUSH2 0x215B SWAP4 SWAP3 SWAP2 SWAP1 PUSH2 0x3D1A JUMP JUMPDEST PUSH1 0x40 MLOAD DUP1 SWAP2 SUB SWAP1 LOG2 POP POP POP POP POP JUMP JUMPDEST PUSH2 0x2172 PUSH2 0x24BF JUMP JUMPDEST PUSH1 0x0 PUSH1 0xA PUSH1 0x0 CALLER PUSH20 0xFFFFFFFFFFFFFFFFFFFFFFFFFFFFFFFFFFFFFFFF AND PUSH20 0xFFFFFFFFFFFFFFFFFFFFFFFFFFFFFFFFFFFFFFFF AND DUP2 MSTORE PUSH1 0x20 ADD SWAP1 DUP2 MSTORE PUSH1 0x20 ADD PUSH1 0x0 KECCAK256 SWAP1 POP DUP1 PUSH1 0x2 ADD PUSH1 0x0 SWAP1 SLOAD SWAP1 PUSH2 0x100 EXP SWAP1 DIV PUSH1 0xFF AND PUSH2 0x2206 JUMPI PUSH1 0x40 MLOAD PUSH32 0x8C379A000000000000000000000000000000000000000000000000000000000 DUP2 MSTORE PUSH1 0x4 ADD PUSH2 0x21FD SWAP1 PUSH2 0x3D9D JUMP JUMPDEST PUSH1 0x40 MLOAD DUP1 SWAP2 SUB SWAP1 REVERT JUMPDEST PUSH3 0x15180 DUP2 PUSH1 0x1 ADD SLOAD PUSH2 0x2219 SWAP2 SWAP1 PUSH2 0x3996 JUMP JUMPDEST TIMESTAMP GT PUSH2 0x225A JUMPI PUSH1 0x40 MLOAD PUSH32 0x8C379A000000000000000000000000000000000000000000000000000000000 DUP2 MSTORE PUSH1 0x4 ADD PUSH2 0x2251 SWAP1 PUSH2 0x3E09 JUMP JUMPDEST PUSH1 0x40 MLOAD DUP1 SWAP2 SUB SWAP1 REVERT JUMPDEST PUSH1 0x0 DUP2 PUSH1 0x0 ADD SLOAD SWAP1 POP PUSH1 0x0 DUP3 PUSH1 0x2 ADD PUSH1 0x0 PUSH2 0x100 EXP DUP2 SLOAD DUP2 PUSH1 0xFF MUL NOT AND SWAP1 DUP4 ISZERO ISZERO MUL OR SWAP1 SSTORE POP PUSH1 0x0 PUSH1 0x3 DUP2 GT ISZERO PUSH2 0x2294 JUMPI PUSH2 0x2293 PUSH2 0x2966 JUMP JUMPDEST JUMPDEST PUSH1 0xB PUSH1 0x0 DUP5 PUSH1 0x3 ADD SLOAD DUP2 MSTORE PUSH1 0x20 ADD SWAP1 DUP2 MSTORE PUSH1 0x20 ADD PUSH1 0x0 KECCAK256 PUSH1 0x5 ADD PUSH1 0x0 SWAP1 SLOAD SWAP1 PUSH2 0x100 EXP SWAP1 DIV PUSH1 0xFF AND PUSH1 0x3 DUP2 GT ISZERO PUSH2 0x22CE JUMPI PUSH2 0x22CD PUSH2 0x2966 JUMP JUMPDEST JUMPDEST SUB PUSH2 0x2317 JUMPI PUSH1 0x2 PUSH1 0xB PUSH1 0x0 DUP5 PUSH1 0x3 ADD SLOAD DUP2 MSTORE PUSH1 0x20 ADD SWAP1 DUP2 MSTORE PUSH1 0x20 ADD PUSH1 0x0 KECCAK256 PUSH1 0x5 ADD PUSH1 0x0 PUSH2 0x100 EXP DUP2 SLOAD DUP2 PUSH1 0xFF MUL NOT AND SWAP1 DUP4 PUSH1 0x3 DUP2 GT ISZERO PUSH2 0x2311 JUMPI PUSH2 0x2310 PUSH2 0x2966 JUMP JUMPDEST JUMPDEST MUL OR SWAP1 SSTORE POP JUMPDEST CALLER PUSH20 0xFFFFFFFFFFFFFFFFFFFFFFFFFFFFFFFFFFFFFFFF AND PUSH2 0x8FC DUP3 SWAP1 DUP2 ISZERO MUL SWAP1 PUSH1 0x40 MLOAD PUSH1 0x0 PUSH1 0x40 MLOAD DUP1 DUP4 SUB DUP2 DUP6 DUP9 DUP9 CALL SWAP4 POP POP POP POP ISZERO DUP1 ISZERO PUSH2 0x235D JUMPI RETURNDATASIZE PUSH1 0x0 DUP1 RETURNDATACOPY RETURNDATASIZE PUSH1 0x0 REVERT JUMPDEST POP CALLER PUSH20 0xFFFFFFFFFFFFFFFFFFFFFFFFFFFFFFFFFFFFFFFF AND PUSH32 0x23D6711A1D031134A36921253C75AA59E967D38E369AC625992824315E204F20 DUP3 PUSH1 0x40 MLOAD PUSH2 0x23A4 SWAP2 SWAP1 PUSH2 0x2B57 JUMP JUMPDEST PUSH1 0x40 MLOAD DUP1 SWAP2 SUB SWAP1 LOG2 POP POP PUSH2 0x23B6 PUSH2 0x257C JUMP JUMPDEST JUMP JUMPDEST PUSH1 0x4 SLOAD DUP2 JUMP JUMPDEST PUSH2 0x23C6 PUSH2 0x2441 JUMP JUMPDEST PUSH1 0x0 PUSH20 0xFFFFFFFFFFFFFFFFFFFFFFFFFFFFFFFFFFFFFFFF AND DUP2 PUSH20 0xFFFFFFFFFFFFFFFFFFFFFFFFFFFFFFFFFFFFFFFF AND SUB PUSH2 0x2435 JUMPI PUSH1 0x40 MLOAD PUSH32 0x8C379A000000000000000000000000000000000000000000000000000000000 DUP2 MSTORE PUSH1 0x4 ADD PUSH2 0x242C SWAP1 PUSH2 0x3E9B JUMP JUMPDEST PUSH1 0x40 MLOAD DUP1 SWAP2 SUB SWAP1 REVERT JUMPDEST PUSH2 0x243E DUP2 PUSH2 0x25E8 JUMP JUMPDEST POP JUMP JUMPDEST PUSH2 0x2449 PUSH2 0x270F JUMP JUMPDEST PUSH20 0xFFFFFFFFFFFFFFFFFFFFFFFFFFFFFFFFFFFFFFFF AND PUSH2 0x2467 PUSH2 0x195C JUMP JUMPDEST PUSH20 0xFFFFFFFFFFFFFFFFFFFFFFFFFFFFFFFFFFFFFFFF AND EQ PUSH2 0x24BD JUMPI PUSH1 0x40 MLOAD PUSH32 0x8C379A000000000000000000000000000000000000000000000000000000000 DUP2 MSTORE PUSH1 0x4 ADD PUSH2 0x24B4 SWAP1 PUSH2 0x3F07 JUMP JUMPDEST PUSH1 0x40 MLOAD DUP1 SWAP2 SUB SWAP1 REVERT JUMPDEST JUMP JUMPDEST PUSH1 0x2 PUSH1 0x1 SLOAD SUB PUSH2 0x2504 JUMPI PUSH1 0x40 MLOAD PUSH32 0x8C379A000000000000000000000000000000000000000000000000000000000 DUP2 MSTORE PUSH1 0x4 ADD PUSH2 0x24FB SWAP1 PUSH2 0x3F73 JUMP JUMPDEST PUSH1 0x40 MLOAD DUP1 SWAP2 SUB SWAP1 REVERT JUMPDEST PUSH1 0x2 PUSH1 0x1 DUP2 SWAP1 SSTORE POP JUMP JUMPDEST PUSH2 0x2516 PUSH2 0x1196 JUMP JUMPDEST ISZERO PUSH2 0x2556 JUMPI PUSH1 0x40 MLOAD PUSH32 0x8C379A000000000000000000000000000000000000000000000000000000000 DUP2 MSTORE PUSH1 0x4 ADD PUSH2 0x254D SWAP1 PUSH2 0x3FDF JUMP JUMPDEST PUSH1 0x40 MLOAD DUP1 SWAP2 SUB SWAP1 REVERT JUMPDEST JUMP JUMPDEST PUSH1 0x0 DUP2 PUSH1 0x0 ADD SLOAD SWAP1 POP SWAP2 SWAP1 POP JUMP JUMPDEST PUSH1 0x1 DUP2 PUSH1 0x0 ADD PUSH1 0x0 DUP3 DUP3 SLOAD ADD SWAP3 POP POP DUP2 SWAP1 SSTORE POP POP JUMP JUMPDEST PUSH1 0x1 DUP1 DUP2 SWAP1 SSTORE POP JUMP JUMPDEST PUSH2 0x258D PUSH2 0x2717 JUMP JUMPDEST PUSH1 0x0 PUSH1 0x2 PUSH1 0x0 PUSH2 0x100 EXP DUP2 SLOAD DUP2 PUSH1 0xFF MUL NOT AND SWAP1 DUP4 ISZERO ISZERO MUL OR SWAP1 SSTORE POP PUSH32 0x5DB9EE0A495BF2E6FF9C91A7834C1BA4FDD244A5E8AA4E537BD38AEAE4B073AA PUSH2 0x25D1 PUSH2 0x270F JUMP JUMPDEST PUSH1 0x40 MLOAD PUSH2 0x25DE SWAP2 SWAP1 PUSH2 0x2DFC JUMP JUMPDEST PUSH1 0x40 MLOAD DUP1 SWAP2 SUB SWAP1 LOG1 JUMP JUMPDEST PUSH1 0x0 DUP1 PUSH1 0x0 SWAP1 SLOAD SWAP1 PUSH2 0x100 EXP SWAP1 DIV PUSH20 0xFFFFFFFFFFFFFFFFFFFFFFFFFFFFFFFFFFFFFFFF AND SWAP1 POP DUP2 PUSH1 0x0 DUP1 PUSH2 0x100 EXP DUP2 SLOAD DUP2 PUSH20 0xFFFFFFFFFFFFFFFFFFFFFFFFFFFFFFFFFFFFFFFF MUL NOT AND SWAP1 DUP4 PUSH20 0xFFFFFFFFFFFFFFFFFFFFFFFFFFFFFFFFFFFFFFFF AND MUL OR SWAP1 SSTORE POP DUP2 PUSH20 0xFFFFFFFFFFFFFFFFFFFFFFFFFFFFFFFFFFFFFFFF AND DUP2 PUSH20 0xFFFFFFFFFFFFFFFFFFFFFFFFFFFFFFFFFFFFFFFF AND PUSH32 0x8BE0079C531659141344CD1FD0A4F28419497F9722A3DAAFE3B4186F6B6457E0 PUSH1 0x40 MLOAD PUSH1 0x40 MLOAD DUP1 SWAP2 SUB SWAP1 LOG3 POP POP JUMP JUMPDEST PUSH2 0x26B4 PUSH2 0x250E JUMP JUMPDEST PUSH1 0x1 PUSH1 0x2 PUSH1 0x0 PUSH2 0x100 EXP DUP2 SLOAD DUP2 PUSH1 0xFF MUL NOT AND SWAP1 DUP4 ISZERO ISZERO MUL OR SWAP1 SSTORE POP PUSH32 0x62E78CEA01BEE320CD4E420270B5EA74000D11B0C9F74754EBDBFC544B05A258 PUSH2 0x26F8 PUSH2 0x270F JUMP JUMPDEST PUSH1 0x40 MLOAD PUSH2 0x2705 SWAP2 SWAP1 PUSH2 0x2DFC JUMP JUMPDEST PUSH1 0x40 MLOAD DUP1 SWAP2 SUB SWAP1 LOG1 JUMP JUMPDEST PUSH1 0x0 CALLER SWAP1 POP SWAP1 JUMP JUMPDEST PUSH2 0x271F PUSH2 0x1196 JUMP JUMPDEST PUSH2 0x275E JUMPI PUSH1 0x40 MLOAD PUSH32 0x8C379A000000000000000000000000000000000000000000000000000000000 DUP2 MSTORE PUSH1 0x4 ADD PUSH2 0x2755 SWAP1 PUSH2 0x404B JUMP JUMPDEST PUSH1 0x40 MLOAD DUP1 SWAP2 SUB SWAP1 REVERT JUMPDEST JUMP JUMPDEST PUSH1 0x40 MLOAD DUP1 PUSH2 0x100 ADD PUSH1 0x40 MSTORE DUP1 PUSH1 0x0 DUP2 MSTORE PUSH1 0x20 ADD PUSH1 0x0 DUP2 MSTORE PUSH1 0x20 ADD PUSH1 0x0 DUP2 MSTORE PUSH1 0x20 ADD PUSH1 0x0 DUP2 MSTORE PUSH1 0x20 ADD PUSH1 0x0 PUSH1 0x3 DUP2 GT ISZERO PUSH2 0x279C JUMPI PUSH2 0x279B PUSH2 0x2966 JUMP JUMPDEST JUMPDEST DUP2 MSTORE PUSH1 0x20 ADD PUSH1 0x0 ISZERO ISZERO DUP2 MSTORE PUSH1 0x20 ADD PUSH1 0x0 DUP2 MSTORE PUSH1 0x20 ADD PUSH1 0x0 DUP2 MSTORE POP SWAP1 JUMP JUMPDEST PUSH1 0x40 MLOAD DUP1 PUSH2 0x160 ADD PUSH1 0x40 MSTORE DUP1 PUSH1 0x0 DUP2 MSTORE PUSH1 0x20 ADD PUSH1 0x0 PUSH20 0xFFFFFFFFFFFFFFFFFFFFFFFFFFFFFFFFFFFFFFFF AND DUP2 MSTORE PUSH1 0x20 ADD PUSH1 0x0 DUP2 MSTORE PUSH1 0x20 ADD PUSH1 0x60 DUP2 MSTORE PUSH1 0x20 ADD PUSH1 0x60 DUP2 MSTORE PUSH1 0x20 ADD PUSH1 0x0 PUSH1 0x3 DUP2 GT ISZERO PUSH2 0x2812 JUMPI PUSH2 0x2811 PUSH2 0x2966 JUMP JUMPDEST JUMPDEST DUP2 MSTORE PUSH1 0x20 ADD PUSH1 0x0 DUP2 MSTORE PUSH1 0x20 ADD PUSH1 0x0 DUP2 MSTORE PUSH1 0x20 ADD PUSH1 0x0 ISZERO ISZERO DUP2 MSTORE PUSH1 0x20 ADD PUSH1 0x0 DUP2 MSTORE PUSH1 0x20 ADD PUSH1 0x0 PUSH1 0x3 DUP2 GT ISZERO PUSH2 0x2849 JUMPI PUSH2 0x2848 PUSH2 0x2966 JUMP JUMPDEST JUMPDEST DUP2 MSTORE POP SWAP1 JUMP JUMPDEST PUSH1 0x0 PUSH1 0x40 MLOAD SWAP1 POP SWAP1 JUMP JUMPDEST PUSH1 0x0 DUP1 REVERT JUMPDEST PUSH1 0x0 DUP1 REVERT JUMPDEST PUSH1 0x0 DUP2 SWAP1 POP SWAP2 SWAP1 POP JUMP JUMPDEST PUSH2 0x2876 DUP2 PUSH2 0x2863 JUMP JUMPDEST DUP2 EQ PUSH2 0x2881 JUMPI PUSH1 0x0 DUP1 REVERT JUMPDEST POP JUMP JUMPDEST PUSH1 0x0 DUP2 CALLDATALOAD SWAP1 POP PUSH2 0x2893 DUP2 PUSH2 0x286D JUMP JUMPDEST SWAP3 SWAP2 POP POP JUMP JUMPDEST PUSH1 0x0 DUP2 ISZERO ISZERO SWAP1 POP SWAP2 SWAP1 POP JUMP JUMPDEST PUSH2 0x28AE DUP2 PUSH2 0x2899 JUMP JUMPDEST DUP2 EQ PUSH2 0x28B9 JUMPI PUSH1 0x0 DUP1 REVERT JUMPDEST POP JUMP JUMPDEST PUSH1 0x0 DUP2 CALLDATALOAD SWAP1 POP PUSH2 0x28CB DUP2 PUSH2 0x28A5 JUMP JUMPDEST SWAP3 SWAP2 POP POP JUMP JUMPDEST PUSH1 0x0 DUP1 PUSH1 0x40 DUP4 DUP6 SUB SLT ISZERO PUSH2 0x28E8 JUMPI PUSH2 0x28E7 PUSH2 0x2859 JUMP JUMPDEST JUMPDEST PUSH1 0x0 PUSH2 0x28F6 DUP6 DUP3 DUP7 ADD PUSH2 0x2884 JUMP JUMPDEST SWAP3 POP POP PUSH1 0x20 PUSH2 0x2907 DUP6 DUP3 DUP7 ADD PUSH2 0x28BC JUMP JUMPDEST SWAP2 POP POP SWAP3 POP SWAP3 SWAP1 POP JUMP JUMPDEST PUSH1 0x0 PUSH1 0x20 DUP3 DUP5 SUB SLT ISZERO PUSH2 0x2927 JUMPI PUSH2 0x2926 PUSH2 0x2859 JUMP JUMPDEST JUMPDEST PUSH1 0x0 PUSH2 0x2935 DUP5 DUP3 DUP6 ADD PUSH2 0x2884 JUMP JUMPDEST SWAP2 POP POP SWAP3 SWAP2 POP POP JUMP JUMPDEST PUSH2 0x2947 DUP2 PUSH2 0x2863 JUMP JUMPDEST DUP3 MSTORE POP POP JUMP JUMPDEST PUSH1 0x0 DUP2 SWAP1 POP SWAP2 SWAP1 POP JUMP JUMPDEST PUSH2 0x2960 DUP2 PUSH2 0x294D JUMP JUMPDEST DUP3 MSTORE POP POP JUMP JUMPDEST PUSH32 0x4E487B7100000000000000000000000000000000000000000000000000000000 PUSH1 0x0 MSTORE PUSH1 0x21 PUSH1 0x4 MSTORE PUSH1 0x24 PUSH1 0x0 REVERT JUMPDEST PUSH1 0x4 DUP2 LT PUSH2 0x29A6 JUMPI PUSH2 0x29A5 PUSH2 0x2966 JUMP JUMPDEST JUMPDEST POP JUMP JUMPDEST PUSH1 0x0 DUP2 SWAP1 POP PUSH2 0x29B7 DUP3 PUSH2 0x2995 JUMP JUMPDEST SWAP2 SWAP1 POP JUMP JUMPDEST PUSH1 0x0 PUSH2 0x29C7 DUP3 PUSH2 0x29A9 JUMP JUMPDEST SWAP1 POP SWAP2 SWAP1 POP JUMP JUMPDEST PUSH2 0x29D7 DUP2 PUSH2 0x29BC JUMP JUMPDEST DUP3 MSTORE POP POP JUMP JUMPDEST PUSH2 0x29E6 DUP2 PUSH2 0x2899 JUMP JUMPDEST DUP3 MSTORE POP POP JUMP JUMPDEST PUSH2 0x100 DUP3 ADD PUSH1 0x0 DUP3 ADD MLOAD PUSH2 0x2A03 PUSH1 0x0 DUP6 ADD DUP3 PUSH2 0x293E JUMP JUMPDEST POP PUSH1 0x20 DUP3 ADD MLOAD PUSH2 0x2A16 PUSH1 0x20 DUP6 ADD DUP3 PUSH2 0x2957 JUMP JUMPDEST POP PUSH1 0x40 DUP3 ADD MLOAD PUSH2 0x2A29 PUSH1 0x40 DUP6 ADD DUP3 PUSH2 0x2957 JUMP JUMPDEST POP PUSH1 0x60 DUP3 ADD MLOAD PUSH2 0x2A3C PUSH1 0x60 DUP6 ADD DUP3 PUSH2 0x293E JUMP JUMPDEST POP PUSH1 0x80 DUP3 ADD MLOAD PUSH2 0x2A4F PUSH1 0x80 DUP6 ADD DUP3 PUSH2 0x29CE JUMP JUMPDEST POP PUSH1 0xA0 DUP3 ADD MLOAD PUSH2 0x2A62 PUSH1 0xA0 DUP6 ADD DUP3 PUSH2 0x29DD JUMP JUMPDEST POP PUSH1 0xC0 DUP3 ADD MLOAD PUSH2 0x2A75 PUSH1 0xC0 DUP6 ADD DUP3 PUSH2 0x293E JUMP JUMPDEST POP PUSH1 0xE0 DUP3 ADD MLOAD PUSH2 0x2A88 PUSH1 0xE0 DUP6 ADD DUP3 PUSH2 0x293E JUMP JUMPDEST POP POP POP POP JUMP JUMPDEST PUSH1 0x0 PUSH2 0x100 DUP3 ADD SWAP1 POP PUSH2 0x2AA4 PUSH1 0x0 DUP4 ADD DUP5 PUSH2 0x29EC JUMP JUMPDEST SWAP3 SWAP2 POP POP JUMP JUMPDEST PUSH1 0x0 PUSH20 0xFFFFFFFFFFFFFFFFFFFFFFFFFFFFFFFFFFFFFFFF DUP3 AND SWAP1 POP SWAP2 SWAP1 POP JUMP JUMPDEST PUSH1 0x0 PUSH2 0x2AD5 DUP3 PUSH2 0x2AAA JUMP JUMPDEST SWAP1 POP SWAP2 SWAP1 POP JUMP JUMPDEST PUSH2 0x2AE5 DUP2 PUSH2 0x2ACA JUMP JUMPDEST DUP2 EQ PUSH2 0x2AF0 JUMPI PUSH1 0x0 DUP1 REVERT JUMPDEST POP JUMP JUMPDEST PUSH1 0x0 DUP2 CALLDATALOAD SWAP1 POP PUSH2 0x2B02 DUP2 PUSH2 0x2ADC JUMP JUMPDEST SWAP3 SWAP2 POP POP JUMP JUMPDEST PUSH1 0x0 DUP1 PUSH1 0x40 DUP4 DUP6 SUB SLT ISZERO PUSH2 0x2B1F JUMPI PUSH2 0x2B1E PUSH2 0x2859 JUMP JUMPDEST JUMPDEST PUSH1 0x0 PUSH2 0x2B2D DUP6 DUP3 DUP7 ADD PUSH2 0x2AF3 JUMP JUMPDEST SWAP3 POP POP PUSH1 0x20 PUSH2 0x2B3E DUP6 DUP3 DUP7 ADD PUSH2 0x2884 JUMP JUMPDEST SWAP2 POP POP SWAP3 POP SWAP3 SWAP1 POP JUMP JUMPDEST PUSH2 0x2B51 DUP2 PUSH2 0x2863 JUMP JUMPDEST DUP3 MSTORE POP POP JUMP JUMPDEST PUSH1 0x0 PUSH1 0x20 DUP3 ADD SWAP1 POP PUSH2 0x2B6C PUSH1 0x0 DUP4 ADD DUP5 PUSH2 0x2B48 JUMP JUMPDEST SWAP3 SWAP2 POP POP JUMP JUMPDEST PUSH2 0x2B7B DUP2 PUSH2 0x2ACA JUMP JUMPDEST DUP3 MSTORE POP POP JUMP JUMPDEST PUSH1 0x0 DUP2 MLOAD SWAP1 POP SWAP2 SWAP1 POP JUMP JUMPDEST PUSH1 0x0 DUP3 DUP3 MSTORE PUSH1 0x20 DUP3 ADD SWAP1 POP SWAP3 SWAP2 POP POP JUMP JUMPDEST PUSH1 0x0 JUMPDEST DUP4 DUP2 LT ISZERO PUSH2 0x2BBB JUMPI DUP1 DUP3 ADD MLOAD DUP2 DUP5 ADD MSTORE PUSH1 0x20 DUP2 ADD SWAP1 POP PUSH2 0x2BA0 JUMP JUMPDEST PUSH1 0x0 DUP5 DUP5 ADD MSTORE POP POP POP POP JUMP JUMPDEST PUSH1 0x0 PUSH1 0x1F NOT PUSH1 0x1F DUP4 ADD AND SWAP1 POP SWAP2 SWAP1 POP JUMP JUMPDEST PUSH1 0x0 PUSH2 0x2BE3 DUP3 PUSH2 0x2B81 JUMP JUMPDEST PUSH2 0x2BED DUP2 DUP6 PUSH2 0x2B8C JUMP JUMPDEST SWAP4 POP PUSH2 0x2BFD DUP2 DUP6 PUSH1 0x20 DUP7 ADD PUSH2 0x2B9D JUMP JUMPDEST PUSH2 0x2C06 DUP2 PUSH2 0x2BC7 JUMP JUMPDEST DUP5 ADD SWAP2 POP POP SWAP3 SWAP2 POP POP JUMP JUMPDEST PUSH1 0x4 DUP2 LT PUSH2 0x2C22 JUMPI PUSH2 0x2C21 PUSH2 0x2966 JUMP JUMPDEST JUMPDEST POP JUMP JUMPDEST PUSH1 0x0 DUP2 SWAP1 POP PUSH2 0x2C33 DUP3 PUSH2 0x2C11 JUMP JUMPDEST SWAP2 SWAP1 POP JUMP JUMPDEST PUSH1 0x0 PUSH2 0x2C43 DUP3 PUSH2 0x2C25 JUMP JUMPDEST SWAP1 POP SWAP2 SWAP1 POP JUMP JUMPDEST PUSH2 0x2C53 DUP2 PUSH2 0x2C38 JUMP JUMPDEST DUP3 MSTORE POP POP JUMP JUMPDEST PUSH1 0x0 PUSH2 0x160 DUP4 ADD PUSH1 0x0 DUP4 ADD MLOAD PUSH2 0x2C72 PUSH1 0x0 DUP7 ADD DUP3 PUSH2 0x293E JUMP JUMPDEST POP PUSH1 0x20 DUP4 ADD MLOAD PUSH2 0x2C85 PUSH1 0x20 DUP7 ADD DUP3 PUSH2 0x2B72 JUMP JUMPDEST POP PUSH1 0x40 DUP4 ADD MLOAD PUSH2 0x2C98 PUSH1 0x40 DUP7 ADD DUP3 PUSH2 0x293E JUMP JUMPDEST POP PUSH1 0x60 DUP4 ADD MLOAD DUP5 DUP3 SUB PUSH1 0x60 DUP7 ADD MSTORE PUSH2 0x2CB0 DUP3 DUP3 PUSH2 0x2BD8 JUMP JUMPDEST SWAP2 POP POP PUSH1 0x80 DUP4 ADD MLOAD DUP5 DUP3 SUB PUSH1 0x80 DUP7 ADD MSTORE PUSH2 0x2CCA DUP3 DUP3 PUSH2 0x2BD8 JUMP JUMPDEST SWAP2 POP POP PUSH1 0xA0 DUP4 ADD MLOAD PUSH2 0x2CDF PUSH1 0xA0 DUP7 ADD DUP3 PUSH2 0x2C4A JUMP JUMPDEST POP PUSH1 0xC0 DUP4 ADD MLOAD PUSH2 0x2CF2 PUSH1 0xC0 DUP7 ADD DUP3 PUSH2 0x293E JUMP JUMPDEST POP PUSH1 0xE0 DUP4 ADD MLOAD PUSH2 0x2D05 PUSH1 0xE0 DUP7 ADD DUP3 PUSH2 0x293E JUMP JUMPDEST POP PUSH2 0x100 DUP4 ADD MLOAD PUSH2 0x2D1A PUSH2 0x100 DUP7 ADD DUP3 PUSH2 0x29DD JUMP JUMPDEST POP PUSH2 0x120 DUP4 ADD MLOAD PUSH2 0x2D2F PUSH2 0x120 DUP7 ADD DUP3 PUSH2 0x293E JUMP JUMPDEST POP PUSH2 0x140 DUP4 ADD MLOAD PUSH2 0x2D44 PUSH2 0x140 DUP7 ADD DUP3 PUSH2 0x29CE JUMP JUMPDEST POP DUP1 SWAP2 POP POP SWAP3 SWAP2 POP POP JUMP JUMPDEST PUSH1 0x0 PUSH1 0x20 DUP3 ADD SWAP1 POP DUP2 DUP2 SUB PUSH1 0x0 DUP4 ADD MSTORE PUSH2 0x2D69 DUP2 DUP5 PUSH2 0x2C59 JUMP JUMPDEST SWAP1 POP SWAP3 SWAP2 POP POP JUMP JUMPDEST PUSH1 0x4 DUP2 LT PUSH2 0x2D7E JUMPI PUSH1 0x0 DUP1 REVERT JUMPDEST POP JUMP JUMPDEST PUSH1 0x0 DUP2 CALLDATALOAD SWAP1 POP PUSH2 0x2D90 DUP2 PUSH2 0x2D71 JUMP JUMPDEST SWAP3 SWAP2 POP POP JUMP JUMPDEST PUSH1 0x0 PUSH1 0x20 DUP3 DUP5 SUB SLT ISZERO PUSH2 0x2DAC JUMPI PUSH2 0x2DAB PUSH2 0x2859 JUMP JUMPDEST JUMPDEST PUSH1 0x0 PUSH2 0x2DBA DUP5 DUP3 DUP6 ADD PUSH2 0x2D81 JUMP JUMPDEST SWAP2 POP POP SWAP3 SWAP2 POP POP JUMP JUMPDEST PUSH2 0x2DCC DUP2 PUSH2 0x2899 JUMP JUMPDEST DUP3 MSTORE POP POP JUMP JUMPDEST PUSH1 0x0 PUSH1 0x20 DUP3 ADD SWAP1 POP PUSH2 0x2DE7 PUSH1 0x0 DUP4 ADD DUP5 PUSH2 0x2DC3 JUMP JUMPDEST SWAP3 SWAP2 POP POP JUMP JUMPDEST PUSH2 0x2DF6 DUP2 PUSH2 0x2ACA JUMP JUMPDEST DUP3 MSTORE POP POP JUMP JUMPDEST PUSH1 0x0 PUSH1 0x20 DUP3 ADD SWAP1 POP PUSH2 0x2E11 PUSH1 0x0 DUP4 ADD DUP5 PUSH2 0x2DED JUMP JUMPDEST SWAP3 SWAP2 POP POP JUMP JUMPDEST PUSH2 0x2E20 DUP2 PUSH2 0x294D JUMP JUMPDEST DUP3 MSTORE POP POP JUMP JUMPDEST PUSH2 0x2E2F DUP2 PUSH2 0x29BC JUMP JUMPDEST DUP3 MSTORE POP POP JUMP JUMPDEST PUSH1 0x0 PUSH2 0x100 DUP3 ADD SWAP1 POP PUSH2 0x2E4B PUSH1 0x0 DUP4 ADD DUP12 PUSH2 0x2B48 JUMP JUMPDEST PUSH2 0x2E58 PUSH1 0x20 DUP4 ADD DUP11 PUSH2 0x2E17 JUMP JUMPDEST PUSH2 0x2E65 PUSH1 0x40 DUP4 ADD DUP10 PUSH2 0x2E17 JUMP JUMPDEST PUSH2 0x2E72 PUSH1 0x60 DUP4 ADD DUP9 PUSH2 0x2B48 JUMP JUMPDEST PUSH2 0x2E7F PUSH1 0x80 DUP4 ADD DUP8 PUSH2 0x2E26 JUMP JUMPDEST PUSH2 0x2E8C PUSH1 0xA0 DUP4 ADD DUP7 PUSH2 0x2DC3 JUMP JUMPDEST PUSH2 0x2E99 PUSH1 0xC0 DUP4 ADD DUP6 PUSH2 0x2B48 JUMP JUMPDEST PUSH2 0x2EA6 PUSH1 0xE0 DUP4 ADD DUP5 PUSH2 0x2B48 JUMP JUMPDEST SWAP10 SWAP9 POP POP POP POP POP POP POP POP POP JUMP JUMPDEST PUSH1 0x0 DUP1 REVERT JUMPDEST PUSH1 0x0 DUP1 REVERT JUMPDEST PUSH32 0x4E487B7100000000000000000000000000000000000000000000000000000000 PUSH1 0x0 MSTORE PUSH1 0x41 PUSH1 0x4 MSTORE PUSH1 0x24 PUSH1 0x0 REVERT JUMPDEST PUSH2 0x2EF5 DUP3 PUSH2 0x2BC7 JUMP JUMPDEST DUP2 ADD DUP2 DUP2 LT PUSH8 0xFFFFFFFFFFFFFFFF DUP3 GT OR ISZERO PUSH2 0x2F14 JUMPI PUSH2 0x2F13 PUSH2 0x2EBD JUMP JUMPDEST JUMPDEST DUP1 PUSH1 0x40 MSTORE POP POP POP JUMP JUMPDEST PUSH1 0x0 PUSH2 0x2F27 PUSH2 0x284F JUMP JUMPDEST SWAP1 POP PUSH2 0x2F33 DUP3 DUP3 PUSH2 0x2EEC JUMP JUMPDEST SWAP2 SWAP1 POP JUMP JUMPDEST PUSH1 0x0 PUSH8 0xFFFFFFFFFFFFFFFF DUP3 GT ISZERO PUSH2 0x2F53 JUMPI PUSH2 0x2F52 PUSH2 0x2EBD JUMP JUMPDEST JUMPDEST PUSH2 0x2F5C DUP3 PUSH2 0x2BC7 JUMP JUMPDEST SWAP1 POP PUSH1 0x20 DUP2 ADD SWAP1 POP SWAP2 SWAP1 POP JUMP JUMPDEST DUP3 DUP2 DUP4 CALLDATACOPY PUSH1 0x0 DUP4 DUP4 ADD MSTORE POP POP POP JUMP JUMPDEST PUSH1 0x0 PUSH2 0x2F8B PUSH2 0x2F86 DUP5 PUSH2 0x2F38 JUMP JUMPDEST PUSH2 0x2F1D JUMP JUMPDEST SWAP1 POP DUP3 DUP2 MSTORE PUSH1 0x20 DUP2 ADD DUP5 DUP5 DUP5 ADD GT ISZERO PUSH2 0x2FA7 JUMPI PUSH2 0x2FA6 PUSH2 0x2EB8 JUMP JUMPDEST JUMPDEST PUSH2 0x2FB2 DUP5 DUP3 DUP6 PUSH2 0x2F69 JUMP JUMPDEST POP SWAP4 SWAP3 POP POP POP JUMP JUMPDEST PUSH1 0x0 DUP3 PUSH1 0x1F DUP4 ADD SLT PUSH2 0x2FCF JUMPI PUSH2 0x2FCE PUSH2 0x2EB3 JUMP JUMPDEST JUMPDEST DUP2 CALLDATALOAD PUSH2 0x2FDF DUP5 DUP3 PUSH1 0x20 DUP7 ADD PUSH2 0x2F78 JUMP JUMPDEST SWAP2 POP POP SWAP3 SWAP2 POP POP JUMP JUMPDEST PUSH1 0x0 DUP1 PUSH1 0x0 PUSH1 0x60 DUP5 DUP7 SUB SLT ISZERO PUSH2 0x3001 JUMPI PUSH2 0x3000 PUSH2 0x2859 JUMP JUMPDEST JUMPDEST PUSH1 0x0 PUSH2 0x300F DUP7 DUP3 DUP8 ADD PUSH2 0x2884 JUMP JUMPDEST SWAP4 POP POP PUSH1 0x20 DUP5 ADD CALLDATALOAD PUSH8 0xFFFFFFFFFFFFFFFF DUP2 GT ISZERO PUSH2 0x3030 JUMPI PUSH2 0x302F PUSH2 0x285E JUMP JUMPDEST JUMPDEST PUSH2 0x303C DUP7 DUP3 DUP8 ADD PUSH2 0x2FBA JUMP JUMPDEST SWAP3 POP POP PUSH1 0x40 PUSH2 0x304D DUP7 DUP3 DUP8 ADD PUSH2 0x28BC JUMP JUMPDEST SWAP2 POP POP SWAP3 POP SWAP3 POP SWAP3 JUMP JUMPDEST PUSH1 0x0 DUP3 DUP3 MSTORE PUSH1 0x20 DUP3 ADD SWAP1 POP SWAP3 SWAP2 POP POP JUMP JUMPDEST PUSH1 0x0 PUSH2 0x3073 DUP3 PUSH2 0x2B81 JUMP JUMPDEST PUSH2 0x307D DUP2 DUP6 PUSH2 0x3057 JUMP JUMPDEST SWAP4 POP PUSH2 0x308D DUP2 DUP6 PUSH1 0x20 DUP7 ADD PUSH2 0x2B9D JUMP JUMPDEST PUSH2 0x3096 DUP2 PUSH2 0x2BC7 JUMP JUMPDEST DUP5 ADD SWAP2 POP POP SWAP3 SWAP2 POP POP JUMP JUMPDEST PUSH2 0x30AA DUP2 PUSH2 0x2C38 JUMP JUMPDEST DUP3 MSTORE POP POP JUMP JUMPDEST PUSH1 0x0 PUSH2 0x160 DUP3 ADD SWAP1 POP PUSH2 0x30C6 PUSH1 0x0 DUP4 ADD DUP15 PUSH2 0x2B48 JUMP JUMPDEST PUSH2 0x30D3 PUSH1 0x20 DUP4 ADD DUP14 PUSH2 0x2DED JUMP JUMPDEST PUSH2 0x30E0 PUSH1 0x40 DUP4 ADD DUP13 PUSH2 0x2B48 JUMP JUMPDEST DUP2 DUP2 SUB PUSH1 0x60 DUP4 ADD MSTORE PUSH2 0x30F2 DUP2 DUP12 PUSH2 0x3068 JUMP JUMPDEST SWAP1 POP DUP2 DUP2 SUB PUSH1 0x80 DUP4 ADD MSTORE PUSH2 0x3106 DUP2 DUP11 PUSH2 0x3068 JUMP JUMPDEST SWAP1 POP PUSH2 0x3115 PUSH1 0xA0 DUP4 ADD DUP10 PUSH2 0x30A1 JUMP JUMPDEST PUSH2 0x3122 PUSH1 0xC0 DUP4 ADD DUP9 PUSH2 0x2B48 JUMP JUMPDEST PUSH2 0x312F PUSH1 0xE0 DUP4 ADD DUP8 PUSH2 0x2B48 JUMP JUMPDEST PUSH2 0x313D PUSH2 0x100 DUP4 ADD DUP7 PUSH2 0x2DC3 JUMP JUMPDEST PUSH2 0x314B PUSH2 0x120 DUP4 ADD DUP6 PUSH2 0x2B48 JUMP JUMPDEST PUSH2 0x3159 PUSH2 0x140 DUP4 ADD DUP5 PUSH2 0x2E26 JUMP JUMPDEST SWAP13 SWAP12 POP POP POP POP POP POP POP POP POP POP POP POP JUMP JUMPDEST PUSH1 0x0 PUSH1 0x20 DUP3 DUP5 SUB SLT ISZERO PUSH2 0x317F JUMPI PUSH2 0x317E PUSH2 0x2859 JUMP JUMPDEST JUMPDEST PUSH1 0x0 PUSH2 0x318D DUP5 DUP3 DUP6 ADD PUSH2 0x2AF3 JUMP JUMPDEST SWAP2 POP POP SWAP3 SWAP2 POP POP JUMP JUMPDEST PUSH1 0x0 DUP2 MLOAD SWAP1 POP SWAP2 SWAP1 POP JUMP JUMPDEST PUSH1 0x0 DUP3 DUP3 MSTORE PUSH1 0x20 DUP3 ADD SWAP1 POP SWAP3 SWAP2 POP POP JUMP JUMPDEST PUSH1 0x0 DUP2 SWAP1 POP PUSH1 0x20 DUP3 ADD SWAP1 POP SWAP2 SWAP1 POP JUMP JUMPDEST PUSH1 0x0 PUSH2 0x31CE DUP4 DUP4 PUSH2 0x293E JUMP JUMPDEST PUSH1 0x20 DUP4 ADD SWAP1 POP SWAP3 SWAP2 POP POP JUMP JUMPDEST PUSH1 0x0 PUSH1 0x20 DUP3 ADD SWAP1 POP SWAP2 SWAP1 POP JUMP JUMPDEST PUSH1 0x0 PUSH2 0x31F2 DUP3 PUSH2 0x3196 JUMP JUMPDEST PUSH2 0x31FC DUP2 DUP6 PUSH2 0x31A1 JUMP JUMPDEST SWAP4 POP PUSH2 0x3207 DUP4 PUSH2 0x31B2 JUMP JUMPDEST DUP1 PUSH1 0x0 JUMPDEST DUP4 DUP2 LT ISZERO PUSH2 0x3238 JUMPI DUP2 MLOAD PUSH2 0x321F DUP9 DUP3 PUSH2 0x31C2 JUMP JUMPDEST SWAP8 POP PUSH2 0x322A DUP4 PUSH2 0x31DA JUMP JUMPDEST SWAP3 POP POP PUSH1 0x1 DUP2 ADD SWAP1 POP PUSH2 0x320B JUMP JUMPDEST POP DUP6 SWAP4 POP POP POP POP SWAP3 SWAP2 POP POP JUMP JUMPDEST PUSH1 0x0 PUSH1 0x20 DUP3 ADD SWAP1 POP DUP2 DUP2 SUB PUSH1 0x0 DUP4 ADD MSTORE PUSH2 0x325F DUP2 DUP5 PUSH2 0x31E7 JUMP JUMPDEST SWAP1 POP SWAP3 SWAP2 POP POP JUMP JUMPDEST PUSH1 0x0 DUP1 PUSH1 0x0 DUP1 PUSH1 0x0 PUSH1 0xA0 DUP7 DUP9 SUB SLT ISZERO PUSH2 0x3283 JUMPI PUSH2 0x3282 PUSH2 0x2859 JUMP JUMPDEST JUMPDEST PUSH1 0x0 PUSH2 0x3291 DUP9 DUP3 DUP10 ADD PUSH2 0x2884 JUMP JUMPDEST SWAP6 POP POP PUSH1 0x20 PUSH2 0x32A2 DUP9 DUP3 DUP10 ADD PUSH2 0x2884 JUMP JUMPDEST SWAP5 POP POP PUSH1 0x40 PUSH2 0x32B3 DUP9 DUP3 DUP10 ADD PUSH2 0x2884 JUMP JUMPDEST SWAP4 POP POP PUSH1 0x60 PUSH2 0x32C4 DUP9 DUP3 DUP10 ADD PUSH2 0x2884 JUMP JUMPDEST SWAP3 POP POP PUSH1 0x80 PUSH2 0x32D5 DUP9 DUP3 DUP10 ADD PUSH2 0x2AF3 JUMP JUMPDEST SWAP2 POP POP SWAP3 SWAP6 POP SWAP3 SWAP6 SWAP1 SWAP4 POP JUMP JUMPDEST PUSH1 0x0 DUP1 PUSH1 0x40 DUP4 DUP6 SUB SLT ISZERO PUSH2 0x32F9 JUMPI PUSH2 0x32F8 PUSH2 0x2859 JUMP JUMPDEST JUMPDEST PUSH1 0x0 PUSH2 0x3307 DUP6 DUP3 DUP7 ADD PUSH2 0x2AF3 JUMP JUMPDEST SWAP3 POP POP PUSH1 0x20 PUSH2 0x3318 DUP6 DUP3 DUP7 ADD PUSH2 0x28BC JUMP JUMPDEST SWAP2 POP POP SWAP3 POP SWAP3 SWAP1 POP JUMP JUMPDEST PUSH1 0x0 PUSH1 0x80 DUP3 ADD SWAP1 POP PUSH2 0x3337 PUSH1 0x0 DUP4 ADD DUP8 PUSH2 0x2B48 JUMP JUMPDEST PUSH2 0x3344 PUSH1 0x20 DUP4 ADD DUP7 PUSH2 0x2B48 JUMP JUMPDEST PUSH2 0x3351 PUSH1 0x40 DUP4 ADD DUP6 PUSH2 0x2DC3 JUMP JUMPDEST PUSH2 0x335E PUSH1 0x60 DUP4 ADD DUP5 PUSH2 0x2B48 JUMP JUMPDEST SWAP6 SWAP5 POP POP POP POP POP JUMP JUMPDEST PUSH1 0x0 DUP1 PUSH1 0x40 DUP4 DUP6 SUB SLT ISZERO PUSH2 0x337E JUMPI PUSH2 0x337D PUSH2 0x2859 JUMP JUMPDEST JUMPDEST PUSH1 0x0 PUSH2 0x338C DUP6 DUP3 DUP7 ADD PUSH2 0x2884 JUMP JUMPDEST SWAP3 POP POP PUSH1 0x20 DUP4 ADD CALLDATALOAD PUSH8 0xFFFFFFFFFFFFFFFF DUP2 GT ISZERO PUSH2 0x33AD JUMPI PUSH2 0x33AC PUSH2 0x285E JUMP JUMPDEST JUMPDEST PUSH2 0x33B9 DUP6 DUP3 DUP7 ADD PUSH2 0x2FBA JUMP JUMPDEST SWAP2 POP POP SWAP3 POP SWAP3 SWAP1 POP JUMP JUMPDEST PUSH1 0x0 PUSH1 0xE0 DUP3 ADD SWAP1 POP PUSH2 0x33D8 PUSH1 0x0 DUP4 ADD DUP11 PUSH2 0x2B48 JUMP JUMPDEST PUSH2 0x33E5 PUSH1 0x20 DUP4 ADD DUP10 PUSH2 0x2B48 JUMP JUMPDEST PUSH2 0x33F2 PUSH1 0x40 DUP4 ADD DUP9 PUSH2 0x2B48 JUMP JUMPDEST PUSH2 0x33FF PUSH1 0x60 DUP4 ADD DUP8 PUSH2 0x2B48 JUMP JUMPDEST PUSH2 0x340C PUSH1 0x80 DUP4 ADD DUP7 PUSH2 0x2B48 JUMP JUMPDEST PUSH2 0x3419 PUSH1 0xA0 DUP4 ADD DUP6 PUSH2 0x2B48 JUMP JUMPDEST PUSH2 0x3426 PUSH1 0xC0 DUP4 ADD DUP5 PUSH2 0x2B48 JUMP JUMPDEST SWAP9 SWAP8 POP POP POP POP POP POP POP POP JUMP JUMPDEST PUSH2 0x343B DUP2 PUSH2 0x294D JUMP JUMPDEST DUP2 EQ PUSH2 0x3446 JUMPI PUSH1 0x0 DUP1 REVERT JUMPDEST POP JUMP JUMPDEST PUSH1 0x0 DUP2 CALLDATALOAD SWAP1 POP PUSH2 0x3458 DUP2 PUSH2 0x3432 JUMP JUMPDEST SWAP3 SWAP2 POP POP JUMP JUMPDEST PUSH1 0x0 DUP1 PUSH1 0x0 DUP1 PUSH1 0x0 PUSH1 0xA0 DUP7 DUP9 SUB SLT ISZERO PUSH2 0x347A JUMPI PUSH2 0x3479 PUSH2 0x2859 JUMP JUMPDEST JUMPDEST PUSH1 0x0 PUSH2 0x3488 DUP9 DUP3 DUP10 ADD PUSH2 0x2884 JUMP JUMPDEST SWAP6 POP POP PUSH1 0x20 PUSH2 0x3499 DUP9 DUP3 DUP10 ADD PUSH2 0x3449 JUMP JUMPDEST SWAP5 POP POP PUSH1 0x40 PUSH2 0x34AA DUP9 DUP3 DUP10 ADD PUSH2 0x3449 JUMP JUMPDEST SWAP4 POP POP PUSH1 0x60 PUSH2 0x34BB DUP9 DUP3 DUP10 ADD PUSH2 0x2884 JUMP JUMPDEST SWAP3 POP POP PUSH1 0x80 PUSH2 0x34CC DUP9 DUP3 DUP10 ADD PUSH2 0x2D81 JUMP JUMPDEST SWAP2 POP POP SWAP3 SWAP6 POP SWAP3 SWAP6 SWAP1 SWAP4 POP JUMP JUMPDEST PUSH32 0x5374617220646F6573206E6F7420657869737400000000000000000000000000 PUSH1 0x0 DUP3 ADD MSTORE POP JUMP JUMPDEST PUSH1 0x0 PUSH2 0x350F PUSH1 0x13 DUP4 PUSH2 0x3057 JUMP JUMPDEST SWAP2 POP PUSH2 0x351A DUP3 PUSH2 0x34D9 JUMP JUMPDEST PUSH1 0x20 DUP3 ADD SWAP1 POP SWAP2 SWAP1 POP JUMP JUMPDEST PUSH1 0x0 PUSH1 0x20 DUP3 ADD SWAP1 POP DUP2 DUP2 SUB PUSH1 0x0 DUP4 ADD MSTORE PUSH2 0x353E DUP2 PUSH2 0x3502 JUMP JUMPDEST SWAP1 POP SWAP2 SWAP1 POP JUMP JUMPDEST PUSH32 0x496E76616C6964207374616B6520616D6F756E74000000000000000000000000 PUSH1 0x0 DUP3 ADD MSTORE POP JUMP JUMPDEST PUSH1 0x0 PUSH2 0x357B PUSH1 0x14 DUP4 PUSH2 0x3057 JUMP JUMPDEST SWAP2 POP PUSH2 0x3586 DUP3 PUSH2 0x3545 JUMP JUMPDEST PUSH1 0x20 DUP3 ADD SWAP1 POP SWAP2 SWAP1 POP JUMP JUMPDEST PUSH1 0x0 PUSH1 0x20 DUP3 ADD SWAP1 POP DUP2 DUP2 SUB PUSH1 0x0 DUP4 ADD MSTORE PUSH2 0x35AA DUP2 PUSH2 0x356E JUMP JUMPDEST SWAP1 POP SWAP2 SWAP1 POP JUMP JUMPDEST PUSH32 0x53746172206E6F74206163746976650000000000000000000000000000000000 PUSH1 0x0 DUP3 ADD MSTORE POP JUMP JUMPDEST PUSH1 0x0 PUSH2 0x35E7 PUSH1 0xF DUP4 PUSH2 0x3057 JUMP JUMPDEST SWAP2 POP PUSH2 0x35F2 DUP3 PUSH2 0x35B1 JUMP JUMPDEST PUSH1 0x20 DUP3 ADD SWAP1 POP SWAP2 SWAP1 POP JUMP JUMPDEST PUSH1 0x0 PUSH1 0x20 DUP3 ADD SWAP1 POP DUP2 DUP2 SUB PUSH1 0x0 DUP4 ADD MSTORE PUSH2 0x3616 DUP2 PUSH2 0x35DA JUMP JUMPDEST SWAP1 POP SWAP2 SWAP1 POP JUMP JUMPDEST PUSH32 0x416C7265616479206861766520616374697665207374616B6500000000000000 PUSH1 0x0 DUP3 ADD MSTORE POP JUMP JUMPDEST PUSH1 0x0 PUSH2 0x3653 PUSH1 0x19 DUP4 PUSH2 0x3057 JUMP JUMPDEST SWAP2 POP PUSH2 0x365E DUP3 PUSH2 0x361D JUMP JUMPDEST PUSH1 0x20 DUP3 ADD SWAP1 POP SWAP2 SWAP1 POP JUMP JUMPDEST PUSH1 0x0 PUSH1 0x20 DUP3 ADD SWAP1 POP DUP2 DUP2 SUB PUSH1 0x0 DUP4 ADD MSTORE PUSH2 0x3682 DUP2 PUSH2 0x3646 JUMP JUMPDEST SWAP1 POP SWAP2 SWAP1 POP JUMP JUMPDEST PUSH32 0x4E487B7100000000000000000000000000000000000000000000000000000000 PUSH1 0x0 MSTORE PUSH1 0x22 PUSH1 0x4 MSTORE PUSH1 0x24 PUSH1 0x0 REVERT JUMPDEST PUSH1 0x0 PUSH1 0x2 DUP3 DIV SWAP1 POP PUSH1 0x1 DUP3 AND DUP1 PUSH2 0x36D0 JUMPI PUSH1 0x7F DUP3 AND SWAP2 POP JUMPDEST PUSH1 0x20 DUP3 LT DUP2 SUB PUSH2 0x36E3 JUMPI PUSH2 0x36E2 PUSH2 0x3689 JUMP JUMPDEST JUMPDEST POP SWAP2 SWAP1 POP JUMP JUMPDEST PUSH1 0x0 DUP2 SWAP1 POP DUP2 PUSH1 0x0 MSTORE PUSH1 0x20 PUSH1 0x0 KECCAK256 SWAP1 POP SWAP2 SWAP1 POP JUMP JUMPDEST PUSH1 0x0 PUSH1 0x20 PUSH1 0x1F DUP4 ADD DIV SWAP1 POP SWAP2 SWAP1 POP JUMP JUMPDEST PUSH1 0x0 DUP3 DUP3 SHL SWAP1 POP SWAP3 SWAP2 POP POP JUMP JUMPDEST PUSH1 0x0 PUSH1 0x8 DUP4 MUL PUSH2 0x374B PUSH32 0xFFFFFFFFFFFFFFFFFFFFFFFFFFFFFFFFFFFFFFFFFFFFFFFFFFFFFFFFFFFFFFFF DUP3 PUSH2 0x370E JUMP JUMPDEST PUSH2 0x3755 DUP7 DUP4 PUSH2 0x370E JUMP JUMPDEST SWAP6 POP DUP1 NOT DUP5 AND SWAP4 POP DUP1 DUP7 AND DUP5 OR SWAP3 POP POP POP SWAP4 SWAP3 POP POP POP JUMP JUMPDEST PUSH1 0x0 DUP2 SWAP1 POP SWAP2 SWAP1 POP JUMP JUMPDEST PUSH1 0x0 PUSH2 0x3792 PUSH2 0x378D PUSH2 0x3788 DUP5 PUSH2 0x2863 JUMP JUMPDEST PUSH2 0x376D JUMP JUMPDEST PUSH2 0x2863 JUMP JUMPDEST SWAP1 POP SWAP2 SWAP1 POP JUMP JUMPDEST PUSH1 0x0 DUP2 SWAP1 POP SWAP2 SWAP1 POP JUMP JUMPDEST PUSH2 0x37AC DUP4 PUSH2 0x3777 JUMP JUMPDEST PUSH2 0x37C0 PUSH2 0x37B8 DUP3 PUSH2 0x3799 JUMP JUMPDEST DUP5 DUP5 SLOAD PUSH2 0x371B JUMP JUMPDEST DUP3 SSTORE POP POP POP POP JUMP JUMPDEST PUSH1 0x0 SWAP1 JUMP JUMPDEST PUSH2 0x37D5 PUSH2 0x37C8 JUMP JUMPDEST PUSH2 0x37E0 DUP2 DUP5 DUP5 PUSH2 0x37A3 JUMP JUMPDEST POP POP POP JUMP JUMPDEST JUMPDEST DUP2 DUP2 LT ISZERO PUSH2 0x3804 JUMPI PUSH2 0x37F9 PUSH1 0x0 DUP3 PUSH2 0x37CD JUMP JUMPDEST PUSH1 0x1 DUP2 ADD SWAP1 POP PUSH2 0x37E6 JUMP JUMPDEST POP POP JUMP JUMPDEST PUSH1 0x1F DUP3 GT ISZERO PUSH2 0x3849 JUMPI PUSH2 0x381A DUP2 PUSH2 0x36E9 JUMP JUMPDEST PUSH2 0x3823 DUP5 PUSH2 0x36FE JUMP JUMPDEST DUP2 ADD PUSH1 0x20 DUP6 LT ISZERO PUSH2 0x3832 JUMPI DUP2 SWAP1 POP JUMPDEST PUSH2 0x3846 PUSH2 0x383E DUP6 PUSH2 0x36FE JUMP JUMPDEST DUP4 ADD DUP3 PUSH2 0x37E5 JUMP JUMPDEST POP POP JUMPDEST POP POP POP JUMP JUMPDEST PUSH1 0x0 DUP3 DUP3 SHR SWAP1 POP SWAP3 SWAP2 POP POP JUMP JUMPDEST PUSH1 0x0 PUSH2 0x386C PUSH1 0x0 NOT DUP5 PUSH1 0x8 MUL PUSH2 0x384E JUMP JUMPDEST NOT DUP1 DUP4 AND SWAP2 POP POP SWAP3 SWAP2 POP POP JUMP JUMPDEST PUSH1 0x0 PUSH2 0x3885 DUP4 DUP4 PUSH2 0x385B JUMP JUMPDEST SWAP2 POP DUP3 PUSH1 0x2 MUL DUP3 OR SWAP1 POP SWAP3 SWAP2 POP POP JUMP JUMPDEST PUSH2 0x389E DUP3 PUSH2 0x2B81 JUMP JUMPDEST PUSH8 0xFFFFFFFFFFFFFFFF DUP2 GT ISZERO PUSH2 0x38B7 JUMPI PUSH2 0x38B6 PUSH2 0x2EBD JUMP JUMPDEST JUMPDEST PUSH2 0x38C1 DUP3 SLOAD PUSH2 0x36B8 JUMP JUMPDEST PUSH2 0x38CC DUP3 DUP3 DUP6 PUSH2 0x3808 JUMP JUMPDEST PUSH1 0x0 PUSH1 0x20 SWAP1 POP PUSH1 0x1F DUP4 GT PUSH1 0x1 DUP2 EQ PUSH2 0x38FF JUMPI PUSH1 0x0 DUP5 ISZERO PUSH2 0x38ED JUMPI DUP3 DUP8 ADD MLOAD SWAP1 POP JUMPDEST PUSH2 0x38F7 DUP6 DUP3 PUSH2 0x3879 JUMP JUMPDEST DUP7 SSTORE POP PUSH2 0x395F JUMP JUMPDEST PUSH1 0x1F NOT DUP5 AND PUSH2 0x390D DUP7 PUSH2 0x36E9 JUMP JUMPDEST PUSH1 0x0 JUMPDEST DUP3 DUP2 LT ISZERO PUSH2 0x3935 JUMPI DUP5 DUP10 ADD MLOAD DUP3 SSTORE PUSH1 0x1 DUP3 ADD SWAP2 POP PUSH1 0x20 DUP6 ADD SWAP5 POP PUSH1 0x20 DUP2 ADD SWAP1 POP PUSH2 0x3910 JUMP JUMPDEST DUP7 DUP4 LT ISZERO PUSH2 0x3952 JUMPI DUP5 DUP10 ADD MLOAD PUSH2 0x394E PUSH1 0x1F DUP10 AND DUP3 PUSH2 0x385B JUMP JUMPDEST DUP4 SSTORE POP JUMPDEST PUSH1 0x1 PUSH1 0x2 DUP9 MUL ADD DUP9 SSTORE POP POP POP JUMPDEST POP POP POP POP POP POP JUMP JUMPDEST PUSH32 0x4E487B7100000000000000000000000000000000000000000000000000000000 PUSH1 0x0 MSTORE PUSH1 0x11 PUSH1 0x4 MSTORE PUSH1 0x24 PUSH1 0x0 REVERT JUMPDEST PUSH1 0x0 PUSH2 0x39A1 DUP3 PUSH2 0x2863 JUMP JUMPDEST SWAP2 POP PUSH2 0x39AC DUP4 PUSH2 0x2863 JUMP JUMPDEST SWAP3 POP DUP3 DUP3 ADD SWAP1 POP DUP1 DUP3 GT ISZERO PUSH2 0x39C4 JUMPI PUSH2 0x39C3 PUSH2 0x3967 JUMP JUMPDEST JUMPDEST SWAP3 SWAP2 POP POP JUMP JUMPDEST PUSH1 0x0 PUSH1 0x40 DUP3 ADD SWAP1 POP PUSH2 0x39DF PUSH1 0x0 DUP4 ADD DUP6 PUSH2 0x2B48 JUMP JUMPDEST PUSH2 0x39EC PUSH1 0x20 DUP4 ADD DUP5 PUSH2 0x2B48 JUMP JUMPDEST SWAP4 SWAP3 POP POP POP JUMP JUMPDEST PUSH32 0x4E6F7420617574686F72697A6564204149000000000000000000000000000000 PUSH1 0x0 DUP3 ADD MSTORE POP JUMP JUMPDEST PUSH1 0x0 PUSH2 0x3A29 PUSH1 0x11 DUP4 PUSH2 0x3057 JUMP JUMPDEST SWAP2 POP PUSH2 0x3A34 DUP3 PUSH2 0x39F3 JUMP JUMPDEST PUSH1 0x20 DUP3 ADD SWAP1 POP SWAP2 SWAP1 POP JUMP JUMPDEST PUSH1 0x0 PUSH1 0x20 DUP3 ADD SWAP1 POP DUP2 DUP2 SUB PUSH1 0x0 DUP4 ADD MSTORE PUSH2 0x3A58 DUP2 PUSH2 0x3A1C JUMP JUMPDEST SWAP1 POP SWAP2 SWAP1 POP JUMP JUMPDEST PUSH32 0x4368616C6C656E6765206E6F7420616374697665000000000000000000000000 PUSH1 0x0 DUP3 ADD MSTORE POP JUMP JUMPDEST PUSH1 0x0 PUSH2 0x3A95 PUSH1 0x14 DUP4 PUSH2 0x3057 JUMP JUMPDEST SWAP2 POP PUSH2 0x3AA0 DUP3 PUSH2 0x3A5F JUMP JUMPDEST PUSH1 0x20 DUP3 ADD SWAP1 POP SWAP2 SWAP1 POP JUMP JUMPDEST PUSH1 0x0 PUSH1 0x20 DUP3 ADD SWAP1 POP DUP2 DUP2 SUB PUSH1 0x0 DUP4 ADD MSTORE PUSH2 0x3AC4 DUP2 PUSH2 0x3A88 JUMP JUMPDEST SWAP1 POP SWAP2 SWAP1 POP JUMP JUMPDEST PUSH32 0x496E76616C6964207374616B6500000000000000000000000000000000000000 PUSH1 0x0 DUP3 ADD MSTORE POP JUMP JUMPDEST PUSH1 0x0 PUSH2 0x3B01 PUSH1 0xD DUP4 PUSH2 0x3057 JUMP JUMPDEST SWAP2 POP PUSH2 0x3B0C DUP3 PUSH2 0x3ACB JUMP JUMPDEST PUSH1 0x20 DUP3 ADD SWAP1 POP SWAP2 SWAP1 POP JUMP JUMPDEST PUSH1 0x0 PUSH1 0x20 DUP3 ADD SWAP1 POP DUP2 DUP2 SUB PUSH1 0x0 DUP4 ADD MSTORE PUSH2 0x3B30 DUP2 PUSH2 0x3AF4 JUMP JUMPDEST SWAP1 POP SWAP2 SWAP1 POP JUMP JUMPDEST PUSH1 0x0 PUSH2 0x3B42 DUP3 PUSH2 0x2863 JUMP JUMPDEST SWAP2 POP PUSH2 0x3B4D DUP4 PUSH2 0x2863 JUMP JUMPDEST SWAP3 POP DUP3 DUP3 MUL PUSH2 0x3B5B DUP2 PUSH2 0x2863 JUMP JUMPDEST SWAP2 POP DUP3 DUP3 DIV DUP5 EQ DUP4 ISZERO OR PUSH2 0x3B72 JUMPI PUSH2 0x3B71 PUSH2 0x3967 JUMP JUMPDEST JUMPDEST POP SWAP3 SWAP2 POP POP JUMP JUMPDEST PUSH32 0x4E487B7100000000000000000000000000000000000000000000000000000000 PUSH1 0x0 MSTORE PUSH1 0x12 PUSH1 0x4 MSTORE PUSH1 0x24 PUSH1 0x0 REVERT JUMPDEST PUSH1 0x0 PUSH2 0x3BB3 DUP3 PUSH2 0x2863 JUMP JUMPDEST SWAP2 POP PUSH2 0x3BBE DUP4 PUSH2 0x2863 JUMP JUMPDEST SWAP3 POP DUP3 PUSH2 0x3BCE JUMPI PUSH2 0x3BCD PUSH2 0x3B79 JUMP JUMPDEST JUMPDEST DUP3 DUP3 DIV SWAP1 POP SWAP3 SWAP2 POP POP JUMP JUMPDEST PUSH1 0x0 PUSH2 0x3BE4 DUP3 PUSH2 0x2863 JUMP JUMPDEST SWAP2 POP PUSH2 0x3BEF DUP4 PUSH2 0x2863 JUMP JUMPDEST SWAP3 POP DUP3 DUP3 SUB SWAP1 POP DUP2 DUP2 GT ISZERO PUSH2 0x3C07 JUMPI PUSH2 0x3C06 PUSH2 0x3967 JUMP JUMPDEST JUMPDEST SWAP3 SWAP2 POP POP JUMP JUMPDEST PUSH1 0x0 PUSH2 0x3C18 DUP3 PUSH2 0x2863 JUMP JUMPDEST SWAP2 POP PUSH32 0xFFFFFFFFFFFFFFFFFFFFFFFFFFFFFFFFFFFFFFFFFFFFFFFFFFFFFFFFFFFFFFFF DUP3 SUB PUSH2 0x3C4A JUMPI PUSH2 0x3C49 PUSH2 0x3967 JUMP JUMPDEST JUMPDEST PUSH1 0x1 DUP3 ADD SWAP1 POP SWAP2 SWAP1 POP JUMP JUMPDEST PUSH1 0x0 PUSH1 0x40 DUP3 ADD SWAP1 POP PUSH2 0x3C6A PUSH1 0x0 DUP4 ADD DUP6 PUSH2 0x2DC3 JUMP JUMPDEST PUSH2 0x3C77 PUSH1 0x20 DUP4 ADD DUP5 PUSH2 0x2B48 JUMP JUMPDEST SWAP4 SWAP3 POP POP POP JUMP JUMPDEST PUSH1 0x0 PUSH1 0x40 DUP3 ADD SWAP1 POP PUSH2 0x3C93 PUSH1 0x0 DUP4 ADD DUP6 PUSH2 0x2B48 JUMP JUMPDEST DUP2 DUP2 SUB PUSH1 0x20 DUP4 ADD MSTORE PUSH2 0x3CA5 DUP2 DUP5 PUSH2 0x3068 JUMP JUMPDEST SWAP1 POP SWAP4 SWAP3 POP POP POP JUMP JUMPDEST PUSH32 0x5374617220616C72656164792065786973747300000000000000000000000000 PUSH1 0x0 DUP3 ADD MSTORE POP JUMP JUMPDEST PUSH1 0x0 PUSH2 0x3CE4 PUSH1 0x13 DUP4 PUSH2 0x3057 JUMP JUMPDEST SWAP2 POP PUSH2 0x3CEF DUP3 PUSH2 0x3CAE JUMP JUMPDEST PUSH1 0x20 DUP3 ADD SWAP1 POP SWAP2 SWAP1 POP JUMP JUMPDEST PUSH1 0x0 PUSH1 0x20 DUP3 ADD SWAP1 POP DUP2 DUP2 SUB PUSH1 0x0 DUP4 ADD MSTORE PUSH2 0x3D13 DUP2 PUSH2 0x3CD7 JUMP JUMPDEST SWAP1 POP SWAP2 SWAP1 POP JUMP JUMPDEST PUSH1 0x0 PUSH1 0x60 DUP3 ADD SWAP1 POP PUSH2 0x3D2F PUSH1 0x0 DUP4 ADD DUP7 PUSH2 0x2E17 JUMP JUMPDEST PUSH2 0x3D3C PUSH1 0x20 DUP4 ADD DUP6 PUSH2 0x2E17 JUMP JUMPDEST PUSH2 0x3D49 PUSH1 0x40 DUP4 ADD DUP5 PUSH2 0x2E26 JUMP JUMPDEST SWAP5 SWAP4 POP POP POP POP JUMP JUMPDEST PUSH32 0x4E6F20616374697665207374616B650000000000000000000000000000000000 PUSH1 0x0 DUP3 ADD MSTORE POP JUMP JUMPDEST PUSH1 0x0 PUSH2 0x3D87 PUSH1 0xF DUP4 PUSH2 0x3057 JUMP JUMPDEST SWAP2 POP PUSH2 0x3D92 DUP3 PUSH2 0x3D51 JUMP JUMPDEST PUSH1 0x20 DUP3 ADD SWAP1 POP SWAP2 SWAP1 POP JUMP JUMPDEST PUSH1 0x0 PUSH1 0x20 DUP3 ADD SWAP1 POP DUP2 DUP2 SUB PUSH1 0x0 DUP4 ADD MSTORE PUSH2 0x3DB6 DUP2 PUSH2 0x3D7A JUMP JUMPDEST SWAP1 POP SWAP2 SWAP1 POP JUMP JUMPDEST PUSH32 0x4D757374207761697420323420686F7572730000000000000000000000000000 PUSH1 0x0 DUP3 ADD MSTORE POP JUMP JUMPDEST PUSH1 0x0 PUSH2 0x3DF3 PUSH1 0x12 DUP4 PUSH2 0x3057 JUMP JUMPDEST SWAP2 POP PUSH2 0x3DFE DUP3 PUSH2 0x3DBD JUMP JUMPDEST PUSH1 0x20 DUP3 ADD SWAP1 POP SWAP2 SWAP1 POP JUMP JUMPDEST PUSH1 0x0 PUSH1 0x20 DUP3 ADD SWAP1 POP DUP2 DUP2 SUB PUSH1 0x0 DUP4 ADD MSTORE PUSH2 0x3E22 DUP2 PUSH2 0x3DE6 JUMP JUMPDEST SWAP1 POP SWAP2 SWAP1 POP JUMP JUMPDEST PUSH32 0x4F776E61626C653A206E6577206F776E657220697320746865207A65726F2061 PUSH1 0x0 DUP3 ADD MSTORE PUSH32 0x6464726573730000000000000000000000000000000000000000000000000000 PUSH1 0x20 DUP3 ADD MSTORE POP JUMP JUMPDEST PUSH1 0x0 PUSH2 0x3E85 PUSH1 0x26 DUP4 PUSH2 0x3057 JUMP JUMPDEST SWAP2 POP PUSH2 0x3E90 DUP3 PUSH2 0x3E29 JUMP JUMPDEST PUSH1 0x40 DUP3 ADD SWAP1 POP SWAP2 SWAP1 POP JUMP JUMPDEST PUSH1 0x0 PUSH1 0x20 DUP3 ADD SWAP1 POP DUP2 DUP2 SUB PUSH1 0x0 DUP4 ADD MSTORE PUSH2 0x3EB4 DUP2 PUSH2 0x3E78 JUMP JUMPDEST SWAP1 POP SWAP2 SWAP1 POP JUMP JUMPDEST PUSH32 0x4F776E61626C653A2063616C6C6572206973206E6F7420746865206F776E6572 PUSH1 0x0 DUP3 ADD MSTORE POP JUMP JUMPDEST PUSH1 0x0 PUSH2 0x3EF1 PUSH1 0x20 DUP4 PUSH2 0x3057 JUMP JUMPDEST SWAP2 POP PUSH2 0x3EFC DUP3 PUSH2 0x3EBB JUMP JUMPDEST PUSH1 0x20 DUP3 ADD SWAP1 POP SWAP2 SWAP1 POP JUMP JUMPDEST PUSH1 0x0 PUSH1 0x20 DUP3 ADD SWAP1 POP DUP2 DUP2 SUB PUSH1 0x0 DUP4 ADD MSTORE PUSH2 0x3F20 DUP2 PUSH2 0x3EE4 JUMP JUMPDEST SWAP1 POP SWAP2 SWAP1 POP JUMP JUMPDEST PUSH32 0x5265656E7472616E637947756172643A207265656E7472616E742063616C6C00 PUSH1 0x0 DUP3 ADD MSTORE POP JUMP JUMPDEST PUSH1 0x0 PUSH2 0x3F5D PUSH1 0x1F DUP4 PUSH2 0x3057 JUMP JUMPDEST SWAP2 POP PUSH2 0x3F68 DUP3 PUSH2 0x3F27 JUMP JUMPDEST PUSH1 0x20 DUP3 ADD SWAP1 POP SWAP2 SWAP1 POP JUMP JUMPDEST PUSH1 0x0 PUSH1 0x20 DUP3 ADD SWAP1 POP DUP2 DUP2 SUB PUSH1 0x0 DUP4 ADD MSTORE PUSH2 0x3F8C DUP2 PUSH2 0x3F50 JUMP JUMPDEST SWAP1 POP SWAP2 SWAP1 POP JUMP JUMPDEST PUSH32 0x5061757361626C653A2070617573656400000000000000000000000000000000 PUSH1 0x0 DUP3 ADD MSTORE POP JUMP JUMPDEST PUSH1 0x0 PUSH2 0x3FC9 PUSH1 0x10 DUP4 PUSH2 0x3057 JUMP JUMPDEST SWAP2 POP PUSH2 0x3FD4 DUP3 PUSH2 0x3F93 JUMP JUMPDEST PUSH1 0x20 DUP3 ADD SWAP1 POP SWAP2 SWAP1 POP JUMP JUMPDEST PUSH1 0x0 PUSH1 0x20 DUP3 ADD SWAP1 POP DUP2 DUP2 SUB PUSH1 0x0 DUP4 ADD MSTORE PUSH2 0x3FF8 DUP2 PUSH2 0x3FBC JUMP JUMPDEST SWAP1 POP SWAP2 SWAP1 POP JUMP JUMPDEST PUSH32 0x5061757361626C653A206E6F7420706175736564000000000000000000000000 PUSH1 0x0 DUP3 ADD MSTORE POP JUMP JUMPDEST PUSH1 0x0 PUSH2 0x4035 PUSH1 0x14 DUP4 PUSH2 0x3057 JUMP JUMPDEST SWAP2 POP PUSH2 0x4040 DUP3 PUSH2 0x3FFF JUMP JUMPDEST PUSH1 0x20 DUP3 ADD SWAP1 POP SWAP2 SWAP1 POP JUMP JUMPDEST PUSH1 0x0 PUSH1 0x20 DUP3 ADD SWAP1 POP DUP2 DUP2 SUB PUSH1 0x0 DUP4 ADD MSTORE PUSH2 0x4064 DUP2 PUSH2 0x4028 JUMP JUMPDEST SWAP1 POP SWAP2 SWAP1 POP JUMP INVALID LOG2 PUSH5 0x6970667358 0x22 SLT KECCAK256 SWAP5 BLOCKHASH DUP7 0xC0 CODECOPY 0xED PUSH13 0xACA28E079C1BB63EE61FD05904 CREATE2 0x5D 0xC8 0xDC 0xB5 LOG2 0x5C 0xB3 0xF8 0xC5 0xFC 0xB2 PUSH5 0x736F6C6343 STOP ADDMOD SGT STOP CALLER "
				},
				"gasEstimates": {
					"creation": {
						"codeDepositCost": "3309000",
						"executionCost": "infinite",
						"totalCost": "infinite"
					},
					"external": {
						"addStar(uint256,int256,int256,uint256,uint8)": "infinite",
						"authorizeAI(address,bool)": "infinite",
						"authorizedAI(address)": "2957",
						"challenges(uint256)": "infinite",
						"completeChallenge(uint256,string,bool)": "infinite",
						"createStake(uint256)": "infinite",
						"emergencyWithdraw()": "infinite",
						"getChallengeDetails(uint256)": "infinite",
						"getPlayerChallengeHistory(address)": "infinite",
						"getStarDetails(uint256)": "infinite",
						"getStarMultiplier(uint8)": "916",
						"houseFeePercent()": "2519",
						"maximumStake()": "2518",
						"minimumStake()": "2517",
						"oracleContract()": "2581",
						"owner()": "2568",
						"pause()": "infinite",
						"paused()": "2547",
						"playerChallengeHistory(address,uint256)": "infinite",
						"playerStakes(address)": "infinite",
						"playerStats(address)": "infinite",
						"renounceOwnership()": "30487",
						"setGameParameters(uint256,uint256,uint256,uint256,address)": "infinite",
						"stars(uint256)": "infinite",
						"storageWallet()": "2676",
						"submitChallenge(uint256,string)": "infinite",
						"transferOwnership(address)": "30854",
						"unpause()": "infinite",
						"updateStar(uint256,bool)": "infinite",
						"winMultiplier()": "2540",
						"withdrawBalance()": "infinite"
					}
				},
				"methodIdentifiers": {
					"addStar(uint256,int256,int256,uint256,uint8)": "d1ba26f9",
					"authorizeAI(address,bool)": "b4986922",
					"authorizedAI(address)": "9e32aaa3",
					"challenges(uint256)": "8f1d3776",
					"completeChallenge(uint256,string,bool)": "6a60bd00",
					"createStake(uint256)": "1bf6ddae",
					"emergencyWithdraw()": "db2e21bc",
					"getChallengeDetails(uint256)": "3d40a54f",
					"getPlayerChallengeHistory(address)": "929a1923",
					"getStarDetails(uint256)": "3081eafe",
					"getStarMultiplier(uint8)": "4b0ea4a6",
					"houseFeePercent()": "3e27fee2",
					"maximumStake()": "b5c6b453",
					"minimumStake()": "ec5ffac2",
					"oracleContract()": "bece7532",
					"owner()": "8da5cb5b",
					"pause()": "8456cb59",
					"paused()": "5c975abb",
					"playerChallengeHistory(address,uint256)": "358b3855",
					"playerStakes(address)": "b7d44644",
					"playerStats(address)": "cdafbbb6",
					"renounceOwnership()": "715018a6",
					"setGameParameters(uint256,uint256,uint256,uint256,address)": "a66d6dc0",
					"stars(uint256)": "685c6342",
					"storageWallet()": "619f3f61",
					"submitChallenge(uint256,string)": "bbed7fdb",
					"transferOwnership(address)": "f2fde38b",
					"unpause()": "3f4ba83a",
					"updateStar(uint256,bool)": "0355c892",
					"winMultiplier()": "cf24141a",
					"withdrawBalance()": "5fd8c710"
				}
			},
			"storageLayout": {
				"storage": [
					{
						"astId": 997,
						"contract": "contracts/contracts/Core.sol:StarQuest",
						"label": "_owner",
						"offset": 0,
						"slot": "0",
						"type": "t_address"
					},
					{
						"astId": 1221,
						"contract": "contracts/contracts/Core.sol:StarQuest",
						"label": "_status",
						"offset": 0,
						"slot": "1",
						"type": "t_uint256"
					},
					{
						"astId": 1120,
						"contract": "contracts/contracts/Core.sol:StarQuest",
						"label": "_paused",
						"offset": 0,
						"slot": "2",
						"type": "t_bool"
					},
					{
						"astId": 18,
						"contract": "contracts/contracts/Core.sol:StarQuest",
						"label": "storageWallet",
						"offset": 1,
						"slot": "2",
						"type": "t_address"
					},
					{
						"astId": 20,
						"contract": "contracts/contracts/Core.sol:StarQuest",
						"label": "oracleContract",
						"offset": 0,
						"slot": "3",
						"type": "t_address"
					},
					{
						"astId": 23,
						"contract": "contracts/contracts/Core.sol:StarQuest",
						"label": "minimumStake",
						"offset": 0,
						"slot": "4",
						"type": "t_uint256"
					},
					{
						"astId": 26,
						"contract": "contracts/contracts/Core.sol:StarQuest",
						"label": "maximumStake",
						"offset": 0,
						"slot": "5",
						"type": "t_uint256"
					},
					{
						"astId": 29,
						"contract": "contracts/contracts/Core.sol:StarQuest",
						"label": "winMultiplier",
						"offset": 0,
						"slot": "6",
						"type": "t_uint256"
					},
					{
						"astId": 32,
						"contract": "contracts/contracts/Core.sol:StarQuest",
						"label": "houseFeePercent",
						"offset": 0,
						"slot": "7",
						"type": "t_uint256"
					},
					{
						"astId": 35,
						"contract": "contracts/contracts/Core.sol:StarQuest",
						"label": "_challengeIds",
						"offset": 0,
						"slot": "8",
						"type": "t_struct(Counter)1311_storage"
					},
					{
						"astId": 38,
						"contract": "contracts/contracts/Core.sol:StarQuest",
						"label": "_sessionIds",
						"offset": 0,
						"slot": "9",
						"type": "t_struct(Counter)1311_storage"
					},
					{
						"astId": 120,
						"contract": "contracts/contracts/Core.sol:StarQuest",
						"label": "playerStakes",
						"offset": 0,
						"slot": "10",
						"type": "t_mapping(t_address,t_struct(Stake)57_storage)"
					},
					{
						"astId": 125,
						"contract": "contracts/contracts/Core.sol:StarQuest",
						"label": "challenges",
						"offset": 0,
						"slot": "11",
						"type": "t_mapping(t_uint256,t_struct(Challenge)82_storage)"
					},
					{
						"astId": 130,
						"contract": "contracts/contracts/Core.sol:StarQuest",
						"label": "stars",
						"offset": 0,
						"slot": "12",
						"type": "t_mapping(t_uint256,t_struct(Star)100_storage)"
					},
					{
						"astId": 135,
						"contract": "contracts/contracts/Core.sol:StarQuest",
						"label": "playerStats",
						"offset": 0,
						"slot": "13",
						"type": "t_mapping(t_address,t_struct(PlayerStats)115_storage)"
					},
					{
						"astId": 139,
						"contract": "contracts/contracts/Core.sol:StarQuest",
						"label": "authorizedAI",
						"offset": 0,
						"slot": "14",
						"type": "t_mapping(t_address,t_bool)"
					},
					{
						"astId": 144,
						"contract": "contracts/contracts/Core.sol:StarQuest",
						"label": "playerChallengeHistory",
						"offset": 0,
						"slot": "15",
						"type": "t_mapping(t_address,t_array(t_uint256)dyn_storage)"
					}
				],
				"types": {
					"t_address": {
						"encoding": "inplace",
						"label": "address",
						"numberOfBytes": "20"
					},
					"t_array(t_uint256)dyn_storage": {
						"base": "t_uint256",
						"encoding": "dynamic_array",
						"label": "uint256[]",
						"numberOfBytes": "32"
					},
					"t_bool": {
						"encoding": "inplace",
						"label": "bool",
						"numberOfBytes": "1"
					},
					"t_enum(ChallengeStatus)43": {
						"encoding": "inplace",
						"label": "enum StarQuest.ChallengeStatus",
						"numberOfBytes": "1"
					},
					"t_enum(StarType)48": {
						"encoding": "inplace",
						"label": "enum StarQuest.StarType",
						"numberOfBytes": "1"
					},
					"t_int256": {
						"encoding": "inplace",
						"label": "int256",
						"numberOfBytes": "32"
					},
					"t_mapping(t_address,t_array(t_uint256)dyn_storage)": {
						"encoding": "mapping",
						"key": "t_address",
						"label": "mapping(address => uint256[])",
						"numberOfBytes": "32",
						"value": "t_array(t_uint256)dyn_storage"
					},
					"t_mapping(t_address,t_bool)": {
						"encoding": "mapping",
						"key": "t_address",
						"label": "mapping(address => bool)",
						"numberOfBytes": "32",
						"value": "t_bool"
					},
					"t_mapping(t_address,t_struct(PlayerStats)115_storage)": {
						"encoding": "mapping",
						"key": "t_address",
						"label": "mapping(address => struct StarQuest.PlayerStats)",
						"numberOfBytes": "32",
						"value": "t_struct(PlayerStats)115_storage"
					},
					"t_mapping(t_address,t_struct(Stake)57_storage)": {
						"encoding": "mapping",
						"key": "t_address",
						"label": "mapping(address => struct StarQuest.Stake)",
						"numberOfBytes": "32",
						"value": "t_struct(Stake)57_storage"
					},
					"t_mapping(t_uint256,t_struct(Challenge)82_storage)": {
						"encoding": "mapping",
						"key": "t_uint256",
						"label": "mapping(uint256 => struct StarQuest.Challenge)",
						"numberOfBytes": "32",
						"value": "t_struct(Challenge)82_storage"
					},
					"t_mapping(t_uint256,t_struct(Star)100_storage)": {
						"encoding": "mapping",
						"key": "t_uint256",
						"label": "mapping(uint256 => struct StarQuest.Star)",
						"numberOfBytes": "32",
						"value": "t_struct(Star)100_storage"
					},
					"t_string_storage": {
						"encoding": "bytes",
						"label": "string",
						"numberOfBytes": "32"
					},
					"t_struct(Challenge)82_storage": {
						"encoding": "inplace",
						"label": "struct StarQuest.Challenge",
						"members": [
							{
								"astId": 59,
								"contract": "contracts/contracts/Core.sol:StarQuest",
								"label": "id",
								"offset": 0,
								"slot": "0",
								"type": "t_uint256"
							},
							{
								"astId": 61,
								"contract": "contracts/contracts/Core.sol:StarQuest",
								"label": "player",
								"offset": 0,
								"slot": "1",
								"type": "t_address"
							},
							{
								"astId": 63,
								"contract": "contracts/contracts/Core.sol:StarQuest",
								"label": "stakeAmount",
								"offset": 0,
								"slot": "2",
								"type": "t_uint256"
							},
							{
								"astId": 65,
								"contract": "contracts/contracts/Core.sol:StarQuest",
								"label": "challengeHash",
								"offset": 0,
								"slot": "3",
								"type": "t_string_storage"
							},
							{
								"astId": 67,
								"contract": "contracts/contracts/Core.sol:StarQuest",
								"label": "proofHash",
								"offset": 0,
								"slot": "4",
								"type": "t_string_storage"
							},
							{
								"astId": 70,
								"contract": "contracts/contracts/Core.sol:StarQuest",
								"label": "status",
								"offset": 0,
								"slot": "5",
								"type": "t_enum(ChallengeStatus)43"
							},
							{
								"astId": 72,
								"contract": "contracts/contracts/Core.sol:StarQuest",
								"label": "createdAt",
								"offset": 0,
								"slot": "6",
								"type": "t_uint256"
							},
							{
								"astId": 74,
								"contract": "contracts/contracts/Core.sol:StarQuest",
								"label": "completedAt",
								"offset": 0,
								"slot": "7",
								"type": "t_uint256"
							},
							{
								"astId": 76,
								"contract": "contracts/contracts/Core.sol:StarQuest",
								"label": "aiVerified",
								"offset": 0,
								"slot": "8",
								"type": "t_bool"
							},
							{
								"astId": 78,
								"contract": "contracts/contracts/Core.sol:StarQuest",
								"label": "starId",
								"offset": 0,
								"slot": "9",
								"type": "t_uint256"
							},
							{
								"astId": 81,
								"contract": "contracts/contracts/Core.sol:StarQuest",
								"label": "starType",
								"offset": 0,
								"slot": "10",
								"type": "t_enum(StarType)48"
							}
						],
						"numberOfBytes": "352"
					},
					"t_struct(Counter)1311_storage": {
						"encoding": "inplace",
						"label": "struct Counters.Counter",
						"members": [
							{
								"astId": 1310,
								"contract": "contracts/contracts/Core.sol:StarQuest",
								"label": "_value",
								"offset": 0,
								"slot": "0",
								"type": "t_uint256"
							}
						],
						"numberOfBytes": "32"
					},
					"t_struct(PlayerStats)115_storage": {
						"encoding": "inplace",
						"label": "struct StarQuest.PlayerStats",
						"members": [
							{
								"astId": 102,
								"contract": "contracts/contracts/Core.sol:StarQuest",
								"label": "totalStaked",
								"offset": 0,
								"slot": "0",
								"type": "t_uint256"
							},
							{
								"astId": 104,
								"contract": "contracts/contracts/Core.sol:StarQuest",
								"label": "totalWon",
								"offset": 0,
								"slot": "1",
								"type": "t_uint256"
							},
							{
								"astId": 106,
								"contract": "contracts/contracts/Core.sol:StarQuest",
								"label": "challengesCompleted",
								"offset": 0,
								"slot": "2",
								"type": "t_uint256"
							},
							{
								"astId": 108,
								"contract": "contracts/contracts/Core.sol:StarQuest",
								"label": "challengesFailed",
								"offset": 0,
								"slot": "3",
								"type": "t_uint256"
							},
							{
								"astId": 110,
								"contract": "contracts/contracts/Core.sol:StarQuest",
								"label": "currentStreak",
								"offset": 0,
								"slot": "4",
								"type": "t_uint256"
							},
							{
								"astId": 112,
								"contract": "contracts/contracts/Core.sol:StarQuest",
								"label": "longestStreak",
								"offset": 0,
								"slot": "5",
								"type": "t_uint256"
							},
							{
								"astId": 114,
								"contract": "contracts/contracts/Core.sol:StarQuest",
								"label": "lastPlayedTimestamp",
								"offset": 0,
								"slot": "6",
								"type": "t_uint256"
							}
						],
						"numberOfBytes": "224"
					},
					"t_struct(Stake)57_storage": {
						"encoding": "inplace",
						"label": "struct StarQuest.Stake",
						"members": [
							{
								"astId": 50,
								"contract": "contracts/contracts/Core.sol:StarQuest",
								"label": "amount",
								"offset": 0,
								"slot": "0",
								"type": "t_uint256"
							},
							{
								"astId": 52,
								"contract": "contracts/contracts/Core.sol:StarQuest",
								"label": "timestamp",
								"offset": 0,
								"slot": "1",
								"type": "t_uint256"
							},
							{
								"astId": 54,
								"contract": "contracts/contracts/Core.sol:StarQuest",
								"label": "active",
								"offset": 0,
								"slot": "2",
								"type": "t_bool"
							},
							{
								"astId": 56,
								"contract": "contracts/contracts/Core.sol:StarQuest",
								"label": "challengeId",
								"offset": 0,
								"slot": "3",
								"type": "t_uint256"
							}
						],
						"numberOfBytes": "128"
					},
					"t_struct(Star)100_storage": {
						"encoding": "inplace",
						"label": "struct StarQuest.Star",
						"members": [
							{
								"astId": 84,
								"contract": "contracts/contracts/Core.sol:StarQuest",
								"label": "id",
								"offset": 0,
								"slot": "0",
								"type": "t_uint256"
							},
							{
								"astId": 86,
								"contract": "contracts/contracts/Core.sol:StarQuest",
								"label": "latitude",
								"offset": 0,
								"slot": "1",
								"type": "t_int256"
							},
							{
								"astId": 88,
								"contract": "contracts/contracts/Core.sol:StarQuest",
								"label": "longitude",
								"offset": 0,
								"slot": "2",
								"type": "t_int256"
							},
							{
								"astId": 90,
								"contract": "contracts/contracts/Core.sol:StarQuest",
								"label": "radius",
								"offset": 0,
								"slot": "3",
								"type": "t_uint256"
							},
							{
								"astId": 93,
								"contract": "contracts/contracts/Core.sol:StarQuest",
								"label": "starType",
								"offset": 0,
								"slot": "4",
								"type": "t_enum(StarType)48"
							},
							{
								"astId": 95,
								"contract": "contracts/contracts/Core.sol:StarQuest",
								"label": "active",
								"offset": 1,
								"slot": "4",
								"type": "t_bool"
							},
							{
								"astId": 97,
								"contract": "contracts/contracts/Core.sol:StarQuest",
								"label": "challengesCompleted",
								"offset": 0,
								"slot": "5",
								"type": "t_uint256"
							},
							{
								"astId": 99,
								"contract": "contracts/contracts/Core.sol:StarQuest",
								"label": "totalStaked",
								"offset": 0,
								"slot": "6",
								"type": "t_uint256"
							}
						],
						"numberOfBytes": "224"
					},
					"t_uint256": {
						"encoding": "inplace",
						"label": "uint256",
						"numberOfBytes": "32"
					}
				}
			},
			"userdoc": {
				"kind": "user",
				"methods": {},
				"version": 1
			}
		}
	}
}