{"contracts/Oracle.sol":{"StarQuestOracle":{"abi":[{"inputs":[],"stateMutability":"nonpayable","type":"constructor"},{"anonymous":false,"inputs":[{"indexed":true,"internalType":"bytes32","name":"asset","type":"bytes32"},{"indexed":false,"internalType":"string","name":"name","type":"string"}],"name":"AssetAdded","type":"event"},{"anonymous":false,"inputs":[{"indexed":true,"internalType":"bytes32","name":"locationHash","type":"bytes32"},{"indexed":false,"internalType":"int256","name":"latitude","type":"int256"},{"indexed":false,"internalType":"int256","name":"longitude","type":"int256"},{"indexed":false,"internalType":"address","name":"verifier","type":"address"}],"name":"LocationVerified","type":"event"},{"anonymous":false,"inputs":[{"indexed":true,"internalType":"address","name":"oracle","type":"address"},{"indexed":false,"internalType":"bool","name":"authorized","type":"bool"}],"name":"OracleAuthorized","type":"event"},{"anonymous":false,"inputs":[{"indexed":true,"internalType":"address","name":"previousOwner","type":"address"},{"indexed":true,"internalType":"address","name":"newOwner","type":"address"}],"name":"OwnershipTransferred","type":"event"},{"anonymous":false,"inputs":[{"indexed":true,"internalType":"bytes32","name":"asset","type":"bytes32"},{"indexed":false,"internalType":"uint256","name":"price","type":"uint256"},{"indexed":false,"internalType":"address","name":"oracle","type":"address"},{"indexed":false,"internalType":"uint256","name":"timestamp","type":"uint256"}],"name":"PriceUpdated","type":"event"},{"inputs":[],"name":"MAX_PRICE_AGE","outputs":[{"internalType":"uint256","name":"","type":"uint256"}],"stateMutability":"view","type":"function"},{"inputs":[],"name":"PRICE_DECIMALS","outputs":[{"internalType":"uint256","name":"","type":"uint256"}],"stateMutability":"view","type":"function"},{"inputs":[{"internalType":"bytes32","name":"asset","type":"bytes32"},{"internalType":"string","name":"name","type":"string"}],"name":"addAsset","outputs":[],"stateMutability":"nonpayable","type":"function"},{"inputs":[{"internalType":"address","name":"oracle","type":"address"},{"internalType":"bool","name":"authorized","type":"bool"}],"name":"authorizeOracle","outputs":[],"stateMutability":"nonpayable","type":"function"},{"inputs":[{"internalType":"address","name":"","type":"address"}],"name":"authorizedOracles","outputs":[{"internalType":"bool","name":"","type":"bool"}],"stateMutability":"view","type":"function"},{"inputs":[{"internalType":"bytes32[]","name":"assets","type":"bytes32[]"},{"internalType":"uint256[]","name":"priceValues","type":"uint256[]"}],"name":"batchUpdatePrices","outputs":[],"stateMutability":"nonpayable","type":"function"},{"inputs":[{"internalType":"bytes32","name":"asset","type":"bytes32"},{"internalType":"uint256","name":"price","type":"uint256"}],"name":"emergencyPriceUpdate","outputs":[],"stateMutability":"nonpayable","type":"function"},{"inputs":[{"internalType":"bytes32","name":"locationHash","type":"bytes32"}],"name":"getLocationVerification","outputs":[{"components":[{"internalType":"int256","name":"latitude","type":"int256"},{"internalType":"int256","name":"longitude","type":"int256"},{"internalType":"uint256","name":"accuracy","type":"uint256"},{"internalType":"uint256","name":"timestamp","type":"uint256"},{"internalType":"address","name":"verifier","type":"address"}],"internalType":"struct StarQuestOracle.LocationData","name":"","type":"tuple"}],"stateMutability":"view","type":"function"},{"inputs":[{"internalType":"bytes32[]","name":"assets","type":"bytes32[]"}],"name":"getMultiplePrices","outputs":[{"internalType":"uint256[]","name":"","type":"uint256[]"},{"internalType":"uint256[]","name":"","type":"uint256[]"}],"stateMutability":"view","type":"function"},{"inputs":[{"internalType":"bytes32","name":"asset","type":"bytes32"}],"name":"getPrice","outputs":[{"internalType":"uint256","name":"","type":"uint256"},{"internalType":"uint256","name":"","type":"uint256"}],"stateMutability":"view","type":"function"},{"inputs":[{"internalType":"address","name":"oracle","type":"address"},{"internalType":"bytes32","name":"asset","type":"bytes32"},{"internalType":"bool","name":"access","type":"bool"}],"name":"grantOracleAssetAccess","outputs":[],"stateMutability":"nonpayable","type":"function"},{"inputs":[{"internalType":"bytes32","name":"asset","type":"bytes32"}],"name":"isPriceFresh","outputs":[{"internalType":"bool","name":"","type":"bool"}],"stateMutability":"view","type":"function"},{"inputs":[{"internalType":"bytes32","name":"","type":"bytes32"}],"name":"lastUpdated","outputs":[{"internalType":"uint256","name":"","type":"uint256"}],"stateMutability":"view","type":"function"},{"inputs":[{"internalType":"bytes32","name":"","type":"bytes32"}],"name":"locationVerifications","outputs":[{"internalType":"int256","name":"latitude","type":"int256"},{"internalType":"int256","name":"longitude","type":"int256"},{"internalType":"uint256","name":"accuracy","type":"uint256"},{"internalType":"uint256","name":"timestamp","type":"uint256"},{"internalType":"address","name":"verifier","type":"address"}],"stateMutability":"view","type":"function"},{"inputs":[{"internalType":"address","name":"","type":"address"},{"internalType":"bytes32","name":"","type":"bytes32"}],"name":"oracleAssetAccess","outputs":[{"internalType":"bool","name":"","type":"bool"}],"stateMutability":"view","type":"function"},{"inputs":[],"name":"owner","outputs":[{"internalType":"address","name":"","type":"address"}],"stateMutability":"view","type":"function"},{"inputs":[{"internalType":"bytes32","name":"","type":"bytes32"}],"name":"priceFeeds","outputs":[{"internalType":"uint256","name":"","type":"uint256"}],"stateMutability":"view","type":"function"},{"inputs":[{"internalType":"bytes32","name":"","type":"bytes32"}],"name":"prices","outputs":[{"internalType":"uint256","name":"price","type":"uint256"},{"internalType":"uint256","name":"timestamp","type":"uint256"},{"internalType":"address","name":"oracle","type":"address"}],"stateMutability":"view","type":"function"},{"inputs":[],"name":"renounceOwnership","outputs":[],"stateMutability":"nonpayable","type":"function"},{"inputs":[{"internalType":"address","name":"_starQuestCore","type":"address"}],"name":"setStarQuestCore","outputs":[],"stateMutability":"nonpayable","type":"function"},{"inputs":[],"name":"starQuestCore","outputs":[{"internalType":"address","name":"","type":"address"}],"stateMutability":"view","type":"function"},{"inputs":[{"internalType":"address","name":"newOwner","type":"address"}],"name":"transferOwnership","outputs":[],"stateMutability":"nonpayable","type":"function"},{"inputs":[{"internalType":"bytes32","name":"asset","type":"bytes32"},{"internalType":"uint256","name":"price","type":"uint256"}],"name":"updatePrice","outputs":[],"stateMutability":"nonpayable","type":"function"},{"inputs":[{"internalType":"bytes32","name":"","type":"bytes32"}],"name":"validAssets","outputs":[{"internalType":"bool","name":"","type":"bool"}],"stateMutability":"view","type":"function"},{"inputs":[{"internalType":"bytes32","name":"locationHash","type":"bytes32"},{"internalType":"int256","name":"latitude","type":"int256"},{"internalType":"int256","name":"longitude","type":"int256"},{"internalType":"uint256","name":"accuracy","type":"uint256"}],"name":"verifyLocation","outputs":[],"stateMutability":"nonpayable","type":"function"}],"evm":{"bytecode":{"linkReferences":{},"object":"608060405234801561001057600080fd5b5061001a33610023565b60018055610073565b600080546001600160a01b038381166001600160a01b0319831681178455604051919092169283917f8be0079c531659141344cd1fd0a4f28419497f9722a3daafe3b4186f6b6457e09190a35050565b611750806100826000396000f3fe608060405234801561001057600080fd5b50600436106101735760003560e01c8063650ef52f116100de5780639d7f7e8611610097578063ec64f5bc11610071578063ec64f5bc14610434578063f1a640f814610447578063f2fde38b1461044f578063f3413a621461046257600080fd5b80639d7f7e86146103f8578063acbffc7714610401578063c6c3f71e1461041457600080fd5b8063650ef52f1461036b578063715018a61461037e578063828323f71461038657806383f4b7321461039957806389ee3e97146103bc5780638da5cb5b146103e757600080fd5b80634055d60d116101305780634055d60d1461022f578063564b51de14610288578063589afb061461029b5780635f704f3e146102d957806360846bc6146102ec57806361c992a31461034857600080fd5b8063060eb2f5146101785780630c2c69fa146101ab578063177ab321146101c05780631b716b77146101d357806331d98b3f146101f457806335a41f901461021c575b600080fd5b6101986101863660046111be565b60046020526000908152604090205481565b6040519081526020015b60405180910390f35b6101be6101b9366004611203565b6104d9565b005b6101be6101ce366004611236565b610541565b6101e66101e1366004611327565b61056b565b6040516101a292919061139f565b6102076102023660046111be565b61076c565b604080519283526020830191909152016101a2565b6101be61022a3660046113cd565b610883565b61024261023d3660046111be565b610979565b6040516101a29190815181526020808301519082015260408083015190820152606080830151908201526080918201516001600160a01b03169181019190915260a00190565b6101be6102963660046113ef565b610a0c565b6102c96102a936600461142b565b600960209081526000928352604080842090915290825290205460ff1681565b60405190151581526020016101a2565b6101be6102e73660046113cd565b610a49565b6103246102fa3660046111be565b6007602052600090815260409020805460018201546002909201549091906001600160a01b031683565b6040805193845260208401929092526001600160a01b0316908201526060016101a2565b6102c9610356366004611236565b60026020526000908152604090205460ff1681565b6101be610379366004611455565b610bd6565b6101be610ee5565b6102c96103943660046111be565b610ef9565b6102c96103a73660046111be565b60056020526000908152604090205460ff1681565b6006546103cf906001600160a01b031681565b6040516001600160a01b0390911681526020016101a2565b6000546001600160a01b03166103cf565b610198610e1081565b6101be61040f366004611510565b610f5e565b6101986104223660046111be565b60036020526000908152604090205481565b6101be610442366004611542565b611048565b610198601281565b6101be61045d366004611236565b61109b565b6104a86104703660046111be565b60086020526000908152604090208054600182015460028301546003840154600490940154929391929091906001600160a01b031685565b6040805195865260208601949094529284019190915260608301526001600160a01b0316608082015260a0016101a2565b6104e1611114565b6001600160a01b038216600081815260026020908152604091829020805460ff191685151590811790915591519182527f82a8fb1e779ea45ad427cc612e47087f5386a567e49dce488185e40646fa48d591015b60405180910390a25050565b610549611114565b600680546001600160a01b0319166001600160a01b0392909216919091179055565b6060806000835167ffffffffffffffff81111561058a5761058a611251565b6040519080825280602002602001820160405280156105b3578160200160208202803683370190505b5090506000845167ffffffffffffffff8111156105d2576105d2611251565b6040519080825280602002602001820160405280156105fb578160200160208202803683370190505b50905060005b85518110156107615760056000878381518110610620576106206115e1565b60209081029190910181015182528101919091526040016000205460ff166106635760405162461bcd60e51b815260040161065a906115f7565b60405180910390fd5b60006007600088848151811061067b5761067b6115e1565b602090810291909101810151825281810192909252604090810160002081516060810183528154815260018201549381018490526002909101546001600160a01b03169181019190915291506107095760405162461bcd60e51b81526020600482015260136024820152725072696365206e6f7420617661696c61626c6560681b604482015260640161065a565b8060000151848381518110610720576107206115e1565b6020026020010181815250508060200151838381518110610743576107436115e1565b6020908102919091010152508061075981611634565b915050610601565b509094909350915050565b6000818152600560205260408120548190839060ff1661079e5760405162461bcd60e51b815260040161065a906115f7565b60008481526007602090815260409182902082516060810184528154815260018201549281018390526002909101546001600160a01b03169281019290925261081f5760405162461bcd60e51b81526020600482015260136024820152725072696365206e6f7420617661696c61626c6560681b604482015260640161065a565b610e10816020015142610832919061164d565b11156108705760405162461bcd60e51b815260206004820152600d60248201526c141c9a58d9481d1bdbc81bdb19609a1b604482015260640161065a565b8051602090910151909350915050915091565b61088b611114565b60008281526005602052604090205460ff166108b95760405162461bcd60e51b815260040161065a906115f7565b600081116108d95760405162461bcd60e51b815260040161065a90611666565b60408051606080820183528382524260208084018281523385870181815260008a815260078552888120975188559251600188015551600290960180546001600160a01b0319166001600160a01b0390971696909617909555600482528590208290558451868152908101939093529282019290925283917f92367f24a29e268fedbb5fce0722f112085377056482dffc7669ca7b4649d71f9101610535565b6109b46040518060a001604052806000815260200160008152602001600081526020016000815260200160006001600160a01b031681525090565b50600090815260086020908152604091829020825160a08101845281548152600182015492810192909252600281015492820192909252600382015460608201526004909101546001600160a01b0316608082015290565b610a14611114565b6001600160a01b0392909216600090815260096020908152604080832093835292905220805460ff1916911515919091179055565b3360009081526002602052604090205460ff16610a785760405162461bcd60e51b815260040161065a9061169d565b600082815260056020526040902054829060ff16610aa85760405162461bcd60e51b815260040161065a906115f7565b33600090815260096020908152604080832086845290915290205460ff16610b125760405162461bcd60e51b815260206004820152601760248201527f4e6f2061636365737320746f2074686973206173736574000000000000000000604482015260640161065a565b60008211610b325760405162461bcd60e51b815260040161065a90611666565b60408051606080820183528482524260208084018281523385870181815260008b815260078552888120975188559251600188015551600290960180546001600160a01b0319166001600160a01b03909716969096179095556004825285902082905584518781529081019390935282840152915185927f92367f24a29e268fedbb5fce0722f112085377056482dffc7669ca7b4649d71f928290030190a2505050565b3360009081526002602052604090205460ff16610c055760405162461bcd60e51b815260040161065a9061169d565b8051825114610c4e5760405162461bcd60e51b8152602060048201526015602482015274082e4e4c2f240d8cadccee8d040dad2e6dac2e8c6d605b1b604482015260640161065a565b60005b8251811015610ee05760056000848381518110610c7057610c706115e1565b60209081029190910181015182528101919091526040016000205460ff16610caa5760405162461bcd60e51b815260040161065a906115f7565b3360009081526009602052604081208451909190859084908110610cd057610cd06115e1565b60209081029190910181015182528101919091526040016000205460ff16610d2f5760405162461bcd60e51b8152602060048201526012602482015271139bc81858d8d95cdcc81d1bc8185cdcd95d60721b604482015260640161065a565b6000828281518110610d4357610d436115e1565b602002602001015111610d685760405162461bcd60e51b815260040161065a90611666565b6040518060600160405280838381518110610d8557610d856115e1565b60200260200101518152602001428152602001336001600160a01b031681525060076000858481518110610dbb57610dbb6115e1565b60200260200101518152602001908152602001600020600082015181600001556020820151816001015560408201518160020160006101000a8154816001600160a01b0302191690836001600160a01b031602179055509050504260046000858481518110610e2c57610e2c6115e1565b6020026020010151815260200190815260200160002081905550828181518110610e5857610e586115e1565b60200260200101517f92367f24a29e268fedbb5fce0722f112085377056482dffc7669ca7b4649d71f838381518110610e9357610e936115e1565b60200260200101513342604051610ec6939291909283526001600160a01b03919091166020830152604082015260600190565b60405180910390a280610ed881611634565b915050610c51565b505050565b610eed611114565b610ef7600061116e565b565b600081815260076020908152604080832081516060810183528154815260018201549381018490526002909101546001600160a01b0316918101919091529015801590610f575750610e10816020015142610f54919061164d565b11155b9392505050565b3360009081526002602052604090205460ff16610f8d5760405162461bcd60e51b815260040161065a9061169d565b6040805160a0810182528481526020808201858152828401858152426060808601918252336080870181815260008d815260088852899020975188559451600188015592516002870155905160038601559151600490940180546001600160a01b0319166001600160a01b039095169490941790935583518781529182018690529281019190915285917ff3bc4356c16d5fbbb3dcb0344ae2b6deeaf189c6d5dfb00f5bed5ec37bac4758910160405180910390a250505050565b611050611114565b60008281526005602052604090819020805460ff191660011790555182907face72befac1c74031af501fc7774a942cb2f319a1631e31e119fcf2d3b6175e3906105359084906116cc565b6110a3611114565b6001600160a01b0381166111085760405162461bcd60e51b815260206004820152602660248201527f4f776e61626c653a206e6577206f776e657220697320746865207a65726f206160448201526564647265737360d01b606482015260840161065a565b6111118161116e565b50565b6000546001600160a01b03163314610ef75760405162461bcd60e51b815260206004820181905260248201527f4f776e61626c653a2063616c6c6572206973206e6f7420746865206f776e6572604482015260640161065a565b600080546001600160a01b038381166001600160a01b0319831681178455604051919092169283917f8be0079c531659141344cd1fd0a4f28419497f9722a3daafe3b4186f6b6457e09190a35050565b6000602082840312156111d057600080fd5b5035919050565b80356001600160a01b03811681146111ee57600080fd5b919050565b803580151581146111ee57600080fd5b6000806040838503121561121657600080fd5b61121f836111d7565b915061122d602084016111f3565b90509250929050565b60006020828403121561124857600080fd5b610f57826111d7565b634e487b7160e01b600052604160045260246000fd5b604051601f8201601f1916810167ffffffffffffffff8111828210171561129057611290611251565b604052919050565b600067ffffffffffffffff8211156112b2576112b2611251565b5060051b60200190565b600082601f8301126112cd57600080fd5b813560206112e26112dd83611298565b611267565b82815260059290921b8401810191818101908684111561130157600080fd5b8286015b8481101561131c5780358352918301918301611305565b509695505050505050565b60006020828403121561133957600080fd5b813567ffffffffffffffff81111561135057600080fd5b61135c848285016112bc565b949350505050565b600081518084526020808501945080840160005b8381101561139457815187529582019590820190600101611378565b509495945050505050565b6040815260006113b26040830185611364565b82810360208401526113c48185611364565b95945050505050565b600080604083850312156113e057600080fd5b50508035926020909101359150565b60008060006060848603121561140457600080fd5b61140d846111d7565b925060208401359150611422604085016111f3565b90509250925092565b6000806040838503121561143e57600080fd5b611447836111d7565b946020939093013593505050565b6000806040838503121561146857600080fd5b823567ffffffffffffffff8082111561148057600080fd5b61148c868387016112bc565b93506020915081850135818111156114a357600080fd5b85019050601f810186136114b657600080fd5b80356114c46112dd82611298565b81815260059190911b820183019083810190888311156114e357600080fd5b928401925b82841015611501578335825292840192908401906114e8565b80955050505050509250929050565b6000806000806080858703121561152657600080fd5b5050823594602084013594506040840135936060013592509050565b6000806040838503121561155557600080fd5b8235915060208084013567ffffffffffffffff8082111561157557600080fd5b818601915086601f83011261158957600080fd5b81358181111561159b5761159b611251565b6115ad601f8201601f19168501611267565b915080825287848285010111156115c357600080fd5b80848401858401376000848284010152508093505050509250929050565b634e487b7160e01b600052603260045260246000fd5b6020808252600d908201526c125b9d985b1a5908185cdcd95d609a1b604082015260600190565b634e487b7160e01b600052601160045260246000fd5b6000600182016116465761164661161e565b5060010190565b818103818111156116605761166061161e565b92915050565b6020808252601c908201527f5072696365206d7573742062652067726561746572207468616e203000000000604082015260600190565b6020808252601590820152744e6f7420617574686f72697a6564206f7261636c6560581b604082015260600190565b600060208083528351808285015260005b818110156116f9578581018301518582016040015282016116dd565b506000604082860101526040601f19601f830116850101925050509291505056fea2646970667358221220b48dd05e16a09b05994629568103ad7945f26b6d97f6ff4e863d332c4eb8946664736f6c63430008130033","opcodes":"PUSH1 0x80 PUSH1 0x40 MSTORE CALLVALUE DUP1 ISZERO PUSH2 0x10 JUMPI PUSH1 0x0 DUP1 REVERT JUMPDEST POP PUSH2 0x1A CALLER PUSH2 0x23 JUMP JUMPDEST PUSH1 0x1 DUP1 SSTORE PUSH2 0x73 JUMP JUMPDEST PUSH1 0x0 DUP1 SLOAD PUSH1 0x1 PUSH1 0x1 PUSH1 0xA0 SHL SUB DUP4 DUP2 AND PUSH1 0x1 PUSH1 0x1 PUSH1 0xA0 SHL SUB NOT DUP4 AND DUP2 OR DUP5 SSTORE PUSH1 0x40 MLOAD SWAP2 SWAP1 SWAP3 AND SWAP3 DUP4 SWAP2 PUSH32 0x8BE0079C531659141344CD1FD0A4F28419497F9722A3DAAFE3B4186F6B6457E0 SWAP2 SWAP1 LOG3 POP POP JUMP JUMPDEST PUSH2 0x1750 DUP1 PUSH2 0x82 PUSH1 0x0 CODECOPY PUSH1 0x0 RETURN INVALID PUSH1 0x80 PUSH1 0x40 MSTORE CALLVALUE DUP1 ISZERO PUSH2 0x10 JUMPI PUSH1 0x0 DUP1 REVERT JUMPDEST POP PUSH1 0x4 CALLDATASIZE LT PUSH2 0x173 JUMPI PUSH1 0x0 CALLDATALOAD PUSH1 0xE0 SHR DUP1 PUSH4 0x650EF52F GT PUSH2 0xDE JUMPI DUP1 PUSH4 0x9D7F7E86 GT PUSH2 0x97 JUMPI DUP1 PUSH4 0xEC64F5BC GT PUSH2 0x71 JUMPI DUP1 PUSH4 0xEC64F5BC EQ PUSH2 0x434 JUMPI DUP1 PUSH4 0xF1A640F8 EQ PUSH2 0x447 JUMPI DUP1 PUSH4 0xF2FDE38B EQ PUSH2 0x44F JUMPI DUP1 PUSH4 0xF3413A62 EQ PUSH2 0x462 JUMPI PUSH1 0x0 DUP1 REVERT JUMPDEST DUP1 PUSH4 0x9D7F7E86 EQ PUSH2 0x3F8 JUMPI DUP1 PUSH4 0xACBFFC77 EQ PUSH2 0x401 JUMPI DUP1 PUSH4 0xC6C3F71E EQ PUSH2 0x414 JUMPI PUSH1 0x0 DUP1 REVERT JUMPDEST DUP1 PUSH4 0x650EF52F EQ PUSH2 0x36B JUMPI DUP1 PUSH4 0x715018A6 EQ PUSH2 0x37E JUMPI DUP1 PUSH4 0x828323F7 EQ PUSH2 0x386 JUMPI DUP1 PUSH4 0x83F4B732 EQ PUSH2 0x399 JUMPI DUP1 PUSH4 0x89EE3E97 EQ PUSH2 0x3BC JUMPI DUP1 PUSH4 0x8DA5CB5B EQ PUSH2 0x3E7 JUMPI PUSH1 0x0 DUP1 REVERT JUMPDEST DUP1 PUSH4 0x4055D60D GT PUSH2 0x130 JUMPI DUP1 PUSH4 0x4055D60D EQ PUSH2 0x22F JUMPI DUP1 PUSH4 0x564B51DE EQ PUSH2 0x288 JUMPI DUP1 PUSH4 0x589AFB06 EQ PUSH2 0x29B JUMPI DUP1 PUSH4 0x5F704F3E EQ PUSH2 0x2D9 JUMPI DUP1 PUSH4 0x60846BC6 EQ PUSH2 0x2EC JUMPI DUP1 PUSH4 0x61C992A3 EQ PUSH2 0x348 JUMPI PUSH1 0x0 DUP1 REVERT JUMPDEST DUP1 PUSH4 0x60EB2F5 EQ PUSH2 0x178 JUMPI DUP1 PUSH4 0xC2C69FA EQ PUSH2 0x1AB JUMPI DUP1 PUSH4 0x177AB321 EQ PUSH2 0x1C0 JUMPI DUP1 PUSH4 0x1B716B77 EQ PUSH2 0x1D3 JUMPI DUP1 PUSH4 0x31D98B3F EQ PUSH2 0x1F4 JUMPI DUP1 PUSH4 0x35A41F90 EQ PUSH2 0x21C JUMPI JUMPDEST PUSH1 0x0 DUP1 REVERT JUMPDEST PUSH2 0x198 PUSH2 0x186 CALLDATASIZE PUSH1 0x4 PUSH2 0x11BE JUMP JUMPDEST PUSH1 0x4 PUSH1 0x20 MSTORE PUSH1 0x0 SWAP1 DUP2 MSTORE PUSH1 0x40 SWAP1 KECCAK256 SLOAD DUP2 JUMP JUMPDEST PUSH1 0x40 MLOAD SWAP1 DUP2 MSTORE PUSH1 0x20 ADD JUMPDEST PUSH1 0x40 MLOAD DUP1 SWAP2 SUB SWAP1 RETURN JUMPDEST PUSH2 0x1BE PUSH2 0x1B9 CALLDATASIZE PUSH1 0x4 PUSH2 0x1203 JUMP JUMPDEST PUSH2 0x4D9 JUMP JUMPDEST STOP JUMPDEST PUSH2 0x1BE PUSH2 0x1CE CALLDATASIZE PUSH1 0x4 PUSH2 0x1236 JUMP JUMPDEST PUSH2 0x541 JUMP JUMPDEST PUSH2 0x1E6 PUSH2 0x1E1 CALLDATASIZE PUSH1 0x4 PUSH2 0x1327 JUMP JUMPDEST PUSH2 0x56B JUMP JUMPDEST PUSH1 0x40 MLOAD PUSH2 0x1A2 SWAP3 SWAP2 SWAP1 PUSH2 0x139F JUMP JUMPDEST PUSH2 0x207 PUSH2 0x202 CALLDATASIZE PUSH1 0x4 PUSH2 0x11BE JUMP JUMPDEST PUSH2 0x76C JUMP JUMPDEST PUSH1 0x40 DUP1 MLOAD SWAP3 DUP4 MSTORE PUSH1 0x20 DUP4 ADD SWAP2 SWAP1 SWAP2 MSTORE ADD PUSH2 0x1A2 JUMP JUMPDEST PUSH2 0x1BE PUSH2 0x22A CALLDATASIZE PUSH1 0x4 PUSH2 0x13CD JUMP JUMPDEST PUSH2 0x883 JUMP JUMPDEST PUSH2 0x242 PUSH2 0x23D CALLDATASIZE PUSH1 0x4 PUSH2 0x11BE JUMP JUMPDEST PUSH2 0x979 JUMP JUMPDEST PUSH1 0x40 MLOAD PUSH2 0x1A2 SWAP2 SWAP1 DUP2 MLOAD DUP2 MSTORE PUSH1 0x20 DUP1 DUP4 ADD MLOAD SWAP1 DUP3 ADD MSTORE PUSH1 0x40 DUP1 DUP4 ADD MLOAD SWAP1 DUP3 ADD MSTORE PUSH1 0x60 DUP1 DUP4 ADD MLOAD SWAP1 DUP3 ADD MSTORE PUSH1 0x80 SWAP2 DUP3 ADD MLOAD PUSH1 0x1 PUSH1 0x1 PUSH1 0xA0 SHL SUB AND SWAP2 DUP2 ADD SWAP2 SWAP1 SWAP2 MSTORE PUSH1 0xA0 ADD SWAP1 JUMP JUMPDEST PUSH2 0x1BE PUSH2 0x296 CALLDATASIZE PUSH1 0x4 PUSH2 0x13EF JUMP JUMPDEST PUSH2 0xA0C JUMP JUMPDEST PUSH2 0x2C9 PUSH2 0x2A9 CALLDATASIZE PUSH1 0x4 PUSH2 0x142B JUMP JUMPDEST PUSH1 0x9 PUSH1 0x20 SWAP1 DUP2 MSTORE PUSH1 0x0 SWAP3 DUP4 MSTORE PUSH1 0x40 DUP1 DUP5 KECCAK256 SWAP1 SWAP2 MSTORE SWAP1 DUP3 MSTORE SWAP1 KECCAK256 SLOAD PUSH1 0xFF AND DUP2 JUMP JUMPDEST PUSH1 0x40 MLOAD SWAP1 ISZERO ISZERO DUP2 MSTORE PUSH1 0x20 ADD PUSH2 0x1A2 JUMP JUMPDEST PUSH2 0x1BE PUSH2 0x2E7 CALLDATASIZE PUSH1 0x4 PUSH2 0x13CD JUMP JUMPDEST PUSH2 0xA49 JUMP JUMPDEST PUSH2 0x324 PUSH2 0x2FA CALLDATASIZE PUSH1 0x4 PUSH2 0x11BE JUMP JUMPDEST PUSH1 0x7 PUSH1 0x20 MSTORE PUSH1 0x0 SWAP1 DUP2 MSTORE PUSH1 0x40 SWAP1 KECCAK256 DUP1 SLOAD PUSH1 0x1 DUP3 ADD SLOAD PUSH1 0x2 SWAP1 SWAP3 ADD SLOAD SWAP1 SWAP2 SWAP1 PUSH1 0x1 PUSH1 0x1 PUSH1 0xA0 SHL SUB AND DUP4 JUMP JUMPDEST PUSH1 0x40 DUP1 MLOAD SWAP4 DUP5 MSTORE PUSH1 0x20 DUP5 ADD SWAP3 SWAP1 SWAP3 MSTORE PUSH1 0x1 PUSH1 0x1 PUSH1 0xA0 SHL SUB AND SWAP1 DUP3 ADD MSTORE PUSH1 0x60 ADD PUSH2 0x1A2 JUMP JUMPDEST PUSH2 0x2C9 PUSH2 0x356 CALLDATASIZE PUSH1 0x4 PUSH2 0x1236 JUMP JUMPDEST PUSH1 0x2 PUSH1 0x20 MSTORE PUSH1 0x0 SWAP1 DUP2 MSTORE PUSH1 0x40 SWAP1 KECCAK256 SLOAD PUSH1 0xFF AND DUP2 JUMP JUMPDEST PUSH2 0x1BE PUSH2 0x379 CALLDATASIZE PUSH1 0x4 PUSH2 0x1455 JUMP JUMPDEST PUSH2 0xBD6 JUMP JUMPDEST PUSH2 0x1BE PUSH2 0xEE5 JUMP JUMPDEST PUSH2 0x2C9 PUSH2 0x394 CALLDATASIZE PUSH1 0x4 PUSH2 0x11BE JUMP JUMPDEST PUSH2 0xEF9 JUMP JUMPDEST PUSH2 0x2C9 PUSH2 0x3A7 CALLDATASIZE PUSH1 0x4 PUSH2 0x11BE JUMP JUMPDEST PUSH1 0x5 PUSH1 0x20 MSTORE PUSH1 0x0 SWAP1 DUP2 MSTORE PUSH1 0x40 SWAP1 KECCAK256 SLOAD PUSH1 0xFF AND DUP2 JUMP JUMPDEST PUSH1 0x6 SLOAD PUSH2 0x3CF SWAP1 PUSH1 0x1 PUSH1 0x1 PUSH1 0xA0 SHL SUB AND DUP2 JUMP JUMPDEST PUSH1 0x40 MLOAD PUSH1 0x1 PUSH1 0x1 PUSH1 0xA0 SHL SUB SWAP1 SWAP2 AND DUP2 MSTORE PUSH1 0x20 ADD PUSH2 0x1A2 JUMP JUMPDEST PUSH1 0x0 SLOAD PUSH1 0x1 PUSH1 0x1 PUSH1 0xA0 SHL SUB AND PUSH2 0x3CF JUMP JUMPDEST PUSH2 0x198 PUSH2 0xE10 DUP2 JUMP JUMPDEST PUSH2 0x1BE PUSH2 0x40F CALLDATASIZE PUSH1 0x4 PUSH2 0x1510 JUMP JUMPDEST PUSH2 0xF5E JUMP JUMPDEST PUSH2 0x198 PUSH2 0x422 CALLDATASIZE PUSH1 0x4 PUSH2 0x11BE JUMP JUMPDEST PUSH1 0x3 PUSH1 0x20 MSTORE PUSH1 0x0 SWAP1 DUP2 MSTORE PUSH1 0x40 SWAP1 KECCAK256 SLOAD DUP2 JUMP JUMPDEST PUSH2 0x1BE PUSH2 0x442 CALLDATASIZE PUSH1 0x4 PUSH2 0x1542 JUMP JUMPDEST PUSH2 0x1048 JUMP JUMPDEST PUSH2 0x198 PUSH1 0x12 DUP2 JUMP JUMPDEST PUSH2 0x1BE PUSH2 0x45D CALLDATASIZE PUSH1 0x4 PUSH2 0x1236 JUMP JUMPDEST PUSH2 0x109B JUMP JUMPDEST PUSH2 0x4A8 PUSH2 0x470 CALLDATASIZE PUSH1 0x4 PUSH2 0x11BE JUMP JUMPDEST PUSH1 0x8 PUSH1 0x20 MSTORE PUSH1 0x0 SWAP1 DUP2 MSTORE PUSH1 0x40 SWAP1 KECCAK256 DUP1 SLOAD PUSH1 0x1 DUP3 ADD SLOAD PUSH1 0x2 DUP4 ADD SLOAD PUSH1 0x3 DUP5 ADD SLOAD PUSH1 0x4 SWAP1 SWAP5 ADD SLOAD SWAP3 SWAP4 SWAP2 SWAP3 SWAP1 SWAP2 SWAP1 PUSH1 0x1 PUSH1 0x1 PUSH1 0xA0 SHL SUB AND DUP6 JUMP JUMPDEST PUSH1 0x40 DUP1 MLOAD SWAP6 DUP7 MSTORE PUSH1 0x20 DUP7 ADD SWAP5 SWAP1 SWAP5 MSTORE SWAP3 DUP5 ADD SWAP2 SWAP1 SWAP2 MSTORE PUSH1 0x60 DUP4 ADD MSTORE PUSH1 0x1 PUSH1 0x1 PUSH1 0xA0 SHL SUB AND PUSH1 0x80 DUP3 ADD MSTORE PUSH1 0xA0 ADD PUSH2 0x1A2 JUMP JUMPDEST PUSH2 0x4E1 PUSH2 0x1114 JUMP JUMPDEST PUSH1 0x1 PUSH1 0x1 PUSH1 0xA0 SHL SUB DUP3 AND PUSH1 0x0 DUP2 DUP2 MSTORE PUSH1 0x2 PUSH1 0x20 SWAP1 DUP2 MSTORE PUSH1 0x40 SWAP2 DUP3 SWAP1 KECCAK256 DUP1 SLOAD PUSH1 0xFF NOT AND DUP6 ISZERO ISZERO SWAP1 DUP2 OR SWAP1 SWAP2 SSTORE SWAP2 MLOAD SWAP2 DUP3 MSTORE PUSH32 0x82A8FB1E779EA45AD427CC612E47087F5386A567E49DCE488185E40646FA48D5 SWAP2 ADD JUMPDEST PUSH1 0x40 MLOAD DUP1 SWAP2 SUB SWAP1 LOG2 POP POP JUMP JUMPDEST PUSH2 0x549 PUSH2 0x1114 JUMP JUMPDEST PUSH1 0x6 DUP1 SLOAD PUSH1 0x1 PUSH1 0x1 PUSH1 0xA0 SHL SUB NOT AND PUSH1 0x1 PUSH1 0x1 PUSH1 0xA0 SHL SUB SWAP3 SWAP1 SWAP3 AND SWAP2 SWAP1 SWAP2 OR SWAP1 SSTORE JUMP JUMPDEST PUSH1 0x60 DUP1 PUSH1 0x0 DUP4 MLOAD PUSH8 0xFFFFFFFFFFFFFFFF DUP2 GT ISZERO PUSH2 0x58A JUMPI PUSH2 0x58A PUSH2 0x1251 JUMP JUMPDEST PUSH1 0x40 MLOAD SWAP1 DUP1 DUP3 MSTORE DUP1 PUSH1 0x20 MUL PUSH1 0x20 ADD DUP3 ADD PUSH1 0x40 MSTORE DUP1 ISZERO PUSH2 0x5B3 JUMPI DUP2 PUSH1 0x20 ADD PUSH1 0x20 DUP3 MUL DUP1 CALLDATASIZE DUP4 CALLDATACOPY ADD SWAP1 POP JUMPDEST POP SWAP1 POP PUSH1 0x0 DUP5 MLOAD PUSH8 0xFFFFFFFFFFFFFFFF DUP2 GT ISZERO PUSH2 0x5D2 JUMPI PUSH2 0x5D2 PUSH2 0x1251 JUMP JUMPDEST PUSH1 0x40 MLOAD SWAP1 DUP1 DUP3 MSTORE DUP1 PUSH1 0x20 MUL PUSH1 0x20 ADD DUP3 ADD PUSH1 0x40 MSTORE DUP1 ISZERO PUSH2 0x5FB JUMPI DUP2 PUSH1 0x20 ADD PUSH1 0x20 DUP3 MUL DUP1 CALLDATASIZE DUP4 CALLDATACOPY ADD SWAP1 POP JUMPDEST POP SWAP1 POP PUSH1 0x0 JUMPDEST DUP6 MLOAD DUP2 LT ISZERO PUSH2 0x761 JUMPI PUSH1 0x5 PUSH1 0x0 DUP8 DUP4 DUP2 MLOAD DUP2 LT PUSH2 0x620 JUMPI PUSH2 0x620 PUSH2 0x15E1 JUMP JUMPDEST PUSH1 0x20 SWAP1 DUP2 MUL SWAP2 SWAP1 SWAP2 ADD DUP2 ADD MLOAD DUP3 MSTORE DUP2 ADD SWAP2 SWAP1 SWAP2 MSTORE PUSH1 0x40 ADD PUSH1 0x0 KECCAK256 SLOAD PUSH1 0xFF AND PUSH2 0x663 JUMPI PUSH1 0x40 MLOAD PUSH3 0x461BCD PUSH1 0xE5 SHL DUP2 MSTORE PUSH1 0x4 ADD PUSH2 0x65A SWAP1 PUSH2 0x15F7 JUMP JUMPDEST PUSH1 0x40 MLOAD DUP1 SWAP2 SUB SWAP1 REVERT JUMPDEST PUSH1 0x0 PUSH1 0x7 PUSH1 0x0 DUP9 DUP5 DUP2 MLOAD DUP2 LT PUSH2 0x67B JUMPI PUSH2 0x67B PUSH2 0x15E1 JUMP JUMPDEST PUSH1 0x20 SWAP1 DUP2 MUL SWAP2 SWAP1 SWAP2 ADD DUP2 ADD MLOAD DUP3 MSTORE DUP2 DUP2 ADD SWAP3 SWAP1 SWAP3 MSTORE PUSH1 0x40 SWAP1 DUP2 ADD PUSH1 0x0 KECCAK256 DUP2 MLOAD PUSH1 0x60 DUP2 ADD DUP4 MSTORE DUP2 SLOAD DUP2 MSTORE PUSH1 0x1 DUP3 ADD SLOAD SWAP4 DUP2 ADD DUP5 SWAP1 MSTORE PUSH1 0x2 SWAP1 SWAP2 ADD SLOAD PUSH1 0x1 PUSH1 0x1 PUSH1 0xA0 SHL SUB AND SWAP2 DUP2 ADD SWAP2 SWAP1 SWAP2 MSTORE SWAP2 POP PUSH2 0x709 JUMPI PUSH1 0x40 MLOAD PUSH3 0x461BCD PUSH1 0xE5 SHL DUP2 MSTORE PUSH1 0x20 PUSH1 0x4 DUP3 ADD MSTORE PUSH1 0x13 PUSH1 0x24 DUP3 ADD MSTORE PUSH19 0x5072696365206E6F7420617661696C61626C65 PUSH1 0x68 SHL PUSH1 0x44 DUP3 ADD MSTORE PUSH1 0x64 ADD PUSH2 0x65A JUMP JUMPDEST DUP1 PUSH1 0x0 ADD MLOAD DUP5 DUP4 DUP2 MLOAD DUP2 LT PUSH2 0x720 JUMPI PUSH2 0x720 PUSH2 0x15E1 JUMP JUMPDEST PUSH1 0x20 MUL PUSH1 0x20 ADD ADD DUP2 DUP2 MSTORE POP POP DUP1 PUSH1 0x20 ADD MLOAD DUP4 DUP4 DUP2 MLOAD DUP2 LT PUSH2 0x743 JUMPI PUSH2 0x743 PUSH2 0x15E1 JUMP JUMPDEST PUSH1 0x20 SWAP1 DUP2 MUL SWAP2 SWAP1 SWAP2 ADD ADD MSTORE POP DUP1 PUSH2 0x759 DUP2 PUSH2 0x1634 JUMP JUMPDEST SWAP2 POP POP PUSH2 0x601 JUMP JUMPDEST POP SWAP1 SWAP5 SWAP1 SWAP4 POP SWAP2 POP POP JUMP JUMPDEST PUSH1 0x0 DUP2 DUP2 MSTORE PUSH1 0x5 PUSH1 0x20 MSTORE PUSH1 0x40 DUP2 KECCAK256 SLOAD DUP2 SWAP1 DUP4 SWAP1 PUSH1 0xFF AND PUSH2 0x79E JUMPI PUSH1 0x40 MLOAD PUSH3 0x461BCD PUSH1 0xE5 SHL DUP2 MSTORE PUSH1 0x4 ADD PUSH2 0x65A SWAP1 PUSH2 0x15F7 JUMP JUMPDEST PUSH1 0x0 DUP5 DUP2 MSTORE PUSH1 0x7 PUSH1 0x20 SWAP1 DUP2 MSTORE PUSH1 0x40 SWAP2 DUP3 SWAP1 KECCAK256 DUP3 MLOAD PUSH1 0x60 DUP2 ADD DUP5 MSTORE DUP2 SLOAD DUP2 MSTORE PUSH1 0x1 DUP3 ADD SLOAD SWAP3 DUP2 ADD DUP4 SWAP1 MSTORE PUSH1 0x2 SWAP1 SWAP2 ADD SLOAD PUSH1 0x1 PUSH1 0x1 PUSH1 0xA0 SHL SUB AND SWAP3 DUP2 ADD SWAP3 SWAP1 SWAP3 MSTORE PUSH2 0x81F JUMPI PUSH1 0x40 MLOAD PUSH3 0x461BCD PUSH1 0xE5 SHL DUP2 MSTORE PUSH1 0x20 PUSH1 0x4 DUP3 ADD MSTORE PUSH1 0x13 PUSH1 0x24 DUP3 ADD MSTORE PUSH19 0x5072696365206E6F7420617661696C61626C65 PUSH1 0x68 SHL PUSH1 0x44 DUP3 ADD MSTORE PUSH1 0x64 ADD PUSH2 0x65A JUMP JUMPDEST PUSH2 0xE10 DUP2 PUSH1 0x20 ADD MLOAD TIMESTAMP PUSH2 0x832 SWAP2 SWAP1 PUSH2 0x164D JUMP JUMPDEST GT ISZERO PUSH2 0x870 JUMPI PUSH1 0x40 MLOAD PUSH3 0x461BCD PUSH1 0xE5 SHL DUP2 MSTORE PUSH1 0x20 PUSH1 0x4 DUP3 ADD MSTORE PUSH1 0xD PUSH1 0x24 DUP3 ADD MSTORE PUSH13 0x141C9A58D9481D1BDBC81BDB19 PUSH1 0x9A SHL PUSH1 0x44 DUP3 ADD MSTORE PUSH1 0x64 ADD PUSH2 0x65A JUMP JUMPDEST DUP1 MLOAD PUSH1 0x20 SWAP1 SWAP2 ADD MLOAD SWAP1 SWAP4 POP SWAP2 POP POP SWAP2 POP SWAP2 JUMP JUMPDEST PUSH2 0x88B PUSH2 0x1114 JUMP JUMPDEST PUSH1 0x0 DUP3 DUP2 MSTORE PUSH1 0x5 PUSH1 0x20 MSTORE PUSH1 0x40 SWAP1 KECCAK256 SLOAD PUSH1 0xFF AND PUSH2 0x8B9 JUMPI PUSH1 0x40 MLOAD PUSH3 0x461BCD PUSH1 0xE5 SHL DUP2 MSTORE PUSH1 0x4 ADD PUSH2 0x65A SWAP1 PUSH2 0x15F7 JUMP JUMPDEST PUSH1 0x0 DUP2 GT PUSH2 0x8D9 JUMPI PUSH1 0x40 MLOAD PUSH3 0x461BCD PUSH1 0xE5 SHL DUP2 MSTORE PUSH1 0x4 ADD PUSH2 0x65A SWAP1 PUSH2 0x1666 JUMP JUMPDEST PUSH1 0x40 DUP1 MLOAD PUSH1 0x60 DUP1 DUP3 ADD DUP4 MSTORE DUP4 DUP3 MSTORE TIMESTAMP PUSH1 0x20 DUP1 DUP5 ADD DUP3 DUP2 MSTORE CALLER DUP6 DUP8 ADD DUP2 DUP2 MSTORE PUSH1 0x0 DUP11 DUP2 MSTORE PUSH1 0x7 DUP6 MSTORE DUP9 DUP2 KECCAK256 SWAP8 MLOAD DUP9 SSTORE SWAP3 MLOAD PUSH1 0x1 DUP9 ADD SSTORE MLOAD PUSH1 0x2 SWAP1 SWAP7 ADD DUP1 SLOAD PUSH1 0x1 PUSH1 0x1 PUSH1 0xA0 SHL SUB NOT AND PUSH1 0x1 PUSH1 0x1 PUSH1 0xA0 SHL SUB SWAP1 SWAP8 AND SWAP7 SWAP1 SWAP7 OR SWAP1 SWAP6 SSTORE PUSH1 0x4 DUP3 MSTORE DUP6 SWAP1 KECCAK256 DUP3 SWAP1 SSTORE DUP5 MLOAD DUP7 DUP2 MSTORE SWAP1 DUP2 ADD SWAP4 SWAP1 SWAP4 MSTORE SWAP3 DUP3 ADD SWAP3 SWAP1 SWAP3 MSTORE DUP4 SWAP2 PUSH32 0x92367F24A29E268FEDBB5FCE0722F112085377056482DFFC7669CA7B4649D71F SWAP2 ADD PUSH2 0x535 JUMP JUMPDEST PUSH2 0x9B4 PUSH1 0x40 MLOAD DUP1 PUSH1 0xA0 ADD PUSH1 0x40 MSTORE DUP1 PUSH1 0x0 DUP2 MSTORE PUSH1 0x20 ADD PUSH1 0x0 DUP2 MSTORE PUSH1 0x20 ADD PUSH1 0x0 DUP2 MSTORE PUSH1 0x20 ADD PUSH1 0x0 DUP2 MSTORE PUSH1 0x20 ADD PUSH1 0x0 PUSH1 0x1 PUSH1 0x1 PUSH1 0xA0 SHL SUB AND DUP2 MSTORE POP SWAP1 JUMP JUMPDEST POP PUSH1 0x0 SWAP1 DUP2 MSTORE PUSH1 0x8 PUSH1 0x20 SWAP1 DUP2 MSTORE PUSH1 0x40 SWAP2 DUP3 SWAP1 KECCAK256 DUP3 MLOAD PUSH1 0xA0 DUP2 ADD DUP5 MSTORE DUP2 SLOAD DUP2 MSTORE PUSH1 0x1 DUP3 ADD SLOAD SWAP3 DUP2 ADD SWAP3 SWAP1 SWAP3 MSTORE PUSH1 0x2 DUP2 ADD SLOAD SWAP3 DUP3 ADD SWAP3 SWAP1 SWAP3 MSTORE PUSH1 0x3 DUP3 ADD SLOAD PUSH1 0x60 DUP3 ADD MSTORE PUSH1 0x4 SWAP1 SWAP2 ADD SLOAD PUSH1 0x1 PUSH1 0x1 PUSH1 0xA0 SHL SUB AND PUSH1 0x80 DUP3 ADD MSTORE SWAP1 JUMP JUMPDEST PUSH2 0xA14 PUSH2 0x1114 JUMP JUMPDEST PUSH1 0x1 PUSH1 0x1 PUSH1 0xA0 SHL SUB SWAP3 SWAP1 SWAP3 AND PUSH1 0x0 SWAP1 DUP2 MSTORE PUSH1 0x9 PUSH1 0x20 SWAP1 DUP2 MSTORE PUSH1 0x40 DUP1 DUP4 KECCAK256 SWAP4 DUP4 MSTORE SWAP3 SWAP1 MSTORE KECCAK256 DUP1 SLOAD PUSH1 0xFF NOT AND SWAP2 ISZERO ISZERO SWAP2 SWAP1 SWAP2 OR SWAP1 SSTORE JUMP JUMPDEST CALLER PUSH1 0x0 SWAP1 DUP2 MSTORE PUSH1 0x2 PUSH1 0x20 MSTORE PUSH1 0x40 SWAP1 KECCAK256 SLOAD PUSH1 0xFF AND PUSH2 0xA78 JUMPI PUSH1 0x40 MLOAD PUSH3 0x461BCD PUSH1 0xE5 SHL DUP2 MSTORE PUSH1 0x4 ADD PUSH2 0x65A SWAP1 PUSH2 0x169D JUMP JUMPDEST PUSH1 0x0 DUP3 DUP2 MSTORE PUSH1 0x5 PUSH1 0x20 MSTORE PUSH1 0x40 SWAP1 KECCAK256 SLOAD DUP3 SWAP1 PUSH1 0xFF AND PUSH2 0xAA8 JUMPI PUSH1 0x40 MLOAD PUSH3 0x461BCD PUSH1 0xE5 SHL DUP2 MSTORE PUSH1 0x4 ADD PUSH2 0x65A SWAP1 PUSH2 0x15F7 JUMP JUMPDEST CALLER PUSH1 0x0 SWAP1 DUP2 MSTORE PUSH1 0x9 PUSH1 0x20 SWAP1 DUP2 MSTORE PUSH1 0x40 DUP1 DUP4 KECCAK256 DUP7 DUP5 MSTORE SWAP1 SWAP2 MSTORE SWAP1 KECCAK256 SLOAD PUSH1 0xFF AND PUSH2 0xB12 JUMPI PUSH1 0x40 MLOAD PUSH3 0x461BCD PUSH1 0xE5 SHL DUP2 MSTORE PUSH1 0x20 PUSH1 0x4 DUP3 ADD MSTORE PUSH1 0x17 PUSH1 0x24 DUP3 ADD MSTORE PUSH32 0x4E6F2061636365737320746F2074686973206173736574000000000000000000 PUSH1 0x44 DUP3 ADD MSTORE PUSH1 0x64 ADD PUSH2 0x65A JUMP JUMPDEST PUSH1 0x0 DUP3 GT PUSH2 0xB32 JUMPI PUSH1 0x40 MLOAD PUSH3 0x461BCD PUSH1 0xE5 SHL DUP2 MSTORE PUSH1 0x4 ADD PUSH2 0x65A SWAP1 PUSH2 0x1666 JUMP JUMPDEST PUSH1 0x40 DUP1 MLOAD PUSH1 0x60 DUP1 DUP3 ADD DUP4 MSTORE DUP5 DUP3 MSTORE TIMESTAMP PUSH1 0x20 DUP1 DUP5 ADD DUP3 DUP2 MSTORE CALLER DUP6 DUP8 ADD DUP2 DUP2 MSTORE PUSH1 0x0 DUP12 DUP2 MSTORE PUSH1 0x7 DUP6 MSTORE DUP9 DUP2 KECCAK256 SWAP8 MLOAD DUP9 SSTORE SWAP3 MLOAD PUSH1 0x1 DUP9 ADD SSTORE MLOAD PUSH1 0x2 SWAP1 SWAP7 ADD DUP1 SLOAD PUSH1 0x1 PUSH1 0x1 PUSH1 0xA0 SHL SUB NOT AND PUSH1 0x1 PUSH1 0x1 PUSH1 0xA0 SHL SUB SWAP1 SWAP8 AND SWAP7 SWAP1 SWAP7 OR SWAP1 SWAP6 SSTORE PUSH1 0x4 DUP3 MSTORE DUP6 SWAP1 KECCAK256 DUP3 SWAP1 SSTORE DUP5 MLOAD DUP8 DUP2 MSTORE SWAP1 DUP2 ADD SWAP4 SWAP1 SWAP4 MSTORE DUP3 DUP5 ADD MSTORE SWAP2 MLOAD DUP6 SWAP3 PUSH32 0x92367F24A29E268FEDBB5FCE0722F112085377056482DFFC7669CA7B4649D71F SWAP3 DUP3 SWAP1 SUB ADD SWAP1 LOG2 POP POP POP JUMP JUMPDEST CALLER PUSH1 0x0 SWAP1 DUP2 MSTORE PUSH1 0x2 PUSH1 0x20 MSTORE PUSH1 0x40 SWAP1 KECCAK256 SLOAD PUSH1 0xFF AND PUSH2 0xC05 JUMPI PUSH1 0x40 MLOAD PUSH3 0x461BCD PUSH1 0xE5 SHL DUP2 MSTORE PUSH1 0x4 ADD PUSH2 0x65A SWAP1 PUSH2 0x169D JUMP JUMPDEST DUP1 MLOAD DUP3 MLOAD EQ PUSH2 0xC4E JUMPI PUSH1 0x40 MLOAD PUSH3 0x461BCD PUSH1 0xE5 SHL DUP2 MSTORE PUSH1 0x20 PUSH1 0x4 DUP3 ADD MSTORE PUSH1 0x15 PUSH1 0x24 DUP3 ADD MSTORE PUSH21 0x82E4E4C2F240D8CADCCEE8D040DAD2E6DAC2E8C6D PUSH1 0x5B SHL PUSH1 0x44 DUP3 ADD MSTORE PUSH1 0x64 ADD PUSH2 0x65A JUMP JUMPDEST PUSH1 0x0 JUMPDEST DUP3 MLOAD DUP2 LT ISZERO PUSH2 0xEE0 JUMPI PUSH1 0x5 PUSH1 0x0 DUP5 DUP4 DUP2 MLOAD DUP2 LT PUSH2 0xC70 JUMPI PUSH2 0xC70 PUSH2 0x15E1 JUMP JUMPDEST PUSH1 0x20 SWAP1 DUP2 MUL SWAP2 SWAP1 SWAP2 ADD DUP2 ADD MLOAD DUP3 MSTORE DUP2 ADD SWAP2 SWAP1 SWAP2 MSTORE PUSH1 0x40 ADD PUSH1 0x0 KECCAK256 SLOAD PUSH1 0xFF AND PUSH2 0xCAA JUMPI PUSH1 0x40 MLOAD PUSH3 0x461BCD PUSH1 0xE5 SHL DUP2 MSTORE PUSH1 0x4 ADD PUSH2 0x65A SWAP1 PUSH2 0x15F7 JUMP JUMPDEST CALLER PUSH1 0x0 SWAP1 DUP2 MSTORE PUSH1 0x9 PUSH1 0x20 MSTORE PUSH1 0x40 DUP2 KECCAK256 DUP5 MLOAD SWAP1 SWAP2 SWAP1 DUP6 SWAP1 DUP5 SWAP1 DUP2 LT PUSH2 0xCD0 JUMPI PUSH2 0xCD0 PUSH2 0x15E1 JUMP JUMPDEST PUSH1 0x20 SWAP1 DUP2 MUL SWAP2 SWAP1 SWAP2 ADD DUP2 ADD MLOAD DUP3 MSTORE DUP2 ADD SWAP2 SWAP1 SWAP2 MSTORE PUSH1 0x40 ADD PUSH1 0x0 KECCAK256 SLOAD PUSH1 0xFF AND PUSH2 0xD2F JUMPI PUSH1 0x40 MLOAD PUSH3 0x461BCD PUSH1 0xE5 SHL DUP2 MSTORE PUSH1 0x20 PUSH1 0x4 DUP3 ADD MSTORE PUSH1 0x12 PUSH1 0x24 DUP3 ADD MSTORE PUSH18 0x139BC81858D8D95CDCC81D1BC8185CDCD95D PUSH1 0x72 SHL PUSH1 0x44 DUP3 ADD MSTORE PUSH1 0x64 ADD PUSH2 0x65A JUMP JUMPDEST PUSH1 0x0 DUP3 DUP3 DUP2 MLOAD DUP2 LT PUSH2 0xD43 JUMPI PUSH2 0xD43 PUSH2 0x15E1 JUMP JUMPDEST PUSH1 0x20 MUL PUSH1 0x20 ADD ADD MLOAD GT PUSH2 0xD68 JUMPI PUSH1 0x40 MLOAD PUSH3 0x461BCD PUSH1 0xE5 SHL DUP2 MSTORE PUSH1 0x4 ADD PUSH2 0x65A SWAP1 PUSH2 0x1666 JUMP JUMPDEST PUSH1 0x40 MLOAD DUP1 PUSH1 0x60 ADD PUSH1 0x40 MSTORE DUP1 DUP4 DUP4 DUP2 MLOAD DUP2 LT PUSH2 0xD85 JUMPI PUSH2 0xD85 PUSH2 0x15E1 JUMP JUMPDEST PUSH1 0x20 MUL PUSH1 0x20 ADD ADD MLOAD DUP2 MSTORE PUSH1 0x20 ADD TIMESTAMP DUP2 MSTORE PUSH1 0x20 ADD CALLER PUSH1 0x1 PUSH1 0x1 PUSH1 0xA0 SHL SUB AND DUP2 MSTORE POP PUSH1 0x7 PUSH1 0x0 DUP6 DUP5 DUP2 MLOAD DUP2 LT PUSH2 0xDBB JUMPI PUSH2 0xDBB PUSH2 0x15E1 JUMP JUMPDEST PUSH1 0x20 MUL PUSH1 0x20 ADD ADD MLOAD DUP2 MSTORE PUSH1 0x20 ADD SWAP1 DUP2 MSTORE PUSH1 0x20 ADD PUSH1 0x0 KECCAK256 PUSH1 0x0 DUP3 ADD MLOAD DUP2 PUSH1 0x0 ADD SSTORE PUSH1 0x20 DUP3 ADD MLOAD DUP2 PUSH1 0x1 ADD SSTORE PUSH1 0x40 DUP3 ADD MLOAD DUP2 PUSH1 0x2 ADD PUSH1 0x0 PUSH2 0x100 EXP DUP2 SLOAD DUP2 PUSH1 0x1 PUSH1 0x1 PUSH1 0xA0 SHL SUB MUL NOT AND SWAP1 DUP4 PUSH1 0x1 PUSH1 0x1 PUSH1 0xA0 SHL SUB AND MUL OR SWAP1 SSTORE POP SWAP1 POP POP TIMESTAMP PUSH1 0x4 PUSH1 0x0 DUP6 DUP5 DUP2 MLOAD DUP2 LT PUSH2 0xE2C JUMPI PUSH2 0xE2C PUSH2 0x15E1 JUMP JUMPDEST PUSH1 0x20 MUL PUSH1 0x20 ADD ADD MLOAD DUP2 MSTORE PUSH1 0x20 ADD SWAP1 DUP2 MSTORE PUSH1 0x20 ADD PUSH1 0x0 KECCAK256 DUP2 SWAP1 SSTORE POP DUP3 DUP2 DUP2 MLOAD DUP2 LT PUSH2 0xE58 JUMPI PUSH2 0xE58 PUSH2 0x15E1 JUMP JUMPDEST PUSH1 0x20 MUL PUSH1 0x20 ADD ADD MLOAD PUSH32 0x92367F24A29E268FEDBB5FCE0722F112085377056482DFFC7669CA7B4649D71F DUP4 DUP4 DUP2 MLOAD DUP2 LT PUSH2 0xE93 JUMPI PUSH2 0xE93 PUSH2 0x15E1 JUMP JUMPDEST PUSH1 0x20 MUL PUSH1 0x20 ADD ADD MLOAD CALLER TIMESTAMP PUSH1 0x40 MLOAD PUSH2 0xEC6 SWAP4 SWAP3 SWAP2 SWAP1 SWAP3 DUP4 MSTORE PUSH1 0x1 PUSH1 0x1 PUSH1 0xA0 SHL SUB SWAP2 SWAP1 SWAP2 AND PUSH1 0x20 DUP4 ADD MSTORE PUSH1 0x40 DUP3 ADD MSTORE PUSH1 0x60 ADD SWAP1 JUMP JUMPDEST PUSH1 0x40 MLOAD DUP1 SWAP2 SUB SWAP1 LOG2 DUP1 PUSH2 0xED8 DUP2 PUSH2 0x1634 JUMP JUMPDEST SWAP2 POP POP PUSH2 0xC51 JUMP JUMPDEST POP POP POP JUMP JUMPDEST PUSH2 0xEED PUSH2 0x1114 JUMP JUMPDEST PUSH2 0xEF7 PUSH1 0x0 PUSH2 0x116E JUMP JUMPDEST JUMP JUMPDEST PUSH1 0x0 DUP2 DUP2 MSTORE PUSH1 0x7 PUSH1 0x20 SWAP1 DUP2 MSTORE PUSH1 0x40 DUP1 DUP4 KECCAK256 DUP2 MLOAD PUSH1 0x60 DUP2 ADD DUP4 MSTORE DUP2 SLOAD DUP2 MSTORE PUSH1 0x1 DUP3 ADD SLOAD SWAP4 DUP2 ADD DUP5 SWAP1 MSTORE PUSH1 0x2 SWAP1 SWAP2 ADD SLOAD PUSH1 0x1 PUSH1 0x1 PUSH1 0xA0 SHL SUB AND SWAP2 DUP2 ADD SWAP2 SWAP1 SWAP2 MSTORE SWAP1 ISZERO DUP1 ISZERO SWAP1 PUSH2 0xF57 JUMPI POP PUSH2 0xE10 DUP2 PUSH1 0x20 ADD MLOAD TIMESTAMP PUSH2 0xF54 SWAP2 SWAP1 PUSH2 0x164D JUMP JUMPDEST GT ISZERO JUMPDEST SWAP4 SWAP3 POP POP POP JUMP JUMPDEST CALLER PUSH1 0x0 SWAP1 DUP2 MSTORE PUSH1 0x2 PUSH1 0x20 MSTORE PUSH1 0x40 SWAP1 KECCAK256 SLOAD PUSH1 0xFF AND PUSH2 0xF8D JUMPI PUSH1 0x40 MLOAD PUSH3 0x461BCD PUSH1 0xE5 SHL DUP2 MSTORE PUSH1 0x4 ADD PUSH2 0x65A SWAP1 PUSH2 0x169D JUMP JUMPDEST PUSH1 0x40 DUP1 MLOAD PUSH1 0xA0 DUP2 ADD DUP3 MSTORE DUP5 DUP2 MSTORE PUSH1 0x20 DUP1 DUP3 ADD DUP6 DUP2 MSTORE DUP3 DUP5 ADD DUP6 DUP2 MSTORE TIMESTAMP PUSH1 0x60 DUP1 DUP7 ADD SWAP2 DUP3 MSTORE CALLER PUSH1 0x80 DUP8 ADD DUP2 DUP2 MSTORE PUSH1 0x0 DUP14 DUP2 MSTORE PUSH1 0x8 DUP9 MSTORE DUP10 SWAP1 KECCAK256 SWAP8 MLOAD DUP9 SSTORE SWAP5 MLOAD PUSH1 0x1 DUP9 ADD SSTORE SWAP3 MLOAD PUSH1 0x2 DUP8 ADD SSTORE SWAP1 MLOAD PUSH1 0x3 DUP7 ADD SSTORE SWAP2 MLOAD PUSH1 0x4 SWAP1 SWAP5 ADD DUP1 SLOAD PUSH1 0x1 PUSH1 0x1 PUSH1 0xA0 SHL SUB NOT AND PUSH1 0x1 PUSH1 0x1 PUSH1 0xA0 SHL SUB SWAP1 SWAP6 AND SWAP5 SWAP1 SWAP5 OR SWAP1 SWAP4 SSTORE DUP4 MLOAD DUP8 DUP2 MSTORE SWAP2 DUP3 ADD DUP7 SWAP1 MSTORE SWAP3 DUP2 ADD SWAP2 SWAP1 SWAP2 MSTORE DUP6 SWAP2 PUSH32 0xF3BC4356C16D5FBBB3DCB0344AE2B6DEEAF189C6D5DFB00F5BED5EC37BAC4758 SWAP2 ADD PUSH1 0x40 MLOAD DUP1 SWAP2 SUB SWAP1 LOG2 POP POP POP POP JUMP JUMPDEST PUSH2 0x1050 PUSH2 0x1114 JUMP JUMPDEST PUSH1 0x0 DUP3 DUP2 MSTORE PUSH1 0x5 PUSH1 0x20 MSTORE PUSH1 0x40 SWAP1 DUP2 SWAP1 KECCAK256 DUP1 SLOAD PUSH1 0xFF NOT AND PUSH1 0x1 OR SWAP1 SSTORE MLOAD DUP3 SWAP1 PUSH32 0xACE72BEFAC1C74031AF501FC7774A942CB2F319A1631E31E119FCF2D3B6175E3 SWAP1 PUSH2 0x535 SWAP1 DUP5 SWAP1 PUSH2 0x16CC JUMP JUMPDEST PUSH2 0x10A3 PUSH2 0x1114 JUMP JUMPDEST PUSH1 0x1 PUSH1 0x1 PUSH1 0xA0 SHL SUB DUP2 AND PUSH2 0x1108 JUMPI PUSH1 0x40 MLOAD PUSH3 0x461BCD PUSH1 0xE5 SHL DUP2 MSTORE PUSH1 0x20 PUSH1 0x4 DUP3 ADD MSTORE PUSH1 0x26 PUSH1 0x24 DUP3 ADD MSTORE PUSH32 0x4F776E61626C653A206E6577206F776E657220697320746865207A65726F2061 PUSH1 0x44 DUP3 ADD MSTORE PUSH6 0x646472657373 PUSH1 0xD0 SHL PUSH1 0x64 DUP3 ADD MSTORE PUSH1 0x84 ADD PUSH2 0x65A JUMP JUMPDEST PUSH2 0x1111 DUP2 PUSH2 0x116E JUMP JUMPDEST POP JUMP JUMPDEST PUSH1 0x0 SLOAD PUSH1 0x1 PUSH1 0x1 PUSH1 0xA0 SHL SUB AND CALLER EQ PUSH2 0xEF7 JUMPI PUSH1 0x40 MLOAD PUSH3 0x461BCD PUSH1 0xE5 SHL DUP2 MSTORE PUSH1 0x20 PUSH1 0x4 DUP3 ADD DUP2 SWAP1 MSTORE PUSH1 0x24 DUP3 ADD MSTORE PUSH32 0x4F776E61626C653A2063616C6C6572206973206E6F7420746865206F776E6572 PUSH1 0x44 DUP3 ADD MSTORE PUSH1 0x64 ADD PUSH2 0x65A JUMP JUMPDEST PUSH1 0x0 DUP1 SLOAD PUSH1 0x1 PUSH1 0x1 PUSH1 0xA0 SHL SUB DUP4 DUP2 AND PUSH1 0x1 PUSH1 0x1 PUSH1 0xA0 SHL SUB NOT DUP4 AND DUP2 OR DUP5 SSTORE PUSH1 0x40 MLOAD SWAP2 SWAP1 SWAP3 AND SWAP3 DUP4 SWAP2 PUSH32 0x8BE0079C531659141344CD1FD0A4F28419497F9722A3DAAFE3B4186F6B6457E0 SWAP2 SWAP1 LOG3 POP POP JUMP JUMPDEST PUSH1 0x0 PUSH1 0x20 DUP3 DUP5 SUB SLT ISZERO PUSH2 0x11D0 JUMPI PUSH1 0x0 DUP1 REVERT JUMPDEST POP CALLDATALOAD SWAP2 SWAP1 POP JUMP JUMPDEST DUP1 CALLDATALOAD PUSH1 0x1 PUSH1 0x1 PUSH1 0xA0 SHL SUB DUP2 AND DUP2 EQ PUSH2 0x11EE JUMPI PUSH1 0x0 DUP1 REVERT JUMPDEST SWAP2 SWAP1 POP JUMP JUMPDEST DUP1 CALLDATALOAD DUP1 ISZERO ISZERO DUP2 EQ PUSH2 0x11EE JUMPI PUSH1 0x0 DUP1 REVERT JUMPDEST PUSH1 0x0 DUP1 PUSH1 0x40 DUP4 DUP6 SUB SLT ISZERO PUSH2 0x1216 JUMPI PUSH1 0x0 DUP1 REVERT JUMPDEST PUSH2 0x121F DUP4 PUSH2 0x11D7 JUMP JUMPDEST SWAP2 POP PUSH2 0x122D PUSH1 0x20 DUP5 ADD PUSH2 0x11F3 JUMP JUMPDEST SWAP1 POP SWAP3 POP SWAP3 SWAP1 POP JUMP JUMPDEST PUSH1 0x0 PUSH1 0x20 DUP3 DUP5 SUB SLT ISZERO PUSH2 0x1248 JUMPI PUSH1 0x0 DUP1 REVERT JUMPDEST PUSH2 0xF57 DUP3 PUSH2 0x11D7 JUMP JUMPDEST PUSH4 0x4E487B71 PUSH1 0xE0 SHL PUSH1 0x0 MSTORE PUSH1 0x41 PUSH1 0x4 MSTORE PUSH1 0x24 PUSH1 0x0 REVERT JUMPDEST PUSH1 0x40 MLOAD PUSH1 0x1F DUP3 ADD PUSH1 0x1F NOT AND DUP2 ADD PUSH8 0xFFFFFFFFFFFFFFFF DUP2 GT DUP3 DUP3 LT OR ISZERO PUSH2 0x1290 JUMPI PUSH2 0x1290 PUSH2 0x1251 JUMP JUMPDEST PUSH1 0x40 MSTORE SWAP2 SWAP1 POP JUMP JUMPDEST PUSH1 0x0 PUSH8 0xFFFFFFFFFFFFFFFF DUP3 GT ISZERO PUSH2 0x12B2 JUMPI PUSH2 0x12B2 PUSH2 0x1251 JUMP JUMPDEST POP PUSH1 0x5 SHL PUSH1 0x20 ADD SWAP1 JUMP JUMPDEST PUSH1 0x0 DUP3 PUSH1 0x1F DUP4 ADD SLT PUSH2 0x12CD JUMPI PUSH1 0x0 DUP1 REVERT JUMPDEST DUP2 CALLDATALOAD PUSH1 0x20 PUSH2 0x12E2 PUSH2 0x12DD DUP4 PUSH2 0x1298 JUMP JUMPDEST PUSH2 0x1267 JUMP JUMPDEST DUP3 DUP2 MSTORE PUSH1 0x5 SWAP3 SWAP1 SWAP3 SHL DUP5 ADD DUP2 ADD SWAP2 DUP2 DUP2 ADD SWAP1 DUP7 DUP5 GT ISZERO PUSH2 0x1301 JUMPI PUSH1 0x0 DUP1 REVERT JUMPDEST DUP3 DUP7 ADD JUMPDEST DUP5 DUP2 LT ISZERO PUSH2 0x131C JUMPI DUP1 CALLDATALOAD DUP4 MSTORE SWAP2 DUP4 ADD SWAP2 DUP4 ADD PUSH2 0x1305 JUMP JUMPDEST POP SWAP7 SWAP6 POP POP POP POP POP POP JUMP JUMPDEST PUSH1 0x0 PUSH1 0x20 DUP3 DUP5 SUB SLT ISZERO PUSH2 0x1339 JUMPI PUSH1 0x0 DUP1 REVERT JUMPDEST DUP2 CALLDATALOAD PUSH8 0xFFFFFFFFFFFFFFFF DUP2 GT ISZERO PUSH2 0x1350 JUMPI PUSH1 0x0 DUP1 REVERT JUMPDEST PUSH2 0x135C DUP5 DUP3 DUP6 ADD PUSH2 0x12BC JUMP JUMPDEST SWAP5 SWAP4 POP POP POP POP JUMP JUMPDEST PUSH1 0x0 DUP2 MLOAD DUP1 DUP5 MSTORE PUSH1 0x20 DUP1 DUP6 ADD SWAP5 POP DUP1 DUP5 ADD PUSH1 0x0 JUMPDEST DUP4 DUP2 LT ISZERO PUSH2 0x1394 JUMPI DUP2 MLOAD DUP8 MSTORE SWAP6 DUP3 ADD SWAP6 SWAP1 DUP3 ADD SWAP1 PUSH1 0x1 ADD PUSH2 0x1378 JUMP JUMPDEST POP SWAP5 SWAP6 SWAP5 POP POP POP POP POP JUMP JUMPDEST PUSH1 0x40 DUP2 MSTORE PUSH1 0x0 PUSH2 0x13B2 PUSH1 0x40 DUP4 ADD DUP6 PUSH2 0x1364 JUMP JUMPDEST DUP3 DUP2 SUB PUSH1 0x20 DUP5 ADD MSTORE PUSH2 0x13C4 DUP2 DUP6 PUSH2 0x1364 JUMP JUMPDEST SWAP6 SWAP5 POP POP POP POP POP JUMP JUMPDEST PUSH1 0x0 DUP1 PUSH1 0x40 DUP4 DUP6 SUB SLT ISZERO PUSH2 0x13E0 JUMPI PUSH1 0x0 DUP1 REVERT JUMPDEST POP POP DUP1 CALLDATALOAD SWAP3 PUSH1 0x20 SWAP1 SWAP2 ADD CALLDATALOAD SWAP2 POP JUMP JUMPDEST PUSH1 0x0 DUP1 PUSH1 0x0 PUSH1 0x60 DUP5 DUP7 SUB SLT ISZERO PUSH2 0x1404 JUMPI PUSH1 0x0 DUP1 REVERT JUMPDEST PUSH2 0x140D DUP5 PUSH2 0x11D7 JUMP JUMPDEST SWAP3 POP PUSH1 0x20 DUP5 ADD CALLDATALOAD SWAP2 POP PUSH2 0x1422 PUSH1 0x40 DUP6 ADD PUSH2 0x11F3 JUMP JUMPDEST SWAP1 POP SWAP3 POP SWAP3 POP SWAP3 JUMP JUMPDEST PUSH1 0x0 DUP1 PUSH1 0x40 DUP4 DUP6 SUB SLT ISZERO PUSH2 0x143E JUMPI PUSH1 0x0 DUP1 REVERT JUMPDEST PUSH2 0x1447 DUP4 PUSH2 0x11D7 JUMP JUMPDEST SWAP5 PUSH1 0x20 SWAP4 SWAP1 SWAP4 ADD CALLDATALOAD SWAP4 POP POP POP JUMP JUMPDEST PUSH1 0x0 DUP1 PUSH1 0x40 DUP4 DUP6 SUB SLT ISZERO PUSH2 0x1468 JUMPI PUSH1 0x0 DUP1 REVERT JUMPDEST DUP3 CALLDATALOAD PUSH8 0xFFFFFFFFFFFFFFFF DUP1 DUP3 GT ISZERO PUSH2 0x1480 JUMPI PUSH1 0x0 DUP1 REVERT JUMPDEST PUSH2 0x148C DUP7 DUP4 DUP8 ADD PUSH2 0x12BC JUMP JUMPDEST SWAP4 POP PUSH1 0x20 SWAP2 POP DUP2 DUP6 ADD CALLDATALOAD DUP2 DUP2 GT ISZERO PUSH2 0x14A3 JUMPI PUSH1 0x0 DUP1 REVERT JUMPDEST DUP6 ADD SWAP1 POP PUSH1 0x1F DUP2 ADD DUP7 SGT PUSH2 0x14B6 JUMPI PUSH1 0x0 DUP1 REVERT JUMPDEST DUP1 CALLDATALOAD PUSH2 0x14C4 PUSH2 0x12DD DUP3 PUSH2 0x1298 JUMP JUMPDEST DUP2 DUP2 MSTORE PUSH1 0x5 SWAP2 SWAP1 SWAP2 SHL DUP3 ADD DUP4 ADD SWAP1 DUP4 DUP2 ADD SWAP1 DUP9 DUP4 GT ISZERO PUSH2 0x14E3 JUMPI PUSH1 0x0 DUP1 REVERT JUMPDEST SWAP3 DUP5 ADD SWAP3 JUMPDEST DUP3 DUP5 LT ISZERO PUSH2 0x1501 JUMPI DUP4 CALLDATALOAD DUP3 MSTORE SWAP3 DUP5 ADD SWAP3 SWAP1 DUP5 ADD SWAP1 PUSH2 0x14E8 JUMP JUMPDEST DUP1 SWAP6 POP POP POP POP POP POP SWAP3 POP SWAP3 SWAP1 POP JUMP JUMPDEST PUSH1 0x0 DUP1 PUSH1 0x0 DUP1 PUSH1 0x80 DUP6 DUP8 SUB SLT ISZERO PUSH2 0x1526 JUMPI PUSH1 0x0 DUP1 REVERT JUMPDEST POP POP DUP3 CALLDATALOAD SWAP5 PUSH1 0x20 DUP5 ADD CALLDATALOAD SWAP5 POP PUSH1 0x40 DUP5 ADD CALLDATALOAD SWAP4 PUSH1 0x60 ADD CALLDATALOAD SWAP3 POP SWAP1 POP JUMP JUMPDEST PUSH1 0x0 DUP1 PUSH1 0x40 DUP4 DUP6 SUB SLT ISZERO PUSH2 0x1555 JUMPI PUSH1 0x0 DUP1 REVERT JUMPDEST DUP3 CALLDATALOAD SWAP2 POP PUSH1 0x20 DUP1 DUP5 ADD CALLDATALOAD PUSH8 0xFFFFFFFFFFFFFFFF DUP1 DUP3 GT ISZERO PUSH2 0x1575 JUMPI PUSH1 0x0 DUP1 REVERT JUMPDEST DUP2 DUP7 ADD SWAP2 POP DUP7 PUSH1 0x1F DUP4 ADD SLT PUSH2 0x1589 JUMPI PUSH1 0x0 DUP1 REVERT JUMPDEST DUP2 CALLDATALOAD DUP2 DUP2 GT ISZERO PUSH2 0x159B JUMPI PUSH2 0x159B PUSH2 0x1251 JUMP JUMPDEST PUSH2 0x15AD PUSH1 0x1F DUP3 ADD PUSH1 0x1F NOT AND DUP6 ADD PUSH2 0x1267 JUMP JUMPDEST SWAP2 POP DUP1 DUP3 MSTORE DUP8 DUP5 DUP3 DUP6 ADD ADD GT ISZERO PUSH2 0x15C3 JUMPI PUSH1 0x0 DUP1 REVERT JUMPDEST DUP1 DUP5 DUP5 ADD DUP6 DUP5 ADD CALLDATACOPY PUSH1 0x0 DUP5 DUP3 DUP5 ADD ADD MSTORE POP DUP1 SWAP4 POP POP POP POP SWAP3 POP SWAP3 SWAP1 POP JUMP JUMPDEST PUSH4 0x4E487B71 PUSH1 0xE0 SHL PUSH1 0x0 MSTORE PUSH1 0x32 PUSH1 0x4 MSTORE PUSH1 0x24 PUSH1 0x0 REVERT JUMPDEST PUSH1 0x20 DUP1 DUP3 MSTORE PUSH1 0xD SWAP1 DUP3 ADD MSTORE PUSH13 0x125B9D985B1A5908185CDCD95D PUSH1 0x9A SHL PUSH1 0x40 DUP3 ADD MSTORE PUSH1 0x60 ADD SWAP1 JUMP JUMPDEST PUSH4 0x4E487B71 PUSH1 0xE0 SHL PUSH1 0x0 MSTORE PUSH1 0x11 PUSH1 0x4 MSTORE PUSH1 0x24 PUSH1 0x0 REVERT JUMPDEST PUSH1 0x0 PUSH1 0x1 DUP3 ADD PUSH2 0x1646 JUMPI PUSH2 0x1646 PUSH2 0x161E JUMP JUMPDEST POP PUSH1 0x1 ADD SWAP1 JUMP JUMPDEST DUP2 DUP2 SUB DUP2 DUP2 GT ISZERO PUSH2 0x1660 JUMPI PUSH2 0x1660 PUSH2 0x161E JUMP JUMPDEST SWAP3 SWAP2 POP POP JUMP JUMPDEST PUSH1 0x20 DUP1 DUP3 MSTORE PUSH1 0x1C SWAP1 DUP3 ADD MSTORE PUSH32 0x5072696365206D7573742062652067726561746572207468616E203000000000 PUSH1 0x40 DUP3 ADD MSTORE PUSH1 0x60 ADD SWAP1 JUMP JUMPDEST PUSH1 0x20 DUP1 DUP3 MSTORE PUSH1 0x15 SWAP1 DUP3 ADD MSTORE PUSH21 0x4E6F7420617574686F72697A6564206F7261636C65 PUSH1 0x58 SHL PUSH1 0x40 DUP3 ADD MSTORE PUSH1 0x60 ADD SWAP1 JUMP JUMPDEST PUSH1 0x0 PUSH1 0x20 DUP1 DUP4 MSTORE DUP4 MLOAD DUP1 DUP3 DUP6 ADD MSTORE PUSH1 0x0 JUMPDEST DUP2 DUP2 LT ISZERO PUSH2 0x16F9 JUMPI DUP6 DUP2 ADD DUP4 ADD MLOAD DUP6 DUP3 ADD PUSH1 0x40 ADD MSTORE DUP3 ADD PUSH2 0x16DD JUMP JUMPDEST POP PUSH1 0x0 PUSH1 0x40 DUP3 DUP7 ADD ADD MSTORE PUSH1 0x40 PUSH1 0x1F NOT PUSH1 0x1F DUP4 ADD AND DUP6 ADD ADD SWAP3 POP POP POP SWAP3 SWAP2 POP POP JUMP INVALID LOG2 PUSH5 0x6970667358 0x22 SLT KECCAK256 0xB4 DUP14 0xD0 0x5E AND LOG0 SWAP12 SDIV SWAP10 CHAINID 0x29 JUMP DUP2 SUB 0xAD PUSH26 0x45F26B6D97F6FF4E863D332C4EB8946664736F6C634300081300 CALLER "},"methodIdentifiers":{"MAX_PRICE_AGE()":"9d7f7e86","PRICE_DECIMALS()":"f1a640f8","addAsset(bytes32,string)":"ec64f5bc","authorizeOracle(address,bool)":"0c2c69fa","authorizedOracles(address)":"61c992a3","batchUpdatePrices(bytes32[],uint256[])":"650ef52f","emergencyPriceUpdate(bytes32,uint256)":"35a41f90","getLocationVerification(bytes32)":"4055d60d","getMultiplePrices(bytes32[])":"1b716b77","getPrice(bytes32)":"31d98b3f","grantOracleAssetAccess(address,bytes32,bool)":"564b51de","isPriceFresh(bytes32)":"828323f7","lastUpdated(bytes32)":"060eb2f5","locationVerifications(bytes32)":"f3413a62","oracleAssetAccess(address,bytes32)":"589afb06","owner()":"8da5cb5b","priceFeeds(bytes32)":"c6c3f71e","prices(bytes32)":"60846bc6","renounceOwnership()":"715018a6","setStarQuestCore(address)":"177ab321","starQuestCore()":"89ee3e97","transferOwnership(address)":"f2fde38b","updatePrice(bytes32,uint256)":"5f704f3e","validAssets(bytes32)":"83f4b732","verifyLocation(bytes32,int256,int256,uint256)":"acbffc77"}}}}}