{"contracts/Consensus.sol":{"StarQuestConsensusService":{"abi":[{"inputs":[{"internalType":"string","name":"_topicId","type":"string"}],"stateMutability":"nonpayable","type":"constructor"},{"anonymous":false,"inputs":[{"indexed":true,"internalType":"bytes32","name":"challengeId","type":"bytes32"},{"indexed":true,"internalType":"address","name":"aiAgent","type":"address"},{"indexed":false,"internalType":"bool","name":"verified","type":"bool"}],"name":"AIDecisionLogged","type":"event"},{"anonymous":false,"inputs":[{"indexed":true,"internalType":"bytes32","name":"eventId","type":"bytes32"},{"indexed":true,"internalType":"address","name":"player","type":"address"},{"indexed":false,"internalType":"bool","name":"success","type":"bool"}],"name":"GameEventLogged","type":"event"},{"anonymous":false,"inputs":[{"indexed":true,"internalType":"uint256","name":"messageId","type":"uint256"},{"indexed":false,"internalType":"string","name":"hcsMessageId","type":"string"}],"name":"HCSMessageConfirmed","type":"event"},{"anonymous":false,"inputs":[{"indexed":true,"internalType":"address","name":"player","type":"address"},{"indexed":false,"internalType":"uint256","name":"newRank","type":"uint256"}],"name":"LeaderboardUpdated","type":"event"},{"anonymous":false,"inputs":[{"indexed":true,"internalType":"uint256","name":"messageId","type":"uint256"},{"indexed":false,"internalType":"enum StarQuestConsensusService.MessageType","name":"messageType","type":"uint8"},{"indexed":true,"internalType":"address","name":"player","type":"address"}],"name":"MessageSubmitted","type":"event"},{"anonymous":false,"inputs":[{"indexed":true,"internalType":"address","name":"previousOwner","type":"address"},{"indexed":true,"internalType":"address","name":"newOwner","type":"address"}],"name":"OwnershipTransferred","type":"event"},{"anonymous":false,"inputs":[{"indexed":false,"internalType":"string","name":"newTopicId","type":"string"}],"name":"TopicUpdated","type":"event"},{"inputs":[{"internalType":"bytes32","name":"","type":"bytes32"}],"name":"aiDecisionLogs","outputs":[{"internalType":"bytes32","name":"challengeId","type":"bytes32"},{"internalType":"address","name":"aiAgent","type":"address"},{"internalType":"string","name":"challengeType","type":"string"},{"internalType":"bool","name":"verified","type":"bool"},{"internalType":"uint256","name":"confidence","type":"uint256"},{"internalType":"string","name":"reasoningHash","type":"string"},{"internalType":"uint256","name":"timestamp","type":"uint256"}],"stateMutability":"view","type":"function"},{"inputs":[{"internalType":"uint256","name":"messageId","type":"uint256"},{"internalType":"string","name":"hcsMessageId","type":"string"}],"name":"confirmHCSMessage","outputs":[],"stateMutability":"nonpayable","type":"function"},{"inputs":[{"internalType":"uint256","name":"","type":"uint256"}],"name":"consensusMessages","outputs":[{"internalType":"uint256","name":"id","type":"uint256"},{"internalType":"enum StarQuestConsensusService.MessageType","name":"messageType","type":"uint8"},{"internalType":"address","name":"player","type":"address"},{"internalType":"bytes32","name":"dataHash","type":"bytes32"},{"internalType":"string","name":"ipfsHash","type":"string"},{"internalType":"uint256","name":"timestamp","type":"uint256"},{"internalType":"bool","name":"submitted","type":"bool"},{"internalType":"string","name":"hcsMessageId","type":"string"}],"stateMutability":"view","type":"function"},{"inputs":[{"internalType":"bytes32","name":"","type":"bytes32"}],"name":"gameEventLogs","outputs":[{"internalType":"address","name":"player","type":"address"},{"internalType":"string","name":"eventType","type":"string"},{"internalType":"bytes32","name":"challengeId","type":"bytes32"},{"internalType":"uint256","name":"stakeAmount","type":"uint256"},{"internalType":"bool","name":"success","type":"bool"},{"internalType":"uint256","name":"payout","type":"uint256"},{"internalType":"uint256","name":"timestamp","type":"uint256"},{"internalType":"string","name":"proofHash","type":"string"}],"stateMutability":"view","type":"function"},{"inputs":[{"internalType":"bytes32","name":"challengeId","type":"bytes32"}],"name":"getAIDecisionLog","outputs":[{"components":[{"internalType":"bytes32","name":"challengeId","type":"bytes32"},{"internalType":"address","name":"aiAgent","type":"address"},{"internalType":"string","name":"challengeType","type":"string"},{"internalType":"bool","name":"verified","type":"bool"},{"internalType":"uint256","name":"confidence","type":"uint256"},{"internalType":"string","name":"reasoningHash","type":"string"},{"internalType":"uint256","name":"timestamp","type":"uint256"}],"internalType":"struct StarQuestConsensusService.AIDecisionLog","name":"","type":"tuple"}],"stateMutability":"view","type":"function"},{"inputs":[{"internalType":"uint256","name":"messageId","type":"uint256"}],"name":"getConsensusMessage","outputs":[{"components":[{"internalType":"uint256","name":"id","type":"uint256"},{"internalType":"enum StarQuestConsensusService.MessageType","name":"messageType","type":"uint8"},{"internalType":"address","name":"player","type":"address"},{"internalType":"bytes32","name":"dataHash","type":"bytes32"},{"internalType":"string","name":"ipfsHash","type":"string"},{"internalType":"uint256","name":"timestamp","type":"uint256"},{"internalType":"bool","name":"submitted","type":"bool"},{"internalType":"string","name":"hcsMessageId","type":"string"}],"internalType":"struct StarQuestConsensusService.ConsensusMessage","name":"","type":"tuple"}],"stateMutability":"view","type":"function"},{"inputs":[{"internalType":"bytes32","name":"eventId","type":"bytes32"}],"name":"getGameEventLog","outputs":[{"components":[{"internalType":"address","name":"player","type":"address"},{"internalType":"string","name":"eventType","type":"string"},{"internalType":"bytes32","name":"challengeId","type":"bytes32"},{"internalType":"uint256","name":"stakeAmount","type":"uint256"},{"internalType":"bool","name":"success","type":"bool"},{"internalType":"uint256","name":"payout","type":"uint256"},{"internalType":"uint256","name":"timestamp","type":"uint256"},{"internalType":"string","name":"proofHash","type":"string"}],"internalType":"struct StarQuestConsensusService.GameEventLog","name":"","type":"tuple"}],"stateMutability":"view","type":"function"},{"inputs":[],"name":"getLeaderboardStats","outputs":[{"internalType":"uint256","name":"totalPlayers","type":"uint256"},{"internalType":"uint256","name":"totalStaked","type":"uint256"},{"internalType":"uint256","name":"totalWon","type":"uint256"}],"stateMutability":"view","type":"function"},{"inputs":[{"internalType":"enum StarQuestConsensusService.MessageType","name":"messageType","type":"uint8"}],"name":"getMessageCountByType","outputs":[{"internalType":"uint256","name":"","type":"uint256"}],"stateMutability":"view","type":"function"},{"inputs":[{"internalType":"address","name":"player","type":"address"}],"name":"getPlayerMessageHistory","outputs":[{"internalType":"uint256[]","name":"","type":"uint256[]"}],"stateMutability":"view","type":"function"},{"inputs":[{"internalType":"address","name":"player","type":"address"}],"name":"getPlayerRanking","outputs":[{"internalType":"uint256","name":"","type":"uint256"}],"stateMutability":"view","type":"function"},{"inputs":[{"internalType":"uint256","name":"count","type":"uint256"}],"name":"getTopPlayers","outputs":[{"internalType":"address[]","name":"","type":"address[]"},{"components":[{"internalType":"address","name":"player","type":"address"},{"internalType":"uint256","name":"totalStaked","type":"uint256"},{"internalType":"uint256","name":"totalWon","type":"uint256"},{"internalType":"uint256","name":"winRate","type":"uint256"},{"internalType":"uint256","name":"streak","type":"uint256"},{"internalType":"uint256","name":"lastUpdated","type":"uint256"}],"internalType":"struct StarQuestConsensusService.LeaderboardEntry[]","name":"","type":"tuple[]"}],"stateMutability":"view","type":"function"},{"inputs":[],"name":"getTotalMessageCount","outputs":[{"internalType":"uint256","name":"","type":"uint256"}],"stateMutability":"view","type":"function"},{"inputs":[{"internalType":"address","name":"","type":"address"}],"name":"leaderboard","outputs":[{"internalType":"address","name":"player","type":"address"},{"internalType":"uint256","name":"totalStaked","type":"uint256"},{"internalType":"uint256","name":"totalWon","type":"uint256"},{"internalType":"uint256","name":"winRate","type":"uint256"},{"internalType":"uint256","name":"streak","type":"uint256"},{"internalType":"uint256","name":"lastUpdated","type":"uint256"}],"stateMutability":"view","type":"function"},{"inputs":[],"name":"messageCount","outputs":[{"internalType":"uint256","name":"","type":"uint256"}],"stateMutability":"view","type":"function"},{"inputs":[{"internalType":"enum StarQuestConsensusService.MessageType","name":"","type":"uint8"}],"name":"messageTypeCount","outputs":[{"internalType":"uint256","name":"","type":"uint256"}],"stateMutability":"view","type":"function"},{"inputs":[],"name":"owner","outputs":[{"internalType":"address","name":"","type":"address"}],"stateMutability":"view","type":"function"},{"inputs":[{"internalType":"address","name":"","type":"address"},{"internalType":"uint256","name":"","type":"uint256"}],"name":"playerMessageHistory","outputs":[{"internalType":"uint256","name":"","type":"uint256"}],"stateMutability":"view","type":"function"},{"inputs":[{"internalType":"address","name":"","type":"address"}],"name":"playerRankings","outputs":[{"internalType":"uint256","name":"","type":"uint256"}],"stateMutability":"view","type":"function"},{"inputs":[],"name":"renounceOwnership","outputs":[],"stateMutability":"nonpayable","type":"function"},{"inputs":[{"internalType":"address","name":"_starQuestCore","type":"address"}],"name":"setStarQuestCore","outputs":[],"stateMutability":"nonpayable","type":"function"},{"inputs":[],"name":"starQuestCore","outputs":[{"internalType":"address","name":"","type":"address"}],"stateMutability":"view","type":"function"},{"inputs":[{"internalType":"bytes32","name":"challengeId","type":"bytes32"},{"internalType":"address","name":"aiAgent","type":"address"},{"internalType":"string","name":"challengeType","type":"string"},{"internalType":"bool","name":"verified","type":"bool"},{"internalType":"uint256","name":"confidence","type":"uint256"},{"internalType":"string","name":"reasoningHash","type":"string"},{"internalType":"string","name":"ipfsHash","type":"string"}],"name":"submitAIDecision","outputs":[{"internalType":"uint256","name":"","type":"uint256"}],"stateMutability":"nonpayable","type":"function"},{"inputs":[{"internalType":"address","name":"player","type":"address"},{"internalType":"uint256","name":"achievementType","type":"uint256"},{"internalType":"string","name":"achievementName","type":"string"},{"internalType":"string","name":"ipfsHash","type":"string"}],"name":"submitAchievementUnlock","outputs":[{"internalType":"uint256","name":"","type":"uint256"}],"stateMutability":"nonpayable","type":"function"},{"inputs":[{"internalType":"address","name":"player","type":"address"},{"internalType":"bytes32","name":"challengeId","type":"bytes32"},{"internalType":"uint256","name":"stakeAmount","type":"uint256"},{"internalType":"bool","name":"success","type":"bool"},{"internalType":"uint256","name":"payout","type":"uint256"},{"internalType":"string","name":"proofHash","type":"string"},{"internalType":"string","name":"ipfsHash","type":"string"}],"name":"submitGameEvent","outputs":[{"internalType":"uint256","name":"","type":"uint256"}],"stateMutability":"nonpayable","type":"function"},{"inputs":[{"internalType":"uint256","name":"","type":"uint256"}],"name":"topPlayers","outputs":[{"internalType":"address","name":"","type":"address"}],"stateMutability":"view","type":"function"},{"inputs":[],"name":"topicId","outputs":[{"internalType":"string","name":"","type":"string"}],"stateMutability":"view","type":"function"},{"inputs":[{"internalType":"address","name":"newOwner","type":"address"}],"name":"transferOwnership","outputs":[],"stateMutability":"nonpayable","type":"function"},{"inputs":[{"internalType":"string","name":"_topicId","type":"string"}],"name":"updateTopicId","outputs":[],"stateMutability":"nonpayable","type":"function"}],"evm":{"bytecode":{"linkReferences":{},"object":"60806040523480156200001157600080fd5b50604051620032fc380380620032fc8339810160408190526200003491620000bf565b6200003f3362000059565b60018055600362000051828262000223565b5050620002ef565b600080546001600160a01b038381166001600160a01b0319831681178455604051919092169283917f8be0079c531659141344cd1fd0a4f28419497f9722a3daafe3b4186f6b6457e09190a35050565b634e487b7160e01b600052604160045260246000fd5b60006020808385031215620000d357600080fd5b82516001600160401b0380821115620000eb57600080fd5b818501915085601f8301126200010057600080fd5b815181811115620001155762000115620000a9565b604051601f8201601f19908116603f01168101908382118183101715620001405762000140620000a9565b8160405282815288868487010111156200015957600080fd5b600093505b828410156200017d57848401860151818501870152928501926200015e565b600086848301015280965050505050505092915050565b600181811c90821680620001a957607f821691505b602082108103620001ca57634e487b7160e01b600052602260045260246000fd5b50919050565b601f8211156200021e57600081815260208120601f850160051c81016020861015620001f95750805b601f850160051c820191505b818110156200021a5782815560010162000205565b5050505b505050565b81516001600160401b038111156200023f576200023f620000a9565b620002578162000250845462000194565b84620001d0565b602080601f8311600181146200028f5760008415620002765750858301515b600019600386901b1c1916600185901b1785556200021a565b600085815260208120601f198616915b82811015620002c0578886015182559484019460019091019084016200029f565b5085821015620002df5787850151600019600388901b60f8161c191681555b5050505050600190811b01905550565b612ffd80620002ff6000396000f3fe608060405234801561001057600080fd5b50600436106101ce5760003560e01c80638908f32911610104578063b021352a116100a2578063dcc3be0111610071578063dcc3be01146104ed578063dea1220714610500578063f2fde38b14610513578063f89e56941461052657600080fd5b8063b021352a1461042d578063ba3c006714610435578063be94c77014610456578063d1d33d201461046957600080fd5b8063925ea1dd116100de578063925ea1dd146103aa5780639c7d13eb146103d0578063a078f8b7146103f7578063af137ca81461041a57600080fd5b80638908f3291461034e57806389ee3e971461036e5780638da5cb5b1461039957600080fd5b806321f3e265116101715780634c33b5f31161014b5780634c33b5f31461030057806364f51f3014610313578063715018a61461033357806379616b4f1461033b57600080fd5b806321f3e265146102ae57806333022a81146102d75780633dbcc8d1146102f757600080fd5b806308a0aa06116101ad57806308a0aa0614610239578063177ab3211461025957806318f538ee1461026e5780631bdbda4d1461028e57600080fd5b806279aad6146101d35780630139b5f11461020357806303e64bd314610218575b600080fd5b6101e66101e136600461256a565b610539565b6040516101fa98979695949392919061260b565b60405180910390f35b61020b6106a1565b6040516101fa919061267a565b61022b610226366004612763565b61072f565b6040519081526020016101fa565b61022b610247366004612820565b600a6020526000908152604090205481565b61026c610267366004612841565b610ac2565b005b61028161027c36600461256a565b610aec565b6040516101fa919061285c565b6102a161029c366004612841565b610cbf565b6040516101fa91906128f1565b61022b6102bc366004612841565b6001600160a01b03166000908152600c602052604090205490565b61022b6102e5366004612841565b600c6020526000908152604090205481565b61022b60045481565b61022b61030e366004612935565b610d2b565b61032661032136600461256a565b6111a0565b6040516101fa9190612999565b61026c611362565b61026c610349366004612a2b565b611376565b61036161035c36600461256a565b611478565b6040516101fa9190612a72565b600254610381906001600160a01b031681565b6040516001600160a01b0390911681526020016101fa565b6000546001600160a01b0316610381565b6103bd6103b836600461256a565b611652565b6040516101fa9796959493929190612af5565b6103e36103de36600461256a565b6117af565b6040516101fa989796959493929190612b54565b6103ff611894565b604080519384526020840192909252908201526060016101fa565b61038161042836600461256a565b611969565b60045461022b565b61044861044336600461256a565b611993565b6040516101fa929190612bad565b61022b610464366004612c6e565b611bb9565b6104b6610477366004612841565b6008602052600090815260409020805460018201546002830154600384015460048501546005909501546001600160a01b039094169492939192909186565b604080516001600160a01b0390971687526020870195909552938501929092526060840152608083015260a082015260c0016101fa565b61022b6104fb366004612c98565b611bea565b61022b61050e366004612820565b611e45565b61026c610521366004612841565b611e84565b61026c610534366004612d16565b611efd565b6005602052600090815260409020805460018201546002830154600384018054939460ff8416946101009094046001600160a01b03169390919061057c90612d53565b80601f01602080910402602001604051908101604052809291908181526020018280546105a890612d53565b80156105f55780601f106105ca576101008083540402835291602001916105f5565b820191906000526020600020905b8154815290600101906020018083116105d857829003601f168201915b50505050600483015460058401546006850180549495929460ff90921693509061061e90612d53565b80601f016020809104026020016040519081016040528092919081815260200182805461064a90612d53565b80156106975780601f1061066c57610100808354040283529160200191610697565b820191906000526020600020905b81548152906001019060200180831161067a57829003601f168201915b5050505050905088565b600380546106ae90612d53565b80601f01602080910402602001604051908101604052809291908181526020018280546106da90612d53565b80156107275780601f106106fc57610100808354040283529160200191610727565b820191906000526020600020905b81548152906001019060200180831161070a57829003601f168201915b505050505081565b6002546000906001600160a01b031633148061075557506000546001600160a01b031633145b6107975760405162461bcd60e51b815260206004820152600e60248201526d139bdd08185d5d1a1bdc9a5e995960921b60448201526064015b60405180910390fd5b60048054600091826107a883612da3565b9190505590506040518060e001604052808a8152602001896001600160a01b03168152602001888152602001871515815260200186815260200185815260200142815250600760008b81526020019081526020016000206000820151816000015560208201518160010160006101000a8154816001600160a01b0302191690836001600160a01b03160217905550604082015181600201908161084b9190612e0b565b50606082015160038201805460ff19169115159190911790556080820151600482015560a082015160058201906108829082612e0b565b5060c0919091015160069091015560408051602081018b90526001600160601b031960608b901b169181019190915286151560f81b60548201526055810186905242607582015260009060950160408051808303601f190181528282528051602091820120610100840183528584526002828501908152600085850181905260608601839052608086018a90524260a087015260c086018190528451808501865281815260e087015287815260059384905293909320845181559251600184810180549397509193919260ff191691849081111561096257610962612583565b021790555060408201516001820180546001600160a01b0390921661010002610100600160a81b031990921691909117905560608201516002820155608082015160038201906109b29082612e0b565b5060a0820151600482015560c082015160058201805460ff191691151591909117905560e082015160068201906109e99082612e0b565b505060026000908152600a6020527fbff4442b8ed600beeb8e26b1279a0f0d14c6edfaec26d968ee13c86f7d4c2ba88054925090610a2683612da3565b919050555060006001600160a01b0316827ff48253c80e26e6c01d71f55d4e6267fdb2700852b7558f9f13ef4722f28431026002604051610a679190612ecb565b60405180910390a3886001600160a01b03168a7fcf4d0b88c89741a69776ca0fa5e487aab554dcf86a5e47f5eee7d791b842dd6a89604051610aad911515815260200190565b60405180910390a35098975050505050505050565b610aca611f4c565b600280546001600160a01b0319166001600160a01b0392909216919091179055565b604080516101008101825260008082526060602083018190529282018190528282018190526080820181905260a0820181905260c082015260e08101919091526000828152600660209081526040918290208251610100810190935280546001600160a01b031683526001810180549192840191610b6990612d53565b80601f0160208091040260200160405190810160405280929190818152602001828054610b9590612d53565b8015610be25780601f10610bb757610100808354040283529160200191610be2565b820191906000526020600020905b815481529060010190602001808311610bc557829003601f168201915b50505091835250506002820154602082015260038201546040820152600482015460ff161515606082015260058201546080820152600682015460a082015260078201805460c090920191610c3690612d53565b80601f0160208091040260200160405190810160405280929190818152602001828054610c6290612d53565b8015610caf5780601f10610c8457610100808354040283529160200191610caf565b820191906000526020600020905b815481529060010190602001808311610c9257829003601f168201915b5050505050815250509050919050565b6001600160a01b038116600090815260096020908152604091829020805483518184028101840190945280845260609392830182828015610d1f57602002820191906000526020600020905b815481526020019060010190808311610d0b575b50505050509050919050565b6002546000906001600160a01b03163314610d7e5760405162461bcd60e51b81526020600482015260136024820152724f6e6c792053746172517565737420636f726560681b604482015260640161078e565b6004805460009182610d8f83612da3565b9091555060408051602081018b90526001600160601b031960608d901b16918101919091524260548201529091506000906074016040516020818303038152906040528051906020012090506040518061010001604052808b6001600160a01b0316815260200188610e29576040518060400160405280601081526020016f18da185b1b195b99d957d9985a5b195960821b815250610e54565b604051806040016040528060118152602001706368616c6c656e67655f7375636365737360781b8152505b815260208082018c905260408083018c90528a15156060840152608083018a90524260a084015260c090920188905260008481526006825291909120825181546001600160a01b0319166001600160a01b03909116178155908201516001820190610ebf9082612e0b565b506040820151600282015560608201516003820155608082015160048201805460ff191691151591909117905560a0820151600582015560c0820151600682015560e08201516007820190610f149082612e0b565b50506040516001600160601b031960608d901b166020820152603481018b9052605481018a905288151560f81b6074820152607581018890524260958201526000915060b50160408051601f19818403018152828252805160209182012061010084019092528583529092508101600081526020018c6001600160a01b0316815260200182815260200186815260200142815260200160001515815260200160405180602001604052806000815250815250600560008581526020019081526020016000206000820151816000015560208201518160010160006101000a81548160ff0219169083600581111561100d5761100d612583565b021790555060408201516001820180546001600160a01b0390921661010002610100600160a81b0319909216919091179055606082015160028201556080820151600382019061105d9082612e0b565b5060a0820151600482015560c082015160058201805460ff191691151591909117905560e082015160068201906110949082612e0b565b5050506001600160a01b038b1660009081526009602090815260408220805460018101825590835281832001859055818052600a90527f13da86008ba1c6922daee3e07db95305ef49ebced9f5467a0b8613fcc6b343e38054916110f783612da3565b91905055508a6001600160a01b0316837ff48253c80e26e6c01d71f55d4e6267fdb2700852b7558f9f13ef4722f284310260006040516111379190612ecb565b60405180910390a38a6001600160a01b0316827f01b7cb3a039b909a9016b2c6d77dcee16452df3018f55b3d1cbdcf3e489a2d798a60405161117d911515815260200190565b60405180910390a36111918b8a898b611fa6565b50909998505050505050505050565b604080516101008101825260008082526020820181905291810182905260608082018390526080820181905260a0820183905260c082019290925260e081019190915260045482106112295760405162461bcd60e51b8152602060048201526012602482015271125b9d985b1a59081b595cdcd859d948125160721b604482015260640161078e565b6000828152600560208181526040928390208351610100810190945280548452600181015490929184019160ff9091169081111561126957611269612583565b600581111561127a5761127a612583565b8152600182015461010090046001600160a01b03166020820152600282015460408201526003820180546060909201916112b390612d53565b80601f01602080910402602001604051908101604052809291908181526020018280546112df90612d53565b801561132c5780601f106113015761010080835404028352916020019161132c565b820191906000526020600020905b81548152906001019060200180831161130f57829003601f168201915b505050918352505060048201546020820152600582015460ff1615156040820152600682018054606090920191610c3690612d53565b61136a611f4c565b6113746000612071565b565b61137e611f4c565b60045482106113c45760405162461bcd60e51b8152602060048201526012602482015271125b9d985b1a59081b595cdcd859d948125160721b604482015260640161078e565b60008281526005602081905260409091209081015460ff161561141d5760405162461bcd60e51b8152602060048201526011602482015270105b1c9958591e4818dbdb999a5c9b5959607a1b604482015260640161078e565b60058101805460ff191660011790556006810161143a8382612e0b565b50827feeadb29d2629a2bf7f32572f8ef106550042b1538d44502dbba7d3676f2691ce8360405161146b919061267a565b60405180910390a2505050565b6114c66040518060e001604052806000801916815260200160006001600160a01b03168152602001606081526020016000151581526020016000815260200160608152602001600081525090565b600082815260076020908152604091829020825160e0810184528154815260018201546001600160a01b031692810192909252600281018054929391929184019161151090612d53565b80601f016020809104026020016040519081016040528092919081815260200182805461153c90612d53565b80156115895780601f1061155e57610100808354040283529160200191611589565b820191906000526020600020905b81548152906001019060200180831161156c57829003601f168201915b5050509183525050600382015460ff1615156020820152600482015460408201526005820180546060909201916115bf90612d53565b80601f01602080910402602001604051908101604052809291908181526020018280546115eb90612d53565b80156116385780601f1061160d57610100808354040283529160200191611638565b820191906000526020600020905b81548152906001019060200180831161161b57829003601f168201915b505050505081526020016006820154815250509050919050565b60076020526000908152604090208054600182015460028301805492936001600160a01b039092169261168490612d53565b80601f01602080910402602001604051908101604052809291908181526020018280546116b090612d53565b80156116fd5780601f106116d2576101008083540402835291602001916116fd565b820191906000526020600020905b8154815290600101906020018083116116e057829003601f168201915b5050505060038301546004840154600585018054949560ff909316949193509061172690612d53565b80601f016020809104026020016040519081016040528092919081815260200182805461175290612d53565b801561179f5780601f106117745761010080835404028352916020019161179f565b820191906000526020600020905b81548152906001019060200180831161178257829003601f168201915b5050505050908060060154905087565b600660205260009081526040902080546001820180546001600160a01b0390921692916117db90612d53565b80601f016020809104026020016040519081016040528092919081815260200182805461180790612d53565b80156118545780601f1061182957610100808354040283529160200191611854565b820191906000526020600020905b81548152906001019060200180831161183757829003601f168201915b5050505050908060020154908060030154908060040160009054906101000a900460ff169080600501549080600601549080600701805461061e90612d53565b600b54600080805b600b5481101561196357600060086000600b84815481106118bf576118bf612edf565b60009182526020808320909101546001600160a01b039081168452838201949094526040928301909120825160c081018452815490941684526001810154918401829052600281015492840192909252600382015460608401526004820154608084015260059091015460a083015290915061193b9085612ef5565b935080604001518361194d9190612ef5565b925050808061195b90612da3565b91505061189c565b50909192565b600b818154811061197957600080fd5b6000918252602090912001546001600160a01b0316905081565b6060806000600b8054905084116119aa57836119ae565b600b545b905060008167ffffffffffffffff8111156119cb576119cb6126b0565b6040519080825280602002602001820160405280156119f4578160200160208202803683370190505b50905060008267ffffffffffffffff811115611a1257611a126126b0565b604051908082528060200260200182016040528015611a8557816020015b611a726040518060c0016040528060006001600160a01b0316815260200160008152602001600081526020016000815260200160008152602001600081525090565b815260200190600190039081611a305790505b50905060005b83811015611bad57600b8181548110611aa657611aa6612edf565b9060005260206000200160009054906101000a90046001600160a01b0316838281518110611ad657611ad6612edf565b60200260200101906001600160a01b031690816001600160a01b03168152505060086000600b8381548110611b0d57611b0d612edf565b60009182526020808320909101546001600160a01b039081168452838201949094526040928301909120825160c0810184528154909416845260018101549184019190915260028101549183019190915260038101546060830152600481015460808301526005015460a08201528251839083908110611b8f57611b8f612edf565b60200260200101819052508080611ba590612da3565b915050611a8b565b50909590945092505050565b60096020528160005260406000208181548110611bd557600080fd5b90600052602060002001600091509150505481565b6002546000906001600160a01b03163314611c3d5760405162461bcd60e51b81526020600482015260136024820152724f6e6c792053746172517565737420636f726560681b604482015260640161078e565b6004805460009182611c4e83612da3565b919050559050600086868642604051602001611c6d9493929190612f08565b60408051808303601f1901815282825280516020918201206101008401835285845260048285019081526001600160a01b038c168585015260608501829052608085018990524260a0860152600060c086018190528451808501865281815260e087015287815260059384905293909320845181559251600184810180549397509193919260ff1916918490811115611d0857611d08612583565b021790555060408201516001820180546001600160a01b0390921661010002610100600160a81b03199092169190911790556060820151600282015560808201516003820190611d589082612e0b565b5060a0820151600482015560c082015160058201805460ff191691151591909117905560e08201516006820190611d8f9082612e0b565b5050506001600160a01b0387166000908152600960209081526040822080546001810182559083528183200184905560048252600a90527fe1eb2b2161a492c07c5a334e48012567cba93ec021043f53c1955516a3c5a841805491611df383612da3565b9190505550866001600160a01b0316827ff48253c80e26e6c01d71f55d4e6267fdb2700852b7558f9f13ef4722f28431026004604051611e339190612ecb565b60405180910390a35095945050505050565b6000600a6000836005811115611e5d57611e5d612583565b6005811115611e6e57611e6e612583565b8152602001908152602001600020549050919050565b611e8c611f4c565b6001600160a01b038116611ef15760405162461bcd60e51b815260206004820152602660248201527f4f776e61626c653a206e6577206f776e657220697320746865207a65726f206160448201526564647265737360d01b606482015260840161078e565b611efa81612071565b50565b611f05611f4c565b6003611f118282612e0b565b507fe9f017bab028c809487e228ebfcf9bbdcb39f101f2dfc28483c3bd77eeee665a81604051611f41919061267a565b60405180910390a150565b6000546001600160a01b031633146113745760405162461bcd60e51b815260206004820181905260248201527f4f776e61626c653a2063616c6c6572206973206e6f7420746865206f776e6572604482015260640161078e565b6001600160a01b038416600081815260086020526040812080546001600160a01b0319169092178255600182018054869290611fe3908490612ef5565b9091555050811561202357828160020160008282546120029190612ef5565b909155505060048101805490600061201983612da3565b919050555061202b565b600060048201555b60018101541561205b576001810154600282015461204b90612710612f4e565b6120559190612f65565b60038201555b42600582015561206a856120c1565b5050505050565b600080546001600160a01b038381166001600160a01b0319831681178455604051919092169283917f8be0079c531659141344cd1fd0a4f28419497f9722a3daafe3b4186f6b6457e09190a35050565b6001600160a01b038082166000818152600860209081526040808320815160c0810183528154909616865260018101548684015260028101548683015260038101546060870152600481015460808701526005015460a0860152928252600c90522054156122b0576001600160a01b0382166000908152600c602052604081205461214e90600190612f87565b600b54909150811080156121915750826001600160a01b0316600b828154811061217a5761217a612edf565b6000918252602090912001546001600160a01b0316145b156122ae57805b600b546121a790600190612f87565b81101561227957600b6121bb826001612ef5565b815481106121cb576121cb612edf565b600091825260209091200154600b80546001600160a01b0390921691839081106121f7576121f7612edf565b600091825260209091200180546001600160a01b0319166001600160a01b039290921691909117905561222b816001612ef5565b600c6000600b848154811061224257612242612edf565b60009182526020808320909101546001600160a01b031683528201929092526040019020558061227181612da3565b915050612198565b50600b80548061228b5761228b612f9a565b600082815260209020810160001990810180546001600160a01b03191690550190555b505b600b5460005b600b5481101561239957600060086000600b84815481106122d9576122d9612edf565b60009182526020808320909101546001600160a01b039081168452838201949094526040928301909120825160c08101845281549094168452600181015491840191909152600281015491830191909152600381015460608084018290526004830154608085015260059092015460a0840152908601519192501080612378575080606001518460600151148015612378575080604001518460400151115b156123865781925050612399565b508061239181612da3565b9150506122b6565b50600b80546001808201835560008381527f0175b7a638427703f0dbe7bb9bbf987a2551717b34e79f33b5b1008d1fa01db990920180546001600160a01b0319166001600160a01b038816179055915490916123f491612f87565b90505b8181111561248357600b61240c600183612f87565b8154811061241c5761241c612edf565b600091825260209091200154600b80546001600160a01b03909216918390811061244857612448612edf565b600091825260209091200180546001600160a01b0319166001600160a01b03929092169190911790558061247b81612fb0565b9150506123f7565b5082600b828154811061249857612498612edf565b6000918252602082200180546001600160a01b0319166001600160a01b0393909316929092179091555b600b54811015612525576124d7816001612ef5565b600c6000600b84815481106124ee576124ee612edf565b60009182526020808320909101546001600160a01b031683528201929092526040019020558061251d81612da3565b9150506124c2565b506001600160a01b0383167f24e225604268d6416871b32db1be8e49f497caf8360393b31d71a34a4ce2669361255c836001612ef5565b60405190815260200161146b565b60006020828403121561257c57600080fd5b5035919050565b634e487b7160e01b600052602160045260246000fd5b600681106125b757634e487b7160e01b600052602160045260246000fd5b9052565b60005b838110156125d65781810151838201526020016125be565b50506000910152565b600081518084526125f78160208601602086016125bb565b601f01601f19169290920160200192915050565b60006101008a8352612620602084018b612599565b6001600160a01b03891660408401526060830188905260808301819052612649818401886125df565b90508560a084015284151560c084015282810360e084015261266b81856125df565b9b9a5050505050505050505050565b60208152600061268d60208301846125df565b9392505050565b80356001600160a01b03811681146126ab57600080fd5b919050565b634e487b7160e01b600052604160045260246000fd5b600082601f8301126126d757600080fd5b813567ffffffffffffffff808211156126f2576126f26126b0565b604051601f8301601f19908116603f0116810190828211818310171561271a5761271a6126b0565b8160405283815286602085880101111561273357600080fd5b836020870160208301376000602085830101528094505050505092915050565b803580151581146126ab57600080fd5b600080600080600080600060e0888a03121561277e57600080fd5b8735965061278e60208901612694565b9550604088013567ffffffffffffffff808211156127ab57600080fd5b6127b78b838c016126c6565b96506127c560608b01612753565b955060808a0135945060a08a01359150808211156127e257600080fd5b6127ee8b838c016126c6565b935060c08a013591508082111561280457600080fd5b506128118a828b016126c6565b91505092959891949750929550565b60006020828403121561283257600080fd5b81356006811061268d57600080fd5b60006020828403121561285357600080fd5b61268d82612694565b602080825282516001600160a01b031682820152820151610100604083018190526000919061288f6101208501836125df565b9150604085015160608501526060850151608085015260808501516128b860a086018215159052565b5060a085015160c085015260c085015160e085015260e0850151601f1985840301828601526128e783826125df565b9695505050505050565b6020808252825182820181905260009190848201906040850190845b818110156129295783518352928401929184019160010161290d565b50909695505050505050565b600080600080600080600060e0888a03121561295057600080fd5b61295988612694565b9650602088013595506040880135945061297560608901612753565b93506080880135925060a088013567ffffffffffffffff808211156127e257600080fd5b6020815281516020820152600060208301516129b86040840182612599565b5060018060a01b0360408401511660608301526060830151608083015260808301516101008060a08501526129f16101208501836125df565b915060a085015160c085015260c0850151612a1060e086018215159052565b5060e0850151848303601f1901828601526128e783826125df565b60008060408385031215612a3e57600080fd5b82359150602083013567ffffffffffffffff811115612a5c57600080fd5b612a68858286016126c6565b9150509250929050565b602081528151602082015260018060a01b0360208301511660408201526000604083015160e06060840152612aab6101008401826125df565b9050606084015115156080840152608084015160a084015260a0840151601f198483030160c0850152612ade82826125df565b91505060c084015160e08401528091505092915050565b8781526001600160a01b038716602082015260e060408201819052600090612b1f908301886125df565b861515606084015285608084015282810360a0840152612b3f81866125df565b9150508260c083015298975050505050505050565b6001600160a01b038916815261010060208201819052600090612b798382018b6125df565b905088604084015287606084015286151560808401528560a08401528460c084015282810360e084015261266b81856125df565b6040808252835182820181905260009190606090818501906020808901865b83811015612bf15781516001600160a01b031685529382019390820190600101612bcc565b5050868303818801528751808452888201938201925060005b81811015612c5f57845180516001600160a01b031685528381015184860152878101518886015286810151878601526080808201519086015260a090810151908501529382019360c090930192600101612c0a565b50919998505050505050505050565b60008060408385031215612c8157600080fd5b612c8a83612694565b946020939093013593505050565b60008060008060808587031215612cae57600080fd5b612cb785612694565b935060208501359250604085013567ffffffffffffffff80821115612cdb57600080fd5b612ce7888389016126c6565b93506060870135915080821115612cfd57600080fd5b50612d0a878288016126c6565b91505092959194509250565b600060208284031215612d2857600080fd5b813567ffffffffffffffff811115612d3f57600080fd5b612d4b848285016126c6565b949350505050565b600181811c90821680612d6757607f821691505b602082108103612d8757634e487b7160e01b600052602260045260246000fd5b50919050565b634e487b7160e01b600052601160045260246000fd5b600060018201612db557612db5612d8d565b5060010190565b601f821115612e0657600081815260208120601f850160051c81016020861015612de35750805b601f850160051c820191505b81811015612e0257828155600101612def565b5050505b505050565b815167ffffffffffffffff811115612e2557612e256126b0565b612e3981612e338454612d53565b84612dbc565b602080601f831160018114612e6e5760008415612e565750858301515b600019600386901b1c1916600185901b178555612e02565b600085815260208120601f198616915b82811015612e9d57888601518255948401946001909101908401612e7e565b5085821015612ebb5787850151600019600388901b60f8161c191681555b5050505050600190811b01905550565b60208101612ed98284612599565b92915050565b634e487b7160e01b600052603260045260246000fd5b80820180821115612ed957612ed9612d8d565b6bffffffffffffffffffffffff198560601b16815283601482015260008351612f388160348501602088016125bb565b6034920191820192909252605401949350505050565b8082028115828204841417612ed957612ed9612d8d565b600082612f8257634e487b7160e01b600052601260045260246000fd5b500490565b81810381811115612ed957612ed9612d8d565b634e487b7160e01b600052603160045260246000fd5b600081612fbf57612fbf612d8d565b50600019019056fea26469706673582212203c7b83a9da1c37aa089ad2efe22d80757c355a680019ac905ed7efa419fdf65c64736f6c63430008130033","opcodes":"PUSH1 0x80 PUSH1 0x40 MSTORE CALLVALUE DUP1 ISZERO PUSH3 0x11 JUMPI PUSH1 0x0 DUP1 REVERT JUMPDEST POP PUSH1 0x40 MLOAD PUSH3 0x32FC CODESIZE SUB DUP1 PUSH3 0x32FC DUP4 CODECOPY DUP2 ADD PUSH1 0x40 DUP2 SWAP1 MSTORE PUSH3 0x34 SWAP2 PUSH3 0xBF JUMP JUMPDEST PUSH3 0x3F CALLER PUSH3 0x59 JUMP JUMPDEST PUSH1 0x1 DUP1 SSTORE PUSH1 0x3 PUSH3 0x51 DUP3 DUP3 PUSH3 0x223 JUMP JUMPDEST POP POP PUSH3 0x2EF JUMP JUMPDEST PUSH1 0x0 DUP1 SLOAD PUSH1 0x1 PUSH1 0x1 PUSH1 0xA0 SHL SUB DUP4 DUP2 AND PUSH1 0x1 PUSH1 0x1 PUSH1 0xA0 SHL SUB NOT DUP4 AND DUP2 OR DUP5 SSTORE PUSH1 0x40 MLOAD SWAP2 SWAP1 SWAP3 AND SWAP3 DUP4 SWAP2 PUSH32 0x8BE0079C531659141344CD1FD0A4F28419497F9722A3DAAFE3B4186F6B6457E0 SWAP2 SWAP1 LOG3 POP POP JUMP JUMPDEST PUSH4 0x4E487B71 PUSH1 0xE0 SHL PUSH1 0x0 MSTORE PUSH1 0x41 PUSH1 0x4 MSTORE PUSH1 0x24 PUSH1 0x0 REVERT JUMPDEST PUSH1 0x0 PUSH1 0x20 DUP1 DUP4 DUP6 SUB SLT ISZERO PUSH3 0xD3 JUMPI PUSH1 0x0 DUP1 REVERT JUMPDEST DUP3 MLOAD PUSH1 0x1 PUSH1 0x1 PUSH1 0x40 SHL SUB DUP1 DUP3 GT ISZERO PUSH3 0xEB JUMPI PUSH1 0x0 DUP1 REVERT JUMPDEST DUP2 DUP6 ADD SWAP2 POP DUP6 PUSH1 0x1F DUP4 ADD SLT PUSH3 0x100 JUMPI PUSH1 0x0 DUP1 REVERT JUMPDEST DUP2 MLOAD DUP2 DUP2 GT ISZERO PUSH3 0x115 JUMPI PUSH3 0x115 PUSH3 0xA9 JUMP JUMPDEST PUSH1 0x40 MLOAD PUSH1 0x1F DUP3 ADD PUSH1 0x1F NOT SWAP1 DUP2 AND PUSH1 0x3F ADD AND DUP2 ADD SWAP1 DUP4 DUP3 GT DUP2 DUP4 LT OR ISZERO PUSH3 0x140 JUMPI PUSH3 0x140 PUSH3 0xA9 JUMP JUMPDEST DUP2 PUSH1 0x40 MSTORE DUP3 DUP2 MSTORE DUP9 DUP7 DUP5 DUP8 ADD ADD GT ISZERO PUSH3 0x159 JUMPI PUSH1 0x0 DUP1 REVERT JUMPDEST PUSH1 0x0 SWAP4 POP JUMPDEST DUP3 DUP5 LT ISZERO PUSH3 0x17D JUMPI DUP5 DUP5 ADD DUP7 ADD MLOAD DUP2 DUP6 ADD DUP8 ADD MSTORE SWAP3 DUP6 ADD SWAP3 PUSH3 0x15E JUMP JUMPDEST PUSH1 0x0 DUP7 DUP5 DUP4 ADD ADD MSTORE DUP1 SWAP7 POP POP POP POP POP POP POP SWAP3 SWAP2 POP POP JUMP JUMPDEST PUSH1 0x1 DUP2 DUP2 SHR SWAP1 DUP3 AND DUP1 PUSH3 0x1A9 JUMPI PUSH1 0x7F DUP3 AND SWAP2 POP JUMPDEST PUSH1 0x20 DUP3 LT DUP2 SUB PUSH3 0x1CA JUMPI PUSH4 0x4E487B71 PUSH1 0xE0 SHL PUSH1 0x0 MSTORE PUSH1 0x22 PUSH1 0x4 MSTORE PUSH1 0x24 PUSH1 0x0 REVERT JUMPDEST POP SWAP2 SWAP1 POP JUMP JUMPDEST PUSH1 0x1F DUP3 GT ISZERO PUSH3 0x21E JUMPI PUSH1 0x0 DUP2 DUP2 MSTORE PUSH1 0x20 DUP2 KECCAK256 PUSH1 0x1F DUP6 ADD PUSH1 0x5 SHR DUP2 ADD PUSH1 0x20 DUP7 LT ISZERO PUSH3 0x1F9 JUMPI POP DUP1 JUMPDEST PUSH1 0x1F DUP6 ADD PUSH1 0x5 SHR DUP3 ADD SWAP2 POP JUMPDEST DUP2 DUP2 LT ISZERO PUSH3 0x21A JUMPI DUP3 DUP2 SSTORE PUSH1 0x1 ADD PUSH3 0x205 JUMP JUMPDEST POP POP POP JUMPDEST POP POP POP JUMP JUMPDEST DUP2 MLOAD PUSH1 0x1 PUSH1 0x1 PUSH1 0x40 SHL SUB DUP2 GT ISZERO PUSH3 0x23F JUMPI PUSH3 0x23F PUSH3 0xA9 JUMP JUMPDEST PUSH3 0x257 DUP2 PUSH3 0x250 DUP5 SLOAD PUSH3 0x194 JUMP JUMPDEST DUP5 PUSH3 0x1D0 JUMP JUMPDEST PUSH1 0x20 DUP1 PUSH1 0x1F DUP4 GT PUSH1 0x1 DUP2 EQ PUSH3 0x28F JUMPI PUSH1 0x0 DUP5 ISZERO PUSH3 0x276 JUMPI POP DUP6 DUP4 ADD MLOAD JUMPDEST PUSH1 0x0 NOT PUSH1 0x3 DUP7 SWAP1 SHL SHR NOT AND PUSH1 0x1 DUP6 SWAP1 SHL OR DUP6 SSTORE PUSH3 0x21A JUMP JUMPDEST PUSH1 0x0 DUP6 DUP2 MSTORE PUSH1 0x20 DUP2 KECCAK256 PUSH1 0x1F NOT DUP7 AND SWAP2 JUMPDEST DUP3 DUP2 LT ISZERO PUSH3 0x2C0 JUMPI DUP9 DUP7 ADD MLOAD DUP3 SSTORE SWAP5 DUP5 ADD SWAP5 PUSH1 0x1 SWAP1 SWAP2 ADD SWAP1 DUP5 ADD PUSH3 0x29F JUMP JUMPDEST POP DUP6 DUP3 LT ISZERO PUSH3 0x2DF JUMPI DUP8 DUP6 ADD MLOAD PUSH1 0x0 NOT PUSH1 0x3 DUP9 SWAP1 SHL PUSH1 0xF8 AND SHR NOT AND DUP2 SSTORE JUMPDEST POP POP POP POP POP PUSH1 0x1 SWAP1 DUP2 SHL ADD SWAP1 SSTORE POP JUMP JUMPDEST PUSH2 0x2FFD DUP1 PUSH3 0x2FF PUSH1 0x0 CODECOPY PUSH1 0x0 RETURN INVALID PUSH1 0x80 PUSH1 0x40 MSTORE CALLVALUE DUP1 ISZERO PUSH2 0x10 JUMPI PUSH1 0x0 DUP1 REVERT JUMPDEST POP PUSH1 0x4 CALLDATASIZE LT PUSH2 0x1CE JUMPI PUSH1 0x0 CALLDATALOAD PUSH1 0xE0 SHR DUP1 PUSH4 0x8908F329 GT PUSH2 0x104 JUMPI DUP1 PUSH4 0xB021352A GT PUSH2 0xA2 JUMPI DUP1 PUSH4 0xDCC3BE01 GT PUSH2 0x71 JUMPI DUP1 PUSH4 0xDCC3BE01 EQ PUSH2 0x4ED JUMPI DUP1 PUSH4 0xDEA12207 EQ PUSH2 0x500 JUMPI DUP1 PUSH4 0xF2FDE38B EQ PUSH2 0x513 JUMPI DUP1 PUSH4 0xF89E5694 EQ PUSH2 0x526 JUMPI PUSH1 0x0 DUP1 REVERT JUMPDEST DUP1 PUSH4 0xB021352A EQ PUSH2 0x42D JUMPI DUP1 PUSH4 0xBA3C0067 EQ PUSH2 0x435 JUMPI DUP1 PUSH4 0xBE94C770 EQ PUSH2 0x456 JUMPI DUP1 PUSH4 0xD1D33D20 EQ PUSH2 0x469 JUMPI PUSH1 0x0 DUP1 REVERT JUMPDEST DUP1 PUSH4 0x925EA1DD GT PUSH2 0xDE JUMPI DUP1 PUSH4 0x925EA1DD EQ PUSH2 0x3AA JUMPI DUP1 PUSH4 0x9C7D13EB EQ PUSH2 0x3D0 JUMPI DUP1 PUSH4 0xA078F8B7 EQ PUSH2 0x3F7 JUMPI DUP1 PUSH4 0xAF137CA8 EQ PUSH2 0x41A JUMPI PUSH1 0x0 DUP1 REVERT JUMPDEST DUP1 PUSH4 0x8908F329 EQ PUSH2 0x34E JUMPI DUP1 PUSH4 0x89EE3E97 EQ PUSH2 0x36E JUMPI DUP1 PUSH4 0x8DA5CB5B EQ PUSH2 0x399 JUMPI PUSH1 0x0 DUP1 REVERT JUMPDEST DUP1 PUSH4 0x21F3E265 GT PUSH2 0x171 JUMPI DUP1 PUSH4 0x4C33B5F3 GT PUSH2 0x14B JUMPI DUP1 PUSH4 0x4C33B5F3 EQ PUSH2 0x300 JUMPI DUP1 PUSH4 0x64F51F30 EQ PUSH2 0x313 JUMPI DUP1 PUSH4 0x715018A6 EQ PUSH2 0x333 JUMPI DUP1 PUSH4 0x79616B4F EQ PUSH2 0x33B JUMPI PUSH1 0x0 DUP1 REVERT JUMPDEST DUP1 PUSH4 0x21F3E265 EQ PUSH2 0x2AE JUMPI DUP1 PUSH4 0x33022A81 EQ PUSH2 0x2D7 JUMPI DUP1 PUSH4 0x3DBCC8D1 EQ PUSH2 0x2F7 JUMPI PUSH1 0x0 DUP1 REVERT JUMPDEST DUP1 PUSH4 0x8A0AA06 GT PUSH2 0x1AD JUMPI DUP1 PUSH4 0x8A0AA06 EQ PUSH2 0x239 JUMPI DUP1 PUSH4 0x177AB321 EQ PUSH2 0x259 JUMPI DUP1 PUSH4 0x18F538EE EQ PUSH2 0x26E JUMPI DUP1 PUSH4 0x1BDBDA4D EQ PUSH2 0x28E JUMPI PUSH1 0x0 DUP1 REVERT JUMPDEST DUP1 PUSH3 0x79AAD6 EQ PUSH2 0x1D3 JUMPI DUP1 PUSH4 0x139B5F1 EQ PUSH2 0x203 JUMPI DUP1 PUSH4 0x3E64BD3 EQ PUSH2 0x218 JUMPI JUMPDEST PUSH1 0x0 DUP1 REVERT JUMPDEST PUSH2 0x1E6 PUSH2 0x1E1 CALLDATASIZE PUSH1 0x4 PUSH2 0x256A JUMP JUMPDEST PUSH2 0x539 JUMP JUMPDEST PUSH1 0x40 MLOAD PUSH2 0x1FA SWAP9 SWAP8 SWAP7 SWAP6 SWAP5 SWAP4 SWAP3 SWAP2 SWAP1 PUSH2 0x260B JUMP JUMPDEST PUSH1 0x40 MLOAD DUP1 SWAP2 SUB SWAP1 RETURN JUMPDEST PUSH2 0x20B PUSH2 0x6A1 JUMP JUMPDEST PUSH1 0x40 MLOAD PUSH2 0x1FA SWAP2 SWAP1 PUSH2 0x267A JUMP JUMPDEST PUSH2 0x22B PUSH2 0x226 CALLDATASIZE PUSH1 0x4 PUSH2 0x2763 JUMP JUMPDEST PUSH2 0x72F JUMP JUMPDEST PUSH1 0x40 MLOAD SWAP1 DUP2 MSTORE PUSH1 0x20 ADD PUSH2 0x1FA JUMP JUMPDEST PUSH2 0x22B PUSH2 0x247 CALLDATASIZE PUSH1 0x4 PUSH2 0x2820 JUMP JUMPDEST PUSH1 0xA PUSH1 0x20 MSTORE PUSH1 0x0 SWAP1 DUP2 MSTORE PUSH1 0x40 SWAP1 KECCAK256 SLOAD DUP2 JUMP JUMPDEST PUSH2 0x26C PUSH2 0x267 CALLDATASIZE PUSH1 0x4 PUSH2 0x2841 JUMP JUMPDEST PUSH2 0xAC2 JUMP JUMPDEST STOP JUMPDEST PUSH2 0x281 PUSH2 0x27C CALLDATASIZE PUSH1 0x4 PUSH2 0x256A JUMP JUMPDEST PUSH2 0xAEC JUMP JUMPDEST PUSH1 0x40 MLOAD PUSH2 0x1FA SWAP2 SWAP1 PUSH2 0x285C JUMP JUMPDEST PUSH2 0x2A1 PUSH2 0x29C CALLDATASIZE PUSH1 0x4 PUSH2 0x2841 JUMP JUMPDEST PUSH2 0xCBF JUMP JUMPDEST PUSH1 0x40 MLOAD PUSH2 0x1FA SWAP2 SWAP1 PUSH2 0x28F1 JUMP JUMPDEST PUSH2 0x22B PUSH2 0x2BC CALLDATASIZE PUSH1 0x4 PUSH2 0x2841 JUMP JUMPDEST PUSH1 0x1 PUSH1 0x1 PUSH1 0xA0 SHL SUB AND PUSH1 0x0 SWAP1 DUP2 MSTORE PUSH1 0xC PUSH1 0x20 MSTORE PUSH1 0x40 SWAP1 KECCAK256 SLOAD SWAP1 JUMP JUMPDEST PUSH2 0x22B PUSH2 0x2E5 CALLDATASIZE PUSH1 0x4 PUSH2 0x2841 JUMP JUMPDEST PUSH1 0xC PUSH1 0x20 MSTORE PUSH1 0x0 SWAP1 DUP2 MSTORE PUSH1 0x40 SWAP1 KECCAK256 SLOAD DUP2 JUMP JUMPDEST PUSH2 0x22B PUSH1 0x4 SLOAD DUP2 JUMP JUMPDEST PUSH2 0x22B PUSH2 0x30E CALLDATASIZE PUSH1 0x4 PUSH2 0x2935 JUMP JUMPDEST PUSH2 0xD2B JUMP JUMPDEST PUSH2 0x326 PUSH2 0x321 CALLDATASIZE PUSH1 0x4 PUSH2 0x256A JUMP JUMPDEST PUSH2 0x11A0 JUMP JUMPDEST PUSH1 0x40 MLOAD PUSH2 0x1FA SWAP2 SWAP1 PUSH2 0x2999 JUMP JUMPDEST PUSH2 0x26C PUSH2 0x1362 JUMP JUMPDEST PUSH2 0x26C PUSH2 0x349 CALLDATASIZE PUSH1 0x4 PUSH2 0x2A2B JUMP JUMPDEST PUSH2 0x1376 JUMP JUMPDEST PUSH2 0x361 PUSH2 0x35C CALLDATASIZE PUSH1 0x4 PUSH2 0x256A JUMP JUMPDEST PUSH2 0x1478 JUMP JUMPDEST PUSH1 0x40 MLOAD PUSH2 0x1FA SWAP2 SWAP1 PUSH2 0x2A72 JUMP JUMPDEST PUSH1 0x2 SLOAD PUSH2 0x381 SWAP1 PUSH1 0x1 PUSH1 0x1 PUSH1 0xA0 SHL SUB AND DUP2 JUMP JUMPDEST PUSH1 0x40 MLOAD PUSH1 0x1 PUSH1 0x1 PUSH1 0xA0 SHL SUB SWAP1 SWAP2 AND DUP2 MSTORE PUSH1 0x20 ADD PUSH2 0x1FA JUMP JUMPDEST PUSH1 0x0 SLOAD PUSH1 0x1 PUSH1 0x1 PUSH1 0xA0 SHL SUB AND PUSH2 0x381 JUMP JUMPDEST PUSH2 0x3BD PUSH2 0x3B8 CALLDATASIZE PUSH1 0x4 PUSH2 0x256A JUMP JUMPDEST PUSH2 0x1652 JUMP JUMPDEST PUSH1 0x40 MLOAD PUSH2 0x1FA SWAP8 SWAP7 SWAP6 SWAP5 SWAP4 SWAP3 SWAP2 SWAP1 PUSH2 0x2AF5 JUMP JUMPDEST PUSH2 0x3E3 PUSH2 0x3DE CALLDATASIZE PUSH1 0x4 PUSH2 0x256A JUMP JUMPDEST PUSH2 0x17AF JUMP JUMPDEST PUSH1 0x40 MLOAD PUSH2 0x1FA SWAP9 SWAP8 SWAP7 SWAP6 SWAP5 SWAP4 SWAP3 SWAP2 SWAP1 PUSH2 0x2B54 JUMP JUMPDEST PUSH2 0x3FF PUSH2 0x1894 JUMP JUMPDEST PUSH1 0x40 DUP1 MLOAD SWAP4 DUP5 MSTORE PUSH1 0x20 DUP5 ADD SWAP3 SWAP1 SWAP3 MSTORE SWAP1 DUP3 ADD MSTORE PUSH1 0x60 ADD PUSH2 0x1FA JUMP JUMPDEST PUSH2 0x381 PUSH2 0x428 CALLDATASIZE PUSH1 0x4 PUSH2 0x256A JUMP JUMPDEST PUSH2 0x1969 JUMP JUMPDEST PUSH1 0x4 SLOAD PUSH2 0x22B JUMP JUMPDEST PUSH2 0x448 PUSH2 0x443 CALLDATASIZE PUSH1 0x4 PUSH2 0x256A JUMP JUMPDEST PUSH2 0x1993 JUMP JUMPDEST PUSH1 0x40 MLOAD PUSH2 0x1FA SWAP3 SWAP2 SWAP1 PUSH2 0x2BAD JUMP JUMPDEST PUSH2 0x22B PUSH2 0x464 CALLDATASIZE PUSH1 0x4 PUSH2 0x2C6E JUMP JUMPDEST PUSH2 0x1BB9 JUMP JUMPDEST PUSH2 0x4B6 PUSH2 0x477 CALLDATASIZE PUSH1 0x4 PUSH2 0x2841 JUMP JUMPDEST PUSH1 0x8 PUSH1 0x20 MSTORE PUSH1 0x0 SWAP1 DUP2 MSTORE PUSH1 0x40 SWAP1 KECCAK256 DUP1 SLOAD PUSH1 0x1 DUP3 ADD SLOAD PUSH1 0x2 DUP4 ADD SLOAD PUSH1 0x3 DUP5 ADD SLOAD PUSH1 0x4 DUP6 ADD SLOAD PUSH1 0x5 SWAP1 SWAP6 ADD SLOAD PUSH1 0x1 PUSH1 0x1 PUSH1 0xA0 SHL SUB SWAP1 SWAP5 AND SWAP5 SWAP3 SWAP4 SWAP2 SWAP3 SWAP1 SWAP2 DUP7 JUMP JUMPDEST PUSH1 0x40 DUP1 MLOAD PUSH1 0x1 PUSH1 0x1 PUSH1 0xA0 SHL SUB SWAP1 SWAP8 AND DUP8 MSTORE PUSH1 0x20 DUP8 ADD SWAP6 SWAP1 SWAP6 MSTORE SWAP4 DUP6 ADD SWAP3 SWAP1 SWAP3 MSTORE PUSH1 0x60 DUP5 ADD MSTORE PUSH1 0x80 DUP4 ADD MSTORE PUSH1 0xA0 DUP3 ADD MSTORE PUSH1 0xC0 ADD PUSH2 0x1FA JUMP JUMPDEST PUSH2 0x22B PUSH2 0x4FB CALLDATASIZE PUSH1 0x4 PUSH2 0x2C98 JUMP JUMPDEST PUSH2 0x1BEA JUMP JUMPDEST PUSH2 0x22B PUSH2 0x50E CALLDATASIZE PUSH1 0x4 PUSH2 0x2820 JUMP JUMPDEST PUSH2 0x1E45 JUMP JUMPDEST PUSH2 0x26C PUSH2 0x521 CALLDATASIZE PUSH1 0x4 PUSH2 0x2841 JUMP JUMPDEST PUSH2 0x1E84 JUMP JUMPDEST PUSH2 0x26C PUSH2 0x534 CALLDATASIZE PUSH1 0x4 PUSH2 0x2D16 JUMP JUMPDEST PUSH2 0x1EFD JUMP JUMPDEST PUSH1 0x5 PUSH1 0x20 MSTORE PUSH1 0x0 SWAP1 DUP2 MSTORE PUSH1 0x40 SWAP1 KECCAK256 DUP1 SLOAD PUSH1 0x1 DUP3 ADD SLOAD PUSH1 0x2 DUP4 ADD SLOAD PUSH1 0x3 DUP5 ADD DUP1 SLOAD SWAP4 SWAP5 PUSH1 0xFF DUP5 AND SWAP5 PUSH2 0x100 SWAP1 SWAP5 DIV PUSH1 0x1 PUSH1 0x1 PUSH1 0xA0 SHL SUB AND SWAP4 SWAP1 SWAP2 SWAP1 PUSH2 0x57C SWAP1 PUSH2 0x2D53 JUMP JUMPDEST DUP1 PUSH1 0x1F ADD PUSH1 0x20 DUP1 SWAP2 DIV MUL PUSH1 0x20 ADD PUSH1 0x40 MLOAD SWAP1 DUP2 ADD PUSH1 0x40 MSTORE DUP1 SWAP3 SWAP2 SWAP1 DUP2 DUP2 MSTORE PUSH1 0x20 ADD DUP3 DUP1 SLOAD PUSH2 0x5A8 SWAP1 PUSH2 0x2D53 JUMP JUMPDEST DUP1 ISZERO PUSH2 0x5F5 JUMPI DUP1 PUSH1 0x1F LT PUSH2 0x5CA JUMPI PUSH2 0x100 DUP1 DUP4 SLOAD DIV MUL DUP4 MSTORE SWAP2 PUSH1 0x20 ADD SWAP2 PUSH2 0x5F5 JUMP JUMPDEST DUP3 ADD SWAP2 SWAP1 PUSH1 0x0 MSTORE PUSH1 0x20 PUSH1 0x0 KECCAK256 SWAP1 JUMPDEST DUP2 SLOAD DUP2 MSTORE SWAP1 PUSH1 0x1 ADD SWAP1 PUSH1 0x20 ADD DUP1 DUP4 GT PUSH2 0x5D8 JUMPI DUP3 SWAP1 SUB PUSH1 0x1F AND DUP3 ADD SWAP2 JUMPDEST POP POP POP POP PUSH1 0x4 DUP4 ADD SLOAD PUSH1 0x5 DUP5 ADD SLOAD PUSH1 0x6 DUP6 ADD DUP1 SLOAD SWAP5 SWAP6 SWAP3 SWAP5 PUSH1 0xFF SWAP1 SWAP3 AND SWAP4 POP SWAP1 PUSH2 0x61E SWAP1 PUSH2 0x2D53 JUMP JUMPDEST DUP1 PUSH1 0x1F ADD PUSH1 0x20 DUP1 SWAP2 DIV MUL PUSH1 0x20 ADD PUSH1 0x40 MLOAD SWAP1 DUP2 ADD PUSH1 0x40 MSTORE DUP1 SWAP3 SWAP2 SWAP1 DUP2 DUP2 MSTORE PUSH1 0x20 ADD DUP3 DUP1 SLOAD PUSH2 0x64A SWAP1 PUSH2 0x2D53 JUMP JUMPDEST DUP1 ISZERO PUSH2 0x697 JUMPI DUP1 PUSH1 0x1F LT PUSH2 0x66C JUMPI PUSH2 0x100 DUP1 DUP4 SLOAD DIV MUL DUP4 MSTORE SWAP2 PUSH1 0x20 ADD SWAP2 PUSH2 0x697 JUMP JUMPDEST DUP3 ADD SWAP2 SWAP1 PUSH1 0x0 MSTORE PUSH1 0x20 PUSH1 0x0 KECCAK256 SWAP1 JUMPDEST DUP2 SLOAD DUP2 MSTORE SWAP1 PUSH1 0x1 ADD SWAP1 PUSH1 0x20 ADD DUP1 DUP4 GT PUSH2 0x67A JUMPI DUP3 SWAP1 SUB PUSH1 0x1F AND DUP3 ADD SWAP2 JUMPDEST POP POP POP POP POP SWAP1 POP DUP9 JUMP JUMPDEST PUSH1 0x3 DUP1 SLOAD PUSH2 0x6AE SWAP1 PUSH2 0x2D53 JUMP JUMPDEST DUP1 PUSH1 0x1F ADD PUSH1 0x20 DUP1 SWAP2 DIV MUL PUSH1 0x20 ADD PUSH1 0x40 MLOAD SWAP1 DUP2 ADD PUSH1 0x40 MSTORE DUP1 SWAP3 SWAP2 SWAP1 DUP2 DUP2 MSTORE PUSH1 0x20 ADD DUP3 DUP1 SLOAD PUSH2 0x6DA SWAP1 PUSH2 0x2D53 JUMP JUMPDEST DUP1 ISZERO PUSH2 0x727 JUMPI DUP1 PUSH1 0x1F LT PUSH2 0x6FC JUMPI PUSH2 0x100 DUP1 DUP4 SLOAD DIV MUL DUP4 MSTORE SWAP2 PUSH1 0x20 ADD SWAP2 PUSH2 0x727 JUMP JUMPDEST DUP3 ADD SWAP2 SWAP1 PUSH1 0x0 MSTORE PUSH1 0x20 PUSH1 0x0 KECCAK256 SWAP1 JUMPDEST DUP2 SLOAD DUP2 MSTORE SWAP1 PUSH1 0x1 ADD SWAP1 PUSH1 0x20 ADD DUP1 DUP4 GT PUSH2 0x70A JUMPI DUP3 SWAP1 SUB PUSH1 0x1F AND DUP3 ADD SWAP2 JUMPDEST POP POP POP POP POP DUP2 JUMP JUMPDEST PUSH1 0x2 SLOAD PUSH1 0x0 SWAP1 PUSH1 0x1 PUSH1 0x1 PUSH1 0xA0 SHL SUB AND CALLER EQ DUP1 PUSH2 0x755 JUMPI POP PUSH1 0x0 SLOAD PUSH1 0x1 PUSH1 0x1 PUSH1 0xA0 SHL SUB AND CALLER EQ JUMPDEST PUSH2 0x797 JUMPI PUSH1 0x40 MLOAD PUSH3 0x461BCD PUSH1 0xE5 SHL DUP2 MSTORE PUSH1 0x20 PUSH1 0x4 DUP3 ADD MSTORE PUSH1 0xE PUSH1 0x24 DUP3 ADD MSTORE PUSH14 0x139BDD08185D5D1A1BDC9A5E9959 PUSH1 0x92 SHL PUSH1 0x44 DUP3 ADD MSTORE PUSH1 0x64 ADD JUMPDEST PUSH1 0x40 MLOAD DUP1 SWAP2 SUB SWAP1 REVERT JUMPDEST PUSH1 0x4 DUP1 SLOAD PUSH1 0x0 SWAP2 DUP3 PUSH2 0x7A8 DUP4 PUSH2 0x2DA3 JUMP JUMPDEST SWAP2 SWAP1 POP SSTORE SWAP1 POP PUSH1 0x40 MLOAD DUP1 PUSH1 0xE0 ADD PUSH1 0x40 MSTORE DUP1 DUP11 DUP2 MSTORE PUSH1 0x20 ADD DUP10 PUSH1 0x1 PUSH1 0x1 PUSH1 0xA0 SHL SUB AND DUP2 MSTORE PUSH1 0x20 ADD DUP9 DUP2 MSTORE PUSH1 0x20 ADD DUP8 ISZERO ISZERO DUP2 MSTORE PUSH1 0x20 ADD DUP7 DUP2 MSTORE PUSH1 0x20 ADD DUP6 DUP2 MSTORE PUSH1 0x20 ADD TIMESTAMP DUP2 MSTORE POP PUSH1 0x7 PUSH1 0x0 DUP12 DUP2 MSTORE PUSH1 0x20 ADD SWAP1 DUP2 MSTORE PUSH1 0x20 ADD PUSH1 0x0 KECCAK256 PUSH1 0x0 DUP3 ADD MLOAD DUP2 PUSH1 0x0 ADD SSTORE PUSH1 0x20 DUP3 ADD MLOAD DUP2 PUSH1 0x1 ADD PUSH1 0x0 PUSH2 0x100 EXP DUP2 SLOAD DUP2 PUSH1 0x1 PUSH1 0x1 PUSH1 0xA0 SHL SUB MUL NOT AND SWAP1 DUP4 PUSH1 0x1 PUSH1 0x1 PUSH1 0xA0 SHL SUB AND MUL OR SWAP1 SSTORE POP PUSH1 0x40 DUP3 ADD MLOAD DUP2 PUSH1 0x2 ADD SWAP1 DUP2 PUSH2 0x84B SWAP2 SWAP1 PUSH2 0x2E0B JUMP JUMPDEST POP PUSH1 0x60 DUP3 ADD MLOAD PUSH1 0x3 DUP3 ADD DUP1 SLOAD PUSH1 0xFF NOT AND SWAP2 ISZERO ISZERO SWAP2 SWAP1 SWAP2 OR SWAP1 SSTORE PUSH1 0x80 DUP3 ADD MLOAD PUSH1 0x4 DUP3 ADD SSTORE PUSH1 0xA0 DUP3 ADD MLOAD PUSH1 0x5 DUP3 ADD SWAP1 PUSH2 0x882 SWAP1 DUP3 PUSH2 0x2E0B JUMP JUMPDEST POP PUSH1 0xC0 SWAP2 SWAP1 SWAP2 ADD MLOAD PUSH1 0x6 SWAP1 SWAP2 ADD SSTORE PUSH1 0x40 DUP1 MLOAD PUSH1 0x20 DUP2 ADD DUP12 SWAP1 MSTORE PUSH1 0x1 PUSH1 0x1 PUSH1 0x60 SHL SUB NOT PUSH1 0x60 DUP12 SWAP1 SHL AND SWAP2 DUP2 ADD SWAP2 SWAP1 SWAP2 MSTORE DUP7 ISZERO ISZERO PUSH1 0xF8 SHL PUSH1 0x54 DUP3 ADD MSTORE PUSH1 0x55 DUP2 ADD DUP7 SWAP1 MSTORE TIMESTAMP PUSH1 0x75 DUP3 ADD MSTORE PUSH1 0x0 SWAP1 PUSH1 0x95 ADD PUSH1 0x40 DUP1 MLOAD DUP1 DUP4 SUB PUSH1 0x1F NOT ADD DUP2 MSTORE DUP3 DUP3 MSTORE DUP1 MLOAD PUSH1 0x20 SWAP2 DUP3 ADD KECCAK256 PUSH2 0x100 DUP5 ADD DUP4 MSTORE DUP6 DUP5 MSTORE PUSH1 0x2 DUP3 DUP6 ADD SWAP1 DUP2 MSTORE PUSH1 0x0 DUP6 DUP6 ADD DUP2 SWAP1 MSTORE PUSH1 0x60 DUP7 ADD DUP4 SWAP1 MSTORE PUSH1 0x80 DUP7 ADD DUP11 SWAP1 MSTORE TIMESTAMP PUSH1 0xA0 DUP8 ADD MSTORE PUSH1 0xC0 DUP7 ADD DUP2 SWAP1 MSTORE DUP5 MLOAD DUP1 DUP6 ADD DUP7 MSTORE DUP2 DUP2 MSTORE PUSH1 0xE0 DUP8 ADD MSTORE DUP8 DUP2 MSTORE PUSH1 0x5 SWAP4 DUP5 SWAP1 MSTORE SWAP4 SWAP1 SWAP4 KECCAK256 DUP5 MLOAD DUP2 SSTORE SWAP3 MLOAD PUSH1 0x1 DUP5 DUP2 ADD DUP1 SLOAD SWAP4 SWAP8 POP SWAP2 SWAP4 SWAP2 SWAP3 PUSH1 0xFF NOT AND SWAP2 DUP5 SWAP1 DUP2 GT ISZERO PUSH2 0x962 JUMPI PUSH2 0x962 PUSH2 0x2583 JUMP JUMPDEST MUL OR SWAP1 SSTORE POP PUSH1 0x40 DUP3 ADD MLOAD PUSH1 0x1 DUP3 ADD DUP1 SLOAD PUSH1 0x1 PUSH1 0x1 PUSH1 0xA0 SHL SUB SWAP1 SWAP3 AND PUSH2 0x100 MUL PUSH2 0x100 PUSH1 0x1 PUSH1 0xA8 SHL SUB NOT SWAP1 SWAP3 AND SWAP2 SWAP1 SWAP2 OR SWAP1 SSTORE PUSH1 0x60 DUP3 ADD MLOAD PUSH1 0x2 DUP3 ADD SSTORE PUSH1 0x80 DUP3 ADD MLOAD PUSH1 0x3 DUP3 ADD SWAP1 PUSH2 0x9B2 SWAP1 DUP3 PUSH2 0x2E0B JUMP JUMPDEST POP PUSH1 0xA0 DUP3 ADD MLOAD PUSH1 0x4 DUP3 ADD SSTORE PUSH1 0xC0 DUP3 ADD MLOAD PUSH1 0x5 DUP3 ADD DUP1 SLOAD PUSH1 0xFF NOT AND SWAP2 ISZERO ISZERO SWAP2 SWAP1 SWAP2 OR SWAP1 SSTORE PUSH1 0xE0 DUP3 ADD MLOAD PUSH1 0x6 DUP3 ADD SWAP1 PUSH2 0x9E9 SWAP1 DUP3 PUSH2 0x2E0B JUMP JUMPDEST POP POP PUSH1 0x2 PUSH1 0x0 SWAP1 DUP2 MSTORE PUSH1 0xA PUSH1 0x20 MSTORE PUSH32 0xBFF4442B8ED600BEEB8E26B1279A0F0D14C6EDFAEC26D968EE13C86F7D4C2BA8 DUP1 SLOAD SWAP3 POP SWAP1 PUSH2 0xA26 DUP4 PUSH2 0x2DA3 JUMP JUMPDEST SWAP2 SWAP1 POP SSTORE POP PUSH1 0x0 PUSH1 0x1 PUSH1 0x1 PUSH1 0xA0 SHL SUB AND DUP3 PUSH32 0xF48253C80E26E6C01D71F55D4E6267FDB2700852B7558F9F13EF4722F2843102 PUSH1 0x2 PUSH1 0x40 MLOAD PUSH2 0xA67 SWAP2 SWAP1 PUSH2 0x2ECB JUMP JUMPDEST PUSH1 0x40 MLOAD DUP1 SWAP2 SUB SWAP1 LOG3 DUP9 PUSH1 0x1 PUSH1 0x1 PUSH1 0xA0 SHL SUB AND DUP11 PUSH32 0xCF4D0B88C89741A69776CA0FA5E487AAB554DCF86A5E47F5EEE7D791B842DD6A DUP10 PUSH1 0x40 MLOAD PUSH2 0xAAD SWAP2 ISZERO ISZERO DUP2 MSTORE PUSH1 0x20 ADD SWAP1 JUMP JUMPDEST PUSH1 0x40 MLOAD DUP1 SWAP2 SUB SWAP1 LOG3 POP SWAP9 SWAP8 POP POP POP POP POP POP POP POP JUMP JUMPDEST PUSH2 0xACA PUSH2 0x1F4C JUMP JUMPDEST PUSH1 0x2 DUP1 SLOAD PUSH1 0x1 PUSH1 0x1 PUSH1 0xA0 SHL SUB NOT AND PUSH1 0x1 PUSH1 0x1 PUSH1 0xA0 SHL SUB SWAP3 SWAP1 SWAP3 AND SWAP2 SWAP1 SWAP2 OR SWAP1 SSTORE JUMP JUMPDEST PUSH1 0x40 DUP1 MLOAD PUSH2 0x100 DUP2 ADD DUP3 MSTORE PUSH1 0x0 DUP1 DUP3 MSTORE PUSH1 0x60 PUSH1 0x20 DUP4 ADD DUP2 SWAP1 MSTORE SWAP3 DUP3 ADD DUP2 SWAP1 MSTORE DUP3 DUP3 ADD DUP2 SWAP1 MSTORE PUSH1 0x80 DUP3 ADD DUP2 SWAP1 MSTORE PUSH1 0xA0 DUP3 ADD DUP2 SWAP1 MSTORE PUSH1 0xC0 DUP3 ADD MSTORE PUSH1 0xE0 DUP2 ADD SWAP2 SWAP1 SWAP2 MSTORE PUSH1 0x0 DUP3 DUP2 MSTORE PUSH1 0x6 PUSH1 0x20 SWAP1 DUP2 MSTORE PUSH1 0x40 SWAP2 DUP3 SWAP1 KECCAK256 DUP3 MLOAD PUSH2 0x100 DUP2 ADD SWAP1 SWAP4 MSTORE DUP1 SLOAD PUSH1 0x1 PUSH1 0x1 PUSH1 0xA0 SHL SUB AND DUP4 MSTORE PUSH1 0x1 DUP2 ADD DUP1 SLOAD SWAP2 SWAP3 DUP5 ADD SWAP2 PUSH2 0xB69 SWAP1 PUSH2 0x2D53 JUMP JUMPDEST DUP1 PUSH1 0x1F ADD PUSH1 0x20 DUP1 SWAP2 DIV MUL PUSH1 0x20 ADD PUSH1 0x40 MLOAD SWAP1 DUP2 ADD PUSH1 0x40 MSTORE DUP1 SWAP3 SWAP2 SWAP1 DUP2 DUP2 MSTORE PUSH1 0x20 ADD DUP3 DUP1 SLOAD PUSH2 0xB95 SWAP1 PUSH2 0x2D53 JUMP JUMPDEST DUP1 ISZERO PUSH2 0xBE2 JUMPI DUP1 PUSH1 0x1F LT PUSH2 0xBB7 JUMPI PUSH2 0x100 DUP1 DUP4 SLOAD DIV MUL DUP4 MSTORE SWAP2 PUSH1 0x20 ADD SWAP2 PUSH2 0xBE2 JUMP JUMPDEST DUP3 ADD SWAP2 SWAP1 PUSH1 0x0 MSTORE PUSH1 0x20 PUSH1 0x0 KECCAK256 SWAP1 JUMPDEST DUP2 SLOAD DUP2 MSTORE SWAP1 PUSH1 0x1 ADD SWAP1 PUSH1 0x20 ADD DUP1 DUP4 GT PUSH2 0xBC5 JUMPI DUP3 SWAP1 SUB PUSH1 0x1F AND DUP3 ADD SWAP2 JUMPDEST POP POP POP SWAP2 DUP4 MSTORE POP POP PUSH1 0x2 DUP3 ADD SLOAD PUSH1 0x20 DUP3 ADD MSTORE PUSH1 0x3 DUP3 ADD SLOAD PUSH1 0x40 DUP3 ADD MSTORE PUSH1 0x4 DUP3 ADD SLOAD PUSH1 0xFF AND ISZERO ISZERO PUSH1 0x60 DUP3 ADD MSTORE PUSH1 0x5 DUP3 ADD SLOAD PUSH1 0x80 DUP3 ADD MSTORE PUSH1 0x6 DUP3 ADD SLOAD PUSH1 0xA0 DUP3 ADD MSTORE PUSH1 0x7 DUP3 ADD DUP1 SLOAD PUSH1 0xC0 SWAP1 SWAP3 ADD SWAP2 PUSH2 0xC36 SWAP1 PUSH2 0x2D53 JUMP JUMPDEST DUP1 PUSH1 0x1F ADD PUSH1 0x20 DUP1 SWAP2 DIV MUL PUSH1 0x20 ADD PUSH1 0x40 MLOAD SWAP1 DUP2 ADD PUSH1 0x40 MSTORE DUP1 SWAP3 SWAP2 SWAP1 DUP2 DUP2 MSTORE PUSH1 0x20 ADD DUP3 DUP1 SLOAD PUSH2 0xC62 SWAP1 PUSH2 0x2D53 JUMP JUMPDEST DUP1 ISZERO PUSH2 0xCAF JUMPI DUP1 PUSH1 0x1F LT PUSH2 0xC84 JUMPI PUSH2 0x100 DUP1 DUP4 SLOAD DIV MUL DUP4 MSTORE SWAP2 PUSH1 0x20 ADD SWAP2 PUSH2 0xCAF JUMP JUMPDEST DUP3 ADD SWAP2 SWAP1 PUSH1 0x0 MSTORE PUSH1 0x20 PUSH1 0x0 KECCAK256 SWAP1 JUMPDEST DUP2 SLOAD DUP2 MSTORE SWAP1 PUSH1 0x1 ADD SWAP1 PUSH1 0x20 ADD DUP1 DUP4 GT PUSH2 0xC92 JUMPI DUP3 SWAP1 SUB PUSH1 0x1F AND DUP3 ADD SWAP2 JUMPDEST POP POP POP POP POP DUP2 MSTORE POP POP SWAP1 POP SWAP2 SWAP1 POP JUMP JUMPDEST PUSH1 0x1 PUSH1 0x1 PUSH1 0xA0 SHL SUB DUP2 AND PUSH1 0x0 SWAP1 DUP2 MSTORE PUSH1 0x9 PUSH1 0x20 SWAP1 DUP2 MSTORE PUSH1 0x40 SWAP2 DUP3 SWAP1 KECCAK256 DUP1 SLOAD DUP4 MLOAD DUP2 DUP5 MUL DUP2 ADD DUP5 ADD SWAP1 SWAP5 MSTORE DUP1 DUP5 MSTORE PUSH1 0x60 SWAP4 SWAP3 DUP4 ADD DUP3 DUP3 DUP1 ISZERO PUSH2 0xD1F JUMPI PUSH1 0x20 MUL DUP3 ADD SWAP2 SWAP1 PUSH1 0x0 MSTORE PUSH1 0x20 PUSH1 0x0 KECCAK256 SWAP1 JUMPDEST DUP2 SLOAD DUP2 MSTORE PUSH1 0x20 ADD SWAP1 PUSH1 0x1 ADD SWAP1 DUP1 DUP4 GT PUSH2 0xD0B JUMPI JUMPDEST POP POP POP POP POP SWAP1 POP SWAP2 SWAP1 POP JUMP JUMPDEST PUSH1 0x2 SLOAD PUSH1 0x0 SWAP1 PUSH1 0x1 PUSH1 0x1 PUSH1 0xA0 SHL SUB AND CALLER EQ PUSH2 0xD7E JUMPI PUSH1 0x40 MLOAD PUSH3 0x461BCD PUSH1 0xE5 SHL DUP2 MSTORE PUSH1 0x20 PUSH1 0x4 DUP3 ADD MSTORE PUSH1 0x13 PUSH1 0x24 DUP3 ADD MSTORE PUSH19 0x4F6E6C792053746172517565737420636F7265 PUSH1 0x68 SHL PUSH1 0x44 DUP3 ADD MSTORE PUSH1 0x64 ADD PUSH2 0x78E JUMP JUMPDEST PUSH1 0x4 DUP1 SLOAD PUSH1 0x0 SWAP2 DUP3 PUSH2 0xD8F DUP4 PUSH2 0x2DA3 JUMP JUMPDEST SWAP1 SWAP2 SSTORE POP PUSH1 0x40 DUP1 MLOAD PUSH1 0x20 DUP2 ADD DUP12 SWAP1 MSTORE PUSH1 0x1 PUSH1 0x1 PUSH1 0x60 SHL SUB NOT PUSH1 0x60 DUP14 SWAP1 SHL AND SWAP2 DUP2 ADD SWAP2 SWAP1 SWAP2 MSTORE TIMESTAMP PUSH1 0x54 DUP3 ADD MSTORE SWAP1 SWAP2 POP PUSH1 0x0 SWAP1 PUSH1 0x74 ADD PUSH1 0x40 MLOAD PUSH1 0x20 DUP2 DUP4 SUB SUB DUP2 MSTORE SWAP1 PUSH1 0x40 MSTORE DUP1 MLOAD SWAP1 PUSH1 0x20 ADD KECCAK256 SWAP1 POP PUSH1 0x40 MLOAD DUP1 PUSH2 0x100 ADD PUSH1 0x40 MSTORE DUP1 DUP12 PUSH1 0x1 PUSH1 0x1 PUSH1 0xA0 SHL SUB AND DUP2 MSTORE PUSH1 0x20 ADD DUP9 PUSH2 0xE29 JUMPI PUSH1 0x40 MLOAD DUP1 PUSH1 0x40 ADD PUSH1 0x40 MSTORE DUP1 PUSH1 0x10 DUP2 MSTORE PUSH1 0x20 ADD PUSH16 0x18DA185B1B195B99D957D9985A5B1959 PUSH1 0x82 SHL DUP2 MSTORE POP PUSH2 0xE54 JUMP JUMPDEST PUSH1 0x40 MLOAD DUP1 PUSH1 0x40 ADD PUSH1 0x40 MSTORE DUP1 PUSH1 0x11 DUP2 MSTORE PUSH1 0x20 ADD PUSH17 0x6368616C6C656E67655F73756363657373 PUSH1 0x78 SHL DUP2 MSTORE POP JUMPDEST DUP2 MSTORE PUSH1 0x20 DUP1 DUP3 ADD DUP13 SWAP1 MSTORE PUSH1 0x40 DUP1 DUP4 ADD DUP13 SWAP1 MSTORE DUP11 ISZERO ISZERO PUSH1 0x60 DUP5 ADD MSTORE PUSH1 0x80 DUP4 ADD DUP11 SWAP1 MSTORE TIMESTAMP PUSH1 0xA0 DUP5 ADD MSTORE PUSH1 0xC0 SWAP1 SWAP3 ADD DUP9 SWAP1 MSTORE PUSH1 0x0 DUP5 DUP2 MSTORE PUSH1 0x6 DUP3 MSTORE SWAP2 SWAP1 SWAP2 KECCAK256 DUP3 MLOAD DUP2 SLOAD PUSH1 0x1 PUSH1 0x1 PUSH1 0xA0 SHL SUB NOT AND PUSH1 0x1 PUSH1 0x1 PUSH1 0xA0 SHL SUB SWAP1 SWAP2 AND OR DUP2 SSTORE SWAP1 DUP3 ADD MLOAD PUSH1 0x1 DUP3 ADD SWAP1 PUSH2 0xEBF SWAP1 DUP3 PUSH2 0x2E0B JUMP JUMPDEST POP PUSH1 0x40 DUP3 ADD MLOAD PUSH1 0x2 DUP3 ADD SSTORE PUSH1 0x60 DUP3 ADD MLOAD PUSH1 0x3 DUP3 ADD SSTORE PUSH1 0x80 DUP3 ADD MLOAD PUSH1 0x4 DUP3 ADD DUP1 SLOAD PUSH1 0xFF NOT AND SWAP2 ISZERO ISZERO SWAP2 SWAP1 SWAP2 OR SWAP1 SSTORE PUSH1 0xA0 DUP3 ADD MLOAD PUSH1 0x5 DUP3 ADD SSTORE PUSH1 0xC0 DUP3 ADD MLOAD PUSH1 0x6 DUP3 ADD SSTORE PUSH1 0xE0 DUP3 ADD MLOAD PUSH1 0x7 DUP3 ADD SWAP1 PUSH2 0xF14 SWAP1 DUP3 PUSH2 0x2E0B JUMP JUMPDEST POP POP PUSH1 0x40 MLOAD PUSH1 0x1 PUSH1 0x1 PUSH1 0x60 SHL SUB NOT PUSH1 0x60 DUP14 SWAP1 SHL AND PUSH1 0x20 DUP3 ADD MSTORE PUSH1 0x34 DUP2 ADD DUP12 SWAP1 MSTORE PUSH1 0x54 DUP2 ADD DUP11 SWAP1 MSTORE DUP9 ISZERO ISZERO PUSH1 0xF8 SHL PUSH1 0x74 DUP3 ADD MSTORE PUSH1 0x75 DUP2 ADD DUP9 SWAP1 MSTORE TIMESTAMP PUSH1 0x95 DUP3 ADD MSTORE PUSH1 0x0 SWAP2 POP PUSH1 0xB5 ADD PUSH1 0x40 DUP1 MLOAD PUSH1 0x1F NOT DUP2 DUP5 SUB ADD DUP2 MSTORE DUP3 DUP3 MSTORE DUP1 MLOAD PUSH1 0x20 SWAP2 DUP3 ADD KECCAK256 PUSH2 0x100 DUP5 ADD SWAP1 SWAP3 MSTORE DUP6 DUP4 MSTORE SWAP1 SWAP3 POP DUP2 ADD PUSH1 0x0 DUP2 MSTORE PUSH1 0x20 ADD DUP13 PUSH1 0x1 PUSH1 0x1 PUSH1 0xA0 SHL SUB AND DUP2 MSTORE PUSH1 0x20 ADD DUP3 DUP2 MSTORE PUSH1 0x20 ADD DUP7 DUP2 MSTORE PUSH1 0x20 ADD TIMESTAMP DUP2 MSTORE PUSH1 0x20 ADD PUSH1 0x0 ISZERO ISZERO DUP2 MSTORE PUSH1 0x20 ADD PUSH1 0x40 MLOAD DUP1 PUSH1 0x20 ADD PUSH1 0x40 MSTORE DUP1 PUSH1 0x0 DUP2 MSTORE POP DUP2 MSTORE POP PUSH1 0x5 PUSH1 0x0 DUP6 DUP2 MSTORE PUSH1 0x20 ADD SWAP1 DUP2 MSTORE PUSH1 0x20 ADD PUSH1 0x0 KECCAK256 PUSH1 0x0 DUP3 ADD MLOAD DUP2 PUSH1 0x0 ADD SSTORE PUSH1 0x20 DUP3 ADD MLOAD DUP2 PUSH1 0x1 ADD PUSH1 0x0 PUSH2 0x100 EXP DUP2 SLOAD DUP2 PUSH1 0xFF MUL NOT AND SWAP1 DUP4 PUSH1 0x5 DUP2 GT ISZERO PUSH2 0x100D JUMPI PUSH2 0x100D PUSH2 0x2583 JUMP JUMPDEST MUL OR SWAP1 SSTORE POP PUSH1 0x40 DUP3 ADD MLOAD PUSH1 0x1 DUP3 ADD DUP1 SLOAD PUSH1 0x1 PUSH1 0x1 PUSH1 0xA0 SHL SUB SWAP1 SWAP3 AND PUSH2 0x100 MUL PUSH2 0x100 PUSH1 0x1 PUSH1 0xA8 SHL SUB NOT SWAP1 SWAP3 AND SWAP2 SWAP1 SWAP2 OR SWAP1 SSTORE PUSH1 0x60 DUP3 ADD MLOAD PUSH1 0x2 DUP3 ADD SSTORE PUSH1 0x80 DUP3 ADD MLOAD PUSH1 0x3 DUP3 ADD SWAP1 PUSH2 0x105D SWAP1 DUP3 PUSH2 0x2E0B JUMP JUMPDEST POP PUSH1 0xA0 DUP3 ADD MLOAD PUSH1 0x4 DUP3 ADD SSTORE PUSH1 0xC0 DUP3 ADD MLOAD PUSH1 0x5 DUP3 ADD DUP1 SLOAD PUSH1 0xFF NOT AND SWAP2 ISZERO ISZERO SWAP2 SWAP1 SWAP2 OR SWAP1 SSTORE PUSH1 0xE0 DUP3 ADD MLOAD PUSH1 0x6 DUP3 ADD SWAP1 PUSH2 0x1094 SWAP1 DUP3 PUSH2 0x2E0B JUMP JUMPDEST POP POP POP PUSH1 0x1 PUSH1 0x1 PUSH1 0xA0 SHL SUB DUP12 AND PUSH1 0x0 SWAP1 DUP2 MSTORE PUSH1 0x9 PUSH1 0x20 SWAP1 DUP2 MSTORE PUSH1 0x40 DUP3 KECCAK256 DUP1 SLOAD PUSH1 0x1 DUP2 ADD DUP3 SSTORE SWAP1 DUP4 MSTORE DUP2 DUP4 KECCAK256 ADD DUP6 SWAP1 SSTORE DUP2 DUP1 MSTORE PUSH1 0xA SWAP1 MSTORE PUSH32 0x13DA86008BA1C6922DAEE3E07DB95305EF49EBCED9F5467A0B8613FCC6B343E3 DUP1 SLOAD SWAP2 PUSH2 0x10F7 DUP4 PUSH2 0x2DA3 JUMP JUMPDEST SWAP2 SWAP1 POP SSTORE POP DUP11 PUSH1 0x1 PUSH1 0x1 PUSH1 0xA0 SHL SUB AND DUP4 PUSH32 0xF48253C80E26E6C01D71F55D4E6267FDB2700852B7558F9F13EF4722F2843102 PUSH1 0x0 PUSH1 0x40 MLOAD PUSH2 0x1137 SWAP2 SWAP1 PUSH2 0x2ECB JUMP JUMPDEST PUSH1 0x40 MLOAD DUP1 SWAP2 SUB SWAP1 LOG3 DUP11 PUSH1 0x1 PUSH1 0x1 PUSH1 0xA0 SHL SUB AND DUP3 PUSH32 0x1B7CB3A039B909A9016B2C6D77DCEE16452DF3018F55B3D1CBDCF3E489A2D79 DUP11 PUSH1 0x40 MLOAD PUSH2 0x117D SWAP2 ISZERO ISZERO DUP2 MSTORE PUSH1 0x20 ADD SWAP1 JUMP JUMPDEST PUSH1 0x40 MLOAD DUP1 SWAP2 SUB SWAP1 LOG3 PUSH2 0x1191 DUP12 DUP11 DUP10 DUP12 PUSH2 0x1FA6 JUMP JUMPDEST POP SWAP1 SWAP10 SWAP9 POP POP POP POP POP POP POP POP POP JUMP JUMPDEST PUSH1 0x40 DUP1 MLOAD PUSH2 0x100 DUP2 ADD DUP3 MSTORE PUSH1 0x0 DUP1 DUP3 MSTORE PUSH1 0x20 DUP3 ADD DUP2 SWAP1 MSTORE SWAP2 DUP2 ADD DUP3 SWAP1 MSTORE PUSH1 0x60 DUP1 DUP3 ADD DUP4 SWAP1 MSTORE PUSH1 0x80 DUP3 ADD DUP2 SWAP1 MSTORE PUSH1 0xA0 DUP3 ADD DUP4 SWAP1 MSTORE PUSH1 0xC0 DUP3 ADD SWAP3 SWAP1 SWAP3 MSTORE PUSH1 0xE0 DUP2 ADD SWAP2 SWAP1 SWAP2 MSTORE PUSH1 0x4 SLOAD DUP3 LT PUSH2 0x1229 JUMPI PUSH1 0x40 MLOAD PUSH3 0x461BCD PUSH1 0xE5 SHL DUP2 MSTORE PUSH1 0x20 PUSH1 0x4 DUP3 ADD MSTORE PUSH1 0x12 PUSH1 0x24 DUP3 ADD MSTORE PUSH18 0x125B9D985B1A59081B595CDCD859D9481251 PUSH1 0x72 SHL PUSH1 0x44 DUP3 ADD MSTORE PUSH1 0x64 ADD PUSH2 0x78E JUMP JUMPDEST PUSH1 0x0 DUP3 DUP2 MSTORE PUSH1 0x5 PUSH1 0x20 DUP2 DUP2 MSTORE PUSH1 0x40 SWAP3 DUP4 SWAP1 KECCAK256 DUP4 MLOAD PUSH2 0x100 DUP2 ADD SWAP1 SWAP5 MSTORE DUP1 SLOAD DUP5 MSTORE PUSH1 0x1 DUP2 ADD SLOAD SWAP1 SWAP3 SWAP2 DUP5 ADD SWAP2 PUSH1 0xFF SWAP1 SWAP2 AND SWAP1 DUP2 GT ISZERO PUSH2 0x1269 JUMPI PUSH2 0x1269 PUSH2 0x2583 JUMP JUMPDEST PUSH1 0x5 DUP2 GT ISZERO PUSH2 0x127A JUMPI PUSH2 0x127A PUSH2 0x2583 JUMP JUMPDEST DUP2 MSTORE PUSH1 0x1 DUP3 ADD SLOAD PUSH2 0x100 SWAP1 DIV PUSH1 0x1 PUSH1 0x1 PUSH1 0xA0 SHL SUB AND PUSH1 0x20 DUP3 ADD MSTORE PUSH1 0x2 DUP3 ADD SLOAD PUSH1 0x40 DUP3 ADD MSTORE PUSH1 0x3 DUP3 ADD DUP1 SLOAD PUSH1 0x60 SWAP1 SWAP3 ADD SWAP2 PUSH2 0x12B3 SWAP1 PUSH2 0x2D53 JUMP JUMPDEST DUP1 PUSH1 0x1F ADD PUSH1 0x20 DUP1 SWAP2 DIV MUL PUSH1 0x20 ADD PUSH1 0x40 MLOAD SWAP1 DUP2 ADD PUSH1 0x40 MSTORE DUP1 SWAP3 SWAP2 SWAP1 DUP2 DUP2 MSTORE PUSH1 0x20 ADD DUP3 DUP1 SLOAD PUSH2 0x12DF SWAP1 PUSH2 0x2D53 JUMP JUMPDEST DUP1 ISZERO PUSH2 0x132C JUMPI DUP1 PUSH1 0x1F LT PUSH2 0x1301 JUMPI PUSH2 0x100 DUP1 DUP4 SLOAD DIV MUL DUP4 MSTORE SWAP2 PUSH1 0x20 ADD SWAP2 PUSH2 0x132C JUMP JUMPDEST DUP3 ADD SWAP2 SWAP1 PUSH1 0x0 MSTORE PUSH1 0x20 PUSH1 0x0 KECCAK256 SWAP1 JUMPDEST DUP2 SLOAD DUP2 MSTORE SWAP1 PUSH1 0x1 ADD SWAP1 PUSH1 0x20 ADD DUP1 DUP4 GT PUSH2 0x130F JUMPI DUP3 SWAP1 SUB PUSH1 0x1F AND DUP3 ADD SWAP2 JUMPDEST POP POP POP SWAP2 DUP4 MSTORE POP POP PUSH1 0x4 DUP3 ADD SLOAD PUSH1 0x20 DUP3 ADD MSTORE PUSH1 0x5 DUP3 ADD SLOAD PUSH1 0xFF AND ISZERO ISZERO PUSH1 0x40 DUP3 ADD MSTORE PUSH1 0x6 DUP3 ADD DUP1 SLOAD PUSH1 0x60 SWAP1 SWAP3 ADD SWAP2 PUSH2 0xC36 SWAP1 PUSH2 0x2D53 JUMP JUMPDEST PUSH2 0x136A PUSH2 0x1F4C JUMP JUMPDEST PUSH2 0x1374 PUSH1 0x0 PUSH2 0x2071 JUMP JUMPDEST JUMP JUMPDEST PUSH2 0x137E PUSH2 0x1F4C JUMP JUMPDEST PUSH1 0x4 SLOAD DUP3 LT PUSH2 0x13C4 JUMPI PUSH1 0x40 MLOAD PUSH3 0x461BCD PUSH1 0xE5 SHL DUP2 MSTORE PUSH1 0x20 PUSH1 0x4 DUP3 ADD MSTORE PUSH1 0x12 PUSH1 0x24 DUP3 ADD MSTORE PUSH18 0x125B9D985B1A59081B595CDCD859D9481251 PUSH1 0x72 SHL PUSH1 0x44 DUP3 ADD MSTORE PUSH1 0x64 ADD PUSH2 0x78E JUMP JUMPDEST PUSH1 0x0 DUP3 DUP2 MSTORE PUSH1 0x5 PUSH1 0x20 DUP2 SWAP1 MSTORE PUSH1 0x40 SWAP1 SWAP2 KECCAK256 SWAP1 DUP2 ADD SLOAD PUSH1 0xFF AND ISZERO PUSH2 0x141D JUMPI PUSH1 0x40 MLOAD PUSH3 0x461BCD PUSH1 0xE5 SHL DUP2 MSTORE PUSH1 0x20 PUSH1 0x4 DUP3 ADD MSTORE PUSH1 0x11 PUSH1 0x24 DUP3 ADD MSTORE PUSH17 0x105B1C9958591E4818DBDB999A5C9B5959 PUSH1 0x7A SHL PUSH1 0x44 DUP3 ADD MSTORE PUSH1 0x64 ADD PUSH2 0x78E JUMP JUMPDEST PUSH1 0x5 DUP2 ADD DUP1 SLOAD PUSH1 0xFF NOT AND PUSH1 0x1 OR SWAP1 SSTORE PUSH1 0x6 DUP2 ADD PUSH2 0x143A DUP4 DUP3 PUSH2 0x2E0B JUMP JUMPDEST POP DUP3 PUSH32 0xEEADB29D2629A2BF7F32572F8EF106550042B1538D44502DBBA7D3676F2691CE DUP4 PUSH1 0x40 MLOAD PUSH2 0x146B SWAP2 SWAP1 PUSH2 0x267A JUMP JUMPDEST PUSH1 0x40 MLOAD DUP1 SWAP2 SUB SWAP1 LOG2 POP POP POP JUMP JUMPDEST PUSH2 0x14C6 PUSH1 0x40 MLOAD DUP1 PUSH1 0xE0 ADD PUSH1 0x40 MSTORE DUP1 PUSH1 0x0 DUP1 NOT AND DUP2 MSTORE PUSH1 0x20 ADD PUSH1 0x0 PUSH1 0x1 PUSH1 0x1 PUSH1 0xA0 SHL SUB AND DUP2 MSTORE PUSH1 0x20 ADD PUSH1 0x60 DUP2 MSTORE PUSH1 0x20 ADD PUSH1 0x0 ISZERO ISZERO DUP2 MSTORE PUSH1 0x20 ADD PUSH1 0x0 DUP2 MSTORE PUSH1 0x20 ADD PUSH1 0x60 DUP2 MSTORE PUSH1 0x20 ADD PUSH1 0x0 DUP2 MSTORE POP SWAP1 JUMP JUMPDEST PUSH1 0x0 DUP3 DUP2 MSTORE PUSH1 0x7 PUSH1 0x20 SWAP1 DUP2 MSTORE PUSH1 0x40 SWAP2 DUP3 SWAP1 KECCAK256 DUP3 MLOAD PUSH1 0xE0 DUP2 ADD DUP5 MSTORE DUP2 SLOAD DUP2 MSTORE PUSH1 0x1 DUP3 ADD SLOAD PUSH1 0x1 PUSH1 0x1 PUSH1 0xA0 SHL SUB AND SWAP3 DUP2 ADD SWAP3 SWAP1 SWAP3 MSTORE PUSH1 0x2 DUP2 ADD DUP1 SLOAD SWAP3 SWAP4 SWAP2 SWAP3 SWAP2 DUP5 ADD SWAP2 PUSH2 0x1510 SWAP1 PUSH2 0x2D53 JUMP JUMPDEST DUP1 PUSH1 0x1F ADD PUSH1 0x20 DUP1 SWAP2 DIV MUL PUSH1 0x20 ADD PUSH1 0x40 MLOAD SWAP1 DUP2 ADD PUSH1 0x40 MSTORE DUP1 SWAP3 SWAP2 SWAP1 DUP2 DUP2 MSTORE PUSH1 0x20 ADD DUP3 DUP1 SLOAD PUSH2 0x153C SWAP1 PUSH2 0x2D53 JUMP JUMPDEST DUP1 ISZERO PUSH2 0x1589 JUMPI DUP1 PUSH1 0x1F LT PUSH2 0x155E JUMPI PUSH2 0x100 DUP1 DUP4 SLOAD DIV MUL DUP4 MSTORE SWAP2 PUSH1 0x20 ADD SWAP2 PUSH2 0x1589 JUMP JUMPDEST DUP3 ADD SWAP2 SWAP1 PUSH1 0x0 MSTORE PUSH1 0x20 PUSH1 0x0 KECCAK256 SWAP1 JUMPDEST DUP2 SLOAD DUP2 MSTORE SWAP1 PUSH1 0x1 ADD SWAP1 PUSH1 0x20 ADD DUP1 DUP4 GT PUSH2 0x156C JUMPI DUP3 SWAP1 SUB PUSH1 0x1F AND DUP3 ADD SWAP2 JUMPDEST POP POP POP SWAP2 DUP4 MSTORE POP POP PUSH1 0x3 DUP3 ADD SLOAD PUSH1 0xFF AND ISZERO ISZERO PUSH1 0x20 DUP3 ADD MSTORE PUSH1 0x4 DUP3 ADD SLOAD PUSH1 0x40 DUP3 ADD MSTORE PUSH1 0x5 DUP3 ADD DUP1 SLOAD PUSH1 0x60 SWAP1 SWAP3 ADD SWAP2 PUSH2 0x15BF SWAP1 PUSH2 0x2D53 JUMP JUMPDEST DUP1 PUSH1 0x1F ADD PUSH1 0x20 DUP1 SWAP2 DIV MUL PUSH1 0x20 ADD PUSH1 0x40 MLOAD SWAP1 DUP2 ADD PUSH1 0x40 MSTORE DUP1 SWAP3 SWAP2 SWAP1 DUP2 DUP2 MSTORE PUSH1 0x20 ADD DUP3 DUP1 SLOAD PUSH2 0x15EB SWAP1 PUSH2 0x2D53 JUMP JUMPDEST DUP1 ISZERO PUSH2 0x1638 JUMPI DUP1 PUSH1 0x1F LT PUSH2 0x160D JUMPI PUSH2 0x100 DUP1 DUP4 SLOAD DIV MUL DUP4 MSTORE SWAP2 PUSH1 0x20 ADD SWAP2 PUSH2 0x1638 JUMP JUMPDEST DUP3 ADD SWAP2 SWAP1 PUSH1 0x0 MSTORE PUSH1 0x20 PUSH1 0x0 KECCAK256 SWAP1 JUMPDEST DUP2 SLOAD DUP2 MSTORE SWAP1 PUSH1 0x1 ADD SWAP1 PUSH1 0x20 ADD DUP1 DUP4 GT PUSH2 0x161B JUMPI DUP3 SWAP1 SUB PUSH1 0x1F AND DUP3 ADD SWAP2 JUMPDEST POP POP POP POP POP DUP2 MSTORE PUSH1 0x20 ADD PUSH1 0x6 DUP3 ADD SLOAD DUP2 MSTORE POP POP SWAP1 POP SWAP2 SWAP1 POP JUMP JUMPDEST PUSH1 0x7 PUSH1 0x20 MSTORE PUSH1 0x0 SWAP1 DUP2 MSTORE PUSH1 0x40 SWAP1 KECCAK256 DUP1 SLOAD PUSH1 0x1 DUP3 ADD SLOAD PUSH1 0x2 DUP4 ADD DUP1 SLOAD SWAP3 SWAP4 PUSH1 0x1 PUSH1 0x1 PUSH1 0xA0 SHL SUB SWAP1 SWAP3 AND SWAP3 PUSH2 0x1684 SWAP1 PUSH2 0x2D53 JUMP JUMPDEST DUP1 PUSH1 0x1F ADD PUSH1 0x20 DUP1 SWAP2 DIV MUL PUSH1 0x20 ADD PUSH1 0x40 MLOAD SWAP1 DUP2 ADD PUSH1 0x40 MSTORE DUP1 SWAP3 SWAP2 SWAP1 DUP2 DUP2 MSTORE PUSH1 0x20 ADD DUP3 DUP1 SLOAD PUSH2 0x16B0 SWAP1 PUSH2 0x2D53 JUMP JUMPDEST DUP1 ISZERO PUSH2 0x16FD JUMPI DUP1 PUSH1 0x1F LT PUSH2 0x16D2 JUMPI PUSH2 0x100 DUP1 DUP4 SLOAD DIV MUL DUP4 MSTORE SWAP2 PUSH1 0x20 ADD SWAP2 PUSH2 0x16FD JUMP JUMPDEST DUP3 ADD SWAP2 SWAP1 PUSH1 0x0 MSTORE PUSH1 0x20 PUSH1 0x0 KECCAK256 SWAP1 JUMPDEST DUP2 SLOAD DUP2 MSTORE SWAP1 PUSH1 0x1 ADD SWAP1 PUSH1 0x20 ADD DUP1 DUP4 GT PUSH2 0x16E0 JUMPI DUP3 SWAP1 SUB PUSH1 0x1F AND DUP3 ADD SWAP2 JUMPDEST POP POP POP POP PUSH1 0x3 DUP4 ADD SLOAD PUSH1 0x4 DUP5 ADD SLOAD PUSH1 0x5 DUP6 ADD DUP1 SLOAD SWAP5 SWAP6 PUSH1 0xFF SWAP1 SWAP4 AND SWAP5 SWAP2 SWAP4 POP SWAP1 PUSH2 0x1726 SWAP1 PUSH2 0x2D53 JUMP JUMPDEST DUP1 PUSH1 0x1F ADD PUSH1 0x20 DUP1 SWAP2 DIV MUL PUSH1 0x20 ADD PUSH1 0x40 MLOAD SWAP1 DUP2 ADD PUSH1 0x40 MSTORE DUP1 SWAP3 SWAP2 SWAP1 DUP2 DUP2 MSTORE PUSH1 0x20 ADD DUP3 DUP1 SLOAD PUSH2 0x1752 SWAP1 PUSH2 0x2D53 JUMP JUMPDEST DUP1 ISZERO PUSH2 0x179F JUMPI DUP1 PUSH1 0x1F LT PUSH2 0x1774 JUMPI PUSH2 0x100 DUP1 DUP4 SLOAD DIV MUL DUP4 MSTORE SWAP2 PUSH1 0x20 ADD SWAP2 PUSH2 0x179F JUMP JUMPDEST DUP3 ADD SWAP2 SWAP1 PUSH1 0x0 MSTORE PUSH1 0x20 PUSH1 0x0 KECCAK256 SWAP1 JUMPDEST DUP2 SLOAD DUP2 MSTORE SWAP1 PUSH1 0x1 ADD SWAP1 PUSH1 0x20 ADD DUP1 DUP4 GT PUSH2 0x1782 JUMPI DUP3 SWAP1 SUB PUSH1 0x1F AND DUP3 ADD SWAP2 JUMPDEST POP POP POP POP POP SWAP1 DUP1 PUSH1 0x6 ADD SLOAD SWAP1 POP DUP8 JUMP JUMPDEST PUSH1 0x6 PUSH1 0x20 MSTORE PUSH1 0x0 SWAP1 DUP2 MSTORE PUSH1 0x40 SWAP1 KECCAK256 DUP1 SLOAD PUSH1 0x1 DUP3 ADD DUP1 SLOAD PUSH1 0x1 PUSH1 0x1 PUSH1 0xA0 SHL SUB SWAP1 SWAP3 AND SWAP3 SWAP2 PUSH2 0x17DB SWAP1 PUSH2 0x2D53 JUMP JUMPDEST DUP1 PUSH1 0x1F ADD PUSH1 0x20 DUP1 SWAP2 DIV MUL PUSH1 0x20 ADD PUSH1 0x40 MLOAD SWAP1 DUP2 ADD PUSH1 0x40 MSTORE DUP1 SWAP3 SWAP2 SWAP1 DUP2 DUP2 MSTORE PUSH1 0x20 ADD DUP3 DUP1 SLOAD PUSH2 0x1807 SWAP1 PUSH2 0x2D53 JUMP JUMPDEST DUP1 ISZERO PUSH2 0x1854 JUMPI DUP1 PUSH1 0x1F LT PUSH2 0x1829 JUMPI PUSH2 0x100 DUP1 DUP4 SLOAD DIV MUL DUP4 MSTORE SWAP2 PUSH1 0x20 ADD SWAP2 PUSH2 0x1854 JUMP JUMPDEST DUP3 ADD SWAP2 SWAP1 PUSH1 0x0 MSTORE PUSH1 0x20 PUSH1 0x0 KECCAK256 SWAP1 JUMPDEST DUP2 SLOAD DUP2 MSTORE SWAP1 PUSH1 0x1 ADD SWAP1 PUSH1 0x20 ADD DUP1 DUP4 GT PUSH2 0x1837 JUMPI DUP3 SWAP1 SUB PUSH1 0x1F AND DUP3 ADD SWAP2 JUMPDEST POP POP POP POP POP SWAP1 DUP1 PUSH1 0x2 ADD SLOAD SWAP1 DUP1 PUSH1 0x3 ADD SLOAD SWAP1 DUP1 PUSH1 0x4 ADD PUSH1 0x0 SWAP1 SLOAD SWAP1 PUSH2 0x100 EXP SWAP1 DIV PUSH1 0xFF AND SWAP1 DUP1 PUSH1 0x5 ADD SLOAD SWAP1 DUP1 PUSH1 0x6 ADD SLOAD SWAP1 DUP1 PUSH1 0x7 ADD DUP1 SLOAD PUSH2 0x61E SWAP1 PUSH2 0x2D53 JUMP JUMPDEST PUSH1 0xB SLOAD PUSH1 0x0 DUP1 DUP1 JUMPDEST PUSH1 0xB SLOAD DUP2 LT ISZERO PUSH2 0x1963 JUMPI PUSH1 0x0 PUSH1 0x8 PUSH1 0x0 PUSH1 0xB DUP5 DUP2 SLOAD DUP2 LT PUSH2 0x18BF JUMPI PUSH2 0x18BF PUSH2 0x2EDF JUMP JUMPDEST PUSH1 0x0 SWAP2 DUP3 MSTORE PUSH1 0x20 DUP1 DUP4 KECCAK256 SWAP1 SWAP2 ADD SLOAD PUSH1 0x1 PUSH1 0x1 PUSH1 0xA0 SHL SUB SWAP1 DUP2 AND DUP5 MSTORE DUP4 DUP3 ADD SWAP5 SWAP1 SWAP5 MSTORE PUSH1 0x40 SWAP3 DUP4 ADD SWAP1 SWAP2 KECCAK256 DUP3 MLOAD PUSH1 0xC0 DUP2 ADD DUP5 MSTORE DUP2 SLOAD SWAP1 SWAP5 AND DUP5 MSTORE PUSH1 0x1 DUP2 ADD SLOAD SWAP2 DUP5 ADD DUP3 SWAP1 MSTORE PUSH1 0x2 DUP2 ADD SLOAD SWAP3 DUP5 ADD SWAP3 SWAP1 SWAP3 MSTORE PUSH1 0x3 DUP3 ADD SLOAD PUSH1 0x60 DUP5 ADD MSTORE PUSH1 0x4 DUP3 ADD SLOAD PUSH1 0x80 DUP5 ADD MSTORE PUSH1 0x5 SWAP1 SWAP2 ADD SLOAD PUSH1 0xA0 DUP4 ADD MSTORE SWAP1 SWAP2 POP PUSH2 0x193B SWAP1 DUP6 PUSH2 0x2EF5 JUMP JUMPDEST SWAP4 POP DUP1 PUSH1 0x40 ADD MLOAD DUP4 PUSH2 0x194D SWAP2 SWAP1 PUSH2 0x2EF5 JUMP JUMPDEST SWAP3 POP POP DUP1 DUP1 PUSH2 0x195B SWAP1 PUSH2 0x2DA3 JUMP JUMPDEST SWAP2 POP POP PUSH2 0x189C JUMP JUMPDEST POP SWAP1 SWAP2 SWAP3 JUMP JUMPDEST PUSH1 0xB DUP2 DUP2 SLOAD DUP2 LT PUSH2 0x1979 JUMPI PUSH1 0x0 DUP1 REVERT JUMPDEST PUSH1 0x0 SWAP2 DUP3 MSTORE PUSH1 0x20 SWAP1 SWAP2 KECCAK256 ADD SLOAD PUSH1 0x1 PUSH1 0x1 PUSH1 0xA0 SHL SUB AND SWAP1 POP DUP2 JUMP JUMPDEST PUSH1 0x60 DUP1 PUSH1 0x0 PUSH1 0xB DUP1 SLOAD SWAP1 POP DUP5 GT PUSH2 0x19AA JUMPI DUP4 PUSH2 0x19AE JUMP JUMPDEST PUSH1 0xB SLOAD JUMPDEST SWAP1 POP PUSH1 0x0 DUP2 PUSH8 0xFFFFFFFFFFFFFFFF DUP2 GT ISZERO PUSH2 0x19CB JUMPI PUSH2 0x19CB PUSH2 0x26B0 JUMP JUMPDEST PUSH1 0x40 MLOAD SWAP1 DUP1 DUP3 MSTORE DUP1 PUSH1 0x20 MUL PUSH1 0x20 ADD DUP3 ADD PUSH1 0x40 MSTORE DUP1 ISZERO PUSH2 0x19F4 JUMPI DUP2 PUSH1 0x20 ADD PUSH1 0x20 DUP3 MUL DUP1 CALLDATASIZE DUP4 CALLDATACOPY ADD SWAP1 POP JUMPDEST POP SWAP1 POP PUSH1 0x0 DUP3 PUSH8 0xFFFFFFFFFFFFFFFF DUP2 GT ISZERO PUSH2 0x1A12 JUMPI PUSH2 0x1A12 PUSH2 0x26B0 JUMP JUMPDEST PUSH1 0x40 MLOAD SWAP1 DUP1 DUP3 MSTORE DUP1 PUSH1 0x20 MUL PUSH1 0x20 ADD DUP3 ADD PUSH1 0x40 MSTORE DUP1 ISZERO PUSH2 0x1A85 JUMPI DUP2 PUSH1 0x20 ADD JUMPDEST PUSH2 0x1A72 PUSH1 0x40 MLOAD DUP1 PUSH1 0xC0 ADD PUSH1 0x40 MSTORE DUP1 PUSH1 0x0 PUSH1 0x1 PUSH1 0x1 PUSH1 0xA0 SHL SUB AND DUP2 MSTORE PUSH1 0x20 ADD PUSH1 0x0 DUP2 MSTORE PUSH1 0x20 ADD PUSH1 0x0 DUP2 MSTORE PUSH1 0x20 ADD PUSH1 0x0 DUP2 MSTORE PUSH1 0x20 ADD PUSH1 0x0 DUP2 MSTORE PUSH1 0x20 ADD PUSH1 0x0 DUP2 MSTORE POP SWAP1 JUMP JUMPDEST DUP2 MSTORE PUSH1 0x20 ADD SWAP1 PUSH1 0x1 SWAP1 SUB SWAP1 DUP2 PUSH2 0x1A30 JUMPI SWAP1 POP JUMPDEST POP SWAP1 POP PUSH1 0x0 JUMPDEST DUP4 DUP2 LT ISZERO PUSH2 0x1BAD JUMPI PUSH1 0xB DUP2 DUP2 SLOAD DUP2 LT PUSH2 0x1AA6 JUMPI PUSH2 0x1AA6 PUSH2 0x2EDF JUMP JUMPDEST SWAP1 PUSH1 0x0 MSTORE PUSH1 0x20 PUSH1 0x0 KECCAK256 ADD PUSH1 0x0 SWAP1 SLOAD SWAP1 PUSH2 0x100 EXP SWAP1 DIV PUSH1 0x1 PUSH1 0x1 PUSH1 0xA0 SHL SUB AND DUP4 DUP3 DUP2 MLOAD DUP2 LT PUSH2 0x1AD6 JUMPI PUSH2 0x1AD6 PUSH2 0x2EDF JUMP JUMPDEST PUSH1 0x20 MUL PUSH1 0x20 ADD ADD SWAP1 PUSH1 0x1 PUSH1 0x1 PUSH1 0xA0 SHL SUB AND SWAP1 DUP2 PUSH1 0x1 PUSH1 0x1 PUSH1 0xA0 SHL SUB AND DUP2 MSTORE POP POP PUSH1 0x8 PUSH1 0x0 PUSH1 0xB DUP4 DUP2 SLOAD DUP2 LT PUSH2 0x1B0D JUMPI PUSH2 0x1B0D PUSH2 0x2EDF JUMP JUMPDEST PUSH1 0x0 SWAP2 DUP3 MSTORE PUSH1 0x20 DUP1 DUP4 KECCAK256 SWAP1 SWAP2 ADD SLOAD PUSH1 0x1 PUSH1 0x1 PUSH1 0xA0 SHL SUB SWAP1 DUP2 AND DUP5 MSTORE DUP4 DUP3 ADD SWAP5 SWAP1 SWAP5 MSTORE PUSH1 0x40 SWAP3 DUP4 ADD SWAP1 SWAP2 KECCAK256 DUP3 MLOAD PUSH1 0xC0 DUP2 ADD DUP5 MSTORE DUP2 SLOAD SWAP1 SWAP5 AND DUP5 MSTORE PUSH1 0x1 DUP2 ADD SLOAD SWAP2 DUP5 ADD SWAP2 SWAP1 SWAP2 MSTORE PUSH1 0x2 DUP2 ADD SLOAD SWAP2 DUP4 ADD SWAP2 SWAP1 SWAP2 MSTORE PUSH1 0x3 DUP2 ADD SLOAD PUSH1 0x60 DUP4 ADD MSTORE PUSH1 0x4 DUP2 ADD SLOAD PUSH1 0x80 DUP4 ADD MSTORE PUSH1 0x5 ADD SLOAD PUSH1 0xA0 DUP3 ADD MSTORE DUP3 MLOAD DUP4 SWAP1 DUP4 SWAP1 DUP2 LT PUSH2 0x1B8F JUMPI PUSH2 0x1B8F PUSH2 0x2EDF JUMP JUMPDEST PUSH1 0x20 MUL PUSH1 0x20 ADD ADD DUP2 SWAP1 MSTORE POP DUP1 DUP1 PUSH2 0x1BA5 SWAP1 PUSH2 0x2DA3 JUMP JUMPDEST SWAP2 POP POP PUSH2 0x1A8B JUMP JUMPDEST POP SWAP1 SWAP6 SWAP1 SWAP5 POP SWAP3 POP POP POP JUMP JUMPDEST PUSH1 0x9 PUSH1 0x20 MSTORE DUP2 PUSH1 0x0 MSTORE PUSH1 0x40 PUSH1 0x0 KECCAK256 DUP2 DUP2 SLOAD DUP2 LT PUSH2 0x1BD5 JUMPI PUSH1 0x0 DUP1 REVERT JUMPDEST SWAP1 PUSH1 0x0 MSTORE PUSH1 0x20 PUSH1 0x0 KECCAK256 ADD PUSH1 0x0 SWAP2 POP SWAP2 POP POP SLOAD DUP2 JUMP JUMPDEST PUSH1 0x2 SLOAD PUSH1 0x0 SWAP1 PUSH1 0x1 PUSH1 0x1 PUSH1 0xA0 SHL SUB AND CALLER EQ PUSH2 0x1C3D JUMPI PUSH1 0x40 MLOAD PUSH3 0x461BCD PUSH1 0xE5 SHL DUP2 MSTORE PUSH1 0x20 PUSH1 0x4 DUP3 ADD MSTORE PUSH1 0x13 PUSH1 0x24 DUP3 ADD MSTORE PUSH19 0x4F6E6C792053746172517565737420636F7265 PUSH1 0x68 SHL PUSH1 0x44 DUP3 ADD MSTORE PUSH1 0x64 ADD PUSH2 0x78E JUMP JUMPDEST PUSH1 0x4 DUP1 SLOAD PUSH1 0x0 SWAP2 DUP3 PUSH2 0x1C4E DUP4 PUSH2 0x2DA3 JUMP JUMPDEST SWAP2 SWAP1 POP SSTORE SWAP1 POP PUSH1 0x0 DUP7 DUP7 DUP7 TIMESTAMP PUSH1 0x40 MLOAD PUSH1 0x20 ADD PUSH2 0x1C6D SWAP5 SWAP4 SWAP3 SWAP2 SWAP1 PUSH2 0x2F08 JUMP JUMPDEST PUSH1 0x40 DUP1 MLOAD DUP1 DUP4 SUB PUSH1 0x1F NOT ADD DUP2 MSTORE DUP3 DUP3 MSTORE DUP1 MLOAD PUSH1 0x20 SWAP2 DUP3 ADD KECCAK256 PUSH2 0x100 DUP5 ADD DUP4 MSTORE DUP6 DUP5 MSTORE PUSH1 0x4 DUP3 DUP6 ADD SWAP1 DUP2 MSTORE PUSH1 0x1 PUSH1 0x1 PUSH1 0xA0 SHL SUB DUP13 AND DUP6 DUP6 ADD MSTORE PUSH1 0x60 DUP6 ADD DUP3 SWAP1 MSTORE PUSH1 0x80 DUP6 ADD DUP10 SWAP1 MSTORE TIMESTAMP PUSH1 0xA0 DUP7 ADD MSTORE PUSH1 0x0 PUSH1 0xC0 DUP7 ADD DUP2 SWAP1 MSTORE DUP5 MLOAD DUP1 DUP6 ADD DUP7 MSTORE DUP2 DUP2 MSTORE PUSH1 0xE0 DUP8 ADD MSTORE DUP8 DUP2 MSTORE PUSH1 0x5 SWAP4 DUP5 SWAP1 MSTORE SWAP4 SWAP1 SWAP4 KECCAK256 DUP5 MLOAD DUP2 SSTORE SWAP3 MLOAD PUSH1 0x1 DUP5 DUP2 ADD DUP1 SLOAD SWAP4 SWAP8 POP SWAP2 SWAP4 SWAP2 SWAP3 PUSH1 0xFF NOT AND SWAP2 DUP5 SWAP1 DUP2 GT ISZERO PUSH2 0x1D08 JUMPI PUSH2 0x1D08 PUSH2 0x2583 JUMP JUMPDEST MUL OR SWAP1 SSTORE POP PUSH1 0x40 DUP3 ADD MLOAD PUSH1 0x1 DUP3 ADD DUP1 SLOAD PUSH1 0x1 PUSH1 0x1 PUSH1 0xA0 SHL SUB SWAP1 SWAP3 AND PUSH2 0x100 MUL PUSH2 0x100 PUSH1 0x1 PUSH1 0xA8 SHL SUB NOT SWAP1 SWAP3 AND SWAP2 SWAP1 SWAP2 OR SWAP1 SSTORE PUSH1 0x60 DUP3 ADD MLOAD PUSH1 0x2 DUP3 ADD SSTORE PUSH1 0x80 DUP3 ADD MLOAD PUSH1 0x3 DUP3 ADD SWAP1 PUSH2 0x1D58 SWAP1 DUP3 PUSH2 0x2E0B JUMP JUMPDEST POP PUSH1 0xA0 DUP3 ADD MLOAD PUSH1 0x4 DUP3 ADD SSTORE PUSH1 0xC0 DUP3 ADD MLOAD PUSH1 0x5 DUP3 ADD DUP1 SLOAD PUSH1 0xFF NOT AND SWAP2 ISZERO ISZERO SWAP2 SWAP1 SWAP2 OR SWAP1 SSTORE PUSH1 0xE0 DUP3 ADD MLOAD PUSH1 0x6 DUP3 ADD SWAP1 PUSH2 0x1D8F SWAP1 DUP3 PUSH2 0x2E0B JUMP JUMPDEST POP POP POP PUSH1 0x1 PUSH1 0x1 PUSH1 0xA0 SHL SUB DUP8 AND PUSH1 0x0 SWAP1 DUP2 MSTORE PUSH1 0x9 PUSH1 0x20 SWAP1 DUP2 MSTORE PUSH1 0x40 DUP3 KECCAK256 DUP1 SLOAD PUSH1 0x1 DUP2 ADD DUP3 SSTORE SWAP1 DUP4 MSTORE DUP2 DUP4 KECCAK256 ADD DUP5 SWAP1 SSTORE PUSH1 0x4 DUP3 MSTORE PUSH1 0xA SWAP1 MSTORE PUSH32 0xE1EB2B2161A492C07C5A334E48012567CBA93EC021043F53C1955516A3C5A841 DUP1 SLOAD SWAP2 PUSH2 0x1DF3 DUP4 PUSH2 0x2DA3 JUMP JUMPDEST SWAP2 SWAP1 POP SSTORE POP DUP7 PUSH1 0x1 PUSH1 0x1 PUSH1 0xA0 SHL SUB AND DUP3 PUSH32 0xF48253C80E26E6C01D71F55D4E6267FDB2700852B7558F9F13EF4722F2843102 PUSH1 0x4 PUSH1 0x40 MLOAD PUSH2 0x1E33 SWAP2 SWAP1 PUSH2 0x2ECB JUMP JUMPDEST PUSH1 0x40 MLOAD DUP1 SWAP2 SUB SWAP1 LOG3 POP SWAP6 SWAP5 POP POP POP POP POP JUMP JUMPDEST PUSH1 0x0 PUSH1 0xA PUSH1 0x0 DUP4 PUSH1 0x5 DUP2 GT ISZERO PUSH2 0x1E5D JUMPI PUSH2 0x1E5D PUSH2 0x2583 JUMP JUMPDEST PUSH1 0x5 DUP2 GT ISZERO PUSH2 0x1E6E JUMPI PUSH2 0x1E6E PUSH2 0x2583 JUMP JUMPDEST DUP2 MSTORE PUSH1 0x20 ADD SWAP1 DUP2 MSTORE PUSH1 0x20 ADD PUSH1 0x0 KECCAK256 SLOAD SWAP1 POP SWAP2 SWAP1 POP JUMP JUMPDEST PUSH2 0x1E8C PUSH2 0x1F4C JUMP JUMPDEST PUSH1 0x1 PUSH1 0x1 PUSH1 0xA0 SHL SUB DUP2 AND PUSH2 0x1EF1 JUMPI PUSH1 0x40 MLOAD PUSH3 0x461BCD PUSH1 0xE5 SHL DUP2 MSTORE PUSH1 0x20 PUSH1 0x4 DUP3 ADD MSTORE PUSH1 0x26 PUSH1 0x24 DUP3 ADD MSTORE PUSH32 0x4F776E61626C653A206E6577206F776E657220697320746865207A65726F2061 PUSH1 0x44 DUP3 ADD MSTORE PUSH6 0x646472657373 PUSH1 0xD0 SHL PUSH1 0x64 DUP3 ADD MSTORE PUSH1 0x84 ADD PUSH2 0x78E JUMP JUMPDEST PUSH2 0x1EFA DUP2 PUSH2 0x2071 JUMP JUMPDEST POP JUMP JUMPDEST PUSH2 0x1F05 PUSH2 0x1F4C JUMP JUMPDEST PUSH1 0x3 PUSH2 0x1F11 DUP3 DUP3 PUSH2 0x2E0B JUMP JUMPDEST POP PUSH32 0xE9F017BAB028C809487E228EBFCF9BBDCB39F101F2DFC28483C3BD77EEEE665A DUP2 PUSH1 0x40 MLOAD PUSH2 0x1F41 SWAP2 SWAP1 PUSH2 0x267A JUMP JUMPDEST PUSH1 0x40 MLOAD DUP1 SWAP2 SUB SWAP1 LOG1 POP JUMP JUMPDEST PUSH1 0x0 SLOAD PUSH1 0x1 PUSH1 0x1 PUSH1 0xA0 SHL SUB AND CALLER EQ PUSH2 0x1374 JUMPI PUSH1 0x40 MLOAD PUSH3 0x461BCD PUSH1 0xE5 SHL DUP2 MSTORE PUSH1 0x20 PUSH1 0x4 DUP3 ADD DUP2 SWAP1 MSTORE PUSH1 0x24 DUP3 ADD MSTORE PUSH32 0x4F776E61626C653A2063616C6C6572206973206E6F7420746865206F776E6572 PUSH1 0x44 DUP3 ADD MSTORE PUSH1 0x64 ADD PUSH2 0x78E JUMP JUMPDEST PUSH1 0x1 PUSH1 0x1 PUSH1 0xA0 SHL SUB DUP5 AND PUSH1 0x0 DUP2 DUP2 MSTORE PUSH1 0x8 PUSH1 0x20 MSTORE PUSH1 0x40 DUP2 KECCAK256 DUP1 SLOAD PUSH1 0x1 PUSH1 0x1 PUSH1 0xA0 SHL SUB NOT AND SWAP1 SWAP3 OR DUP3 SSTORE PUSH1 0x1 DUP3 ADD DUP1 SLOAD DUP7 SWAP3 SWAP1 PUSH2 0x1FE3 SWAP1 DUP5 SWAP1 PUSH2 0x2EF5 JUMP JUMPDEST SWAP1 SWAP2 SSTORE POP POP DUP2 ISZERO PUSH2 0x2023 JUMPI DUP3 DUP2 PUSH1 0x2 ADD PUSH1 0x0 DUP3 DUP3 SLOAD PUSH2 0x2002 SWAP2 SWAP1 PUSH2 0x2EF5 JUMP JUMPDEST SWAP1 SWAP2 SSTORE POP POP PUSH1 0x4 DUP2 ADD DUP1 SLOAD SWAP1 PUSH1 0x0 PUSH2 0x2019 DUP4 PUSH2 0x2DA3 JUMP JUMPDEST SWAP2 SWAP1 POP SSTORE POP PUSH2 0x202B JUMP JUMPDEST PUSH1 0x0 PUSH1 0x4 DUP3 ADD SSTORE JUMPDEST PUSH1 0x1 DUP2 ADD SLOAD ISZERO PUSH2 0x205B JUMPI PUSH1 0x1 DUP2 ADD SLOAD PUSH1 0x2 DUP3 ADD SLOAD PUSH2 0x204B SWAP1 PUSH2 0x2710 PUSH2 0x2F4E JUMP JUMPDEST PUSH2 0x2055 SWAP2 SWAP1 PUSH2 0x2F65 JUMP JUMPDEST PUSH1 0x3 DUP3 ADD SSTORE JUMPDEST TIMESTAMP PUSH1 0x5 DUP3 ADD SSTORE PUSH2 0x206A DUP6 PUSH2 0x20C1 JUMP JUMPDEST POP POP POP POP POP JUMP JUMPDEST PUSH1 0x0 DUP1 SLOAD PUSH1 0x1 PUSH1 0x1 PUSH1 0xA0 SHL SUB DUP4 DUP2 AND PUSH1 0x1 PUSH1 0x1 PUSH1 0xA0 SHL SUB NOT DUP4 AND DUP2 OR DUP5 SSTORE PUSH1 0x40 MLOAD SWAP2 SWAP1 SWAP3 AND SWAP3 DUP4 SWAP2 PUSH32 0x8BE0079C531659141344CD1FD0A4F28419497F9722A3DAAFE3B4186F6B6457E0 SWAP2 SWAP1 LOG3 POP POP JUMP JUMPDEST PUSH1 0x1 PUSH1 0x1 PUSH1 0xA0 SHL SUB DUP1 DUP3 AND PUSH1 0x0 DUP2 DUP2 MSTORE PUSH1 0x8 PUSH1 0x20 SWAP1 DUP2 MSTORE PUSH1 0x40 DUP1 DUP4 KECCAK256 DUP2 MLOAD PUSH1 0xC0 DUP2 ADD DUP4 MSTORE DUP2 SLOAD SWAP1 SWAP7 AND DUP7 MSTORE PUSH1 0x1 DUP2 ADD SLOAD DUP7 DUP5 ADD MSTORE PUSH1 0x2 DUP2 ADD SLOAD DUP7 DUP4 ADD MSTORE PUSH1 0x3 DUP2 ADD SLOAD PUSH1 0x60 DUP8 ADD MSTORE PUSH1 0x4 DUP2 ADD SLOAD PUSH1 0x80 DUP8 ADD MSTORE PUSH1 0x5 ADD SLOAD PUSH1 0xA0 DUP7 ADD MSTORE SWAP3 DUP3 MSTORE PUSH1 0xC SWAP1 MSTORE KECCAK256 SLOAD ISZERO PUSH2 0x22B0 JUMPI PUSH1 0x1 PUSH1 0x1 PUSH1 0xA0 SHL SUB DUP3 AND PUSH1 0x0 SWAP1 DUP2 MSTORE PUSH1 0xC PUSH1 0x20 MSTORE PUSH1 0x40 DUP2 KECCAK256 SLOAD PUSH2 0x214E SWAP1 PUSH1 0x1 SWAP1 PUSH2 0x2F87 JUMP JUMPDEST PUSH1 0xB SLOAD SWAP1 SWAP2 POP DUP2 LT DUP1 ISZERO PUSH2 0x2191 JUMPI POP DUP3 PUSH1 0x1 PUSH1 0x1 PUSH1 0xA0 SHL SUB AND PUSH1 0xB DUP3 DUP2 SLOAD DUP2 LT PUSH2 0x217A JUMPI PUSH2 0x217A PUSH2 0x2EDF JUMP JUMPDEST PUSH1 0x0 SWAP2 DUP3 MSTORE PUSH1 0x20 SWAP1 SWAP2 KECCAK256 ADD SLOAD PUSH1 0x1 PUSH1 0x1 PUSH1 0xA0 SHL SUB AND EQ JUMPDEST ISZERO PUSH2 0x22AE JUMPI DUP1 JUMPDEST PUSH1 0xB SLOAD PUSH2 0x21A7 SWAP1 PUSH1 0x1 SWAP1 PUSH2 0x2F87 JUMP JUMPDEST DUP2 LT ISZERO PUSH2 0x2279 JUMPI PUSH1 0xB PUSH2 0x21BB DUP3 PUSH1 0x1 PUSH2 0x2EF5 JUMP JUMPDEST DUP2 SLOAD DUP2 LT PUSH2 0x21CB JUMPI PUSH2 0x21CB PUSH2 0x2EDF JUMP JUMPDEST PUSH1 0x0 SWAP2 DUP3 MSTORE PUSH1 0x20 SWAP1 SWAP2 KECCAK256 ADD SLOAD PUSH1 0xB DUP1 SLOAD PUSH1 0x1 PUSH1 0x1 PUSH1 0xA0 SHL SUB SWAP1 SWAP3 AND SWAP2 DUP4 SWAP1 DUP2 LT PUSH2 0x21F7 JUMPI PUSH2 0x21F7 PUSH2 0x2EDF JUMP JUMPDEST PUSH1 0x0 SWAP2 DUP3 MSTORE PUSH1 0x20 SWAP1 SWAP2 KECCAK256 ADD DUP1 SLOAD PUSH1 0x1 PUSH1 0x1 PUSH1 0xA0 SHL SUB NOT AND PUSH1 0x1 PUSH1 0x1 PUSH1 0xA0 SHL SUB SWAP3 SWAP1 SWAP3 AND SWAP2 SWAP1 SWAP2 OR SWAP1 SSTORE PUSH2 0x222B DUP2 PUSH1 0x1 PUSH2 0x2EF5 JUMP JUMPDEST PUSH1 0xC PUSH1 0x0 PUSH1 0xB DUP5 DUP2 SLOAD DUP2 LT PUSH2 0x2242 JUMPI PUSH2 0x2242 PUSH2 0x2EDF JUMP JUMPDEST PUSH1 0x0 SWAP2 DUP3 MSTORE PUSH1 0x20 DUP1 DUP4 KECCAK256 SWAP1 SWAP2 ADD SLOAD PUSH1 0x1 PUSH1 0x1 PUSH1 0xA0 SHL SUB AND DUP4 MSTORE DUP3 ADD SWAP3 SWAP1 SWAP3 MSTORE PUSH1 0x40 ADD SWAP1 KECCAK256 SSTORE DUP1 PUSH2 0x2271 DUP2 PUSH2 0x2DA3 JUMP JUMPDEST SWAP2 POP POP PUSH2 0x2198 JUMP JUMPDEST POP PUSH1 0xB DUP1 SLOAD DUP1 PUSH2 0x228B JUMPI PUSH2 0x228B PUSH2 0x2F9A JUMP JUMPDEST PUSH1 0x0 DUP3 DUP2 MSTORE PUSH1 0x20 SWAP1 KECCAK256 DUP2 ADD PUSH1 0x0 NOT SWAP1 DUP2 ADD DUP1 SLOAD PUSH1 0x1 PUSH1 0x1 PUSH1 0xA0 SHL SUB NOT AND SWAP1 SSTORE ADD SWAP1 SSTORE JUMPDEST POP JUMPDEST PUSH1 0xB SLOAD PUSH1 0x0 JUMPDEST PUSH1 0xB SLOAD DUP2 LT ISZERO PUSH2 0x2399 JUMPI PUSH1 0x0 PUSH1 0x8 PUSH1 0x0 PUSH1 0xB DUP5 DUP2 SLOAD DUP2 LT PUSH2 0x22D9 JUMPI PUSH2 0x22D9 PUSH2 0x2EDF JUMP JUMPDEST PUSH1 0x0 SWAP2 DUP3 MSTORE PUSH1 0x20 DUP1 DUP4 KECCAK256 SWAP1 SWAP2 ADD SLOAD PUSH1 0x1 PUSH1 0x1 PUSH1 0xA0 SHL SUB SWAP1 DUP2 AND DUP5 MSTORE DUP4 DUP3 ADD SWAP5 SWAP1 SWAP5 MSTORE PUSH1 0x40 SWAP3 DUP4 ADD SWAP1 SWAP2 KECCAK256 DUP3 MLOAD PUSH1 0xC0 DUP2 ADD DUP5 MSTORE DUP2 SLOAD SWAP1 SWAP5 AND DUP5 MSTORE PUSH1 0x1 DUP2 ADD SLOAD SWAP2 DUP5 ADD SWAP2 SWAP1 SWAP2 MSTORE PUSH1 0x2 DUP2 ADD SLOAD SWAP2 DUP4 ADD SWAP2 SWAP1 SWAP2 MSTORE PUSH1 0x3 DUP2 ADD SLOAD PUSH1 0x60 DUP1 DUP5 ADD DUP3 SWAP1 MSTORE PUSH1 0x4 DUP4 ADD SLOAD PUSH1 0x80 DUP6 ADD MSTORE PUSH1 0x5 SWAP1 SWAP3 ADD SLOAD PUSH1 0xA0 DUP5 ADD MSTORE SWAP1 DUP7 ADD MLOAD SWAP2 SWAP3 POP LT DUP1 PUSH2 0x2378 JUMPI POP DUP1 PUSH1 0x60 ADD MLOAD DUP5 PUSH1 0x60 ADD MLOAD EQ DUP1 ISZERO PUSH2 0x2378 JUMPI POP DUP1 PUSH1 0x40 ADD MLOAD DUP5 PUSH1 0x40 ADD MLOAD GT JUMPDEST ISZERO PUSH2 0x2386 JUMPI DUP2 SWAP3 POP POP PUSH2 0x2399 JUMP JUMPDEST POP DUP1 PUSH2 0x2391 DUP2 PUSH2 0x2DA3 JUMP JUMPDEST SWAP2 POP POP PUSH2 0x22B6 JUMP JUMPDEST POP PUSH1 0xB DUP1 SLOAD PUSH1 0x1 DUP1 DUP3 ADD DUP4 SSTORE PUSH1 0x0 DUP4 DUP2 MSTORE PUSH32 0x175B7A638427703F0DBE7BB9BBF987A2551717B34E79F33B5B1008D1FA01DB9 SWAP1 SWAP3 ADD DUP1 SLOAD PUSH1 0x1 PUSH1 0x1 PUSH1 0xA0 SHL SUB NOT AND PUSH1 0x1 PUSH1 0x1 PUSH1 0xA0 SHL SUB DUP9 AND OR SWAP1 SSTORE SWAP2 SLOAD SWAP1 SWAP2 PUSH2 0x23F4 SWAP2 PUSH2 0x2F87 JUMP JUMPDEST SWAP1 POP JUMPDEST DUP2 DUP2 GT ISZERO PUSH2 0x2483 JUMPI PUSH1 0xB PUSH2 0x240C PUSH1 0x1 DUP4 PUSH2 0x2F87 JUMP JUMPDEST DUP2 SLOAD DUP2 LT PUSH2 0x241C JUMPI PUSH2 0x241C PUSH2 0x2EDF JUMP JUMPDEST PUSH1 0x0 SWAP2 DUP3 MSTORE PUSH1 0x20 SWAP1 SWAP2 KECCAK256 ADD SLOAD PUSH1 0xB DUP1 SLOAD PUSH1 0x1 PUSH1 0x1 PUSH1 0xA0 SHL SUB SWAP1 SWAP3 AND SWAP2 DUP4 SWAP1 DUP2 LT PUSH2 0x2448 JUMPI PUSH2 0x2448 PUSH2 0x2EDF JUMP JUMPDEST PUSH1 0x0 SWAP2 DUP3 MSTORE PUSH1 0x20 SWAP1 SWAP2 KECCAK256 ADD DUP1 SLOAD PUSH1 0x1 PUSH1 0x1 PUSH1 0xA0 SHL SUB NOT AND PUSH1 0x1 PUSH1 0x1 PUSH1 0xA0 SHL SUB SWAP3 SWAP1 SWAP3 AND SWAP2 SWAP1 SWAP2 OR SWAP1 SSTORE DUP1 PUSH2 0x247B DUP2 PUSH2 0x2FB0 JUMP JUMPDEST SWAP2 POP POP PUSH2 0x23F7 JUMP JUMPDEST POP DUP3 PUSH1 0xB DUP3 DUP2 SLOAD DUP2 LT PUSH2 0x2498 JUMPI PUSH2 0x2498 PUSH2 0x2EDF JUMP JUMPDEST PUSH1 0x0 SWAP2 DUP3 MSTORE PUSH1 0x20 DUP3 KECCAK256 ADD DUP1 SLOAD PUSH1 0x1 PUSH1 0x1 PUSH1 0xA0 SHL SUB NOT AND PUSH1 0x1 PUSH1 0x1 PUSH1 0xA0 SHL SUB SWAP4 SWAP1 SWAP4 AND SWAP3 SWAP1 SWAP3 OR SWAP1 SWAP2 SSTORE JUMPDEST PUSH1 0xB SLOAD DUP2 LT ISZERO PUSH2 0x2525 JUMPI PUSH2 0x24D7 DUP2 PUSH1 0x1 PUSH2 0x2EF5 JUMP JUMPDEST PUSH1 0xC PUSH1 0x0 PUSH1 0xB DUP5 DUP2 SLOAD DUP2 LT PUSH2 0x24EE JUMPI PUSH2 0x24EE PUSH2 0x2EDF JUMP JUMPDEST PUSH1 0x0 SWAP2 DUP3 MSTORE PUSH1 0x20 DUP1 DUP4 KECCAK256 SWAP1 SWAP2 ADD SLOAD PUSH1 0x1 PUSH1 0x1 PUSH1 0xA0 SHL SUB AND DUP4 MSTORE DUP3 ADD SWAP3 SWAP1 SWAP3 MSTORE PUSH1 0x40 ADD SWAP1 KECCAK256 SSTORE DUP1 PUSH2 0x251D DUP2 PUSH2 0x2DA3 JUMP JUMPDEST SWAP2 POP POP PUSH2 0x24C2 JUMP JUMPDEST POP PUSH1 0x1 PUSH1 0x1 PUSH1 0xA0 SHL SUB DUP4 AND PUSH32 0x24E225604268D6416871B32DB1BE8E49F497CAF8360393B31D71A34A4CE26693 PUSH2 0x255C DUP4 PUSH1 0x1 PUSH2 0x2EF5 JUMP JUMPDEST PUSH1 0x40 MLOAD SWAP1 DUP2 MSTORE PUSH1 0x20 ADD PUSH2 0x146B JUMP JUMPDEST PUSH1 0x0 PUSH1 0x20 DUP3 DUP5 SUB SLT ISZERO PUSH2 0x257C JUMPI PUSH1 0x0 DUP1 REVERT JUMPDEST POP CALLDATALOAD SWAP2 SWAP1 POP JUMP JUMPDEST PUSH4 0x4E487B71 PUSH1 0xE0 SHL PUSH1 0x0 MSTORE PUSH1 0x21 PUSH1 0x4 MSTORE PUSH1 0x24 PUSH1 0x0 REVERT JUMPDEST PUSH1 0x6 DUP2 LT PUSH2 0x25B7 JUMPI PUSH4 0x4E487B71 PUSH1 0xE0 SHL PUSH1 0x0 MSTORE PUSH1 0x21 PUSH1 0x4 MSTORE PUSH1 0x24 PUSH1 0x0 REVERT JUMPDEST SWAP1 MSTORE JUMP JUMPDEST PUSH1 0x0 JUMPDEST DUP4 DUP2 LT ISZERO PUSH2 0x25D6 JUMPI DUP2 DUP2 ADD MLOAD DUP4 DUP3 ADD MSTORE PUSH1 0x20 ADD PUSH2 0x25BE JUMP JUMPDEST POP POP PUSH1 0x0 SWAP2 ADD MSTORE JUMP JUMPDEST PUSH1 0x0 DUP2 MLOAD DUP1 DUP5 MSTORE PUSH2 0x25F7 DUP2 PUSH1 0x20 DUP7 ADD PUSH1 0x20 DUP7 ADD PUSH2 0x25BB JUMP JUMPDEST PUSH1 0x1F ADD PUSH1 0x1F NOT AND SWAP3 SWAP1 SWAP3 ADD PUSH1 0x20 ADD SWAP3 SWAP2 POP POP JUMP JUMPDEST PUSH1 0x0 PUSH2 0x100 DUP11 DUP4 MSTORE PUSH2 0x2620 PUSH1 0x20 DUP5 ADD DUP12 PUSH2 0x2599 JUMP JUMPDEST PUSH1 0x1 PUSH1 0x1 PUSH1 0xA0 SHL SUB DUP10 AND PUSH1 0x40 DUP5 ADD MSTORE PUSH1 0x60 DUP4 ADD DUP9 SWAP1 MSTORE PUSH1 0x80 DUP4 ADD DUP2 SWAP1 MSTORE PUSH2 0x2649 DUP2 DUP5 ADD DUP9 PUSH2 0x25DF JUMP JUMPDEST SWAP1 POP DUP6 PUSH1 0xA0 DUP5 ADD MSTORE DUP5 ISZERO ISZERO PUSH1 0xC0 DUP5 ADD MSTORE DUP3 DUP2 SUB PUSH1 0xE0 DUP5 ADD MSTORE PUSH2 0x266B DUP2 DUP6 PUSH2 0x25DF JUMP JUMPDEST SWAP12 SWAP11 POP POP POP POP POP POP POP POP POP POP POP JUMP JUMPDEST PUSH1 0x20 DUP2 MSTORE PUSH1 0x0 PUSH2 0x268D PUSH1 0x20 DUP4 ADD DUP5 PUSH2 0x25DF JUMP JUMPDEST SWAP4 SWAP3 POP POP POP JUMP JUMPDEST DUP1 CALLDATALOAD PUSH1 0x1 PUSH1 0x1 PUSH1 0xA0 SHL SUB DUP2 AND DUP2 EQ PUSH2 0x26AB JUMPI PUSH1 0x0 DUP1 REVERT JUMPDEST SWAP2 SWAP1 POP JUMP JUMPDEST PUSH4 0x4E487B71 PUSH1 0xE0 SHL PUSH1 0x0 MSTORE PUSH1 0x41 PUSH1 0x4 MSTORE PUSH1 0x24 PUSH1 0x0 REVERT JUMPDEST PUSH1 0x0 DUP3 PUSH1 0x1F DUP4 ADD SLT PUSH2 0x26D7 JUMPI PUSH1 0x0 DUP1 REVERT JUMPDEST DUP2 CALLDATALOAD PUSH8 0xFFFFFFFFFFFFFFFF DUP1 DUP3 GT ISZERO PUSH2 0x26F2 JUMPI PUSH2 0x26F2 PUSH2 0x26B0 JUMP JUMPDEST PUSH1 0x40 MLOAD PUSH1 0x1F DUP4 ADD PUSH1 0x1F NOT SWAP1 DUP2 AND PUSH1 0x3F ADD AND DUP2 ADD SWAP1 DUP3 DUP3 GT DUP2 DUP4 LT OR ISZERO PUSH2 0x271A JUMPI PUSH2 0x271A PUSH2 0x26B0 JUMP JUMPDEST DUP2 PUSH1 0x40 MSTORE DUP4 DUP2 MSTORE DUP7 PUSH1 0x20 DUP6 DUP9 ADD ADD GT ISZERO PUSH2 0x2733 JUMPI PUSH1 0x0 DUP1 REVERT JUMPDEST DUP4 PUSH1 0x20 DUP8 ADD PUSH1 0x20 DUP4 ADD CALLDATACOPY PUSH1 0x0 PUSH1 0x20 DUP6 DUP4 ADD ADD MSTORE DUP1 SWAP5 POP POP POP POP POP SWAP3 SWAP2 POP POP JUMP JUMPDEST DUP1 CALLDATALOAD DUP1 ISZERO ISZERO DUP2 EQ PUSH2 0x26AB JUMPI PUSH1 0x0 DUP1 REVERT JUMPDEST PUSH1 0x0 DUP1 PUSH1 0x0 DUP1 PUSH1 0x0 DUP1 PUSH1 0x0 PUSH1 0xE0 DUP9 DUP11 SUB SLT ISZERO PUSH2 0x277E JUMPI PUSH1 0x0 DUP1 REVERT JUMPDEST DUP8 CALLDATALOAD SWAP7 POP PUSH2 0x278E PUSH1 0x20 DUP10 ADD PUSH2 0x2694 JUMP JUMPDEST SWAP6 POP PUSH1 0x40 DUP9 ADD CALLDATALOAD PUSH8 0xFFFFFFFFFFFFFFFF DUP1 DUP3 GT ISZERO PUSH2 0x27AB JUMPI PUSH1 0x0 DUP1 REVERT JUMPDEST PUSH2 0x27B7 DUP12 DUP4 DUP13 ADD PUSH2 0x26C6 JUMP JUMPDEST SWAP7 POP PUSH2 0x27C5 PUSH1 0x60 DUP12 ADD PUSH2 0x2753 JUMP JUMPDEST SWAP6 POP PUSH1 0x80 DUP11 ADD CALLDATALOAD SWAP5 POP PUSH1 0xA0 DUP11 ADD CALLDATALOAD SWAP2 POP DUP1 DUP3 GT ISZERO PUSH2 0x27E2 JUMPI PUSH1 0x0 DUP1 REVERT JUMPDEST PUSH2 0x27EE DUP12 DUP4 DUP13 ADD PUSH2 0x26C6 JUMP JUMPDEST SWAP4 POP PUSH1 0xC0 DUP11 ADD CALLDATALOAD SWAP2 POP DUP1 DUP3 GT ISZERO PUSH2 0x2804 JUMPI PUSH1 0x0 DUP1 REVERT JUMPDEST POP PUSH2 0x2811 DUP11 DUP3 DUP12 ADD PUSH2 0x26C6 JUMP JUMPDEST SWAP2 POP POP SWAP3 SWAP6 SWAP9 SWAP2 SWAP5 SWAP8 POP SWAP3 SWAP6 POP JUMP JUMPDEST PUSH1 0x0 PUSH1 0x20 DUP3 DUP5 SUB SLT ISZERO PUSH2 0x2832 JUMPI PUSH1 0x0 DUP1 REVERT JUMPDEST DUP2 CALLDATALOAD PUSH1 0x6 DUP2 LT PUSH2 0x268D JUMPI PUSH1 0x0 DUP1 REVERT JUMPDEST PUSH1 0x0 PUSH1 0x20 DUP3 DUP5 SUB SLT ISZERO PUSH2 0x2853 JUMPI PUSH1 0x0 DUP1 REVERT JUMPDEST PUSH2 0x268D DUP3 PUSH2 0x2694 JUMP JUMPDEST PUSH1 0x20 DUP1 DUP3 MSTORE DUP3 MLOAD PUSH1 0x1 PUSH1 0x1 PUSH1 0xA0 SHL SUB AND DUP3 DUP3 ADD MSTORE DUP3 ADD MLOAD PUSH2 0x100 PUSH1 0x40 DUP4 ADD DUP2 SWAP1 MSTORE PUSH1 0x0 SWAP2 SWAP1 PUSH2 0x288F PUSH2 0x120 DUP6 ADD DUP4 PUSH2 0x25DF JUMP JUMPDEST SWAP2 POP PUSH1 0x40 DUP6 ADD MLOAD PUSH1 0x60 DUP6 ADD MSTORE PUSH1 0x60 DUP6 ADD MLOAD PUSH1 0x80 DUP6 ADD MSTORE PUSH1 0x80 DUP6 ADD MLOAD PUSH2 0x28B8 PUSH1 0xA0 DUP7 ADD DUP3 ISZERO ISZERO SWAP1 MSTORE JUMP JUMPDEST POP PUSH1 0xA0 DUP6 ADD MLOAD PUSH1 0xC0 DUP6 ADD MSTORE PUSH1 0xC0 DUP6 ADD MLOAD PUSH1 0xE0 DUP6 ADD MSTORE PUSH1 0xE0 DUP6 ADD MLOAD PUSH1 0x1F NOT DUP6 DUP5 SUB ADD DUP3 DUP7 ADD MSTORE PUSH2 0x28E7 DUP4 DUP3 PUSH2 0x25DF JUMP JUMPDEST SWAP7 SWAP6 POP POP POP POP POP POP JUMP JUMPDEST PUSH1 0x20 DUP1 DUP3 MSTORE DUP3 MLOAD DUP3 DUP3 ADD DUP2 SWAP1 MSTORE PUSH1 0x0 SWAP2 SWAP1 DUP5 DUP3 ADD SWAP1 PUSH1 0x40 DUP6 ADD SWAP1 DUP5 JUMPDEST DUP2 DUP2 LT ISZERO PUSH2 0x2929 JUMPI DUP4 MLOAD DUP4 MSTORE SWAP3 DUP5 ADD SWAP3 SWAP2 DUP5 ADD SWAP2 PUSH1 0x1 ADD PUSH2 0x290D JUMP JUMPDEST POP SWAP1 SWAP7 SWAP6 POP POP POP POP POP POP JUMP JUMPDEST PUSH1 0x0 DUP1 PUSH1 0x0 DUP1 PUSH1 0x0 DUP1 PUSH1 0x0 PUSH1 0xE0 DUP9 DUP11 SUB SLT ISZERO PUSH2 0x2950 JUMPI PUSH1 0x0 DUP1 REVERT JUMPDEST PUSH2 0x2959 DUP9 PUSH2 0x2694 JUMP JUMPDEST SWAP7 POP PUSH1 0x20 DUP9 ADD CALLDATALOAD SWAP6 POP PUSH1 0x40 DUP9 ADD CALLDATALOAD SWAP5 POP PUSH2 0x2975 PUSH1 0x60 DUP10 ADD PUSH2 0x2753 JUMP JUMPDEST SWAP4 POP PUSH1 0x80 DUP9 ADD CALLDATALOAD SWAP3 POP PUSH1 0xA0 DUP9 ADD CALLDATALOAD PUSH8 0xFFFFFFFFFFFFFFFF DUP1 DUP3 GT ISZERO PUSH2 0x27E2 JUMPI PUSH1 0x0 DUP1 REVERT JUMPDEST PUSH1 0x20 DUP2 MSTORE DUP2 MLOAD PUSH1 0x20 DUP3 ADD MSTORE PUSH1 0x0 PUSH1 0x20 DUP4 ADD MLOAD PUSH2 0x29B8 PUSH1 0x40 DUP5 ADD DUP3 PUSH2 0x2599 JUMP JUMPDEST POP PUSH1 0x1 DUP1 PUSH1 0xA0 SHL SUB PUSH1 0x40 DUP5 ADD MLOAD AND PUSH1 0x60 DUP4 ADD MSTORE PUSH1 0x60 DUP4 ADD MLOAD PUSH1 0x80 DUP4 ADD MSTORE PUSH1 0x80 DUP4 ADD MLOAD PUSH2 0x100 DUP1 PUSH1 0xA0 DUP6 ADD MSTORE PUSH2 0x29F1 PUSH2 0x120 DUP6 ADD DUP4 PUSH2 0x25DF JUMP JUMPDEST SWAP2 POP PUSH1 0xA0 DUP6 ADD MLOAD PUSH1 0xC0 DUP6 ADD MSTORE PUSH1 0xC0 DUP6 ADD MLOAD PUSH2 0x2A10 PUSH1 0xE0 DUP7 ADD DUP3 ISZERO ISZERO SWAP1 MSTORE JUMP JUMPDEST POP PUSH1 0xE0 DUP6 ADD MLOAD DUP5 DUP4 SUB PUSH1 0x1F NOT ADD DUP3 DUP7 ADD MSTORE PUSH2 0x28E7 DUP4 DUP3 PUSH2 0x25DF JUMP JUMPDEST PUSH1 0x0 DUP1 PUSH1 0x40 DUP4 DUP6 SUB SLT ISZERO PUSH2 0x2A3E JUMPI PUSH1 0x0 DUP1 REVERT JUMPDEST DUP3 CALLDATALOAD SWAP2 POP PUSH1 0x20 DUP4 ADD CALLDATALOAD PUSH8 0xFFFFFFFFFFFFFFFF DUP2 GT ISZERO PUSH2 0x2A5C JUMPI PUSH1 0x0 DUP1 REVERT JUMPDEST PUSH2 0x2A68 DUP6 DUP3 DUP7 ADD PUSH2 0x26C6 JUMP JUMPDEST SWAP2 POP POP SWAP3 POP SWAP3 SWAP1 POP JUMP JUMPDEST PUSH1 0x20 DUP2 MSTORE DUP2 MLOAD PUSH1 0x20 DUP3 ADD MSTORE PUSH1 0x1 DUP1 PUSH1 0xA0 SHL SUB PUSH1 0x20 DUP4 ADD MLOAD AND PUSH1 0x40 DUP3 ADD MSTORE PUSH1 0x0 PUSH1 0x40 DUP4 ADD MLOAD PUSH1 0xE0 PUSH1 0x60 DUP5 ADD MSTORE PUSH2 0x2AAB PUSH2 0x100 DUP5 ADD DUP3 PUSH2 0x25DF JUMP JUMPDEST SWAP1 POP PUSH1 0x60 DUP5 ADD MLOAD ISZERO ISZERO PUSH1 0x80 DUP5 ADD MSTORE PUSH1 0x80 DUP5 ADD MLOAD PUSH1 0xA0 DUP5 ADD MSTORE PUSH1 0xA0 DUP5 ADD MLOAD PUSH1 0x1F NOT DUP5 DUP4 SUB ADD PUSH1 0xC0 DUP6 ADD MSTORE PUSH2 0x2ADE DUP3 DUP3 PUSH2 0x25DF JUMP JUMPDEST SWAP2 POP POP PUSH1 0xC0 DUP5 ADD MLOAD PUSH1 0xE0 DUP5 ADD MSTORE DUP1 SWAP2 POP POP SWAP3 SWAP2 POP POP JUMP JUMPDEST DUP8 DUP2 MSTORE PUSH1 0x1 PUSH1 0x1 PUSH1 0xA0 SHL SUB DUP8 AND PUSH1 0x20 DUP3 ADD MSTORE PUSH1 0xE0 PUSH1 0x40 DUP3 ADD DUP2 SWAP1 MSTORE PUSH1 0x0 SWAP1 PUSH2 0x2B1F SWAP1 DUP4 ADD DUP9 PUSH2 0x25DF JUMP JUMPDEST DUP7 ISZERO ISZERO PUSH1 0x60 DUP5 ADD MSTORE DUP6 PUSH1 0x80 DUP5 ADD MSTORE DUP3 DUP2 SUB PUSH1 0xA0 DUP5 ADD MSTORE PUSH2 0x2B3F DUP2 DUP7 PUSH2 0x25DF JUMP JUMPDEST SWAP2 POP POP DUP3 PUSH1 0xC0 DUP4 ADD MSTORE SWAP9 SWAP8 POP POP POP POP POP POP POP POP JUMP JUMPDEST PUSH1 0x1 PUSH1 0x1 PUSH1 0xA0 SHL SUB DUP10 AND DUP2 MSTORE PUSH2 0x100 PUSH1 0x20 DUP3 ADD DUP2 SWAP1 MSTORE PUSH1 0x0 SWAP1 PUSH2 0x2B79 DUP4 DUP3 ADD DUP12 PUSH2 0x25DF JUMP JUMPDEST SWAP1 POP DUP9 PUSH1 0x40 DUP5 ADD MSTORE DUP8 PUSH1 0x60 DUP5 ADD MSTORE DUP7 ISZERO ISZERO PUSH1 0x80 DUP5 ADD MSTORE DUP6 PUSH1 0xA0 DUP5 ADD MSTORE DUP5 PUSH1 0xC0 DUP5 ADD MSTORE DUP3 DUP2 SUB PUSH1 0xE0 DUP5 ADD MSTORE PUSH2 0x266B DUP2 DUP6 PUSH2 0x25DF JUMP JUMPDEST PUSH1 0x40 DUP1 DUP3 MSTORE DUP4 MLOAD DUP3 DUP3 ADD DUP2 SWAP1 MSTORE PUSH1 0x0 SWAP2 SWAP1 PUSH1 0x60 SWAP1 DUP2 DUP6 ADD SWAP1 PUSH1 0x20 DUP1 DUP10 ADD DUP7 JUMPDEST DUP4 DUP2 LT ISZERO PUSH2 0x2BF1 JUMPI DUP2 MLOAD PUSH1 0x1 PUSH1 0x1 PUSH1 0xA0 SHL SUB AND DUP6 MSTORE SWAP4 DUP3 ADD SWAP4 SWAP1 DUP3 ADD SWAP1 PUSH1 0x1 ADD PUSH2 0x2BCC JUMP JUMPDEST POP POP DUP7 DUP4 SUB DUP2 DUP9 ADD MSTORE DUP8 MLOAD DUP1 DUP5 MSTORE DUP9 DUP3 ADD SWAP4 DUP3 ADD SWAP3 POP PUSH1 0x0 JUMPDEST DUP2 DUP2 LT ISZERO PUSH2 0x2C5F JUMPI DUP5 MLOAD DUP1 MLOAD PUSH1 0x1 PUSH1 0x1 PUSH1 0xA0 SHL SUB AND DUP6 MSTORE DUP4 DUP2 ADD MLOAD DUP5 DUP7 ADD MSTORE DUP8 DUP2 ADD MLOAD DUP9 DUP7 ADD MSTORE DUP7 DUP2 ADD MLOAD DUP8 DUP7 ADD MSTORE PUSH1 0x80 DUP1 DUP3 ADD MLOAD SWAP1 DUP7 ADD MSTORE PUSH1 0xA0 SWAP1 DUP2 ADD MLOAD SWAP1 DUP6 ADD MSTORE SWAP4 DUP3 ADD SWAP4 PUSH1 0xC0 SWAP1 SWAP4 ADD SWAP3 PUSH1 0x1 ADD PUSH2 0x2C0A JUMP JUMPDEST POP SWAP2 SWAP10 SWAP9 POP POP POP POP POP POP POP POP POP JUMP JUMPDEST PUSH1 0x0 DUP1 PUSH1 0x40 DUP4 DUP6 SUB SLT ISZERO PUSH2 0x2C81 JUMPI PUSH1 0x0 DUP1 REVERT JUMPDEST PUSH2 0x2C8A DUP4 PUSH2 0x2694 JUMP JUMPDEST SWAP5 PUSH1 0x20 SWAP4 SWAP1 SWAP4 ADD CALLDATALOAD SWAP4 POP POP POP JUMP JUMPDEST PUSH1 0x0 DUP1 PUSH1 0x0 DUP1 PUSH1 0x80 DUP6 DUP8 SUB SLT ISZERO PUSH2 0x2CAE JUMPI PUSH1 0x0 DUP1 REVERT JUMPDEST PUSH2 0x2CB7 DUP6 PUSH2 0x2694 JUMP JUMPDEST SWAP4 POP PUSH1 0x20 DUP6 ADD CALLDATALOAD SWAP3 POP PUSH1 0x40 DUP6 ADD CALLDATALOAD PUSH8 0xFFFFFFFFFFFFFFFF DUP1 DUP3 GT ISZERO PUSH2 0x2CDB JUMPI PUSH1 0x0 DUP1 REVERT JUMPDEST PUSH2 0x2CE7 DUP9 DUP4 DUP10 ADD PUSH2 0x26C6 JUMP JUMPDEST SWAP4 POP PUSH1 0x60 DUP8 ADD CALLDATALOAD SWAP2 POP DUP1 DUP3 GT ISZERO PUSH2 0x2CFD JUMPI PUSH1 0x0 DUP1 REVERT JUMPDEST POP PUSH2 0x2D0A DUP8 DUP3 DUP9 ADD PUSH2 0x26C6 JUMP JUMPDEST SWAP2 POP POP SWAP3 SWAP6 SWAP2 SWAP5 POP SWAP3 POP JUMP JUMPDEST PUSH1 0x0 PUSH1 0x20 DUP3 DUP5 SUB SLT ISZERO PUSH2 0x2D28 JUMPI PUSH1 0x0 DUP1 REVERT JUMPDEST DUP2 CALLDATALOAD PUSH8 0xFFFFFFFFFFFFFFFF DUP2 GT ISZERO PUSH2 0x2D3F JUMPI PUSH1 0x0 DUP1 REVERT JUMPDEST PUSH2 0x2D4B DUP5 DUP3 DUP6 ADD PUSH2 0x26C6 JUMP JUMPDEST SWAP5 SWAP4 POP POP POP POP JUMP JUMPDEST PUSH1 0x1 DUP2 DUP2 SHR SWAP1 DUP3 AND DUP1 PUSH2 0x2D67 JUMPI PUSH1 0x7F DUP3 AND SWAP2 POP JUMPDEST PUSH1 0x20 DUP3 LT DUP2 SUB PUSH2 0x2D87 JUMPI PUSH4 0x4E487B71 PUSH1 0xE0 SHL PUSH1 0x0 MSTORE PUSH1 0x22 PUSH1 0x4 MSTORE PUSH1 0x24 PUSH1 0x0 REVERT JUMPDEST POP SWAP2 SWAP1 POP JUMP JUMPDEST PUSH4 0x4E487B71 PUSH1 0xE0 SHL PUSH1 0x0 MSTORE PUSH1 0x11 PUSH1 0x4 MSTORE PUSH1 0x24 PUSH1 0x0 REVERT JUMPDEST PUSH1 0x0 PUSH1 0x1 DUP3 ADD PUSH2 0x2DB5 JUMPI PUSH2 0x2DB5 PUSH2 0x2D8D JUMP JUMPDEST POP PUSH1 0x1 ADD SWAP1 JUMP JUMPDEST PUSH1 0x1F DUP3 GT ISZERO PUSH2 0x2E06 JUMPI PUSH1 0x0 DUP2 DUP2 MSTORE PUSH1 0x20 DUP2 KECCAK256 PUSH1 0x1F DUP6 ADD PUSH1 0x5 SHR DUP2 ADD PUSH1 0x20 DUP7 LT ISZERO PUSH2 0x2DE3 JUMPI POP DUP1 JUMPDEST PUSH1 0x1F DUP6 ADD PUSH1 0x5 SHR DUP3 ADD SWAP2 POP JUMPDEST DUP2 DUP2 LT ISZERO PUSH2 0x2E02 JUMPI DUP3 DUP2 SSTORE PUSH1 0x1 ADD PUSH2 0x2DEF JUMP JUMPDEST POP POP POP JUMPDEST POP POP POP JUMP JUMPDEST DUP2 MLOAD PUSH8 0xFFFFFFFFFFFFFFFF DUP2 GT ISZERO PUSH2 0x2E25 JUMPI PUSH2 0x2E25 PUSH2 0x26B0 JUMP JUMPDEST PUSH2 0x2E39 DUP2 PUSH2 0x2E33 DUP5 SLOAD PUSH2 0x2D53 JUMP JUMPDEST DUP5 PUSH2 0x2DBC JUMP JUMPDEST PUSH1 0x20 DUP1 PUSH1 0x1F DUP4 GT PUSH1 0x1 DUP2 EQ PUSH2 0x2E6E JUMPI PUSH1 0x0 DUP5 ISZERO PUSH2 0x2E56 JUMPI POP DUP6 DUP4 ADD MLOAD JUMPDEST PUSH1 0x0 NOT PUSH1 0x3 DUP7 SWAP1 SHL SHR NOT AND PUSH1 0x1 DUP6 SWAP1 SHL OR DUP6 SSTORE PUSH2 0x2E02 JUMP JUMPDEST PUSH1 0x0 DUP6 DUP2 MSTORE PUSH1 0x20 DUP2 KECCAK256 PUSH1 0x1F NOT DUP7 AND SWAP2 JUMPDEST DUP3 DUP2 LT ISZERO PUSH2 0x2E9D JUMPI DUP9 DUP7 ADD MLOAD DUP3 SSTORE SWAP5 DUP5 ADD SWAP5 PUSH1 0x1 SWAP1 SWAP2 ADD SWAP1 DUP5 ADD PUSH2 0x2E7E JUMP JUMPDEST POP DUP6 DUP3 LT ISZERO PUSH2 0x2EBB JUMPI DUP8 DUP6 ADD MLOAD PUSH1 0x0 NOT PUSH1 0x3 DUP9 SWAP1 SHL PUSH1 0xF8 AND SHR NOT AND DUP2 SSTORE JUMPDEST POP POP POP POP POP PUSH1 0x1 SWAP1 DUP2 SHL ADD SWAP1 SSTORE POP JUMP JUMPDEST PUSH1 0x20 DUP2 ADD PUSH2 0x2ED9 DUP3 DUP5 PUSH2 0x2599 JUMP JUMPDEST SWAP3 SWAP2 POP POP JUMP JUMPDEST PUSH4 0x4E487B71 PUSH1 0xE0 SHL PUSH1 0x0 MSTORE PUSH1 0x32 PUSH1 0x4 MSTORE PUSH1 0x24 PUSH1 0x0 REVERT JUMPDEST DUP1 DUP3 ADD DUP1 DUP3 GT ISZERO PUSH2 0x2ED9 JUMPI PUSH2 0x2ED9 PUSH2 0x2D8D JUMP JUMPDEST PUSH12 0xFFFFFFFFFFFFFFFFFFFFFFFF NOT DUP6 PUSH1 0x60 SHL AND DUP2 MSTORE DUP4 PUSH1 0x14 DUP3 ADD MSTORE PUSH1 0x0 DUP4 MLOAD PUSH2 0x2F38 DUP2 PUSH1 0x34 DUP6 ADD PUSH1 0x20 DUP9 ADD PUSH2 0x25BB JUMP JUMPDEST PUSH1 0x34 SWAP3 ADD SWAP2 DUP3 ADD SWAP3 SWAP1 SWAP3 MSTORE PUSH1 0x54 ADD SWAP5 SWAP4 POP POP POP POP JUMP JUMPDEST DUP1 DUP3 MUL DUP2 ISZERO DUP3 DUP3 DIV DUP5 EQ OR PUSH2 0x2ED9 JUMPI PUSH2 0x2ED9 PUSH2 0x2D8D JUMP JUMPDEST PUSH1 0x0 DUP3 PUSH2 0x2F82 JUMPI PUSH4 0x4E487B71 PUSH1 0xE0 SHL PUSH1 0x0 MSTORE PUSH1 0x12 PUSH1 0x4 MSTORE PUSH1 0x24 PUSH1 0x0 REVERT JUMPDEST POP DIV SWAP1 JUMP JUMPDEST DUP2 DUP2 SUB DUP2 DUP2 GT ISZERO PUSH2 0x2ED9 JUMPI PUSH2 0x2ED9 PUSH2 0x2D8D JUMP JUMPDEST PUSH4 0x4E487B71 PUSH1 0xE0 SHL PUSH1 0x0 MSTORE PUSH1 0x31 PUSH1 0x4 MSTORE PUSH1 0x24 PUSH1 0x0 REVERT JUMPDEST PUSH1 0x0 DUP2 PUSH2 0x2FBF JUMPI PUSH2 0x2FBF PUSH2 0x2D8D JUMP JUMPDEST POP PUSH1 0x0 NOT ADD SWAP1 JUMP INVALID LOG2 PUSH5 0x6970667358 0x22 SLT KECCAK256 EXTCODECOPY PUSH28 0x83A9DA1C37AA089AD2EFE22D80757C355A680019AC905ED7EFA419FD 0xF6 0x5C PUSH5 0x736F6C6343 STOP ADDMOD SGT STOP CALLER "},"methodIdentifiers":{"aiDecisionLogs(bytes32)":"925ea1dd","confirmHCSMessage(uint256,string)":"79616b4f","consensusMessages(uint256)":"0079aad6","gameEventLogs(bytes32)":"9c7d13eb","getAIDecisionLog(bytes32)":"8908f329","getConsensusMessage(uint256)":"64f51f30","getGameEventLog(bytes32)":"18f538ee","getLeaderboardStats()":"a078f8b7","getMessageCountByType(uint8)":"dea12207","getPlayerMessageHistory(address)":"1bdbda4d","getPlayerRanking(address)":"21f3e265","getTopPlayers(uint256)":"ba3c0067","getTotalMessageCount()":"b021352a","leaderboard(address)":"d1d33d20","messageCount()":"3dbcc8d1","messageTypeCount(uint8)":"08a0aa06","owner()":"8da5cb5b","playerMessageHistory(address,uint256)":"be94c770","playerRankings(address)":"33022a81","renounceOwnership()":"715018a6","setStarQuestCore(address)":"177ab321","starQuestCore()":"89ee3e97","submitAIDecision(bytes32,address,string,bool,uint256,string,string)":"03e64bd3","submitAchievementUnlock(address,uint256,string,string)":"dcc3be01","submitGameEvent(address,bytes32,uint256,bool,uint256,string,string)":"4c33b5f3","topPlayers(uint256)":"af137ca8","topicId()":"0139b5f1","transferOwnership(address)":"f2fde38b","updateTopicId(string)":"f89e5694"}}}}}