{"contracts/Core.sol":{"StarQuest":{"abi":[{"inputs":[{"internalType":"address","name":"_storageWallet","type":"address"}],"stateMutability":"nonpayable","type":"constructor"},{"anonymous":false,"inputs":[{"indexed":true,"internalType":"address","name":"aiAgent","type":"address"},{"indexed":false,"internalType":"bool","name":"authorized","type":"bool"}],"name":"AIAgentAuthorized","type":"event"},{"anonymous":false,"inputs":[{"indexed":true,"internalType":"uint256","name":"challengeId","type":"uint256"},{"indexed":true,"internalType":"address","name":"player","type":"address"},{"indexed":false,"internalType":"bool","name":"success","type":"bool"},{"indexed":false,"internalType":"uint256","name":"payout","type":"uint256"}],"name":"ChallengeCompleted","type":"event"},{"anonymous":false,"inputs":[{"indexed":true,"internalType":"uint256","name":"challengeId","type":"uint256"},{"indexed":true,"internalType":"address","name":"player","type":"address"},{"indexed":false,"internalType":"uint256","name":"starId","type":"uint256"},{"indexed":false,"internalType":"string","name":"challengeHash","type":"string"}],"name":"ChallengeCreated","type":"event"},{"anonymous":false,"inputs":[{"indexed":true,"internalType":"address","name":"player","type":"address"},{"indexed":false,"internalType":"uint256","name":"amount","type":"uint256"}],"name":"EmergencyWithdrawal","type":"event"},{"anonymous":false,"inputs":[{"indexed":true,"internalType":"address","name":"previousOwner","type":"address"},{"indexed":true,"internalType":"address","name":"newOwner","type":"address"}],"name":"OwnershipTransferred","type":"event"},{"anonymous":false,"inputs":[{"indexed":false,"internalType":"address","name":"account","type":"address"}],"name":"Paused","type":"event"},{"anonymous":false,"inputs":[{"indexed":true,"internalType":"address","name":"player","type":"address"},{"indexed":false,"internalType":"uint256","name":"amount","type":"uint256"},{"indexed":false,"internalType":"uint256","name":"challengeId","type":"uint256"}],"name":"Staked","type":"event"},{"anonymous":false,"inputs":[{"indexed":true,"internalType":"uint256","name":"starId","type":"uint256"},{"indexed":false,"internalType":"int256","name":"latitude","type":"int256"},{"indexed":false,"internalType":"int256","name":"longitude","type":"int256"},{"indexed":false,"internalType":"enum StarQuest.StarType","name":"starType","type":"uint8"}],"name":"StarAdded","type":"event"},{"anonymous":false,"inputs":[{"indexed":true,"internalType":"uint256","name":"starId","type":"uint256"},{"indexed":false,"internalType":"bool","name":"active","type":"bool"}],"name":"StarUpdated","type":"event"},{"anonymous":false,"inputs":[{"indexed":false,"internalType":"address","name":"account","type":"address"}],"name":"Unpaused","type":"event"},{"inputs":[{"internalType":"uint256","name":"starId","type":"uint256"},{"internalType":"int256","name":"latitude","type":"int256"},{"internalType":"int256","name":"longitude","type":"int256"},{"internalType":"uint256","name":"radius","type":"uint256"},{"internalType":"enum StarQuest.StarType","name":"starType","type":"uint8"}],"name":"addStar","outputs":[],"stateMutability":"nonpayable","type":"function"},{"inputs":[{"internalType":"address","name":"aiAgent","type":"address"},{"internalType":"bool","name":"authorized","type":"bool"}],"name":"authorizeAI","outputs":[],"stateMutability":"nonpayable","type":"function"},{"inputs":[{"internalType":"address","name":"","type":"address"}],"name":"authorizedAI","outputs":[{"internalType":"bool","name":"","type":"bool"}],"stateMutability":"view","type":"function"},{"inputs":[{"internalType":"uint256","name":"","type":"uint256"}],"name":"challenges","outputs":[{"internalType":"uint256","name":"id","type":"uint256"},{"internalType":"address","name":"player","type":"address"},{"internalType":"uint256","name":"stakeAmount","type":"uint256"},{"internalType":"string","name":"challengeHash","type":"string"},{"internalType":"string","name":"proofHash","type":"string"},{"internalType":"enum StarQuest.ChallengeStatus","name":"status","type":"uint8"},{"internalType":"uint256","name":"createdAt","type":"uint256"},{"internalType":"uint256","name":"completedAt","type":"uint256"},{"internalType":"bool","name":"aiVerified","type":"bool"},{"internalType":"uint256","name":"starId","type":"uint256"},{"internalType":"enum StarQuest.StarType","name":"starType","type":"uint8"}],"stateMutability":"view","type":"function"},{"inputs":[{"internalType":"uint256","name":"challengeId","type":"uint256"},{"internalType":"string","name":"proofHash","type":"string"},{"internalType":"bool","name":"success","type":"bool"}],"name":"completeChallenge","outputs":[],"stateMutability":"nonpayable","type":"function"},{"inputs":[{"internalType":"uint256","name":"starId","type":"uint256"}],"name":"createStake","outputs":[],"stateMutability":"payable","type":"function"},{"inputs":[],"name":"emergencyWithdraw","outputs":[],"stateMutability":"nonpayable","type":"function"},{"inputs":[{"internalType":"uint256","name":"challengeId","type":"uint256"}],"name":"getChallengeDetails","outputs":[{"components":[{"internalType":"uint256","name":"id","type":"uint256"},{"internalType":"address","name":"player","type":"address"},{"internalType":"uint256","name":"stakeAmount","type":"uint256"},{"internalType":"string","name":"challengeHash","type":"string"},{"internalType":"string","name":"proofHash","type":"string"},{"internalType":"enum StarQuest.ChallengeStatus","name":"status","type":"uint8"},{"internalType":"uint256","name":"createdAt","type":"uint256"},{"internalType":"uint256","name":"completedAt","type":"uint256"},{"internalType":"bool","name":"aiVerified","type":"bool"},{"internalType":"uint256","name":"starId","type":"uint256"},{"internalType":"enum StarQuest.StarType","name":"starType","type":"uint8"}],"internalType":"struct StarQuest.Challenge","name":"","type":"tuple"}],"stateMutability":"view","type":"function"},{"inputs":[{"internalType":"address","name":"player","type":"address"}],"name":"getPlayerChallengeHistory","outputs":[{"internalType":"uint256[]","name":"","type":"uint256[]"}],"stateMutability":"view","type":"function"},{"inputs":[{"internalType":"uint256","name":"starId","type":"uint256"}],"name":"getStarDetails","outputs":[{"components":[{"internalType":"uint256","name":"id","type":"uint256"},{"internalType":"int256","name":"latitude","type":"int256"},{"internalType":"int256","name":"longitude","type":"int256"},{"internalType":"uint256","name":"radius","type":"uint256"},{"internalType":"enum StarQuest.StarType","name":"starType","type":"uint8"},{"internalType":"bool","name":"active","type":"bool"},{"internalType":"uint256","name":"challengesCompleted","type":"uint256"},{"internalType":"uint256","name":"totalStaked","type":"uint256"}],"internalType":"struct StarQuest.Star","name":"","type":"tuple"}],"stateMutability":"view","type":"function"},{"inputs":[{"internalType":"enum StarQuest.StarType","name":"starType","type":"uint8"}],"name":"getStarMultiplier","outputs":[{"internalType":"uint256","name":"","type":"uint256"}],"stateMutability":"pure","type":"function"},{"inputs":[],"name":"houseFeePercent","outputs":[{"internalType":"uint256","name":"","type":"uint256"}],"stateMutability":"view","type":"function"},{"inputs":[],"name":"maximumStake","outputs":[{"internalType":"uint256","name":"","type":"uint256"}],"stateMutability":"view","type":"function"},{"inputs":[],"name":"minimumStake","outputs":[{"internalType":"uint256","name":"","type":"uint256"}],"stateMutability":"view","type":"function"},{"inputs":[],"name":"oracleContract","outputs":[{"internalType":"address","name":"","type":"address"}],"stateMutability":"view","type":"function"},{"inputs":[],"name":"owner","outputs":[{"internalType":"address","name":"","type":"address"}],"stateMutability":"view","type":"function"},{"inputs":[],"name":"pause","outputs":[],"stateMutability":"nonpayable","type":"function"},{"inputs":[],"name":"paused","outputs":[{"internalType":"bool","name":"","type":"bool"}],"stateMutability":"view","type":"function"},{"inputs":[{"internalType":"address","name":"","type":"address"},{"internalType":"uint256","name":"","type":"uint256"}],"name":"playerChallengeHistory","outputs":[{"internalType":"uint256","name":"","type":"uint256"}],"stateMutability":"view","type":"function"},{"inputs":[{"internalType":"address","name":"","type":"address"}],"name":"playerStakes","outputs":[{"internalType":"uint256","name":"amount","type":"uint256"},{"internalType":"uint256","name":"timestamp","type":"uint256"},{"internalType":"bool","name":"active","type":"bool"},{"internalType":"uint256","name":"challengeId","type":"uint256"}],"stateMutability":"view","type":"function"},{"inputs":[{"internalType":"address","name":"","type":"address"}],"name":"playerStats","outputs":[{"internalType":"uint256","name":"totalStaked","type":"uint256"},{"internalType":"uint256","name":"totalWon","type":"uint256"},{"internalType":"uint256","name":"challengesCompleted","type":"uint256"},{"internalType":"uint256","name":"challengesFailed","type":"uint256"},{"internalType":"uint256","name":"currentStreak","type":"uint256"},{"internalType":"uint256","name":"longestStreak","type":"uint256"},{"internalType":"uint256","name":"lastPlayedTimestamp","type":"uint256"}],"stateMutability":"view","type":"function"},{"inputs":[],"name":"renounceOwnership","outputs":[],"stateMutability":"nonpayable","type":"function"},{"inputs":[{"internalType":"uint256","name":"_minimumStake","type":"uint256"},{"internalType":"uint256","name":"_maximumStake","type":"uint256"},{"internalType":"uint256","name":"_winMultiplier","type":"uint256"},{"internalType":"uint256","name":"_houseFeePercent","type":"uint256"},{"internalType":"address","name":"_storageWallet","type":"address"}],"name":"setGameParameters","outputs":[],"stateMutability":"nonpayable","type":"function"},{"inputs":[{"internalType":"uint256","name":"","type":"uint256"}],"name":"stars","outputs":[{"internalType":"uint256","name":"id","type":"uint256"},{"internalType":"int256","name":"latitude","type":"int256"},{"internalType":"int256","name":"longitude","type":"int256"},{"internalType":"uint256","name":"radius","type":"uint256"},{"internalType":"enum StarQuest.StarType","name":"starType","type":"uint8"},{"internalType":"bool","name":"active","type":"bool"},{"internalType":"uint256","name":"challengesCompleted","type":"uint256"},{"internalType":"uint256","name":"totalStaked","type":"uint256"}],"stateMutability":"view","type":"function"},{"inputs":[],"name":"storageWallet","outputs":[{"internalType":"address","name":"","type":"address"}],"stateMutability":"view","type":"function"},{"inputs":[{"internalType":"uint256","name":"challengeId","type":"uint256"},{"internalType":"string","name":"challengeHash","type":"string"}],"name":"submitChallenge","outputs":[],"stateMutability":"nonpayable","type":"function"},{"inputs":[{"internalType":"address","name":"newOwner","type":"address"}],"name":"transferOwnership","outputs":[],"stateMutability":"nonpayable","type":"function"},{"inputs":[],"name":"unpause","outputs":[],"stateMutability":"nonpayable","type":"function"},{"inputs":[{"internalType":"uint256","name":"starId","type":"uint256"},{"internalType":"bool","name":"active","type":"bool"}],"name":"updateStar","outputs":[],"stateMutability":"nonpayable","type":"function"},{"inputs":[],"name":"winMultiplier","outputs":[{"internalType":"uint256","name":"","type":"uint256"}],"stateMutability":"view","type":"function"},{"inputs":[],"name":"withdrawBalance","outputs":[],"stateMutability":"nonpayable","type":"function"},{"stateMutability":"payable","type":"receive"}],"evm":{"bytecode":{"linkReferences":{},"object":"6080604052662386f26fc10000600455678ac7230489e8000060055560c860065560056007553480156200003257600080fd5b5060405162002754380380620027548339810160408190526200005591620000e5565b620000603362000095565b60018055600280546001600160a81b0319166101006001600160a01b038416021790556200008e3362000095565b5062000117565b600080546001600160a01b038381166001600160a01b0319831681178455604051919092169283917f8be0079c531659141344cd1fd0a4f28419497f9722a3daafe3b4186f6b6457e09190a35050565b600060208284031215620000f857600080fd5b81516001600160a01b03811681146200011057600080fd5b9392505050565b61262d80620001276000396000f3fe6080604052600436106101dc5760003560e01c80638da5cb5b11610102578063bbed7fdb11610095578063d1ba26f911610064578063d1ba26f91461068a578063db2e21bc146106aa578063ec5ffac2146106bf578063f2fde38b146106d557600080fd5b8063bbed7fdb146105a7578063bece7532146105c7578063cdafbbb6146105e7578063cf24141a1461067457600080fd5b8063a66d6dc0116100d1578063a66d6dc0146104e3578063b498692214610503578063b5c6b45314610523578063b7d446441461053957600080fd5b80638da5cb5b146104315780638f1d37761461044f578063929a1923146104865780639e32aaa3146104b357600080fd5b80634b0ea4a61161017a578063685c634211610149578063685c63421461036f5780636a60bd00146103e7578063715018a6146104075780638456cb591461041c57600080fd5b80634b0ea4a6146102d95780635c975abb146102f95780635fd8c7101461031d578063619f3f611461033257600080fd5b8063358b3855116101b6578063358b3855146102535780633d40a54f146102815780633e27fee2146102ae5780633f4ba83a146102c457600080fd5b80630355c892146101e85780631bf6ddae1461020a5780633081eafe1461021d57600080fd5b366101e357005b600080fd5b3480156101f457600080fd5b50610208610203366004611e29565b6106f5565b005b610208610218366004611e55565b6107bb565b34801561022957600080fd5b5061023d610238366004611e55565b610b6f565b60405161024a9190611eaf565b60405180910390f35b34801561025f57600080fd5b5061027361026e366004611f2c565b610c25565b60405190815260200161024a565b34801561028d57600080fd5b506102a161029c366004611e55565b610c56565b60405161024a9190611f9c565b3480156102ba57600080fd5b5061027360075481565b3480156102d057600080fd5b50610208610e61565b3480156102e557600080fd5b506102736102f4366004612082565b610e73565b34801561030557600080fd5b5060025460ff165b604051901515815260200161024a565b34801561032957600080fd5b50610208610f02565b34801561033e57600080fd5b506002546103579061010090046001600160a01b031681565b6040516001600160a01b03909116815260200161024a565b34801561037b57600080fd5b506103d361038a366004611e55565b600c602052600090815260409020805460018201546002830154600384015460048501546005860154600690960154949593949293919260ff8083169361010090930416919088565b60405161024a9897969594939291906120a4565b3480156103f357600080fd5b50610208610402366004612194565b610f44565b34801561041357600080fd5b50610208611394565b34801561042857600080fd5b506102086113a6565b34801561043d57600080fd5b506000546001600160a01b0316610357565b34801561045b57600080fd5b5061046f61046a366004611e55565b6113b6565b60405161024a9b9a999897969594939291906121eb565b34801561049257600080fd5b506104a66104a136600461227f565b61152f565b60405161024a919061229a565b3480156104bf57600080fd5b5061030d6104ce36600461227f565b600e6020526000908152604090205460ff1681565b3480156104ef57600080fd5b506102086104fe3660046122de565b61159b565b34801561050f57600080fd5b5061020861051e366004612327565b6115dd565b34801561052f57600080fd5b5061027360055481565b34801561054557600080fd5b5061058161055436600461227f565b600a6020526000908152604090208054600182015460028301546003909301549192909160ff9091169084565b60408051948552602085019390935290151591830191909152606082015260800161024a565b3480156105b357600080fd5b506102086105c2366004612351565b61163d565b3480156105d357600080fd5b50600354610357906001600160a01b031681565b3480156105f357600080fd5b5061063f61060236600461227f565b600d602052600090815260409020805460018201546002830154600384015460048501546005860154600690960154949593949293919290919087565b604080519788526020880196909652948601939093526060850191909152608084015260a083015260c082015260e00161024a565b34801561068057600080fd5b5061027360065481565b34801561069657600080fd5b506102086106a5366004612398565b61178f565b3480156106b657600080fd5b5061020861191d565b3480156106cb57600080fd5b5061027360045481565b3480156106e157600080fd5b506102086106f036600461227f565b611a9f565b6106fd611b15565b6000828152600c602052604081205490036107555760405162461bcd60e51b815260206004820152601360248201527214dd185c88191bd95cc81b9bdd08195e1a5cdd606a1b60448201526064015b60405180910390fd5b6000828152600c60205260409081902060040180548315156101000261ff00199091161790555182907fce5d422e23968aa174a8455b0889f3d82d14cfd63c91191ef04bfaa6a030dcb0906107af90841515815260200190565b60405180910390a25050565b6107c3611b6f565b6107cb611bc8565b3460045481101580156107e057506005548111155b6108235760405162461bcd60e51b8152602060048201526014602482015273125b9d985b1a59081cdd185ad948185b5bdd5b9d60621b604482015260640161074c565b6000828152600c6020526040902060040154610100900460ff1661087b5760405162461bcd60e51b815260206004820152600f60248201526e53746172206e6f742061637469766560881b604482015260640161074c565b336000908152600a602052604090206002015460ff16156108de5760405162461bcd60e51b815260206004820152601960248201527f416c7265616479206861766520616374697665207374616b6500000000000000604482015260640161074c565b60006108e960085490565b90506108f9600880546001019055565b604080516080808201835234808352426020808501828152600186880181815260608089018b8152336000818152600a88528c81209b518c559551948b0194909455915160028a01805460ff19169115159190911790559051600398890155885161016081018a528a815280850192909252818901959095528751808401895282815294810194909452865180830188528181529484019490945260a0830184905260c083019190915260e0820183905261010082018390526101208201889052878352600c90529290206004015461014083019160ff909116908111156109e3576109e3611e6e565b90526000828152600b602090815260409182902083518155908301516001820180546001600160a01b0319166001600160a01b0390921691909117905590820151600282015560608201516003820190610a3d908261245d565b5060808201516004820190610a52908261245d565b5060a082015160058201805460ff19166001836003811115610a7657610a76611e6e565b021790555060c0820151600682015560e0820151600782015561010082015160088201805491151560ff199283161790556101208301516009830155610140830151600a8301805491929091166001836003811115610ad757610ad7611e6e565b021790555050506000838152600c602052604081206006018054349290610aff908490612533565b9091555050336000818152600f6020908152604080832080546001810182559084529282902090920184905581513481529081018490527f1449c6dd7851abc30abf37f57715f492010519147cc2652fbc38202c18a6ee90910160405180910390a25050610b6c60018055565b50565b610b77611d36565b600c600083815260200190815260200160002060405180610100016040529081600082015481526020016001820154815260200160028201548152602001600382015481526020016004820160009054906101000a900460ff166003811115610be257610be2611e6e565b6003811115610bf357610bf3611e6e565b81526004820154610100900460ff16151560208201526005820154604082015260069091015460609091015292915050565b600f6020528160005260406000208181548110610c4157600080fd5b90600052602060002001600091509150505481565b610c5e611d8e565b6000828152600b60209081526040918290208251610160810184528154815260018201546001600160a01b031692810192909252600281015492820192909252600382018054919291606084019190610cb6906123d5565b80601f0160208091040260200160405190810160405280929190818152602001828054610ce2906123d5565b8015610d2f5780601f10610d0457610100808354040283529160200191610d2f565b820191906000526020600020905b815481529060010190602001808311610d1257829003601f168201915b50505050508152602001600482018054610d48906123d5565b80601f0160208091040260200160405190810160405280929190818152602001828054610d74906123d5565b8015610dc15780601f10610d9657610100808354040283529160200191610dc1565b820191906000526020600020905b815481529060010190602001808311610da457829003601f168201915b5050509183525050600582015460209091019060ff166003811115610de857610de8611e6e565b6003811115610df957610df9611e6e565b81526006820154602082015260078201546040820152600882015460ff9081161515606083015260098301546080830152600a83015460a090920191166003811115610e4757610e47611e6e565b6003811115610e5857610e58611e6e565b90525092915050565b610e69611b15565b610e71611c0e565b565b600080826003811115610e8857610e88611e6e565b03610e9557506096919050565b6001826003811115610ea957610ea9611e6e565b03610eb6575060c8919050565b6002826003811115610eca57610eca611e6e565b03610ed8575061012c919050565b6003826003811115610eec57610eec611e6e565b03610efa57506101f4919050565b506096919050565b610f0a611b15565b600080546040516001600160a01b03909116914780156108fc02929091818181858888f19350505050158015610b6c573d6000803e3d6000fd5b336000908152600e602052604090205460ff1680610f6c57506000546001600160a01b031633145b610fac5760405162461bcd60e51b81526020600482015260116024820152704e6f7420617574686f72697a656420414960781b604482015260640161074c565b610fb4611b6f565b6000838152600b6020526040812090600582015460ff166003811115610fdc57610fdc611e6e565b146110205760405162461bcd60e51b81526020600482015260146024820152734368616c6c656e6765206e6f742061637469766560601b604482015260640161074c565b60018101546001600160a01b03166000818152600a60205260409020600281015460ff1680156110535750858160030154145b61108f5760405162461bcd60e51b815260206004820152600d60248201526c496e76616c6964207374616b6560981b604482015260640161074c565b6004830161109d868261245d565b5042600784015560088301805460ff19166001179055836110bf5760026110c2565b60015b60058401805460ff191660018360038111156110e0576110e0611e6e565b021790555060028101805460ff191690556000841561125857600a84015460009061110d9060ff16610e73565b90506064818460000154611121919061254c565b61112b9190612563565b9150600060646007548461113f919061254c565b6111499190612563565b90506111558184612585565b6040519093506001600160a01b0386169084156108fc029085906000818181858888f1935050505015801561118e573d6000803e3d6000fd5b5080156111d5576002546040516101009091046001600160a01b0316906108fc8315029083906000818181858888f193505050501580156111d3573d6000803e3d6000fd5b505b6001600160a01b0385166000908152600d6020526040812060018101805491928692611202908490612533565b909155505060028101805490600061121983612598565b909155505060048101805490600061123083612598565b919050555080600501548160040154111561125057600481015460058201555b5050506112cf565b60025482546040516101009092046001600160a01b0316916108fc82150291906000818181858888f19350505050158015611297573d6000803e3d6000fd5b506001600160a01b0383166000908152600d6020526040812060038101805491926112c183612598565b909155505060006004909101555b60098401546000908152600c602052604081206005018054916112f183612598565b909155505081546001600160a01b0384166000908152600d602052604081208054909190611320908490612533565b90915550506001600160a01b0383166000818152600d6020908152604091829020426006909101558151881515815290810184905289917ff531285ca704745eddab0f3ffd7e758c9d25cc5307e3c886d15ed35f880c6ee1910160405180910390a35050505061138f60018055565b505050565b61139c611b15565b610e716000611c60565b6113ae611b15565b610e71611cb0565b600b60205260009081526040902080546001820154600283015460038401805493946001600160a01b03909316939192916113f0906123d5565b80601f016020809104026020016040519081016040528092919081815260200182805461141c906123d5565b80156114695780601f1061143e57610100808354040283529160200191611469565b820191906000526020600020905b81548152906001019060200180831161144c57829003601f168201915b50505050509080600401805461147e906123d5565b80601f01602080910402602001604051908101604052809291908181526020018280546114aa906123d5565b80156114f75780601f106114cc576101008083540402835291602001916114f7565b820191906000526020600020905b8154815290600101906020018083116114da57829003601f168201915b5050505060058301546006840154600785015460088601546009870154600a90970154959660ff94851696939550919390811692168b565b6001600160a01b0381166000908152600f602090815260409182902080548351818402810184019094528084526060939283018282801561158f57602002820191906000526020600020905b81548152602001906001019080831161157b575b50505050509050919050565b6115a3611b15565b600494909455600592909255600655600755600280546001600160a01b0390921661010002610100600160a81b0319909216919091179055565b6115e5611b15565b6001600160a01b0382166000818152600e6020908152604091829020805460ff191685151590811790915591519182527f1964273d193fb2f4735c932d08bbdb5cbaaf807bb74a86b6f4be09af78d42c9291016107af565b336000908152600e602052604090205460ff168061166557506000546001600160a01b031633145b6116a55760405162461bcd60e51b81526020600482015260116024820152704e6f7420617574686f72697a656420414960781b604482015260640161074c565b6000828152600b602052604081206005015460ff1660038111156116cb576116cb611e6e565b1461170f5760405162461bcd60e51b81526020600482015260146024820152734368616c6c656e6765206e6f742061637469766560601b604482015260640161074c565b6000828152600b6020526040902060030161172a828261245d565b506000828152600b602052604090819020600181015460099091015491516001600160a01b039091169184917f2045572326018ac04cf292b4443d536bd6c25c4d945e0b5e707382e73829f779916117839186906125b1565b60405180910390a35050565b611797611b15565b6000858152600c6020526040902054156117e95760405162461bcd60e51b81526020600482015260136024820152725374617220616c72656164792065786973747360681b604482015260640161074c565b60405180610100016040528086815260200185815260200184815260200183815260200182600381111561181f5761181f611e6e565b8152602001600115158152602001600081526020016000815250600c60008781526020019081526020016000206000820151816000015560208201518160010155604082015181600201556060820151816003015560808201518160040160006101000a81548160ff0219169083600381111561189e5761189e611e6e565b021790555060a08201516004820180549115156101000261ff001990921691909117905560c0820151600582015560e09091015160069091015560405185907f129587d9e08ad0ce02eaf47578bf568fda838194ab25452b17963223b17435dd9061190e908790879086906125d2565b60405180910390a25050505050565b611925611b6f565b336000908152600a60205260409020600281015460ff1661197a5760405162461bcd60e51b815260206004820152600f60248201526e4e6f20616374697665207374616b6560881b604482015260640161074c565b600181015461198c9062015180612533565b42116119cf5760405162461bcd60e51b81526020600482015260126024820152714d757374207761697420323420686f75727360701b604482015260640161074c565b805460028201805460ff1916905560006003808401546000908152600b602052604090206005015460ff1690811115611a0a57611a0a611e6e565b03611a315760038201546000908152600b60205260409020600501805460ff191660021790555b604051339082156108fc029083906000818181858888f19350505050158015611a5e573d6000803e3d6000fd5b5060405181815233907f23d6711a1d031134a36921253c75aa59e967d38e369ac625992824315e204f209060200160405180910390a25050610e7160018055565b611aa7611b15565b6001600160a01b038116611b0c5760405162461bcd60e51b815260206004820152602660248201527f4f776e61626c653a206e6577206f776e657220697320746865207a65726f206160448201526564647265737360d01b606482015260840161074c565b610b6c81611c60565b6000546001600160a01b03163314610e715760405162461bcd60e51b815260206004820181905260248201527f4f776e61626c653a2063616c6c6572206973206e6f7420746865206f776e6572604482015260640161074c565b600260015403611bc15760405162461bcd60e51b815260206004820152601f60248201527f5265656e7472616e637947756172643a207265656e7472616e742063616c6c00604482015260640161074c565b6002600155565b60025460ff1615610e715760405162461bcd60e51b815260206004820152601060248201526f14185d5cd8589b194e881c185d5cd95960821b604482015260640161074c565b611c16611ced565b6002805460ff191690557f5db9ee0a495bf2e6ff9c91a7834c1ba4fdd244a5e8aa4e537bd38aeae4b073aa335b6040516001600160a01b03909116815260200160405180910390a1565b600080546001600160a01b038381166001600160a01b0319831681178455604051919092169283917f8be0079c531659141344cd1fd0a4f28419497f9722a3daafe3b4186f6b6457e09190a35050565b611cb8611bc8565b6002805460ff191660011790557f62e78cea01bee320cd4e420270b5ea74000d11b0c9f74754ebdbfc544b05a258611c433390565b60025460ff16610e715760405162461bcd60e51b815260206004820152601460248201527314185d5cd8589b194e881b9bdd081c185d5cd95960621b604482015260640161074c565b6040518061010001604052806000815260200160008152602001600081526020016000815260200160006003811115611d7157611d71611e6e565b815260200160001515815260200160008152602001600081525090565b6040518061016001604052806000815260200160006001600160a01b0316815260200160008152602001606081526020016060815260200160006003811115611dd957611dd9611e6e565b815260200160008152602001600081526020016000151581526020016000815260200160006003811115611e0f57611e0f611e6e565b905290565b80358015158114611e2457600080fd5b919050565b60008060408385031215611e3c57600080fd5b82359150611e4c60208401611e14565b90509250929050565b600060208284031215611e6757600080fd5b5035919050565b634e487b7160e01b600052602160045260246000fd5b60048110610b6c57634e487b7160e01b600052602160045260246000fd5b611eab81611e84565b9052565b600061010082019050825182526020830151602083015260408301516040830152606083015160608301526080830151611ee881611e84565b8060808401525060a0830151151560a083015260c083015160c083015260e083015160e083015292915050565b80356001600160a01b0381168114611e2457600080fd5b60008060408385031215611f3f57600080fd5b611f4883611f15565b946020939093013593505050565b6000815180845260005b81811015611f7c57602081850181015186830182015201611f60565b506000602082860101526020601f19601f83011685010191505092915050565b602081528151602082015260006020830151611fc360408401826001600160a01b03169052565b50604083015160608301526060830151610160806080850152611fea610180850183611f56565b91506080850151601f198584030160a08601526120078382611f56565b92505060a085015161201c60c0860182611ea2565b5060c085015160e085015260e085015161010081818701528087015191505061012061204b8187018315159052565b86015161014086810191909152860151905061206982860182611ea2565b5090949350505050565b803560048110611e2457600080fd5b60006020828403121561209457600080fd5b61209d82612073565b9392505050565b6000610100820190508982528860208301528760408301528660608301526120cb86611e84565b608082019590955292151560a084015260c083019190915260e090910152949350505050565b634e487b7160e01b600052604160045260246000fd5b600082601f83011261211857600080fd5b813567ffffffffffffffff80821115612133576121336120f1565b604051601f8301601f19908116603f0116810190828211818310171561215b5761215b6120f1565b8160405283815286602085880101111561217457600080fd5b836020870160208301376000602085830101528094505050505092915050565b6000806000606084860312156121a957600080fd5b83359250602084013567ffffffffffffffff8111156121c757600080fd5b6121d386828701612107565b9250506121e260408501611e14565b90509250925092565b8b81526001600160a01b038b166020820152604081018a90526101606060820181905260009061221d8382018c611f56565b90508281036080840152612231818b611f56565b91505061223d88611e84565b8760a08301528660c08301528560e08301528415156101008301528361012083015261226883611e84565b826101408301529c9b505050505050505050505050565b60006020828403121561229157600080fd5b61209d82611f15565b6020808252825182820181905260009190848201906040850190845b818110156122d2578351835292840192918401916001016122b6565b50909695505050505050565b600080600080600060a086880312156122f657600080fd5b8535945060208601359350604086013592506060860135915061231b60808701611f15565b90509295509295909350565b6000806040838503121561233a57600080fd5b61234383611f15565b9150611e4c60208401611e14565b6000806040838503121561236457600080fd5b82359150602083013567ffffffffffffffff81111561238257600080fd5b61238e85828601612107565b9150509250929050565b600080600080600060a086880312156123b057600080fd5b8535945060208601359350604086013592506060860135915061231b60808701612073565b600181811c908216806123e957607f821691505b60208210810361240957634e487b7160e01b600052602260045260246000fd5b50919050565b601f82111561138f57600081815260208120601f850160051c810160208610156124365750805b601f850160051c820191505b8181101561245557828155600101612442565b505050505050565b815167ffffffffffffffff811115612477576124776120f1565b61248b8161248584546123d5565b8461240f565b602080601f8311600181146124c057600084156124a85750858301515b600019600386901b1c1916600185901b178555612455565b600085815260208120601f198616915b828110156124ef578886015182559484019460019091019084016124d0565b508582101561250d5787850151600019600388901b60f8161c191681555b5050505050600190811b01905550565b634e487b7160e01b600052601160045260246000fd5b808201808211156125465761254661251d565b92915050565b80820281158282048414176125465761254661251d565b60008261258057634e487b7160e01b600052601260045260246000fd5b500490565b818103818111156125465761254661251d565b6000600182016125aa576125aa61251d565b5060010190565b8281526040602082015260006125ca6040830184611f56565b949350505050565b83815260208101839052606081016125e983611e84565b82604083015294935050505056fea264697066735822122041f998eeacdeea2610c70d22f5f9414e79dada0de49f3a976f6bf35632f6f91164736f6c63430008130033","opcodes":"PUSH1 0x80 PUSH1 0x40 MSTORE PUSH7 0x2386F26FC10000 PUSH1 0x4 SSTORE PUSH8 0x8AC7230489E80000 PUSH1 0x5 SSTORE PUSH1 0xC8 PUSH1 0x6 SSTORE PUSH1 0x5 PUSH1 0x7 SSTORE CALLVALUE DUP1 ISZERO PUSH3 0x32 JUMPI PUSH1 0x0 DUP1 REVERT JUMPDEST POP PUSH1 0x40 MLOAD PUSH3 0x2754 CODESIZE SUB DUP1 PUSH3 0x2754 DUP4 CODECOPY DUP2 ADD PUSH1 0x40 DUP2 SWAP1 MSTORE PUSH3 0x55 SWAP2 PUSH3 0xE5 JUMP JUMPDEST PUSH3 0x60 CALLER PUSH3 0x95 JUMP JUMPDEST PUSH1 0x1 DUP1 SSTORE PUSH1 0x2 DUP1 SLOAD PUSH1 0x1 PUSH1 0x1 PUSH1 0xA8 SHL SUB NOT AND PUSH2 0x100 PUSH1 0x1 PUSH1 0x1 PUSH1 0xA0 SHL SUB DUP5 AND MUL OR SWAP1 SSTORE PUSH3 0x8E CALLER PUSH3 0x95 JUMP JUMPDEST POP PUSH3 0x117 JUMP JUMPDEST PUSH1 0x0 DUP1 SLOAD PUSH1 0x1 PUSH1 0x1 PUSH1 0xA0 SHL SUB DUP4 DUP2 AND PUSH1 0x1 PUSH1 0x1 PUSH1 0xA0 SHL SUB NOT DUP4 AND DUP2 OR DUP5 SSTORE PUSH1 0x40 MLOAD SWAP2 SWAP1 SWAP3 AND SWAP3 DUP4 SWAP2 PUSH32 0x8BE0079C531659141344CD1FD0A4F28419497F9722A3DAAFE3B4186F6B6457E0 SWAP2 SWAP1 LOG3 POP POP JUMP JUMPDEST PUSH1 0x0 PUSH1 0x20 DUP3 DUP5 SUB SLT ISZERO PUSH3 0xF8 JUMPI PUSH1 0x0 DUP1 REVERT JUMPDEST DUP2 MLOAD PUSH1 0x1 PUSH1 0x1 PUSH1 0xA0 SHL SUB DUP2 AND DUP2 EQ PUSH3 0x110 JUMPI PUSH1 0x0 DUP1 REVERT JUMPDEST SWAP4 SWAP3 POP POP POP JUMP JUMPDEST PUSH2 0x262D DUP1 PUSH3 0x127 PUSH1 0x0 CODECOPY PUSH1 0x0 RETURN INVALID PUSH1 0x80 PUSH1 0x40 MSTORE PUSH1 0x4 CALLDATASIZE LT PUSH2 0x1DC JUMPI PUSH1 0x0 CALLDATALOAD PUSH1 0xE0 SHR DUP1 PUSH4 0x8DA5CB5B GT PUSH2 0x102 JUMPI DUP1 PUSH4 0xBBED7FDB GT PUSH2 0x95 JUMPI DUP1 PUSH4 0xD1BA26F9 GT PUSH2 0x64 JUMPI DUP1 PUSH4 0xD1BA26F9 EQ PUSH2 0x68A JUMPI DUP1 PUSH4 0xDB2E21BC EQ PUSH2 0x6AA JUMPI DUP1 PUSH4 0xEC5FFAC2 EQ PUSH2 0x6BF JUMPI DUP1 PUSH4 0xF2FDE38B EQ PUSH2 0x6D5 JUMPI PUSH1 0x0 DUP1 REVERT JUMPDEST DUP1 PUSH4 0xBBED7FDB EQ PUSH2 0x5A7 JUMPI DUP1 PUSH4 0xBECE7532 EQ PUSH2 0x5C7 JUMPI DUP1 PUSH4 0xCDAFBBB6 EQ PUSH2 0x5E7 JUMPI DUP1 PUSH4 0xCF24141A EQ PUSH2 0x674 JUMPI PUSH1 0x0 DUP1 REVERT JUMPDEST DUP1 PUSH4 0xA66D6DC0 GT PUSH2 0xD1 JUMPI DUP1 PUSH4 0xA66D6DC0 EQ PUSH2 0x4E3 JUMPI DUP1 PUSH4 0xB4986922 EQ PUSH2 0x503 JUMPI DUP1 PUSH4 0xB5C6B453 EQ PUSH2 0x523 JUMPI DUP1 PUSH4 0xB7D44644 EQ PUSH2 0x539 JUMPI PUSH1 0x0 DUP1 REVERT JUMPDEST DUP1 PUSH4 0x8DA5CB5B EQ PUSH2 0x431 JUMPI DUP1 PUSH4 0x8F1D3776 EQ PUSH2 0x44F JUMPI DUP1 PUSH4 0x929A1923 EQ PUSH2 0x486 JUMPI DUP1 PUSH4 0x9E32AAA3 EQ PUSH2 0x4B3 JUMPI PUSH1 0x0 DUP1 REVERT JUMPDEST DUP1 PUSH4 0x4B0EA4A6 GT PUSH2 0x17A JUMPI DUP1 PUSH4 0x685C6342 GT PUSH2 0x149 JUMPI DUP1 PUSH4 0x685C6342 EQ PUSH2 0x36F JUMPI DUP1 PUSH4 0x6A60BD00 EQ PUSH2 0x3E7 JUMPI DUP1 PUSH4 0x715018A6 EQ PUSH2 0x407 JUMPI DUP1 PUSH4 0x8456CB59 EQ PUSH2 0x41C JUMPI PUSH1 0x0 DUP1 REVERT JUMPDEST DUP1 PUSH4 0x4B0EA4A6 EQ PUSH2 0x2D9 JUMPI DUP1 PUSH4 0x5C975ABB EQ PUSH2 0x2F9 JUMPI DUP1 PUSH4 0x5FD8C710 EQ PUSH2 0x31D JUMPI DUP1 PUSH4 0x619F3F61 EQ PUSH2 0x332 JUMPI PUSH1 0x0 DUP1 REVERT JUMPDEST DUP1 PUSH4 0x358B3855 GT PUSH2 0x1B6 JUMPI DUP1 PUSH4 0x358B3855 EQ PUSH2 0x253 JUMPI DUP1 PUSH4 0x3D40A54F EQ PUSH2 0x281 JUMPI DUP1 PUSH4 0x3E27FEE2 EQ PUSH2 0x2AE JUMPI DUP1 PUSH4 0x3F4BA83A EQ PUSH2 0x2C4 JUMPI PUSH1 0x0 DUP1 REVERT JUMPDEST DUP1 PUSH4 0x355C892 EQ PUSH2 0x1E8 JUMPI DUP1 PUSH4 0x1BF6DDAE EQ PUSH2 0x20A JUMPI DUP1 PUSH4 0x3081EAFE EQ PUSH2 0x21D JUMPI PUSH1 0x0 DUP1 REVERT JUMPDEST CALLDATASIZE PUSH2 0x1E3 JUMPI STOP JUMPDEST PUSH1 0x0 DUP1 REVERT JUMPDEST CALLVALUE DUP1 ISZERO PUSH2 0x1F4 JUMPI PUSH1 0x0 DUP1 REVERT JUMPDEST POP PUSH2 0x208 PUSH2 0x203 CALLDATASIZE PUSH1 0x4 PUSH2 0x1E29 JUMP JUMPDEST PUSH2 0x6F5 JUMP JUMPDEST STOP JUMPDEST PUSH2 0x208 PUSH2 0x218 CALLDATASIZE PUSH1 0x4 PUSH2 0x1E55 JUMP JUMPDEST PUSH2 0x7BB JUMP JUMPDEST CALLVALUE DUP1 ISZERO PUSH2 0x229 JUMPI PUSH1 0x0 DUP1 REVERT JUMPDEST POP PUSH2 0x23D PUSH2 0x238 CALLDATASIZE PUSH1 0x4 PUSH2 0x1E55 JUMP JUMPDEST PUSH2 0xB6F JUMP JUMPDEST PUSH1 0x40 MLOAD PUSH2 0x24A SWAP2 SWAP1 PUSH2 0x1EAF JUMP JUMPDEST PUSH1 0x40 MLOAD DUP1 SWAP2 SUB SWAP1 RETURN JUMPDEST CALLVALUE DUP1 ISZERO PUSH2 0x25F JUMPI PUSH1 0x0 DUP1 REVERT JUMPDEST POP PUSH2 0x273 PUSH2 0x26E CALLDATASIZE PUSH1 0x4 PUSH2 0x1F2C JUMP JUMPDEST PUSH2 0xC25 JUMP JUMPDEST PUSH1 0x40 MLOAD SWAP1 DUP2 MSTORE PUSH1 0x20 ADD PUSH2 0x24A JUMP JUMPDEST CALLVALUE DUP1 ISZERO PUSH2 0x28D JUMPI PUSH1 0x0 DUP1 REVERT JUMPDEST POP PUSH2 0x2A1 PUSH2 0x29C CALLDATASIZE PUSH1 0x4 PUSH2 0x1E55 JUMP JUMPDEST PUSH2 0xC56 JUMP JUMPDEST PUSH1 0x40 MLOAD PUSH2 0x24A SWAP2 SWAP1 PUSH2 0x1F9C JUMP JUMPDEST CALLVALUE DUP1 ISZERO PUSH2 0x2BA JUMPI PUSH1 0x0 DUP1 REVERT JUMPDEST POP PUSH2 0x273 PUSH1 0x7 SLOAD DUP2 JUMP JUMPDEST CALLVALUE DUP1 ISZERO PUSH2 0x2D0 JUMPI PUSH1 0x0 DUP1 REVERT JUMPDEST POP PUSH2 0x208 PUSH2 0xE61 JUMP JUMPDEST CALLVALUE DUP1 ISZERO PUSH2 0x2E5 JUMPI PUSH1 0x0 DUP1 REVERT JUMPDEST POP PUSH2 0x273 PUSH2 0x2F4 CALLDATASIZE PUSH1 0x4 PUSH2 0x2082 JUMP JUMPDEST PUSH2 0xE73 JUMP JUMPDEST CALLVALUE DUP1 ISZERO PUSH2 0x305 JUMPI PUSH1 0x0 DUP1 REVERT JUMPDEST POP PUSH1 0x2 SLOAD PUSH1 0xFF AND JUMPDEST PUSH1 0x40 MLOAD SWAP1 ISZERO ISZERO DUP2 MSTORE PUSH1 0x20 ADD PUSH2 0x24A JUMP JUMPDEST CALLVALUE DUP1 ISZERO PUSH2 0x329 JUMPI PUSH1 0x0 DUP1 REVERT JUMPDEST POP PUSH2 0x208 PUSH2 0xF02 JUMP JUMPDEST CALLVALUE DUP1 ISZERO PUSH2 0x33E JUMPI PUSH1 0x0 DUP1 REVERT JUMPDEST POP PUSH1 0x2 SLOAD PUSH2 0x357 SWAP1 PUSH2 0x100 SWAP1 DIV PUSH1 0x1 PUSH1 0x1 PUSH1 0xA0 SHL SUB AND DUP2 JUMP JUMPDEST PUSH1 0x40 MLOAD PUSH1 0x1 PUSH1 0x1 PUSH1 0xA0 SHL SUB SWAP1 SWAP2 AND DUP2 MSTORE PUSH1 0x20 ADD PUSH2 0x24A JUMP JUMPDEST CALLVALUE DUP1 ISZERO PUSH2 0x37B JUMPI PUSH1 0x0 DUP1 REVERT JUMPDEST POP PUSH2 0x3D3 PUSH2 0x38A CALLDATASIZE PUSH1 0x4 PUSH2 0x1E55 JUMP JUMPDEST PUSH1 0xC PUSH1 0x20 MSTORE PUSH1 0x0 SWAP1 DUP2 MSTORE PUSH1 0x40 SWAP1 KECCAK256 DUP1 SLOAD PUSH1 0x1 DUP3 ADD SLOAD PUSH1 0x2 DUP4 ADD SLOAD PUSH1 0x3 DUP5 ADD SLOAD PUSH1 0x4 DUP6 ADD SLOAD PUSH1 0x5 DUP7 ADD SLOAD PUSH1 0x6 SWAP1 SWAP7 ADD SLOAD SWAP5 SWAP6 SWAP4 SWAP5 SWAP3 SWAP4 SWAP2 SWAP3 PUSH1 0xFF DUP1 DUP4 AND SWAP4 PUSH2 0x100 SWAP1 SWAP4 DIV AND SWAP2 SWAP1 DUP9 JUMP JUMPDEST PUSH1 0x40 MLOAD PUSH2 0x24A SWAP9 SWAP8 SWAP7 SWAP6 SWAP5 SWAP4 SWAP3 SWAP2 SWAP1 PUSH2 0x20A4 JUMP JUMPDEST CALLVALUE DUP1 ISZERO PUSH2 0x3F3 JUMPI PUSH1 0x0 DUP1 REVERT JUMPDEST POP PUSH2 0x208 PUSH2 0x402 CALLDATASIZE PUSH1 0x4 PUSH2 0x2194 JUMP JUMPDEST PUSH2 0xF44 JUMP JUMPDEST CALLVALUE DUP1 ISZERO PUSH2 0x413 JUMPI PUSH1 0x0 DUP1 REVERT JUMPDEST POP PUSH2 0x208 PUSH2 0x1394 JUMP JUMPDEST CALLVALUE DUP1 ISZERO PUSH2 0x428 JUMPI PUSH1 0x0 DUP1 REVERT JUMPDEST POP PUSH2 0x208 PUSH2 0x13A6 JUMP JUMPDEST CALLVALUE DUP1 ISZERO PUSH2 0x43D JUMPI PUSH1 0x0 DUP1 REVERT JUMPDEST POP PUSH1 0x0 SLOAD PUSH1 0x1 PUSH1 0x1 PUSH1 0xA0 SHL SUB AND PUSH2 0x357 JUMP JUMPDEST CALLVALUE DUP1 ISZERO PUSH2 0x45B JUMPI PUSH1 0x0 DUP1 REVERT JUMPDEST POP PUSH2 0x46F PUSH2 0x46A CALLDATASIZE PUSH1 0x4 PUSH2 0x1E55 JUMP JUMPDEST PUSH2 0x13B6 JUMP JUMPDEST PUSH1 0x40 MLOAD PUSH2 0x24A SWAP12 SWAP11 SWAP10 SWAP9 SWAP8 SWAP7 SWAP6 SWAP5 SWAP4 SWAP3 SWAP2 SWAP1 PUSH2 0x21EB JUMP JUMPDEST CALLVALUE DUP1 ISZERO PUSH2 0x492 JUMPI PUSH1 0x0 DUP1 REVERT JUMPDEST POP PUSH2 0x4A6 PUSH2 0x4A1 CALLDATASIZE PUSH1 0x4 PUSH2 0x227F JUMP JUMPDEST PUSH2 0x152F JUMP JUMPDEST PUSH1 0x40 MLOAD PUSH2 0x24A SWAP2 SWAP1 PUSH2 0x229A JUMP JUMPDEST CALLVALUE DUP1 ISZERO PUSH2 0x4BF JUMPI PUSH1 0x0 DUP1 REVERT JUMPDEST POP PUSH2 0x30D PUSH2 0x4CE CALLDATASIZE PUSH1 0x4 PUSH2 0x227F JUMP JUMPDEST PUSH1 0xE PUSH1 0x20 MSTORE PUSH1 0x0 SWAP1 DUP2 MSTORE PUSH1 0x40 SWAP1 KECCAK256 SLOAD PUSH1 0xFF AND DUP2 JUMP JUMPDEST CALLVALUE DUP1 ISZERO PUSH2 0x4EF JUMPI PUSH1 0x0 DUP1 REVERT JUMPDEST POP PUSH2 0x208 PUSH2 0x4FE CALLDATASIZE PUSH1 0x4 PUSH2 0x22DE JUMP JUMPDEST PUSH2 0x159B JUMP JUMPDEST CALLVALUE DUP1 ISZERO PUSH2 0x50F JUMPI PUSH1 0x0 DUP1 REVERT JUMPDEST POP PUSH2 0x208 PUSH2 0x51E CALLDATASIZE PUSH1 0x4 PUSH2 0x2327 JUMP JUMPDEST PUSH2 0x15DD JUMP JUMPDEST CALLVALUE DUP1 ISZERO PUSH2 0x52F JUMPI PUSH1 0x0 DUP1 REVERT JUMPDEST POP PUSH2 0x273 PUSH1 0x5 SLOAD DUP2 JUMP JUMPDEST CALLVALUE DUP1 ISZERO PUSH2 0x545 JUMPI PUSH1 0x0 DUP1 REVERT JUMPDEST POP PUSH2 0x581 PUSH2 0x554 CALLDATASIZE PUSH1 0x4 PUSH2 0x227F JUMP JUMPDEST PUSH1 0xA PUSH1 0x20 MSTORE PUSH1 0x0 SWAP1 DUP2 MSTORE PUSH1 0x40 SWAP1 KECCAK256 DUP1 SLOAD PUSH1 0x1 DUP3 ADD SLOAD PUSH1 0x2 DUP4 ADD SLOAD PUSH1 0x3 SWAP1 SWAP4 ADD SLOAD SWAP2 SWAP3 SWAP1 SWAP2 PUSH1 0xFF SWAP1 SWAP2 AND SWAP1 DUP5 JUMP JUMPDEST PUSH1 0x40 DUP1 MLOAD SWAP5 DUP6 MSTORE PUSH1 0x20 DUP6 ADD SWAP4 SWAP1 SWAP4 MSTORE SWAP1 ISZERO ISZERO SWAP2 DUP4 ADD SWAP2 SWAP1 SWAP2 MSTORE PUSH1 0x60 DUP3 ADD MSTORE PUSH1 0x80 ADD PUSH2 0x24A JUMP JUMPDEST CALLVALUE DUP1 ISZERO PUSH2 0x5B3 JUMPI PUSH1 0x0 DUP1 REVERT JUMPDEST POP PUSH2 0x208 PUSH2 0x5C2 CALLDATASIZE PUSH1 0x4 PUSH2 0x2351 JUMP JUMPDEST PUSH2 0x163D JUMP JUMPDEST CALLVALUE DUP1 ISZERO PUSH2 0x5D3 JUMPI PUSH1 0x0 DUP1 REVERT JUMPDEST POP PUSH1 0x3 SLOAD PUSH2 0x357 SWAP1 PUSH1 0x1 PUSH1 0x1 PUSH1 0xA0 SHL SUB AND DUP2 JUMP JUMPDEST CALLVALUE DUP1 ISZERO PUSH2 0x5F3 JUMPI PUSH1 0x0 DUP1 REVERT JUMPDEST POP PUSH2 0x63F PUSH2 0x602 CALLDATASIZE PUSH1 0x4 PUSH2 0x227F JUMP JUMPDEST PUSH1 0xD PUSH1 0x20 MSTORE PUSH1 0x0 SWAP1 DUP2 MSTORE PUSH1 0x40 SWAP1 KECCAK256 DUP1 SLOAD PUSH1 0x1 DUP3 ADD SLOAD PUSH1 0x2 DUP4 ADD SLOAD PUSH1 0x3 DUP5 ADD SLOAD PUSH1 0x4 DUP6 ADD SLOAD PUSH1 0x5 DUP7 ADD SLOAD PUSH1 0x6 SWAP1 SWAP7 ADD SLOAD SWAP5 SWAP6 SWAP4 SWAP5 SWAP3 SWAP4 SWAP2 SWAP3 SWAP1 SWAP2 SWAP1 DUP8 JUMP JUMPDEST PUSH1 0x40 DUP1 MLOAD SWAP8 DUP9 MSTORE PUSH1 0x20 DUP9 ADD SWAP7 SWAP1 SWAP7 MSTORE SWAP5 DUP7 ADD SWAP4 SWAP1 SWAP4 MSTORE PUSH1 0x60 DUP6 ADD SWAP2 SWAP1 SWAP2 MSTORE PUSH1 0x80 DUP5 ADD MSTORE PUSH1 0xA0 DUP4 ADD MSTORE PUSH1 0xC0 DUP3 ADD MSTORE PUSH1 0xE0 ADD PUSH2 0x24A JUMP JUMPDEST CALLVALUE DUP1 ISZERO PUSH2 0x680 JUMPI PUSH1 0x0 DUP1 REVERT JUMPDEST POP PUSH2 0x273 PUSH1 0x6 SLOAD DUP2 JUMP JUMPDEST CALLVALUE DUP1 ISZERO PUSH2 0x696 JUMPI PUSH1 0x0 DUP1 REVERT JUMPDEST POP PUSH2 0x208 PUSH2 0x6A5 CALLDATASIZE PUSH1 0x4 PUSH2 0x2398 JUMP JUMPDEST PUSH2 0x178F JUMP JUMPDEST CALLVALUE DUP1 ISZERO PUSH2 0x6B6 JUMPI PUSH1 0x0 DUP1 REVERT JUMPDEST POP PUSH2 0x208 PUSH2 0x191D JUMP JUMPDEST CALLVALUE DUP1 ISZERO PUSH2 0x6CB JUMPI PUSH1 0x0 DUP1 REVERT JUMPDEST POP PUSH2 0x273 PUSH1 0x4 SLOAD DUP2 JUMP JUMPDEST CALLVALUE DUP1 ISZERO PUSH2 0x6E1 JUMPI PUSH1 0x0 DUP1 REVERT JUMPDEST POP PUSH2 0x208 PUSH2 0x6F0 CALLDATASIZE PUSH1 0x4 PUSH2 0x227F JUMP JUMPDEST PUSH2 0x1A9F JUMP JUMPDEST PUSH2 0x6FD PUSH2 0x1B15 JUMP JUMPDEST PUSH1 0x0 DUP3 DUP2 MSTORE PUSH1 0xC PUSH1 0x20 MSTORE PUSH1 0x40 DUP2 KECCAK256 SLOAD SWAP1 SUB PUSH2 0x755 JUMPI PUSH1 0x40 MLOAD PUSH3 0x461BCD PUSH1 0xE5 SHL DUP2 MSTORE PUSH1 0x20 PUSH1 0x4 DUP3 ADD MSTORE PUSH1 0x13 PUSH1 0x24 DUP3 ADD MSTORE PUSH19 0x14DD185C88191BD95CC81B9BDD08195E1A5CDD PUSH1 0x6A SHL PUSH1 0x44 DUP3 ADD MSTORE PUSH1 0x64 ADD JUMPDEST PUSH1 0x40 MLOAD DUP1 SWAP2 SUB SWAP1 REVERT JUMPDEST PUSH1 0x0 DUP3 DUP2 MSTORE PUSH1 0xC PUSH1 0x20 MSTORE PUSH1 0x40 SWAP1 DUP2 SWAP1 KECCAK256 PUSH1 0x4 ADD DUP1 SLOAD DUP4 ISZERO ISZERO PUSH2 0x100 MUL PUSH2 0xFF00 NOT SWAP1 SWAP2 AND OR SWAP1 SSTORE MLOAD DUP3 SWAP1 PUSH32 0xCE5D422E23968AA174A8455B0889F3D82D14CFD63C91191EF04BFAA6A030DCB0 SWAP1 PUSH2 0x7AF SWAP1 DUP5 ISZERO ISZERO DUP2 MSTORE PUSH1 0x20 ADD SWAP1 JUMP JUMPDEST PUSH1 0x40 MLOAD DUP1 SWAP2 SUB SWAP1 LOG2 POP POP JUMP JUMPDEST PUSH2 0x7C3 PUSH2 0x1B6F JUMP JUMPDEST PUSH2 0x7CB PUSH2 0x1BC8 JUMP JUMPDEST CALLVALUE PUSH1 0x4 SLOAD DUP2 LT ISZERO DUP1 ISZERO PUSH2 0x7E0 JUMPI POP PUSH1 0x5 SLOAD DUP2 GT ISZERO JUMPDEST PUSH2 0x823 JUMPI PUSH1 0x40 MLOAD PUSH3 0x461BCD PUSH1 0xE5 SHL DUP2 MSTORE PUSH1 0x20 PUSH1 0x4 DUP3 ADD MSTORE PUSH1 0x14 PUSH1 0x24 DUP3 ADD MSTORE PUSH20 0x125B9D985B1A59081CDD185AD948185B5BDD5B9D PUSH1 0x62 SHL PUSH1 0x44 DUP3 ADD MSTORE PUSH1 0x64 ADD PUSH2 0x74C JUMP JUMPDEST PUSH1 0x0 DUP3 DUP2 MSTORE PUSH1 0xC PUSH1 0x20 MSTORE PUSH1 0x40 SWAP1 KECCAK256 PUSH1 0x4 ADD SLOAD PUSH2 0x100 SWAP1 DIV PUSH1 0xFF AND PUSH2 0x87B JUMPI PUSH1 0x40 MLOAD PUSH3 0x461BCD PUSH1 0xE5 SHL DUP2 MSTORE PUSH1 0x20 PUSH1 0x4 DUP3 ADD MSTORE PUSH1 0xF PUSH1 0x24 DUP3 ADD MSTORE PUSH15 0x53746172206E6F7420616374697665 PUSH1 0x88 SHL PUSH1 0x44 DUP3 ADD MSTORE PUSH1 0x64 ADD PUSH2 0x74C JUMP JUMPDEST CALLER PUSH1 0x0 SWAP1 DUP2 MSTORE PUSH1 0xA PUSH1 0x20 MSTORE PUSH1 0x40 SWAP1 KECCAK256 PUSH1 0x2 ADD SLOAD PUSH1 0xFF AND ISZERO PUSH2 0x8DE JUMPI PUSH1 0x40 MLOAD PUSH3 0x461BCD PUSH1 0xE5 SHL DUP2 MSTORE PUSH1 0x20 PUSH1 0x4 DUP3 ADD MSTORE PUSH1 0x19 PUSH1 0x24 DUP3 ADD MSTORE PUSH32 0x416C7265616479206861766520616374697665207374616B6500000000000000 PUSH1 0x44 DUP3 ADD MSTORE PUSH1 0x64 ADD PUSH2 0x74C JUMP JUMPDEST PUSH1 0x0 PUSH2 0x8E9 PUSH1 0x8 SLOAD SWAP1 JUMP JUMPDEST SWAP1 POP PUSH2 0x8F9 PUSH1 0x8 DUP1 SLOAD PUSH1 0x1 ADD SWAP1 SSTORE JUMP JUMPDEST PUSH1 0x40 DUP1 MLOAD PUSH1 0x80 DUP1 DUP3 ADD DUP4 MSTORE CALLVALUE DUP1 DUP4 MSTORE TIMESTAMP PUSH1 0x20 DUP1 DUP6 ADD DUP3 DUP2 MSTORE PUSH1 0x1 DUP7 DUP9 ADD DUP2 DUP2 MSTORE PUSH1 0x60 DUP1 DUP10 ADD DUP12 DUP2 MSTORE CALLER PUSH1 0x0 DUP2 DUP2 MSTORE PUSH1 0xA DUP9 MSTORE DUP13 DUP2 KECCAK256 SWAP12 MLOAD DUP13 SSTORE SWAP6 MLOAD SWAP5 DUP12 ADD SWAP5 SWAP1 SWAP5 SSTORE SWAP2 MLOAD PUSH1 0x2 DUP11 ADD DUP1 SLOAD PUSH1 0xFF NOT AND SWAP2 ISZERO ISZERO SWAP2 SWAP1 SWAP2 OR SWAP1 SSTORE SWAP1 MLOAD PUSH1 0x3 SWAP9 DUP10 ADD SSTORE DUP9 MLOAD PUSH2 0x160 DUP2 ADD DUP11 MSTORE DUP11 DUP2 MSTORE DUP1 DUP6 ADD SWAP3 SWAP1 SWAP3 MSTORE DUP2 DUP10 ADD SWAP6 SWAP1 SWAP6 MSTORE DUP8 MLOAD DUP1 DUP5 ADD DUP10 MSTORE DUP3 DUP2 MSTORE SWAP5 DUP2 ADD SWAP5 SWAP1 SWAP5 MSTORE DUP7 MLOAD DUP1 DUP4 ADD DUP9 MSTORE DUP2 DUP2 MSTORE SWAP5 DUP5 ADD SWAP5 SWAP1 SWAP5 MSTORE PUSH1 0xA0 DUP4 ADD DUP5 SWAP1 MSTORE PUSH1 0xC0 DUP4 ADD SWAP2 SWAP1 SWAP2 MSTORE PUSH1 0xE0 DUP3 ADD DUP4 SWAP1 MSTORE PUSH2 0x100 DUP3 ADD DUP4 SWAP1 MSTORE PUSH2 0x120 DUP3 ADD DUP9 SWAP1 MSTORE DUP8 DUP4 MSTORE PUSH1 0xC SWAP1 MSTORE SWAP3 SWAP1 KECCAK256 PUSH1 0x4 ADD SLOAD PUSH2 0x140 DUP4 ADD SWAP2 PUSH1 0xFF SWAP1 SWAP2 AND SWAP1 DUP2 GT ISZERO PUSH2 0x9E3 JUMPI PUSH2 0x9E3 PUSH2 0x1E6E JUMP JUMPDEST SWAP1 MSTORE PUSH1 0x0 DUP3 DUP2 MSTORE PUSH1 0xB PUSH1 0x20 SWAP1 DUP2 MSTORE PUSH1 0x40 SWAP2 DUP3 SWAP1 KECCAK256 DUP4 MLOAD DUP2 SSTORE SWAP1 DUP4 ADD MLOAD PUSH1 0x1 DUP3 ADD DUP1 SLOAD PUSH1 0x1 PUSH1 0x1 PUSH1 0xA0 SHL SUB NOT AND PUSH1 0x1 PUSH1 0x1 PUSH1 0xA0 SHL SUB SWAP1 SWAP3 AND SWAP2 SWAP1 SWAP2 OR SWAP1 SSTORE SWAP1 DUP3 ADD MLOAD PUSH1 0x2 DUP3 ADD SSTORE PUSH1 0x60 DUP3 ADD MLOAD PUSH1 0x3 DUP3 ADD SWAP1 PUSH2 0xA3D SWAP1 DUP3 PUSH2 0x245D JUMP JUMPDEST POP PUSH1 0x80 DUP3 ADD MLOAD PUSH1 0x4 DUP3 ADD SWAP1 PUSH2 0xA52 SWAP1 DUP3 PUSH2 0x245D JUMP JUMPDEST POP PUSH1 0xA0 DUP3 ADD MLOAD PUSH1 0x5 DUP3 ADD DUP1 SLOAD PUSH1 0xFF NOT AND PUSH1 0x1 DUP4 PUSH1 0x3 DUP2 GT ISZERO PUSH2 0xA76 JUMPI PUSH2 0xA76 PUSH2 0x1E6E JUMP JUMPDEST MUL OR SWAP1 SSTORE POP PUSH1 0xC0 DUP3 ADD MLOAD PUSH1 0x6 DUP3 ADD SSTORE PUSH1 0xE0 DUP3 ADD MLOAD PUSH1 0x7 DUP3 ADD SSTORE PUSH2 0x100 DUP3 ADD MLOAD PUSH1 0x8 DUP3 ADD DUP1 SLOAD SWAP2 ISZERO ISZERO PUSH1 0xFF NOT SWAP3 DUP4 AND OR SWAP1 SSTORE PUSH2 0x120 DUP4 ADD MLOAD PUSH1 0x9 DUP4 ADD SSTORE PUSH2 0x140 DUP4 ADD MLOAD PUSH1 0xA DUP4 ADD DUP1 SLOAD SWAP2 SWAP3 SWAP1 SWAP2 AND PUSH1 0x1 DUP4 PUSH1 0x3 DUP2 GT ISZERO PUSH2 0xAD7 JUMPI PUSH2 0xAD7 PUSH2 0x1E6E JUMP JUMPDEST MUL OR SWAP1 SSTORE POP POP POP PUSH1 0x0 DUP4 DUP2 MSTORE PUSH1 0xC PUSH1 0x20 MSTORE PUSH1 0x40 DUP2 KECCAK256 PUSH1 0x6 ADD DUP1 SLOAD CALLVALUE SWAP3 SWAP1 PUSH2 0xAFF SWAP1 DUP5 SWAP1 PUSH2 0x2533 JUMP JUMPDEST SWAP1 SWAP2 SSTORE POP POP CALLER PUSH1 0x0 DUP2 DUP2 MSTORE PUSH1 0xF PUSH1 0x20 SWAP1 DUP2 MSTORE PUSH1 0x40 DUP1 DUP4 KECCAK256 DUP1 SLOAD PUSH1 0x1 DUP2 ADD DUP3 SSTORE SWAP1 DUP5 MSTORE SWAP3 DUP3 SWAP1 KECCAK256 SWAP1 SWAP3 ADD DUP5 SWAP1 SSTORE DUP2 MLOAD CALLVALUE DUP2 MSTORE SWAP1 DUP2 ADD DUP5 SWAP1 MSTORE PUSH32 0x1449C6DD7851ABC30ABF37F57715F492010519147CC2652FBC38202C18A6EE90 SWAP2 ADD PUSH1 0x40 MLOAD DUP1 SWAP2 SUB SWAP1 LOG2 POP POP PUSH2 0xB6C PUSH1 0x1 DUP1 SSTORE JUMP JUMPDEST POP JUMP JUMPDEST PUSH2 0xB77 PUSH2 0x1D36 JUMP JUMPDEST PUSH1 0xC PUSH1 0x0 DUP4 DUP2 MSTORE PUSH1 0x20 ADD SWAP1 DUP2 MSTORE PUSH1 0x20 ADD PUSH1 0x0 KECCAK256 PUSH1 0x40 MLOAD DUP1 PUSH2 0x100 ADD PUSH1 0x40 MSTORE SWAP1 DUP2 PUSH1 0x0 DUP3 ADD SLOAD DUP2 MSTORE PUSH1 0x20 ADD PUSH1 0x1 DUP3 ADD SLOAD DUP2 MSTORE PUSH1 0x20 ADD PUSH1 0x2 DUP3 ADD SLOAD DUP2 MSTORE PUSH1 0x20 ADD PUSH1 0x3 DUP3 ADD SLOAD DUP2 MSTORE PUSH1 0x20 ADD PUSH1 0x4 DUP3 ADD PUSH1 0x0 SWAP1 SLOAD SWAP1 PUSH2 0x100 EXP SWAP1 DIV PUSH1 0xFF AND PUSH1 0x3 DUP2 GT ISZERO PUSH2 0xBE2 JUMPI PUSH2 0xBE2 PUSH2 0x1E6E JUMP JUMPDEST PUSH1 0x3 DUP2 GT ISZERO PUSH2 0xBF3 JUMPI PUSH2 0xBF3 PUSH2 0x1E6E JUMP JUMPDEST DUP2 MSTORE PUSH1 0x4 DUP3 ADD SLOAD PUSH2 0x100 SWAP1 DIV PUSH1 0xFF AND ISZERO ISZERO PUSH1 0x20 DUP3 ADD MSTORE PUSH1 0x5 DUP3 ADD SLOAD PUSH1 0x40 DUP3 ADD MSTORE PUSH1 0x6 SWAP1 SWAP2 ADD SLOAD PUSH1 0x60 SWAP1 SWAP2 ADD MSTORE SWAP3 SWAP2 POP POP JUMP JUMPDEST PUSH1 0xF PUSH1 0x20 MSTORE DUP2 PUSH1 0x0 MSTORE PUSH1 0x40 PUSH1 0x0 KECCAK256 DUP2 DUP2 SLOAD DUP2 LT PUSH2 0xC41 JUMPI PUSH1 0x0 DUP1 REVERT JUMPDEST SWAP1 PUSH1 0x0 MSTORE PUSH1 0x20 PUSH1 0x0 KECCAK256 ADD PUSH1 0x0 SWAP2 POP SWAP2 POP POP SLOAD DUP2 JUMP JUMPDEST PUSH2 0xC5E PUSH2 0x1D8E JUMP JUMPDEST PUSH1 0x0 DUP3 DUP2 MSTORE PUSH1 0xB PUSH1 0x20 SWAP1 DUP2 MSTORE PUSH1 0x40 SWAP2 DUP3 SWAP1 KECCAK256 DUP3 MLOAD PUSH2 0x160 DUP2 ADD DUP5 MSTORE DUP2 SLOAD DUP2 MSTORE PUSH1 0x1 DUP3 ADD SLOAD PUSH1 0x1 PUSH1 0x1 PUSH1 0xA0 SHL SUB AND SWAP3 DUP2 ADD SWAP3 SWAP1 SWAP3 MSTORE PUSH1 0x2 DUP2 ADD SLOAD SWAP3 DUP3 ADD SWAP3 SWAP1 SWAP3 MSTORE PUSH1 0x3 DUP3 ADD DUP1 SLOAD SWAP2 SWAP3 SWAP2 PUSH1 0x60 DUP5 ADD SWAP2 SWAP1 PUSH2 0xCB6 SWAP1 PUSH2 0x23D5 JUMP JUMPDEST DUP1 PUSH1 0x1F ADD PUSH1 0x20 DUP1 SWAP2 DIV MUL PUSH1 0x20 ADD PUSH1 0x40 MLOAD SWAP1 DUP2 ADD PUSH1 0x40 MSTORE DUP1 SWAP3 SWAP2 SWAP1 DUP2 DUP2 MSTORE PUSH1 0x20 ADD DUP3 DUP1 SLOAD PUSH2 0xCE2 SWAP1 PUSH2 0x23D5 JUMP JUMPDEST DUP1 ISZERO PUSH2 0xD2F JUMPI DUP1 PUSH1 0x1F LT PUSH2 0xD04 JUMPI PUSH2 0x100 DUP1 DUP4 SLOAD DIV MUL DUP4 MSTORE SWAP2 PUSH1 0x20 ADD SWAP2 PUSH2 0xD2F JUMP JUMPDEST DUP3 ADD SWAP2 SWAP1 PUSH1 0x0 MSTORE PUSH1 0x20 PUSH1 0x0 KECCAK256 SWAP1 JUMPDEST DUP2 SLOAD DUP2 MSTORE SWAP1 PUSH1 0x1 ADD SWAP1 PUSH1 0x20 ADD DUP1 DUP4 GT PUSH2 0xD12 JUMPI DUP3 SWAP1 SUB PUSH1 0x1F AND DUP3 ADD SWAP2 JUMPDEST POP POP POP POP POP DUP2 MSTORE PUSH1 0x20 ADD PUSH1 0x4 DUP3 ADD DUP1 SLOAD PUSH2 0xD48 SWAP1 PUSH2 0x23D5 JUMP JUMPDEST DUP1 PUSH1 0x1F ADD PUSH1 0x20 DUP1 SWAP2 DIV MUL PUSH1 0x20 ADD PUSH1 0x40 MLOAD SWAP1 DUP2 ADD PUSH1 0x40 MSTORE DUP1 SWAP3 SWAP2 SWAP1 DUP2 DUP2 MSTORE PUSH1 0x20 ADD DUP3 DUP1 SLOAD PUSH2 0xD74 SWAP1 PUSH2 0x23D5 JUMP JUMPDEST DUP1 ISZERO PUSH2 0xDC1 JUMPI DUP1 PUSH1 0x1F LT PUSH2 0xD96 JUMPI PUSH2 0x100 DUP1 DUP4 SLOAD DIV MUL DUP4 MSTORE SWAP2 PUSH1 0x20 ADD SWAP2 PUSH2 0xDC1 JUMP JUMPDEST DUP3 ADD SWAP2 SWAP1 PUSH1 0x0 MSTORE PUSH1 0x20 PUSH1 0x0 KECCAK256 SWAP1 JUMPDEST DUP2 SLOAD DUP2 MSTORE SWAP1 PUSH1 0x1 ADD SWAP1 PUSH1 0x20 ADD DUP1 DUP4 GT PUSH2 0xDA4 JUMPI DUP3 SWAP1 SUB PUSH1 0x1F AND DUP3 ADD SWAP2 JUMPDEST POP POP POP SWAP2 DUP4 MSTORE POP POP PUSH1 0x5 DUP3 ADD SLOAD PUSH1 0x20 SWAP1 SWAP2 ADD SWAP1 PUSH1 0xFF AND PUSH1 0x3 DUP2 GT ISZERO PUSH2 0xDE8 JUMPI PUSH2 0xDE8 PUSH2 0x1E6E JUMP JUMPDEST PUSH1 0x3 DUP2 GT ISZERO PUSH2 0xDF9 JUMPI PUSH2 0xDF9 PUSH2 0x1E6E JUMP JUMPDEST DUP2 MSTORE PUSH1 0x6 DUP3 ADD SLOAD PUSH1 0x20 DUP3 ADD MSTORE PUSH1 0x7 DUP3 ADD SLOAD PUSH1 0x40 DUP3 ADD MSTORE PUSH1 0x8 DUP3 ADD SLOAD PUSH1 0xFF SWAP1 DUP2 AND ISZERO ISZERO PUSH1 0x60 DUP4 ADD MSTORE PUSH1 0x9 DUP4 ADD SLOAD PUSH1 0x80 DUP4 ADD MSTORE PUSH1 0xA DUP4 ADD SLOAD PUSH1 0xA0 SWAP1 SWAP3 ADD SWAP2 AND PUSH1 0x3 DUP2 GT ISZERO PUSH2 0xE47 JUMPI PUSH2 0xE47 PUSH2 0x1E6E JUMP JUMPDEST PUSH1 0x3 DUP2 GT ISZERO PUSH2 0xE58 JUMPI PUSH2 0xE58 PUSH2 0x1E6E JUMP JUMPDEST SWAP1 MSTORE POP SWAP3 SWAP2 POP POP JUMP JUMPDEST PUSH2 0xE69 PUSH2 0x1B15 JUMP JUMPDEST PUSH2 0xE71 PUSH2 0x1C0E JUMP JUMPDEST JUMP JUMPDEST PUSH1 0x0 DUP1 DUP3 PUSH1 0x3 DUP2 GT ISZERO PUSH2 0xE88 JUMPI PUSH2 0xE88 PUSH2 0x1E6E JUMP JUMPDEST SUB PUSH2 0xE95 JUMPI POP PUSH1 0x96 SWAP2 SWAP1 POP JUMP JUMPDEST PUSH1 0x1 DUP3 PUSH1 0x3 DUP2 GT ISZERO PUSH2 0xEA9 JUMPI PUSH2 0xEA9 PUSH2 0x1E6E JUMP JUMPDEST SUB PUSH2 0xEB6 JUMPI POP PUSH1 0xC8 SWAP2 SWAP1 POP JUMP JUMPDEST PUSH1 0x2 DUP3 PUSH1 0x3 DUP2 GT ISZERO PUSH2 0xECA JUMPI PUSH2 0xECA PUSH2 0x1E6E JUMP JUMPDEST SUB PUSH2 0xED8 JUMPI POP PUSH2 0x12C SWAP2 SWAP1 POP JUMP JUMPDEST PUSH1 0x3 DUP3 PUSH1 0x3 DUP2 GT ISZERO PUSH2 0xEEC JUMPI PUSH2 0xEEC PUSH2 0x1E6E JUMP JUMPDEST SUB PUSH2 0xEFA JUMPI POP PUSH2 0x1F4 SWAP2 SWAP1 POP JUMP JUMPDEST POP PUSH1 0x96 SWAP2 SWAP1 POP JUMP JUMPDEST PUSH2 0xF0A PUSH2 0x1B15 JUMP JUMPDEST PUSH1 0x0 DUP1 SLOAD PUSH1 0x40 MLOAD PUSH1 0x1 PUSH1 0x1 PUSH1 0xA0 SHL SUB SWAP1 SWAP2 AND SWAP2 SELFBALANCE DUP1 ISZERO PUSH2 0x8FC MUL SWAP3 SWAP1 SWAP2 DUP2 DUP2 DUP2 DUP6 DUP9 DUP9 CALL SWAP4 POP POP POP POP ISZERO DUP1 ISZERO PUSH2 0xB6C JUMPI RETURNDATASIZE PUSH1 0x0 DUP1 RETURNDATACOPY RETURNDATASIZE PUSH1 0x0 REVERT JUMPDEST CALLER PUSH1 0x0 SWAP1 DUP2 MSTORE PUSH1 0xE PUSH1 0x20 MSTORE PUSH1 0x40 SWAP1 KECCAK256 SLOAD PUSH1 0xFF AND DUP1 PUSH2 0xF6C JUMPI POP PUSH1 0x0 SLOAD PUSH1 0x1 PUSH1 0x1 PUSH1 0xA0 SHL SUB AND CALLER EQ JUMPDEST PUSH2 0xFAC JUMPI PUSH1 0x40 MLOAD PUSH3 0x461BCD PUSH1 0xE5 SHL DUP2 MSTORE PUSH1 0x20 PUSH1 0x4 DUP3 ADD MSTORE PUSH1 0x11 PUSH1 0x24 DUP3 ADD MSTORE PUSH17 0x4E6F7420617574686F72697A6564204149 PUSH1 0x78 SHL PUSH1 0x44 DUP3 ADD MSTORE PUSH1 0x64 ADD PUSH2 0x74C JUMP JUMPDEST PUSH2 0xFB4 PUSH2 0x1B6F JUMP JUMPDEST PUSH1 0x0 DUP4 DUP2 MSTORE PUSH1 0xB PUSH1 0x20 MSTORE PUSH1 0x40 DUP2 KECCAK256 SWAP1 PUSH1 0x5 DUP3 ADD SLOAD PUSH1 0xFF AND PUSH1 0x3 DUP2 GT ISZERO PUSH2 0xFDC JUMPI PUSH2 0xFDC PUSH2 0x1E6E JUMP JUMPDEST EQ PUSH2 0x1020 JUMPI PUSH1 0x40 MLOAD PUSH3 0x461BCD PUSH1 0xE5 SHL DUP2 MSTORE PUSH1 0x20 PUSH1 0x4 DUP3 ADD MSTORE PUSH1 0x14 PUSH1 0x24 DUP3 ADD MSTORE PUSH20 0x4368616C6C656E6765206E6F7420616374697665 PUSH1 0x60 SHL PUSH1 0x44 DUP3 ADD MSTORE PUSH1 0x64 ADD PUSH2 0x74C JUMP JUMPDEST PUSH1 0x1 DUP2 ADD SLOAD PUSH1 0x1 PUSH1 0x1 PUSH1 0xA0 SHL SUB AND PUSH1 0x0 DUP2 DUP2 MSTORE PUSH1 0xA PUSH1 0x20 MSTORE PUSH1 0x40 SWAP1 KECCAK256 PUSH1 0x2 DUP2 ADD SLOAD PUSH1 0xFF AND DUP1 ISZERO PUSH2 0x1053 JUMPI POP DUP6 DUP2 PUSH1 0x3 ADD SLOAD EQ JUMPDEST PUSH2 0x108F JUMPI PUSH1 0x40 MLOAD PUSH3 0x461BCD PUSH1 0xE5 SHL DUP2 MSTORE PUSH1 0x20 PUSH1 0x4 DUP3 ADD MSTORE PUSH1 0xD PUSH1 0x24 DUP3 ADD MSTORE PUSH13 0x496E76616C6964207374616B65 PUSH1 0x98 SHL PUSH1 0x44 DUP3 ADD MSTORE PUSH1 0x64 ADD PUSH2 0x74C JUMP JUMPDEST PUSH1 0x4 DUP4 ADD PUSH2 0x109D DUP7 DUP3 PUSH2 0x245D JUMP JUMPDEST POP TIMESTAMP PUSH1 0x7 DUP5 ADD SSTORE PUSH1 0x8 DUP4 ADD DUP1 SLOAD PUSH1 0xFF NOT AND PUSH1 0x1 OR SWAP1 SSTORE DUP4 PUSH2 0x10BF JUMPI PUSH1 0x2 PUSH2 0x10C2 JUMP JUMPDEST PUSH1 0x1 JUMPDEST PUSH1 0x5 DUP5 ADD DUP1 SLOAD PUSH1 0xFF NOT AND PUSH1 0x1 DUP4 PUSH1 0x3 DUP2 GT ISZERO PUSH2 0x10E0 JUMPI PUSH2 0x10E0 PUSH2 0x1E6E JUMP JUMPDEST MUL OR SWAP1 SSTORE POP PUSH1 0x2 DUP2 ADD DUP1 SLOAD PUSH1 0xFF NOT AND SWAP1 SSTORE PUSH1 0x0 DUP5 ISZERO PUSH2 0x1258 JUMPI PUSH1 0xA DUP5 ADD SLOAD PUSH1 0x0 SWAP1 PUSH2 0x110D SWAP1 PUSH1 0xFF AND PUSH2 0xE73 JUMP JUMPDEST SWAP1 POP PUSH1 0x64 DUP2 DUP5 PUSH1 0x0 ADD SLOAD PUSH2 0x1121 SWAP2 SWAP1 PUSH2 0x254C JUMP JUMPDEST PUSH2 0x112B SWAP2 SWAP1 PUSH2 0x2563 JUMP JUMPDEST SWAP2 POP PUSH1 0x0 PUSH1 0x64 PUSH1 0x7 SLOAD DUP5 PUSH2 0x113F SWAP2 SWAP1 PUSH2 0x254C JUMP JUMPDEST PUSH2 0x1149 SWAP2 SWAP1 PUSH2 0x2563 JUMP JUMPDEST SWAP1 POP PUSH2 0x1155 DUP2 DUP5 PUSH2 0x2585 JUMP JUMPDEST PUSH1 0x40 MLOAD SWAP1 SWAP4 POP PUSH1 0x1 PUSH1 0x1 PUSH1 0xA0 SHL SUB DUP7 AND SWAP1 DUP5 ISZERO PUSH2 0x8FC MUL SWAP1 DUP6 SWAP1 PUSH1 0x0 DUP2 DUP2 DUP2 DUP6 DUP9 DUP9 CALL SWAP4 POP POP POP POP ISZERO DUP1 ISZERO PUSH2 0x118E JUMPI RETURNDATASIZE PUSH1 0x0 DUP1 RETURNDATACOPY RETURNDATASIZE PUSH1 0x0 REVERT JUMPDEST POP DUP1 ISZERO PUSH2 0x11D5 JUMPI PUSH1 0x2 SLOAD PUSH1 0x40 MLOAD PUSH2 0x100 SWAP1 SWAP2 DIV PUSH1 0x1 PUSH1 0x1 PUSH1 0xA0 SHL SUB AND SWAP1 PUSH2 0x8FC DUP4 ISZERO MUL SWAP1 DUP4 SWAP1 PUSH1 0x0 DUP2 DUP2 DUP2 DUP6 DUP9 DUP9 CALL SWAP4 POP POP POP POP ISZERO DUP1 ISZERO PUSH2 0x11D3 JUMPI RETURNDATASIZE PUSH1 0x0 DUP1 RETURNDATACOPY RETURNDATASIZE PUSH1 0x0 REVERT JUMPDEST POP JUMPDEST PUSH1 0x1 PUSH1 0x1 PUSH1 0xA0 SHL SUB DUP6 AND PUSH1 0x0 SWAP1 DUP2 MSTORE PUSH1 0xD PUSH1 0x20 MSTORE PUSH1 0x40 DUP2 KECCAK256 PUSH1 0x1 DUP2 ADD DUP1 SLOAD SWAP2 SWAP3 DUP7 SWAP3 PUSH2 0x1202 SWAP1 DUP5 SWAP1 PUSH2 0x2533 JUMP JUMPDEST SWAP1 SWAP2 SSTORE POP POP PUSH1 0x2 DUP2 ADD DUP1 SLOAD SWAP1 PUSH1 0x0 PUSH2 0x1219 DUP4 PUSH2 0x2598 JUMP JUMPDEST SWAP1 SWAP2 SSTORE POP POP PUSH1 0x4 DUP2 ADD DUP1 SLOAD SWAP1 PUSH1 0x0 PUSH2 0x1230 DUP4 PUSH2 0x2598 JUMP JUMPDEST SWAP2 SWAP1 POP SSTORE POP DUP1 PUSH1 0x5 ADD SLOAD DUP2 PUSH1 0x4 ADD SLOAD GT ISZERO PUSH2 0x1250 JUMPI PUSH1 0x4 DUP2 ADD SLOAD PUSH1 0x5 DUP3 ADD SSTORE JUMPDEST POP POP POP PUSH2 0x12CF JUMP JUMPDEST PUSH1 0x2 SLOAD DUP3 SLOAD PUSH1 0x40 MLOAD PUSH2 0x100 SWAP1 SWAP3 DIV PUSH1 0x1 PUSH1 0x1 PUSH1 0xA0 SHL SUB AND SWAP2 PUSH2 0x8FC DUP3 ISZERO MUL SWAP2 SWAP1 PUSH1 0x0 DUP2 DUP2 DUP2 DUP6 DUP9 DUP9 CALL SWAP4 POP POP POP POP ISZERO DUP1 ISZERO PUSH2 0x1297 JUMPI RETURNDATASIZE PUSH1 0x0 DUP1 RETURNDATACOPY RETURNDATASIZE PUSH1 0x0 REVERT JUMPDEST POP PUSH1 0x1 PUSH1 0x1 PUSH1 0xA0 SHL SUB DUP4 AND PUSH1 0x0 SWAP1 DUP2 MSTORE PUSH1 0xD PUSH1 0x20 MSTORE PUSH1 0x40 DUP2 KECCAK256 PUSH1 0x3 DUP2 ADD DUP1 SLOAD SWAP2 SWAP3 PUSH2 0x12C1 DUP4 PUSH2 0x2598 JUMP JUMPDEST SWAP1 SWAP2 SSTORE POP POP PUSH1 0x0 PUSH1 0x4 SWAP1 SWAP2 ADD SSTORE JUMPDEST PUSH1 0x9 DUP5 ADD SLOAD PUSH1 0x0 SWAP1 DUP2 MSTORE PUSH1 0xC PUSH1 0x20 MSTORE PUSH1 0x40 DUP2 KECCAK256 PUSH1 0x5 ADD DUP1 SLOAD SWAP2 PUSH2 0x12F1 DUP4 PUSH2 0x2598 JUMP JUMPDEST SWAP1 SWAP2 SSTORE POP POP DUP2 SLOAD PUSH1 0x1 PUSH1 0x1 PUSH1 0xA0 SHL SUB DUP5 AND PUSH1 0x0 SWAP1 DUP2 MSTORE PUSH1 0xD PUSH1 0x20 MSTORE PUSH1 0x40 DUP2 KECCAK256 DUP1 SLOAD SWAP1 SWAP2 SWAP1 PUSH2 0x1320 SWAP1 DUP5 SWAP1 PUSH2 0x2533 JUMP JUMPDEST SWAP1 SWAP2 SSTORE POP POP PUSH1 0x1 PUSH1 0x1 PUSH1 0xA0 SHL SUB DUP4 AND PUSH1 0x0 DUP2 DUP2 MSTORE PUSH1 0xD PUSH1 0x20 SWAP1 DUP2 MSTORE PUSH1 0x40 SWAP2 DUP3 SWAP1 KECCAK256 TIMESTAMP PUSH1 0x6 SWAP1 SWAP2 ADD SSTORE DUP2 MLOAD DUP9 ISZERO ISZERO DUP2 MSTORE SWAP1 DUP2 ADD DUP5 SWAP1 MSTORE DUP10 SWAP2 PUSH32 0xF531285CA704745EDDAB0F3FFD7E758C9D25CC5307E3C886D15ED35F880C6EE1 SWAP2 ADD PUSH1 0x40 MLOAD DUP1 SWAP2 SUB SWAP1 LOG3 POP POP POP POP PUSH2 0x138F PUSH1 0x1 DUP1 SSTORE JUMP JUMPDEST POP POP POP JUMP JUMPDEST PUSH2 0x139C PUSH2 0x1B15 JUMP JUMPDEST PUSH2 0xE71 PUSH1 0x0 PUSH2 0x1C60 JUMP JUMPDEST PUSH2 0x13AE PUSH2 0x1B15 JUMP JUMPDEST PUSH2 0xE71 PUSH2 0x1CB0 JUMP JUMPDEST PUSH1 0xB PUSH1 0x20 MSTORE PUSH1 0x0 SWAP1 DUP2 MSTORE PUSH1 0x40 SWAP1 KECCAK256 DUP1 SLOAD PUSH1 0x1 DUP3 ADD SLOAD PUSH1 0x2 DUP4 ADD SLOAD PUSH1 0x3 DUP5 ADD DUP1 SLOAD SWAP4 SWAP5 PUSH1 0x1 PUSH1 0x1 PUSH1 0xA0 SHL SUB SWAP1 SWAP4 AND SWAP4 SWAP2 SWAP3 SWAP2 PUSH2 0x13F0 SWAP1 PUSH2 0x23D5 JUMP JUMPDEST DUP1 PUSH1 0x1F ADD PUSH1 0x20 DUP1 SWAP2 DIV MUL PUSH1 0x20 ADD PUSH1 0x40 MLOAD SWAP1 DUP2 ADD PUSH1 0x40 MSTORE DUP1 SWAP3 SWAP2 SWAP1 DUP2 DUP2 MSTORE PUSH1 0x20 ADD DUP3 DUP1 SLOAD PUSH2 0x141C SWAP1 PUSH2 0x23D5 JUMP JUMPDEST DUP1 ISZERO PUSH2 0x1469 JUMPI DUP1 PUSH1 0x1F LT PUSH2 0x143E JUMPI PUSH2 0x100 DUP1 DUP4 SLOAD DIV MUL DUP4 MSTORE SWAP2 PUSH1 0x20 ADD SWAP2 PUSH2 0x1469 JUMP JUMPDEST DUP3 ADD SWAP2 SWAP1 PUSH1 0x0 MSTORE PUSH1 0x20 PUSH1 0x0 KECCAK256 SWAP1 JUMPDEST DUP2 SLOAD DUP2 MSTORE SWAP1 PUSH1 0x1 ADD SWAP1 PUSH1 0x20 ADD DUP1 DUP4 GT PUSH2 0x144C JUMPI DUP3 SWAP1 SUB PUSH1 0x1F AND DUP3 ADD SWAP2 JUMPDEST POP POP POP POP POP SWAP1 DUP1 PUSH1 0x4 ADD DUP1 SLOAD PUSH2 0x147E SWAP1 PUSH2 0x23D5 JUMP JUMPDEST DUP1 PUSH1 0x1F ADD PUSH1 0x20 DUP1 SWAP2 DIV MUL PUSH1 0x20 ADD PUSH1 0x40 MLOAD SWAP1 DUP2 ADD PUSH1 0x40 MSTORE DUP1 SWAP3 SWAP2 SWAP1 DUP2 DUP2 MSTORE PUSH1 0x20 ADD DUP3 DUP1 SLOAD PUSH2 0x14AA SWAP1 PUSH2 0x23D5 JUMP JUMPDEST DUP1 ISZERO PUSH2 0x14F7 JUMPI DUP1 PUSH1 0x1F LT PUSH2 0x14CC JUMPI PUSH2 0x100 DUP1 DUP4 SLOAD DIV MUL DUP4 MSTORE SWAP2 PUSH1 0x20 ADD SWAP2 PUSH2 0x14F7 JUMP JUMPDEST DUP3 ADD SWAP2 SWAP1 PUSH1 0x0 MSTORE PUSH1 0x20 PUSH1 0x0 KECCAK256 SWAP1 JUMPDEST DUP2 SLOAD DUP2 MSTORE SWAP1 PUSH1 0x1 ADD SWAP1 PUSH1 0x20 ADD DUP1 DUP4 GT PUSH2 0x14DA JUMPI DUP3 SWAP1 SUB PUSH1 0x1F AND DUP3 ADD SWAP2 JUMPDEST POP POP POP POP PUSH1 0x5 DUP4 ADD SLOAD PUSH1 0x6 DUP5 ADD SLOAD PUSH1 0x7 DUP6 ADD SLOAD PUSH1 0x8 DUP7 ADD SLOAD PUSH1 0x9 DUP8 ADD SLOAD PUSH1 0xA SWAP1 SWAP8 ADD SLOAD SWAP6 SWAP7 PUSH1 0xFF SWAP5 DUP6 AND SWAP7 SWAP4 SWAP6 POP SWAP2 SWAP4 SWAP1 DUP2 AND SWAP3 AND DUP12 JUMP JUMPDEST PUSH1 0x1 PUSH1 0x1 PUSH1 0xA0 SHL SUB DUP2 AND PUSH1 0x0 SWAP1 DUP2 MSTORE PUSH1 0xF PUSH1 0x20 SWAP1 DUP2 MSTORE PUSH1 0x40 SWAP2 DUP3 SWAP1 KECCAK256 DUP1 SLOAD DUP4 MLOAD DUP2 DUP5 MUL DUP2 ADD DUP5 ADD SWAP1 SWAP5 MSTORE DUP1 DUP5 MSTORE PUSH1 0x60 SWAP4 SWAP3 DUP4 ADD DUP3 DUP3 DUP1 ISZERO PUSH2 0x158F JUMPI PUSH1 0x20 MUL DUP3 ADD SWAP2 SWAP1 PUSH1 0x0 MSTORE PUSH1 0x20 PUSH1 0x0 KECCAK256 SWAP1 JUMPDEST DUP2 SLOAD DUP2 MSTORE PUSH1 0x20 ADD SWAP1 PUSH1 0x1 ADD SWAP1 DUP1 DUP4 GT PUSH2 0x157B JUMPI JUMPDEST POP POP POP POP POP SWAP1 POP SWAP2 SWAP1 POP JUMP JUMPDEST PUSH2 0x15A3 PUSH2 0x1B15 JUMP JUMPDEST PUSH1 0x4 SWAP5 SWAP1 SWAP5 SSTORE PUSH1 0x5 SWAP3 SWAP1 SWAP3 SSTORE PUSH1 0x6 SSTORE PUSH1 0x7 SSTORE PUSH1 0x2 DUP1 SLOAD PUSH1 0x1 PUSH1 0x1 PUSH1 0xA0 SHL SUB SWAP1 SWAP3 AND PUSH2 0x100 MUL PUSH2 0x100 PUSH1 0x1 PUSH1 0xA8 SHL SUB NOT SWAP1 SWAP3 AND SWAP2 SWAP1 SWAP2 OR SWAP1 SSTORE JUMP JUMPDEST PUSH2 0x15E5 PUSH2 0x1B15 JUMP JUMPDEST PUSH1 0x1 PUSH1 0x1 PUSH1 0xA0 SHL SUB DUP3 AND PUSH1 0x0 DUP2 DUP2 MSTORE PUSH1 0xE PUSH1 0x20 SWAP1 DUP2 MSTORE PUSH1 0x40 SWAP2 DUP3 SWAP1 KECCAK256 DUP1 SLOAD PUSH1 0xFF NOT AND DUP6 ISZERO ISZERO SWAP1 DUP2 OR SWAP1 SWAP2 SSTORE SWAP2 MLOAD SWAP2 DUP3 MSTORE PUSH32 0x1964273D193FB2F4735C932D08BBDB5CBAAF807BB74A86B6F4BE09AF78D42C92 SWAP2 ADD PUSH2 0x7AF JUMP JUMPDEST CALLER PUSH1 0x0 SWAP1 DUP2 MSTORE PUSH1 0xE PUSH1 0x20 MSTORE PUSH1 0x40 SWAP1 KECCAK256 SLOAD PUSH1 0xFF AND DUP1 PUSH2 0x1665 JUMPI POP PUSH1 0x0 SLOAD PUSH1 0x1 PUSH1 0x1 PUSH1 0xA0 SHL SUB AND CALLER EQ JUMPDEST PUSH2 0x16A5 JUMPI PUSH1 0x40 MLOAD PUSH3 0x461BCD PUSH1 0xE5 SHL DUP2 MSTORE PUSH1 0x20 PUSH1 0x4 DUP3 ADD MSTORE PUSH1 0x11 PUSH1 0x24 DUP3 ADD MSTORE PUSH17 0x4E6F7420617574686F72697A6564204149 PUSH1 0x78 SHL PUSH1 0x44 DUP3 ADD MSTORE PUSH1 0x64 ADD PUSH2 0x74C JUMP JUMPDEST PUSH1 0x0 DUP3 DUP2 MSTORE PUSH1 0xB PUSH1 0x20 MSTORE PUSH1 0x40 DUP2 KECCAK256 PUSH1 0x5 ADD SLOAD PUSH1 0xFF AND PUSH1 0x3 DUP2 GT ISZERO PUSH2 0x16CB JUMPI PUSH2 0x16CB PUSH2 0x1E6E JUMP JUMPDEST EQ PUSH2 0x170F JUMPI PUSH1 0x40 MLOAD PUSH3 0x461BCD PUSH1 0xE5 SHL DUP2 MSTORE PUSH1 0x20 PUSH1 0x4 DUP3 ADD MSTORE PUSH1 0x14 PUSH1 0x24 DUP3 ADD MSTORE PUSH20 0x4368616C6C656E6765206E6F7420616374697665 PUSH1 0x60 SHL PUSH1 0x44 DUP3 ADD MSTORE PUSH1 0x64 ADD PUSH2 0x74C JUMP JUMPDEST PUSH1 0x0 DUP3 DUP2 MSTORE PUSH1 0xB PUSH1 0x20 MSTORE PUSH1 0x40 SWAP1 KECCAK256 PUSH1 0x3 ADD PUSH2 0x172A DUP3 DUP3 PUSH2 0x245D JUMP JUMPDEST POP PUSH1 0x0 DUP3 DUP2 MSTORE PUSH1 0xB PUSH1 0x20 MSTORE PUSH1 0x40 SWAP1 DUP2 SWAP1 KECCAK256 PUSH1 0x1 DUP2 ADD SLOAD PUSH1 0x9 SWAP1 SWAP2 ADD SLOAD SWAP2 MLOAD PUSH1 0x1 PUSH1 0x1 PUSH1 0xA0 SHL SUB SWAP1 SWAP2 AND SWAP2 DUP5 SWAP2 PUSH32 0x2045572326018AC04CF292B4443D536BD6C25C4D945E0B5E707382E73829F779 SWAP2 PUSH2 0x1783 SWAP2 DUP7 SWAP1 PUSH2 0x25B1 JUMP JUMPDEST PUSH1 0x40 MLOAD DUP1 SWAP2 SUB SWAP1 LOG3 POP POP JUMP JUMPDEST PUSH2 0x1797 PUSH2 0x1B15 JUMP JUMPDEST PUSH1 0x0 DUP6 DUP2 MSTORE PUSH1 0xC PUSH1 0x20 MSTORE PUSH1 0x40 SWAP1 KECCAK256 SLOAD ISZERO PUSH2 0x17E9 JUMPI PUSH1 0x40 MLOAD PUSH3 0x461BCD PUSH1 0xE5 SHL DUP2 MSTORE PUSH1 0x20 PUSH1 0x4 DUP3 ADD MSTORE PUSH1 0x13 PUSH1 0x24 DUP3 ADD MSTORE PUSH19 0x5374617220616C726561647920657869737473 PUSH1 0x68 SHL PUSH1 0x44 DUP3 ADD MSTORE PUSH1 0x64 ADD PUSH2 0x74C JUMP JUMPDEST PUSH1 0x40 MLOAD DUP1 PUSH2 0x100 ADD PUSH1 0x40 MSTORE DUP1 DUP7 DUP2 MSTORE PUSH1 0x20 ADD DUP6 DUP2 MSTORE PUSH1 0x20 ADD DUP5 DUP2 MSTORE PUSH1 0x20 ADD DUP4 DUP2 MSTORE PUSH1 0x20 ADD DUP3 PUSH1 0x3 DUP2 GT ISZERO PUSH2 0x181F JUMPI PUSH2 0x181F PUSH2 0x1E6E JUMP JUMPDEST DUP2 MSTORE PUSH1 0x20 ADD PUSH1 0x1 ISZERO ISZERO DUP2 MSTORE PUSH1 0x20 ADD PUSH1 0x0 DUP2 MSTORE PUSH1 0x20 ADD PUSH1 0x0 DUP2 MSTORE POP PUSH1 0xC PUSH1 0x0 DUP8 DUP2 MSTORE PUSH1 0x20 ADD SWAP1 DUP2 MSTORE PUSH1 0x20 ADD PUSH1 0x0 KECCAK256 PUSH1 0x0 DUP3 ADD MLOAD DUP2 PUSH1 0x0 ADD SSTORE PUSH1 0x20 DUP3 ADD MLOAD DUP2 PUSH1 0x1 ADD SSTORE PUSH1 0x40 DUP3 ADD MLOAD DUP2 PUSH1 0x2 ADD SSTORE PUSH1 0x60 DUP3 ADD MLOAD DUP2 PUSH1 0x3 ADD SSTORE PUSH1 0x80 DUP3 ADD MLOAD DUP2 PUSH1 0x4 ADD PUSH1 0x0 PUSH2 0x100 EXP DUP2 SLOAD DUP2 PUSH1 0xFF MUL NOT AND SWAP1 DUP4 PUSH1 0x3 DUP2 GT ISZERO PUSH2 0x189E JUMPI PUSH2 0x189E PUSH2 0x1E6E JUMP JUMPDEST MUL OR SWAP1 SSTORE POP PUSH1 0xA0 DUP3 ADD MLOAD PUSH1 0x4 DUP3 ADD DUP1 SLOAD SWAP2 ISZERO ISZERO PUSH2 0x100 MUL PUSH2 0xFF00 NOT SWAP1 SWAP3 AND SWAP2 SWAP1 SWAP2 OR SWAP1 SSTORE PUSH1 0xC0 DUP3 ADD MLOAD PUSH1 0x5 DUP3 ADD SSTORE PUSH1 0xE0 SWAP1 SWAP2 ADD MLOAD PUSH1 0x6 SWAP1 SWAP2 ADD SSTORE PUSH1 0x40 MLOAD DUP6 SWAP1 PUSH32 0x129587D9E08AD0CE02EAF47578BF568FDA838194AB25452B17963223B17435DD SWAP1 PUSH2 0x190E SWAP1 DUP8 SWAP1 DUP8 SWAP1 DUP7 SWAP1 PUSH2 0x25D2 JUMP JUMPDEST PUSH1 0x40 MLOAD DUP1 SWAP2 SUB SWAP1 LOG2 POP POP POP POP POP JUMP JUMPDEST PUSH2 0x1925 PUSH2 0x1B6F JUMP JUMPDEST CALLER PUSH1 0x0 SWAP1 DUP2 MSTORE PUSH1 0xA PUSH1 0x20 MSTORE PUSH1 0x40 SWAP1 KECCAK256 PUSH1 0x2 DUP2 ADD SLOAD PUSH1 0xFF AND PUSH2 0x197A JUMPI PUSH1 0x40 MLOAD PUSH3 0x461BCD PUSH1 0xE5 SHL DUP2 MSTORE PUSH1 0x20 PUSH1 0x4 DUP3 ADD MSTORE PUSH1 0xF PUSH1 0x24 DUP3 ADD MSTORE PUSH15 0x4E6F20616374697665207374616B65 PUSH1 0x88 SHL PUSH1 0x44 DUP3 ADD MSTORE PUSH1 0x64 ADD PUSH2 0x74C JUMP JUMPDEST PUSH1 0x1 DUP2 ADD SLOAD PUSH2 0x198C SWAP1 PUSH3 0x15180 PUSH2 0x2533 JUMP JUMPDEST TIMESTAMP GT PUSH2 0x19CF JUMPI PUSH1 0x40 MLOAD PUSH3 0x461BCD PUSH1 0xE5 SHL DUP2 MSTORE PUSH1 0x20 PUSH1 0x4 DUP3 ADD MSTORE PUSH1 0x12 PUSH1 0x24 DUP3 ADD MSTORE PUSH18 0x4D757374207761697420323420686F757273 PUSH1 0x70 SHL PUSH1 0x44 DUP3 ADD MSTORE PUSH1 0x64 ADD PUSH2 0x74C JUMP JUMPDEST DUP1 SLOAD PUSH1 0x2 DUP3 ADD DUP1 SLOAD PUSH1 0xFF NOT AND SWAP1 SSTORE PUSH1 0x0 PUSH1 0x3 DUP1 DUP5 ADD SLOAD PUSH1 0x0 SWAP1 DUP2 MSTORE PUSH1 0xB PUSH1 0x20 MSTORE PUSH1 0x40 SWAP1 KECCAK256 PUSH1 0x5 ADD SLOAD PUSH1 0xFF AND SWAP1 DUP2 GT ISZERO PUSH2 0x1A0A JUMPI PUSH2 0x1A0A PUSH2 0x1E6E JUMP JUMPDEST SUB PUSH2 0x1A31 JUMPI PUSH1 0x3 DUP3 ADD SLOAD PUSH1 0x0 SWAP1 DUP2 MSTORE PUSH1 0xB PUSH1 0x20 MSTORE PUSH1 0x40 SWAP1 KECCAK256 PUSH1 0x5 ADD DUP1 SLOAD PUSH1 0xFF NOT AND PUSH1 0x2 OR SWAP1 SSTORE JUMPDEST PUSH1 0x40 MLOAD CALLER SWAP1 DUP3 ISZERO PUSH2 0x8FC MUL SWAP1 DUP4 SWAP1 PUSH1 0x0 DUP2 DUP2 DUP2 DUP6 DUP9 DUP9 CALL SWAP4 POP POP POP POP ISZERO DUP1 ISZERO PUSH2 0x1A5E JUMPI RETURNDATASIZE PUSH1 0x0 DUP1 RETURNDATACOPY RETURNDATASIZE PUSH1 0x0 REVERT JUMPDEST POP PUSH1 0x40 MLOAD DUP2 DUP2 MSTORE CALLER SWAP1 PUSH32 0x23D6711A1D031134A36921253C75AA59E967D38E369AC625992824315E204F20 SWAP1 PUSH1 0x20 ADD PUSH1 0x40 MLOAD DUP1 SWAP2 SUB SWAP1 LOG2 POP POP PUSH2 0xE71 PUSH1 0x1 DUP1 SSTORE JUMP JUMPDEST PUSH2 0x1AA7 PUSH2 0x1B15 JUMP JUMPDEST PUSH1 0x1 PUSH1 0x1 PUSH1 0xA0 SHL SUB DUP2 AND PUSH2 0x1B0C JUMPI PUSH1 0x40 MLOAD PUSH3 0x461BCD PUSH1 0xE5 SHL DUP2 MSTORE PUSH1 0x20 PUSH1 0x4 DUP3 ADD MSTORE PUSH1 0x26 PUSH1 0x24 DUP3 ADD MSTORE PUSH32 0x4F776E61626C653A206E6577206F776E657220697320746865207A65726F2061 PUSH1 0x44 DUP3 ADD MSTORE PUSH6 0x646472657373 PUSH1 0xD0 SHL PUSH1 0x64 DUP3 ADD MSTORE PUSH1 0x84 ADD PUSH2 0x74C JUMP JUMPDEST PUSH2 0xB6C DUP2 PUSH2 0x1C60 JUMP JUMPDEST PUSH1 0x0 SLOAD PUSH1 0x1 PUSH1 0x1 PUSH1 0xA0 SHL SUB AND CALLER EQ PUSH2 0xE71 JUMPI PUSH1 0x40 MLOAD PUSH3 0x461BCD PUSH1 0xE5 SHL DUP2 MSTORE PUSH1 0x20 PUSH1 0x4 DUP3 ADD DUP2 SWAP1 MSTORE PUSH1 0x24 DUP3 ADD MSTORE PUSH32 0x4F776E61626C653A2063616C6C6572206973206E6F7420746865206F776E6572 PUSH1 0x44 DUP3 ADD MSTORE PUSH1 0x64 ADD PUSH2 0x74C JUMP JUMPDEST PUSH1 0x2 PUSH1 0x1 SLOAD SUB PUSH2 0x1BC1 JUMPI PUSH1 0x40 MLOAD PUSH3 0x461BCD PUSH1 0xE5 SHL DUP2 MSTORE PUSH1 0x20 PUSH1 0x4 DUP3 ADD MSTORE PUSH1 0x1F PUSH1 0x24 DUP3 ADD MSTORE PUSH32 0x5265656E7472616E637947756172643A207265656E7472616E742063616C6C00 PUSH1 0x44 DUP3 ADD MSTORE PUSH1 0x64 ADD PUSH2 0x74C JUMP JUMPDEST PUSH1 0x2 PUSH1 0x1 SSTORE JUMP JUMPDEST PUSH1 0x2 SLOAD PUSH1 0xFF AND ISZERO PUSH2 0xE71 JUMPI PUSH1 0x40 MLOAD PUSH3 0x461BCD PUSH1 0xE5 SHL DUP2 MSTORE PUSH1 0x20 PUSH1 0x4 DUP3 ADD MSTORE PUSH1 0x10 PUSH1 0x24 DUP3 ADD MSTORE PUSH16 0x14185D5CD8589B194E881C185D5CD959 PUSH1 0x82 SHL PUSH1 0x44 DUP3 ADD MSTORE PUSH1 0x64 ADD PUSH2 0x74C JUMP JUMPDEST PUSH2 0x1C16 PUSH2 0x1CED JUMP JUMPDEST PUSH1 0x2 DUP1 SLOAD PUSH1 0xFF NOT AND SWAP1 SSTORE PUSH32 0x5DB9EE0A495BF2E6FF9C91A7834C1BA4FDD244A5E8AA4E537BD38AEAE4B073AA CALLER JUMPDEST PUSH1 0x40 MLOAD PUSH1 0x1 PUSH1 0x1 PUSH1 0xA0 SHL SUB SWAP1 SWAP2 AND DUP2 MSTORE PUSH1 0x20 ADD PUSH1 0x40 MLOAD DUP1 SWAP2 SUB SWAP1 LOG1 JUMP JUMPDEST PUSH1 0x0 DUP1 SLOAD PUSH1 0x1 PUSH1 0x1 PUSH1 0xA0 SHL SUB DUP4 DUP2 AND PUSH1 0x1 PUSH1 0x1 PUSH1 0xA0 SHL SUB NOT DUP4 AND DUP2 OR DUP5 SSTORE PUSH1 0x40 MLOAD SWAP2 SWAP1 SWAP3 AND SWAP3 DUP4 SWAP2 PUSH32 0x8BE0079C531659141344CD1FD0A4F28419497F9722A3DAAFE3B4186F6B6457E0 SWAP2 SWAP1 LOG3 POP POP JUMP JUMPDEST PUSH2 0x1CB8 PUSH2 0x1BC8 JUMP JUMPDEST PUSH1 0x2 DUP1 SLOAD PUSH1 0xFF NOT AND PUSH1 0x1 OR SWAP1 SSTORE PUSH32 0x62E78CEA01BEE320CD4E420270B5EA74000D11B0C9F74754EBDBFC544B05A258 PUSH2 0x1C43 CALLER SWAP1 JUMP JUMPDEST PUSH1 0x2 SLOAD PUSH1 0xFF AND PUSH2 0xE71 JUMPI PUSH1 0x40 MLOAD PUSH3 0x461BCD PUSH1 0xE5 SHL DUP2 MSTORE PUSH1 0x20 PUSH1 0x4 DUP3 ADD MSTORE PUSH1 0x14 PUSH1 0x24 DUP3 ADD MSTORE PUSH20 0x14185D5CD8589B194E881B9BDD081C185D5CD959 PUSH1 0x62 SHL PUSH1 0x44 DUP3 ADD MSTORE PUSH1 0x64 ADD PUSH2 0x74C JUMP JUMPDEST PUSH1 0x40 MLOAD DUP1 PUSH2 0x100 ADD PUSH1 0x40 MSTORE DUP1 PUSH1 0x0 DUP2 MSTORE PUSH1 0x20 ADD PUSH1 0x0 DUP2 MSTORE PUSH1 0x20 ADD PUSH1 0x0 DUP2 MSTORE PUSH1 0x20 ADD PUSH1 0x0 DUP2 MSTORE PUSH1 0x20 ADD PUSH1 0x0 PUSH1 0x3 DUP2 GT ISZERO PUSH2 0x1D71 JUMPI PUSH2 0x1D71 PUSH2 0x1E6E JUMP JUMPDEST DUP2 MSTORE PUSH1 0x20 ADD PUSH1 0x0 ISZERO ISZERO DUP2 MSTORE PUSH1 0x20 ADD PUSH1 0x0 DUP2 MSTORE PUSH1 0x20 ADD PUSH1 0x0 DUP2 MSTORE POP SWAP1 JUMP JUMPDEST PUSH1 0x40 MLOAD DUP1 PUSH2 0x160 ADD PUSH1 0x40 MSTORE DUP1 PUSH1 0x0 DUP2 MSTORE PUSH1 0x20 ADD PUSH1 0x0 PUSH1 0x1 PUSH1 0x1 PUSH1 0xA0 SHL SUB AND DUP2 MSTORE PUSH1 0x20 ADD PUSH1 0x0 DUP2 MSTORE PUSH1 0x20 ADD PUSH1 0x60 DUP2 MSTORE PUSH1 0x20 ADD PUSH1 0x60 DUP2 MSTORE PUSH1 0x20 ADD PUSH1 0x0 PUSH1 0x3 DUP2 GT ISZERO PUSH2 0x1DD9 JUMPI PUSH2 0x1DD9 PUSH2 0x1E6E JUMP JUMPDEST DUP2 MSTORE PUSH1 0x20 ADD PUSH1 0x0 DUP2 MSTORE PUSH1 0x20 ADD PUSH1 0x0 DUP2 MSTORE PUSH1 0x20 ADD PUSH1 0x0 ISZERO ISZERO DUP2 MSTORE PUSH1 0x20 ADD PUSH1 0x0 DUP2 MSTORE PUSH1 0x20 ADD PUSH1 0x0 PUSH1 0x3 DUP2 GT ISZERO PUSH2 0x1E0F JUMPI PUSH2 0x1E0F PUSH2 0x1E6E JUMP JUMPDEST SWAP1 MSTORE SWAP1 JUMP JUMPDEST DUP1 CALLDATALOAD DUP1 ISZERO ISZERO DUP2 EQ PUSH2 0x1E24 JUMPI PUSH1 0x0 DUP1 REVERT JUMPDEST SWAP2 SWAP1 POP JUMP JUMPDEST PUSH1 0x0 DUP1 PUSH1 0x40 DUP4 DUP6 SUB SLT ISZERO PUSH2 0x1E3C JUMPI PUSH1 0x0 DUP1 REVERT JUMPDEST DUP3 CALLDATALOAD SWAP2 POP PUSH2 0x1E4C PUSH1 0x20 DUP5 ADD PUSH2 0x1E14 JUMP JUMPDEST SWAP1 POP SWAP3 POP SWAP3 SWAP1 POP JUMP JUMPDEST PUSH1 0x0 PUSH1 0x20 DUP3 DUP5 SUB SLT ISZERO PUSH2 0x1E67 JUMPI PUSH1 0x0 DUP1 REVERT JUMPDEST POP CALLDATALOAD SWAP2 SWAP1 POP JUMP JUMPDEST PUSH4 0x4E487B71 PUSH1 0xE0 SHL PUSH1 0x0 MSTORE PUSH1 0x21 PUSH1 0x4 MSTORE PUSH1 0x24 PUSH1 0x0 REVERT JUMPDEST PUSH1 0x4 DUP2 LT PUSH2 0xB6C JUMPI PUSH4 0x4E487B71 PUSH1 0xE0 SHL PUSH1 0x0 MSTORE PUSH1 0x21 PUSH1 0x4 MSTORE PUSH1 0x24 PUSH1 0x0 REVERT JUMPDEST PUSH2 0x1EAB DUP2 PUSH2 0x1E84 JUMP JUMPDEST SWAP1 MSTORE JUMP JUMPDEST PUSH1 0x0 PUSH2 0x100 DUP3 ADD SWAP1 POP DUP3 MLOAD DUP3 MSTORE PUSH1 0x20 DUP4 ADD MLOAD PUSH1 0x20 DUP4 ADD MSTORE PUSH1 0x40 DUP4 ADD MLOAD PUSH1 0x40 DUP4 ADD MSTORE PUSH1 0x60 DUP4 ADD MLOAD PUSH1 0x60 DUP4 ADD MSTORE PUSH1 0x80 DUP4 ADD MLOAD PUSH2 0x1EE8 DUP2 PUSH2 0x1E84 JUMP JUMPDEST DUP1 PUSH1 0x80 DUP5 ADD MSTORE POP PUSH1 0xA0 DUP4 ADD MLOAD ISZERO ISZERO PUSH1 0xA0 DUP4 ADD MSTORE PUSH1 0xC0 DUP4 ADD MLOAD PUSH1 0xC0 DUP4 ADD MSTORE PUSH1 0xE0 DUP4 ADD MLOAD PUSH1 0xE0 DUP4 ADD MSTORE SWAP3 SWAP2 POP POP JUMP JUMPDEST DUP1 CALLDATALOAD PUSH1 0x1 PUSH1 0x1 PUSH1 0xA0 SHL SUB DUP2 AND DUP2 EQ PUSH2 0x1E24 JUMPI PUSH1 0x0 DUP1 REVERT JUMPDEST PUSH1 0x0 DUP1 PUSH1 0x40 DUP4 DUP6 SUB SLT ISZERO PUSH2 0x1F3F JUMPI PUSH1 0x0 DUP1 REVERT JUMPDEST PUSH2 0x1F48 DUP4 PUSH2 0x1F15 JUMP JUMPDEST SWAP5 PUSH1 0x20 SWAP4 SWAP1 SWAP4 ADD CALLDATALOAD SWAP4 POP POP POP JUMP JUMPDEST PUSH1 0x0 DUP2 MLOAD DUP1 DUP5 MSTORE PUSH1 0x0 JUMPDEST DUP2 DUP2 LT ISZERO PUSH2 0x1F7C JUMPI PUSH1 0x20 DUP2 DUP6 ADD DUP2 ADD MLOAD DUP7 DUP4 ADD DUP3 ADD MSTORE ADD PUSH2 0x1F60 JUMP JUMPDEST POP PUSH1 0x0 PUSH1 0x20 DUP3 DUP7 ADD ADD MSTORE PUSH1 0x20 PUSH1 0x1F NOT PUSH1 0x1F DUP4 ADD AND DUP6 ADD ADD SWAP2 POP POP SWAP3 SWAP2 POP POP JUMP JUMPDEST PUSH1 0x20 DUP2 MSTORE DUP2 MLOAD PUSH1 0x20 DUP3 ADD MSTORE PUSH1 0x0 PUSH1 0x20 DUP4 ADD MLOAD PUSH2 0x1FC3 PUSH1 0x40 DUP5 ADD DUP3 PUSH1 0x1 PUSH1 0x1 PUSH1 0xA0 SHL SUB AND SWAP1 MSTORE JUMP JUMPDEST POP PUSH1 0x40 DUP4 ADD MLOAD PUSH1 0x60 DUP4 ADD MSTORE PUSH1 0x60 DUP4 ADD MLOAD PUSH2 0x160 DUP1 PUSH1 0x80 DUP6 ADD MSTORE PUSH2 0x1FEA PUSH2 0x180 DUP6 ADD DUP4 PUSH2 0x1F56 JUMP JUMPDEST SWAP2 POP PUSH1 0x80 DUP6 ADD MLOAD PUSH1 0x1F NOT DUP6 DUP5 SUB ADD PUSH1 0xA0 DUP7 ADD MSTORE PUSH2 0x2007 DUP4 DUP3 PUSH2 0x1F56 JUMP JUMPDEST SWAP3 POP POP PUSH1 0xA0 DUP6 ADD MLOAD PUSH2 0x201C PUSH1 0xC0 DUP7 ADD DUP3 PUSH2 0x1EA2 JUMP JUMPDEST POP PUSH1 0xC0 DUP6 ADD MLOAD PUSH1 0xE0 DUP6 ADD MSTORE PUSH1 0xE0 DUP6 ADD MLOAD PUSH2 0x100 DUP2 DUP2 DUP8 ADD MSTORE DUP1 DUP8 ADD MLOAD SWAP2 POP POP PUSH2 0x120 PUSH2 0x204B DUP2 DUP8 ADD DUP4 ISZERO ISZERO SWAP1 MSTORE JUMP JUMPDEST DUP7 ADD MLOAD PUSH2 0x140 DUP7 DUP2 ADD SWAP2 SWAP1 SWAP2 MSTORE DUP7 ADD MLOAD SWAP1 POP PUSH2 0x2069 DUP3 DUP7 ADD DUP3 PUSH2 0x1EA2 JUMP JUMPDEST POP SWAP1 SWAP5 SWAP4 POP POP POP POP JUMP JUMPDEST DUP1 CALLDATALOAD PUSH1 0x4 DUP2 LT PUSH2 0x1E24 JUMPI PUSH1 0x0 DUP1 REVERT JUMPDEST PUSH1 0x0 PUSH1 0x20 DUP3 DUP5 SUB SLT ISZERO PUSH2 0x2094 JUMPI PUSH1 0x0 DUP1 REVERT JUMPDEST PUSH2 0x209D DUP3 PUSH2 0x2073 JUMP JUMPDEST SWAP4 SWAP3 POP POP POP JUMP JUMPDEST PUSH1 0x0 PUSH2 0x100 DUP3 ADD SWAP1 POP DUP10 DUP3 MSTORE DUP9 PUSH1 0x20 DUP4 ADD MSTORE DUP8 PUSH1 0x40 DUP4 ADD MSTORE DUP7 PUSH1 0x60 DUP4 ADD MSTORE PUSH2 0x20CB DUP7 PUSH2 0x1E84 JUMP JUMPDEST PUSH1 0x80 DUP3 ADD SWAP6 SWAP1 SWAP6 MSTORE SWAP3 ISZERO ISZERO PUSH1 0xA0 DUP5 ADD MSTORE PUSH1 0xC0 DUP4 ADD SWAP2 SWAP1 SWAP2 MSTORE PUSH1 0xE0 SWAP1 SWAP2 ADD MSTORE SWAP5 SWAP4 POP POP POP POP JUMP JUMPDEST PUSH4 0x4E487B71 PUSH1 0xE0 SHL PUSH1 0x0 MSTORE PUSH1 0x41 PUSH1 0x4 MSTORE PUSH1 0x24 PUSH1 0x0 REVERT JUMPDEST PUSH1 0x0 DUP3 PUSH1 0x1F DUP4 ADD SLT PUSH2 0x2118 JUMPI PUSH1 0x0 DUP1 REVERT JUMPDEST DUP2 CALLDATALOAD PUSH8 0xFFFFFFFFFFFFFFFF DUP1 DUP3 GT ISZERO PUSH2 0x2133 JUMPI PUSH2 0x2133 PUSH2 0x20F1 JUMP JUMPDEST PUSH1 0x40 MLOAD PUSH1 0x1F DUP4 ADD PUSH1 0x1F NOT SWAP1 DUP2 AND PUSH1 0x3F ADD AND DUP2 ADD SWAP1 DUP3 DUP3 GT DUP2 DUP4 LT OR ISZERO PUSH2 0x215B JUMPI PUSH2 0x215B PUSH2 0x20F1 JUMP JUMPDEST DUP2 PUSH1 0x40 MSTORE DUP4 DUP2 MSTORE DUP7 PUSH1 0x20 DUP6 DUP9 ADD ADD GT ISZERO PUSH2 0x2174 JUMPI PUSH1 0x0 DUP1 REVERT JUMPDEST DUP4 PUSH1 0x20 DUP8 ADD PUSH1 0x20 DUP4 ADD CALLDATACOPY PUSH1 0x0 PUSH1 0x20 DUP6 DUP4 ADD ADD MSTORE DUP1 SWAP5 POP POP POP POP POP SWAP3 SWAP2 POP POP JUMP JUMPDEST PUSH1 0x0 DUP1 PUSH1 0x0 PUSH1 0x60 DUP5 DUP7 SUB SLT ISZERO PUSH2 0x21A9 JUMPI PUSH1 0x0 DUP1 REVERT JUMPDEST DUP4 CALLDATALOAD SWAP3 POP PUSH1 0x20 DUP5 ADD CALLDATALOAD PUSH8 0xFFFFFFFFFFFFFFFF DUP2 GT ISZERO PUSH2 0x21C7 JUMPI PUSH1 0x0 DUP1 REVERT JUMPDEST PUSH2 0x21D3 DUP7 DUP3 DUP8 ADD PUSH2 0x2107 JUMP JUMPDEST SWAP3 POP POP PUSH2 0x21E2 PUSH1 0x40 DUP6 ADD PUSH2 0x1E14 JUMP JUMPDEST SWAP1 POP SWAP3 POP SWAP3 POP SWAP3 JUMP JUMPDEST DUP12 DUP2 MSTORE PUSH1 0x1 PUSH1 0x1 PUSH1 0xA0 SHL SUB DUP12 AND PUSH1 0x20 DUP3 ADD MSTORE PUSH1 0x40 DUP2 ADD DUP11 SWAP1 MSTORE PUSH2 0x160 PUSH1 0x60 DUP3 ADD DUP2 SWAP1 MSTORE PUSH1 0x0 SWAP1 PUSH2 0x221D DUP4 DUP3 ADD DUP13 PUSH2 0x1F56 JUMP JUMPDEST SWAP1 POP DUP3 DUP2 SUB PUSH1 0x80 DUP5 ADD MSTORE PUSH2 0x2231 DUP2 DUP12 PUSH2 0x1F56 JUMP JUMPDEST SWAP2 POP POP PUSH2 0x223D DUP9 PUSH2 0x1E84 JUMP JUMPDEST DUP8 PUSH1 0xA0 DUP4 ADD MSTORE DUP7 PUSH1 0xC0 DUP4 ADD MSTORE DUP6 PUSH1 0xE0 DUP4 ADD MSTORE DUP5 ISZERO ISZERO PUSH2 0x100 DUP4 ADD MSTORE DUP4 PUSH2 0x120 DUP4 ADD MSTORE PUSH2 0x2268 DUP4 PUSH2 0x1E84 JUMP JUMPDEST DUP3 PUSH2 0x140 DUP4 ADD MSTORE SWAP13 SWAP12 POP POP POP POP POP POP POP POP POP POP POP POP JUMP JUMPDEST PUSH1 0x0 PUSH1 0x20 DUP3 DUP5 SUB SLT ISZERO PUSH2 0x2291 JUMPI PUSH1 0x0 DUP1 REVERT JUMPDEST PUSH2 0x209D DUP3 PUSH2 0x1F15 JUMP JUMPDEST PUSH1 0x20 DUP1 DUP3 MSTORE DUP3 MLOAD DUP3 DUP3 ADD DUP2 SWAP1 MSTORE PUSH1 0x0 SWAP2 SWAP1 DUP5 DUP3 ADD SWAP1 PUSH1 0x40 DUP6 ADD SWAP1 DUP5 JUMPDEST DUP2 DUP2 LT ISZERO PUSH2 0x22D2 JUMPI DUP4 MLOAD DUP4 MSTORE SWAP3 DUP5 ADD SWAP3 SWAP2 DUP5 ADD SWAP2 PUSH1 0x1 ADD PUSH2 0x22B6 JUMP JUMPDEST POP SWAP1 SWAP7 SWAP6 POP POP POP POP POP POP JUMP JUMPDEST PUSH1 0x0 DUP1 PUSH1 0x0 DUP1 PUSH1 0x0 PUSH1 0xA0 DUP7 DUP9 SUB SLT ISZERO PUSH2 0x22F6 JUMPI PUSH1 0x0 DUP1 REVERT JUMPDEST DUP6 CALLDATALOAD SWAP5 POP PUSH1 0x20 DUP7 ADD CALLDATALOAD SWAP4 POP PUSH1 0x40 DUP7 ADD CALLDATALOAD SWAP3 POP PUSH1 0x60 DUP7 ADD CALLDATALOAD SWAP2 POP PUSH2 0x231B PUSH1 0x80 DUP8 ADD PUSH2 0x1F15 JUMP JUMPDEST SWAP1 POP SWAP3 SWAP6 POP SWAP3 SWAP6 SWAP1 SWAP4 POP JUMP JUMPDEST PUSH1 0x0 DUP1 PUSH1 0x40 DUP4 DUP6 SUB SLT ISZERO PUSH2 0x233A JUMPI PUSH1 0x0 DUP1 REVERT JUMPDEST PUSH2 0x2343 DUP4 PUSH2 0x1F15 JUMP JUMPDEST SWAP2 POP PUSH2 0x1E4C PUSH1 0x20 DUP5 ADD PUSH2 0x1E14 JUMP JUMPDEST PUSH1 0x0 DUP1 PUSH1 0x40 DUP4 DUP6 SUB SLT ISZERO PUSH2 0x2364 JUMPI PUSH1 0x0 DUP1 REVERT JUMPDEST DUP3 CALLDATALOAD SWAP2 POP PUSH1 0x20 DUP4 ADD CALLDATALOAD PUSH8 0xFFFFFFFFFFFFFFFF DUP2 GT ISZERO PUSH2 0x2382 JUMPI PUSH1 0x0 DUP1 REVERT JUMPDEST PUSH2 0x238E DUP6 DUP3 DUP7 ADD PUSH2 0x2107 JUMP JUMPDEST SWAP2 POP POP SWAP3 POP SWAP3 SWAP1 POP JUMP JUMPDEST PUSH1 0x0 DUP1 PUSH1 0x0 DUP1 PUSH1 0x0 PUSH1 0xA0 DUP7 DUP9 SUB SLT ISZERO PUSH2 0x23B0 JUMPI PUSH1 0x0 DUP1 REVERT JUMPDEST DUP6 CALLDATALOAD SWAP5 POP PUSH1 0x20 DUP7 ADD CALLDATALOAD SWAP4 POP PUSH1 0x40 DUP7 ADD CALLDATALOAD SWAP3 POP PUSH1 0x60 DUP7 ADD CALLDATALOAD SWAP2 POP PUSH2 0x231B PUSH1 0x80 DUP8 ADD PUSH2 0x2073 JUMP JUMPDEST PUSH1 0x1 DUP2 DUP2 SHR SWAP1 DUP3 AND DUP1 PUSH2 0x23E9 JUMPI PUSH1 0x7F DUP3 AND SWAP2 POP JUMPDEST PUSH1 0x20 DUP3 LT DUP2 SUB PUSH2 0x2409 JUMPI PUSH4 0x4E487B71 PUSH1 0xE0 SHL PUSH1 0x0 MSTORE PUSH1 0x22 PUSH1 0x4 MSTORE PUSH1 0x24 PUSH1 0x0 REVERT JUMPDEST POP SWAP2 SWAP1 POP JUMP JUMPDEST PUSH1 0x1F DUP3 GT ISZERO PUSH2 0x138F JUMPI PUSH1 0x0 DUP2 DUP2 MSTORE PUSH1 0x20 DUP2 KECCAK256 PUSH1 0x1F DUP6 ADD PUSH1 0x5 SHR DUP2 ADD PUSH1 0x20 DUP7 LT ISZERO PUSH2 0x2436 JUMPI POP DUP1 JUMPDEST PUSH1 0x1F DUP6 ADD PUSH1 0x5 SHR DUP3 ADD SWAP2 POP JUMPDEST DUP2 DUP2 LT ISZERO PUSH2 0x2455 JUMPI DUP3 DUP2 SSTORE PUSH1 0x1 ADD PUSH2 0x2442 JUMP JUMPDEST POP POP POP POP POP POP JUMP JUMPDEST DUP2 MLOAD PUSH8 0xFFFFFFFFFFFFFFFF DUP2 GT ISZERO PUSH2 0x2477 JUMPI PUSH2 0x2477 PUSH2 0x20F1 JUMP JUMPDEST PUSH2 0x248B DUP2 PUSH2 0x2485 DUP5 SLOAD PUSH2 0x23D5 JUMP JUMPDEST DUP5 PUSH2 0x240F JUMP JUMPDEST PUSH1 0x20 DUP1 PUSH1 0x1F DUP4 GT PUSH1 0x1 DUP2 EQ PUSH2 0x24C0 JUMPI PUSH1 0x0 DUP5 ISZERO PUSH2 0x24A8 JUMPI POP DUP6 DUP4 ADD MLOAD JUMPDEST PUSH1 0x0 NOT PUSH1 0x3 DUP7 SWAP1 SHL SHR NOT AND PUSH1 0x1 DUP6 SWAP1 SHL OR DUP6 SSTORE PUSH2 0x2455 JUMP JUMPDEST PUSH1 0x0 DUP6 DUP2 MSTORE PUSH1 0x20 DUP2 KECCAK256 PUSH1 0x1F NOT DUP7 AND SWAP2 JUMPDEST DUP3 DUP2 LT ISZERO PUSH2 0x24EF JUMPI DUP9 DUP7 ADD MLOAD DUP3 SSTORE SWAP5 DUP5 ADD SWAP5 PUSH1 0x1 SWAP1 SWAP2 ADD SWAP1 DUP5 ADD PUSH2 0x24D0 JUMP JUMPDEST POP DUP6 DUP3 LT ISZERO PUSH2 0x250D JUMPI DUP8 DUP6 ADD MLOAD PUSH1 0x0 NOT PUSH1 0x3 DUP9 SWAP1 SHL PUSH1 0xF8 AND SHR NOT AND DUP2 SSTORE JUMPDEST POP POP POP POP POP PUSH1 0x1 SWAP1 DUP2 SHL ADD SWAP1 SSTORE POP JUMP JUMPDEST PUSH4 0x4E487B71 PUSH1 0xE0 SHL PUSH1 0x0 MSTORE PUSH1 0x11 PUSH1 0x4 MSTORE PUSH1 0x24 PUSH1 0x0 REVERT JUMPDEST DUP1 DUP3 ADD DUP1 DUP3 GT ISZERO PUSH2 0x2546 JUMPI PUSH2 0x2546 PUSH2 0x251D JUMP JUMPDEST SWAP3 SWAP2 POP POP JUMP JUMPDEST DUP1 DUP3 MUL DUP2 ISZERO DUP3 DUP3 DIV DUP5 EQ OR PUSH2 0x2546 JUMPI PUSH2 0x2546 PUSH2 0x251D JUMP JUMPDEST PUSH1 0x0 DUP3 PUSH2 0x2580 JUMPI PUSH4 0x4E487B71 PUSH1 0xE0 SHL PUSH1 0x0 MSTORE PUSH1 0x12 PUSH1 0x4 MSTORE PUSH1 0x24 PUSH1 0x0 REVERT JUMPDEST POP DIV SWAP1 JUMP JUMPDEST DUP2 DUP2 SUB DUP2 DUP2 GT ISZERO PUSH2 0x2546 JUMPI PUSH2 0x2546 PUSH2 0x251D JUMP JUMPDEST PUSH1 0x0 PUSH1 0x1 DUP3 ADD PUSH2 0x25AA JUMPI PUSH2 0x25AA PUSH2 0x251D JUMP JUMPDEST POP PUSH1 0x1 ADD SWAP1 JUMP JUMPDEST DUP3 DUP2 MSTORE PUSH1 0x40 PUSH1 0x20 DUP3 ADD MSTORE PUSH1 0x0 PUSH2 0x25CA PUSH1 0x40 DUP4 ADD DUP5 PUSH2 0x1F56 JUMP JUMPDEST SWAP5 SWAP4 POP POP POP POP JUMP JUMPDEST DUP4 DUP2 MSTORE PUSH1 0x20 DUP2 ADD DUP4 SWAP1 MSTORE PUSH1 0x60 DUP2 ADD PUSH2 0x25E9 DUP4 PUSH2 0x1E84 JUMP JUMPDEST DUP3 PUSH1 0x40 DUP4 ADD MSTORE SWAP5 SWAP4 POP POP POP POP JUMP INVALID LOG2 PUSH5 0x6970667358 0x22 SLT KECCAK256 COINBASE 0xF9 SWAP9 0xEE 0xAC 0xDE 0xEA 0x26 LT 0xC7 0xD 0x22 CREATE2 0xF9 COINBASE 0x4E PUSH26 0xDADA0DE49F3A976F6BF35632F6F91164736F6C63430008130033 "},"methodIdentifiers":{"addStar(uint256,int256,int256,uint256,uint8)":"d1ba26f9","authorizeAI(address,bool)":"b4986922","authorizedAI(address)":"9e32aaa3","challenges(uint256)":"8f1d3776","completeChallenge(uint256,string,bool)":"6a60bd00","createStake(uint256)":"1bf6ddae","emergencyWithdraw()":"db2e21bc","getChallengeDetails(uint256)":"3d40a54f","getPlayerChallengeHistory(address)":"929a1923","getStarDetails(uint256)":"3081eafe","getStarMultiplier(uint8)":"4b0ea4a6","houseFeePercent()":"3e27fee2","maximumStake()":"b5c6b453","minimumStake()":"ec5ffac2","oracleContract()":"bece7532","owner()":"8da5cb5b","pause()":"8456cb59","paused()":"5c975abb","playerChallengeHistory(address,uint256)":"358b3855","playerStakes(address)":"b7d44644","playerStats(address)":"cdafbbb6","renounceOwnership()":"715018a6","setGameParameters(uint256,uint256,uint256,uint256,address)":"a66d6dc0","stars(uint256)":"685c6342","storageWallet()":"619f3f61","submitChallenge(uint256,string)":"bbed7fdb","transferOwnership(address)":"f2fde38b","unpause()":"3f4ba83a","updateStar(uint256,bool)":"0355c892","winMultiplier()":"cf24141a","withdrawBalance()":"5fd8c710"}}}}}