{
	"data": {
		"bytecode": {
			"linkReferences": {},
			"object": "60806040526000600560146101000a81548160ff0219169083151502179055503480156200002c57600080fd5b506200004d620000416200005a60201b60201c565b6200006260201b60201c565b6001808190555062000126565b600033905090565b60008060009054906101000a900473ffffffffffffffffffffffffffffffffffffffff169050816000806101000a81548173ffffffffffffffffffffffffffffffffffffffff021916908373ffffffffffffffffffffffffffffffffffffffff1602179055508173ffffffffffffffffffffffffffffffffffffffff168173ffffffffffffffffffffffffffffffffffffffff167f8be0079c531659141344cd1fd0a4f28419497f9722a3daafe3b4186f6b6457e060405160405180910390a35050565b615c1e80620001366000396000f3fe608060405234801561001057600080fd5b50600436106101cf5760003560e01c806373f8fd4b116101045780638e6c0c76116100a2578063e83b022711610071578063e83b022714610591578063f2fde38b146105c1578063f5dab711146105dd578063f7c618c11461060e576101cf565b80638e6c0c76146104d0578063bc8e9b9b14610501578063bf32d09214610531578063d856853414610561576101cf565b806386702e75116100de57806386702e75146104345780638899a3551461046457806389ee3e97146104945780638da5cb5b146104b2576101cf565b806373f8fd4b146103a45780637c7bf49b146103d457806384ec465214610404576101cf565b80633c7e89871161017157806352de4ee51161014b57806352de4ee5146103425780635fc48c96146103725780636ee2e2181461037c578063715018a61461039a576101cf565b80633c7e8987146102d65780634275002014610306578063501cf75114610324576101cf565b80631f69565f116101ad5780631f69565f1461022857806326224c6414610258578063291c73c3146102885780632a5c792a146102b8576101cf565b806309f7a4e5146101d457806316cd57f1146101f0578063177ab3211461020c575b600080fd5b6101ee60048036038101906101e99190613aae565b61062c565b005b61020a60048036038101906102059190613aee565b610935565b005b61022660048036038101906102219190613b41565b610a9d565b005b610242600480360381019061023d9190613b41565b610ae9565b60405161024f9190613bd7565b60405180910390f35b610272600480360381019061026d9190613b41565b610b83565b60405161027f9190613c0b565b60405180910390f35b6102a2600480360381019061029d9190613c52565b610b9b565b6040516102af9190613cae565b60405180910390f35b6102c0610be1565b6040516102cd9190613d87565b60405180910390f35b6102f060048036038101906102eb9190613dd5565b610d8b565b6040516102fd9190613ecf565b60405180910390f35b61030e610f05565b60405161031b9190613f00565b60405180910390f35b61032c610f18565b6040516103399190613f2a565b60405180910390f35b61035c60048036038101906103579190613b41565b610f3e565b6040516103699190614003565b60405180910390f35b61037a610ffb565b005b610384611836565b6040516103919190613f2a565b60405180910390f35b6103a261185c565b005b6103be60048036038101906103b99190614025565b611870565b6040516103cb9190613c0b565b60405180910390f35b6103ee60048036038101906103e991906141ad565b611972565b6040516103fb91906142b8565b60405180910390f35b61041e600480360381019061041991906142da565b611cfb565b60405161042b9190613f00565b60405180910390f35b61044e60048036038101906104499190613aee565b612435565b60405161045b9190613f00565b60405180910390f35b61047e6004803603810190610479919061432d565b612916565b60405161048b9190613f00565b60405180910390f35b61049c612d53565b6040516104a99190613f2a565b60405180910390f35b6104ba612d79565b6040516104c79190613f2a565b60405180910390f35b6104ea60048036038101906104e59190614394565b612da2565b6040516104f892919061441e565b60405180910390f35b61051b60048036038101906105169190614025565b612e7b565b6040516105289190613f00565b60405180910390f35b61054b60048036038101906105469190614025565b612eaa565b6040516105589190613f00565b60405180910390f35b61057b60048036038101906105769190614025565b613196565b6040516105889190613f00565b60405180910390f35b6105ab60048036038101906105a69190614503565b61322a565b6040516105b89190613cae565b60405180910390f35b6105db60048036038101906105d69190613b41565b613776565b005b6105f760048036038101906105f29190613b41565b6137f9565b60405161060592919061456e565b60405180910390f35b61061661383a565b6040516106239190613f2a565b60405180910390f35b8067ffffffffffffffff16600960003373ffffffffffffffffffffffffffffffffffffffff1673ffffffffffffffffffffffffffffffffffffffff1681526020019081526020016000205410156106b8576040517f08c379a00000000000000000000000000000000000000000000000000000000081526004016106af906145f4565b60405180910390fd5b600260009054906101000a900473ffffffffffffffffffffffffffffffffffffffff1673ffffffffffffffffffffffffffffffffffffffff168273ffffffffffffffffffffffffffffffffffffffff1614806107615750600460009054906101000a900473ffffffffffffffffffffffffffffffffffffffff1673ffffffffffffffffffffffffffffffffffffffff168273ffffffffffffffffffffffffffffffffffffffff16145b6107a0576040517f08c379a000000000000000000000000000000000000000000000000000000000815260040161079790614660565b60405180910390fd5b60008067ffffffffffffffff8111156107bc576107bb61406a565b5b6040519080825280602002602001820160405280156107ea5781602001602082028036833780820191505090505b50905060008061016773ffffffffffffffffffffffffffffffffffffffff1663acb9cff98686866040518463ffffffff1660e01b815260040161082f9392919061468f565b60408051808303816000875af115801561084d573d6000803e3d6000fd5b505050506040513d601f19601f820116820180604052508101906108719190614718565b915091506016820361092e578367ffffffffffffffff16600960003373ffffffffffffffffffffffffffffffffffffffff1673ffffffffffffffffffffffffffffffffffffffff16815260200190815260200160002060008282546108d69190614787565b925050819055508473ffffffffffffffffffffffffffffffffffffffff167f534e4594ebc4f3022652e6f8361cf4588ddd992f9178d5c4f86650131cc899ed85856040516109259291906147bb565b60405180910390a25b5050505050565b61093d613860565b600660008473ffffffffffffffffffffffffffffffffffffffff1673ffffffffffffffffffffffffffffffffffffffff16815260200190815260200160002060000160049054906101000a900460ff166109cc576040517f08c379a00000000000000000000000000000000000000000000000000000000081526004016109c390614837565b60405180910390fd5b600061016773ffffffffffffffffffffffffffffffffffffffff166312aedc7f853086866040518563ffffffff1660e01b8152600401610a0f9493929190614857565b6020604051808303816000875af1158015610a2e573d6000803e3d6000fd5b505050506040513d601f19601f82011682018060405250810190610a52919061489c565b905060168114610a97576040517f08c379a0000000000000000000000000000000000000000000000000000000008152600401610a8e90614915565b60405180910390fd5b50505050565b610aa5613860565b80600560006101000a81548173ffffffffffffffffffffffffffffffffffffffff021916908373ffffffffffffffffffffffffffffffffffffffff16021790555050565b610af16139aa565b600660008373ffffffffffffffffffffffffffffffffffffffff1673ffffffffffffffffffffffffffffffffffffffff1681526020019081526020016000206040518060400160405290816000820160009054906101000a900463ffffffff1663ffffffff1663ffffffff1681526020016000820160049054906101000a900460ff1615151515815250509050919050565b60096020528060005260406000206000915090505481565b600a6020528160005260406000208181548110610bb757600080fd5b9060005260206000209060049182820401919006600802915091509054906101000a900460070b81565b60606000600367ffffffffffffffff811115610c0057610bff61406a565b5b604051908082528060200260200182016040528015610c2e5781602001602082028036833780820191505090505b509050600260009054906101000a900473ffffffffffffffffffffffffffffffffffffffff1681600081518110610c6857610c67614935565b5b602002602001019073ffffffffffffffffffffffffffffffffffffffff16908173ffffffffffffffffffffffffffffffffffffffff1681525050600360009054906101000a900473ffffffffffffffffffffffffffffffffffffffff1681600181518110610cd957610cd8614935565b5b602002602001019073ffffffffffffffffffffffffffffffffffffffff16908173ffffffffffffffffffffffffffffffffffffffff1681525050600460009054906101000a900473ffffffffffffffffffffffffffffffffffffffff1681600281518110610d4a57610d49614935565b5b602002602001019073ffffffffffffffffffffffffffffffffffffffff16908173ffffffffffffffffffffffffffffffffffffffff16815250508091505090565b610d936139cc565b60086000600360009054906101000a900473ffffffffffffffffffffffffffffffffffffffff1673ffffffffffffffffffffffffffffffffffffffff1673ffffffffffffffffffffffffffffffffffffffff16815260200190815260200160002060008360070b60070b81526020019081526020016000206040518060400160405290816000820160009054906101000a900473ffffffffffffffffffffffffffffffffffffffff1673ffffffffffffffffffffffffffffffffffffffff1673ffffffffffffffffffffffffffffffffffffffff168152602001600182018054610e7c90614993565b80601f0160208091040260200160405190810160405280929190818152602001828054610ea890614993565b8015610ef55780601f10610eca57610100808354040283529160200191610ef5565b820191906000526020600020905b815481529060010190602001808311610ed857829003601f168201915b5050505050815250509050919050565b600560149054906101000a900460ff1681565b600260009054906101000a900473ffffffffffffffffffffffffffffffffffffffff1681565b6060600a60008373ffffffffffffffffffffffffffffffffffffffff1673ffffffffffffffffffffffffffffffffffffffff168152602001908152602001600020805480602002602001604051908101604052809291908181526020018280548015610fef57602002820191906000526020600020906000905b82829054906101000a900460070b60070b81526020019060080190602082600701049283019260010382029150808411610fb85790505b50505050509050919050565b611003613860565b600560149054906101000a900460ff1615611053576040517f08c379a000000000000000000000000000000000000000000000000000000000815260040161104a90614a10565b60405180910390fd5b306040516020016110649190614acf565b6040516020818303038152906040528051906020012060001c600260006101000a81548173ffffffffffffffffffffffffffffffffffffffff021916908373ffffffffffffffffffffffffffffffffffffffff160217905550600061016773ffffffffffffffffffffffffffffffffffffffff1663e7b1938f600260009054906101000a900473ffffffffffffffffffffffffffffffffffffffff1669d3c21bcecceda100000060126040518463ffffffff1660e01b815260040161112b93929190614c0d565b6020604051808303816000875af115801561114a573d6000803e3d6000fd5b505050506040513d601f19601f8201168201806040525081019061116e919061489c565b9050601681146111b3576040517f08c379a00000000000000000000000000000000000000000000000000000000081526004016111aa90614cb6565b60405180910390fd5b6040518060400160405280601263ffffffff1681526020016001151581525060066000600260009054906101000a900473ffffffffffffffffffffffffffffffffffffffff1673ffffffffffffffffffffffffffffffffffffffff1673ffffffffffffffffffffffffffffffffffffffff16815260200190815260200160002060008201518160000160006101000a81548163ffffffff021916908363ffffffff16021790555060208201518160000160046101000a81548160ff0219169083151502179055509050503060405160200161128e9190614d22565b6040516020818303038152906040528051906020012060001c600360006101000a81548173ffffffffffffffffffffffffffffffffffffffff021916908373ffffffffffffffffffffffffffffffffffffffff160217905550600061016773ffffffffffffffffffffffffffffffffffffffff1663b65774e3600360009054906101000a900473ffffffffffffffffffffffffffffffffffffffff166040518263ffffffff1660e01b81526004016113469190614de0565b6020604051808303816000875af1158015611365573d6000803e3d6000fd5b505050506040513d601f19601f82011682018060405250810190611389919061489c565b9050601681146113ce576040517f08c379a00000000000000000000000000000000000000000000000000000000081526004016113c590614e6d565b60405180910390fd5b6040518060400160405280600063ffffffff1681526020016001151581525060066000600360009054906101000a900473ffffffffffffffffffffffffffffffffffffffff1673ffffffffffffffffffffffffffffffffffffffff1673ffffffffffffffffffffffffffffffffffffffff16815260200190815260200160002060008201518160000160006101000a81548163ffffffff021916908363ffffffff16021790555060208201518160000160046101000a81548160ff021916908315150217905550905050306040516020016114a99190614ed9565b6040516020818303038152906040528051906020012060001c600460006101000a81548173ffffffffffffffffffffffffffffffffffffffff021916908373ffffffffffffffffffffffffffffffffffffffff160217905550600061016773ffffffffffffffffffffffffffffffffffffffff1663e7b1938f600460009054906101000a900473ffffffffffffffffffffffffffffffffffffffff166a084595161401484a00000060126040518463ffffffff1660e01b815260040161157193929190614fd2565b6020604051808303816000875af1158015611590573d6000803e3d6000fd5b505050506040513d601f19601f820116820180604052508101906115b4919061489c565b9050601681146115f9576040517f08c379a00000000000000000000000000000000000000000000000000000000081526004016115f09061507b565b60405180910390fd5b6040518060400160405280601263ffffffff1681526020016001151581525060066000600460009054906101000a900473ffffffffffffffffffffffffffffffffffffffff1673ffffffffffffffffffffffffffffffffffffffff1673ffffffffffffffffffffffffffffffffffffffff16815260200190815260200160002060008201518160000160006101000a81548163ffffffff021916908363ffffffff16021790555060208201518160000160046101000a81548160ff0219169083151502179055509050506001600560146101000a81548160ff021916908315150217905550600260009054906101000a900473ffffffffffffffffffffffffffffffffffffffff1673ffffffffffffffffffffffffffffffffffffffff167fa70bdf63cd80963f56338c91ff4c68eed840acc259005d5aaf8f3df97506d9276001604051611747919061509b565b60405180910390a2600360009054906101000a900473ffffffffffffffffffffffffffffffffffffffff1673ffffffffffffffffffffffffffffffffffffffff167fa70bdf63cd80963f56338c91ff4c68eed840acc259005d5aaf8f3df97506d92760006040516117b891906150dc565b60405180910390a2600460009054906101000a900473ffffffffffffffffffffffffffffffffffffffff1673ffffffffffffffffffffffffffffffffffffffff167fa70bdf63cd80963f56338c91ff4c68eed840acc259005d5aaf8f3df97506d9276001604051611829919061511d565b60405180910390a2505050565b600360009054906101000a900473ffffffffffffffffffffffffffffffffffffffff1681565b611864613860565b61186e60006138de565b565b6000600260009054906101000a900473ffffffffffffffffffffffffffffffffffffffff1673ffffffffffffffffffffffffffffffffffffffff168273ffffffffffffffffffffffffffffffffffffffff16148061191b5750600460009054906101000a900473ffffffffffffffffffffffffffffffffffffffff1673ffffffffffffffffffffffffffffffffffffffff168273ffffffffffffffffffffffffffffffffffffffff16145b1561196757600960008473ffffffffffffffffffffffffffffffffffffffff1673ffffffffffffffffffffffffffffffffffffffff16815260200190815260200160002054905061196c565b600090505b92915050565b60606000825167ffffffffffffffff8111156119915761199061406a565b5b6040519080825280602002602001820160405280156119bf5781602001602082028036833780820191505090505b50905060005b8351811015611cf057600760008673ffffffffffffffffffffffffffffffffffffffff1673ffffffffffffffffffffffffffffffffffffffff1681526020019081526020016000206000858381518110611a2257611a21614935565b5b602002602001015173ffffffffffffffffffffffffffffffffffffffff1673ffffffffffffffffffffffffffffffffffffffff16815260200190815260200160002060009054906101000a900460ff16158015611ae5575060066000858381518110611a9157611a90614935565b5b602002602001015173ffffffffffffffffffffffffffffffffffffffff1673ffffffffffffffffffffffffffffffffffffffff16815260200190815260200160002060000160049054906101000a900460ff165b15611cdd57600061016773ffffffffffffffffffffffffffffffffffffffff166349146bde87878581518110611b1e57611b1d614935565b5b60200260200101516040518363ffffffff1660e01b8152600401611b4392919061515e565b6020604051808303816000875af1158015611b62573d6000803e3d6000fd5b505050506040513d601f19601f82011682018060405250810190611b86919061489c565b905060168103611cdb576001600760008873ffffffffffffffffffffffffffffffffffffffff1673ffffffffffffffffffffffffffffffffffffffff1681526020019081526020016000206000878581518110611be657611be5614935565b5b602002602001015173ffffffffffffffffffffffffffffffffffffffff1673ffffffffffffffffffffffffffffffffffffffff16815260200190815260200160002060006101000a81548160ff021916908315150217905550848281518110611c5257611c51614935565b5b602002602001015173ffffffffffffffffffffffffffffffffffffffff168673ffffffffffffffffffffffffffffffffffffffff167f6ba8f0debf54740777149db87bd08717b4dbdcb36073d53cdc784019dafac16f60405160405180910390a36001838381518110611cc857611cc7614935565b5b6020026020010190151590811515815250505b505b8080611ce890615187565b9150506119c5565b508091505092915050565b60008373ffffffffffffffffffffffffffffffffffffffff163373ffffffffffffffffffffffffffffffffffffffff161480611d845750600560009054906101000a900473ffffffffffffffffffffffffffffffffffffffff1673ffffffffffffffffffffffffffffffffffffffff163373ffffffffffffffffffffffffffffffffffffffff16145b80611dc15750611d92612d79565b73ffffffffffffffffffffffffffffffffffffffff163373ffffffffffffffffffffffffffffffffffffffff16145b611e00576040517f08c379a0000000000000000000000000000000000000000000000000000000008152600401611df79061521b565b60405180910390fd5b600760008473ffffffffffffffffffffffffffffffffffffffff1673ffffffffffffffffffffffffffffffffffffffff1681526020019081526020016000206000600360009054906101000a900473ffffffffffffffffffffffffffffffffffffffff1673ffffffffffffffffffffffffffffffffffffffff1673ffffffffffffffffffffffffffffffffffffffff16815260200190815260200160002060009054906101000a900460ff16611eeb576040517f08c379a0000000000000000000000000000000000000000000000000000000008152600401611ee290615287565b60405180910390fd5b8373ffffffffffffffffffffffffffffffffffffffff1660086000600360009054906101000a900473ffffffffffffffffffffffffffffffffffffffff1673ffffffffffffffffffffffffffffffffffffffff1673ffffffffffffffffffffffffffffffffffffffff16815260200190815260200160002060008460070b60070b815260200190815260200160002060000160009054906101000a900473ffffffffffffffffffffffffffffffffffffffff1673ffffffffffffffffffffffffffffffffffffffff1614611ff4576040517f08c379a0000000000000000000000000000000000000000000000000000000008152600401611feb906152f3565b60405180910390fd5b600061016773ffffffffffffffffffffffffffffffffffffffff16635cfc9011600360009054906101000a900473ffffffffffffffffffffffffffffffffffffffff168787876040518563ffffffff1660e01b81526004016120599493929190615313565b6020604051808303816000875af1158015612078573d6000803e3d6000fd5b505050506040513d601f19601f8201168201806040525081019061209c919061489c565b905060168103612428578360086000600360009054906101000a900473ffffffffffffffffffffffffffffffffffffffff1673ffffffffffffffffffffffffffffffffffffffff1673ffffffffffffffffffffffffffffffffffffffff16815260200190815260200160002060008560070b60070b815260200190815260200160002060000160006101000a81548173ffffffffffffffffffffffffffffffffffffffff021916908373ffffffffffffffffffffffffffffffffffffffff1602179055506000600a60008773ffffffffffffffffffffffffffffffffffffffff1673ffffffffffffffffffffffffffffffffffffffff168152602001908152602001600020905060005b81805490508110156122e8578460070b8282815481106121c9576121c8614935565b5b90600052602060002090600491828204019190066008029054906101000a900460070b60070b036122d55781600183805490506122069190614787565b8154811061221757612216614935565b5b90600052602060002090600491828204019190066008029054906101000a900460070b82828154811061224d5761224c614935565b5b90600052602060002090600491828204019190066008026101000a81548167ffffffffffffffff021916908360070b67ffffffffffffffff1602179055508180548061229c5761229b615358565b5b60019003818190600052602060002090600491828204019190066008026101000a81549067ffffffffffffffff021916905590556122e8565b80806122e090615187565b9150506121a6565b50600a60008673ffffffffffffffffffffffffffffffffffffffff1673ffffffffffffffffffffffffffffffffffffffff1681526020019081526020016000208490806001815401808255809150506001900390600052602060002090600491828204019190066008029091909190916101000a81548167ffffffffffffffff021916908360070b67ffffffffffffffff1602179055508473ffffffffffffffffffffffffffffffffffffffff168673ffffffffffffffffffffffffffffffffffffffff16600360009054906101000a900473ffffffffffffffffffffffffffffffffffffffff1673ffffffffffffffffffffffffffffffffffffffff167f3c144104302f299a69051f9cd3a924d65d1700a9cf19d639d3a94397693785fc876040516124159190613cae565b60405180910390a460019250505061242e565b60009150505b9392505050565b600083600660008273ffffffffffffffffffffffffffffffffffffffff1673ffffffffffffffffffffffffffffffffffffffff16815260200190815260200160002060000160049054906101000a900460ff166124c7576040517f08c379a00000000000000000000000000000000000000000000000000000000081526004016124be906153d3565b60405180910390fd5b600560009054906101000a900473ffffffffffffffffffffffffffffffffffffffff1673ffffffffffffffffffffffffffffffffffffffff163373ffffffffffffffffffffffffffffffffffffffff1614806125555750612526612d79565b73ffffffffffffffffffffffffffffffffffffffff163373ffffffffffffffffffffffffffffffffffffffff16145b612594576040517f08c379a000000000000000000000000000000000000000000000000000000000815260040161258b9061521b565b60405180910390fd5b600760008573ffffffffffffffffffffffffffffffffffffffff1673ffffffffffffffffffffffffffffffffffffffff16815260200190815260200160002060008673ffffffffffffffffffffffffffffffffffffffff1673ffffffffffffffffffffffffffffffffffffffff16815260200190815260200160002060009054906101000a900460ff1661265d576040517f08c379a000000000000000000000000000000000000000000000000000000000815260040161265490615287565b60405180910390fd5b600260009054906101000a900473ffffffffffffffffffffffffffffffffffffffff1673ffffffffffffffffffffffffffffffffffffffff168573ffffffffffffffffffffffffffffffffffffffff1614806127065750600460009054906101000a900473ffffffffffffffffffffffffffffffffffffffff1673ffffffffffffffffffffffffffffffffffffffff168573ffffffffffffffffffffffffffffffffffffffff16145b612745576040517f08c379a000000000000000000000000000000000000000000000000000000000815260040161273c90614660565b60405180910390fd5b60008067ffffffffffffffff8111156127615761276061406a565b5b60405190808252806020026020018201604052801561279457816020015b606081526020019060019003908161277f5790505b509050600080600061016773ffffffffffffffffffffffffffffffffffffffff1663278e0b888a89876040518463ffffffff1660e01b81526004016127db939291906154b5565b6000604051808303816000875af11580156127fa573d6000803e3d6000fd5b505050506040513d6000823e3d601f19601f8201168201806040525081019061282391906155cb565b92509250925060168303612905578667ffffffffffffffff16600960008a73ffffffffffffffffffffffffffffffffffffffff1673ffffffffffffffffffffffffffffffffffffffff168152602001908152602001600020600082825461288a919061563a565b925050819055508773ffffffffffffffffffffffffffffffffffffffff168973ffffffffffffffffffffffffffffffffffffffff167ff9d944b3b45f5336ce797c64aace0b4cc89b8eba9f26a202c09d05d4d7c40cb689846040516128f09291906147bb565b60405180910390a3600195505050505061290e565b60009550505050505b509392505050565b60008373ffffffffffffffffffffffffffffffffffffffff163373ffffffffffffffffffffffffffffffffffffffff16148061299f5750600560009054906101000a900473ffffffffffffffffffffffffffffffffffffffff1673ffffffffffffffffffffffffffffffffffffffff163373ffffffffffffffffffffffffffffffffffffffff16145b806129dc57506129ad612d79565b73ffffffffffffffffffffffffffffffffffffffff163373ffffffffffffffffffffffffffffffffffffffff16145b612a1b576040517f08c379a0000000000000000000000000000000000000000000000000000000008152600401612a129061521b565b60405180910390fd5b600760008473ffffffffffffffffffffffffffffffffffffffff1673ffffffffffffffffffffffffffffffffffffffff16815260200190815260200160002060008673ffffffffffffffffffffffffffffffffffffffff1673ffffffffffffffffffffffffffffffffffffffff16815260200190815260200160002060009054906101000a900460ff16612ae4576040517f08c379a0000000000000000000000000000000000000000000000000000000008152600401612adb90615287565b60405180910390fd5b8167ffffffffffffffff16600960008673ffffffffffffffffffffffffffffffffffffffff1673ffffffffffffffffffffffffffffffffffffffff168152602001908152602001600020541015612b70576040517f08c379a0000000000000000000000000000000000000000000000000000000008152600401612b67906145f4565b60405180910390fd5b600061016773ffffffffffffffffffffffffffffffffffffffff166312aedc7f878787876040518563ffffffff1660e01b8152600401612bb39493929190614857565b6020604051808303816000875af1158015612bd2573d6000803e3d6000fd5b505050506040513d601f19601f82011682018060405250810190612bf6919061489c565b905060168103612d45578267ffffffffffffffff16600960008773ffffffffffffffffffffffffffffffffffffffff1673ffffffffffffffffffffffffffffffffffffffff1681526020019081526020016000206000828254612c599190614787565b925050819055508267ffffffffffffffff16600960008673ffffffffffffffffffffffffffffffffffffffff1673ffffffffffffffffffffffffffffffffffffffff1681526020019081526020016000206000828254612cb9919061563a565b925050819055508373ffffffffffffffffffffffffffffffffffffffff168573ffffffffffffffffffffffffffffffffffffffff168773ffffffffffffffffffffffffffffffffffffffff167e17daf4d11c2911e3111e4a4f21f3a820125c4101570873c21fcf4a79d8501086604051612d33919061566e565b60405180910390a46001915050612d4b565b60009150505b949350505050565b600560009054906101000a900473ffffffffffffffffffffffffffffffffffffffff1681565b60008060009054906101000a900473ffffffffffffffffffffffffffffffffffffffff16905090565b6008602052816000526040600020602052806000526040600020600091509150508060000160009054906101000a900473ffffffffffffffffffffffffffffffffffffffff1690806001018054612df890614993565b80601f0160208091040260200160405190810160405280929190818152602001828054612e2490614993565b8015612e715780601f10612e4657610100808354040283529160200191612e71565b820191906000526020600020905b815481529060010190602001808311612e5457829003601f168201915b5050505050905082565b60076020528160005260406000206020528060005260406000206000915091509054906101000a900460ff1681565b6000600660008373ffffffffffffffffffffffffffffffffffffffff1673ffffffffffffffffffffffffffffffffffffffff16815260200190815260200160002060000160049054906101000a900460ff16612f3b576040517f08c379a0000000000000000000000000000000000000000000000000000000008152600401612f32906153d3565b60405180910390fd5b600760008473ffffffffffffffffffffffffffffffffffffffff1673ffffffffffffffffffffffffffffffffffffffff16815260200190815260200160002060008373ffffffffffffffffffffffffffffffffffffffff1673ffffffffffffffffffffffffffffffffffffffff16815260200190815260200160002060009054906101000a900460ff1615613005576040517f08c379a0000000000000000000000000000000000000000000000000000000008152600401612ffc906156d5565b60405180910390fd5b600061016773ffffffffffffffffffffffffffffffffffffffff166349146bde85856040518363ffffffff1660e01b815260040161304492919061515e565b6020604051808303816000875af1158015613063573d6000803e3d6000fd5b505050506040513d601f19601f82011682018060405250810190613087919061489c565b90506016810361318a576001600760008673ffffffffffffffffffffffffffffffffffffffff1673ffffffffffffffffffffffffffffffffffffffff16815260200190815260200160002060008573ffffffffffffffffffffffffffffffffffffffff1673ffffffffffffffffffffffffffffffffffffffff16815260200190815260200160002060006101000a81548160ff0219169083151502179055508273ffffffffffffffffffffffffffffffffffffffff168473ffffffffffffffffffffffffffffffffffffffff167f6ba8f0debf54740777149db87bd08717b4dbdcb36073d53cdc784019dafac16f60405160405180910390a36001915050613190565b60009150505b92915050565b6000600760008473ffffffffffffffffffffffffffffffffffffffff1673ffffffffffffffffffffffffffffffffffffffff16815260200190815260200160002060008373ffffffffffffffffffffffffffffffffffffffff1673ffffffffffffffffffffffffffffffffffffffff16815260200190815260200160002060009054906101000a900460ff16905092915050565b6000600560009054906101000a900473ffffffffffffffffffffffffffffffffffffffff1673ffffffffffffffffffffffffffffffffffffffff163373ffffffffffffffffffffffffffffffffffffffff16146132bc576040517f08c379a00000000000000000000000000000000000000000000000000000000081526004016132b390615741565b60405180910390fd5b600760008473ffffffffffffffffffffffffffffffffffffffff1673ffffffffffffffffffffffffffffffffffffffff1681526020019081526020016000206000600360009054906101000a900473ffffffffffffffffffffffffffffffffffffffff1673ffffffffffffffffffffffffffffffffffffffff1673ffffffffffffffffffffffffffffffffffffffff16815260200190815260200160002060009054906101000a900460ff166133a7576040517f08c379a000000000000000000000000000000000000000000000000000000000815260040161339e90615287565b60405180910390fd5b6000600167ffffffffffffffff8111156133c4576133c361406a565b5b6040519080825280602002602001820160405280156133f757816020015b60608152602001906001900390816133e25790505b509050828160008151811061340f5761340e614935565b5b6020026020010181905250600080600061016773ffffffffffffffffffffffffffffffffffffffff1663278e0b88600360009054906101000a900473ffffffffffffffffffffffffffffffffffffffff166001876040518463ffffffff1660e01b81526004016134819392919061579c565b6000604051808303816000875af11580156134a0573d6000803e3d6000fd5b505050506040513d6000823e3d601f19601f820116820180604052508101906134c991906155cb565b9250925092506016831480156134e0575060008151115b15613735576000816000815181106134fb576134fa614935565b5b6020026020010151905060405180604001604052808973ffffffffffffffffffffffffffffffffffffffff1681526020018881525060086000600360009054906101000a900473ffffffffffffffffffffffffffffffffffffffff1673ffffffffffffffffffffffffffffffffffffffff1673ffffffffffffffffffffffffffffffffffffffff16815260200190815260200160002060008360070b60070b815260200190815260200160002060008201518160000160006101000a81548173ffffffffffffffffffffffffffffffffffffffff021916908373ffffffffffffffffffffffffffffffffffffffff1602179055506020820151816001019081613604919061597c565b50905050600a60008973ffffffffffffffffffffffffffffffffffffffff1673ffffffffffffffffffffffffffffffffffffffff1681526020019081526020016000208190806001815401808255809150506001900390600052602060002090600491828204019190066008029091909190916101000a81548167ffffffffffffffff021916908360070b67ffffffffffffffff1602179055508773ffffffffffffffffffffffffffffffffffffffff16600360009054906101000a900473ffffffffffffffffffffffffffffffffffffffff1673ffffffffffffffffffffffffffffffffffffffff167ff9d944b3b45f5336ce797c64aace0b4cc89b8eba9f26a202c09d05d4d7c40cb6600185604051613720929190615a4e565b60405180910390a38095505050505050613770565b6040517f08c379a000000000000000000000000000000000000000000000000000000000815260040161376790615aca565b60405180910390fd5b92915050565b61377e613860565b600073ffffffffffffffffffffffffffffffffffffffff168173ffffffffffffffffffffffffffffffffffffffff16036137ed576040517f08c379a00000000000000000000000000000000000000000000000000000000081526004016137e490615b5c565b60405180910390fd5b6137f6816138de565b50565b60066020528060005260406000206000915090508060000160009054906101000a900463ffffffff16908060000160049054906101000a900460ff16905082565b600460009054906101000a900473ffffffffffffffffffffffffffffffffffffffff1681565b6138686139a2565b73ffffffffffffffffffffffffffffffffffffffff16613886612d79565b73ffffffffffffffffffffffffffffffffffffffff16146138dc576040517f08c379a00000000000000000000000000000000000000000000000000000000081526004016138d390615bc8565b60405180910390fd5b565b60008060009054906101000a900473ffffffffffffffffffffffffffffffffffffffff169050816000806101000a81548173ffffffffffffffffffffffffffffffffffffffff021916908373ffffffffffffffffffffffffffffffffffffffff1602179055508173ffffffffffffffffffffffffffffffffffffffff168173ffffffffffffffffffffffffffffffffffffffff167f8be0079c531659141344cd1fd0a4f28419497f9722a3daafe3b4186f6b6457e060405160405180910390a35050565b600033905090565b6040518060400160405280600063ffffffff1681526020016000151581525090565b6040518060400160405280600073ffffffffffffffffffffffffffffffffffffffff168152602001606081525090565b6000604051905090565b600080fd5b600080fd5b600073ffffffffffffffffffffffffffffffffffffffff82169050919050565b6000613a3b82613a10565b9050919050565b613a4b81613a30565b8114613a5657600080fd5b50565b600081359050613a6881613a42565b92915050565b600067ffffffffffffffff82169050919050565b613a8b81613a6e565b8114613a9657600080fd5b50565b600081359050613aa881613a82565b92915050565b60008060408385031215613ac557613ac4613a06565b5b6000613ad385828601613a59565b9250506020613ae485828601613a99565b9150509250929050565b600080600060608486031215613b0757613b06613a06565b5b6000613b1586828701613a59565b9350506020613b2686828701613a59565b9250506040613b3786828701613a99565b9150509250925092565b600060208284031215613b5757613b56613a06565b5b6000613b6584828501613a59565b91505092915050565b600063ffffffff82169050919050565b613b8781613b6e565b82525050565b60008115159050919050565b613ba281613b8d565b82525050565b604082016000820151613bbe6000850182613b7e565b506020820151613bd16020850182613b99565b50505050565b6000604082019050613bec6000830184613ba8565b92915050565b6000819050919050565b613c0581613bf2565b82525050565b6000602082019050613c206000830184613bfc565b92915050565b613c2f81613bf2565b8114613c3a57600080fd5b50565b600081359050613c4c81613c26565b92915050565b60008060408385031215613c6957613c68613a06565b5b6000613c7785828601613a59565b9250506020613c8885828601613c3d565b9150509250929050565b60008160070b9050919050565b613ca881613c92565b82525050565b6000602082019050613cc36000830184613c9f565b92915050565b600081519050919050565b600082825260208201905092915050565b6000819050602082019050919050565b613cfe81613a30565b82525050565b6000613d108383613cf5565b60208301905092915050565b6000602082019050919050565b6000613d3482613cc9565b613d3e8185613cd4565b9350613d4983613ce5565b8060005b83811015613d7a578151613d618882613d04565b9750613d6c83613d1c565b925050600181019050613d4d565b5085935050505092915050565b60006020820190508181036000830152613da18184613d29565b905092915050565b613db281613c92565b8114613dbd57600080fd5b50565b600081359050613dcf81613da9565b92915050565b600060208284031215613deb57613dea613a06565b5b6000613df984828501613dc0565b91505092915050565b600081519050919050565b600082825260208201905092915050565b60005b83811015613e3c578082015181840152602081019050613e21565b60008484015250505050565b6000601f19601f8301169050919050565b6000613e6482613e02565b613e6e8185613e0d565b9350613e7e818560208601613e1e565b613e8781613e48565b840191505092915050565b6000604083016000830151613eaa6000860182613cf5565b5060208301518482036020860152613ec28282613e59565b9150508091505092915050565b60006020820190508181036000830152613ee98184613e92565b905092915050565b613efa81613b8d565b82525050565b6000602082019050613f156000830184613ef1565b92915050565b613f2481613a30565b82525050565b6000602082019050613f3f6000830184613f1b565b92915050565b600081519050919050565b600082825260208201905092915050565b6000819050602082019050919050565b613f7a81613c92565b82525050565b6000613f8c8383613f71565b60208301905092915050565b6000602082019050919050565b6000613fb082613f45565b613fba8185613f50565b9350613fc583613f61565b8060005b83811015613ff6578151613fdd8882613f80565b9750613fe883613f98565b925050600181019050613fc9565b5085935050505092915050565b6000602082019050818103600083015261401d8184613fa5565b905092915050565b6000806040838503121561403c5761403b613a06565b5b600061404a85828601613a59565b925050602061405b85828601613a59565b9150509250929050565b600080fd5b7f4e487b7100000000000000000000000000000000000000000000000000000000600052604160045260246000fd5b6140a282613e48565b810181811067ffffffffffffffff821117156140c1576140c061406a565b5b80604052505050565b60006140d46139fc565b90506140e08282614099565b919050565b600067ffffffffffffffff821115614100576140ff61406a565b5b602082029050602081019050919050565b600080fd5b6000614129614124846140e5565b6140ca565b9050808382526020820190506020840283018581111561414c5761414b614111565b5b835b8181101561417557806141618882613a59565b84526020840193505060208101905061414e565b5050509392505050565b600082601f83011261419457614193614065565b5b81356141a4848260208601614116565b91505092915050565b600080604083850312156141c4576141c3613a06565b5b60006141d285828601613a59565b925050602083013567ffffffffffffffff8111156141f3576141f2613a0b565b5b6141ff8582860161417f565b9150509250929050565b600081519050919050565b600082825260208201905092915050565b6000819050602082019050919050565b60006142418383613b99565b60208301905092915050565b6000602082019050919050565b600061426582614209565b61426f8185614214565b935061427a83614225565b8060005b838110156142ab5781516142928882614235565b975061429d8361424d565b92505060018101905061427e565b5085935050505092915050565b600060208201905081810360008301526142d2818461425a565b905092915050565b6000806000606084860312156142f3576142f2613a06565b5b600061430186828701613a59565b935050602061431286828701613a59565b925050604061432386828701613dc0565b9150509250925092565b6000806000806080858703121561434757614346613a06565b5b600061435587828801613a59565b945050602061436687828801613a59565b935050604061437787828801613a59565b925050606061438887828801613a99565b91505092959194509250565b600080604083850312156143ab576143aa613a06565b5b60006143b985828601613a59565b92505060206143ca85828601613dc0565b9150509250929050565b600082825260208201905092915050565b60006143f082613e02565b6143fa81856143d4565b935061440a818560208601613e1e565b61441381613e48565b840191505092915050565b60006040820190506144336000830185613f1b565b818103602083015261444581846143e5565b90509392505050565b600080fd5b600067ffffffffffffffff82111561446e5761446d61406a565b5b61447782613e48565b9050602081019050919050565b82818337600083830152505050565b60006144a66144a184614453565b6140ca565b9050828152602081018484840111156144c2576144c161444e565b5b6144cd848285614484565b509392505050565b600082601f8301126144ea576144e9614065565b5b81356144fa848260208601614493565b91505092915050565b6000806040838503121561451a57614519613a06565b5b600061452885828601613a59565b925050602083013567ffffffffffffffff81111561454957614548613a0b565b5b614555858286016144d5565b9150509250929050565b61456881613b6e565b82525050565b6000604082019050614583600083018561455f565b6145906020830184613ef1565b9392505050565b600082825260208201905092915050565b7f2162616c616e6365000000000000000000000000000000000000000000000000600082015250565b60006145de600883614597565b91506145e9826145a8565b602082019050919050565b6000602082019050818103600083015261460d816145d1565b9050919050565b7f2166756e6769626c650000000000000000000000000000000000000000000000600082015250565b600061464a600983614597565b915061465582614614565b602082019050919050565b600060208201905081810360008301526146798161463d565b9050919050565b61468981613a6e565b82525050565b60006060820190506146a46000830186613f1b565b6146b16020830185614680565b81810360408301526146c38184613fa5565b9050949350505050565b6000819050919050565b6146e0816146cd565b81146146eb57600080fd5b50565b6000815190506146fd816146d7565b92915050565b60008151905061471281613a82565b92915050565b6000806040838503121561472f5761472e613a06565b5b600061473d858286016146ee565b925050602061474e85828601614703565b9150509250929050565b7f4e487b7100000000000000000000000000000000000000000000000000000000600052601160045260246000fd5b600061479282613bf2565b915061479d83613bf2565b92508282039050818111156147b5576147b4614758565b5b92915050565b60006040820190506147d06000830185614680565b81810360208301526147e28184613fa5565b90509392505050565b7f2165786973740000000000000000000000000000000000000000000000000000600082015250565b6000614821600683614597565b915061482c826147eb565b602082019050919050565b6000602082019050818103600083015261485081614814565b9050919050565b600060808201905061486c6000830187613f1b565b6148796020830186613f1b565b6148866040830185613f1b565b6148936060830184614680565b95945050505050565b6000602082840312156148b2576148b1613a06565b5b60006148c0848285016146ee565b91505092915050565b7f5265636f76657279206661696c65640000000000000000000000000000000000600082015250565b60006148ff600f83614597565b915061490a826148c9565b602082019050919050565b6000602082019050818103600083015261492e816148f2565b9050919050565b7f4e487b7100000000000000000000000000000000000000000000000000000000600052603260045260246000fd5b7f4e487b7100000000000000000000000000000000000000000000000000000000600052602260045260246000fd5b600060028204905060018216806149ab57607f821691505b6020821081036149be576149bd614964565b5b50919050565b7f416c726561647920637265617465640000000000000000000000000000000000600082015250565b60006149fa600f83614597565b9150614a05826149c4565b602082019050919050565b60006020820190508181036000830152614a29816149ed565b9050919050565b60008160601b9050919050565b6000614a4882614a30565b9050919050565b6000614a5a82614a3d565b9050919050565b614a72614a6d82613a30565b614a4f565b82525050565b600081905092915050565b7f53515f544f4b454e000000000000000000000000000000000000000000000000600082015250565b6000614ab9600883614a78565b9150614ac482614a83565b600882019050919050565b6000614adb8284614a61565b601482019150614aea82614aac565b915081905092915050565b6000819050919050565b6000819050919050565b6000614b24614b1f614b1a84614af5565b614aff565b613bf2565b9050919050565b614b3481614b09565b82525050565b6000819050919050565b6000614b5f614b5a614b5584614b3a565b614aff565b613b6e565b9050919050565b614b6f81614b44565b82525050565b7f53746172517565737420546f6b656e0000000000000000000000000000000000600082015250565b6000614bab600f83614597565b9150614bb682614b75565b602082019050919050565b7f5351000000000000000000000000000000000000000000000000000000000000600082015250565b6000614bf7600283614597565b9150614c0282614bc1565b602082019050919050565b600060a082019050614c226000830186613f1b565b614c2f6020830185614b2b565b614c3c6040830184614b66565b8181036060830152614c4d81614b9e565b90508181036080830152614c6081614bea565b9050949350505050565b7f546f6b656e206372656174696f6e206661696c65640000000000000000000000600082015250565b6000614ca0601583614597565b9150614cab82614c6a565b602082019050919050565b60006020820190508181036000830152614ccf81614c93565b9050919050565b7f53515f4e46540000000000000000000000000000000000000000000000000000600082015250565b6000614d0c600683614a78565b9150614d1782614cd6565b600682019050919050565b6000614d2e8284614a61565b601482019150614d3d82614cff565b915081905092915050565b7f537461725175657374204e465400000000000000000000000000000000000000600082015250565b6000614d7e600d83614597565b9150614d8982614d48565b602082019050919050565b7f53514e4654000000000000000000000000000000000000000000000000000000600082015250565b6000614dca600583614597565b9150614dd582614d94565b602082019050919050565b6000606082019050614df56000830184613f1b565b8181036020830152614e0681614d71565b90508181036040830152614e1981614dbd565b905092915050565b7f4e4654206372656174696f6e206661696c656400000000000000000000000000600082015250565b6000614e57601383614597565b9150614e6282614e21565b602082019050919050565b60006020820190508181036000830152614e8681614e4a565b9050919050565b7f53515f5245574152440000000000000000000000000000000000000000000000600082015250565b6000614ec3600983614a78565b9150614ece82614e8d565b600982019050919050565b6000614ee58284614a61565b601482019150614ef482614eb6565b915081905092915050565b6000819050919050565b6000614f24614f1f614f1a84614eff565b614aff565b613bf2565b9050919050565b614f3481614f09565b82525050565b7f5374617251756573742052657761726473000000000000000000000000000000600082015250565b6000614f70601183614597565b9150614f7b82614f3a565b602082019050919050565b7f5351520000000000000000000000000000000000000000000000000000000000600082015250565b6000614fbc600383614597565b9150614fc782614f86565b602082019050919050565b600060a082019050614fe76000830186613f1b565b614ff46020830185614f2b565b6150016040830184614b66565b818103606083015261501281614f63565b9050818103608083015261502581614faf565b9050949350505050565b7f526577617264206372656174696f6e206661696c656400000000000000000000600082015250565b6000615065601683614597565b91506150708261502f565b602082019050919050565b6000602082019050818103600083015261509481615058565b9050919050565b600060608201905081810360008301526150b481614b9e565b905081810360208301526150c781614bea565b90506150d66040830184613ef1565b92915050565b600060608201905081810360008301526150f581614d71565b9050818103602083015261510881614dbd565b90506151176040830184613ef1565b92915050565b6000606082019050818103600083015261513681614f63565b9050818103602083015261514981614faf565b90506151586040830184613ef1565b92915050565b60006040820190506151736000830185613f1b565b6151806020830184613f1b565b9392505050565b600061519282613bf2565b91507fffffffffffffffffffffffffffffffffffffffffffffffffffffffffffffffff82036151c4576151c3614758565b5b600182019050919050565b7f21617574686f72697a6564000000000000000000000000000000000000000000600082015250565b6000615205600b83614597565b9150615210826151cf565b602082019050919050565b60006020820190508181036000830152615234816151f8565b9050919050565b7f216173736f636961746564000000000000000000000000000000000000000000600082015250565b6000615271600b83614597565b915061527c8261523b565b602082019050919050565b600060208201905081810360008301526152a081615264565b9050919050565b7f216f776e65720000000000000000000000000000000000000000000000000000600082015250565b60006152dd600683614597565b91506152e8826152a7565b602082019050919050565b6000602082019050818103600083015261530c816152d0565b9050919050565b60006080820190506153286000830187613f1b565b6153356020830186613f1b565b6153426040830185613f1b565b61534f6060830184613c9f565b95945050505050565b7f4e487b7100000000000000000000000000000000000000000000000000000000600052603160045260246000fd5b7f546f6b656e202165786973740000000000000000000000000000000000000000600082015250565b60006153bd600c83614597565b91506153c882615387565b602082019050919050565b600060208201905081810360008301526153ec816153b0565b9050919050565b600081519050919050565b600082825260208201905092915050565b6000819050602082019050919050565b600061542b8383613e59565b905092915050565b6000602082019050919050565b600061544b826153f3565b61545581856153fe565b9350836020820285016154678561540f565b8060005b858110156154a35784840389528151615484858261541f565b945061548f83615433565b925060208a0199505060018101905061546b565b50829750879550505050505092915050565b60006060820190506154ca6000830186613f1b565b6154d76020830185614680565b81810360408301526154e98184615440565b9050949350505050565b600067ffffffffffffffff82111561550e5761550d61406a565b5b602082029050602081019050919050565b60008151905061552e81613da9565b92915050565b6000615547615542846154f3565b6140ca565b9050808382526020820190506020840283018581111561556a57615569614111565b5b835b81811015615593578061557f888261551f565b84526020840193505060208101905061556c565b5050509392505050565b600082601f8301126155b2576155b1614065565b5b81516155c2848260208601615534565b91505092915050565b6000806000606084860312156155e4576155e3613a06565b5b60006155f2868287016146ee565b935050602061560386828701614703565b925050604084015167ffffffffffffffff81111561562457615623613a0b565b5b6156308682870161559d565b9150509250925092565b600061564582613bf2565b915061565083613bf2565b925082820190508082111561566857615667614758565b5b92915050565b60006020820190506156836000830184614680565b92915050565b7f416c7265616479206173736f6369617465640000000000000000000000000000600082015250565b60006156bf601283614597565b91506156ca82615689565b602082019050919050565b600060208201905081810360008301526156ee816156b2565b9050919050565b7f436f7265206f6e6c790000000000000000000000000000000000000000000000600082015250565b600061572b600983614597565b9150615736826156f5565b602082019050919050565b6000602082019050818103600083015261575a8161571e565b9050919050565b6000819050919050565b600061578661578161577c84615761565b614aff565b613a6e565b9050919050565b6157968161576b565b82525050565b60006060820190506157b16000830186613f1b565b6157be602083018561578d565b81810360408301526157d08184615440565b9050949350505050565b60008190508160005260206000209050919050565b60006020601f8301049050919050565b600082821b905092915050565b60006008830261583c7fffffffffffffffffffffffffffffffffffffffffffffffffffffffffffffffff826157ff565b61584686836157ff565b95508019841693508086168417925050509392505050565b600061587961587461586f84613bf2565b614aff565b613bf2565b9050919050565b6000819050919050565b6158938361585e565b6158a761589f82615880565b84845461580c565b825550505050565b600090565b6158bc6158af565b6158c781848461588a565b505050565b5b818110156158eb576158e06000826158b4565b6001810190506158cd565b5050565b601f82111561593057615901816157da565b61590a846157ef565b81016020851015615919578190505b61592d615925856157ef565b8301826158cc565b50505b505050565b600082821c905092915050565b600061595360001984600802615935565b1980831691505092915050565b600061596c8383615942565b9150826002028217905092915050565b61598582613e02565b67ffffffffffffffff81111561599e5761599d61406a565b5b6159a88254614993565b6159b38282856158ef565b600060209050601f8311600181146159e657600084156159d4578287015190505b6159de8582615960565b865550615a46565b601f1984166159f4866157da565b60005b82811015615a1c578489015182556001820191506020850194506020810190506159f7565b86831015615a395784890151615a35601f891682615942565b8355505b6001600288020188555050505b505050505050565b6000604082019050615a63600083018561578d565b8181036020830152615a758184613fa5565b90509392505050565b7f4d696e74206661696c6564000000000000000000000000000000000000000000600082015250565b6000615ab4600b83614597565b9150615abf82615a7e565b602082019050919050565b60006020820190508181036000830152615ae381615aa7565b9050919050565b7f4f776e61626c653a206e6577206f776e657220697320746865207a65726f206160008201527f6464726573730000000000000000000000000000000000000000000000000000602082015250565b6000615b46602683614597565b9150615b5182615aea565b604082019050919050565b60006020820190508181036000830152615b7581615b39565b9050919050565b7f4f776e61626c653a2063616c6c6572206973206e6f7420746865206f776e6572600082015250565b6000615bb2602083614597565b9150615bbd82615b7c565b602082019050919050565b60006020820190508181036000830152615be181615ba5565b905091905056fea2646970667358221220c2b6746f76f8e972e8f865943706b08422621d53043785754eb33e7d93507c3664736f6c63430008130033",
			"opcodes": "PUSH1 0x80 PUSH1 0x40 MSTORE PUSH1 0x0 PUSH1 0x5 PUSH1 0x14 PUSH2 0x100 EXP DUP2 SLOAD DUP2 PUSH1 0xFF MUL NOT AND SWAP1 DUP4 ISZERO ISZERO MUL OR SWAP1 SSTORE POP CALLVALUE DUP1 ISZERO PUSH3 0x2C JUMPI PUSH1 0x0 DUP1 REVERT JUMPDEST POP PUSH3 0x4D PUSH3 0x41 PUSH3 0x5A PUSH1 0x20 SHL PUSH1 0x20 SHR JUMP JUMPDEST PUSH3 0x62 PUSH1 0x20 SHL PUSH1 0x20 SHR JUMP JUMPDEST PUSH1 0x1 DUP1 DUP2 SWAP1 SSTORE POP PUSH3 0x126 JUMP JUMPDEST PUSH1 0x0 CALLER SWAP1 POP SWAP1 JUMP JUMPDEST PUSH1 0x0 DUP1 PUSH1 0x0 SWAP1 SLOAD SWAP1 PUSH2 0x100 EXP SWAP1 DIV PUSH20 0xFFFFFFFFFFFFFFFFFFFFFFFFFFFFFFFFFFFFFFFF AND SWAP1 POP DUP2 PUSH1 0x0 DUP1 PUSH2 0x100 EXP DUP2 SLOAD DUP2 PUSH20 0xFFFFFFFFFFFFFFFFFFFFFFFFFFFFFFFFFFFFFFFF MUL NOT AND SWAP1 DUP4 PUSH20 0xFFFFFFFFFFFFFFFFFFFFFFFFFFFFFFFFFFFFFFFF AND MUL OR SWAP1 SSTORE POP DUP2 PUSH20 0xFFFFFFFFFFFFFFFFFFFFFFFFFFFFFFFFFFFFFFFF AND DUP2 PUSH20 0xFFFFFFFFFFFFFFFFFFFFFFFFFFFFFFFFFFFFFFFF AND PUSH32 0x8BE0079C531659141344CD1FD0A4F28419497F9722A3DAAFE3B4186F6B6457E0 PUSH1 0x40 MLOAD PUSH1 0x40 MLOAD DUP1 SWAP2 SUB SWAP1 LOG3 POP POP JUMP JUMPDEST PUSH2 0x5C1E DUP1 PUSH3 0x136 PUSH1 0x0 CODECOPY PUSH1 0x0 RETURN INVALID PUSH1 0x80 PUSH1 0x40 MSTORE CALLVALUE DUP1 ISZERO PUSH2 0x10 JUMPI PUSH1 0x0 DUP1 REVERT JUMPDEST POP PUSH1 0x4 CALLDATASIZE LT PUSH2 0x1CF JUMPI PUSH1 0x0 CALLDATALOAD PUSH1 0xE0 SHR DUP1 PUSH4 0x73F8FD4B GT PUSH2 0x104 JUMPI DUP1 PUSH4 0x8E6C0C76 GT PUSH2 0xA2 JUMPI DUP1 PUSH4 0xE83B0227 GT PUSH2 0x71 JUMPI DUP1 PUSH4 0xE83B0227 EQ PUSH2 0x591 JUMPI DUP1 PUSH4 0xF2FDE38B EQ PUSH2 0x5C1 JUMPI DUP1 PUSH4 0xF5DAB711 EQ PUSH2 0x5DD JUMPI DUP1 PUSH4 0xF7C618C1 EQ PUSH2 0x60E JUMPI PUSH2 0x1CF JUMP JUMPDEST DUP1 PUSH4 0x8E6C0C76 EQ PUSH2 0x4D0 JUMPI DUP1 PUSH4 0xBC8E9B9B EQ PUSH2 0x501 JUMPI DUP1 PUSH4 0xBF32D092 EQ PUSH2 0x531 JUMPI DUP1 PUSH4 0xD8568534 EQ PUSH2 0x561 JUMPI PUSH2 0x1CF JUMP JUMPDEST DUP1 PUSH4 0x86702E75 GT PUSH2 0xDE JUMPI DUP1 PUSH4 0x86702E75 EQ PUSH2 0x434 JUMPI DUP1 PUSH4 0x8899A355 EQ PUSH2 0x464 JUMPI DUP1 PUSH4 0x89EE3E97 EQ PUSH2 0x494 JUMPI DUP1 PUSH4 0x8DA5CB5B EQ PUSH2 0x4B2 JUMPI PUSH2 0x1CF JUMP JUMPDEST DUP1 PUSH4 0x73F8FD4B EQ PUSH2 0x3A4 JUMPI DUP1 PUSH4 0x7C7BF49B EQ PUSH2 0x3D4 JUMPI DUP1 PUSH4 0x84EC4652 EQ PUSH2 0x404 JUMPI PUSH2 0x1CF JUMP JUMPDEST DUP1 PUSH4 0x3C7E8987 GT PUSH2 0x171 JUMPI DUP1 PUSH4 0x52DE4EE5 GT PUSH2 0x14B JUMPI DUP1 PUSH4 0x52DE4EE5 EQ PUSH2 0x342 JUMPI DUP1 PUSH4 0x5FC48C96 EQ PUSH2 0x372 JUMPI DUP1 PUSH4 0x6EE2E218 EQ PUSH2 0x37C JUMPI DUP1 PUSH4 0x715018A6 EQ PUSH2 0x39A JUMPI PUSH2 0x1CF JUMP JUMPDEST DUP1 PUSH4 0x3C7E8987 EQ PUSH2 0x2D6 JUMPI DUP1 PUSH4 0x42750020 EQ PUSH2 0x306 JUMPI DUP1 PUSH4 0x501CF751 EQ PUSH2 0x324 JUMPI PUSH2 0x1CF JUMP JUMPDEST DUP1 PUSH4 0x1F69565F GT PUSH2 0x1AD JUMPI DUP1 PUSH4 0x1F69565F EQ PUSH2 0x228 JUMPI DUP1 PUSH4 0x26224C64 EQ PUSH2 0x258 JUMPI DUP1 PUSH4 0x291C73C3 EQ PUSH2 0x288 JUMPI DUP1 PUSH4 0x2A5C792A EQ PUSH2 0x2B8 JUMPI PUSH2 0x1CF JUMP JUMPDEST DUP1 PUSH4 0x9F7A4E5 EQ PUSH2 0x1D4 JUMPI DUP1 PUSH4 0x16CD57F1 EQ PUSH2 0x1F0 JUMPI DUP1 PUSH4 0x177AB321 EQ PUSH2 0x20C JUMPI JUMPDEST PUSH1 0x0 DUP1 REVERT JUMPDEST PUSH2 0x1EE PUSH1 0x4 DUP1 CALLDATASIZE SUB DUP2 ADD SWAP1 PUSH2 0x1E9 SWAP2 SWAP1 PUSH2 0x3AAE JUMP JUMPDEST PUSH2 0x62C JUMP JUMPDEST STOP JUMPDEST PUSH2 0x20A PUSH1 0x4 DUP1 CALLDATASIZE SUB DUP2 ADD SWAP1 PUSH2 0x205 SWAP2 SWAP1 PUSH2 0x3AEE JUMP JUMPDEST PUSH2 0x935 JUMP JUMPDEST STOP JUMPDEST PUSH2 0x226 PUSH1 0x4 DUP1 CALLDATASIZE SUB DUP2 ADD SWAP1 PUSH2 0x221 SWAP2 SWAP1 PUSH2 0x3B41 JUMP JUMPDEST PUSH2 0xA9D JUMP JUMPDEST STOP JUMPDEST PUSH2 0x242 PUSH1 0x4 DUP1 CALLDATASIZE SUB DUP2 ADD SWAP1 PUSH2 0x23D SWAP2 SWAP1 PUSH2 0x3B41 JUMP JUMPDEST PUSH2 0xAE9 JUMP JUMPDEST PUSH1 0x40 MLOAD PUSH2 0x24F SWAP2 SWAP1 PUSH2 0x3BD7 JUMP JUMPDEST PUSH1 0x40 MLOAD DUP1 SWAP2 SUB SWAP1 RETURN JUMPDEST PUSH2 0x272 PUSH1 0x4 DUP1 CALLDATASIZE SUB DUP2 ADD SWAP1 PUSH2 0x26D SWAP2 SWAP1 PUSH2 0x3B41 JUMP JUMPDEST PUSH2 0xB83 JUMP JUMPDEST PUSH1 0x40 MLOAD PUSH2 0x27F SWAP2 SWAP1 PUSH2 0x3C0B JUMP JUMPDEST PUSH1 0x40 MLOAD DUP1 SWAP2 SUB SWAP1 RETURN JUMPDEST PUSH2 0x2A2 PUSH1 0x4 DUP1 CALLDATASIZE SUB DUP2 ADD SWAP1 PUSH2 0x29D SWAP2 SWAP1 PUSH2 0x3C52 JUMP JUMPDEST PUSH2 0xB9B JUMP JUMPDEST PUSH1 0x40 MLOAD PUSH2 0x2AF SWAP2 SWAP1 PUSH2 0x3CAE JUMP JUMPDEST PUSH1 0x40 MLOAD DUP1 SWAP2 SUB SWAP1 RETURN JUMPDEST PUSH2 0x2C0 PUSH2 0xBE1 JUMP JUMPDEST PUSH1 0x40 MLOAD PUSH2 0x2CD SWAP2 SWAP1 PUSH2 0x3D87 JUMP JUMPDEST PUSH1 0x40 MLOAD DUP1 SWAP2 SUB SWAP1 RETURN JUMPDEST PUSH2 0x2F0 PUSH1 0x4 DUP1 CALLDATASIZE SUB DUP2 ADD SWAP1 PUSH2 0x2EB SWAP2 SWAP1 PUSH2 0x3DD5 JUMP JUMPDEST PUSH2 0xD8B JUMP JUMPDEST PUSH1 0x40 MLOAD PUSH2 0x2FD SWAP2 SWAP1 PUSH2 0x3ECF JUMP JUMPDEST PUSH1 0x40 MLOAD DUP1 SWAP2 SUB SWAP1 RETURN JUMPDEST PUSH2 0x30E PUSH2 0xF05 JUMP JUMPDEST PUSH1 0x40 MLOAD PUSH2 0x31B SWAP2 SWAP1 PUSH2 0x3F00 JUMP JUMPDEST PUSH1 0x40 MLOAD DUP1 SWAP2 SUB SWAP1 RETURN JUMPDEST PUSH2 0x32C PUSH2 0xF18 JUMP JUMPDEST PUSH1 0x40 MLOAD PUSH2 0x339 SWAP2 SWAP1 PUSH2 0x3F2A JUMP JUMPDEST PUSH1 0x40 MLOAD DUP1 SWAP2 SUB SWAP1 RETURN JUMPDEST PUSH2 0x35C PUSH1 0x4 DUP1 CALLDATASIZE SUB DUP2 ADD SWAP1 PUSH2 0x357 SWAP2 SWAP1 PUSH2 0x3B41 JUMP JUMPDEST PUSH2 0xF3E JUMP JUMPDEST PUSH1 0x40 MLOAD PUSH2 0x369 SWAP2 SWAP1 PUSH2 0x4003 JUMP JUMPDEST PUSH1 0x40 MLOAD DUP1 SWAP2 SUB SWAP1 RETURN JUMPDEST PUSH2 0x37A PUSH2 0xFFB JUMP JUMPDEST STOP JUMPDEST PUSH2 0x384 PUSH2 0x1836 JUMP JUMPDEST PUSH1 0x40 MLOAD PUSH2 0x391 SWAP2 SWAP1 PUSH2 0x3F2A JUMP JUMPDEST PUSH1 0x40 MLOAD DUP1 SWAP2 SUB SWAP1 RETURN JUMPDEST PUSH2 0x3A2 PUSH2 0x185C JUMP JUMPDEST STOP JUMPDEST PUSH2 0x3BE PUSH1 0x4 DUP1 CALLDATASIZE SUB DUP2 ADD SWAP1 PUSH2 0x3B9 SWAP2 SWAP1 PUSH2 0x4025 JUMP JUMPDEST PUSH2 0x1870 JUMP JUMPDEST PUSH1 0x40 MLOAD PUSH2 0x3CB SWAP2 SWAP1 PUSH2 0x3C0B JUMP JUMPDEST PUSH1 0x40 MLOAD DUP1 SWAP2 SUB SWAP1 RETURN JUMPDEST PUSH2 0x3EE PUSH1 0x4 DUP1 CALLDATASIZE SUB DUP2 ADD SWAP1 PUSH2 0x3E9 SWAP2 SWAP1 PUSH2 0x41AD JUMP JUMPDEST PUSH2 0x1972 JUMP JUMPDEST PUSH1 0x40 MLOAD PUSH2 0x3FB SWAP2 SWAP1 PUSH2 0x42B8 JUMP JUMPDEST PUSH1 0x40 MLOAD DUP1 SWAP2 SUB SWAP1 RETURN JUMPDEST PUSH2 0x41E PUSH1 0x4 DUP1 CALLDATASIZE SUB DUP2 ADD SWAP1 PUSH2 0x419 SWAP2 SWAP1 PUSH2 0x42DA JUMP JUMPDEST PUSH2 0x1CFB JUMP JUMPDEST PUSH1 0x40 MLOAD PUSH2 0x42B SWAP2 SWAP1 PUSH2 0x3F00 JUMP JUMPDEST PUSH1 0x40 MLOAD DUP1 SWAP2 SUB SWAP1 RETURN JUMPDEST PUSH2 0x44E PUSH1 0x4 DUP1 CALLDATASIZE SUB DUP2 ADD SWAP1 PUSH2 0x449 SWAP2 SWAP1 PUSH2 0x3AEE JUMP JUMPDEST PUSH2 0x2435 JUMP JUMPDEST PUSH1 0x40 MLOAD PUSH2 0x45B SWAP2 SWAP1 PUSH2 0x3F00 JUMP JUMPDEST PUSH1 0x40 MLOAD DUP1 SWAP2 SUB SWAP1 RETURN JUMPDEST PUSH2 0x47E PUSH1 0x4 DUP1 CALLDATASIZE SUB DUP2 ADD SWAP1 PUSH2 0x479 SWAP2 SWAP1 PUSH2 0x432D JUMP JUMPDEST PUSH2 0x2916 JUMP JUMPDEST PUSH1 0x40 MLOAD PUSH2 0x48B SWAP2 SWAP1 PUSH2 0x3F00 JUMP JUMPDEST PUSH1 0x40 MLOAD DUP1 SWAP2 SUB SWAP1 RETURN JUMPDEST PUSH2 0x49C PUSH2 0x2D53 JUMP JUMPDEST PUSH1 0x40 MLOAD PUSH2 0x4A9 SWAP2 SWAP1 PUSH2 0x3F2A JUMP JUMPDEST PUSH1 0x40 MLOAD DUP1 SWAP2 SUB SWAP1 RETURN JUMPDEST PUSH2 0x4BA PUSH2 0x2D79 JUMP JUMPDEST PUSH1 0x40 MLOAD PUSH2 0x4C7 SWAP2 SWAP1 PUSH2 0x3F2A JUMP JUMPDEST PUSH1 0x40 MLOAD DUP1 SWAP2 SUB SWAP1 RETURN JUMPDEST PUSH2 0x4EA PUSH1 0x4 DUP1 CALLDATASIZE SUB DUP2 ADD SWAP1 PUSH2 0x4E5 SWAP2 SWAP1 PUSH2 0x4394 JUMP JUMPDEST PUSH2 0x2DA2 JUMP JUMPDEST PUSH1 0x40 MLOAD PUSH2 0x4F8 SWAP3 SWAP2 SWAP1 PUSH2 0x441E JUMP JUMPDEST PUSH1 0x40 MLOAD DUP1 SWAP2 SUB SWAP1 RETURN JUMPDEST PUSH2 0x51B PUSH1 0x4 DUP1 CALLDATASIZE SUB DUP2 ADD SWAP1 PUSH2 0x516 SWAP2 SWAP1 PUSH2 0x4025 JUMP JUMPDEST PUSH2 0x2E7B JUMP JUMPDEST PUSH1 0x40 MLOAD PUSH2 0x528 SWAP2 SWAP1 PUSH2 0x3F00 JUMP JUMPDEST PUSH1 0x40 MLOAD DUP1 SWAP2 SUB SWAP1 RETURN JUMPDEST PUSH2 0x54B PUSH1 0x4 DUP1 CALLDATASIZE SUB DUP2 ADD SWAP1 PUSH2 0x546 SWAP2 SWAP1 PUSH2 0x4025 JUMP JUMPDEST PUSH2 0x2EAA JUMP JUMPDEST PUSH1 0x40 MLOAD PUSH2 0x558 SWAP2 SWAP1 PUSH2 0x3F00 JUMP JUMPDEST PUSH1 0x40 MLOAD DUP1 SWAP2 SUB SWAP1 RETURN JUMPDEST PUSH2 0x57B PUSH1 0x4 DUP1 CALLDATASIZE SUB DUP2 ADD SWAP1 PUSH2 0x576 SWAP2 SWAP1 PUSH2 0x4025 JUMP JUMPDEST PUSH2 0x3196 JUMP JUMPDEST PUSH1 0x40 MLOAD PUSH2 0x588 SWAP2 SWAP1 PUSH2 0x3F00 JUMP JUMPDEST PUSH1 0x40 MLOAD DUP1 SWAP2 SUB SWAP1 RETURN JUMPDEST PUSH2 0x5AB PUSH1 0x4 DUP1 CALLDATASIZE SUB DUP2 ADD SWAP1 PUSH2 0x5A6 SWAP2 SWAP1 PUSH2 0x4503 JUMP JUMPDEST PUSH2 0x322A JUMP JUMPDEST PUSH1 0x40 MLOAD PUSH2 0x5B8 SWAP2 SWAP1 PUSH2 0x3CAE JUMP JUMPDEST PUSH1 0x40 MLOAD DUP1 SWAP2 SUB SWAP1 RETURN JUMPDEST PUSH2 0x5DB PUSH1 0x4 DUP1 CALLDATASIZE SUB DUP2 ADD SWAP1 PUSH2 0x5D6 SWAP2 SWAP1 PUSH2 0x3B41 JUMP JUMPDEST PUSH2 0x3776 JUMP JUMPDEST STOP JUMPDEST PUSH2 0x5F7 PUSH1 0x4 DUP1 CALLDATASIZE SUB DUP2 ADD SWAP1 PUSH2 0x5F2 SWAP2 SWAP1 PUSH2 0x3B41 JUMP JUMPDEST PUSH2 0x37F9 JUMP JUMPDEST PUSH1 0x40 MLOAD PUSH2 0x605 SWAP3 SWAP2 SWAP1 PUSH2 0x456E JUMP JUMPDEST PUSH1 0x40 MLOAD DUP1 SWAP2 SUB SWAP1 RETURN JUMPDEST PUSH2 0x616 PUSH2 0x383A JUMP JUMPDEST PUSH1 0x40 MLOAD PUSH2 0x623 SWAP2 SWAP1 PUSH2 0x3F2A JUMP JUMPDEST PUSH1 0x40 MLOAD DUP1 SWAP2 SUB SWAP1 RETURN JUMPDEST DUP1 PUSH8 0xFFFFFFFFFFFFFFFF AND PUSH1 0x9 PUSH1 0x0 CALLER PUSH20 0xFFFFFFFFFFFFFFFFFFFFFFFFFFFFFFFFFFFFFFFF AND PUSH20 0xFFFFFFFFFFFFFFFFFFFFFFFFFFFFFFFFFFFFFFFF AND DUP2 MSTORE PUSH1 0x20 ADD SWAP1 DUP2 MSTORE PUSH1 0x20 ADD PUSH1 0x0 KECCAK256 SLOAD LT ISZERO PUSH2 0x6B8 JUMPI PUSH1 0x40 MLOAD PUSH32 0x8C379A000000000000000000000000000000000000000000000000000000000 DUP2 MSTORE PUSH1 0x4 ADD PUSH2 0x6AF SWAP1 PUSH2 0x45F4 JUMP JUMPDEST PUSH1 0x40 MLOAD DUP1 SWAP2 SUB SWAP1 REVERT JUMPDEST PUSH1 0x2 PUSH1 0x0 SWAP1 SLOAD SWAP1 PUSH2 0x100 EXP SWAP1 DIV PUSH20 0xFFFFFFFFFFFFFFFFFFFFFFFFFFFFFFFFFFFFFFFF AND PUSH20 0xFFFFFFFFFFFFFFFFFFFFFFFFFFFFFFFFFFFFFFFF AND DUP3 PUSH20 0xFFFFFFFFFFFFFFFFFFFFFFFFFFFFFFFFFFFFFFFF AND EQ DUP1 PUSH2 0x761 JUMPI POP PUSH1 0x4 PUSH1 0x0 SWAP1 SLOAD SWAP1 PUSH2 0x100 EXP SWAP1 DIV PUSH20 0xFFFFFFFFFFFFFFFFFFFFFFFFFFFFFFFFFFFFFFFF AND PUSH20 0xFFFFFFFFFFFFFFFFFFFFFFFFFFFFFFFFFFFFFFFF AND DUP3 PUSH20 0xFFFFFFFFFFFFFFFFFFFFFFFFFFFFFFFFFFFFFFFF AND EQ JUMPDEST PUSH2 0x7A0 JUMPI PUSH1 0x40 MLOAD PUSH32 0x8C379A000000000000000000000000000000000000000000000000000000000 DUP2 MSTORE PUSH1 0x4 ADD PUSH2 0x797 SWAP1 PUSH2 0x4660 JUMP JUMPDEST PUSH1 0x40 MLOAD DUP1 SWAP2 SUB SWAP1 REVERT JUMPDEST PUSH1 0x0 DUP1 PUSH8 0xFFFFFFFFFFFFFFFF DUP2 GT ISZERO PUSH2 0x7BC JUMPI PUSH2 0x7BB PUSH2 0x406A JUMP JUMPDEST JUMPDEST PUSH1 0x40 MLOAD SWAP1 DUP1 DUP3 MSTORE DUP1 PUSH1 0x20 MUL PUSH1 0x20 ADD DUP3 ADD PUSH1 0x40 MSTORE DUP1 ISZERO PUSH2 0x7EA JUMPI DUP2 PUSH1 0x20 ADD PUSH1 0x20 DUP3 MUL DUP1 CALLDATASIZE DUP4 CALLDATACOPY DUP1 DUP3 ADD SWAP2 POP POP SWAP1 POP JUMPDEST POP SWAP1 POP PUSH1 0x0 DUP1 PUSH2 0x167 PUSH20 0xFFFFFFFFFFFFFFFFFFFFFFFFFFFFFFFFFFFFFFFF AND PUSH4 0xACB9CFF9 DUP7 DUP7 DUP7 PUSH1 0x40 MLOAD DUP5 PUSH4 0xFFFFFFFF AND PUSH1 0xE0 SHL DUP2 MSTORE PUSH1 0x4 ADD PUSH2 0x82F SWAP4 SWAP3 SWAP2 SWAP1 PUSH2 0x468F JUMP JUMPDEST PUSH1 0x40 DUP1 MLOAD DUP1 DUP4 SUB DUP2 PUSH1 0x0 DUP8 GAS CALL ISZERO DUP1 ISZERO PUSH2 0x84D JUMPI RETURNDATASIZE PUSH1 0x0 DUP1 RETURNDATACOPY RETURNDATASIZE PUSH1 0x0 REVERT JUMPDEST POP POP POP POP PUSH1 0x40 MLOAD RETURNDATASIZE PUSH1 0x1F NOT PUSH1 0x1F DUP3 ADD AND DUP3 ADD DUP1 PUSH1 0x40 MSTORE POP DUP2 ADD SWAP1 PUSH2 0x871 SWAP2 SWAP1 PUSH2 0x4718 JUMP JUMPDEST SWAP2 POP SWAP2 POP PUSH1 0x16 DUP3 SUB PUSH2 0x92E JUMPI DUP4 PUSH8 0xFFFFFFFFFFFFFFFF AND PUSH1 0x9 PUSH1 0x0 CALLER PUSH20 0xFFFFFFFFFFFFFFFFFFFFFFFFFFFFFFFFFFFFFFFF AND PUSH20 0xFFFFFFFFFFFFFFFFFFFFFFFFFFFFFFFFFFFFFFFF AND DUP2 MSTORE PUSH1 0x20 ADD SWAP1 DUP2 MSTORE PUSH1 0x20 ADD PUSH1 0x0 KECCAK256 PUSH1 0x0 DUP3 DUP3 SLOAD PUSH2 0x8D6 SWAP2 SWAP1 PUSH2 0x4787 JUMP JUMPDEST SWAP3 POP POP DUP2 SWAP1 SSTORE POP DUP5 PUSH20 0xFFFFFFFFFFFFFFFFFFFFFFFFFFFFFFFFFFFFFFFF AND PUSH32 0x534E4594EBC4F3022652E6F8361CF4588DDD992F9178D5C4F86650131CC899ED DUP6 DUP6 PUSH1 0x40 MLOAD PUSH2 0x925 SWAP3 SWAP2 SWAP1 PUSH2 0x47BB JUMP JUMPDEST PUSH1 0x40 MLOAD DUP1 SWAP2 SUB SWAP1 LOG2 JUMPDEST POP POP POP POP POP JUMP JUMPDEST PUSH2 0x93D PUSH2 0x3860 JUMP JUMPDEST PUSH1 0x6 PUSH1 0x0 DUP5 PUSH20 0xFFFFFFFFFFFFFFFFFFFFFFFFFFFFFFFFFFFFFFFF AND PUSH20 0xFFFFFFFFFFFFFFFFFFFFFFFFFFFFFFFFFFFFFFFF AND DUP2 MSTORE PUSH1 0x20 ADD SWAP1 DUP2 MSTORE PUSH1 0x20 ADD PUSH1 0x0 KECCAK256 PUSH1 0x0 ADD PUSH1 0x4 SWAP1 SLOAD SWAP1 PUSH2 0x100 EXP SWAP1 DIV PUSH1 0xFF AND PUSH2 0x9CC JUMPI PUSH1 0x40 MLOAD PUSH32 0x8C379A000000000000000000000000000000000000000000000000000000000 DUP2 MSTORE PUSH1 0x4 ADD PUSH2 0x9C3 SWAP1 PUSH2 0x4837 JUMP JUMPDEST PUSH1 0x40 MLOAD DUP1 SWAP2 SUB SWAP1 REVERT JUMPDEST PUSH1 0x0 PUSH2 0x167 PUSH20 0xFFFFFFFFFFFFFFFFFFFFFFFFFFFFFFFFFFFFFFFF AND PUSH4 0x12AEDC7F DUP6 ADDRESS DUP7 DUP7 PUSH1 0x40 MLOAD DUP6 PUSH4 0xFFFFFFFF AND PUSH1 0xE0 SHL DUP2 MSTORE PUSH1 0x4 ADD PUSH2 0xA0F SWAP5 SWAP4 SWAP3 SWAP2 SWAP1 PUSH2 0x4857 JUMP JUMPDEST PUSH1 0x20 PUSH1 0x40 MLOAD DUP1 DUP4 SUB DUP2 PUSH1 0x0 DUP8 GAS CALL ISZERO DUP1 ISZERO PUSH2 0xA2E JUMPI RETURNDATASIZE PUSH1 0x0 DUP1 RETURNDATACOPY RETURNDATASIZE PUSH1 0x0 REVERT JUMPDEST POP POP POP POP PUSH1 0x40 MLOAD RETURNDATASIZE PUSH1 0x1F NOT PUSH1 0x1F DUP3 ADD AND DUP3 ADD DUP1 PUSH1 0x40 MSTORE POP DUP2 ADD SWAP1 PUSH2 0xA52 SWAP2 SWAP1 PUSH2 0x489C JUMP JUMPDEST SWAP1 POP PUSH1 0x16 DUP2 EQ PUSH2 0xA97 JUMPI PUSH1 0x40 MLOAD PUSH32 0x8C379A000000000000000000000000000000000000000000000000000000000 DUP2 MSTORE PUSH1 0x4 ADD PUSH2 0xA8E SWAP1 PUSH2 0x4915 JUMP JUMPDEST PUSH1 0x40 MLOAD DUP1 SWAP2 SUB SWAP1 REVERT JUMPDEST POP POP POP POP JUMP JUMPDEST PUSH2 0xAA5 PUSH2 0x3860 JUMP JUMPDEST DUP1 PUSH1 0x5 PUSH1 0x0 PUSH2 0x100 EXP DUP2 SLOAD DUP2 PUSH20 0xFFFFFFFFFFFFFFFFFFFFFFFFFFFFFFFFFFFFFFFF MUL NOT AND SWAP1 DUP4 PUSH20 0xFFFFFFFFFFFFFFFFFFFFFFFFFFFFFFFFFFFFFFFF AND MUL OR SWAP1 SSTORE POP POP JUMP JUMPDEST PUSH2 0xAF1 PUSH2 0x39AA JUMP JUMPDEST PUSH1 0x6 PUSH1 0x0 DUP4 PUSH20 0xFFFFFFFFFFFFFFFFFFFFFFFFFFFFFFFFFFFFFFFF AND PUSH20 0xFFFFFFFFFFFFFFFFFFFFFFFFFFFFFFFFFFFFFFFF AND DUP2 MSTORE PUSH1 0x20 ADD SWAP1 DUP2 MSTORE PUSH1 0x20 ADD PUSH1 0x0 KECCAK256 PUSH1 0x40 MLOAD DUP1 PUSH1 0x40 ADD PUSH1 0x40 MSTORE SWAP1 DUP2 PUSH1 0x0 DUP3 ADD PUSH1 0x0 SWAP1 SLOAD SWAP1 PUSH2 0x100 EXP SWAP1 DIV PUSH4 0xFFFFFFFF AND PUSH4 0xFFFFFFFF AND PUSH4 0xFFFFFFFF AND DUP2 MSTORE PUSH1 0x20 ADD PUSH1 0x0 DUP3 ADD PUSH1 0x4 SWAP1 SLOAD SWAP1 PUSH2 0x100 EXP SWAP1 DIV PUSH1 0xFF AND ISZERO ISZERO ISZERO ISZERO DUP2 MSTORE POP POP SWAP1 POP SWAP2 SWAP1 POP JUMP JUMPDEST PUSH1 0x9 PUSH1 0x20 MSTORE DUP1 PUSH1 0x0 MSTORE PUSH1 0x40 PUSH1 0x0 KECCAK256 PUSH1 0x0 SWAP2 POP SWAP1 POP SLOAD DUP2 JUMP JUMPDEST PUSH1 0xA PUSH1 0x20 MSTORE DUP2 PUSH1 0x0 MSTORE PUSH1 0x40 PUSH1 0x0 KECCAK256 DUP2 DUP2 SLOAD DUP2 LT PUSH2 0xBB7 JUMPI PUSH1 0x0 DUP1 REVERT JUMPDEST SWAP1 PUSH1 0x0 MSTORE PUSH1 0x20 PUSH1 0x0 KECCAK256 SWAP1 PUSH1 0x4 SWAP2 DUP3 DUP3 DIV ADD SWAP2 SWAP1 MOD PUSH1 0x8 MUL SWAP2 POP SWAP2 POP SWAP1 SLOAD SWAP1 PUSH2 0x100 EXP SWAP1 DIV PUSH1 0x7 SIGNEXTEND DUP2 JUMP JUMPDEST PUSH1 0x60 PUSH1 0x0 PUSH1 0x3 PUSH8 0xFFFFFFFFFFFFFFFF DUP2 GT ISZERO PUSH2 0xC00 JUMPI PUSH2 0xBFF PUSH2 0x406A JUMP JUMPDEST JUMPDEST PUSH1 0x40 MLOAD SWAP1 DUP1 DUP3 MSTORE DUP1 PUSH1 0x20 MUL PUSH1 0x20 ADD DUP3 ADD PUSH1 0x40 MSTORE DUP1 ISZERO PUSH2 0xC2E JUMPI DUP2 PUSH1 0x20 ADD PUSH1 0x20 DUP3 MUL DUP1 CALLDATASIZE DUP4 CALLDATACOPY DUP1 DUP3 ADD SWAP2 POP POP SWAP1 POP JUMPDEST POP SWAP1 POP PUSH1 0x2 PUSH1 0x0 SWAP1 SLOAD SWAP1 PUSH2 0x100 EXP SWAP1 DIV PUSH20 0xFFFFFFFFFFFFFFFFFFFFFFFFFFFFFFFFFFFFFFFF AND DUP2 PUSH1 0x0 DUP2 MLOAD DUP2 LT PUSH2 0xC68 JUMPI PUSH2 0xC67 PUSH2 0x4935 JUMP JUMPDEST JUMPDEST PUSH1 0x20 MUL PUSH1 0x20 ADD ADD SWAP1 PUSH20 0xFFFFFFFFFFFFFFFFFFFFFFFFFFFFFFFFFFFFFFFF AND SWAP1 DUP2 PUSH20 0xFFFFFFFFFFFFFFFFFFFFFFFFFFFFFFFFFFFFFFFF AND DUP2 MSTORE POP POP PUSH1 0x3 PUSH1 0x0 SWAP1 SLOAD SWAP1 PUSH2 0x100 EXP SWAP1 DIV PUSH20 0xFFFFFFFFFFFFFFFFFFFFFFFFFFFFFFFFFFFFFFFF AND DUP2 PUSH1 0x1 DUP2 MLOAD DUP2 LT PUSH2 0xCD9 JUMPI PUSH2 0xCD8 PUSH2 0x4935 JUMP JUMPDEST JUMPDEST PUSH1 0x20 MUL PUSH1 0x20 ADD ADD SWAP1 PUSH20 0xFFFFFFFFFFFFFFFFFFFFFFFFFFFFFFFFFFFFFFFF AND SWAP1 DUP2 PUSH20 0xFFFFFFFFFFFFFFFFFFFFFFFFFFFFFFFFFFFFFFFF AND DUP2 MSTORE POP POP PUSH1 0x4 PUSH1 0x0 SWAP1 SLOAD SWAP1 PUSH2 0x100 EXP SWAP1 DIV PUSH20 0xFFFFFFFFFFFFFFFFFFFFFFFFFFFFFFFFFFFFFFFF AND DUP2 PUSH1 0x2 DUP2 MLOAD DUP2 LT PUSH2 0xD4A JUMPI PUSH2 0xD49 PUSH2 0x4935 JUMP JUMPDEST JUMPDEST PUSH1 0x20 MUL PUSH1 0x20 ADD ADD SWAP1 PUSH20 0xFFFFFFFFFFFFFFFFFFFFFFFFFFFFFFFFFFFFFFFF AND SWAP1 DUP2 PUSH20 0xFFFFFFFFFFFFFFFFFFFFFFFFFFFFFFFFFFFFFFFF AND DUP2 MSTORE POP POP DUP1 SWAP2 POP POP SWAP1 JUMP JUMPDEST PUSH2 0xD93 PUSH2 0x39CC JUMP JUMPDEST PUSH1 0x8 PUSH1 0x0 PUSH1 0x3 PUSH1 0x0 SWAP1 SLOAD SWAP1 PUSH2 0x100 EXP SWAP1 DIV PUSH20 0xFFFFFFFFFFFFFFFFFFFFFFFFFFFFFFFFFFFFFFFF AND PUSH20 0xFFFFFFFFFFFFFFFFFFFFFFFFFFFFFFFFFFFFFFFF AND PUSH20 0xFFFFFFFFFFFFFFFFFFFFFFFFFFFFFFFFFFFFFFFF AND DUP2 MSTORE PUSH1 0x20 ADD SWAP1 DUP2 MSTORE PUSH1 0x20 ADD PUSH1 0x0 KECCAK256 PUSH1 0x0 DUP4 PUSH1 0x7 SIGNEXTEND PUSH1 0x7 SIGNEXTEND DUP2 MSTORE PUSH1 0x20 ADD SWAP1 DUP2 MSTORE PUSH1 0x20 ADD PUSH1 0x0 KECCAK256 PUSH1 0x40 MLOAD DUP1 PUSH1 0x40 ADD PUSH1 0x40 MSTORE SWAP1 DUP2 PUSH1 0x0 DUP3 ADD PUSH1 0x0 SWAP1 SLOAD SWAP1 PUSH2 0x100 EXP SWAP1 DIV PUSH20 0xFFFFFFFFFFFFFFFFFFFFFFFFFFFFFFFFFFFFFFFF AND PUSH20 0xFFFFFFFFFFFFFFFFFFFFFFFFFFFFFFFFFFFFFFFF AND PUSH20 0xFFFFFFFFFFFFFFFFFFFFFFFFFFFFFFFFFFFFFFFF AND DUP2 MSTORE PUSH1 0x20 ADD PUSH1 0x1 DUP3 ADD DUP1 SLOAD PUSH2 0xE7C SWAP1 PUSH2 0x4993 JUMP JUMPDEST DUP1 PUSH1 0x1F ADD PUSH1 0x20 DUP1 SWAP2 DIV MUL PUSH1 0x20 ADD PUSH1 0x40 MLOAD SWAP1 DUP2 ADD PUSH1 0x40 MSTORE DUP1 SWAP3 SWAP2 SWAP1 DUP2 DUP2 MSTORE PUSH1 0x20 ADD DUP3 DUP1 SLOAD PUSH2 0xEA8 SWAP1 PUSH2 0x4993 JUMP JUMPDEST DUP1 ISZERO PUSH2 0xEF5 JUMPI DUP1 PUSH1 0x1F LT PUSH2 0xECA JUMPI PUSH2 0x100 DUP1 DUP4 SLOAD DIV MUL DUP4 MSTORE SWAP2 PUSH1 0x20 ADD SWAP2 PUSH2 0xEF5 JUMP JUMPDEST DUP3 ADD SWAP2 SWAP1 PUSH1 0x0 MSTORE PUSH1 0x20 PUSH1 0x0 KECCAK256 SWAP1 JUMPDEST DUP2 SLOAD DUP2 MSTORE SWAP1 PUSH1 0x1 ADD SWAP1 PUSH1 0x20 ADD DUP1 DUP4 GT PUSH2 0xED8 JUMPI DUP3 SWAP1 SUB PUSH1 0x1F AND DUP3 ADD SWAP2 JUMPDEST POP POP POP POP POP DUP2 MSTORE POP POP SWAP1 POP SWAP2 SWAP1 POP JUMP JUMPDEST PUSH1 0x5 PUSH1 0x14 SWAP1 SLOAD SWAP1 PUSH2 0x100 EXP SWAP1 DIV PUSH1 0xFF AND DUP2 JUMP JUMPDEST PUSH1 0x2 PUSH1 0x0 SWAP1 SLOAD SWAP1 PUSH2 0x100 EXP SWAP1 DIV PUSH20 0xFFFFFFFFFFFFFFFFFFFFFFFFFFFFFFFFFFFFFFFF AND DUP2 JUMP JUMPDEST PUSH1 0x60 PUSH1 0xA PUSH1 0x0 DUP4 PUSH20 0xFFFFFFFFFFFFFFFFFFFFFFFFFFFFFFFFFFFFFFFF AND PUSH20 0xFFFFFFFFFFFFFFFFFFFFFFFFFFFFFFFFFFFFFFFF AND DUP2 MSTORE PUSH1 0x20 ADD SWAP1 DUP2 MSTORE PUSH1 0x20 ADD PUSH1 0x0 KECCAK256 DUP1 SLOAD DUP1 PUSH1 0x20 MUL PUSH1 0x20 ADD PUSH1 0x40 MLOAD SWAP1 DUP2 ADD PUSH1 0x40 MSTORE DUP1 SWAP3 SWAP2 SWAP1 DUP2 DUP2 MSTORE PUSH1 0x20 ADD DUP3 DUP1 SLOAD DUP1 ISZERO PUSH2 0xFEF JUMPI PUSH1 0x20 MUL DUP3 ADD SWAP2 SWAP1 PUSH1 0x0 MSTORE PUSH1 0x20 PUSH1 0x0 KECCAK256 SWAP1 PUSH1 0x0 SWAP1 JUMPDEST DUP3 DUP3 SWAP1 SLOAD SWAP1 PUSH2 0x100 EXP SWAP1 DIV PUSH1 0x7 SIGNEXTEND PUSH1 0x7 SIGNEXTEND DUP2 MSTORE PUSH1 0x20 ADD SWAP1 PUSH1 0x8 ADD SWAP1 PUSH1 0x20 DUP3 PUSH1 0x7 ADD DIV SWAP3 DUP4 ADD SWAP3 PUSH1 0x1 SUB DUP3 MUL SWAP2 POP DUP1 DUP5 GT PUSH2 0xFB8 JUMPI SWAP1 POP JUMPDEST POP POP POP POP POP SWAP1 POP SWAP2 SWAP1 POP JUMP JUMPDEST PUSH2 0x1003 PUSH2 0x3860 JUMP JUMPDEST PUSH1 0x5 PUSH1 0x14 SWAP1 SLOAD SWAP1 PUSH2 0x100 EXP SWAP1 DIV PUSH1 0xFF AND ISZERO PUSH2 0x1053 JUMPI PUSH1 0x40 MLOAD PUSH32 0x8C379A000000000000000000000000000000000000000000000000000000000 DUP2 MSTORE PUSH1 0x4 ADD PUSH2 0x104A SWAP1 PUSH2 0x4A10 JUMP JUMPDEST PUSH1 0x40 MLOAD DUP1 SWAP2 SUB SWAP1 REVERT JUMPDEST ADDRESS PUSH1 0x40 MLOAD PUSH1 0x20 ADD PUSH2 0x1064 SWAP2 SWAP1 PUSH2 0x4ACF JUMP JUMPDEST PUSH1 0x40 MLOAD PUSH1 0x20 DUP2 DUP4 SUB SUB DUP2 MSTORE SWAP1 PUSH1 0x40 MSTORE DUP1 MLOAD SWAP1 PUSH1 0x20 ADD KECCAK256 PUSH1 0x0 SHR PUSH1 0x2 PUSH1 0x0 PUSH2 0x100 EXP DUP2 SLOAD DUP2 PUSH20 0xFFFFFFFFFFFFFFFFFFFFFFFFFFFFFFFFFFFFFFFF MUL NOT AND SWAP1 DUP4 PUSH20 0xFFFFFFFFFFFFFFFFFFFFFFFFFFFFFFFFFFFFFFFF AND MUL OR SWAP1 SSTORE POP PUSH1 0x0 PUSH2 0x167 PUSH20 0xFFFFFFFFFFFFFFFFFFFFFFFFFFFFFFFFFFFFFFFF AND PUSH4 0xE7B1938F PUSH1 0x2 PUSH1 0x0 SWAP1 SLOAD SWAP1 PUSH2 0x100 EXP SWAP1 DIV PUSH20 0xFFFFFFFFFFFFFFFFFFFFFFFFFFFFFFFFFFFFFFFF AND PUSH10 0xD3C21BCECCEDA1000000 PUSH1 0x12 PUSH1 0x40 MLOAD DUP5 PUSH4 0xFFFFFFFF AND PUSH1 0xE0 SHL DUP2 MSTORE PUSH1 0x4 ADD PUSH2 0x112B SWAP4 SWAP3 SWAP2 SWAP1 PUSH2 0x4C0D JUMP JUMPDEST PUSH1 0x20 PUSH1 0x40 MLOAD DUP1 DUP4 SUB DUP2 PUSH1 0x0 DUP8 GAS CALL ISZERO DUP1 ISZERO PUSH2 0x114A JUMPI RETURNDATASIZE PUSH1 0x0 DUP1 RETURNDATACOPY RETURNDATASIZE PUSH1 0x0 REVERT JUMPDEST POP POP POP POP PUSH1 0x40 MLOAD RETURNDATASIZE PUSH1 0x1F NOT PUSH1 0x1F DUP3 ADD AND DUP3 ADD DUP1 PUSH1 0x40 MSTORE POP DUP2 ADD SWAP1 PUSH2 0x116E SWAP2 SWAP1 PUSH2 0x489C JUMP JUMPDEST SWAP1 POP PUSH1 0x16 DUP2 EQ PUSH2 0x11B3 JUMPI PUSH1 0x40 MLOAD PUSH32 0x8C379A000000000000000000000000000000000000000000000000000000000 DUP2 MSTORE PUSH1 0x4 ADD PUSH2 0x11AA SWAP1 PUSH2 0x4CB6 JUMP JUMPDEST PUSH1 0x40 MLOAD DUP1 SWAP2 SUB SWAP1 REVERT JUMPDEST PUSH1 0x40 MLOAD DUP1 PUSH1 0x40 ADD PUSH1 0x40 MSTORE DUP1 PUSH1 0x12 PUSH4 0xFFFFFFFF AND DUP2 MSTORE PUSH1 0x20 ADD PUSH1 0x1 ISZERO ISZERO DUP2 MSTORE POP PUSH1 0x6 PUSH1 0x0 PUSH1 0x2 PUSH1 0x0 SWAP1 SLOAD SWAP1 PUSH2 0x100 EXP SWAP1 DIV PUSH20 0xFFFFFFFFFFFFFFFFFFFFFFFFFFFFFFFFFFFFFFFF AND PUSH20 0xFFFFFFFFFFFFFFFFFFFFFFFFFFFFFFFFFFFFFFFF AND PUSH20 0xFFFFFFFFFFFFFFFFFFFFFFFFFFFFFFFFFFFFFFFF AND DUP2 MSTORE PUSH1 0x20 ADD SWAP1 DUP2 MSTORE PUSH1 0x20 ADD PUSH1 0x0 KECCAK256 PUSH1 0x0 DUP3 ADD MLOAD DUP2 PUSH1 0x0 ADD PUSH1 0x0 PUSH2 0x100 EXP DUP2 SLOAD DUP2 PUSH4 0xFFFFFFFF MUL NOT AND SWAP1 DUP4 PUSH4 0xFFFFFFFF AND MUL OR SWAP1 SSTORE POP PUSH1 0x20 DUP3 ADD MLOAD DUP2 PUSH1 0x0 ADD PUSH1 0x4 PUSH2 0x100 EXP DUP2 SLOAD DUP2 PUSH1 0xFF MUL NOT AND SWAP1 DUP4 ISZERO ISZERO MUL OR SWAP1 SSTORE POP SWAP1 POP POP ADDRESS PUSH1 0x40 MLOAD PUSH1 0x20 ADD PUSH2 0x128E SWAP2 SWAP1 PUSH2 0x4D22 JUMP JUMPDEST PUSH1 0x40 MLOAD PUSH1 0x20 DUP2 DUP4 SUB SUB DUP2 MSTORE SWAP1 PUSH1 0x40 MSTORE DUP1 MLOAD SWAP1 PUSH1 0x20 ADD KECCAK256 PUSH1 0x0 SHR PUSH1 0x3 PUSH1 0x0 PUSH2 0x100 EXP DUP2 SLOAD DUP2 PUSH20 0xFFFFFFFFFFFFFFFFFFFFFFFFFFFFFFFFFFFFFFFF MUL NOT AND SWAP1 DUP4 PUSH20 0xFFFFFFFFFFFFFFFFFFFFFFFFFFFFFFFFFFFFFFFF AND MUL OR SWAP1 SSTORE POP PUSH1 0x0 PUSH2 0x167 PUSH20 0xFFFFFFFFFFFFFFFFFFFFFFFFFFFFFFFFFFFFFFFF AND PUSH4 0xB65774E3 PUSH1 0x3 PUSH1 0x0 SWAP1 SLOAD SWAP1 PUSH2 0x100 EXP SWAP1 DIV PUSH20 0xFFFFFFFFFFFFFFFFFFFFFFFFFFFFFFFFFFFFFFFF AND PUSH1 0x40 MLOAD DUP3 PUSH4 0xFFFFFFFF AND PUSH1 0xE0 SHL DUP2 MSTORE PUSH1 0x4 ADD PUSH2 0x1346 SWAP2 SWAP1 PUSH2 0x4DE0 JUMP JUMPDEST PUSH1 0x20 PUSH1 0x40 MLOAD DUP1 DUP4 SUB DUP2 PUSH1 0x0 DUP8 GAS CALL ISZERO DUP1 ISZERO PUSH2 0x1365 JUMPI RETURNDATASIZE PUSH1 0x0 DUP1 RETURNDATACOPY RETURNDATASIZE PUSH1 0x0 REVERT JUMPDEST POP POP POP POP PUSH1 0x40 MLOAD RETURNDATASIZE PUSH1 0x1F NOT PUSH1 0x1F DUP3 ADD AND DUP3 ADD DUP1 PUSH1 0x40 MSTORE POP DUP2 ADD SWAP1 PUSH2 0x1389 SWAP2 SWAP1 PUSH2 0x489C JUMP JUMPDEST SWAP1 POP PUSH1 0x16 DUP2 EQ PUSH2 0x13CE JUMPI PUSH1 0x40 MLOAD PUSH32 0x8C379A000000000000000000000000000000000000000000000000000000000 DUP2 MSTORE PUSH1 0x4 ADD PUSH2 0x13C5 SWAP1 PUSH2 0x4E6D JUMP JUMPDEST PUSH1 0x40 MLOAD DUP1 SWAP2 SUB SWAP1 REVERT JUMPDEST PUSH1 0x40 MLOAD DUP1 PUSH1 0x40 ADD PUSH1 0x40 MSTORE DUP1 PUSH1 0x0 PUSH4 0xFFFFFFFF AND DUP2 MSTORE PUSH1 0x20 ADD PUSH1 0x1 ISZERO ISZERO DUP2 MSTORE POP PUSH1 0x6 PUSH1 0x0 PUSH1 0x3 PUSH1 0x0 SWAP1 SLOAD SWAP1 PUSH2 0x100 EXP SWAP1 DIV PUSH20 0xFFFFFFFFFFFFFFFFFFFFFFFFFFFFFFFFFFFFFFFF AND PUSH20 0xFFFFFFFFFFFFFFFFFFFFFFFFFFFFFFFFFFFFFFFF AND PUSH20 0xFFFFFFFFFFFFFFFFFFFFFFFFFFFFFFFFFFFFFFFF AND DUP2 MSTORE PUSH1 0x20 ADD SWAP1 DUP2 MSTORE PUSH1 0x20 ADD PUSH1 0x0 KECCAK256 PUSH1 0x0 DUP3 ADD MLOAD DUP2 PUSH1 0x0 ADD PUSH1 0x0 PUSH2 0x100 EXP DUP2 SLOAD DUP2 PUSH4 0xFFFFFFFF MUL NOT AND SWAP1 DUP4 PUSH4 0xFFFFFFFF AND MUL OR SWAP1 SSTORE POP PUSH1 0x20 DUP3 ADD MLOAD DUP2 PUSH1 0x0 ADD PUSH1 0x4 PUSH2 0x100 EXP DUP2 SLOAD DUP2 PUSH1 0xFF MUL NOT AND SWAP1 DUP4 ISZERO ISZERO MUL OR SWAP1 SSTORE POP SWAP1 POP POP ADDRESS PUSH1 0x40 MLOAD PUSH1 0x20 ADD PUSH2 0x14A9 SWAP2 SWAP1 PUSH2 0x4ED9 JUMP JUMPDEST PUSH1 0x40 MLOAD PUSH1 0x20 DUP2 DUP4 SUB SUB DUP2 MSTORE SWAP1 PUSH1 0x40 MSTORE DUP1 MLOAD SWAP1 PUSH1 0x20 ADD KECCAK256 PUSH1 0x0 SHR PUSH1 0x4 PUSH1 0x0 PUSH2 0x100 EXP DUP2 SLOAD DUP2 PUSH20 0xFFFFFFFFFFFFFFFFFFFFFFFFFFFFFFFFFFFFFFFF MUL NOT AND SWAP1 DUP4 PUSH20 0xFFFFFFFFFFFFFFFFFFFFFFFFFFFFFFFFFFFFFFFF AND MUL OR SWAP1 SSTORE POP PUSH1 0x0 PUSH2 0x167 PUSH20 0xFFFFFFFFFFFFFFFFFFFFFFFFFFFFFFFFFFFFFFFF AND PUSH4 0xE7B1938F PUSH1 0x4 PUSH1 0x0 SWAP1 SLOAD SWAP1 PUSH2 0x100 EXP SWAP1 DIV PUSH20 0xFFFFFFFFFFFFFFFFFFFFFFFFFFFFFFFFFFFFFFFF AND PUSH11 0x84595161401484A000000 PUSH1 0x12 PUSH1 0x40 MLOAD DUP5 PUSH4 0xFFFFFFFF AND PUSH1 0xE0 SHL DUP2 MSTORE PUSH1 0x4 ADD PUSH2 0x1571 SWAP4 SWAP3 SWAP2 SWAP1 PUSH2 0x4FD2 JUMP JUMPDEST PUSH1 0x20 PUSH1 0x40 MLOAD DUP1 DUP4 SUB DUP2 PUSH1 0x0 DUP8 GAS CALL ISZERO DUP1 ISZERO PUSH2 0x1590 JUMPI RETURNDATASIZE PUSH1 0x0 DUP1 RETURNDATACOPY RETURNDATASIZE PUSH1 0x0 REVERT JUMPDEST POP POP POP POP PUSH1 0x40 MLOAD RETURNDATASIZE PUSH1 0x1F NOT PUSH1 0x1F DUP3 ADD AND DUP3 ADD DUP1 PUSH1 0x40 MSTORE POP DUP2 ADD SWAP1 PUSH2 0x15B4 SWAP2 SWAP1 PUSH2 0x489C JUMP JUMPDEST SWAP1 POP PUSH1 0x16 DUP2 EQ PUSH2 0x15F9 JUMPI PUSH1 0x40 MLOAD PUSH32 0x8C379A000000000000000000000000000000000000000000000000000000000 DUP2 MSTORE PUSH1 0x4 ADD PUSH2 0x15F0 SWAP1 PUSH2 0x507B JUMP JUMPDEST PUSH1 0x40 MLOAD DUP1 SWAP2 SUB SWAP1 REVERT JUMPDEST PUSH1 0x40 MLOAD DUP1 PUSH1 0x40 ADD PUSH1 0x40 MSTORE DUP1 PUSH1 0x12 PUSH4 0xFFFFFFFF AND DUP2 MSTORE PUSH1 0x20 ADD PUSH1 0x1 ISZERO ISZERO DUP2 MSTORE POP PUSH1 0x6 PUSH1 0x0 PUSH1 0x4 PUSH1 0x0 SWAP1 SLOAD SWAP1 PUSH2 0x100 EXP SWAP1 DIV PUSH20 0xFFFFFFFFFFFFFFFFFFFFFFFFFFFFFFFFFFFFFFFF AND PUSH20 0xFFFFFFFFFFFFFFFFFFFFFFFFFFFFFFFFFFFFFFFF AND PUSH20 0xFFFFFFFFFFFFFFFFFFFFFFFFFFFFFFFFFFFFFFFF AND DUP2 MSTORE PUSH1 0x20 ADD SWAP1 DUP2 MSTORE PUSH1 0x20 ADD PUSH1 0x0 KECCAK256 PUSH1 0x0 DUP3 ADD MLOAD DUP2 PUSH1 0x0 ADD PUSH1 0x0 PUSH2 0x100 EXP DUP2 SLOAD DUP2 PUSH4 0xFFFFFFFF MUL NOT AND SWAP1 DUP4 PUSH4 0xFFFFFFFF AND MUL OR SWAP1 SSTORE POP PUSH1 0x20 DUP3 ADD MLOAD DUP2 PUSH1 0x0 ADD PUSH1 0x4 PUSH2 0x100 EXP DUP2 SLOAD DUP2 PUSH1 0xFF MUL NOT AND SWAP1 DUP4 ISZERO ISZERO MUL OR SWAP1 SSTORE POP SWAP1 POP POP PUSH1 0x1 PUSH1 0x5 PUSH1 0x14 PUSH2 0x100 EXP DUP2 SLOAD DUP2 PUSH1 0xFF MUL NOT AND SWAP1 DUP4 ISZERO ISZERO MUL OR SWAP1 SSTORE POP PUSH1 0x2 PUSH1 0x0 SWAP1 SLOAD SWAP1 PUSH2 0x100 EXP SWAP1 DIV PUSH20 0xFFFFFFFFFFFFFFFFFFFFFFFFFFFFFFFFFFFFFFFF AND PUSH20 0xFFFFFFFFFFFFFFFFFFFFFFFFFFFFFFFFFFFFFFFF AND PUSH32 0xA70BDF63CD80963F56338C91FF4C68EED840ACC259005D5AAF8F3DF97506D927 PUSH1 0x1 PUSH1 0x40 MLOAD PUSH2 0x1747 SWAP2 SWAP1 PUSH2 0x509B JUMP JUMPDEST PUSH1 0x40 MLOAD DUP1 SWAP2 SUB SWAP1 LOG2 PUSH1 0x3 PUSH1 0x0 SWAP1 SLOAD SWAP1 PUSH2 0x100 EXP SWAP1 DIV PUSH20 0xFFFFFFFFFFFFFFFFFFFFFFFFFFFFFFFFFFFFFFFF AND PUSH20 0xFFFFFFFFFFFFFFFFFFFFFFFFFFFFFFFFFFFFFFFF AND PUSH32 0xA70BDF63CD80963F56338C91FF4C68EED840ACC259005D5AAF8F3DF97506D927 PUSH1 0x0 PUSH1 0x40 MLOAD PUSH2 0x17B8 SWAP2 SWAP1 PUSH2 0x50DC JUMP JUMPDEST PUSH1 0x40 MLOAD DUP1 SWAP2 SUB SWAP1 LOG2 PUSH1 0x4 PUSH1 0x0 SWAP1 SLOAD SWAP1 PUSH2 0x100 EXP SWAP1 DIV PUSH20 0xFFFFFFFFFFFFFFFFFFFFFFFFFFFFFFFFFFFFFFFF AND PUSH20 0xFFFFFFFFFFFFFFFFFFFFFFFFFFFFFFFFFFFFFFFF AND PUSH32 0xA70BDF63CD80963F56338C91FF4C68EED840ACC259005D5AAF8F3DF97506D927 PUSH1 0x1 PUSH1 0x40 MLOAD PUSH2 0x1829 SWAP2 SWAP1 PUSH2 0x511D JUMP JUMPDEST PUSH1 0x40 MLOAD DUP1 SWAP2 SUB SWAP1 LOG2 POP POP POP JUMP JUMPDEST PUSH1 0x3 PUSH1 0x0 SWAP1 SLOAD SWAP1 PUSH2 0x100 EXP SWAP1 DIV PUSH20 0xFFFFFFFFFFFFFFFFFFFFFFFFFFFFFFFFFFFFFFFF AND DUP2 JUMP JUMPDEST PUSH2 0x1864 PUSH2 0x3860 JUMP JUMPDEST PUSH2 0x186E PUSH1 0x0 PUSH2 0x38DE JUMP JUMPDEST JUMP JUMPDEST PUSH1 0x0 PUSH1 0x2 PUSH1 0x0 SWAP1 SLOAD SWAP1 PUSH2 0x100 EXP SWAP1 DIV PUSH20 0xFFFFFFFFFFFFFFFFFFFFFFFFFFFFFFFFFFFFFFFF AND PUSH20 0xFFFFFFFFFFFFFFFFFFFFFFFFFFFFFFFFFFFFFFFF AND DUP3 PUSH20 0xFFFFFFFFFFFFFFFFFFFFFFFFFFFFFFFFFFFFFFFF AND EQ DUP1 PUSH2 0x191B JUMPI POP PUSH1 0x4 PUSH1 0x0 SWAP1 SLOAD SWAP1 PUSH2 0x100 EXP SWAP1 DIV PUSH20 0xFFFFFFFFFFFFFFFFFFFFFFFFFFFFFFFFFFFFFFFF AND PUSH20 0xFFFFFFFFFFFFFFFFFFFFFFFFFFFFFFFFFFFFFFFF AND DUP3 PUSH20 0xFFFFFFFFFFFFFFFFFFFFFFFFFFFFFFFFFFFFFFFF AND EQ JUMPDEST ISZERO PUSH2 0x1967 JUMPI PUSH1 0x9 PUSH1 0x0 DUP5 PUSH20 0xFFFFFFFFFFFFFFFFFFFFFFFFFFFFFFFFFFFFFFFF AND PUSH20 0xFFFFFFFFFFFFFFFFFFFFFFFFFFFFFFFFFFFFFFFF AND DUP2 MSTORE PUSH1 0x20 ADD SWAP1 DUP2 MSTORE PUSH1 0x20 ADD PUSH1 0x0 KECCAK256 SLOAD SWAP1 POP PUSH2 0x196C JUMP JUMPDEST PUSH1 0x0 SWAP1 POP JUMPDEST SWAP3 SWAP2 POP POP JUMP JUMPDEST PUSH1 0x60 PUSH1 0x0 DUP3 MLOAD PUSH8 0xFFFFFFFFFFFFFFFF DUP2 GT ISZERO PUSH2 0x1991 JUMPI PUSH2 0x1990 PUSH2 0x406A JUMP JUMPDEST JUMPDEST PUSH1 0x40 MLOAD SWAP1 DUP1 DUP3 MSTORE DUP1 PUSH1 0x20 MUL PUSH1 0x20 ADD DUP3 ADD PUSH1 0x40 MSTORE DUP1 ISZERO PUSH2 0x19BF JUMPI DUP2 PUSH1 0x20 ADD PUSH1 0x20 DUP3 MUL DUP1 CALLDATASIZE DUP4 CALLDATACOPY DUP1 DUP3 ADD SWAP2 POP POP SWAP1 POP JUMPDEST POP SWAP1 POP PUSH1 0x0 JUMPDEST DUP4 MLOAD DUP2 LT ISZERO PUSH2 0x1CF0 JUMPI PUSH1 0x7 PUSH1 0x0 DUP7 PUSH20 0xFFFFFFFFFFFFFFFFFFFFFFFFFFFFFFFFFFFFFFFF AND PUSH20 0xFFFFFFFFFFFFFFFFFFFFFFFFFFFFFFFFFFFFFFFF AND DUP2 MSTORE PUSH1 0x20 ADD SWAP1 DUP2 MSTORE PUSH1 0x20 ADD PUSH1 0x0 KECCAK256 PUSH1 0x0 DUP6 DUP4 DUP2 MLOAD DUP2 LT PUSH2 0x1A22 JUMPI PUSH2 0x1A21 PUSH2 0x4935 JUMP JUMPDEST JUMPDEST PUSH1 0x20 MUL PUSH1 0x20 ADD ADD MLOAD PUSH20 0xFFFFFFFFFFFFFFFFFFFFFFFFFFFFFFFFFFFFFFFF AND PUSH20 0xFFFFFFFFFFFFFFFFFFFFFFFFFFFFFFFFFFFFFFFF AND DUP2 MSTORE PUSH1 0x20 ADD SWAP1 DUP2 MSTORE PUSH1 0x20 ADD PUSH1 0x0 KECCAK256 PUSH1 0x0 SWAP1 SLOAD SWAP1 PUSH2 0x100 EXP SWAP1 DIV PUSH1 0xFF AND ISZERO DUP1 ISZERO PUSH2 0x1AE5 JUMPI POP PUSH1 0x6 PUSH1 0x0 DUP6 DUP4 DUP2 MLOAD DUP2 LT PUSH2 0x1A91 JUMPI PUSH2 0x1A90 PUSH2 0x4935 JUMP JUMPDEST JUMPDEST PUSH1 0x20 MUL PUSH1 0x20 ADD ADD MLOAD PUSH20 0xFFFFFFFFFFFFFFFFFFFFFFFFFFFFFFFFFFFFFFFF AND PUSH20 0xFFFFFFFFFFFFFFFFFFFFFFFFFFFFFFFFFFFFFFFF AND DUP2 MSTORE PUSH1 0x20 ADD SWAP1 DUP2 MSTORE PUSH1 0x20 ADD PUSH1 0x0 KECCAK256 PUSH1 0x0 ADD PUSH1 0x4 SWAP1 SLOAD SWAP1 PUSH2 0x100 EXP SWAP1 DIV PUSH1 0xFF AND JUMPDEST ISZERO PUSH2 0x1CDD JUMPI PUSH1 0x0 PUSH2 0x167 PUSH20 0xFFFFFFFFFFFFFFFFFFFFFFFFFFFFFFFFFFFFFFFF AND PUSH4 0x49146BDE DUP8 DUP8 DUP6 DUP2 MLOAD DUP2 LT PUSH2 0x1B1E JUMPI PUSH2 0x1B1D PUSH2 0x4935 JUMP JUMPDEST JUMPDEST PUSH1 0x20 MUL PUSH1 0x20 ADD ADD MLOAD PUSH1 0x40 MLOAD DUP4 PUSH4 0xFFFFFFFF AND PUSH1 0xE0 SHL DUP2 MSTORE PUSH1 0x4 ADD PUSH2 0x1B43 SWAP3 SWAP2 SWAP1 PUSH2 0x515E JUMP JUMPDEST PUSH1 0x20 PUSH1 0x40 MLOAD DUP1 DUP4 SUB DUP2 PUSH1 0x0 DUP8 GAS CALL ISZERO DUP1 ISZERO PUSH2 0x1B62 JUMPI RETURNDATASIZE PUSH1 0x0 DUP1 RETURNDATACOPY RETURNDATASIZE PUSH1 0x0 REVERT JUMPDEST POP POP POP POP PUSH1 0x40 MLOAD RETURNDATASIZE PUSH1 0x1F NOT PUSH1 0x1F DUP3 ADD AND DUP3 ADD DUP1 PUSH1 0x40 MSTORE POP DUP2 ADD SWAP1 PUSH2 0x1B86 SWAP2 SWAP1 PUSH2 0x489C JUMP JUMPDEST SWAP1 POP PUSH1 0x16 DUP2 SUB PUSH2 0x1CDB JUMPI PUSH1 0x1 PUSH1 0x7 PUSH1 0x0 DUP9 PUSH20 0xFFFFFFFFFFFFFFFFFFFFFFFFFFFFFFFFFFFFFFFF AND PUSH20 0xFFFFFFFFFFFFFFFFFFFFFFFFFFFFFFFFFFFFFFFF AND DUP2 MSTORE PUSH1 0x20 ADD SWAP1 DUP2 MSTORE PUSH1 0x20 ADD PUSH1 0x0 KECCAK256 PUSH1 0x0 DUP8 DUP6 DUP2 MLOAD DUP2 LT PUSH2 0x1BE6 JUMPI PUSH2 0x1BE5 PUSH2 0x4935 JUMP JUMPDEST JUMPDEST PUSH1 0x20 MUL PUSH1 0x20 ADD ADD MLOAD PUSH20 0xFFFFFFFFFFFFFFFFFFFFFFFFFFFFFFFFFFFFFFFF AND PUSH20 0xFFFFFFFFFFFFFFFFFFFFFFFFFFFFFFFFFFFFFFFF AND DUP2 MSTORE PUSH1 0x20 ADD SWAP1 DUP2 MSTORE PUSH1 0x20 ADD PUSH1 0x0 KECCAK256 PUSH1 0x0 PUSH2 0x100 EXP DUP2 SLOAD DUP2 PUSH1 0xFF MUL NOT AND SWAP1 DUP4 ISZERO ISZERO MUL OR SWAP1 SSTORE POP DUP5 DUP3 DUP2 MLOAD DUP2 LT PUSH2 0x1C52 JUMPI PUSH2 0x1C51 PUSH2 0x4935 JUMP JUMPDEST JUMPDEST PUSH1 0x20 MUL PUSH1 0x20 ADD ADD MLOAD PUSH20 0xFFFFFFFFFFFFFFFFFFFFFFFFFFFFFFFFFFFFFFFF AND DUP7 PUSH20 0xFFFFFFFFFFFFFFFFFFFFFFFFFFFFFFFFFFFFFFFF AND PUSH32 0x6BA8F0DEBF54740777149DB87BD08717B4DBDCB36073D53CDC784019DAFAC16F PUSH1 0x40 MLOAD PUSH1 0x40 MLOAD DUP1 SWAP2 SUB SWAP1 LOG3 PUSH1 0x1 DUP4 DUP4 DUP2 MLOAD DUP2 LT PUSH2 0x1CC8 JUMPI PUSH2 0x1CC7 PUSH2 0x4935 JUMP JUMPDEST JUMPDEST PUSH1 0x20 MUL PUSH1 0x20 ADD ADD SWAP1 ISZERO ISZERO SWAP1 DUP2 ISZERO ISZERO DUP2 MSTORE POP POP JUMPDEST POP JUMPDEST DUP1 DUP1 PUSH2 0x1CE8 SWAP1 PUSH2 0x5187 JUMP JUMPDEST SWAP2 POP POP PUSH2 0x19C5 JUMP JUMPDEST POP DUP1 SWAP2 POP POP SWAP3 SWAP2 POP POP JUMP JUMPDEST PUSH1 0x0 DUP4 PUSH20 0xFFFFFFFFFFFFFFFFFFFFFFFFFFFFFFFFFFFFFFFF AND CALLER PUSH20 0xFFFFFFFFFFFFFFFFFFFFFFFFFFFFFFFFFFFFFFFF AND EQ DUP1 PUSH2 0x1D84 JUMPI POP PUSH1 0x5 PUSH1 0x0 SWAP1 SLOAD SWAP1 PUSH2 0x100 EXP SWAP1 DIV PUSH20 0xFFFFFFFFFFFFFFFFFFFFFFFFFFFFFFFFFFFFFFFF AND PUSH20 0xFFFFFFFFFFFFFFFFFFFFFFFFFFFFFFFFFFFFFFFF AND CALLER PUSH20 0xFFFFFFFFFFFFFFFFFFFFFFFFFFFFFFFFFFFFFFFF AND EQ JUMPDEST DUP1 PUSH2 0x1DC1 JUMPI POP PUSH2 0x1D92 PUSH2 0x2D79 JUMP JUMPDEST PUSH20 0xFFFFFFFFFFFFFFFFFFFFFFFFFFFFFFFFFFFFFFFF AND CALLER PUSH20 0xFFFFFFFFFFFFFFFFFFFFFFFFFFFFFFFFFFFFFFFF AND EQ JUMPDEST PUSH2 0x1E00 JUMPI PUSH1 0x40 MLOAD PUSH32 0x8C379A000000000000000000000000000000000000000000000000000000000 DUP2 MSTORE PUSH1 0x4 ADD PUSH2 0x1DF7 SWAP1 PUSH2 0x521B JUMP JUMPDEST PUSH1 0x40 MLOAD DUP1 SWAP2 SUB SWAP1 REVERT JUMPDEST PUSH1 0x7 PUSH1 0x0 DUP5 PUSH20 0xFFFFFFFFFFFFFFFFFFFFFFFFFFFFFFFFFFFFFFFF AND PUSH20 0xFFFFFFFFFFFFFFFFFFFFFFFFFFFFFFFFFFFFFFFF AND DUP2 MSTORE PUSH1 0x20 ADD SWAP1 DUP2 MSTORE PUSH1 0x20 ADD PUSH1 0x0 KECCAK256 PUSH1 0x0 PUSH1 0x3 PUSH1 0x0 SWAP1 SLOAD SWAP1 PUSH2 0x100 EXP SWAP1 DIV PUSH20 0xFFFFFFFFFFFFFFFFFFFFFFFFFFFFFFFFFFFFFFFF AND PUSH20 0xFFFFFFFFFFFFFFFFFFFFFFFFFFFFFFFFFFFFFFFF AND PUSH20 0xFFFFFFFFFFFFFFFFFFFFFFFFFFFFFFFFFFFFFFFF AND DUP2 MSTORE PUSH1 0x20 ADD SWAP1 DUP2 MSTORE PUSH1 0x20 ADD PUSH1 0x0 KECCAK256 PUSH1 0x0 SWAP1 SLOAD SWAP1 PUSH2 0x100 EXP SWAP1 DIV PUSH1 0xFF AND PUSH2 0x1EEB JUMPI PUSH1 0x40 MLOAD PUSH32 0x8C379A000000000000000000000000000000000000000000000000000000000 DUP2 MSTORE PUSH1 0x4 ADD PUSH2 0x1EE2 SWAP1 PUSH2 0x5287 JUMP JUMPDEST PUSH1 0x40 MLOAD DUP1 SWAP2 SUB SWAP1 REVERT JUMPDEST DUP4 PUSH20 0xFFFFFFFFFFFFFFFFFFFFFFFFFFFFFFFFFFFFFFFF AND PUSH1 0x8 PUSH1 0x0 PUSH1 0x3 PUSH1 0x0 SWAP1 SLOAD SWAP1 PUSH2 0x100 EXP SWAP1 DIV PUSH20 0xFFFFFFFFFFFFFFFFFFFFFFFFFFFFFFFFFFFFFFFF AND PUSH20 0xFFFFFFFFFFFFFFFFFFFFFFFFFFFFFFFFFFFFFFFF AND PUSH20 0xFFFFFFFFFFFFFFFFFFFFFFFFFFFFFFFFFFFFFFFF AND DUP2 MSTORE PUSH1 0x20 ADD SWAP1 DUP2 MSTORE PUSH1 0x20 ADD PUSH1 0x0 KECCAK256 PUSH1 0x0 DUP5 PUSH1 0x7 SIGNEXTEND PUSH1 0x7 SIGNEXTEND DUP2 MSTORE PUSH1 0x20 ADD SWAP1 DUP2 MSTORE PUSH1 0x20 ADD PUSH1 0x0 KECCAK256 PUSH1 0x0 ADD PUSH1 0x0 SWAP1 SLOAD SWAP1 PUSH2 0x100 EXP SWAP1 DIV PUSH20 0xFFFFFFFFFFFFFFFFFFFFFFFFFFFFFFFFFFFFFFFF AND PUSH20 0xFFFFFFFFFFFFFFFFFFFFFFFFFFFFFFFFFFFFFFFF AND EQ PUSH2 0x1FF4 JUMPI PUSH1 0x40 MLOAD PUSH32 0x8C379A000000000000000000000000000000000000000000000000000000000 DUP2 MSTORE PUSH1 0x4 ADD PUSH2 0x1FEB SWAP1 PUSH2 0x52F3 JUMP JUMPDEST PUSH1 0x40 MLOAD DUP1 SWAP2 SUB SWAP1 REVERT JUMPDEST PUSH1 0x0 PUSH2 0x167 PUSH20 0xFFFFFFFFFFFFFFFFFFFFFFFFFFFFFFFFFFFFFFFF AND PUSH4 0x5CFC9011 PUSH1 0x3 PUSH1 0x0 SWAP1 SLOAD SWAP1 PUSH2 0x100 EXP SWAP1 DIV PUSH20 0xFFFFFFFFFFFFFFFFFFFFFFFFFFFFFFFFFFFFFFFF AND DUP8 DUP8 DUP8 PUSH1 0x40 MLOAD DUP6 PUSH4 0xFFFFFFFF AND PUSH1 0xE0 SHL DUP2 MSTORE PUSH1 0x4 ADD PUSH2 0x2059 SWAP5 SWAP4 SWAP3 SWAP2 SWAP1 PUSH2 0x5313 JUMP JUMPDEST PUSH1 0x20 PUSH1 0x40 MLOAD DUP1 DUP4 SUB DUP2 PUSH1 0x0 DUP8 GAS CALL ISZERO DUP1 ISZERO PUSH2 0x2078 JUMPI RETURNDATASIZE PUSH1 0x0 DUP1 RETURNDATACOPY RETURNDATASIZE PUSH1 0x0 REVERT JUMPDEST POP POP POP POP PUSH1 0x40 MLOAD RETURNDATASIZE PUSH1 0x1F NOT PUSH1 0x1F DUP3 ADD AND DUP3 ADD DUP1 PUSH1 0x40 MSTORE POP DUP2 ADD SWAP1 PUSH2 0x209C SWAP2 SWAP1 PUSH2 0x489C JUMP JUMPDEST SWAP1 POP PUSH1 0x16 DUP2 SUB PUSH2 0x2428 JUMPI DUP4 PUSH1 0x8 PUSH1 0x0 PUSH1 0x3 PUSH1 0x0 SWAP1 SLOAD SWAP1 PUSH2 0x100 EXP SWAP1 DIV PUSH20 0xFFFFFFFFFFFFFFFFFFFFFFFFFFFFFFFFFFFFFFFF AND PUSH20 0xFFFFFFFFFFFFFFFFFFFFFFFFFFFFFFFFFFFFFFFF AND PUSH20 0xFFFFFFFFFFFFFFFFFFFFFFFFFFFFFFFFFFFFFFFF AND DUP2 MSTORE PUSH1 0x20 ADD SWAP1 DUP2 MSTORE PUSH1 0x20 ADD PUSH1 0x0 KECCAK256 PUSH1 0x0 DUP6 PUSH1 0x7 SIGNEXTEND PUSH1 0x7 SIGNEXTEND DUP2 MSTORE PUSH1 0x20 ADD SWAP1 DUP2 MSTORE PUSH1 0x20 ADD PUSH1 0x0 KECCAK256 PUSH1 0x0 ADD PUSH1 0x0 PUSH2 0x100 EXP DUP2 SLOAD DUP2 PUSH20 0xFFFFFFFFFFFFFFFFFFFFFFFFFFFFFFFFFFFFFFFF MUL NOT AND SWAP1 DUP4 PUSH20 0xFFFFFFFFFFFFFFFFFFFFFFFFFFFFFFFFFFFFFFFF AND MUL OR SWAP1 SSTORE POP PUSH1 0x0 PUSH1 0xA PUSH1 0x0 DUP8 PUSH20 0xFFFFFFFFFFFFFFFFFFFFFFFFFFFFFFFFFFFFFFFF AND PUSH20 0xFFFFFFFFFFFFFFFFFFFFFFFFFFFFFFFFFFFFFFFF AND DUP2 MSTORE PUSH1 0x20 ADD SWAP1 DUP2 MSTORE PUSH1 0x20 ADD PUSH1 0x0 KECCAK256 SWAP1 POP PUSH1 0x0 JUMPDEST DUP2 DUP1 SLOAD SWAP1 POP DUP2 LT ISZERO PUSH2 0x22E8 JUMPI DUP5 PUSH1 0x7 SIGNEXTEND DUP3 DUP3 DUP2 SLOAD DUP2 LT PUSH2 0x21C9 JUMPI PUSH2 0x21C8 PUSH2 0x4935 JUMP JUMPDEST JUMPDEST SWAP1 PUSH1 0x0 MSTORE PUSH1 0x20 PUSH1 0x0 KECCAK256 SWAP1 PUSH1 0x4 SWAP2 DUP3 DUP3 DIV ADD SWAP2 SWAP1 MOD PUSH1 0x8 MUL SWAP1 SLOAD SWAP1 PUSH2 0x100 EXP SWAP1 DIV PUSH1 0x7 SIGNEXTEND PUSH1 0x7 SIGNEXTEND SUB PUSH2 0x22D5 JUMPI DUP2 PUSH1 0x1 DUP4 DUP1 SLOAD SWAP1 POP PUSH2 0x2206 SWAP2 SWAP1 PUSH2 0x4787 JUMP JUMPDEST DUP2 SLOAD DUP2 LT PUSH2 0x2217 JUMPI PUSH2 0x2216 PUSH2 0x4935 JUMP JUMPDEST JUMPDEST SWAP1 PUSH1 0x0 MSTORE PUSH1 0x20 PUSH1 0x0 KECCAK256 SWAP1 PUSH1 0x4 SWAP2 DUP3 DUP3 DIV ADD SWAP2 SWAP1 MOD PUSH1 0x8 MUL SWAP1 SLOAD SWAP1 PUSH2 0x100 EXP SWAP1 DIV PUSH1 0x7 SIGNEXTEND DUP3 DUP3 DUP2 SLOAD DUP2 LT PUSH2 0x224D JUMPI PUSH2 0x224C PUSH2 0x4935 JUMP JUMPDEST JUMPDEST SWAP1 PUSH1 0x0 MSTORE PUSH1 0x20 PUSH1 0x0 KECCAK256 SWAP1 PUSH1 0x4 SWAP2 DUP3 DUP3 DIV ADD SWAP2 SWAP1 MOD PUSH1 0x8 MUL PUSH2 0x100 EXP DUP2 SLOAD DUP2 PUSH8 0xFFFFFFFFFFFFFFFF MUL NOT AND SWAP1 DUP4 PUSH1 0x7 SIGNEXTEND PUSH8 0xFFFFFFFFFFFFFFFF AND MUL OR SWAP1 SSTORE POP DUP2 DUP1 SLOAD DUP1 PUSH2 0x229C JUMPI PUSH2 0x229B PUSH2 0x5358 JUMP JUMPDEST JUMPDEST PUSH1 0x1 SWAP1 SUB DUP2 DUP2 SWAP1 PUSH1 0x0 MSTORE PUSH1 0x20 PUSH1 0x0 KECCAK256 SWAP1 PUSH1 0x4 SWAP2 DUP3 DUP3 DIV ADD SWAP2 SWAP1 MOD PUSH1 0x8 MUL PUSH2 0x100 EXP DUP2 SLOAD SWAP1 PUSH8 0xFFFFFFFFFFFFFFFF MUL NOT AND SWAP1 SSTORE SWAP1 SSTORE PUSH2 0x22E8 JUMP JUMPDEST DUP1 DUP1 PUSH2 0x22E0 SWAP1 PUSH2 0x5187 JUMP JUMPDEST SWAP2 POP POP PUSH2 0x21A6 JUMP JUMPDEST POP PUSH1 0xA PUSH1 0x0 DUP7 PUSH20 0xFFFFFFFFFFFFFFFFFFFFFFFFFFFFFFFFFFFFFFFF AND PUSH20 0xFFFFFFFFFFFFFFFFFFFFFFFFFFFFFFFFFFFFFFFF AND DUP2 MSTORE PUSH1 0x20 ADD SWAP1 DUP2 MSTORE PUSH1 0x20 ADD PUSH1 0x0 KECCAK256 DUP5 SWAP1 DUP1 PUSH1 0x1 DUP2 SLOAD ADD DUP1 DUP3 SSTORE DUP1 SWAP2 POP POP PUSH1 0x1 SWAP1 SUB SWAP1 PUSH1 0x0 MSTORE PUSH1 0x20 PUSH1 0x0 KECCAK256 SWAP1 PUSH1 0x4 SWAP2 DUP3 DUP3 DIV ADD SWAP2 SWAP1 MOD PUSH1 0x8 MUL SWAP1 SWAP2 SWAP1 SWAP2 SWAP1 SWAP2 PUSH2 0x100 EXP DUP2 SLOAD DUP2 PUSH8 0xFFFFFFFFFFFFFFFF MUL NOT AND SWAP1 DUP4 PUSH1 0x7 SIGNEXTEND PUSH8 0xFFFFFFFFFFFFFFFF AND MUL OR SWAP1 SSTORE POP DUP5 PUSH20 0xFFFFFFFFFFFFFFFFFFFFFFFFFFFFFFFFFFFFFFFF AND DUP7 PUSH20 0xFFFFFFFFFFFFFFFFFFFFFFFFFFFFFFFFFFFFFFFF AND PUSH1 0x3 PUSH1 0x0 SWAP1 SLOAD SWAP1 PUSH2 0x100 EXP SWAP1 DIV PUSH20 0xFFFFFFFFFFFFFFFFFFFFFFFFFFFFFFFFFFFFFFFF AND PUSH20 0xFFFFFFFFFFFFFFFFFFFFFFFFFFFFFFFFFFFFFFFF AND PUSH32 0x3C144104302F299A69051F9CD3A924D65D1700A9CF19D639D3A94397693785FC DUP8 PUSH1 0x40 MLOAD PUSH2 0x2415 SWAP2 SWAP1 PUSH2 0x3CAE JUMP JUMPDEST PUSH1 0x40 MLOAD DUP1 SWAP2 SUB SWAP1 LOG4 PUSH1 0x1 SWAP3 POP POP POP PUSH2 0x242E JUMP JUMPDEST PUSH1 0x0 SWAP2 POP POP JUMPDEST SWAP4 SWAP3 POP POP POP JUMP JUMPDEST PUSH1 0x0 DUP4 PUSH1 0x6 PUSH1 0x0 DUP3 PUSH20 0xFFFFFFFFFFFFFFFFFFFFFFFFFFFFFFFFFFFFFFFF AND PUSH20 0xFFFFFFFFFFFFFFFFFFFFFFFFFFFFFFFFFFFFFFFF AND DUP2 MSTORE PUSH1 0x20 ADD SWAP1 DUP2 MSTORE PUSH1 0x20 ADD PUSH1 0x0 KECCAK256 PUSH1 0x0 ADD PUSH1 0x4 SWAP1 SLOAD SWAP1 PUSH2 0x100 EXP SWAP1 DIV PUSH1 0xFF AND PUSH2 0x24C7 JUMPI PUSH1 0x40 MLOAD PUSH32 0x8C379A000000000000000000000000000000000000000000000000000000000 DUP2 MSTORE PUSH1 0x4 ADD PUSH2 0x24BE SWAP1 PUSH2 0x53D3 JUMP JUMPDEST PUSH1 0x40 MLOAD DUP1 SWAP2 SUB SWAP1 REVERT JUMPDEST PUSH1 0x5 PUSH1 0x0 SWAP1 SLOAD SWAP1 PUSH2 0x100 EXP SWAP1 DIV PUSH20 0xFFFFFFFFFFFFFFFFFFFFFFFFFFFFFFFFFFFFFFFF AND PUSH20 0xFFFFFFFFFFFFFFFFFFFFFFFFFFFFFFFFFFFFFFFF AND CALLER PUSH20 0xFFFFFFFFFFFFFFFFFFFFFFFFFFFFFFFFFFFFFFFF AND EQ DUP1 PUSH2 0x2555 JUMPI POP PUSH2 0x2526 PUSH2 0x2D79 JUMP JUMPDEST PUSH20 0xFFFFFFFFFFFFFFFFFFFFFFFFFFFFFFFFFFFFFFFF AND CALLER PUSH20 0xFFFFFFFFFFFFFFFFFFFFFFFFFFFFFFFFFFFFFFFF AND EQ JUMPDEST PUSH2 0x2594 JUMPI PUSH1 0x40 MLOAD PUSH32 0x8C379A000000000000000000000000000000000000000000000000000000000 DUP2 MSTORE PUSH1 0x4 ADD PUSH2 0x258B SWAP1 PUSH2 0x521B JUMP JUMPDEST PUSH1 0x40 MLOAD DUP1 SWAP2 SUB SWAP1 REVERT JUMPDEST PUSH1 0x7 PUSH1 0x0 DUP6 PUSH20 0xFFFFFFFFFFFFFFFFFFFFFFFFFFFFFFFFFFFFFFFF AND PUSH20 0xFFFFFFFFFFFFFFFFFFFFFFFFFFFFFFFFFFFFFFFF AND DUP2 MSTORE PUSH1 0x20 ADD SWAP1 DUP2 MSTORE PUSH1 0x20 ADD PUSH1 0x0 KECCAK256 PUSH1 0x0 DUP7 PUSH20 0xFFFFFFFFFFFFFFFFFFFFFFFFFFFFFFFFFFFFFFFF AND PUSH20 0xFFFFFFFFFFFFFFFFFFFFFFFFFFFFFFFFFFFFFFFF AND DUP2 MSTORE PUSH1 0x20 ADD SWAP1 DUP2 MSTORE PUSH1 0x20 ADD PUSH1 0x0 KECCAK256 PUSH1 0x0 SWAP1 SLOAD SWAP1 PUSH2 0x100 EXP SWAP1 DIV PUSH1 0xFF AND PUSH2 0x265D JUMPI PUSH1 0x40 MLOAD PUSH32 0x8C379A000000000000000000000000000000000000000000000000000000000 DUP2 MSTORE PUSH1 0x4 ADD PUSH2 0x2654 SWAP1 PUSH2 0x5287 JUMP JUMPDEST PUSH1 0x40 MLOAD DUP1 SWAP2 SUB SWAP1 REVERT JUMPDEST PUSH1 0x2 PUSH1 0x0 SWAP1 SLOAD SWAP1 PUSH2 0x100 EXP SWAP1 DIV PUSH20 0xFFFFFFFFFFFFFFFFFFFFFFFFFFFFFFFFFFFFFFFF AND PUSH20 0xFFFFFFFFFFFFFFFFFFFFFFFFFFFFFFFFFFFFFFFF AND DUP6 PUSH20 0xFFFFFFFFFFFFFFFFFFFFFFFFFFFFFFFFFFFFFFFF AND EQ DUP1 PUSH2 0x2706 JUMPI POP PUSH1 0x4 PUSH1 0x0 SWAP1 SLOAD SWAP1 PUSH2 0x100 EXP SWAP1 DIV PUSH20 0xFFFFFFFFFFFFFFFFFFFFFFFFFFFFFFFFFFFFFFFF AND PUSH20 0xFFFFFFFFFFFFFFFFFFFFFFFFFFFFFFFFFFFFFFFF AND DUP6 PUSH20 0xFFFFFFFFFFFFFFFFFFFFFFFFFFFFFFFFFFFFFFFF AND EQ JUMPDEST PUSH2 0x2745 JUMPI PUSH1 0x40 MLOAD PUSH32 0x8C379A000000000000000000000000000000000000000000000000000000000 DUP2 MSTORE PUSH1 0x4 ADD PUSH2 0x273C SWAP1 PUSH2 0x4660 JUMP JUMPDEST PUSH1 0x40 MLOAD DUP1 SWAP2 SUB SWAP1 REVERT JUMPDEST PUSH1 0x0 DUP1 PUSH8 0xFFFFFFFFFFFFFFFF DUP2 GT ISZERO PUSH2 0x2761 JUMPI PUSH2 0x2760 PUSH2 0x406A JUMP JUMPDEST JUMPDEST PUSH1 0x40 MLOAD SWAP1 DUP1 DUP3 MSTORE DUP1 PUSH1 0x20 MUL PUSH1 0x20 ADD DUP3 ADD PUSH1 0x40 MSTORE DUP1 ISZERO PUSH2 0x2794 JUMPI DUP2 PUSH1 0x20 ADD JUMPDEST PUSH1 0x60 DUP2 MSTORE PUSH1 0x20 ADD SWAP1 PUSH1 0x1 SWAP1 SUB SWAP1 DUP2 PUSH2 0x277F JUMPI SWAP1 POP JUMPDEST POP SWAP1 POP PUSH1 0x0 DUP1 PUSH1 0x0 PUSH2 0x167 PUSH20 0xFFFFFFFFFFFFFFFFFFFFFFFFFFFFFFFFFFFFFFFF AND PUSH4 0x278E0B88 DUP11 DUP10 DUP8 PUSH1 0x40 MLOAD DUP5 PUSH4 0xFFFFFFFF AND PUSH1 0xE0 SHL DUP2 MSTORE PUSH1 0x4 ADD PUSH2 0x27DB SWAP4 SWAP3 SWAP2 SWAP1 PUSH2 0x54B5 JUMP JUMPDEST PUSH1 0x0 PUSH1 0x40 MLOAD DUP1 DUP4 SUB DUP2 PUSH1 0x0 DUP8 GAS CALL ISZERO DUP1 ISZERO PUSH2 0x27FA JUMPI RETURNDATASIZE PUSH1 0x0 DUP1 RETURNDATACOPY RETURNDATASIZE PUSH1 0x0 REVERT JUMPDEST POP POP POP POP PUSH1 0x40 MLOAD RETURNDATASIZE PUSH1 0x0 DUP3 RETURNDATACOPY RETURNDATASIZE PUSH1 0x1F NOT PUSH1 0x1F DUP3 ADD AND DUP3 ADD DUP1 PUSH1 0x40 MSTORE POP DUP2 ADD SWAP1 PUSH2 0x2823 SWAP2 SWAP1 PUSH2 0x55CB JUMP JUMPDEST SWAP3 POP SWAP3 POP SWAP3 POP PUSH1 0x16 DUP4 SUB PUSH2 0x2905 JUMPI DUP7 PUSH8 0xFFFFFFFFFFFFFFFF AND PUSH1 0x9 PUSH1 0x0 DUP11 PUSH20 0xFFFFFFFFFFFFFFFFFFFFFFFFFFFFFFFFFFFFFFFF AND PUSH20 0xFFFFFFFFFFFFFFFFFFFFFFFFFFFFFFFFFFFFFFFF AND DUP2 MSTORE PUSH1 0x20 ADD SWAP1 DUP2 MSTORE PUSH1 0x20 ADD PUSH1 0x0 KECCAK256 PUSH1 0x0 DUP3 DUP3 SLOAD PUSH2 0x288A SWAP2 SWAP1 PUSH2 0x563A JUMP JUMPDEST SWAP3 POP POP DUP2 SWAP1 SSTORE POP DUP8 PUSH20 0xFFFFFFFFFFFFFFFFFFFFFFFFFFFFFFFFFFFFFFFF AND DUP10 PUSH20 0xFFFFFFFFFFFFFFFFFFFFFFFFFFFFFFFFFFFFFFFF AND PUSH32 0xF9D944B3B45F5336CE797C64AACE0B4CC89B8EBA9F26A202C09D05D4D7C40CB6 DUP10 DUP5 PUSH1 0x40 MLOAD PUSH2 0x28F0 SWAP3 SWAP2 SWAP1 PUSH2 0x47BB JUMP JUMPDEST PUSH1 0x40 MLOAD DUP1 SWAP2 SUB SWAP1 LOG3 PUSH1 0x1 SWAP6 POP POP POP POP POP PUSH2 0x290E JUMP JUMPDEST PUSH1 0x0 SWAP6 POP POP POP POP POP JUMPDEST POP SWAP4 SWAP3 POP POP POP JUMP JUMPDEST PUSH1 0x0 DUP4 PUSH20 0xFFFFFFFFFFFFFFFFFFFFFFFFFFFFFFFFFFFFFFFF AND CALLER PUSH20 0xFFFFFFFFFFFFFFFFFFFFFFFFFFFFFFFFFFFFFFFF AND EQ DUP1 PUSH2 0x299F JUMPI POP PUSH1 0x5 PUSH1 0x0 SWAP1 SLOAD SWAP1 PUSH2 0x100 EXP SWAP1 DIV PUSH20 0xFFFFFFFFFFFFFFFFFFFFFFFFFFFFFFFFFFFFFFFF AND PUSH20 0xFFFFFFFFFFFFFFFFFFFFFFFFFFFFFFFFFFFFFFFF AND CALLER PUSH20 0xFFFFFFFFFFFFFFFFFFFFFFFFFFFFFFFFFFFFFFFF AND EQ JUMPDEST DUP1 PUSH2 0x29DC JUMPI POP PUSH2 0x29AD PUSH2 0x2D79 JUMP JUMPDEST PUSH20 0xFFFFFFFFFFFFFFFFFFFFFFFFFFFFFFFFFFFFFFFF AND CALLER PUSH20 0xFFFFFFFFFFFFFFFFFFFFFFFFFFFFFFFFFFFFFFFF AND EQ JUMPDEST PUSH2 0x2A1B JUMPI PUSH1 0x40 MLOAD PUSH32 0x8C379A000000000000000000000000000000000000000000000000000000000 DUP2 MSTORE PUSH1 0x4 ADD PUSH2 0x2A12 SWAP1 PUSH2 0x521B JUMP JUMPDEST PUSH1 0x40 MLOAD DUP1 SWAP2 SUB SWAP1 REVERT JUMPDEST PUSH1 0x7 PUSH1 0x0 DUP5 PUSH20 0xFFFFFFFFFFFFFFFFFFFFFFFFFFFFFFFFFFFFFFFF AND PUSH20 0xFFFFFFFFFFFFFFFFFFFFFFFFFFFFFFFFFFFFFFFF AND DUP2 MSTORE PUSH1 0x20 ADD SWAP1 DUP2 MSTORE PUSH1 0x20 ADD PUSH1 0x0 KECCAK256 PUSH1 0x0 DUP7 PUSH20 0xFFFFFFFFFFFFFFFFFFFFFFFFFFFFFFFFFFFFFFFF AND PUSH20 0xFFFFFFFFFFFFFFFFFFFFFFFFFFFFFFFFFFFFFFFF AND DUP2 MSTORE PUSH1 0x20 ADD SWAP1 DUP2 MSTORE PUSH1 0x20 ADD PUSH1 0x0 KECCAK256 PUSH1 0x0 SWAP1 SLOAD SWAP1 PUSH2 0x100 EXP SWAP1 DIV PUSH1 0xFF AND PUSH2 0x2AE4 JUMPI PUSH1 0x40 MLOAD PUSH32 0x8C379A000000000000000000000000000000000000000000000000000000000 DUP2 MSTORE PUSH1 0x4 ADD PUSH2 0x2ADB SWAP1 PUSH2 0x5287 JUMP JUMPDEST PUSH1 0x40 MLOAD DUP1 SWAP2 SUB SWAP1 REVERT JUMPDEST DUP2 PUSH8 0xFFFFFFFFFFFFFFFF AND PUSH1 0x9 PUSH1 0x0 DUP7 PUSH20 0xFFFFFFFFFFFFFFFFFFFFFFFFFFFFFFFFFFFFFFFF AND PUSH20 0xFFFFFFFFFFFFFFFFFFFFFFFFFFFFFFFFFFFFFFFF AND DUP2 MSTORE PUSH1 0x20 ADD SWAP1 DUP2 MSTORE PUSH1 0x20 ADD PUSH1 0x0 KECCAK256 SLOAD LT ISZERO PUSH2 0x2B70 JUMPI PUSH1 0x40 MLOAD PUSH32 0x8C379A000000000000000000000000000000000000000000000000000000000 DUP2 MSTORE PUSH1 0x4 ADD PUSH2 0x2B67 SWAP1 PUSH2 0x45F4 JUMP JUMPDEST PUSH1 0x40 MLOAD DUP1 SWAP2 SUB SWAP1 REVERT JUMPDEST PUSH1 0x0 PUSH2 0x167 PUSH20 0xFFFFFFFFFFFFFFFFFFFFFFFFFFFFFFFFFFFFFFFF AND PUSH4 0x12AEDC7F DUP8 DUP8 DUP8 DUP8 PUSH1 0x40 MLOAD DUP6 PUSH4 0xFFFFFFFF AND PUSH1 0xE0 SHL DUP2 MSTORE PUSH1 0x4 ADD PUSH2 0x2BB3 SWAP5 SWAP4 SWAP3 SWAP2 SWAP1 PUSH2 0x4857 JUMP JUMPDEST PUSH1 0x20 PUSH1 0x40 MLOAD DUP1 DUP4 SUB DUP2 PUSH1 0x0 DUP8 GAS CALL ISZERO DUP1 ISZERO PUSH2 0x2BD2 JUMPI RETURNDATASIZE PUSH1 0x0 DUP1 RETURNDATACOPY RETURNDATASIZE PUSH1 0x0 REVERT JUMPDEST POP POP POP POP PUSH1 0x40 MLOAD RETURNDATASIZE PUSH1 0x1F NOT PUSH1 0x1F DUP3 ADD AND DUP3 ADD DUP1 PUSH1 0x40 MSTORE POP DUP2 ADD SWAP1 PUSH2 0x2BF6 SWAP2 SWAP1 PUSH2 0x489C JUMP JUMPDEST SWAP1 POP PUSH1 0x16 DUP2 SUB PUSH2 0x2D45 JUMPI DUP3 PUSH8 0xFFFFFFFFFFFFFFFF AND PUSH1 0x9 PUSH1 0x0 DUP8 PUSH20 0xFFFFFFFFFFFFFFFFFFFFFFFFFFFFFFFFFFFFFFFF AND PUSH20 0xFFFFFFFFFFFFFFFFFFFFFFFFFFFFFFFFFFFFFFFF AND DUP2 MSTORE PUSH1 0x20 ADD SWAP1 DUP2 MSTORE PUSH1 0x20 ADD PUSH1 0x0 KECCAK256 PUSH1 0x0 DUP3 DUP3 SLOAD PUSH2 0x2C59 SWAP2 SWAP1 PUSH2 0x4787 JUMP JUMPDEST SWAP3 POP POP DUP2 SWAP1 SSTORE POP DUP3 PUSH8 0xFFFFFFFFFFFFFFFF AND PUSH1 0x9 PUSH1 0x0 DUP7 PUSH20 0xFFFFFFFFFFFFFFFFFFFFFFFFFFFFFFFFFFFFFFFF AND PUSH20 0xFFFFFFFFFFFFFFFFFFFFFFFFFFFFFFFFFFFFFFFF AND DUP2 MSTORE PUSH1 0x20 ADD SWAP1 DUP2 MSTORE PUSH1 0x20 ADD PUSH1 0x0 KECCAK256 PUSH1 0x0 DUP3 DUP3 SLOAD PUSH2 0x2CB9 SWAP2 SWAP1 PUSH2 0x563A JUMP JUMPDEST SWAP3 POP POP DUP2 SWAP1 SSTORE POP DUP4 PUSH20 0xFFFFFFFFFFFFFFFFFFFFFFFFFFFFFFFFFFFFFFFF AND DUP6 PUSH20 0xFFFFFFFFFFFFFFFFFFFFFFFFFFFFFFFFFFFFFFFF AND DUP8 PUSH20 0xFFFFFFFFFFFFFFFFFFFFFFFFFFFFFFFFFFFFFFFF AND PUSH31 0x17DAF4D11C2911E3111E4A4F21F3A820125C4101570873C21FCF4A79D85010 DUP7 PUSH1 0x40 MLOAD PUSH2 0x2D33 SWAP2 SWAP1 PUSH2 0x566E JUMP JUMPDEST PUSH1 0x40 MLOAD DUP1 SWAP2 SUB SWAP1 LOG4 PUSH1 0x1 SWAP2 POP POP PUSH2 0x2D4B JUMP JUMPDEST PUSH1 0x0 SWAP2 POP POP JUMPDEST SWAP5 SWAP4 POP POP POP POP JUMP JUMPDEST PUSH1 0x5 PUSH1 0x0 SWAP1 SLOAD SWAP1 PUSH2 0x100 EXP SWAP1 DIV PUSH20 0xFFFFFFFFFFFFFFFFFFFFFFFFFFFFFFFFFFFFFFFF AND DUP2 JUMP JUMPDEST PUSH1 0x0 DUP1 PUSH1 0x0 SWAP1 SLOAD SWAP1 PUSH2 0x100 EXP SWAP1 DIV PUSH20 0xFFFFFFFFFFFFFFFFFFFFFFFFFFFFFFFFFFFFFFFF AND SWAP1 POP SWAP1 JUMP JUMPDEST PUSH1 0x8 PUSH1 0x20 MSTORE DUP2 PUSH1 0x0 MSTORE PUSH1 0x40 PUSH1 0x0 KECCAK256 PUSH1 0x20 MSTORE DUP1 PUSH1 0x0 MSTORE PUSH1 0x40 PUSH1 0x0 KECCAK256 PUSH1 0x0 SWAP2 POP SWAP2 POP POP DUP1 PUSH1 0x0 ADD PUSH1 0x0 SWAP1 SLOAD SWAP1 PUSH2 0x100 EXP SWAP1 DIV PUSH20 0xFFFFFFFFFFFFFFFFFFFFFFFFFFFFFFFFFFFFFFFF AND SWAP1 DUP1 PUSH1 0x1 ADD DUP1 SLOAD PUSH2 0x2DF8 SWAP1 PUSH2 0x4993 JUMP JUMPDEST DUP1 PUSH1 0x1F ADD PUSH1 0x20 DUP1 SWAP2 DIV MUL PUSH1 0x20 ADD PUSH1 0x40 MLOAD SWAP1 DUP2 ADD PUSH1 0x40 MSTORE DUP1 SWAP3 SWAP2 SWAP1 DUP2 DUP2 MSTORE PUSH1 0x20 ADD DUP3 DUP1 SLOAD PUSH2 0x2E24 SWAP1 PUSH2 0x4993 JUMP JUMPDEST DUP1 ISZERO PUSH2 0x2E71 JUMPI DUP1 PUSH1 0x1F LT PUSH2 0x2E46 JUMPI PUSH2 0x100 DUP1 DUP4 SLOAD DIV MUL DUP4 MSTORE SWAP2 PUSH1 0x20 ADD SWAP2 PUSH2 0x2E71 JUMP JUMPDEST DUP3 ADD SWAP2 SWAP1 PUSH1 0x0 MSTORE PUSH1 0x20 PUSH1 0x0 KECCAK256 SWAP1 JUMPDEST DUP2 SLOAD DUP2 MSTORE SWAP1 PUSH1 0x1 ADD SWAP1 PUSH1 0x20 ADD DUP1 DUP4 GT PUSH2 0x2E54 JUMPI DUP3 SWAP1 SUB PUSH1 0x1F AND DUP3 ADD SWAP2 JUMPDEST POP POP POP POP POP SWAP1 POP DUP3 JUMP JUMPDEST PUSH1 0x7 PUSH1 0x20 MSTORE DUP2 PUSH1 0x0 MSTORE PUSH1 0x40 PUSH1 0x0 KECCAK256 PUSH1 0x20 MSTORE DUP1 PUSH1 0x0 MSTORE PUSH1 0x40 PUSH1 0x0 KECCAK256 PUSH1 0x0 SWAP2 POP SWAP2 POP SWAP1 SLOAD SWAP1 PUSH2 0x100 EXP SWAP1 DIV PUSH1 0xFF AND DUP2 JUMP JUMPDEST PUSH1 0x0 PUSH1 0x6 PUSH1 0x0 DUP4 PUSH20 0xFFFFFFFFFFFFFFFFFFFFFFFFFFFFFFFFFFFFFFFF AND PUSH20 0xFFFFFFFFFFFFFFFFFFFFFFFFFFFFFFFFFFFFFFFF AND DUP2 MSTORE PUSH1 0x20 ADD SWAP1 DUP2 MSTORE PUSH1 0x20 ADD PUSH1 0x0 KECCAK256 PUSH1 0x0 ADD PUSH1 0x4 SWAP1 SLOAD SWAP1 PUSH2 0x100 EXP SWAP1 DIV PUSH1 0xFF AND PUSH2 0x2F3B JUMPI PUSH1 0x40 MLOAD PUSH32 0x8C379A000000000000000000000000000000000000000000000000000000000 DUP2 MSTORE PUSH1 0x4 ADD PUSH2 0x2F32 SWAP1 PUSH2 0x53D3 JUMP JUMPDEST PUSH1 0x40 MLOAD DUP1 SWAP2 SUB SWAP1 REVERT JUMPDEST PUSH1 0x7 PUSH1 0x0 DUP5 PUSH20 0xFFFFFFFFFFFFFFFFFFFFFFFFFFFFFFFFFFFFFFFF AND PUSH20 0xFFFFFFFFFFFFFFFFFFFFFFFFFFFFFFFFFFFFFFFF AND DUP2 MSTORE PUSH1 0x20 ADD SWAP1 DUP2 MSTORE PUSH1 0x20 ADD PUSH1 0x0 KECCAK256 PUSH1 0x0 DUP4 PUSH20 0xFFFFFFFFFFFFFFFFFFFFFFFFFFFFFFFFFFFFFFFF AND PUSH20 0xFFFFFFFFFFFFFFFFFFFFFFFFFFFFFFFFFFFFFFFF AND DUP2 MSTORE PUSH1 0x20 ADD SWAP1 DUP2 MSTORE PUSH1 0x20 ADD PUSH1 0x0 KECCAK256 PUSH1 0x0 SWAP1 SLOAD SWAP1 PUSH2 0x100 EXP SWAP1 DIV PUSH1 0xFF AND ISZERO PUSH2 0x3005 JUMPI PUSH1 0x40 MLOAD PUSH32 0x8C379A000000000000000000000000000000000000000000000000000000000 DUP2 MSTORE PUSH1 0x4 ADD PUSH2 0x2FFC SWAP1 PUSH2 0x56D5 JUMP JUMPDEST PUSH1 0x40 MLOAD DUP1 SWAP2 SUB SWAP1 REVERT JUMPDEST PUSH1 0x0 PUSH2 0x167 PUSH20 0xFFFFFFFFFFFFFFFFFFFFFFFFFFFFFFFFFFFFFFFF AND PUSH4 0x49146BDE DUP6 DUP6 PUSH1 0x40 MLOAD DUP4 PUSH4 0xFFFFFFFF AND PUSH1 0xE0 SHL DUP2 MSTORE PUSH1 0x4 ADD PUSH2 0x3044 SWAP3 SWAP2 SWAP1 PUSH2 0x515E JUMP JUMPDEST PUSH1 0x20 PUSH1 0x40 MLOAD DUP1 DUP4 SUB DUP2 PUSH1 0x0 DUP8 GAS CALL ISZERO DUP1 ISZERO PUSH2 0x3063 JUMPI RETURNDATASIZE PUSH1 0x0 DUP1 RETURNDATACOPY RETURNDATASIZE PUSH1 0x0 REVERT JUMPDEST POP POP POP POP PUSH1 0x40 MLOAD RETURNDATASIZE PUSH1 0x1F NOT PUSH1 0x1F DUP3 ADD AND DUP3 ADD DUP1 PUSH1 0x40 MSTORE POP DUP2 ADD SWAP1 PUSH2 0x3087 SWAP2 SWAP1 PUSH2 0x489C JUMP JUMPDEST SWAP1 POP PUSH1 0x16 DUP2 SUB PUSH2 0x318A JUMPI PUSH1 0x1 PUSH1 0x7 PUSH1 0x0 DUP7 PUSH20 0xFFFFFFFFFFFFFFFFFFFFFFFFFFFFFFFFFFFFFFFF AND PUSH20 0xFFFFFFFFFFFFFFFFFFFFFFFFFFFFFFFFFFFFFFFF AND DUP2 MSTORE PUSH1 0x20 ADD SWAP1 DUP2 MSTORE PUSH1 0x20 ADD PUSH1 0x0 KECCAK256 PUSH1 0x0 DUP6 PUSH20 0xFFFFFFFFFFFFFFFFFFFFFFFFFFFFFFFFFFFFFFFF AND PUSH20 0xFFFFFFFFFFFFFFFFFFFFFFFFFFFFFFFFFFFFFFFF AND DUP2 MSTORE PUSH1 0x20 ADD SWAP1 DUP2 MSTORE PUSH1 0x20 ADD PUSH1 0x0 KECCAK256 PUSH1 0x0 PUSH2 0x100 EXP DUP2 SLOAD DUP2 PUSH1 0xFF MUL NOT AND SWAP1 DUP4 ISZERO ISZERO MUL OR SWAP1 SSTORE POP DUP3 PUSH20 0xFFFFFFFFFFFFFFFFFFFFFFFFFFFFFFFFFFFFFFFF AND DUP5 PUSH20 0xFFFFFFFFFFFFFFFFFFFFFFFFFFFFFFFFFFFFFFFF AND PUSH32 0x6BA8F0DEBF54740777149DB87BD08717B4DBDCB36073D53CDC784019DAFAC16F PUSH1 0x40 MLOAD PUSH1 0x40 MLOAD DUP1 SWAP2 SUB SWAP1 LOG3 PUSH1 0x1 SWAP2 POP POP PUSH2 0x3190 JUMP JUMPDEST PUSH1 0x0 SWAP2 POP POP JUMPDEST SWAP3 SWAP2 POP POP JUMP JUMPDEST PUSH1 0x0 PUSH1 0x7 PUSH1 0x0 DUP5 PUSH20 0xFFFFFFFFFFFFFFFFFFFFFFFFFFFFFFFFFFFFFFFF AND PUSH20 0xFFFFFFFFFFFFFFFFFFFFFFFFFFFFFFFFFFFFFFFF AND DUP2 MSTORE PUSH1 0x20 ADD SWAP1 DUP2 MSTORE PUSH1 0x20 ADD PUSH1 0x0 KECCAK256 PUSH1 0x0 DUP4 PUSH20 0xFFFFFFFFFFFFFFFFFFFFFFFFFFFFFFFFFFFFFFFF AND PUSH20 0xFFFFFFFFFFFFFFFFFFFFFFFFFFFFFFFFFFFFFFFF AND DUP2 MSTORE PUSH1 0x20 ADD SWAP1 DUP2 MSTORE PUSH1 0x20 ADD PUSH1 0x0 KECCAK256 PUSH1 0x0 SWAP1 SLOAD SWAP1 PUSH2 0x100 EXP SWAP1 DIV PUSH1 0xFF AND SWAP1 POP SWAP3 SWAP2 POP POP JUMP JUMPDEST PUSH1 0x0 PUSH1 0x5 PUSH1 0x0 SWAP1 SLOAD SWAP1 PUSH2 0x100 EXP SWAP1 DIV PUSH20 0xFFFFFFFFFFFFFFFFFFFFFFFFFFFFFFFFFFFFFFFF AND PUSH20 0xFFFFFFFFFFFFFFFFFFFFFFFFFFFFFFFFFFFFFFFF AND CALLER PUSH20 0xFFFFFFFFFFFFFFFFFFFFFFFFFFFFFFFFFFFFFFFF AND EQ PUSH2 0x32BC JUMPI PUSH1 0x40 MLOAD PUSH32 0x8C379A000000000000000000000000000000000000000000000000000000000 DUP2 MSTORE PUSH1 0x4 ADD PUSH2 0x32B3 SWAP1 PUSH2 0x5741 JUMP JUMPDEST PUSH1 0x40 MLOAD DUP1 SWAP2 SUB SWAP1 REVERT JUMPDEST PUSH1 0x7 PUSH1 0x0 DUP5 PUSH20 0xFFFFFFFFFFFFFFFFFFFFFFFFFFFFFFFFFFFFFFFF AND PUSH20 0xFFFFFFFFFFFFFFFFFFFFFFFFFFFFFFFFFFFFFFFF AND DUP2 MSTORE PUSH1 0x20 ADD SWAP1 DUP2 MSTORE PUSH1 0x20 ADD PUSH1 0x0 KECCAK256 PUSH1 0x0 PUSH1 0x3 PUSH1 0x0 SWAP1 SLOAD SWAP1 PUSH2 0x100 EXP SWAP1 DIV PUSH20 0xFFFFFFFFFFFFFFFFFFFFFFFFFFFFFFFFFFFFFFFF AND PUSH20 0xFFFFFFFFFFFFFFFFFFFFFFFFFFFFFFFFFFFFFFFF AND PUSH20 0xFFFFFFFFFFFFFFFFFFFFFFFFFFFFFFFFFFFFFFFF AND DUP2 MSTORE PUSH1 0x20 ADD SWAP1 DUP2 MSTORE PUSH1 0x20 ADD PUSH1 0x0 KECCAK256 PUSH1 0x0 SWAP1 SLOAD SWAP1 PUSH2 0x100 EXP SWAP1 DIV PUSH1 0xFF AND PUSH2 0x33A7 JUMPI PUSH1 0x40 MLOAD PUSH32 0x8C379A000000000000000000000000000000000000000000000000000000000 DUP2 MSTORE PUSH1 0x4 ADD PUSH2 0x339E SWAP1 PUSH2 0x5287 JUMP JUMPDEST PUSH1 0x40 MLOAD DUP1 SWAP2 SUB SWAP1 REVERT JUMPDEST PUSH1 0x0 PUSH1 0x1 PUSH8 0xFFFFFFFFFFFFFFFF DUP2 GT ISZERO PUSH2 0x33C4 JUMPI PUSH2 0x33C3 PUSH2 0x406A JUMP JUMPDEST JUMPDEST PUSH1 0x40 MLOAD SWAP1 DUP1 DUP3 MSTORE DUP1 PUSH1 0x20 MUL PUSH1 0x20 ADD DUP3 ADD PUSH1 0x40 MSTORE DUP1 ISZERO PUSH2 0x33F7 JUMPI DUP2 PUSH1 0x20 ADD JUMPDEST PUSH1 0x60 DUP2 MSTORE PUSH1 0x20 ADD SWAP1 PUSH1 0x1 SWAP1 SUB SWAP1 DUP2 PUSH2 0x33E2 JUMPI SWAP1 POP JUMPDEST POP SWAP1 POP DUP3 DUP2 PUSH1 0x0 DUP2 MLOAD DUP2 LT PUSH2 0x340F JUMPI PUSH2 0x340E PUSH2 0x4935 JUMP JUMPDEST JUMPDEST PUSH1 0x20 MUL PUSH1 0x20 ADD ADD DUP2 SWAP1 MSTORE POP PUSH1 0x0 DUP1 PUSH1 0x0 PUSH2 0x167 PUSH20 0xFFFFFFFFFFFFFFFFFFFFFFFFFFFFFFFFFFFFFFFF AND PUSH4 0x278E0B88 PUSH1 0x3 PUSH1 0x0 SWAP1 SLOAD SWAP1 PUSH2 0x100 EXP SWAP1 DIV PUSH20 0xFFFFFFFFFFFFFFFFFFFFFFFFFFFFFFFFFFFFFFFF AND PUSH1 0x1 DUP8 PUSH1 0x40 MLOAD DUP5 PUSH4 0xFFFFFFFF AND PUSH1 0xE0 SHL DUP2 MSTORE PUSH1 0x4 ADD PUSH2 0x3481 SWAP4 SWAP3 SWAP2 SWAP1 PUSH2 0x579C JUMP JUMPDEST PUSH1 0x0 PUSH1 0x40 MLOAD DUP1 DUP4 SUB DUP2 PUSH1 0x0 DUP8 GAS CALL ISZERO DUP1 ISZERO PUSH2 0x34A0 JUMPI RETURNDATASIZE PUSH1 0x0 DUP1 RETURNDATACOPY RETURNDATASIZE PUSH1 0x0 REVERT JUMPDEST POP POP POP POP PUSH1 0x40 MLOAD RETURNDATASIZE PUSH1 0x0 DUP3 RETURNDATACOPY RETURNDATASIZE PUSH1 0x1F NOT PUSH1 0x1F DUP3 ADD AND DUP3 ADD DUP1 PUSH1 0x40 MSTORE POP DUP2 ADD SWAP1 PUSH2 0x34C9 SWAP2 SWAP1 PUSH2 0x55CB JUMP JUMPDEST SWAP3 POP SWAP3 POP SWAP3 POP PUSH1 0x16 DUP4 EQ DUP1 ISZERO PUSH2 0x34E0 JUMPI POP PUSH1 0x0 DUP2 MLOAD GT JUMPDEST ISZERO PUSH2 0x3735 JUMPI PUSH1 0x0 DUP2 PUSH1 0x0 DUP2 MLOAD DUP2 LT PUSH2 0x34FB JUMPI PUSH2 0x34FA PUSH2 0x4935 JUMP JUMPDEST JUMPDEST PUSH1 0x20 MUL PUSH1 0x20 ADD ADD MLOAD SWAP1 POP PUSH1 0x40 MLOAD DUP1 PUSH1 0x40 ADD PUSH1 0x40 MSTORE DUP1 DUP10 PUSH20 0xFFFFFFFFFFFFFFFFFFFFFFFFFFFFFFFFFFFFFFFF AND DUP2 MSTORE PUSH1 0x20 ADD DUP9 DUP2 MSTORE POP PUSH1 0x8 PUSH1 0x0 PUSH1 0x3 PUSH1 0x0 SWAP1 SLOAD SWAP1 PUSH2 0x100 EXP SWAP1 DIV PUSH20 0xFFFFFFFFFFFFFFFFFFFFFFFFFFFFFFFFFFFFFFFF AND PUSH20 0xFFFFFFFFFFFFFFFFFFFFFFFFFFFFFFFFFFFFFFFF AND PUSH20 0xFFFFFFFFFFFFFFFFFFFFFFFFFFFFFFFFFFFFFFFF AND DUP2 MSTORE PUSH1 0x20 ADD SWAP1 DUP2 MSTORE PUSH1 0x20 ADD PUSH1 0x0 KECCAK256 PUSH1 0x0 DUP4 PUSH1 0x7 SIGNEXTEND PUSH1 0x7 SIGNEXTEND DUP2 MSTORE PUSH1 0x20 ADD SWAP1 DUP2 MSTORE PUSH1 0x20 ADD PUSH1 0x0 KECCAK256 PUSH1 0x0 DUP3 ADD MLOAD DUP2 PUSH1 0x0 ADD PUSH1 0x0 PUSH2 0x100 EXP DUP2 SLOAD DUP2 PUSH20 0xFFFFFFFFFFFFFFFFFFFFFFFFFFFFFFFFFFFFFFFF MUL NOT AND SWAP1 DUP4 PUSH20 0xFFFFFFFFFFFFFFFFFFFFFFFFFFFFFFFFFFFFFFFF AND MUL OR SWAP1 SSTORE POP PUSH1 0x20 DUP3 ADD MLOAD DUP2 PUSH1 0x1 ADD SWAP1 DUP2 PUSH2 0x3604 SWAP2 SWAP1 PUSH2 0x597C JUMP JUMPDEST POP SWAP1 POP POP PUSH1 0xA PUSH1 0x0 DUP10 PUSH20 0xFFFFFFFFFFFFFFFFFFFFFFFFFFFFFFFFFFFFFFFF AND PUSH20 0xFFFFFFFFFFFFFFFFFFFFFFFFFFFFFFFFFFFFFFFF AND DUP2 MSTORE PUSH1 0x20 ADD SWAP1 DUP2 MSTORE PUSH1 0x20 ADD PUSH1 0x0 KECCAK256 DUP2 SWAP1 DUP1 PUSH1 0x1 DUP2 SLOAD ADD DUP1 DUP3 SSTORE DUP1 SWAP2 POP POP PUSH1 0x1 SWAP1 SUB SWAP1 PUSH1 0x0 MSTORE PUSH1 0x20 PUSH1 0x0 KECCAK256 SWAP1 PUSH1 0x4 SWAP2 DUP3 DUP3 DIV ADD SWAP2 SWAP1 MOD PUSH1 0x8 MUL SWAP1 SWAP2 SWAP1 SWAP2 SWAP1 SWAP2 PUSH2 0x100 EXP DUP2 SLOAD DUP2 PUSH8 0xFFFFFFFFFFFFFFFF MUL NOT AND SWAP1 DUP4 PUSH1 0x7 SIGNEXTEND PUSH8 0xFFFFFFFFFFFFFFFF AND MUL OR SWAP1 SSTORE POP DUP8 PUSH20 0xFFFFFFFFFFFFFFFFFFFFFFFFFFFFFFFFFFFFFFFF AND PUSH1 0x3 PUSH1 0x0 SWAP1 SLOAD SWAP1 PUSH2 0x100 EXP SWAP1 DIV PUSH20 0xFFFFFFFFFFFFFFFFFFFFFFFFFFFFFFFFFFFFFFFF AND PUSH20 0xFFFFFFFFFFFFFFFFFFFFFFFFFFFFFFFFFFFFFFFF AND PUSH32 0xF9D944B3B45F5336CE797C64AACE0B4CC89B8EBA9F26A202C09D05D4D7C40CB6 PUSH1 0x1 DUP6 PUSH1 0x40 MLOAD PUSH2 0x3720 SWAP3 SWAP2 SWAP1 PUSH2 0x5A4E JUMP JUMPDEST PUSH1 0x40 MLOAD DUP1 SWAP2 SUB SWAP1 LOG3 DUP1 SWAP6 POP POP POP POP POP POP PUSH2 0x3770 JUMP JUMPDEST PUSH1 0x40 MLOAD PUSH32 0x8C379A000000000000000000000000000000000000000000000000000000000 DUP2 MSTORE PUSH1 0x4 ADD PUSH2 0x3767 SWAP1 PUSH2 0x5ACA JUMP JUMPDEST PUSH1 0x40 MLOAD DUP1 SWAP2 SUB SWAP1 REVERT JUMPDEST SWAP3 SWAP2 POP POP JUMP JUMPDEST PUSH2 0x377E PUSH2 0x3860 JUMP JUMPDEST PUSH1 0x0 PUSH20 0xFFFFFFFFFFFFFFFFFFFFFFFFFFFFFFFFFFFFFFFF AND DUP2 PUSH20 0xFFFFFFFFFFFFFFFFFFFFFFFFFFFFFFFFFFFFFFFF AND SUB PUSH2 0x37ED JUMPI PUSH1 0x40 MLOAD PUSH32 0x8C379A000000000000000000000000000000000000000000000000000000000 DUP2 MSTORE PUSH1 0x4 ADD PUSH2 0x37E4 SWAP1 PUSH2 0x5B5C JUMP JUMPDEST PUSH1 0x40 MLOAD DUP1 SWAP2 SUB SWAP1 REVERT JUMPDEST PUSH2 0x37F6 DUP2 PUSH2 0x38DE JUMP JUMPDEST POP JUMP JUMPDEST PUSH1 0x6 PUSH1 0x20 MSTORE DUP1 PUSH1 0x0 MSTORE PUSH1 0x40 PUSH1 0x0 KECCAK256 PUSH1 0x0 SWAP2 POP SWAP1 POP DUP1 PUSH1 0x0 ADD PUSH1 0x0 SWAP1 SLOAD SWAP1 PUSH2 0x100 EXP SWAP1 DIV PUSH4 0xFFFFFFFF AND SWAP1 DUP1 PUSH1 0x0 ADD PUSH1 0x4 SWAP1 SLOAD SWAP1 PUSH2 0x100 EXP SWAP1 DIV PUSH1 0xFF AND SWAP1 POP DUP3 JUMP JUMPDEST PUSH1 0x4 PUSH1 0x0 SWAP1 SLOAD SWAP1 PUSH2 0x100 EXP SWAP1 DIV PUSH20 0xFFFFFFFFFFFFFFFFFFFFFFFFFFFFFFFFFFFFFFFF AND DUP2 JUMP JUMPDEST PUSH2 0x3868 PUSH2 0x39A2 JUMP JUMPDEST PUSH20 0xFFFFFFFFFFFFFFFFFFFFFFFFFFFFFFFFFFFFFFFF AND PUSH2 0x3886 PUSH2 0x2D79 JUMP JUMPDEST PUSH20 0xFFFFFFFFFFFFFFFFFFFFFFFFFFFFFFFFFFFFFFFF AND EQ PUSH2 0x38DC JUMPI PUSH1 0x40 MLOAD PUSH32 0x8C379A000000000000000000000000000000000000000000000000000000000 DUP2 MSTORE PUSH1 0x4 ADD PUSH2 0x38D3 SWAP1 PUSH2 0x5BC8 JUMP JUMPDEST PUSH1 0x40 MLOAD DUP1 SWAP2 SUB SWAP1 REVERT JUMPDEST JUMP JUMPDEST PUSH1 0x0 DUP1 PUSH1 0x0 SWAP1 SLOAD SWAP1 PUSH2 0x100 EXP SWAP1 DIV PUSH20 0xFFFFFFFFFFFFFFFFFFFFFFFFFFFFFFFFFFFFFFFF AND SWAP1 POP DUP2 PUSH1 0x0 DUP1 PUSH2 0x100 EXP DUP2 SLOAD DUP2 PUSH20 0xFFFFFFFFFFFFFFFFFFFFFFFFFFFFFFFFFFFFFFFF MUL NOT AND SWAP1 DUP4 PUSH20 0xFFFFFFFFFFFFFFFFFFFFFFFFFFFFFFFFFFFFFFFF AND MUL OR SWAP1 SSTORE POP DUP2 PUSH20 0xFFFFFFFFFFFFFFFFFFFFFFFFFFFFFFFFFFFFFFFF AND DUP2 PUSH20 0xFFFFFFFFFFFFFFFFFFFFFFFFFFFFFFFFFFFFFFFF AND PUSH32 0x8BE0079C531659141344CD1FD0A4F28419497F9722A3DAAFE3B4186F6B6457E0 PUSH1 0x40 MLOAD PUSH1 0x40 MLOAD DUP1 SWAP2 SUB SWAP1 LOG3 POP POP JUMP JUMPDEST PUSH1 0x0 CALLER SWAP1 POP SWAP1 JUMP JUMPDEST PUSH1 0x40 MLOAD DUP1 PUSH1 0x40 ADD PUSH1 0x40 MSTORE DUP1 PUSH1 0x0 PUSH4 0xFFFFFFFF AND DUP2 MSTORE PUSH1 0x20 ADD PUSH1 0x0 ISZERO ISZERO DUP2 MSTORE POP SWAP1 JUMP JUMPDEST PUSH1 0x40 MLOAD DUP1 PUSH1 0x40 ADD PUSH1 0x40 MSTORE DUP1 PUSH1 0x0 PUSH20 0xFFFFFFFFFFFFFFFFFFFFFFFFFFFFFFFFFFFFFFFF AND DUP2 MSTORE PUSH1 0x20 ADD PUSH1 0x60 DUP2 MSTORE POP SWAP1 JUMP JUMPDEST PUSH1 0x0 PUSH1 0x40 MLOAD SWAP1 POP SWAP1 JUMP JUMPDEST PUSH1 0x0 DUP1 REVERT JUMPDEST PUSH1 0x0 DUP1 REVERT JUMPDEST PUSH1 0x0 PUSH20 0xFFFFFFFFFFFFFFFFFFFFFFFFFFFFFFFFFFFFFFFF DUP3 AND SWAP1 POP SWAP2 SWAP1 POP JUMP JUMPDEST PUSH1 0x0 PUSH2 0x3A3B DUP3 PUSH2 0x3A10 JUMP JUMPDEST SWAP1 POP SWAP2 SWAP1 POP JUMP JUMPDEST PUSH2 0x3A4B DUP2 PUSH2 0x3A30 JUMP JUMPDEST DUP2 EQ PUSH2 0x3A56 JUMPI PUSH1 0x0 DUP1 REVERT JUMPDEST POP JUMP JUMPDEST PUSH1 0x0 DUP2 CALLDATALOAD SWAP1 POP PUSH2 0x3A68 DUP2 PUSH2 0x3A42 JUMP JUMPDEST SWAP3 SWAP2 POP POP JUMP JUMPDEST PUSH1 0x0 PUSH8 0xFFFFFFFFFFFFFFFF DUP3 AND SWAP1 POP SWAP2 SWAP1 POP JUMP JUMPDEST PUSH2 0x3A8B DUP2 PUSH2 0x3A6E JUMP JUMPDEST DUP2 EQ PUSH2 0x3A96 JUMPI PUSH1 0x0 DUP1 REVERT JUMPDEST POP JUMP JUMPDEST PUSH1 0x0 DUP2 CALLDATALOAD SWAP1 POP PUSH2 0x3AA8 DUP2 PUSH2 0x3A82 JUMP JUMPDEST SWAP3 SWAP2 POP POP JUMP JUMPDEST PUSH1 0x0 DUP1 PUSH1 0x40 DUP4 DUP6 SUB SLT ISZERO PUSH2 0x3AC5 JUMPI PUSH2 0x3AC4 PUSH2 0x3A06 JUMP JUMPDEST JUMPDEST PUSH1 0x0 PUSH2 0x3AD3 DUP6 DUP3 DUP7 ADD PUSH2 0x3A59 JUMP JUMPDEST SWAP3 POP POP PUSH1 0x20 PUSH2 0x3AE4 DUP6 DUP3 DUP7 ADD PUSH2 0x3A99 JUMP JUMPDEST SWAP2 POP POP SWAP3 POP SWAP3 SWAP1 POP JUMP JUMPDEST PUSH1 0x0 DUP1 PUSH1 0x0 PUSH1 0x60 DUP5 DUP7 SUB SLT ISZERO PUSH2 0x3B07 JUMPI PUSH2 0x3B06 PUSH2 0x3A06 JUMP JUMPDEST JUMPDEST PUSH1 0x0 PUSH2 0x3B15 DUP7 DUP3 DUP8 ADD PUSH2 0x3A59 JUMP JUMPDEST SWAP4 POP POP PUSH1 0x20 PUSH2 0x3B26 DUP7 DUP3 DUP8 ADD PUSH2 0x3A59 JUMP JUMPDEST SWAP3 POP POP PUSH1 0x40 PUSH2 0x3B37 DUP7 DUP3 DUP8 ADD PUSH2 0x3A99 JUMP JUMPDEST SWAP2 POP POP SWAP3 POP SWAP3 POP SWAP3 JUMP JUMPDEST PUSH1 0x0 PUSH1 0x20 DUP3 DUP5 SUB SLT ISZERO PUSH2 0x3B57 JUMPI PUSH2 0x3B56 PUSH2 0x3A06 JUMP JUMPDEST JUMPDEST PUSH1 0x0 PUSH2 0x3B65 DUP5 DUP3 DUP6 ADD PUSH2 0x3A59 JUMP JUMPDEST SWAP2 POP POP SWAP3 SWAP2 POP POP JUMP JUMPDEST PUSH1 0x0 PUSH4 0xFFFFFFFF DUP3 AND SWAP1 POP SWAP2 SWAP1 POP JUMP JUMPDEST PUSH2 0x3B87 DUP2 PUSH2 0x3B6E JUMP JUMPDEST DUP3 MSTORE POP POP JUMP JUMPDEST PUSH1 0x0 DUP2 ISZERO ISZERO SWAP1 POP SWAP2 SWAP1 POP JUMP JUMPDEST PUSH2 0x3BA2 DUP2 PUSH2 0x3B8D JUMP JUMPDEST DUP3 MSTORE POP POP JUMP JUMPDEST PUSH1 0x40 DUP3 ADD PUSH1 0x0 DUP3 ADD MLOAD PUSH2 0x3BBE PUSH1 0x0 DUP6 ADD DUP3 PUSH2 0x3B7E JUMP JUMPDEST POP PUSH1 0x20 DUP3 ADD MLOAD PUSH2 0x3BD1 PUSH1 0x20 DUP6 ADD DUP3 PUSH2 0x3B99 JUMP JUMPDEST POP POP POP POP JUMP JUMPDEST PUSH1 0x0 PUSH1 0x40 DUP3 ADD SWAP1 POP PUSH2 0x3BEC PUSH1 0x0 DUP4 ADD DUP5 PUSH2 0x3BA8 JUMP JUMPDEST SWAP3 SWAP2 POP POP JUMP JUMPDEST PUSH1 0x0 DUP2 SWAP1 POP SWAP2 SWAP1 POP JUMP JUMPDEST PUSH2 0x3C05 DUP2 PUSH2 0x3BF2 JUMP JUMPDEST DUP3 MSTORE POP POP JUMP JUMPDEST PUSH1 0x0 PUSH1 0x20 DUP3 ADD SWAP1 POP PUSH2 0x3C20 PUSH1 0x0 DUP4 ADD DUP5 PUSH2 0x3BFC JUMP JUMPDEST SWAP3 SWAP2 POP POP JUMP JUMPDEST PUSH2 0x3C2F DUP2 PUSH2 0x3BF2 JUMP JUMPDEST DUP2 EQ PUSH2 0x3C3A JUMPI PUSH1 0x0 DUP1 REVERT JUMPDEST POP JUMP JUMPDEST PUSH1 0x0 DUP2 CALLDATALOAD SWAP1 POP PUSH2 0x3C4C DUP2 PUSH2 0x3C26 JUMP JUMPDEST SWAP3 SWAP2 POP POP JUMP JUMPDEST PUSH1 0x0 DUP1 PUSH1 0x40 DUP4 DUP6 SUB SLT ISZERO PUSH2 0x3C69 JUMPI PUSH2 0x3C68 PUSH2 0x3A06 JUMP JUMPDEST JUMPDEST PUSH1 0x0 PUSH2 0x3C77 DUP6 DUP3 DUP7 ADD PUSH2 0x3A59 JUMP JUMPDEST SWAP3 POP POP PUSH1 0x20 PUSH2 0x3C88 DUP6 DUP3 DUP7 ADD PUSH2 0x3C3D JUMP JUMPDEST SWAP2 POP POP SWAP3 POP SWAP3 SWAP1 POP JUMP JUMPDEST PUSH1 0x0 DUP2 PUSH1 0x7 SIGNEXTEND SWAP1 POP SWAP2 SWAP1 POP JUMP JUMPDEST PUSH2 0x3CA8 DUP2 PUSH2 0x3C92 JUMP JUMPDEST DUP3 MSTORE POP POP JUMP JUMPDEST PUSH1 0x0 PUSH1 0x20 DUP3 ADD SWAP1 POP PUSH2 0x3CC3 PUSH1 0x0 DUP4 ADD DUP5 PUSH2 0x3C9F JUMP JUMPDEST SWAP3 SWAP2 POP POP JUMP JUMPDEST PUSH1 0x0 DUP2 MLOAD SWAP1 POP SWAP2 SWAP1 POP JUMP JUMPDEST PUSH1 0x0 DUP3 DUP3 MSTORE PUSH1 0x20 DUP3 ADD SWAP1 POP SWAP3 SWAP2 POP POP JUMP JUMPDEST PUSH1 0x0 DUP2 SWAP1 POP PUSH1 0x20 DUP3 ADD SWAP1 POP SWAP2 SWAP1 POP JUMP JUMPDEST PUSH2 0x3CFE DUP2 PUSH2 0x3A30 JUMP JUMPDEST DUP3 MSTORE POP POP JUMP JUMPDEST PUSH1 0x0 PUSH2 0x3D10 DUP4 DUP4 PUSH2 0x3CF5 JUMP JUMPDEST PUSH1 0x20 DUP4 ADD SWAP1 POP SWAP3 SWAP2 POP POP JUMP JUMPDEST PUSH1 0x0 PUSH1 0x20 DUP3 ADD SWAP1 POP SWAP2 SWAP1 POP JUMP JUMPDEST PUSH1 0x0 PUSH2 0x3D34 DUP3 PUSH2 0x3CC9 JUMP JUMPDEST PUSH2 0x3D3E DUP2 DUP6 PUSH2 0x3CD4 JUMP JUMPDEST SWAP4 POP PUSH2 0x3D49 DUP4 PUSH2 0x3CE5 JUMP JUMPDEST DUP1 PUSH1 0x0 JUMPDEST DUP4 DUP2 LT ISZERO PUSH2 0x3D7A JUMPI DUP2 MLOAD PUSH2 0x3D61 DUP9 DUP3 PUSH2 0x3D04 JUMP JUMPDEST SWAP8 POP PUSH2 0x3D6C DUP4 PUSH2 0x3D1C JUMP JUMPDEST SWAP3 POP POP PUSH1 0x1 DUP2 ADD SWAP1 POP PUSH2 0x3D4D JUMP JUMPDEST POP DUP6 SWAP4 POP POP POP POP SWAP3 SWAP2 POP POP JUMP JUMPDEST PUSH1 0x0 PUSH1 0x20 DUP3 ADD SWAP1 POP DUP2 DUP2 SUB PUSH1 0x0 DUP4 ADD MSTORE PUSH2 0x3DA1 DUP2 DUP5 PUSH2 0x3D29 JUMP JUMPDEST SWAP1 POP SWAP3 SWAP2 POP POP JUMP JUMPDEST PUSH2 0x3DB2 DUP2 PUSH2 0x3C92 JUMP JUMPDEST DUP2 EQ PUSH2 0x3DBD JUMPI PUSH1 0x0 DUP1 REVERT JUMPDEST POP JUMP JUMPDEST PUSH1 0x0 DUP2 CALLDATALOAD SWAP1 POP PUSH2 0x3DCF DUP2 PUSH2 0x3DA9 JUMP JUMPDEST SWAP3 SWAP2 POP POP JUMP JUMPDEST PUSH1 0x0 PUSH1 0x20 DUP3 DUP5 SUB SLT ISZERO PUSH2 0x3DEB JUMPI PUSH2 0x3DEA PUSH2 0x3A06 JUMP JUMPDEST JUMPDEST PUSH1 0x0 PUSH2 0x3DF9 DUP5 DUP3 DUP6 ADD PUSH2 0x3DC0 JUMP JUMPDEST SWAP2 POP POP SWAP3 SWAP2 POP POP JUMP JUMPDEST PUSH1 0x0 DUP2 MLOAD SWAP1 POP SWAP2 SWAP1 POP JUMP JUMPDEST PUSH1 0x0 DUP3 DUP3 MSTORE PUSH1 0x20 DUP3 ADD SWAP1 POP SWAP3 SWAP2 POP POP JUMP JUMPDEST PUSH1 0x0 JUMPDEST DUP4 DUP2 LT ISZERO PUSH2 0x3E3C JUMPI DUP1 DUP3 ADD MLOAD DUP2 DUP5 ADD MSTORE PUSH1 0x20 DUP2 ADD SWAP1 POP PUSH2 0x3E21 JUMP JUMPDEST PUSH1 0x0 DUP5 DUP5 ADD MSTORE POP POP POP POP JUMP JUMPDEST PUSH1 0x0 PUSH1 0x1F NOT PUSH1 0x1F DUP4 ADD AND SWAP1 POP SWAP2 SWAP1 POP JUMP JUMPDEST PUSH1 0x0 PUSH2 0x3E64 DUP3 PUSH2 0x3E02 JUMP JUMPDEST PUSH2 0x3E6E DUP2 DUP6 PUSH2 0x3E0D JUMP JUMPDEST SWAP4 POP PUSH2 0x3E7E DUP2 DUP6 PUSH1 0x20 DUP7 ADD PUSH2 0x3E1E JUMP JUMPDEST PUSH2 0x3E87 DUP2 PUSH2 0x3E48 JUMP JUMPDEST DUP5 ADD SWAP2 POP POP SWAP3 SWAP2 POP POP JUMP JUMPDEST PUSH1 0x0 PUSH1 0x40 DUP4 ADD PUSH1 0x0 DUP4 ADD MLOAD PUSH2 0x3EAA PUSH1 0x0 DUP7 ADD DUP3 PUSH2 0x3CF5 JUMP JUMPDEST POP PUSH1 0x20 DUP4 ADD MLOAD DUP5 DUP3 SUB PUSH1 0x20 DUP7 ADD MSTORE PUSH2 0x3EC2 DUP3 DUP3 PUSH2 0x3E59 JUMP JUMPDEST SWAP2 POP POP DUP1 SWAP2 POP POP SWAP3 SWAP2 POP POP JUMP JUMPDEST PUSH1 0x0 PUSH1 0x20 DUP3 ADD SWAP1 POP DUP2 DUP2 SUB PUSH1 0x0 DUP4 ADD MSTORE PUSH2 0x3EE9 DUP2 DUP5 PUSH2 0x3E92 JUMP JUMPDEST SWAP1 POP SWAP3 SWAP2 POP POP JUMP JUMPDEST PUSH2 0x3EFA DUP2 PUSH2 0x3B8D JUMP JUMPDEST DUP3 MSTORE POP POP JUMP JUMPDEST PUSH1 0x0 PUSH1 0x20 DUP3 ADD SWAP1 POP PUSH2 0x3F15 PUSH1 0x0 DUP4 ADD DUP5 PUSH2 0x3EF1 JUMP JUMPDEST SWAP3 SWAP2 POP POP JUMP JUMPDEST PUSH2 0x3F24 DUP2 PUSH2 0x3A30 JUMP JUMPDEST DUP3 MSTORE POP POP JUMP JUMPDEST PUSH1 0x0 PUSH1 0x20 DUP3 ADD SWAP1 POP PUSH2 0x3F3F PUSH1 0x0 DUP4 ADD DUP5 PUSH2 0x3F1B JUMP JUMPDEST SWAP3 SWAP2 POP POP JUMP JUMPDEST PUSH1 0x0 DUP2 MLOAD SWAP1 POP SWAP2 SWAP1 POP JUMP JUMPDEST PUSH1 0x0 DUP3 DUP3 MSTORE PUSH1 0x20 DUP3 ADD SWAP1 POP SWAP3 SWAP2 POP POP JUMP JUMPDEST PUSH1 0x0 DUP2 SWAP1 POP PUSH1 0x20 DUP3 ADD SWAP1 POP SWAP2 SWAP1 POP JUMP JUMPDEST PUSH2 0x3F7A DUP2 PUSH2 0x3C92 JUMP JUMPDEST DUP3 MSTORE POP POP JUMP JUMPDEST PUSH1 0x0 PUSH2 0x3F8C DUP4 DUP4 PUSH2 0x3F71 JUMP JUMPDEST PUSH1 0x20 DUP4 ADD SWAP1 POP SWAP3 SWAP2 POP POP JUMP JUMPDEST PUSH1 0x0 PUSH1 0x20 DUP3 ADD SWAP1 POP SWAP2 SWAP1 POP JUMP JUMPDEST PUSH1 0x0 PUSH2 0x3FB0 DUP3 PUSH2 0x3F45 JUMP JUMPDEST PUSH2 0x3FBA DUP2 DUP6 PUSH2 0x3F50 JUMP JUMPDEST SWAP4 POP PUSH2 0x3FC5 DUP4 PUSH2 0x3F61 JUMP JUMPDEST DUP1 PUSH1 0x0 JUMPDEST DUP4 DUP2 LT ISZERO PUSH2 0x3FF6 JUMPI DUP2 MLOAD PUSH2 0x3FDD DUP9 DUP3 PUSH2 0x3F80 JUMP JUMPDEST SWAP8 POP PUSH2 0x3FE8 DUP4 PUSH2 0x3F98 JUMP JUMPDEST SWAP3 POP POP PUSH1 0x1 DUP2 ADD SWAP1 POP PUSH2 0x3FC9 JUMP JUMPDEST POP DUP6 SWAP4 POP POP POP POP SWAP3 SWAP2 POP POP JUMP JUMPDEST PUSH1 0x0 PUSH1 0x20 DUP3 ADD SWAP1 POP DUP2 DUP2 SUB PUSH1 0x0 DUP4 ADD MSTORE PUSH2 0x401D DUP2 DUP5 PUSH2 0x3FA5 JUMP JUMPDEST SWAP1 POP SWAP3 SWAP2 POP POP JUMP JUMPDEST PUSH1 0x0 DUP1 PUSH1 0x40 DUP4 DUP6 SUB SLT ISZERO PUSH2 0x403C JUMPI PUSH2 0x403B PUSH2 0x3A06 JUMP JUMPDEST JUMPDEST PUSH1 0x0 PUSH2 0x404A DUP6 DUP3 DUP7 ADD PUSH2 0x3A59 JUMP JUMPDEST SWAP3 POP POP PUSH1 0x20 PUSH2 0x405B DUP6 DUP3 DUP7 ADD PUSH2 0x3A59 JUMP JUMPDEST SWAP2 POP POP SWAP3 POP SWAP3 SWAP1 POP JUMP JUMPDEST PUSH1 0x0 DUP1 REVERT JUMPDEST PUSH32 0x4E487B7100000000000000000000000000000000000000000000000000000000 PUSH1 0x0 MSTORE PUSH1 0x41 PUSH1 0x4 MSTORE PUSH1 0x24 PUSH1 0x0 REVERT JUMPDEST PUSH2 0x40A2 DUP3 PUSH2 0x3E48 JUMP JUMPDEST DUP2 ADD DUP2 DUP2 LT PUSH8 0xFFFFFFFFFFFFFFFF DUP3 GT OR ISZERO PUSH2 0x40C1 JUMPI PUSH2 0x40C0 PUSH2 0x406A JUMP JUMPDEST JUMPDEST DUP1 PUSH1 0x40 MSTORE POP POP POP JUMP JUMPDEST PUSH1 0x0 PUSH2 0x40D4 PUSH2 0x39FC JUMP JUMPDEST SWAP1 POP PUSH2 0x40E0 DUP3 DUP3 PUSH2 0x4099 JUMP JUMPDEST SWAP2 SWAP1 POP JUMP JUMPDEST PUSH1 0x0 PUSH8 0xFFFFFFFFFFFFFFFF DUP3 GT ISZERO PUSH2 0x4100 JUMPI PUSH2 0x40FF PUSH2 0x406A JUMP JUMPDEST JUMPDEST PUSH1 0x20 DUP3 MUL SWAP1 POP PUSH1 0x20 DUP2 ADD SWAP1 POP SWAP2 SWAP1 POP JUMP JUMPDEST PUSH1 0x0 DUP1 REVERT JUMPDEST PUSH1 0x0 PUSH2 0x4129 PUSH2 0x4124 DUP5 PUSH2 0x40E5 JUMP JUMPDEST PUSH2 0x40CA JUMP JUMPDEST SWAP1 POP DUP1 DUP4 DUP3 MSTORE PUSH1 0x20 DUP3 ADD SWAP1 POP PUSH1 0x20 DUP5 MUL DUP4 ADD DUP6 DUP2 GT ISZERO PUSH2 0x414C JUMPI PUSH2 0x414B PUSH2 0x4111 JUMP JUMPDEST JUMPDEST DUP4 JUMPDEST DUP2 DUP2 LT ISZERO PUSH2 0x4175 JUMPI DUP1 PUSH2 0x4161 DUP9 DUP3 PUSH2 0x3A59 JUMP JUMPDEST DUP5 MSTORE PUSH1 0x20 DUP5 ADD SWAP4 POP POP PUSH1 0x20 DUP2 ADD SWAP1 POP PUSH2 0x414E JUMP JUMPDEST POP POP POP SWAP4 SWAP3 POP POP POP JUMP JUMPDEST PUSH1 0x0 DUP3 PUSH1 0x1F DUP4 ADD SLT PUSH2 0x4194 JUMPI PUSH2 0x4193 PUSH2 0x4065 JUMP JUMPDEST JUMPDEST DUP2 CALLDATALOAD PUSH2 0x41A4 DUP5 DUP3 PUSH1 0x20 DUP7 ADD PUSH2 0x4116 JUMP JUMPDEST SWAP2 POP POP SWAP3 SWAP2 POP POP JUMP JUMPDEST PUSH1 0x0 DUP1 PUSH1 0x40 DUP4 DUP6 SUB SLT ISZERO PUSH2 0x41C4 JUMPI PUSH2 0x41C3 PUSH2 0x3A06 JUMP JUMPDEST JUMPDEST PUSH1 0x0 PUSH2 0x41D2 DUP6 DUP3 DUP7 ADD PUSH2 0x3A59 JUMP JUMPDEST SWAP3 POP POP PUSH1 0x20 DUP4 ADD CALLDATALOAD PUSH8 0xFFFFFFFFFFFFFFFF DUP2 GT ISZERO PUSH2 0x41F3 JUMPI PUSH2 0x41F2 PUSH2 0x3A0B JUMP JUMPDEST JUMPDEST PUSH2 0x41FF DUP6 DUP3 DUP7 ADD PUSH2 0x417F JUMP JUMPDEST SWAP2 POP POP SWAP3 POP SWAP3 SWAP1 POP JUMP JUMPDEST PUSH1 0x0 DUP2 MLOAD SWAP1 POP SWAP2 SWAP1 POP JUMP JUMPDEST PUSH1 0x0 DUP3 DUP3 MSTORE PUSH1 0x20 DUP3 ADD SWAP1 POP SWAP3 SWAP2 POP POP JUMP JUMPDEST PUSH1 0x0 DUP2 SWAP1 POP PUSH1 0x20 DUP3 ADD SWAP1 POP SWAP2 SWAP1 POP JUMP JUMPDEST PUSH1 0x0 PUSH2 0x4241 DUP4 DUP4 PUSH2 0x3B99 JUMP JUMPDEST PUSH1 0x20 DUP4 ADD SWAP1 POP SWAP3 SWAP2 POP POP JUMP JUMPDEST PUSH1 0x0 PUSH1 0x20 DUP3 ADD SWAP1 POP SWAP2 SWAP1 POP JUMP JUMPDEST PUSH1 0x0 PUSH2 0x4265 DUP3 PUSH2 0x4209 JUMP JUMPDEST PUSH2 0x426F DUP2 DUP6 PUSH2 0x4214 JUMP JUMPDEST SWAP4 POP PUSH2 0x427A DUP4 PUSH2 0x4225 JUMP JUMPDEST DUP1 PUSH1 0x0 JUMPDEST DUP4 DUP2 LT ISZERO PUSH2 0x42AB JUMPI DUP2 MLOAD PUSH2 0x4292 DUP9 DUP3 PUSH2 0x4235 JUMP JUMPDEST SWAP8 POP PUSH2 0x429D DUP4 PUSH2 0x424D JUMP JUMPDEST SWAP3 POP POP PUSH1 0x1 DUP2 ADD SWAP1 POP PUSH2 0x427E JUMP JUMPDEST POP DUP6 SWAP4 POP POP POP POP SWAP3 SWAP2 POP POP JUMP JUMPDEST PUSH1 0x0 PUSH1 0x20 DUP3 ADD SWAP1 POP DUP2 DUP2 SUB PUSH1 0x0 DUP4 ADD MSTORE PUSH2 0x42D2 DUP2 DUP5 PUSH2 0x425A JUMP JUMPDEST SWAP1 POP SWAP3 SWAP2 POP POP JUMP JUMPDEST PUSH1 0x0 DUP1 PUSH1 0x0 PUSH1 0x60 DUP5 DUP7 SUB SLT ISZERO PUSH2 0x42F3 JUMPI PUSH2 0x42F2 PUSH2 0x3A06 JUMP JUMPDEST JUMPDEST PUSH1 0x0 PUSH2 0x4301 DUP7 DUP3 DUP8 ADD PUSH2 0x3A59 JUMP JUMPDEST SWAP4 POP POP PUSH1 0x20 PUSH2 0x4312 DUP7 DUP3 DUP8 ADD PUSH2 0x3A59 JUMP JUMPDEST SWAP3 POP POP PUSH1 0x40 PUSH2 0x4323 DUP7 DUP3 DUP8 ADD PUSH2 0x3DC0 JUMP JUMPDEST SWAP2 POP POP SWAP3 POP SWAP3 POP SWAP3 JUMP JUMPDEST PUSH1 0x0 DUP1 PUSH1 0x0 DUP1 PUSH1 0x80 DUP6 DUP8 SUB SLT ISZERO PUSH2 0x4347 JUMPI PUSH2 0x4346 PUSH2 0x3A06 JUMP JUMPDEST JUMPDEST PUSH1 0x0 PUSH2 0x4355 DUP8 DUP3 DUP9 ADD PUSH2 0x3A59 JUMP JUMPDEST SWAP5 POP POP PUSH1 0x20 PUSH2 0x4366 DUP8 DUP3 DUP9 ADD PUSH2 0x3A59 JUMP JUMPDEST SWAP4 POP POP PUSH1 0x40 PUSH2 0x4377 DUP8 DUP3 DUP9 ADD PUSH2 0x3A59 JUMP JUMPDEST SWAP3 POP POP PUSH1 0x60 PUSH2 0x4388 DUP8 DUP3 DUP9 ADD PUSH2 0x3A99 JUMP JUMPDEST SWAP2 POP POP SWAP3 SWAP6 SWAP2 SWAP5 POP SWAP3 POP JUMP JUMPDEST PUSH1 0x0 DUP1 PUSH1 0x40 DUP4 DUP6 SUB SLT ISZERO PUSH2 0x43AB JUMPI PUSH2 0x43AA PUSH2 0x3A06 JUMP JUMPDEST JUMPDEST PUSH1 0x0 PUSH2 0x43B9 DUP6 DUP3 DUP7 ADD PUSH2 0x3A59 JUMP JUMPDEST SWAP3 POP POP PUSH1 0x20 PUSH2 0x43CA DUP6 DUP3 DUP7 ADD PUSH2 0x3DC0 JUMP JUMPDEST SWAP2 POP POP SWAP3 POP SWAP3 SWAP1 POP JUMP JUMPDEST PUSH1 0x0 DUP3 DUP3 MSTORE PUSH1 0x20 DUP3 ADD SWAP1 POP SWAP3 SWAP2 POP POP JUMP JUMPDEST PUSH1 0x0 PUSH2 0x43F0 DUP3 PUSH2 0x3E02 JUMP JUMPDEST PUSH2 0x43FA DUP2 DUP6 PUSH2 0x43D4 JUMP JUMPDEST SWAP4 POP PUSH2 0x440A DUP2 DUP6 PUSH1 0x20 DUP7 ADD PUSH2 0x3E1E JUMP JUMPDEST PUSH2 0x4413 DUP2 PUSH2 0x3E48 JUMP JUMPDEST DUP5 ADD SWAP2 POP POP SWAP3 SWAP2 POP POP JUMP JUMPDEST PUSH1 0x0 PUSH1 0x40 DUP3 ADD SWAP1 POP PUSH2 0x4433 PUSH1 0x0 DUP4 ADD DUP6 PUSH2 0x3F1B JUMP JUMPDEST DUP2 DUP2 SUB PUSH1 0x20 DUP4 ADD MSTORE PUSH2 0x4445 DUP2 DUP5 PUSH2 0x43E5 JUMP JUMPDEST SWAP1 POP SWAP4 SWAP3 POP POP POP JUMP JUMPDEST PUSH1 0x0 DUP1 REVERT JUMPDEST PUSH1 0x0 PUSH8 0xFFFFFFFFFFFFFFFF DUP3 GT ISZERO PUSH2 0x446E JUMPI PUSH2 0x446D PUSH2 0x406A JUMP JUMPDEST JUMPDEST PUSH2 0x4477 DUP3 PUSH2 0x3E48 JUMP JUMPDEST SWAP1 POP PUSH1 0x20 DUP2 ADD SWAP1 POP SWAP2 SWAP1 POP JUMP JUMPDEST DUP3 DUP2 DUP4 CALLDATACOPY PUSH1 0x0 DUP4 DUP4 ADD MSTORE POP POP POP JUMP JUMPDEST PUSH1 0x0 PUSH2 0x44A6 PUSH2 0x44A1 DUP5 PUSH2 0x4453 JUMP JUMPDEST PUSH2 0x40CA JUMP JUMPDEST SWAP1 POP DUP3 DUP2 MSTORE PUSH1 0x20 DUP2 ADD DUP5 DUP5 DUP5 ADD GT ISZERO PUSH2 0x44C2 JUMPI PUSH2 0x44C1 PUSH2 0x444E JUMP JUMPDEST JUMPDEST PUSH2 0x44CD DUP5 DUP3 DUP6 PUSH2 0x4484 JUMP JUMPDEST POP SWAP4 SWAP3 POP POP POP JUMP JUMPDEST PUSH1 0x0 DUP3 PUSH1 0x1F DUP4 ADD SLT PUSH2 0x44EA JUMPI PUSH2 0x44E9 PUSH2 0x4065 JUMP JUMPDEST JUMPDEST DUP2 CALLDATALOAD PUSH2 0x44FA DUP5 DUP3 PUSH1 0x20 DUP7 ADD PUSH2 0x4493 JUMP JUMPDEST SWAP2 POP POP SWAP3 SWAP2 POP POP JUMP JUMPDEST PUSH1 0x0 DUP1 PUSH1 0x40 DUP4 DUP6 SUB SLT ISZERO PUSH2 0x451A JUMPI PUSH2 0x4519 PUSH2 0x3A06 JUMP JUMPDEST JUMPDEST PUSH1 0x0 PUSH2 0x4528 DUP6 DUP3 DUP7 ADD PUSH2 0x3A59 JUMP JUMPDEST SWAP3 POP POP PUSH1 0x20 DUP4 ADD CALLDATALOAD PUSH8 0xFFFFFFFFFFFFFFFF DUP2 GT ISZERO PUSH2 0x4549 JUMPI PUSH2 0x4548 PUSH2 0x3A0B JUMP JUMPDEST JUMPDEST PUSH2 0x4555 DUP6 DUP3 DUP7 ADD PUSH2 0x44D5 JUMP JUMPDEST SWAP2 POP POP SWAP3 POP SWAP3 SWAP1 POP JUMP JUMPDEST PUSH2 0x4568 DUP2 PUSH2 0x3B6E JUMP JUMPDEST DUP3 MSTORE POP POP JUMP JUMPDEST PUSH1 0x0 PUSH1 0x40 DUP3 ADD SWAP1 POP PUSH2 0x4583 PUSH1 0x0 DUP4 ADD DUP6 PUSH2 0x455F JUMP JUMPDEST PUSH2 0x4590 PUSH1 0x20 DUP4 ADD DUP5 PUSH2 0x3EF1 JUMP JUMPDEST SWAP4 SWAP3 POP POP POP JUMP JUMPDEST PUSH1 0x0 DUP3 DUP3 MSTORE PUSH1 0x20 DUP3 ADD SWAP1 POP SWAP3 SWAP2 POP POP JUMP JUMPDEST PUSH32 0x2162616C616E6365000000000000000000000000000000000000000000000000 PUSH1 0x0 DUP3 ADD MSTORE POP JUMP JUMPDEST PUSH1 0x0 PUSH2 0x45DE PUSH1 0x8 DUP4 PUSH2 0x4597 JUMP JUMPDEST SWAP2 POP PUSH2 0x45E9 DUP3 PUSH2 0x45A8 JUMP JUMPDEST PUSH1 0x20 DUP3 ADD SWAP1 POP SWAP2 SWAP1 POP JUMP JUMPDEST PUSH1 0x0 PUSH1 0x20 DUP3 ADD SWAP1 POP DUP2 DUP2 SUB PUSH1 0x0 DUP4 ADD MSTORE PUSH2 0x460D DUP2 PUSH2 0x45D1 JUMP JUMPDEST SWAP1 POP SWAP2 SWAP1 POP JUMP JUMPDEST PUSH32 0x2166756E6769626C650000000000000000000000000000000000000000000000 PUSH1 0x0 DUP3 ADD MSTORE POP JUMP JUMPDEST PUSH1 0x0 PUSH2 0x464A PUSH1 0x9 DUP4 PUSH2 0x4597 JUMP JUMPDEST SWAP2 POP PUSH2 0x4655 DUP3 PUSH2 0x4614 JUMP JUMPDEST PUSH1 0x20 DUP3 ADD SWAP1 POP SWAP2 SWAP1 POP JUMP JUMPDEST PUSH1 0x0 PUSH1 0x20 DUP3 ADD SWAP1 POP DUP2 DUP2 SUB PUSH1 0x0 DUP4 ADD MSTORE PUSH2 0x4679 DUP2 PUSH2 0x463D JUMP JUMPDEST SWAP1 POP SWAP2 SWAP1 POP JUMP JUMPDEST PUSH2 0x4689 DUP2 PUSH2 0x3A6E JUMP JUMPDEST DUP3 MSTORE POP POP JUMP JUMPDEST PUSH1 0x0 PUSH1 0x60 DUP3 ADD SWAP1 POP PUSH2 0x46A4 PUSH1 0x0 DUP4 ADD DUP7 PUSH2 0x3F1B JUMP JUMPDEST PUSH2 0x46B1 PUSH1 0x20 DUP4 ADD DUP6 PUSH2 0x4680 JUMP JUMPDEST DUP2 DUP2 SUB PUSH1 0x40 DUP4 ADD MSTORE PUSH2 0x46C3 DUP2 DUP5 PUSH2 0x3FA5 JUMP JUMPDEST SWAP1 POP SWAP5 SWAP4 POP POP POP POP JUMP JUMPDEST PUSH1 0x0 DUP2 SWAP1 POP SWAP2 SWAP1 POP JUMP JUMPDEST PUSH2 0x46E0 DUP2 PUSH2 0x46CD JUMP JUMPDEST DUP2 EQ PUSH2 0x46EB JUMPI PUSH1 0x0 DUP1 REVERT JUMPDEST POP JUMP JUMPDEST PUSH1 0x0 DUP2 MLOAD SWAP1 POP PUSH2 0x46FD DUP2 PUSH2 0x46D7 JUMP JUMPDEST SWAP3 SWAP2 POP POP JUMP JUMPDEST PUSH1 0x0 DUP2 MLOAD SWAP1 POP PUSH2 0x4712 DUP2 PUSH2 0x3A82 JUMP JUMPDEST SWAP3 SWAP2 POP POP JUMP JUMPDEST PUSH1 0x0 DUP1 PUSH1 0x40 DUP4 DUP6 SUB SLT ISZERO PUSH2 0x472F JUMPI PUSH2 0x472E PUSH2 0x3A06 JUMP JUMPDEST JUMPDEST PUSH1 0x0 PUSH2 0x473D DUP6 DUP3 DUP7 ADD PUSH2 0x46EE JUMP JUMPDEST SWAP3 POP POP PUSH1 0x20 PUSH2 0x474E DUP6 DUP3 DUP7 ADD PUSH2 0x4703 JUMP JUMPDEST SWAP2 POP POP SWAP3 POP SWAP3 SWAP1 POP JUMP JUMPDEST PUSH32 0x4E487B7100000000000000000000000000000000000000000000000000000000 PUSH1 0x0 MSTORE PUSH1 0x11 PUSH1 0x4 MSTORE PUSH1 0x24 PUSH1 0x0 REVERT JUMPDEST PUSH1 0x0 PUSH2 0x4792 DUP3 PUSH2 0x3BF2 JUMP JUMPDEST SWAP2 POP PUSH2 0x479D DUP4 PUSH2 0x3BF2 JUMP JUMPDEST SWAP3 POP DUP3 DUP3 SUB SWAP1 POP DUP2 DUP2 GT ISZERO PUSH2 0x47B5 JUMPI PUSH2 0x47B4 PUSH2 0x4758 JUMP JUMPDEST JUMPDEST SWAP3 SWAP2 POP POP JUMP JUMPDEST PUSH1 0x0 PUSH1 0x40 DUP3 ADD SWAP1 POP PUSH2 0x47D0 PUSH1 0x0 DUP4 ADD DUP6 PUSH2 0x4680 JUMP JUMPDEST DUP2 DUP2 SUB PUSH1 0x20 DUP4 ADD MSTORE PUSH2 0x47E2 DUP2 DUP5 PUSH2 0x3FA5 JUMP JUMPDEST SWAP1 POP SWAP4 SWAP3 POP POP POP JUMP JUMPDEST PUSH32 0x2165786973740000000000000000000000000000000000000000000000000000 PUSH1 0x0 DUP3 ADD MSTORE POP JUMP JUMPDEST PUSH1 0x0 PUSH2 0x4821 PUSH1 0x6 DUP4 PUSH2 0x4597 JUMP JUMPDEST SWAP2 POP PUSH2 0x482C DUP3 PUSH2 0x47EB JUMP JUMPDEST PUSH1 0x20 DUP3 ADD SWAP1 POP SWAP2 SWAP1 POP JUMP JUMPDEST PUSH1 0x0 PUSH1 0x20 DUP3 ADD SWAP1 POP DUP2 DUP2 SUB PUSH1 0x0 DUP4 ADD MSTORE PUSH2 0x4850 DUP2 PUSH2 0x4814 JUMP JUMPDEST SWAP1 POP SWAP2 SWAP1 POP JUMP JUMPDEST PUSH1 0x0 PUSH1 0x80 DUP3 ADD SWAP1 POP PUSH2 0x486C PUSH1 0x0 DUP4 ADD DUP8 PUSH2 0x3F1B JUMP JUMPDEST PUSH2 0x4879 PUSH1 0x20 DUP4 ADD DUP7 PUSH2 0x3F1B JUMP JUMPDEST PUSH2 0x4886 PUSH1 0x40 DUP4 ADD DUP6 PUSH2 0x3F1B JUMP JUMPDEST PUSH2 0x4893 PUSH1 0x60 DUP4 ADD DUP5 PUSH2 0x4680 JUMP JUMPDEST SWAP6 SWAP5 POP POP POP POP POP JUMP JUMPDEST PUSH1 0x0 PUSH1 0x20 DUP3 DUP5 SUB SLT ISZERO PUSH2 0x48B2 JUMPI PUSH2 0x48B1 PUSH2 0x3A06 JUMP JUMPDEST JUMPDEST PUSH1 0x0 PUSH2 0x48C0 DUP5 DUP3 DUP6 ADD PUSH2 0x46EE JUMP JUMPDEST SWAP2 POP POP SWAP3 SWAP2 POP POP JUMP JUMPDEST PUSH32 0x5265636F76657279206661696C65640000000000000000000000000000000000 PUSH1 0x0 DUP3 ADD MSTORE POP JUMP JUMPDEST PUSH1 0x0 PUSH2 0x48FF PUSH1 0xF DUP4 PUSH2 0x4597 JUMP JUMPDEST SWAP2 POP PUSH2 0x490A DUP3 PUSH2 0x48C9 JUMP JUMPDEST PUSH1 0x20 DUP3 ADD SWAP1 POP SWAP2 SWAP1 POP JUMP JUMPDEST PUSH1 0x0 PUSH1 0x20 DUP3 ADD SWAP1 POP DUP2 DUP2 SUB PUSH1 0x0 DUP4 ADD MSTORE PUSH2 0x492E DUP2 PUSH2 0x48F2 JUMP JUMPDEST SWAP1 POP SWAP2 SWAP1 POP JUMP JUMPDEST PUSH32 0x4E487B7100000000000000000000000000000000000000000000000000000000 PUSH1 0x0 MSTORE PUSH1 0x32 PUSH1 0x4 MSTORE PUSH1 0x24 PUSH1 0x0 REVERT JUMPDEST PUSH32 0x4E487B7100000000000000000000000000000000000000000000000000000000 PUSH1 0x0 MSTORE PUSH1 0x22 PUSH1 0x4 MSTORE PUSH1 0x24 PUSH1 0x0 REVERT JUMPDEST PUSH1 0x0 PUSH1 0x2 DUP3 DIV SWAP1 POP PUSH1 0x1 DUP3 AND DUP1 PUSH2 0x49AB JUMPI PUSH1 0x7F DUP3 AND SWAP2 POP JUMPDEST PUSH1 0x20 DUP3 LT DUP2 SUB PUSH2 0x49BE JUMPI PUSH2 0x49BD PUSH2 0x4964 JUMP JUMPDEST JUMPDEST POP SWAP2 SWAP1 POP JUMP JUMPDEST PUSH32 0x416C726561647920637265617465640000000000000000000000000000000000 PUSH1 0x0 DUP3 ADD MSTORE POP JUMP JUMPDEST PUSH1 0x0 PUSH2 0x49FA PUSH1 0xF DUP4 PUSH2 0x4597 JUMP JUMPDEST SWAP2 POP PUSH2 0x4A05 DUP3 PUSH2 0x49C4 JUMP JUMPDEST PUSH1 0x20 DUP3 ADD SWAP1 POP SWAP2 SWAP1 POP JUMP JUMPDEST PUSH1 0x0 PUSH1 0x20 DUP3 ADD SWAP1 POP DUP2 DUP2 SUB PUSH1 0x0 DUP4 ADD MSTORE PUSH2 0x4A29 DUP2 PUSH2 0x49ED JUMP JUMPDEST SWAP1 POP SWAP2 SWAP1 POP JUMP JUMPDEST PUSH1 0x0 DUP2 PUSH1 0x60 SHL SWAP1 POP SWAP2 SWAP1 POP JUMP JUMPDEST PUSH1 0x0 PUSH2 0x4A48 DUP3 PUSH2 0x4A30 JUMP JUMPDEST SWAP1 POP SWAP2 SWAP1 POP JUMP JUMPDEST PUSH1 0x0 PUSH2 0x4A5A DUP3 PUSH2 0x4A3D JUMP JUMPDEST SWAP1 POP SWAP2 SWAP1 POP JUMP JUMPDEST PUSH2 0x4A72 PUSH2 0x4A6D DUP3 PUSH2 0x3A30 JUMP JUMPDEST PUSH2 0x4A4F JUMP JUMPDEST DUP3 MSTORE POP POP JUMP JUMPDEST PUSH1 0x0 DUP2 SWAP1 POP SWAP3 SWAP2 POP POP JUMP JUMPDEST PUSH32 0x53515F544F4B454E000000000000000000000000000000000000000000000000 PUSH1 0x0 DUP3 ADD MSTORE POP JUMP JUMPDEST PUSH1 0x0 PUSH2 0x4AB9 PUSH1 0x8 DUP4 PUSH2 0x4A78 JUMP JUMPDEST SWAP2 POP PUSH2 0x4AC4 DUP3 PUSH2 0x4A83 JUMP JUMPDEST PUSH1 0x8 DUP3 ADD SWAP1 POP SWAP2 SWAP1 POP JUMP JUMPDEST PUSH1 0x0 PUSH2 0x4ADB DUP3 DUP5 PUSH2 0x4A61 JUMP JUMPDEST PUSH1 0x14 DUP3 ADD SWAP2 POP PUSH2 0x4AEA DUP3 PUSH2 0x4AAC JUMP JUMPDEST SWAP2 POP DUP2 SWAP1 POP SWAP3 SWAP2 POP POP JUMP JUMPDEST PUSH1 0x0 DUP2 SWAP1 POP SWAP2 SWAP1 POP JUMP JUMPDEST PUSH1 0x0 DUP2 SWAP1 POP SWAP2 SWAP1 POP JUMP JUMPDEST PUSH1 0x0 PUSH2 0x4B24 PUSH2 0x4B1F PUSH2 0x4B1A DUP5 PUSH2 0x4AF5 JUMP JUMPDEST PUSH2 0x4AFF JUMP JUMPDEST PUSH2 0x3BF2 JUMP JUMPDEST SWAP1 POP SWAP2 SWAP1 POP JUMP JUMPDEST PUSH2 0x4B34 DUP2 PUSH2 0x4B09 JUMP JUMPDEST DUP3 MSTORE POP POP JUMP JUMPDEST PUSH1 0x0 DUP2 SWAP1 POP SWAP2 SWAP1 POP JUMP JUMPDEST PUSH1 0x0 PUSH2 0x4B5F PUSH2 0x4B5A PUSH2 0x4B55 DUP5 PUSH2 0x4B3A JUMP JUMPDEST PUSH2 0x4AFF JUMP JUMPDEST PUSH2 0x3B6E JUMP JUMPDEST SWAP1 POP SWAP2 SWAP1 POP JUMP JUMPDEST PUSH2 0x4B6F DUP2 PUSH2 0x4B44 JUMP JUMPDEST DUP3 MSTORE POP POP JUMP JUMPDEST PUSH32 0x53746172517565737420546F6B656E0000000000000000000000000000000000 PUSH1 0x0 DUP3 ADD MSTORE POP JUMP JUMPDEST PUSH1 0x0 PUSH2 0x4BAB PUSH1 0xF DUP4 PUSH2 0x4597 JUMP JUMPDEST SWAP2 POP PUSH2 0x4BB6 DUP3 PUSH2 0x4B75 JUMP JUMPDEST PUSH1 0x20 DUP3 ADD SWAP1 POP SWAP2 SWAP1 POP JUMP JUMPDEST PUSH32 0x5351000000000000000000000000000000000000000000000000000000000000 PUSH1 0x0 DUP3 ADD MSTORE POP JUMP JUMPDEST PUSH1 0x0 PUSH2 0x4BF7 PUSH1 0x2 DUP4 PUSH2 0x4597 JUMP JUMPDEST SWAP2 POP PUSH2 0x4C02 DUP3 PUSH2 0x4BC1 JUMP JUMPDEST PUSH1 0x20 DUP3 ADD SWAP1 POP SWAP2 SWAP1 POP JUMP JUMPDEST PUSH1 0x0 PUSH1 0xA0 DUP3 ADD SWAP1 POP PUSH2 0x4C22 PUSH1 0x0 DUP4 ADD DUP7 PUSH2 0x3F1B JUMP JUMPDEST PUSH2 0x4C2F PUSH1 0x20 DUP4 ADD DUP6 PUSH2 0x4B2B JUMP JUMPDEST PUSH2 0x4C3C PUSH1 0x40 DUP4 ADD DUP5 PUSH2 0x4B66 JUMP JUMPDEST DUP2 DUP2 SUB PUSH1 0x60 DUP4 ADD MSTORE PUSH2 0x4C4D DUP2 PUSH2 0x4B9E JUMP JUMPDEST SWAP1 POP DUP2 DUP2 SUB PUSH1 0x80 DUP4 ADD MSTORE PUSH2 0x4C60 DUP2 PUSH2 0x4BEA JUMP JUMPDEST SWAP1 POP SWAP5 SWAP4 POP POP POP POP JUMP JUMPDEST PUSH32 0x546F6B656E206372656174696F6E206661696C65640000000000000000000000 PUSH1 0x0 DUP3 ADD MSTORE POP JUMP JUMPDEST PUSH1 0x0 PUSH2 0x4CA0 PUSH1 0x15 DUP4 PUSH2 0x4597 JUMP JUMPDEST SWAP2 POP PUSH2 0x4CAB DUP3 PUSH2 0x4C6A JUMP JUMPDEST PUSH1 0x20 DUP3 ADD SWAP1 POP SWAP2 SWAP1 POP JUMP JUMPDEST PUSH1 0x0 PUSH1 0x20 DUP3 ADD SWAP1 POP DUP2 DUP2 SUB PUSH1 0x0 DUP4 ADD MSTORE PUSH2 0x4CCF DUP2 PUSH2 0x4C93 JUMP JUMPDEST SWAP1 POP SWAP2 SWAP1 POP JUMP JUMPDEST PUSH32 0x53515F4E46540000000000000000000000000000000000000000000000000000 PUSH1 0x0 DUP3 ADD MSTORE POP JUMP JUMPDEST PUSH1 0x0 PUSH2 0x4D0C PUSH1 0x6 DUP4 PUSH2 0x4A78 JUMP JUMPDEST SWAP2 POP PUSH2 0x4D17 DUP3 PUSH2 0x4CD6 JUMP JUMPDEST PUSH1 0x6 DUP3 ADD SWAP1 POP SWAP2 SWAP1 POP JUMP JUMPDEST PUSH1 0x0 PUSH2 0x4D2E DUP3 DUP5 PUSH2 0x4A61 JUMP JUMPDEST PUSH1 0x14 DUP3 ADD SWAP2 POP PUSH2 0x4D3D DUP3 PUSH2 0x4CFF JUMP JUMPDEST SWAP2 POP DUP2 SWAP1 POP SWAP3 SWAP2 POP POP JUMP JUMPDEST PUSH32 0x537461725175657374204E465400000000000000000000000000000000000000 PUSH1 0x0 DUP3 ADD MSTORE POP JUMP JUMPDEST PUSH1 0x0 PUSH2 0x4D7E PUSH1 0xD DUP4 PUSH2 0x4597 JUMP JUMPDEST SWAP2 POP PUSH2 0x4D89 DUP3 PUSH2 0x4D48 JUMP JUMPDEST PUSH1 0x20 DUP3 ADD SWAP1 POP SWAP2 SWAP1 POP JUMP JUMPDEST PUSH32 0x53514E4654000000000000000000000000000000000000000000000000000000 PUSH1 0x0 DUP3 ADD MSTORE POP JUMP JUMPDEST PUSH1 0x0 PUSH2 0x4DCA PUSH1 0x5 DUP4 PUSH2 0x4597 JUMP JUMPDEST SWAP2 POP PUSH2 0x4DD5 DUP3 PUSH2 0x4D94 JUMP JUMPDEST PUSH1 0x20 DUP3 ADD SWAP1 POP SWAP2 SWAP1 POP JUMP JUMPDEST PUSH1 0x0 PUSH1 0x60 DUP3 ADD SWAP1 POP PUSH2 0x4DF5 PUSH1 0x0 DUP4 ADD DUP5 PUSH2 0x3F1B JUMP JUMPDEST DUP2 DUP2 SUB PUSH1 0x20 DUP4 ADD MSTORE PUSH2 0x4E06 DUP2 PUSH2 0x4D71 JUMP JUMPDEST SWAP1 POP DUP2 DUP2 SUB PUSH1 0x40 DUP4 ADD MSTORE PUSH2 0x4E19 DUP2 PUSH2 0x4DBD JUMP JUMPDEST SWAP1 POP SWAP3 SWAP2 POP POP JUMP JUMPDEST PUSH32 0x4E4654206372656174696F6E206661696C656400000000000000000000000000 PUSH1 0x0 DUP3 ADD MSTORE POP JUMP JUMPDEST PUSH1 0x0 PUSH2 0x4E57 PUSH1 0x13 DUP4 PUSH2 0x4597 JUMP JUMPDEST SWAP2 POP PUSH2 0x4E62 DUP3 PUSH2 0x4E21 JUMP JUMPDEST PUSH1 0x20 DUP3 ADD SWAP1 POP SWAP2 SWAP1 POP JUMP JUMPDEST PUSH1 0x0 PUSH1 0x20 DUP3 ADD SWAP1 POP DUP2 DUP2 SUB PUSH1 0x0 DUP4 ADD MSTORE PUSH2 0x4E86 DUP2 PUSH2 0x4E4A JUMP JUMPDEST SWAP1 POP SWAP2 SWAP1 POP JUMP JUMPDEST PUSH32 0x53515F5245574152440000000000000000000000000000000000000000000000 PUSH1 0x0 DUP3 ADD MSTORE POP JUMP JUMPDEST PUSH1 0x0 PUSH2 0x4EC3 PUSH1 0x9 DUP4 PUSH2 0x4A78 JUMP JUMPDEST SWAP2 POP PUSH2 0x4ECE DUP3 PUSH2 0x4E8D JUMP JUMPDEST PUSH1 0x9 DUP3 ADD SWAP1 POP SWAP2 SWAP1 POP JUMP JUMPDEST PUSH1 0x0 PUSH2 0x4EE5 DUP3 DUP5 PUSH2 0x4A61 JUMP JUMPDEST PUSH1 0x14 DUP3 ADD SWAP2 POP PUSH2 0x4EF4 DUP3 PUSH2 0x4EB6 JUMP JUMPDEST SWAP2 POP DUP2 SWAP1 POP SWAP3 SWAP2 POP POP JUMP JUMPDEST PUSH1 0x0 DUP2 SWAP1 POP SWAP2 SWAP1 POP JUMP JUMPDEST PUSH1 0x0 PUSH2 0x4F24 PUSH2 0x4F1F PUSH2 0x4F1A DUP5 PUSH2 0x4EFF JUMP JUMPDEST PUSH2 0x4AFF JUMP JUMPDEST PUSH2 0x3BF2 JUMP JUMPDEST SWAP1 POP SWAP2 SWAP1 POP JUMP JUMPDEST PUSH2 0x4F34 DUP2 PUSH2 0x4F09 JUMP JUMPDEST DUP3 MSTORE POP POP JUMP JUMPDEST PUSH32 0x5374617251756573742052657761726473000000000000000000000000000000 PUSH1 0x0 DUP3 ADD MSTORE POP JUMP JUMPDEST PUSH1 0x0 PUSH2 0x4F70 PUSH1 0x11 DUP4 PUSH2 0x4597 JUMP JUMPDEST SWAP2 POP PUSH2 0x4F7B DUP3 PUSH2 0x4F3A JUMP JUMPDEST PUSH1 0x20 DUP3 ADD SWAP1 POP SWAP2 SWAP1 POP JUMP JUMPDEST PUSH32 0x5351520000000000000000000000000000000000000000000000000000000000 PUSH1 0x0 DUP3 ADD MSTORE POP JUMP JUMPDEST PUSH1 0x0 PUSH2 0x4FBC PUSH1 0x3 DUP4 PUSH2 0x4597 JUMP JUMPDEST SWAP2 POP PUSH2 0x4FC7 DUP3 PUSH2 0x4F86 JUMP JUMPDEST PUSH1 0x20 DUP3 ADD SWAP1 POP SWAP2 SWAP1 POP JUMP JUMPDEST PUSH1 0x0 PUSH1 0xA0 DUP3 ADD SWAP1 POP PUSH2 0x4FE7 PUSH1 0x0 DUP4 ADD DUP7 PUSH2 0x3F1B JUMP JUMPDEST PUSH2 0x4FF4 PUSH1 0x20 DUP4 ADD DUP6 PUSH2 0x4F2B JUMP JUMPDEST PUSH2 0x5001 PUSH1 0x40 DUP4 ADD DUP5 PUSH2 0x4B66 JUMP JUMPDEST DUP2 DUP2 SUB PUSH1 0x60 DUP4 ADD MSTORE PUSH2 0x5012 DUP2 PUSH2 0x4F63 JUMP JUMPDEST SWAP1 POP DUP2 DUP2 SUB PUSH1 0x80 DUP4 ADD MSTORE PUSH2 0x5025 DUP2 PUSH2 0x4FAF JUMP JUMPDEST SWAP1 POP SWAP5 SWAP4 POP POP POP POP JUMP JUMPDEST PUSH32 0x526577617264206372656174696F6E206661696C656400000000000000000000 PUSH1 0x0 DUP3 ADD MSTORE POP JUMP JUMPDEST PUSH1 0x0 PUSH2 0x5065 PUSH1 0x16 DUP4 PUSH2 0x4597 JUMP JUMPDEST SWAP2 POP PUSH2 0x5070 DUP3 PUSH2 0x502F JUMP JUMPDEST PUSH1 0x20 DUP3 ADD SWAP1 POP SWAP2 SWAP1 POP JUMP JUMPDEST PUSH1 0x0 PUSH1 0x20 DUP3 ADD SWAP1 POP DUP2 DUP2 SUB PUSH1 0x0 DUP4 ADD MSTORE PUSH2 0x5094 DUP2 PUSH2 0x5058 JUMP JUMPDEST SWAP1 POP SWAP2 SWAP1 POP JUMP JUMPDEST PUSH1 0x0 PUSH1 0x60 DUP3 ADD SWAP1 POP DUP2 DUP2 SUB PUSH1 0x0 DUP4 ADD MSTORE PUSH2 0x50B4 DUP2 PUSH2 0x4B9E JUMP JUMPDEST SWAP1 POP DUP2 DUP2 SUB PUSH1 0x20 DUP4 ADD MSTORE PUSH2 0x50C7 DUP2 PUSH2 0x4BEA JUMP JUMPDEST SWAP1 POP PUSH2 0x50D6 PUSH1 0x40 DUP4 ADD DUP5 PUSH2 0x3EF1 JUMP JUMPDEST SWAP3 SWAP2 POP POP JUMP JUMPDEST PUSH1 0x0 PUSH1 0x60 DUP3 ADD SWAP1 POP DUP2 DUP2 SUB PUSH1 0x0 DUP4 ADD MSTORE PUSH2 0x50F5 DUP2 PUSH2 0x4D71 JUMP JUMPDEST SWAP1 POP DUP2 DUP2 SUB PUSH1 0x20 DUP4 ADD MSTORE PUSH2 0x5108 DUP2 PUSH2 0x4DBD JUMP JUMPDEST SWAP1 POP PUSH2 0x5117 PUSH1 0x40 DUP4 ADD DUP5 PUSH2 0x3EF1 JUMP JUMPDEST SWAP3 SWAP2 POP POP JUMP JUMPDEST PUSH1 0x0 PUSH1 0x60 DUP3 ADD SWAP1 POP DUP2 DUP2 SUB PUSH1 0x0 DUP4 ADD MSTORE PUSH2 0x5136 DUP2 PUSH2 0x4F63 JUMP JUMPDEST SWAP1 POP DUP2 DUP2 SUB PUSH1 0x20 DUP4 ADD MSTORE PUSH2 0x5149 DUP2 PUSH2 0x4FAF JUMP JUMPDEST SWAP1 POP PUSH2 0x5158 PUSH1 0x40 DUP4 ADD DUP5 PUSH2 0x3EF1 JUMP JUMPDEST SWAP3 SWAP2 POP POP JUMP JUMPDEST PUSH1 0x0 PUSH1 0x40 DUP3 ADD SWAP1 POP PUSH2 0x5173 PUSH1 0x0 DUP4 ADD DUP6 PUSH2 0x3F1B JUMP JUMPDEST PUSH2 0x5180 PUSH1 0x20 DUP4 ADD DUP5 PUSH2 0x3F1B JUMP JUMPDEST SWAP4 SWAP3 POP POP POP JUMP JUMPDEST PUSH1 0x0 PUSH2 0x5192 DUP3 PUSH2 0x3BF2 JUMP JUMPDEST SWAP2 POP PUSH32 0xFFFFFFFFFFFFFFFFFFFFFFFFFFFFFFFFFFFFFFFFFFFFFFFFFFFFFFFFFFFFFFFF DUP3 SUB PUSH2 0x51C4 JUMPI PUSH2 0x51C3 PUSH2 0x4758 JUMP JUMPDEST JUMPDEST PUSH1 0x1 DUP3 ADD SWAP1 POP SWAP2 SWAP1 POP JUMP JUMPDEST PUSH32 0x21617574686F72697A6564000000000000000000000000000000000000000000 PUSH1 0x0 DUP3 ADD MSTORE POP JUMP JUMPDEST PUSH1 0x0 PUSH2 0x5205 PUSH1 0xB DUP4 PUSH2 0x4597 JUMP JUMPDEST SWAP2 POP PUSH2 0x5210 DUP3 PUSH2 0x51CF JUMP JUMPDEST PUSH1 0x20 DUP3 ADD SWAP1 POP SWAP2 SWAP1 POP JUMP JUMPDEST PUSH1 0x0 PUSH1 0x20 DUP3 ADD SWAP1 POP DUP2 DUP2 SUB PUSH1 0x0 DUP4 ADD MSTORE PUSH2 0x5234 DUP2 PUSH2 0x51F8 JUMP JUMPDEST SWAP1 POP SWAP2 SWAP1 POP JUMP JUMPDEST PUSH32 0x216173736F636961746564000000000000000000000000000000000000000000 PUSH1 0x0 DUP3 ADD MSTORE POP JUMP JUMPDEST PUSH1 0x0 PUSH2 0x5271 PUSH1 0xB DUP4 PUSH2 0x4597 JUMP JUMPDEST SWAP2 POP PUSH2 0x527C DUP3 PUSH2 0x523B JUMP JUMPDEST PUSH1 0x20 DUP3 ADD SWAP1 POP SWAP2 SWAP1 POP JUMP JUMPDEST PUSH1 0x0 PUSH1 0x20 DUP3 ADD SWAP1 POP DUP2 DUP2 SUB PUSH1 0x0 DUP4 ADD MSTORE PUSH2 0x52A0 DUP2 PUSH2 0x5264 JUMP JUMPDEST SWAP1 POP SWAP2 SWAP1 POP JUMP JUMPDEST PUSH32 0x216F776E65720000000000000000000000000000000000000000000000000000 PUSH1 0x0 DUP3 ADD MSTORE POP JUMP JUMPDEST PUSH1 0x0 PUSH2 0x52DD PUSH1 0x6 DUP4 PUSH2 0x4597 JUMP JUMPDEST SWAP2 POP PUSH2 0x52E8 DUP3 PUSH2 0x52A7 JUMP JUMPDEST PUSH1 0x20 DUP3 ADD SWAP1 POP SWAP2 SWAP1 POP JUMP JUMPDEST PUSH1 0x0 PUSH1 0x20 DUP3 ADD SWAP1 POP DUP2 DUP2 SUB PUSH1 0x0 DUP4 ADD MSTORE PUSH2 0x530C DUP2 PUSH2 0x52D0 JUMP JUMPDEST SWAP1 POP SWAP2 SWAP1 POP JUMP JUMPDEST PUSH1 0x0 PUSH1 0x80 DUP3 ADD SWAP1 POP PUSH2 0x5328 PUSH1 0x0 DUP4 ADD DUP8 PUSH2 0x3F1B JUMP JUMPDEST PUSH2 0x5335 PUSH1 0x20 DUP4 ADD DUP7 PUSH2 0x3F1B JUMP JUMPDEST PUSH2 0x5342 PUSH1 0x40 DUP4 ADD DUP6 PUSH2 0x3F1B JUMP JUMPDEST PUSH2 0x534F PUSH1 0x60 DUP4 ADD DUP5 PUSH2 0x3C9F JUMP JUMPDEST SWAP6 SWAP5 POP POP POP POP POP JUMP JUMPDEST PUSH32 0x4E487B7100000000000000000000000000000000000000000000000000000000 PUSH1 0x0 MSTORE PUSH1 0x31 PUSH1 0x4 MSTORE PUSH1 0x24 PUSH1 0x0 REVERT JUMPDEST PUSH32 0x546F6B656E202165786973740000000000000000000000000000000000000000 PUSH1 0x0 DUP3 ADD MSTORE POP JUMP JUMPDEST PUSH1 0x0 PUSH2 0x53BD PUSH1 0xC DUP4 PUSH2 0x4597 JUMP JUMPDEST SWAP2 POP PUSH2 0x53C8 DUP3 PUSH2 0x5387 JUMP JUMPDEST PUSH1 0x20 DUP3 ADD SWAP1 POP SWAP2 SWAP1 POP JUMP JUMPDEST PUSH1 0x0 PUSH1 0x20 DUP3 ADD SWAP1 POP DUP2 DUP2 SUB PUSH1 0x0 DUP4 ADD MSTORE PUSH2 0x53EC DUP2 PUSH2 0x53B0 JUMP JUMPDEST SWAP1 POP SWAP2 SWAP1 POP JUMP JUMPDEST PUSH1 0x0 DUP2 MLOAD SWAP1 POP SWAP2 SWAP1 POP JUMP JUMPDEST PUSH1 0x0 DUP3 DUP3 MSTORE PUSH1 0x20 DUP3 ADD SWAP1 POP SWAP3 SWAP2 POP POP JUMP JUMPDEST PUSH1 0x0 DUP2 SWAP1 POP PUSH1 0x20 DUP3 ADD SWAP1 POP SWAP2 SWAP1 POP JUMP JUMPDEST PUSH1 0x0 PUSH2 0x542B DUP4 DUP4 PUSH2 0x3E59 JUMP JUMPDEST SWAP1 POP SWAP3 SWAP2 POP POP JUMP JUMPDEST PUSH1 0x0 PUSH1 0x20 DUP3 ADD SWAP1 POP SWAP2 SWAP1 POP JUMP JUMPDEST PUSH1 0x0 PUSH2 0x544B DUP3 PUSH2 0x53F3 JUMP JUMPDEST PUSH2 0x5455 DUP2 DUP6 PUSH2 0x53FE JUMP JUMPDEST SWAP4 POP DUP4 PUSH1 0x20 DUP3 MUL DUP6 ADD PUSH2 0x5467 DUP6 PUSH2 0x540F JUMP JUMPDEST DUP1 PUSH1 0x0 JUMPDEST DUP6 DUP2 LT ISZERO PUSH2 0x54A3 JUMPI DUP5 DUP5 SUB DUP10 MSTORE DUP2 MLOAD PUSH2 0x5484 DUP6 DUP3 PUSH2 0x541F JUMP JUMPDEST SWAP5 POP PUSH2 0x548F DUP4 PUSH2 0x5433 JUMP JUMPDEST SWAP3 POP PUSH1 0x20 DUP11 ADD SWAP10 POP POP PUSH1 0x1 DUP2 ADD SWAP1 POP PUSH2 0x546B JUMP JUMPDEST POP DUP3 SWAP8 POP DUP8 SWAP6 POP POP POP POP POP POP SWAP3 SWAP2 POP POP JUMP JUMPDEST PUSH1 0x0 PUSH1 0x60 DUP3 ADD SWAP1 POP PUSH2 0x54CA PUSH1 0x0 DUP4 ADD DUP7 PUSH2 0x3F1B JUMP JUMPDEST PUSH2 0x54D7 PUSH1 0x20 DUP4 ADD DUP6 PUSH2 0x4680 JUMP JUMPDEST DUP2 DUP2 SUB PUSH1 0x40 DUP4 ADD MSTORE PUSH2 0x54E9 DUP2 DUP5 PUSH2 0x5440 JUMP JUMPDEST SWAP1 POP SWAP5 SWAP4 POP POP POP POP JUMP JUMPDEST PUSH1 0x0 PUSH8 0xFFFFFFFFFFFFFFFF DUP3 GT ISZERO PUSH2 0x550E JUMPI PUSH2 0x550D PUSH2 0x406A JUMP JUMPDEST JUMPDEST PUSH1 0x20 DUP3 MUL SWAP1 POP PUSH1 0x20 DUP2 ADD SWAP1 POP SWAP2 SWAP1 POP JUMP JUMPDEST PUSH1 0x0 DUP2 MLOAD SWAP1 POP PUSH2 0x552E DUP2 PUSH2 0x3DA9 JUMP JUMPDEST SWAP3 SWAP2 POP POP JUMP JUMPDEST PUSH1 0x0 PUSH2 0x5547 PUSH2 0x5542 DUP5 PUSH2 0x54F3 JUMP JUMPDEST PUSH2 0x40CA JUMP JUMPDEST SWAP1 POP DUP1 DUP4 DUP3 MSTORE PUSH1 0x20 DUP3 ADD SWAP1 POP PUSH1 0x20 DUP5 MUL DUP4 ADD DUP6 DUP2 GT ISZERO PUSH2 0x556A JUMPI PUSH2 0x5569 PUSH2 0x4111 JUMP JUMPDEST JUMPDEST DUP4 JUMPDEST DUP2 DUP2 LT ISZERO PUSH2 0x5593 JUMPI DUP1 PUSH2 0x557F DUP9 DUP3 PUSH2 0x551F JUMP JUMPDEST DUP5 MSTORE PUSH1 0x20 DUP5 ADD SWAP4 POP POP PUSH1 0x20 DUP2 ADD SWAP1 POP PUSH2 0x556C JUMP JUMPDEST POP POP POP SWAP4 SWAP3 POP POP POP JUMP JUMPDEST PUSH1 0x0 DUP3 PUSH1 0x1F DUP4 ADD SLT PUSH2 0x55B2 JUMPI PUSH2 0x55B1 PUSH2 0x4065 JUMP JUMPDEST JUMPDEST DUP2 MLOAD PUSH2 0x55C2 DUP5 DUP3 PUSH1 0x20 DUP7 ADD PUSH2 0x5534 JUMP JUMPDEST SWAP2 POP POP SWAP3 SWAP2 POP POP JUMP JUMPDEST PUSH1 0x0 DUP1 PUSH1 0x0 PUSH1 0x60 DUP5 DUP7 SUB SLT ISZERO PUSH2 0x55E4 JUMPI PUSH2 0x55E3 PUSH2 0x3A06 JUMP JUMPDEST JUMPDEST PUSH1 0x0 PUSH2 0x55F2 DUP7 DUP3 DUP8 ADD PUSH2 0x46EE JUMP JUMPDEST SWAP4 POP POP PUSH1 0x20 PUSH2 0x5603 DUP7 DUP3 DUP8 ADD PUSH2 0x4703 JUMP JUMPDEST SWAP3 POP POP PUSH1 0x40 DUP5 ADD MLOAD PUSH8 0xFFFFFFFFFFFFFFFF DUP2 GT ISZERO PUSH2 0x5624 JUMPI PUSH2 0x5623 PUSH2 0x3A0B JUMP JUMPDEST JUMPDEST PUSH2 0x5630 DUP7 DUP3 DUP8 ADD PUSH2 0x559D JUMP JUMPDEST SWAP2 POP POP SWAP3 POP SWAP3 POP SWAP3 JUMP JUMPDEST PUSH1 0x0 PUSH2 0x5645 DUP3 PUSH2 0x3BF2 JUMP JUMPDEST SWAP2 POP PUSH2 0x5650 DUP4 PUSH2 0x3BF2 JUMP JUMPDEST SWAP3 POP DUP3 DUP3 ADD SWAP1 POP DUP1 DUP3 GT ISZERO PUSH2 0x5668 JUMPI PUSH2 0x5667 PUSH2 0x4758 JUMP JUMPDEST JUMPDEST SWAP3 SWAP2 POP POP JUMP JUMPDEST PUSH1 0x0 PUSH1 0x20 DUP3 ADD SWAP1 POP PUSH2 0x5683 PUSH1 0x0 DUP4 ADD DUP5 PUSH2 0x4680 JUMP JUMPDEST SWAP3 SWAP2 POP POP JUMP JUMPDEST PUSH32 0x416C7265616479206173736F6369617465640000000000000000000000000000 PUSH1 0x0 DUP3 ADD MSTORE POP JUMP JUMPDEST PUSH1 0x0 PUSH2 0x56BF PUSH1 0x12 DUP4 PUSH2 0x4597 JUMP JUMPDEST SWAP2 POP PUSH2 0x56CA DUP3 PUSH2 0x5689 JUMP JUMPDEST PUSH1 0x20 DUP3 ADD SWAP1 POP SWAP2 SWAP1 POP JUMP JUMPDEST PUSH1 0x0 PUSH1 0x20 DUP3 ADD SWAP1 POP DUP2 DUP2 SUB PUSH1 0x0 DUP4 ADD MSTORE PUSH2 0x56EE DUP2 PUSH2 0x56B2 JUMP JUMPDEST SWAP1 POP SWAP2 SWAP1 POP JUMP JUMPDEST PUSH32 0x436F7265206F6E6C790000000000000000000000000000000000000000000000 PUSH1 0x0 DUP3 ADD MSTORE POP JUMP JUMPDEST PUSH1 0x0 PUSH2 0x572B PUSH1 0x9 DUP4 PUSH2 0x4597 JUMP JUMPDEST SWAP2 POP PUSH2 0x5736 DUP3 PUSH2 0x56F5 JUMP JUMPDEST PUSH1 0x20 DUP3 ADD SWAP1 POP SWAP2 SWAP1 POP JUMP JUMPDEST PUSH1 0x0 PUSH1 0x20 DUP3 ADD SWAP1 POP DUP2 DUP2 SUB PUSH1 0x0 DUP4 ADD MSTORE PUSH2 0x575A DUP2 PUSH2 0x571E JUMP JUMPDEST SWAP1 POP SWAP2 SWAP1 POP JUMP JUMPDEST PUSH1 0x0 DUP2 SWAP1 POP SWAP2 SWAP1 POP JUMP JUMPDEST PUSH1 0x0 PUSH2 0x5786 PUSH2 0x5781 PUSH2 0x577C DUP5 PUSH2 0x5761 JUMP JUMPDEST PUSH2 0x4AFF JUMP JUMPDEST PUSH2 0x3A6E JUMP JUMPDEST SWAP1 POP SWAP2 SWAP1 POP JUMP JUMPDEST PUSH2 0x5796 DUP2 PUSH2 0x576B JUMP JUMPDEST DUP3 MSTORE POP POP JUMP JUMPDEST PUSH1 0x0 PUSH1 0x60 DUP3 ADD SWAP1 POP PUSH2 0x57B1 PUSH1 0x0 DUP4 ADD DUP7 PUSH2 0x3F1B JUMP JUMPDEST PUSH2 0x57BE PUSH1 0x20 DUP4 ADD DUP6 PUSH2 0x578D JUMP JUMPDEST DUP2 DUP2 SUB PUSH1 0x40 DUP4 ADD MSTORE PUSH2 0x57D0 DUP2 DUP5 PUSH2 0x5440 JUMP JUMPDEST SWAP1 POP SWAP5 SWAP4 POP POP POP POP JUMP JUMPDEST PUSH1 0x0 DUP2 SWAP1 POP DUP2 PUSH1 0x0 MSTORE PUSH1 0x20 PUSH1 0x0 KECCAK256 SWAP1 POP SWAP2 SWAP1 POP JUMP JUMPDEST PUSH1 0x0 PUSH1 0x20 PUSH1 0x1F DUP4 ADD DIV SWAP1 POP SWAP2 SWAP1 POP JUMP JUMPDEST PUSH1 0x0 DUP3 DUP3 SHL SWAP1 POP SWAP3 SWAP2 POP POP JUMP JUMPDEST PUSH1 0x0 PUSH1 0x8 DUP4 MUL PUSH2 0x583C PUSH32 0xFFFFFFFFFFFFFFFFFFFFFFFFFFFFFFFFFFFFFFFFFFFFFFFFFFFFFFFFFFFFFFFF DUP3 PUSH2 0x57FF JUMP JUMPDEST PUSH2 0x5846 DUP7 DUP4 PUSH2 0x57FF JUMP JUMPDEST SWAP6 POP DUP1 NOT DUP5 AND SWAP4 POP DUP1 DUP7 AND DUP5 OR SWAP3 POP POP POP SWAP4 SWAP3 POP POP POP JUMP JUMPDEST PUSH1 0x0 PUSH2 0x5879 PUSH2 0x5874 PUSH2 0x586F DUP5 PUSH2 0x3BF2 JUMP JUMPDEST PUSH2 0x4AFF JUMP JUMPDEST PUSH2 0x3BF2 JUMP JUMPDEST SWAP1 POP SWAP2 SWAP1 POP JUMP JUMPDEST PUSH1 0x0 DUP2 SWAP1 POP SWAP2 SWAP1 POP JUMP JUMPDEST PUSH2 0x5893 DUP4 PUSH2 0x585E JUMP JUMPDEST PUSH2 0x58A7 PUSH2 0x589F DUP3 PUSH2 0x5880 JUMP JUMPDEST DUP5 DUP5 SLOAD PUSH2 0x580C JUMP JUMPDEST DUP3 SSTORE POP POP POP POP JUMP JUMPDEST PUSH1 0x0 SWAP1 JUMP JUMPDEST PUSH2 0x58BC PUSH2 0x58AF JUMP JUMPDEST PUSH2 0x58C7 DUP2 DUP5 DUP5 PUSH2 0x588A JUMP JUMPDEST POP POP POP JUMP JUMPDEST JUMPDEST DUP2 DUP2 LT ISZERO PUSH2 0x58EB JUMPI PUSH2 0x58E0 PUSH1 0x0 DUP3 PUSH2 0x58B4 JUMP JUMPDEST PUSH1 0x1 DUP2 ADD SWAP1 POP PUSH2 0x58CD JUMP JUMPDEST POP POP JUMP JUMPDEST PUSH1 0x1F DUP3 GT ISZERO PUSH2 0x5930 JUMPI PUSH2 0x5901 DUP2 PUSH2 0x57DA JUMP JUMPDEST PUSH2 0x590A DUP5 PUSH2 0x57EF JUMP JUMPDEST DUP2 ADD PUSH1 0x20 DUP6 LT ISZERO PUSH2 0x5919 JUMPI DUP2 SWAP1 POP JUMPDEST PUSH2 0x592D PUSH2 0x5925 DUP6 PUSH2 0x57EF JUMP JUMPDEST DUP4 ADD DUP3 PUSH2 0x58CC JUMP JUMPDEST POP POP JUMPDEST POP POP POP JUMP JUMPDEST PUSH1 0x0 DUP3 DUP3 SHR SWAP1 POP SWAP3 SWAP2 POP POP JUMP JUMPDEST PUSH1 0x0 PUSH2 0x5953 PUSH1 0x0 NOT DUP5 PUSH1 0x8 MUL PUSH2 0x5935 JUMP JUMPDEST NOT DUP1 DUP4 AND SWAP2 POP POP SWAP3 SWAP2 POP POP JUMP JUMPDEST PUSH1 0x0 PUSH2 0x596C DUP4 DUP4 PUSH2 0x5942 JUMP JUMPDEST SWAP2 POP DUP3 PUSH1 0x2 MUL DUP3 OR SWAP1 POP SWAP3 SWAP2 POP POP JUMP JUMPDEST PUSH2 0x5985 DUP3 PUSH2 0x3E02 JUMP JUMPDEST PUSH8 0xFFFFFFFFFFFFFFFF DUP2 GT ISZERO PUSH2 0x599E JUMPI PUSH2 0x599D PUSH2 0x406A JUMP JUMPDEST JUMPDEST PUSH2 0x59A8 DUP3 SLOAD PUSH2 0x4993 JUMP JUMPDEST PUSH2 0x59B3 DUP3 DUP3 DUP6 PUSH2 0x58EF JUMP JUMPDEST PUSH1 0x0 PUSH1 0x20 SWAP1 POP PUSH1 0x1F DUP4 GT PUSH1 0x1 DUP2 EQ PUSH2 0x59E6 JUMPI PUSH1 0x0 DUP5 ISZERO PUSH2 0x59D4 JUMPI DUP3 DUP8 ADD MLOAD SWAP1 POP JUMPDEST PUSH2 0x59DE DUP6 DUP3 PUSH2 0x5960 JUMP JUMPDEST DUP7 SSTORE POP PUSH2 0x5A46 JUMP JUMPDEST PUSH1 0x1F NOT DUP5 AND PUSH2 0x59F4 DUP7 PUSH2 0x57DA JUMP JUMPDEST PUSH1 0x0 JUMPDEST DUP3 DUP2 LT ISZERO PUSH2 0x5A1C JUMPI DUP5 DUP10 ADD MLOAD DUP3 SSTORE PUSH1 0x1 DUP3 ADD SWAP2 POP PUSH1 0x20 DUP6 ADD SWAP5 POP PUSH1 0x20 DUP2 ADD SWAP1 POP PUSH2 0x59F7 JUMP JUMPDEST DUP7 DUP4 LT ISZERO PUSH2 0x5A39 JUMPI DUP5 DUP10 ADD MLOAD PUSH2 0x5A35 PUSH1 0x1F DUP10 AND DUP3 PUSH2 0x5942 JUMP JUMPDEST DUP4 SSTORE POP JUMPDEST PUSH1 0x1 PUSH1 0x2 DUP9 MUL ADD DUP9 SSTORE POP POP POP JUMPDEST POP POP POP POP POP POP JUMP JUMPDEST PUSH1 0x0 PUSH1 0x40 DUP3 ADD SWAP1 POP PUSH2 0x5A63 PUSH1 0x0 DUP4 ADD DUP6 PUSH2 0x578D JUMP JUMPDEST DUP2 DUP2 SUB PUSH1 0x20 DUP4 ADD MSTORE PUSH2 0x5A75 DUP2 DUP5 PUSH2 0x3FA5 JUMP JUMPDEST SWAP1 POP SWAP4 SWAP3 POP POP POP JUMP JUMPDEST PUSH32 0x4D696E74206661696C6564000000000000000000000000000000000000000000 PUSH1 0x0 DUP3 ADD MSTORE POP JUMP JUMPDEST PUSH1 0x0 PUSH2 0x5AB4 PUSH1 0xB DUP4 PUSH2 0x4597 JUMP JUMPDEST SWAP2 POP PUSH2 0x5ABF DUP3 PUSH2 0x5A7E JUMP JUMPDEST PUSH1 0x20 DUP3 ADD SWAP1 POP SWAP2 SWAP1 POP JUMP JUMPDEST PUSH1 0x0 PUSH1 0x20 DUP3 ADD SWAP1 POP DUP2 DUP2 SUB PUSH1 0x0 DUP4 ADD MSTORE PUSH2 0x5AE3 DUP2 PUSH2 0x5AA7 JUMP JUMPDEST SWAP1 POP SWAP2 SWAP1 POP JUMP JUMPDEST PUSH32 0x4F776E61626C653A206E6577206F776E657220697320746865207A65726F2061 PUSH1 0x0 DUP3 ADD MSTORE PUSH32 0x6464726573730000000000000000000000000000000000000000000000000000 PUSH1 0x20 DUP3 ADD MSTORE POP JUMP JUMPDEST PUSH1 0x0 PUSH2 0x5B46 PUSH1 0x26 DUP4 PUSH2 0x4597 JUMP JUMPDEST SWAP2 POP PUSH2 0x5B51 DUP3 PUSH2 0x5AEA JUMP JUMPDEST PUSH1 0x40 DUP3 ADD SWAP1 POP SWAP2 SWAP1 POP JUMP JUMPDEST PUSH1 0x0 PUSH1 0x20 DUP3 ADD SWAP1 POP DUP2 DUP2 SUB PUSH1 0x0 DUP4 ADD MSTORE PUSH2 0x5B75 DUP2 PUSH2 0x5B39 JUMP JUMPDEST SWAP1 POP SWAP2 SWAP1 POP JUMP JUMPDEST PUSH32 0x4F776E61626C653A2063616C6C6572206973206E6F7420746865206F776E6572 PUSH1 0x0 DUP3 ADD MSTORE POP JUMP JUMPDEST PUSH1 0x0 PUSH2 0x5BB2 PUSH1 0x20 DUP4 PUSH2 0x4597 JUMP JUMPDEST SWAP2 POP PUSH2 0x5BBD DUP3 PUSH2 0x5B7C JUMP JUMPDEST PUSH1 0x20 DUP3 ADD SWAP1 POP SWAP2 SWAP1 POP JUMP JUMPDEST PUSH1 0x0 PUSH1 0x20 DUP3 ADD SWAP1 POP DUP2 DUP2 SUB PUSH1 0x0 DUP4 ADD MSTORE PUSH2 0x5BE1 DUP2 PUSH2 0x5BA5 JUMP JUMPDEST SWAP1 POP SWAP2 SWAP1 POP JUMP INVALID LOG2 PUSH5 0x6970667358 0x22 SLT KECCAK256 0xC2 0xB6 PUSH21 0x6F76F8E972E8F865943706B08422621D5304378575 0x4E 0xB3 RETURNDATACOPY PUSH30 0x93507C3664736F6C63430008130033000000000000000000000000000000 "
		},
		"gasEstimates": {
			"creation": {
				"codeDepositCost": "4716400",
				"executionCost": "infinite",
				"totalCost": "infinite"
			},
			"external": {
				"associateUserWithToken(address,address)": "infinite",
				"batchAssociateTokens(address,address[])": "infinite",
				"burnFungibleTokens(address,uint64)": "infinite",
				"createGameTokens()": "infinite",
				"emergencyTokenRecovery(address,address,uint64)": "infinite",
				"getAllTokens()": "infinite",
				"getNFTData(int64)": "infinite",
				"getTokenInfo(address)": "5484",
				"getUserNFTs(address)": "infinite",
				"getUserTokenBalance(address,address)": "infinite",
				"isUserAssociatedWithToken(address,address)": "infinite",
				"mintFungibleTokens(address,address,uint64)": "infinite",
				"mintNFT(address,bytes)": "infinite",
				"nftData(address,int64)": "infinite",
				"owner()": "2633",
				"renounceOwnership()": "30509",
				"rewardToken()": "2624",
				"setStarQuestCore(address)": "27077",
				"starQuestCore()": "2603",
				"starQuestNFT()": "2603",
				"starQuestToken()": "2604",
				"tokenAssociations(address,address)": "infinite",
				"tokenInfo(address)": "5262",
				"tokensCreated()": "2589",
				"transferFungibleToken(address,address,address,uint64)": "infinite",
				"transferNFT(address,address,int64)": "infinite",
				"transferOwnership(address)": "30810",
				"userBalances(address)": "2882",
				"userNFTs(address,uint256)": "6934"
			}
		},
		"methodIdentifiers": {
			"associateUserWithToken(address,address)": "bf32d092",
			"batchAssociateTokens(address,address[])": "7c7bf49b",
			"burnFungibleTokens(address,uint64)": "09f7a4e5",
			"createGameTokens()": "5fc48c96",
			"emergencyTokenRecovery(address,address,uint64)": "16cd57f1",
			"getAllTokens()": "2a5c792a",
			"getNFTData(int64)": "3c7e8987",
			"getTokenInfo(address)": "1f69565f",
			"getUserNFTs(address)": "52de4ee5",
			"getUserTokenBalance(address,address)": "73f8fd4b",
			"isUserAssociatedWithToken(address,address)": "d8568534",
			"mintFungibleTokens(address,address,uint64)": "86702e75",
			"mintNFT(address,bytes)": "e83b0227",
			"nftData(address,int64)": "8e6c0c76",
			"owner()": "8da5cb5b",
			"renounceOwnership()": "715018a6",
			"rewardToken()": "f7c618c1",
			"setStarQuestCore(address)": "177ab321",
			"starQuestCore()": "89ee3e97",
			"starQuestNFT()": "6ee2e218",
			"starQuestToken()": "501cf751",
			"tokenAssociations(address,address)": "bc8e9b9b",
			"tokenInfo(address)": "f5dab711",
			"tokensCreated()": "42750020",
			"transferFungibleToken(address,address,address,uint64)": "8899a355",
			"transferNFT(address,address,int64)": "84ec4652",
			"transferOwnership(address)": "f2fde38b",
			"userBalances(address)": "26224c64",
			"userNFTs(address,uint256)": "291c73c3"
		}
	},
	"abi": [
		{
			"inputs": [],
			"stateMutability": "nonpayable",
			"type": "constructor"
		},
		{
			"anonymous": false,
			"inputs": [
				{
					"indexed": true,
					"internalType": "address",
					"name": "token",
					"type": "address"
				},
				{
					"indexed": true,
					"internalType": "address",
					"name": "from",
					"type": "address"
				},
				{
					"indexed": true,
					"internalType": "address",
					"name": "to",
					"type": "address"
				},
				{
					"indexed": false,
					"internalType": "int64",
					"name": "serialNumber",
					"type": "int64"
				}
			],
			"name": "NFTTransferred",
			"type": "event"
		},
		{
			"anonymous": false,
			"inputs": [
				{
					"indexed": true,
					"internalType": "address",
					"name": "previousOwner",
					"type": "address"
				},
				{
					"indexed": true,
					"internalType": "address",
					"name": "newOwner",
					"type": "address"
				}
			],
			"name": "OwnershipTransferred",
			"type": "event"
		},
		{
			"anonymous": false,
			"inputs": [
				{
					"indexed": true,
					"internalType": "address",
					"name": "user",
					"type": "address"
				},
				{
					"indexed": true,
					"internalType": "address",
					"name": "token",
					"type": "address"
				}
			],
			"name": "TokenAssociated",
			"type": "event"
		},
		{
			"anonymous": false,
			"inputs": [
				{
					"indexed": true,
					"internalType": "address",
					"name": "token",
					"type": "address"
				},
				{
					"indexed": false,
					"internalType": "uint64",
					"name": "amount",
					"type": "uint64"
				},
				{
					"indexed": false,
					"internalType": "int64[]",
					"name": "serialNumbers",
					"type": "int64[]"
				}
			],
			"name": "TokenBurned",
			"type": "event"
		},
		{
			"anonymous": false,
			"inputs": [
				{
					"indexed": true,
					"internalType": "address",
					"name": "token",
					"type": "address"
				},
				{
					"indexed": false,
					"internalType": "string",
					"name": "name",
					"type": "string"
				},
				{
					"indexed": false,
					"internalType": "string",
					"name": "symbol",
					"type": "string"
				},
				{
					"indexed": false,
					"internalType": "bool",
					"name": "isFungible",
					"type": "bool"
				}
			],
			"name": "TokenCreated",
			"type": "event"
		},
		{
			"anonymous": false,
			"inputs": [
				{
					"indexed": true,
					"internalType": "address",
					"name": "token",
					"type": "address"
				},
				{
					"indexed": true,
					"internalType": "address",
					"name": "to",
					"type": "address"
				},
				{
					"indexed": false,
					"internalType": "uint64",
					"name": "amount",
					"type": "uint64"
				},
				{
					"indexed": false,
					"internalType": "int64[]",
					"name": "serialNumbers",
					"type": "int64[]"
				}
			],
			"name": "TokenMinted",
			"type": "event"
		},
		{
			"anonymous": false,
			"inputs": [
				{
					"indexed": true,
					"internalType": "address",
					"name": "token",
					"type": "address"
				},
				{
					"indexed": true,
					"internalType": "address",
					"name": "from",
					"type": "address"
				},
				{
					"indexed": true,
					"internalType": "address",
					"name": "to",
					"type": "address"
				},
				{
					"indexed": false,
					"internalType": "uint64",
					"name": "amount",
					"type": "uint64"
				}
			],
			"name": "TokenTransferred",
			"type": "event"
		},
		{
			"inputs": [
				{
					"internalType": "address",
					"name": "user",
					"type": "address"
				},
				{
					"internalType": "address",
					"name": "token",
					"type": "address"
				}
			],
			"name": "associateUserWithToken",
			"outputs": [
				{
					"internalType": "bool",
					"name": "",
					"type": "bool"
				}
			],
			"stateMutability": "nonpayable",
			"type": "function"
		},
		{
			"inputs": [
				{
					"internalType": "address",
					"name": "user",
					"type": "address"
				},
				{
					"internalType": "address[]",
					"name": "tokens",
					"type": "address[]"
				}
			],
			"name": "batchAssociateTokens",
			"outputs": [
				{
					"internalType": "bool[]",
					"name": "",
					"type": "bool[]"
				}
			],
			"stateMutability": "nonpayable",
			"type": "function"
		},
		{
			"inputs": [
				{
					"internalType": "address",
					"name": "token",
					"type": "address"
				},
				{
					"internalType": "uint64",
					"name": "amount",
					"type": "uint64"
				}
			],
			"name": "burnFungibleTokens",
			"outputs": [],
			"stateMutability": "nonpayable",
			"type": "function"
		},
		{
			"inputs": [],
			"name": "createGameTokens",
			"outputs": [],
			"stateMutability": "nonpayable",
			"type": "function"
		},
		{
			"inputs": [
				{
					"internalType": "address",
					"name": "token",
					"type": "address"
				},
				{
					"internalType": "address",
					"name": "to",
					"type": "address"
				},
				{
					"internalType": "uint64",
					"name": "amount",
					"type": "uint64"
				}
			],
			"name": "emergencyTokenRecovery",
			"outputs": [],
			"stateMutability": "nonpayable",
			"type": "function"
		},
		{
			"inputs": [],
			"name": "getAllTokens",
			"outputs": [
				{
					"internalType": "address[]",
					"name": "",
					"type": "address[]"
				}
			],
			"stateMutability": "view",
			"type": "function"
		},
		{
			"inputs": [
				{
					"internalType": "int64",
					"name": "serialNumber",
					"type": "int64"
				}
			],
			"name": "getNFTData",
			"outputs": [
				{
					"components": [
						{
							"internalType": "address",
							"name": "owner",
							"type": "address"
						},
						{
							"internalType": "bytes",
							"name": "metadata",
							"type": "bytes"
						}
					],
					"internalType": "struct StarQuestHTS.NFTData",
					"name": "",
					"type": "tuple"
				}
			],
			"stateMutability": "view",
			"type": "function"
		},
		{
			"inputs": [
				{
					"internalType": "address",
					"name": "token",
					"type": "address"
				}
			],
			"name": "getTokenInfo",
			"outputs": [
				{
					"components": [
						{
							"internalType": "uint32",
							"name": "decimals",
							"type": "uint32"
						},
						{
							"internalType": "bool",
							"name": "created",
							"type": "bool"
						}
					],
					"internalType": "struct StarQuestHTS.TokenInfo",
					"name": "",
					"type": "tuple"
				}
			],
			"stateMutability": "view",
			"type": "function"
		},
		{
			"inputs": [
				{
					"internalType": "address",
					"name": "user",
					"type": "address"
				}
			],
			"name": "getUserNFTs",
			"outputs": [
				{
					"internalType": "int64[]",
					"name": "",
					"type": "int64[]"
				}
			],
			"stateMutability": "view",
			"type": "function"
		},
		{
			"inputs": [
				{
					"internalType": "address",
					"name": "user",
					"type": "address"
				},
				{
					"internalType": "address",
					"name": "token",
					"type": "address"
				}
			],
			"name": "getUserTokenBalance",
			"outputs": [
				{
					"internalType": "uint256",
					"name": "",
					"type": "uint256"
				}
			],
			"stateMutability": "view",
			"type": "function"
		},
		{
			"inputs": [
				{
					"internalType": "address",
					"name": "user",
					"type": "address"
				},
				{
					"internalType": "address",
					"name": "token",
					"type": "address"
				}
			],
			"name": "isUserAssociatedWithToken",
			"outputs": [
				{
					"internalType": "bool",
					"name": "",
					"type": "bool"
				}
			],
			"stateMutability": "view",
			"type": "function"
		},
		{
			"inputs": [
				{
					"internalType": "address",
					"name": "token",
					"type": "address"
				},
				{
					"internalType": "address",
					"name": "to",
					"type": "address"
				},
				{
					"internalType": "uint64",
					"name": "amount",
					"type": "uint64"
				}
			],
			"name": "mintFungibleTokens",
			"outputs": [
				{
					"internalType": "bool",
					"name": "",
					"type": "bool"
				}
			],
			"stateMutability": "nonpayable",
			"type": "function"
		},
		{
			"inputs": [
				{
					"internalType": "address",
					"name": "to",
					"type": "address"
				},
				{
					"internalType": "bytes",
					"name": "metadata",
					"type": "bytes"
				}
			],
			"name": "mintNFT",
			"outputs": [
				{
					"internalType": "int64",
					"name": "",
					"type": "int64"
				}
			],
			"stateMutability": "nonpayable",
			"type": "function"
		},
		{
			"inputs": [
				{
					"internalType": "address",
					"name": "",
					"type": "address"
				},
				{
					"internalType": "int64",
					"name": "",
					"type": "int64"
				}
			],
			"name": "nftData",
			"outputs": [
				{
					"internalType": "address",
					"name": "owner",
					"type": "address"
				},
				{
					"internalType": "bytes",
					"name": "metadata",
					"type": "bytes"
				}
			],
			"stateMutability": "view",
			"type": "function"
		},
		{
			"inputs": [],
			"name": "owner",
			"outputs": [
				{
					"internalType": "address",
					"name": "",
					"type": "address"
				}
			],
			"stateMutability": "view",
			"type": "function"
		},
		{
			"inputs": [],
			"name": "renounceOwnership",
			"outputs": [],
			"stateMutability": "nonpayable",
			"type": "function"
		},
		{
			"inputs": [],
			"name": "rewardToken",
			"outputs": [
				{
					"internalType": "address",
					"name": "",
					"type": "address"
				}
			],
			"stateMutability": "view",
			"type": "function"
		},
		{
			"inputs": [
				{
					"internalType": "address",
					"name": "_starQuestCore",
					"type": "address"
				}
			],
			"name": "setStarQuestCore",
			"outputs": [],
			"stateMutability": "nonpayable",
			"type": "function"
		},
		{
			"inputs": [],
			"name": "starQuestCore",
			"outputs": [
				{
					"internalType": "address",
					"name": "",
					"type": "address"
				}
			],
			"stateMutability": "view",
			"type": "function"
		},
		{
			"inputs": [],
			"name": "starQuestNFT",
			"outputs": [
				{
					"internalType": "address",
					"name": "",
					"type": "address"
				}
			],
			"stateMutability": "view",
			"type": "function"
		},
		{
			"inputs": [],
			"name": "starQuestToken",
			"outputs": [
				{
					"internalType": "address",
					"name": "",
					"type": "address"
				}
			],
			"stateMutability": "view",
			"type": "function"
		},
		{
			"inputs": [
				{
					"internalType": "address",
					"name": "",
					"type": "address"
				},
				{
					"internalType": "address",
					"name": "",
					"type": "address"
				}
			],
			"name": "tokenAssociations",
			"outputs": [
				{
					"internalType": "bool",
					"name": "",
					"type": "bool"
				}
			],
			"stateMutability": "view",
			"type": "function"
		},
		{
			"inputs": [
				{
					"internalType": "address",
					"name": "",
					"type": "address"
				}
			],
			"name": "tokenInfo",
			"outputs": [
				{
					"internalType": "uint32",
					"name": "decimals",
					"type": "uint32"
				},
				{
					"internalType": "bool",
					"name": "created",
					"type": "bool"
				}
			],
			"stateMutability": "view",
			"type": "function"
		},
		{
			"inputs": [],
			"name": "tokensCreated",
			"outputs": [
				{
					"internalType": "bool",
					"name": "",
					"type": "bool"
				}
			],
			"stateMutability": "view",
			"type": "function"
		},
		{
			"inputs": [
				{
					"internalType": "address",
					"name": "token",
					"type": "address"
				},
				{
					"internalType": "address",
					"name": "from",
					"type": "address"
				},
				{
					"internalType": "address",
					"name": "to",
					"type": "address"
				},
				{
					"internalType": "uint64",
					"name": "amount",
					"type": "uint64"
				}
			],
			"name": "transferFungibleToken",
			"outputs": [
				{
					"internalType": "bool",
					"name": "",
					"type": "bool"
				}
			],
			"stateMutability": "nonpayable",
			"type": "function"
		},
		{
			"inputs": [
				{
					"internalType": "address",
					"name": "from",
					"type": "address"
				},
				{
					"internalType": "address",
					"name": "to",
					"type": "address"
				},
				{
					"internalType": "int64",
					"name": "serialNumber",
					"type": "int64"
				}
			],
			"name": "transferNFT",
			"outputs": [
				{
					"internalType": "bool",
					"name": "",
					"type": "bool"
				}
			],
			"stateMutability": "nonpayable",
			"type": "function"
		},
		{
			"inputs": [
				{
					"internalType": "address",
					"name": "newOwner",
					"type": "address"
				}
			],
			"name": "transferOwnership",
			"outputs": [],
			"stateMutability": "nonpayable",
			"type": "function"
		},
		{
			"inputs": [
				{
					"internalType": "address",
					"name": "",
					"type": "address"
				}
			],
			"name": "userBalances",
			"outputs": [
				{
					"internalType": "uint256",
					"name": "",
					"type": "uint256"
				}
			],
			"stateMutability": "view",
			"type": "function"
		},
		{
			"inputs": [
				{
					"internalType": "address",
					"name": "",
					"type": "address"
				},
				{
					"internalType": "uint256",
					"name": "",
					"type": "uint256"
				}
			],
			"name": "userNFTs",
			"outputs": [
				{
					"internalType": "int64",
					"name": "",
					"type": "int64"
				}
			],
			"stateMutability": "view",
			"type": "function"
		}
	]
}