{
	"data": {
		"bytecode": {
			"linkReferences": {},
			"object": "6080604052662386f26fc10000600455678ac7230489e8000060055560c860065560056007553480156200003257600080fd5b506040516200430c3803806200430c833981810160405281019062000058919062000229565b620000786200006c620000f360201b60201c565b620000fb60201b60201c565b600180819055506000600260006101000a81548160ff02191690831515021790555080600260016101000a81548173ffffffffffffffffffffffffffffffffffffffff021916908373ffffffffffffffffffffffffffffffffffffffff160217905550620000ec33620000fb60201b60201c565b506200025b565b600033905090565b60008060009054906101000a900473ffffffffffffffffffffffffffffffffffffffff169050816000806101000a81548173ffffffffffffffffffffffffffffffffffffffff021916908373ffffffffffffffffffffffffffffffffffffffff1602179055508173ffffffffffffffffffffffffffffffffffffffff168173ffffffffffffffffffffffffffffffffffffffff167f8be0079c531659141344cd1fd0a4f28419497f9722a3daafe3b4186f6b6457e060405160405180910390a35050565b600080fd5b600073ffffffffffffffffffffffffffffffffffffffff82169050919050565b6000620001f182620001c4565b9050919050565b6200020381620001e4565b81146200020f57600080fd5b50565b6000815190506200022381620001f8565b92915050565b600060208284031215620002425762000241620001bf565b5b6000620002528482850162000212565b91505092915050565b6140a1806200026b6000396000f3fe6080604052600436106101dc5760003560e01c80638da5cb5b11610102578063bbed7fdb11610095578063d1ba26f911610064578063d1ba26f9146106d6578063db2e21bc146106ff578063ec5ffac214610716578063f2fde38b14610741576101e3565b8063bbed7fdb14610614578063bece75321461063d578063cdafbbb614610668578063cf24141a146106ab576101e3565b8063a66d6dc0116100d1578063a66d6dc014610557578063b498692214610580578063b5c6b453146105a9578063b7d44644146105d4576101e3565b80638da5cb5b1461046b5780638f1d377614610496578063929a1923146104dd5780639e32aaa31461051a576101e3565b80634b0ea4a61161017a578063685c634211610149578063685c6342146103d05780636a60bd0014610414578063715018a61461043d5780638456cb5914610454576101e3565b80634b0ea4a6146103265780635c975abb146103635780635fd8c7101461038e578063619f3f61146103a5576101e3565b8063358b3855116101b6578063358b38551461026a5780633d40a54f146102a75780633e27fee2146102e45780633f4ba83a1461030f576101e3565b80630355c892146101e85780631bf6ddae146102115780633081eafe1461022d576101e3565b366101e357005b600080fd5b3480156101f457600080fd5b5061020f600480360381019061020a91906128d1565b61076a565b005b61022b60048036038101906102269190612911565b610835565b005b34801561023957600080fd5b50610254600480360381019061024f9190612911565b610d42565b6040516102619190612a8e565b60405180910390f35b34801561027657600080fd5b50610291600480360381019061028c9190612b08565b610e02565b60405161029e9190612b57565b60405180910390f35b3480156102b357600080fd5b506102ce60048036038101906102c99190612911565b610e33565b6040516102db9190612d4f565b60405180910390f35b3480156102f057600080fd5b506102f961109e565b6040516103069190612b57565b60405180910390f35b34801561031b57600080fd5b506103246110a4565b005b34801561033257600080fd5b5061034d60048036038101906103489190612d96565b6110b6565b60405161035a9190612b57565b60405180910390f35b34801561036f57600080fd5b50610378611196565b6040516103859190612dd2565b60405180910390f35b34801561039a57600080fd5b506103a36111ad565b005b3480156103b157600080fd5b506103ba611205565b6040516103c79190612dfc565b60405180910390f35b3480156103dc57600080fd5b506103f760048036038101906103f29190612911565b61122b565b60405161040b989796959493929190612e35565b60405180910390f35b34801561042057600080fd5b5061043b60048036038101906104369190612fe8565b61128d565b005b34801561044957600080fd5b50610452611936565b005b34801561046057600080fd5b5061046961194a565b005b34801561047757600080fd5b5061048061195c565b60405161048d9190612dfc565b60405180910390f35b3480156104a257600080fd5b506104bd60048036038101906104b89190612911565b611985565b6040516104d49b9a999897969594939291906130b0565b60405180910390f35b3480156104e957600080fd5b5061050460048036038101906104ff9190613169565b611b36565b6040516105119190613245565b60405180910390f35b34801561052657600080fd5b50610541600480360381019061053c9190613169565b611bcd565b60405161054e9190612dd2565b60405180910390f35b34801561056357600080fd5b5061057e60048036038101906105799190613267565b611bed565b005b34801561058c57600080fd5b506105a760048036038101906105a291906132e2565b611c59565b005b3480156105b557600080fd5b506105be611d0a565b6040516105cb9190612b57565b60405180910390f35b3480156105e057600080fd5b506105fb60048036038101906105f69190613169565b611d10565b60405161060b9493929190613322565b60405180910390f35b34801561062057600080fd5b5061063b60048036038101906106369190613367565b611d4d565b005b34801561064957600080fd5b50610652611f65565b60405161065f9190612dfc565b60405180910390f35b34801561067457600080fd5b5061068f600480360381019061068a9190613169565b611f8b565b6040516106a297969594939291906133c3565b60405180910390f35b3480156106b757600080fd5b506106c0611fcd565b6040516106cd9190612b57565b60405180910390f35b3480156106e257600080fd5b506106fd60048036038101906106f8919061345e565b611fd3565b005b34801561070b57600080fd5b5061071461216a565b005b34801561072257600080fd5b5061072b6123b8565b6040516107389190612b57565b60405180910390f35b34801561074d57600080fd5b5061076860048036038101906107639190613169565b6123be565b005b610772612441565b6000600c600084815260200190815260200160002060000154036107cb576040517f08c379a00000000000000000000000000000000000000000000000000000000081526004016107c290613525565b60405180910390fd5b80600c600084815260200190815260200160002060040160016101000a81548160ff021916908315150217905550817fce5d422e23968aa174a8455b0889f3d82d14cfd63c91191ef04bfaa6a030dcb0826040516108299190612dd2565b60405180910390a25050565b61083d6124bf565b61084561250e565b34600454811015801561085a57506005548111155b610899576040517f08c379a000000000000000000000000000000000000000000000000000000000815260040161089090613591565b60405180910390fd5b600c600083815260200190815260200160002060040160019054906101000a900460ff166108fc576040517f08c379a00000000000000000000000000000000000000000000000000000000081526004016108f3906135fd565b60405180910390fd5b600a60003373ffffffffffffffffffffffffffffffffffffffff1673ffffffffffffffffffffffffffffffffffffffff16815260200190815260200160002060020160009054906101000a900460ff161561098c576040517f08c379a000000000000000000000000000000000000000000000000000000000815260040161098390613669565b60405180910390fd5b60006109986008612558565b90506109a46008612566565b604051806080016040528034815260200142815260200160011515815260200182815250600a60003373ffffffffffffffffffffffffffffffffffffffff1673ffffffffffffffffffffffffffffffffffffffff168152602001908152602001600020600082015181600001556020820151816001015560408201518160020160006101000a81548160ff021916908315150217905550606082015181600301559050506040518061016001604052808281526020013373ffffffffffffffffffffffffffffffffffffffff16815260200134815260200160405180602001604052806000815250815260200160405180602001604052806000815250815260200160006003811115610aba57610ab9612966565b5b815260200142815260200160008152602001600015158152602001848152602001600c600086815260200190815260200160002060040160009054906101000a900460ff166003811115610b1157610b10612966565b5b815250600b60008381526020019081526020016000206000820151816000015560208201518160010160006101000a81548173ffffffffffffffffffffffffffffffffffffffff021916908373ffffffffffffffffffffffffffffffffffffffff160217905550604082015181600201556060820151816003019081610b979190613895565b506080820151816004019081610bad9190613895565b5060a08201518160050160006101000a81548160ff02191690836003811115610bd957610bd8612966565b5b021790555060c0820151816006015560e082015181600701556101008201518160080160006101000a81548160ff021916908315150217905550610120820151816009015561014082015181600a0160006101000a81548160ff02191690836003811115610c4a57610c49612966565b5b021790555090505034600c60008581526020019081526020016000206006016000828254610c789190613996565b92505081905550600f60003373ffffffffffffffffffffffffffffffffffffffff1673ffffffffffffffffffffffffffffffffffffffff1681526020019081526020016000208190806001815401808255809150506001900390600052602060002001600090919091909150553373ffffffffffffffffffffffffffffffffffffffff167f1449c6dd7851abc30abf37f57715f492010519147cc2652fbc38202c18a6ee903483604051610d2d9291906139ca565b60405180910390a25050610d3f61257c565b50565b610d4a612760565b600c600083815260200190815260200160002060405180610100016040529081600082015481526020016001820154815260200160028201548152602001600382015481526020016004820160009054906101000a900460ff166003811115610db657610db5612966565b5b6003811115610dc857610dc7612966565b5b81526020016004820160019054906101000a900460ff16151515158152602001600582015481526020016006820154815250509050919050565b600f6020528160005260406000208181548110610e1e57600080fd5b90600052602060002001600091509150505481565b610e3b6127b9565b600b600083815260200190815260200160002060405180610160016040529081600082015481526020016001820160009054906101000a900473ffffffffffffffffffffffffffffffffffffffff1673ffffffffffffffffffffffffffffffffffffffff1673ffffffffffffffffffffffffffffffffffffffff16815260200160028201548152602001600382018054610ed4906136b8565b80601f0160208091040260200160405190810160405280929190818152602001828054610f00906136b8565b8015610f4d5780601f10610f2257610100808354040283529160200191610f4d565b820191906000526020600020905b815481529060010190602001808311610f3057829003601f168201915b50505050508152602001600482018054610f66906136b8565b80601f0160208091040260200160405190810160405280929190818152602001828054610f92906136b8565b8015610fdf5780601f10610fb457610100808354040283529160200191610fdf565b820191906000526020600020905b815481529060010190602001808311610fc257829003601f168201915b505050505081526020016005820160009054906101000a900460ff16600381111561100d5761100c612966565b5b600381111561101f5761101e612966565b5b815260200160068201548152602001600782015481526020016008820160009054906101000a900460ff1615151515815260200160098201548152602001600a820160009054906101000a900460ff16600381111561108157611080612966565b5b600381111561109357611092612966565b5b815250509050919050565b60075481565b6110ac612441565b6110b4612585565b565b60008060038111156110cb576110ca612966565b5b8260038111156110de576110dd612966565b5b036110ec5760969050611191565b60016003811115611100576110ff612966565b5b82600381111561111357611112612966565b5b036111215760c89050611191565b6002600381111561113557611134612966565b5b82600381111561114857611147612966565b5b036111575761012c9050611191565b60038081111561116a57611169612966565b5b82600381111561117d5761117c612966565b5b0361118c576101f49050611191565b609690505b919050565b6000600260009054906101000a900460ff16905090565b6111b5612441565b6111bd61195c565b73ffffffffffffffffffffffffffffffffffffffff166108fc479081150290604051600060405180830381858888f19350505050158015611202573d6000803e3d6000fd5b50565b600260019054906101000a900473ffffffffffffffffffffffffffffffffffffffff1681565b600c6020528060005260406000206000915090508060000154908060010154908060020154908060030154908060040160009054906101000a900460ff16908060040160019054906101000a900460ff16908060050154908060060154905088565b600e60003373ffffffffffffffffffffffffffffffffffffffff1673ffffffffffffffffffffffffffffffffffffffff16815260200190815260200160002060009054906101000a900460ff168061131757506112e861195c565b73ffffffffffffffffffffffffffffffffffffffff163373ffffffffffffffffffffffffffffffffffffffff16145b611356576040517f08c379a000000000000000000000000000000000000000000000000000000000815260040161134d90613a3f565b60405180910390fd5b61135e6124bf565b6000600b600085815260200190815260200160002090506000600381111561138957611388612966565b5b8160050160009054906101000a900460ff1660038111156113ad576113ac612966565b5b146113ed576040517f08c379a00000000000000000000000000000000000000000000000000000000081526004016113e490613aab565b60405180910390fd5b60008160010160009054906101000a900473ffffffffffffffffffffffffffffffffffffffff1690506000600a60008373ffffffffffffffffffffffffffffffffffffffff1673ffffffffffffffffffffffffffffffffffffffff16815260200190815260200160002090508060020160009054906101000a900460ff16801561147a5750858160030154145b6114b9576040517f08c379a00000000000000000000000000000000000000000000000000000000081526004016114b090613b17565b60405180910390fd5b848360040190816114ca9190613895565b5042836007018190555060018360080160006101000a81548160ff021916908315150217905550836114fd576002611500565b60015b8360050160006101000a81548160ff0219169083600381111561152657611525612966565b5b021790555060008160020160006101000a81548160ff0219169083151502179055506000841561172a57600061156c85600a0160009054906101000a900460ff166110b6565b905060648184600001546115809190613b37565b61158a9190613ba8565b9150600060646007548461159e9190613b37565b6115a89190613ba8565b905080836115b69190613bd9565b92508473ffffffffffffffffffffffffffffffffffffffff166108fc849081150290604051600060405180830381858888f193505050501580156115fe573d6000803e3d6000fd5b50600081111561167257600260019054906101000a900473ffffffffffffffffffffffffffffffffffffffff1673ffffffffffffffffffffffffffffffffffffffff166108fc829081150290604051600060405180830381858888f19350505050158015611670573d6000803e3d6000fd5b505b6000600d60008773ffffffffffffffffffffffffffffffffffffffff1673ffffffffffffffffffffffffffffffffffffffff1681526020019081526020016000209050838160010160008282546116c99190613996565b925050819055508060020160008154809291906116e590613c0d565b91905055508060040160008154809291906116ff90613c0d565b919050555080600501548160040154111561172257806004015481600501819055505b505050611800565b600260019054906101000a900473ffffffffffffffffffffffffffffffffffffffff1673ffffffffffffffffffffffffffffffffffffffff166108fc83600001549081150290604051600060405180830381858888f19350505050158015611796573d6000803e3d6000fd5b506000600d60008573ffffffffffffffffffffffffffffffffffffffff1673ffffffffffffffffffffffffffffffffffffffff16815260200190815260200160002090508060030160008154809291906117ef90613c0d565b919050555060008160040181905550505b600c600085600901548152602001908152602001600020600501600081548092919061182b90613c0d565b91905055508160000154600d60008573ffffffffffffffffffffffffffffffffffffffff1673ffffffffffffffffffffffffffffffffffffffff16815260200190815260200160002060000160008282546118869190613996565b9250508190555042600d60008573ffffffffffffffffffffffffffffffffffffffff1673ffffffffffffffffffffffffffffffffffffffff168152602001908152602001600020600601819055508273ffffffffffffffffffffffffffffffffffffffff16877ff531285ca704745eddab0f3ffd7e758c9d25cc5307e3c886d15ed35f880c6ee1878460405161191d929190613c55565b60405180910390a35050505061193161257c565b505050565b61193e612441565b61194860006125e8565b565b611952612441565b61195a6126ac565b565b60008060009054906101000a900473ffffffffffffffffffffffffffffffffffffffff16905090565b600b6020528060005260406000206000915090508060000154908060010160009054906101000a900473ffffffffffffffffffffffffffffffffffffffff16908060020154908060030180546119da906136b8565b80601f0160208091040260200160405190810160405280929190818152602001828054611a06906136b8565b8015611a535780601f10611a2857610100808354040283529160200191611a53565b820191906000526020600020905b815481529060010190602001808311611a3657829003601f168201915b505050505090806004018054611a68906136b8565b80601f0160208091040260200160405190810160405280929190818152602001828054611a94906136b8565b8015611ae15780601f10611ab657610100808354040283529160200191611ae1565b820191906000526020600020905b815481529060010190602001808311611ac457829003601f168201915b5050505050908060050160009054906101000a900460ff16908060060154908060070154908060080160009054906101000a900460ff169080600901549080600a0160009054906101000a900460ff1690508b565b6060600f60008373ffffffffffffffffffffffffffffffffffffffff1673ffffffffffffffffffffffffffffffffffffffff168152602001908152602001600020805480602002602001604051908101604052809291908181526020018280548015611bc157602002820191906000526020600020905b815481526020019060010190808311611bad575b50505050509050919050565b600e6020528060005260406000206000915054906101000a900460ff1681565b611bf5612441565b8460048190555083600581905550826006819055508160078190555080600260016101000a81548173ffffffffffffffffffffffffffffffffffffffff021916908373ffffffffffffffffffffffffffffffffffffffff1602179055505050505050565b611c61612441565b80600e60008473ffffffffffffffffffffffffffffffffffffffff1673ffffffffffffffffffffffffffffffffffffffff16815260200190815260200160002060006101000a81548160ff0219169083151502179055508173ffffffffffffffffffffffffffffffffffffffff167f1964273d193fb2f4735c932d08bbdb5cbaaf807bb74a86b6f4be09af78d42c9282604051611cfe9190612dd2565b60405180910390a25050565b60055481565b600a6020528060005260406000206000915090508060000154908060010154908060020160009054906101000a900460ff16908060030154905084565b600e60003373ffffffffffffffffffffffffffffffffffffffff1673ffffffffffffffffffffffffffffffffffffffff16815260200190815260200160002060009054906101000a900460ff1680611dd75750611da861195c565b73ffffffffffffffffffffffffffffffffffffffff163373ffffffffffffffffffffffffffffffffffffffff16145b611e16576040517f08c379a0000000000000000000000000000000000000000000000000000000008152600401611e0d90613a3f565b60405180910390fd5b60006003811115611e2a57611e29612966565b5b600b600084815260200190815260200160002060050160009054906101000a900460ff166003811115611e6057611e5f612966565b5b14611ea0576040517f08c379a0000000000000000000000000000000000000000000000000000000008152600401611e9790613aab565b60405180910390fd5b80600b60008481526020019081526020016000206003019081611ec39190613895565b50600b600083815260200190815260200160002060010160009054906101000a900473ffffffffffffffffffffffffffffffffffffffff1673ffffffffffffffffffffffffffffffffffffffff16827f2045572326018ac04cf292b4443d536bd6c25c4d945e0b5e707382e73829f779600b60008681526020019081526020016000206009015484604051611f59929190613c7e565b60405180910390a35050565b600360009054906101000a900473ffffffffffffffffffffffffffffffffffffffff1681565b600d6020528060005260406000206000915090508060000154908060010154908060020154908060030154908060040154908060050154908060060154905087565b60065481565b611fdb612441565b6000600c60008781526020019081526020016000206000015414612034576040517f08c379a000000000000000000000000000000000000000000000000000000000815260040161202b90613cfa565b60405180910390fd5b60405180610100016040528086815260200185815260200184815260200183815260200182600381111561206b5761206a612966565b5b8152602001600115158152602001600081526020016000815250600c60008781526020019081526020016000206000820151816000015560208201518160010155604082015181600201556060820151816003015560808201518160040160006101000a81548160ff021916908360038111156120eb576120ea612966565b5b021790555060a08201518160040160016101000a81548160ff02191690831515021790555060c0820151816005015560e08201518160060155905050847f129587d9e08ad0ce02eaf47578bf568fda838194ab25452b17963223b17435dd85858460405161215b93929190613d1a565b60405180910390a25050505050565b6121726124bf565b6000600a60003373ffffffffffffffffffffffffffffffffffffffff1673ffffffffffffffffffffffffffffffffffffffff16815260200190815260200160002090508060020160009054906101000a900460ff16612206576040517f08c379a00000000000000000000000000000000000000000000000000000000081526004016121fd90613d9d565b60405180910390fd5b6201518081600101546122199190613996565b421161225a576040517f08c379a000000000000000000000000000000000000000000000000000000000815260040161225190613e09565b60405180910390fd5b60008160000154905060008260020160006101000a81548160ff0219169083151502179055506000600381111561229457612293612966565b5b600b60008460030154815260200190815260200160002060050160009054906101000a900460ff1660038111156122ce576122cd612966565b5b03612317576002600b60008460030154815260200190815260200160002060050160006101000a81548160ff0219169083600381111561231157612310612966565b5b02179055505b3373ffffffffffffffffffffffffffffffffffffffff166108fc829081150290604051600060405180830381858888f1935050505015801561235d573d6000803e3d6000fd5b503373ffffffffffffffffffffffffffffffffffffffff167f23d6711a1d031134a36921253c75aa59e967d38e369ac625992824315e204f20826040516123a49190612b57565b60405180910390a250506123b661257c565b565b60045481565b6123c6612441565b600073ffffffffffffffffffffffffffffffffffffffff168173ffffffffffffffffffffffffffffffffffffffff1603612435576040517f08c379a000000000000000000000000000000000000000000000000000000000815260040161242c90613e9b565b60405180910390fd5b61243e816125e8565b50565b61244961270f565b73ffffffffffffffffffffffffffffffffffffffff1661246761195c565b73ffffffffffffffffffffffffffffffffffffffff16146124bd576040517f08c379a00000000000000000000000000000000000000000000000000000000081526004016124b490613f07565b60405180910390fd5b565b600260015403612504576040517f08c379a00000000000000000000000000000000000000000000000000000000081526004016124fb90613f73565b60405180910390fd5b6002600181905550565b612516611196565b15612556576040517f08c379a000000000000000000000000000000000000000000000000000000000815260040161254d90613fdf565b60405180910390fd5b565b600081600001549050919050565b6001816000016000828254019250508190555050565b60018081905550565b61258d612717565b6000600260006101000a81548160ff0219169083151502179055507f5db9ee0a495bf2e6ff9c91a7834c1ba4fdd244a5e8aa4e537bd38aeae4b073aa6125d161270f565b6040516125de9190612dfc565b60405180910390a1565b60008060009054906101000a900473ffffffffffffffffffffffffffffffffffffffff169050816000806101000a81548173ffffffffffffffffffffffffffffffffffffffff021916908373ffffffffffffffffffffffffffffffffffffffff1602179055508173ffffffffffffffffffffffffffffffffffffffff168173ffffffffffffffffffffffffffffffffffffffff167f8be0079c531659141344cd1fd0a4f28419497f9722a3daafe3b4186f6b6457e060405160405180910390a35050565b6126b461250e565b6001600260006101000a81548160ff0219169083151502179055507f62e78cea01bee320cd4e420270b5ea74000d11b0c9f74754ebdbfc544b05a2586126f861270f565b6040516127059190612dfc565b60405180910390a1565b600033905090565b61271f611196565b61275e576040517f08c379a00000000000000000000000000000000000000000000000000000000081526004016127559061404b565b60405180910390fd5b565b604051806101000160405280600081526020016000815260200160008152602001600081526020016000600381111561279c5761279b612966565b5b815260200160001515815260200160008152602001600081525090565b60405180610160016040528060008152602001600073ffffffffffffffffffffffffffffffffffffffff1681526020016000815260200160608152602001606081526020016000600381111561281257612811612966565b5b81526020016000815260200160008152602001600015158152602001600081526020016000600381111561284957612848612966565b5b81525090565b6000604051905090565b600080fd5b600080fd5b6000819050919050565b61287681612863565b811461288157600080fd5b50565b6000813590506128938161286d565b92915050565b60008115159050919050565b6128ae81612899565b81146128b957600080fd5b50565b6000813590506128cb816128a5565b92915050565b600080604083850312156128e8576128e7612859565b5b60006128f685828601612884565b9250506020612907858286016128bc565b9150509250929050565b60006020828403121561292757612926612859565b5b600061293584828501612884565b91505092915050565b61294781612863565b82525050565b6000819050919050565b6129608161294d565b82525050565b7f4e487b7100000000000000000000000000000000000000000000000000000000600052602160045260246000fd5b600481106129a6576129a5612966565b5b50565b60008190506129b782612995565b919050565b60006129c7826129a9565b9050919050565b6129d7816129bc565b82525050565b6129e681612899565b82525050565b61010082016000820151612a03600085018261293e565b506020820151612a166020850182612957565b506040820151612a296040850182612957565b506060820151612a3c606085018261293e565b506080820151612a4f60808501826129ce565b5060a0820151612a6260a08501826129dd565b5060c0820151612a7560c085018261293e565b5060e0820151612a8860e085018261293e565b50505050565b600061010082019050612aa460008301846129ec565b92915050565b600073ffffffffffffffffffffffffffffffffffffffff82169050919050565b6000612ad582612aaa565b9050919050565b612ae581612aca565b8114612af057600080fd5b50565b600081359050612b0281612adc565b92915050565b60008060408385031215612b1f57612b1e612859565b5b6000612b2d85828601612af3565b9250506020612b3e85828601612884565b9150509250929050565b612b5181612863565b82525050565b6000602082019050612b6c6000830184612b48565b92915050565b612b7b81612aca565b82525050565b600081519050919050565b600082825260208201905092915050565b60005b83811015612bbb578082015181840152602081019050612ba0565b60008484015250505050565b6000601f19601f8301169050919050565b6000612be382612b81565b612bed8185612b8c565b9350612bfd818560208601612b9d565b612c0681612bc7565b840191505092915050565b60048110612c2257612c21612966565b5b50565b6000819050612c3382612c11565b919050565b6000612c4382612c25565b9050919050565b612c5381612c38565b82525050565b600061016083016000830151612c72600086018261293e565b506020830151612c856020860182612b72565b506040830151612c98604086018261293e565b5060608301518482036060860152612cb08282612bd8565b91505060808301518482036080860152612cca8282612bd8565b91505060a0830151612cdf60a0860182612c4a565b5060c0830151612cf260c086018261293e565b5060e0830151612d0560e086018261293e565b50610100830151612d1a6101008601826129dd565b50610120830151612d2f61012086018261293e565b50610140830151612d446101408601826129ce565b508091505092915050565b60006020820190508181036000830152612d698184612c59565b905092915050565b60048110612d7e57600080fd5b50565b600081359050612d9081612d71565b92915050565b600060208284031215612dac57612dab612859565b5b6000612dba84828501612d81565b91505092915050565b612dcc81612899565b82525050565b6000602082019050612de76000830184612dc3565b92915050565b612df681612aca565b82525050565b6000602082019050612e116000830184612ded565b92915050565b612e208161294d565b82525050565b612e2f816129bc565b82525050565b600061010082019050612e4b600083018b612b48565b612e58602083018a612e17565b612e656040830189612e17565b612e726060830188612b48565b612e7f6080830187612e26565b612e8c60a0830186612dc3565b612e9960c0830185612b48565b612ea660e0830184612b48565b9998505050505050505050565b600080fd5b600080fd5b7f4e487b7100000000000000000000000000000000000000000000000000000000600052604160045260246000fd5b612ef582612bc7565b810181811067ffffffffffffffff82111715612f1457612f13612ebd565b5b80604052505050565b6000612f2761284f565b9050612f338282612eec565b919050565b600067ffffffffffffffff821115612f5357612f52612ebd565b5b612f5c82612bc7565b9050602081019050919050565b82818337600083830152505050565b6000612f8b612f8684612f38565b612f1d565b905082815260208101848484011115612fa757612fa6612eb8565b5b612fb2848285612f69565b509392505050565b600082601f830112612fcf57612fce612eb3565b5b8135612fdf848260208601612f78565b91505092915050565b60008060006060848603121561300157613000612859565b5b600061300f86828701612884565b935050602084013567ffffffffffffffff8111156130305761302f61285e565b5b61303c86828701612fba565b925050604061304d868287016128bc565b9150509250925092565b600082825260208201905092915050565b600061307382612b81565b61307d8185613057565b935061308d818560208601612b9d565b61309681612bc7565b840191505092915050565b6130aa81612c38565b82525050565b6000610160820190506130c6600083018e612b48565b6130d3602083018d612ded565b6130e0604083018c612b48565b81810360608301526130f2818b613068565b90508181036080830152613106818a613068565b905061311560a08301896130a1565b61312260c0830188612b48565b61312f60e0830187612b48565b61313d610100830186612dc3565b61314b610120830185612b48565b613159610140830184612e26565b9c9b505050505050505050505050565b60006020828403121561317f5761317e612859565b5b600061318d84828501612af3565b91505092915050565b600081519050919050565b600082825260208201905092915050565b6000819050602082019050919050565b60006131ce838361293e565b60208301905092915050565b6000602082019050919050565b60006131f282613196565b6131fc81856131a1565b9350613207836131b2565b8060005b8381101561323857815161321f88826131c2565b975061322a836131da565b92505060018101905061320b565b5085935050505092915050565b6000602082019050818103600083015261325f81846131e7565b905092915050565b600080600080600060a0868803121561328357613282612859565b5b600061329188828901612884565b95505060206132a288828901612884565b94505060406132b388828901612884565b93505060606132c488828901612884565b92505060806132d588828901612af3565b9150509295509295909350565b600080604083850312156132f9576132f8612859565b5b600061330785828601612af3565b9250506020613318858286016128bc565b9150509250929050565b60006080820190506133376000830187612b48565b6133446020830186612b48565b6133516040830185612dc3565b61335e6060830184612b48565b95945050505050565b6000806040838503121561337e5761337d612859565b5b600061338c85828601612884565b925050602083013567ffffffffffffffff8111156133ad576133ac61285e565b5b6133b985828601612fba565b9150509250929050565b600060e0820190506133d8600083018a612b48565b6133e56020830189612b48565b6133f26040830188612b48565b6133ff6060830187612b48565b61340c6080830186612b48565b61341960a0830185612b48565b61342660c0830184612b48565b98975050505050505050565b61343b8161294d565b811461344657600080fd5b50565b60008135905061345881613432565b92915050565b600080600080600060a0868803121561347a57613479612859565b5b600061348888828901612884565b955050602061349988828901613449565b94505060406134aa88828901613449565b93505060606134bb88828901612884565b92505060806134cc88828901612d81565b9150509295509295909350565b7f5374617220646f6573206e6f7420657869737400000000000000000000000000600082015250565b600061350f601383613057565b915061351a826134d9565b602082019050919050565b6000602082019050818103600083015261353e81613502565b9050919050565b7f496e76616c6964207374616b6520616d6f756e74000000000000000000000000600082015250565b600061357b601483613057565b915061358682613545565b602082019050919050565b600060208201905081810360008301526135aa8161356e565b9050919050565b7f53746172206e6f74206163746976650000000000000000000000000000000000600082015250565b60006135e7600f83613057565b91506135f2826135b1565b602082019050919050565b60006020820190508181036000830152613616816135da565b9050919050565b7f416c7265616479206861766520616374697665207374616b6500000000000000600082015250565b6000613653601983613057565b915061365e8261361d565b602082019050919050565b6000602082019050818103600083015261368281613646565b9050919050565b7f4e487b7100000000000000000000000000000000000000000000000000000000600052602260045260246000fd5b600060028204905060018216806136d057607f821691505b6020821081036136e3576136e2613689565b5b50919050565b60008190508160005260206000209050919050565b60006020601f8301049050919050565b600082821b905092915050565b60006008830261374b7fffffffffffffffffffffffffffffffffffffffffffffffffffffffffffffffff8261370e565b613755868361370e565b95508019841693508086168417925050509392505050565b6000819050919050565b600061379261378d61378884612863565b61376d565b612863565b9050919050565b6000819050919050565b6137ac83613777565b6137c06137b882613799565b84845461371b565b825550505050565b600090565b6137d56137c8565b6137e08184846137a3565b505050565b5b81811015613804576137f96000826137cd565b6001810190506137e6565b5050565b601f8211156138495761381a816136e9565b613823846136fe565b81016020851015613832578190505b61384661383e856136fe565b8301826137e5565b50505b505050565b600082821c905092915050565b600061386c6000198460080261384e565b1980831691505092915050565b6000613885838361385b565b9150826002028217905092915050565b61389e82612b81565b67ffffffffffffffff8111156138b7576138b6612ebd565b5b6138c182546136b8565b6138cc828285613808565b600060209050601f8311600181146138ff57600084156138ed578287015190505b6138f78582613879565b86555061395f565b601f19841661390d866136e9565b60005b8281101561393557848901518255600182019150602085019450602081019050613910565b86831015613952578489015161394e601f89168261385b565b8355505b6001600288020188555050505b505050505050565b7f4e487b7100000000000000000000000000000000000000000000000000000000600052601160045260246000fd5b60006139a182612863565b91506139ac83612863565b92508282019050808211156139c4576139c3613967565b5b92915050565b60006040820190506139df6000830185612b48565b6139ec6020830184612b48565b9392505050565b7f4e6f7420617574686f72697a6564204149000000000000000000000000000000600082015250565b6000613a29601183613057565b9150613a34826139f3565b602082019050919050565b60006020820190508181036000830152613a5881613a1c565b9050919050565b7f4368616c6c656e6765206e6f7420616374697665000000000000000000000000600082015250565b6000613a95601483613057565b9150613aa082613a5f565b602082019050919050565b60006020820190508181036000830152613ac481613a88565b9050919050565b7f496e76616c6964207374616b6500000000000000000000000000000000000000600082015250565b6000613b01600d83613057565b9150613b0c82613acb565b602082019050919050565b60006020820190508181036000830152613b3081613af4565b9050919050565b6000613b4282612863565b9150613b4d83612863565b9250828202613b5b81612863565b91508282048414831517613b7257613b71613967565b5b5092915050565b7f4e487b7100000000000000000000000000000000000000000000000000000000600052601260045260246000fd5b6000613bb382612863565b9150613bbe83612863565b925082613bce57613bcd613b79565b5b828204905092915050565b6000613be482612863565b9150613bef83612863565b9250828203905081811115613c0757613c06613967565b5b92915050565b6000613c1882612863565b91507fffffffffffffffffffffffffffffffffffffffffffffffffffffffffffffffff8203613c4a57613c49613967565b5b600182019050919050565b6000604082019050613c6a6000830185612dc3565b613c776020830184612b48565b9392505050565b6000604082019050613c936000830185612b48565b8181036020830152613ca58184613068565b90509392505050565b7f5374617220616c72656164792065786973747300000000000000000000000000600082015250565b6000613ce4601383613057565b9150613cef82613cae565b602082019050919050565b60006020820190508181036000830152613d1381613cd7565b9050919050565b6000606082019050613d2f6000830186612e17565b613d3c6020830185612e17565b613d496040830184612e26565b949350505050565b7f4e6f20616374697665207374616b650000000000000000000000000000000000600082015250565b6000613d87600f83613057565b9150613d9282613d51565b602082019050919050565b60006020820190508181036000830152613db681613d7a565b9050919050565b7f4d757374207761697420323420686f7572730000000000000000000000000000600082015250565b6000613df3601283613057565b9150613dfe82613dbd565b602082019050919050565b60006020820190508181036000830152613e2281613de6565b9050919050565b7f4f776e61626c653a206e6577206f776e657220697320746865207a65726f206160008201527f6464726573730000000000000000000000000000000000000000000000000000602082015250565b6000613e85602683613057565b9150613e9082613e29565b604082019050919050565b60006020820190508181036000830152613eb481613e78565b9050919050565b7f4f776e61626c653a2063616c6c6572206973206e6f7420746865206f776e6572600082015250565b6000613ef1602083613057565b9150613efc82613ebb565b602082019050919050565b60006020820190508181036000830152613f2081613ee4565b9050919050565b7f5265656e7472616e637947756172643a207265656e7472616e742063616c6c00600082015250565b6000613f5d601f83613057565b9150613f6882613f27565b602082019050919050565b60006020820190508181036000830152613f8c81613f50565b9050919050565b7f5061757361626c653a2070617573656400000000000000000000000000000000600082015250565b6000613fc9601083613057565b9150613fd482613f93565b602082019050919050565b60006020820190508181036000830152613ff881613fbc565b9050919050565b7f5061757361626c653a206e6f7420706175736564000000000000000000000000600082015250565b6000614035601483613057565b915061404082613fff565b602082019050919050565b6000602082019050818103600083015261406481614028565b905091905056fea2646970667358221220944086c039ed6caca28e079c1bb63ee61fd05904f55dc8dcb5a25cb3f8c5fcb264736f6c63430008130033",
			"opcodes": "PUSH1 0x80 PUSH1 0x40 MSTORE PUSH7 0x2386F26FC10000 PUSH1 0x4 SSTORE PUSH8 0x8AC7230489E80000 PUSH1 0x5 SSTORE PUSH1 0xC8 PUSH1 0x6 SSTORE PUSH1 0x5 PUSH1 0x7 SSTORE CALLVALUE DUP1 ISZERO PUSH3 0x32 JUMPI PUSH1 0x0 DUP1 REVERT JUMPDEST POP PUSH1 0x40 MLOAD PUSH3 0x430C CODESIZE SUB DUP1 PUSH3 0x430C DUP4 CODECOPY DUP2 DUP2 ADD PUSH1 0x40 MSTORE DUP2 ADD SWAP1 PUSH3 0x58 SWAP2 SWAP1 PUSH3 0x229 JUMP JUMPDEST PUSH3 0x78 PUSH3 0x6C PUSH3 0xF3 PUSH1 0x20 SHL PUSH1 0x20 SHR JUMP JUMPDEST PUSH3 0xFB PUSH1 0x20 SHL PUSH1 0x20 SHR JUMP JUMPDEST PUSH1 0x1 DUP1 DUP2 SWAP1 SSTORE POP PUSH1 0x0 PUSH1 0x2 PUSH1 0x0 PUSH2 0x100 EXP DUP2 SLOAD DUP2 PUSH1 0xFF MUL NOT AND SWAP1 DUP4 ISZERO ISZERO MUL OR SWAP1 SSTORE POP DUP1 PUSH1 0x2 PUSH1 0x1 PUSH2 0x100 EXP DUP2 SLOAD DUP2 PUSH20 0xFFFFFFFFFFFFFFFFFFFFFFFFFFFFFFFFFFFFFFFF MUL NOT AND SWAP1 DUP4 PUSH20 0xFFFFFFFFFFFFFFFFFFFFFFFFFFFFFFFFFFFFFFFF AND MUL OR SWAP1 SSTORE POP PUSH3 0xEC CALLER PUSH3 0xFB PUSH1 0x20 SHL PUSH1 0x20 SHR JUMP JUMPDEST POP PUSH3 0x25B JUMP JUMPDEST PUSH1 0x0 CALLER SWAP1 POP SWAP1 JUMP JUMPDEST PUSH1 0x0 DUP1 PUSH1 0x0 SWAP1 SLOAD SWAP1 PUSH2 0x100 EXP SWAP1 DIV PUSH20 0xFFFFFFFFFFFFFFFFFFFFFFFFFFFFFFFFFFFFFFFF AND SWAP1 POP DUP2 PUSH1 0x0 DUP1 PUSH2 0x100 EXP DUP2 SLOAD DUP2 PUSH20 0xFFFFFFFFFFFFFFFFFFFFFFFFFFFFFFFFFFFFFFFF MUL NOT AND SWAP1 DUP4 PUSH20 0xFFFFFFFFFFFFFFFFFFFFFFFFFFFFFFFFFFFFFFFF AND MUL OR SWAP1 SSTORE POP DUP2 PUSH20 0xFFFFFFFFFFFFFFFFFFFFFFFFFFFFFFFFFFFFFFFF AND DUP2 PUSH20 0xFFFFFFFFFFFFFFFFFFFFFFFFFFFFFFFFFFFFFFFF AND PUSH32 0x8BE0079C531659141344CD1FD0A4F28419497F9722A3DAAFE3B4186F6B6457E0 PUSH1 0x40 MLOAD PUSH1 0x40 MLOAD DUP1 SWAP2 SUB SWAP1 LOG3 POP POP JUMP JUMPDEST PUSH1 0x0 DUP1 REVERT JUMPDEST PUSH1 0x0 PUSH20 0xFFFFFFFFFFFFFFFFFFFFFFFFFFFFFFFFFFFFFFFF DUP3 AND SWAP1 POP SWAP2 SWAP1 POP JUMP JUMPDEST PUSH1 0x0 PUSH3 0x1F1 DUP3 PUSH3 0x1C4 JUMP JUMPDEST SWAP1 POP SWAP2 SWAP1 POP JUMP JUMPDEST PUSH3 0x203 DUP2 PUSH3 0x1E4 JUMP JUMPDEST DUP2 EQ PUSH3 0x20F JUMPI PUSH1 0x0 DUP1 REVERT JUMPDEST POP JUMP JUMPDEST PUSH1 0x0 DUP2 MLOAD SWAP1 POP PUSH3 0x223 DUP2 PUSH3 0x1F8 JUMP JUMPDEST SWAP3 SWAP2 POP POP JUMP JUMPDEST PUSH1 0x0 PUSH1 0x20 DUP3 DUP5 SUB SLT ISZERO PUSH3 0x242 JUMPI PUSH3 0x241 PUSH3 0x1BF JUMP JUMPDEST JUMPDEST PUSH1 0x0 PUSH3 0x252 DUP5 DUP3 DUP6 ADD PUSH3 0x212 JUMP JUMPDEST SWAP2 POP POP SWAP3 SWAP2 POP POP JUMP JUMPDEST PUSH2 0x40A1 DUP1 PUSH3 0x26B PUSH1 0x0 CODECOPY PUSH1 0x0 RETURN INVALID PUSH1 0x80 PUSH1 0x40 MSTORE PUSH1 0x4 CALLDATASIZE LT PUSH2 0x1DC JUMPI PUSH1 0x0 CALLDATALOAD PUSH1 0xE0 SHR DUP1 PUSH4 0x8DA5CB5B GT PUSH2 0x102 JUMPI DUP1 PUSH4 0xBBED7FDB GT PUSH2 0x95 JUMPI DUP1 PUSH4 0xD1BA26F9 GT PUSH2 0x64 JUMPI DUP1 PUSH4 0xD1BA26F9 EQ PUSH2 0x6D6 JUMPI DUP1 PUSH4 0xDB2E21BC EQ PUSH2 0x6FF JUMPI DUP1 PUSH4 0xEC5FFAC2 EQ PUSH2 0x716 JUMPI DUP1 PUSH4 0xF2FDE38B EQ PUSH2 0x741 JUMPI PUSH2 0x1E3 JUMP JUMPDEST DUP1 PUSH4 0xBBED7FDB EQ PUSH2 0x614 JUMPI DUP1 PUSH4 0xBECE7532 EQ PUSH2 0x63D JUMPI DUP1 PUSH4 0xCDAFBBB6 EQ PUSH2 0x668 JUMPI DUP1 PUSH4 0xCF24141A EQ PUSH2 0x6AB JUMPI PUSH2 0x1E3 JUMP JUMPDEST DUP1 PUSH4 0xA66D6DC0 GT PUSH2 0xD1 JUMPI DUP1 PUSH4 0xA66D6DC0 EQ PUSH2 0x557 JUMPI DUP1 PUSH4 0xB4986922 EQ PUSH2 0x580 JUMPI DUP1 PUSH4 0xB5C6B453 EQ PUSH2 0x5A9 JUMPI DUP1 PUSH4 0xB7D44644 EQ PUSH2 0x5D4 JUMPI PUSH2 0x1E3 JUMP JUMPDEST DUP1 PUSH4 0x8DA5CB5B EQ PUSH2 0x46B JUMPI DUP1 PUSH4 0x8F1D3776 EQ PUSH2 0x496 JUMPI DUP1 PUSH4 0x929A1923 EQ PUSH2 0x4DD JUMPI DUP1 PUSH4 0x9E32AAA3 EQ PUSH2 0x51A JUMPI PUSH2 0x1E3 JUMP JUMPDEST DUP1 PUSH4 0x4B0EA4A6 GT PUSH2 0x17A JUMPI DUP1 PUSH4 0x685C6342 GT PUSH2 0x149 JUMPI DUP1 PUSH4 0x685C6342 EQ PUSH2 0x3D0 JUMPI DUP1 PUSH4 0x6A60BD00 EQ PUSH2 0x414 JUMPI DUP1 PUSH4 0x715018A6 EQ PUSH2 0x43D JUMPI DUP1 PUSH4 0x8456CB59 EQ PUSH2 0x454 JUMPI PUSH2 0x1E3 JUMP JUMPDEST DUP1 PUSH4 0x4B0EA4A6 EQ PUSH2 0x326 JUMPI DUP1 PUSH4 0x5C975ABB EQ PUSH2 0x363 JUMPI DUP1 PUSH4 0x5FD8C710 EQ PUSH2 0x38E JUMPI DUP1 PUSH4 0x619F3F61 EQ PUSH2 0x3A5 JUMPI PUSH2 0x1E3 JUMP JUMPDEST DUP1 PUSH4 0x358B3855 GT PUSH2 0x1B6 JUMPI DUP1 PUSH4 0x358B3855 EQ PUSH2 0x26A JUMPI DUP1 PUSH4 0x3D40A54F EQ PUSH2 0x2A7 JUMPI DUP1 PUSH4 0x3E27FEE2 EQ PUSH2 0x2E4 JUMPI DUP1 PUSH4 0x3F4BA83A EQ PUSH2 0x30F JUMPI PUSH2 0x1E3 JUMP JUMPDEST DUP1 PUSH4 0x355C892 EQ PUSH2 0x1E8 JUMPI DUP1 PUSH4 0x1BF6DDAE EQ PUSH2 0x211 JUMPI DUP1 PUSH4 0x3081EAFE EQ PUSH2 0x22D JUMPI PUSH2 0x1E3 JUMP JUMPDEST CALLDATASIZE PUSH2 0x1E3 JUMPI STOP JUMPDEST PUSH1 0x0 DUP1 REVERT JUMPDEST CALLVALUE DUP1 ISZERO PUSH2 0x1F4 JUMPI PUSH1 0x0 DUP1 REVERT JUMPDEST POP PUSH2 0x20F PUSH1 0x4 DUP1 CALLDATASIZE SUB DUP2 ADD SWAP1 PUSH2 0x20A SWAP2 SWAP1 PUSH2 0x28D1 JUMP JUMPDEST PUSH2 0x76A JUMP JUMPDEST STOP JUMPDEST PUSH2 0x22B PUSH1 0x4 DUP1 CALLDATASIZE SUB DUP2 ADD SWAP1 PUSH2 0x226 SWAP2 SWAP1 PUSH2 0x2911 JUMP JUMPDEST PUSH2 0x835 JUMP JUMPDEST STOP JUMPDEST CALLVALUE DUP1 ISZERO PUSH2 0x239 JUMPI PUSH1 0x0 DUP1 REVERT JUMPDEST POP PUSH2 0x254 PUSH1 0x4 DUP1 CALLDATASIZE SUB DUP2 ADD SWAP1 PUSH2 0x24F SWAP2 SWAP1 PUSH2 0x2911 JUMP JUMPDEST PUSH2 0xD42 JUMP JUMPDEST PUSH1 0x40 MLOAD PUSH2 0x261 SWAP2 SWAP1 PUSH2 0x2A8E JUMP JUMPDEST PUSH1 0x40 MLOAD DUP1 SWAP2 SUB SWAP1 RETURN JUMPDEST CALLVALUE DUP1 ISZERO PUSH2 0x276 JUMPI PUSH1 0x0 DUP1 REVERT JUMPDEST POP PUSH2 0x291 PUSH1 0x4 DUP1 CALLDATASIZE SUB DUP2 ADD SWAP1 PUSH2 0x28C SWAP2 SWAP1 PUSH2 0x2B08 JUMP JUMPDEST PUSH2 0xE02 JUMP JUMPDEST PUSH1 0x40 MLOAD PUSH2 0x29E SWAP2 SWAP1 PUSH2 0x2B57 JUMP JUMPDEST PUSH1 0x40 MLOAD DUP1 SWAP2 SUB SWAP1 RETURN JUMPDEST CALLVALUE DUP1 ISZERO PUSH2 0x2B3 JUMPI PUSH1 0x0 DUP1 REVERT JUMPDEST POP PUSH2 0x2CE PUSH1 0x4 DUP1 CALLDATASIZE SUB DUP2 ADD SWAP1 PUSH2 0x2C9 SWAP2 SWAP1 PUSH2 0x2911 JUMP JUMPDEST PUSH2 0xE33 JUMP JUMPDEST PUSH1 0x40 MLOAD PUSH2 0x2DB SWAP2 SWAP1 PUSH2 0x2D4F JUMP JUMPDEST PUSH1 0x40 MLOAD DUP1 SWAP2 SUB SWAP1 RETURN JUMPDEST CALLVALUE DUP1 ISZERO PUSH2 0x2F0 JUMPI PUSH1 0x0 DUP1 REVERT JUMPDEST POP PUSH2 0x2F9 PUSH2 0x109E JUMP JUMPDEST PUSH1 0x40 MLOAD PUSH2 0x306 SWAP2 SWAP1 PUSH2 0x2B57 JUMP JUMPDEST PUSH1 0x40 MLOAD DUP1 SWAP2 SUB SWAP1 RETURN JUMPDEST CALLVALUE DUP1 ISZERO PUSH2 0x31B JUMPI PUSH1 0x0 DUP1 REVERT JUMPDEST POP PUSH2 0x324 PUSH2 0x10A4 JUMP JUMPDEST STOP JUMPDEST CALLVALUE DUP1 ISZERO PUSH2 0x332 JUMPI PUSH1 0x0 DUP1 REVERT JUMPDEST POP PUSH2 0x34D PUSH1 0x4 DUP1 CALLDATASIZE SUB DUP2 ADD SWAP1 PUSH2 0x348 SWAP2 SWAP1 PUSH2 0x2D96 JUMP JUMPDEST PUSH2 0x10B6 JUMP JUMPDEST PUSH1 0x40 MLOAD PUSH2 0x35A SWAP2 SWAP1 PUSH2 0x2B57 JUMP JUMPDEST PUSH1 0x40 MLOAD DUP1 SWAP2 SUB SWAP1 RETURN JUMPDEST CALLVALUE DUP1 ISZERO PUSH2 0x36F JUMPI PUSH1 0x0 DUP1 REVERT JUMPDEST POP PUSH2 0x378 PUSH2 0x1196 JUMP JUMPDEST PUSH1 0x40 MLOAD PUSH2 0x385 SWAP2 SWAP1 PUSH2 0x2DD2 JUMP JUMPDEST PUSH1 0x40 MLOAD DUP1 SWAP2 SUB SWAP1 RETURN JUMPDEST CALLVALUE DUP1 ISZERO PUSH2 0x39A JUMPI PUSH1 0x0 DUP1 REVERT JUMPDEST POP PUSH2 0x3A3 PUSH2 0x11AD JUMP JUMPDEST STOP JUMPDEST CALLVALUE DUP1 ISZERO PUSH2 0x3B1 JUMPI PUSH1 0x0 DUP1 REVERT JUMPDEST POP PUSH2 0x3BA PUSH2 0x1205 JUMP JUMPDEST PUSH1 0x40 MLOAD PUSH2 0x3C7 SWAP2 SWAP1 PUSH2 0x2DFC JUMP JUMPDEST PUSH1 0x40 MLOAD DUP1 SWAP2 SUB SWAP1 RETURN JUMPDEST CALLVALUE DUP1 ISZERO PUSH2 0x3DC JUMPI PUSH1 0x0 DUP1 REVERT JUMPDEST POP PUSH2 0x3F7 PUSH1 0x4 DUP1 CALLDATASIZE SUB DUP2 ADD SWAP1 PUSH2 0x3F2 SWAP2 SWAP1 PUSH2 0x2911 JUMP JUMPDEST PUSH2 0x122B JUMP JUMPDEST PUSH1 0x40 MLOAD PUSH2 0x40B SWAP9 SWAP8 SWAP7 SWAP6 SWAP5 SWAP4 SWAP3 SWAP2 SWAP1 PUSH2 0x2E35 JUMP JUMPDEST PUSH1 0x40 MLOAD DUP1 SWAP2 SUB SWAP1 RETURN JUMPDEST CALLVALUE DUP1 ISZERO PUSH2 0x420 JUMPI PUSH1 0x0 DUP1 REVERT JUMPDEST POP PUSH2 0x43B PUSH1 0x4 DUP1 CALLDATASIZE SUB DUP2 ADD SWAP1 PUSH2 0x436 SWAP2 SWAP1 PUSH2 0x2FE8 JUMP JUMPDEST PUSH2 0x128D JUMP JUMPDEST STOP JUMPDEST CALLVALUE DUP1 ISZERO PUSH2 0x449 JUMPI PUSH1 0x0 DUP1 REVERT JUMPDEST POP PUSH2 0x452 PUSH2 0x1936 JUMP JUMPDEST STOP JUMPDEST CALLVALUE DUP1 ISZERO PUSH2 0x460 JUMPI PUSH1 0x0 DUP1 REVERT JUMPDEST POP PUSH2 0x469 PUSH2 0x194A JUMP JUMPDEST STOP JUMPDEST CALLVALUE DUP1 ISZERO PUSH2 0x477 JUMPI PUSH1 0x0 DUP1 REVERT JUMPDEST POP PUSH2 0x480 PUSH2 0x195C JUMP JUMPDEST PUSH1 0x40 MLOAD PUSH2 0x48D SWAP2 SWAP1 PUSH2 0x2DFC JUMP JUMPDEST PUSH1 0x40 MLOAD DUP1 SWAP2 SUB SWAP1 RETURN JUMPDEST CALLVALUE DUP1 ISZERO PUSH2 0x4A2 JUMPI PUSH1 0x0 DUP1 REVERT JUMPDEST POP PUSH2 0x4BD PUSH1 0x4 DUP1 CALLDATASIZE SUB DUP2 ADD SWAP1 PUSH2 0x4B8 SWAP2 SWAP1 PUSH2 0x2911 JUMP JUMPDEST PUSH2 0x1985 JUMP JUMPDEST PUSH1 0x40 MLOAD PUSH2 0x4D4 SWAP12 SWAP11 SWAP10 SWAP9 SWAP8 SWAP7 SWAP6 SWAP5 SWAP4 SWAP3 SWAP2 SWAP1 PUSH2 0x30B0 JUMP JUMPDEST PUSH1 0x40 MLOAD DUP1 SWAP2 SUB SWAP1 RETURN JUMPDEST CALLVALUE DUP1 ISZERO PUSH2 0x4E9 JUMPI PUSH1 0x0 DUP1 REVERT JUMPDEST POP PUSH2 0x504 PUSH1 0x4 DUP1 CALLDATASIZE SUB DUP2 ADD SWAP1 PUSH2 0x4FF SWAP2 SWAP1 PUSH2 0x3169 JUMP JUMPDEST PUSH2 0x1B36 JUMP JUMPDEST PUSH1 0x40 MLOAD PUSH2 0x511 SWAP2 SWAP1 PUSH2 0x3245 JUMP JUMPDEST PUSH1 0x40 MLOAD DUP1 SWAP2 SUB SWAP1 RETURN JUMPDEST CALLVALUE DUP1 ISZERO PUSH2 0x526 JUMPI PUSH1 0x0 DUP1 REVERT JUMPDEST POP PUSH2 0x541 PUSH1 0x4 DUP1 CALLDATASIZE SUB DUP2 ADD SWAP1 PUSH2 0x53C SWAP2 SWAP1 PUSH2 0x3169 JUMP JUMPDEST PUSH2 0x1BCD JUMP JUMPDEST PUSH1 0x40 MLOAD PUSH2 0x54E SWAP2 SWAP1 PUSH2 0x2DD2 JUMP JUMPDEST PUSH1 0x40 MLOAD DUP1 SWAP2 SUB SWAP1 RETURN JUMPDEST CALLVALUE DUP1 ISZERO PUSH2 0x563 JUMPI PUSH1 0x0 DUP1 REVERT JUMPDEST POP PUSH2 0x57E PUSH1 0x4 DUP1 CALLDATASIZE SUB DUP2 ADD SWAP1 PUSH2 0x579 SWAP2 SWAP1 PUSH2 0x3267 JUMP JUMPDEST PUSH2 0x1BED JUMP JUMPDEST STOP JUMPDEST CALLVALUE DUP1 ISZERO PUSH2 0x58C JUMPI PUSH1 0x0 DUP1 REVERT JUMPDEST POP PUSH2 0x5A7 PUSH1 0x4 DUP1 CALLDATASIZE SUB DUP2 ADD SWAP1 PUSH2 0x5A2 SWAP2 SWAP1 PUSH2 0x32E2 JUMP JUMPDEST PUSH2 0x1C59 JUMP JUMPDEST STOP JUMPDEST CALLVALUE DUP1 ISZERO PUSH2 0x5B5 JUMPI PUSH1 0x0 DUP1 REVERT JUMPDEST POP PUSH2 0x5BE PUSH2 0x1D0A JUMP JUMPDEST PUSH1 0x40 MLOAD PUSH2 0x5CB SWAP2 SWAP1 PUSH2 0x2B57 JUMP JUMPDEST PUSH1 0x40 MLOAD DUP1 SWAP2 SUB SWAP1 RETURN JUMPDEST CALLVALUE DUP1 ISZERO PUSH2 0x5E0 JUMPI PUSH1 0x0 DUP1 REVERT JUMPDEST POP PUSH2 0x5FB PUSH1 0x4 DUP1 CALLDATASIZE SUB DUP2 ADD SWAP1 PUSH2 0x5F6 SWAP2 SWAP1 PUSH2 0x3169 JUMP JUMPDEST PUSH2 0x1D10 JUMP JUMPDEST PUSH1 0x40 MLOAD PUSH2 0x60B SWAP5 SWAP4 SWAP3 SWAP2 SWAP1 PUSH2 0x3322 JUMP JUMPDEST PUSH1 0x40 MLOAD DUP1 SWAP2 SUB SWAP1 RETURN JUMPDEST CALLVALUE DUP1 ISZERO PUSH2 0x620 JUMPI PUSH1 0x0 DUP1 REVERT JUMPDEST POP PUSH2 0x63B PUSH1 0x4 DUP1 CALLDATASIZE SUB DUP2 ADD SWAP1 PUSH2 0x636 SWAP2 SWAP1 PUSH2 0x3367 JUMP JUMPDEST PUSH2 0x1D4D JUMP JUMPDEST STOP JUMPDEST CALLVALUE DUP1 ISZERO PUSH2 0x649 JUMPI PUSH1 0x0 DUP1 REVERT JUMPDEST POP PUSH2 0x652 PUSH2 0x1F65 JUMP JUMPDEST PUSH1 0x40 MLOAD PUSH2 0x65F SWAP2 SWAP1 PUSH2 0x2DFC JUMP JUMPDEST PUSH1 0x40 MLOAD DUP1 SWAP2 SUB SWAP1 RETURN JUMPDEST CALLVALUE DUP1 ISZERO PUSH2 0x674 JUMPI PUSH1 0x0 DUP1 REVERT JUMPDEST POP PUSH2 0x68F PUSH1 0x4 DUP1 CALLDATASIZE SUB DUP2 ADD SWAP1 PUSH2 0x68A SWAP2 SWAP1 PUSH2 0x3169 JUMP JUMPDEST PUSH2 0x1F8B JUMP JUMPDEST PUSH1 0x40 MLOAD PUSH2 0x6A2 SWAP8 SWAP7 SWAP6 SWAP5 SWAP4 SWAP3 SWAP2 SWAP1 PUSH2 0x33C3 JUMP JUMPDEST PUSH1 0x40 MLOAD DUP1 SWAP2 SUB SWAP1 RETURN JUMPDEST CALLVALUE DUP1 ISZERO PUSH2 0x6B7 JUMPI PUSH1 0x0 DUP1 REVERT JUMPDEST POP PUSH2 0x6C0 PUSH2 0x1FCD JUMP JUMPDEST PUSH1 0x40 MLOAD PUSH2 0x6CD SWAP2 SWAP1 PUSH2 0x2B57 JUMP JUMPDEST PUSH1 0x40 MLOAD DUP1 SWAP2 SUB SWAP1 RETURN JUMPDEST CALLVALUE DUP1 ISZERO PUSH2 0x6E2 JUMPI PUSH1 0x0 DUP1 REVERT JUMPDEST POP PUSH2 0x6FD PUSH1 0x4 DUP1 CALLDATASIZE SUB DUP2 ADD SWAP1 PUSH2 0x6F8 SWAP2 SWAP1 PUSH2 0x345E JUMP JUMPDEST PUSH2 0x1FD3 JUMP JUMPDEST STOP JUMPDEST CALLVALUE DUP1 ISZERO PUSH2 0x70B JUMPI PUSH1 0x0 DUP1 REVERT JUMPDEST POP PUSH2 0x714 PUSH2 0x216A JUMP JUMPDEST STOP JUMPDEST CALLVALUE DUP1 ISZERO PUSH2 0x722 JUMPI PUSH1 0x0 DUP1 REVERT JUMPDEST POP PUSH2 0x72B PUSH2 0x23B8 JUMP JUMPDEST PUSH1 0x40 MLOAD PUSH2 0x738 SWAP2 SWAP1 PUSH2 0x2B57 JUMP JUMPDEST PUSH1 0x40 MLOAD DUP1 SWAP2 SUB SWAP1 RETURN JUMPDEST CALLVALUE DUP1 ISZERO PUSH2 0x74D JUMPI PUSH1 0x0 DUP1 REVERT JUMPDEST POP PUSH2 0x768 PUSH1 0x4 DUP1 CALLDATASIZE SUB DUP2 ADD SWAP1 PUSH2 0x763 SWAP2 SWAP1 PUSH2 0x3169 JUMP JUMPDEST PUSH2 0x23BE JUMP JUMPDEST STOP JUMPDEST PUSH2 0x772 PUSH2 0x2441 JUMP JUMPDEST PUSH1 0x0 PUSH1 0xC PUSH1 0x0 DUP5 DUP2 MSTORE PUSH1 0x20 ADD SWAP1 DUP2 MSTORE PUSH1 0x20 ADD PUSH1 0x0 KECCAK256 PUSH1 0x0 ADD SLOAD SUB PUSH2 0x7CB JUMPI PUSH1 0x40 MLOAD PUSH32 0x8C379A000000000000000000000000000000000000000000000000000000000 DUP2 MSTORE PUSH1 0x4 ADD PUSH2 0x7C2 SWAP1 PUSH2 0x3525 JUMP JUMPDEST PUSH1 0x40 MLOAD DUP1 SWAP2 SUB SWAP1 REVERT JUMPDEST DUP1 PUSH1 0xC PUSH1 0x0 DUP5 DUP2 MSTORE PUSH1 0x20 ADD SWAP1 DUP2 MSTORE PUSH1 0x20 ADD PUSH1 0x0 KECCAK256 PUSH1 0x4 ADD PUSH1 0x1 PUSH2 0x100 EXP DUP2 SLOAD DUP2 PUSH1 0xFF MUL NOT AND SWAP1 DUP4 ISZERO ISZERO MUL OR SWAP1 SSTORE POP DUP2 PUSH32 0xCE5D422E23968AA174A8455B0889F3D82D14CFD63C91191EF04BFAA6A030DCB0 DUP3 PUSH1 0x40 MLOAD PUSH2 0x829 SWAP2 SWAP1 PUSH2 0x2DD2 JUMP JUMPDEST PUSH1 0x40 MLOAD DUP1 SWAP2 SUB SWAP1 LOG2 POP POP JUMP JUMPDEST PUSH2 0x83D PUSH2 0x24BF JUMP JUMPDEST PUSH2 0x845 PUSH2 0x250E JUMP JUMPDEST CALLVALUE PUSH1 0x4 SLOAD DUP2 LT ISZERO DUP1 ISZERO PUSH2 0x85A JUMPI POP PUSH1 0x5 SLOAD DUP2 GT ISZERO JUMPDEST PUSH2 0x899 JUMPI PUSH1 0x40 MLOAD PUSH32 0x8C379A000000000000000000000000000000000000000000000000000000000 DUP2 MSTORE PUSH1 0x4 ADD PUSH2 0x890 SWAP1 PUSH2 0x3591 JUMP JUMPDEST PUSH1 0x40 MLOAD DUP1 SWAP2 SUB SWAP1 REVERT JUMPDEST PUSH1 0xC PUSH1 0x0 DUP4 DUP2 MSTORE PUSH1 0x20 ADD SWAP1 DUP2 MSTORE PUSH1 0x20 ADD PUSH1 0x0 KECCAK256 PUSH1 0x4 ADD PUSH1 0x1 SWAP1 SLOAD SWAP1 PUSH2 0x100 EXP SWAP1 DIV PUSH1 0xFF AND PUSH2 0x8FC JUMPI PUSH1 0x40 MLOAD PUSH32 0x8C379A000000000000000000000000000000000000000000000000000000000 DUP2 MSTORE PUSH1 0x4 ADD PUSH2 0x8F3 SWAP1 PUSH2 0x35FD JUMP JUMPDEST PUSH1 0x40 MLOAD DUP1 SWAP2 SUB SWAP1 REVERT JUMPDEST PUSH1 0xA PUSH1 0x0 CALLER PUSH20 0xFFFFFFFFFFFFFFFFFFFFFFFFFFFFFFFFFFFFFFFF AND PUSH20 0xFFFFFFFFFFFFFFFFFFFFFFFFFFFFFFFFFFFFFFFF AND DUP2 MSTORE PUSH1 0x20 ADD SWAP1 DUP2 MSTORE PUSH1 0x20 ADD PUSH1 0x0 KECCAK256 PUSH1 0x2 ADD PUSH1 0x0 SWAP1 SLOAD SWAP1 PUSH2 0x100 EXP SWAP1 DIV PUSH1 0xFF AND ISZERO PUSH2 0x98C JUMPI PUSH1 0x40 MLOAD PUSH32 0x8C379A000000000000000000000000000000000000000000000000000000000 DUP2 MSTORE PUSH1 0x4 ADD PUSH2 0x983 SWAP1 PUSH2 0x3669 JUMP JUMPDEST PUSH1 0x40 MLOAD DUP1 SWAP2 SUB SWAP1 REVERT JUMPDEST PUSH1 0x0 PUSH2 0x998 PUSH1 0x8 PUSH2 0x2558 JUMP JUMPDEST SWAP1 POP PUSH2 0x9A4 PUSH1 0x8 PUSH2 0x2566 JUMP JUMPDEST PUSH1 0x40 MLOAD DUP1 PUSH1 0x80 ADD PUSH1 0x40 MSTORE DUP1 CALLVALUE DUP2 MSTORE PUSH1 0x20 ADD TIMESTAMP DUP2 MSTORE PUSH1 0x20 ADD PUSH1 0x1 ISZERO ISZERO DUP2 MSTORE PUSH1 0x20 ADD DUP3 DUP2 MSTORE POP PUSH1 0xA PUSH1 0x0 CALLER PUSH20 0xFFFFFFFFFFFFFFFFFFFFFFFFFFFFFFFFFFFFFFFF AND PUSH20 0xFFFFFFFFFFFFFFFFFFFFFFFFFFFFFFFFFFFFFFFF AND DUP2 MSTORE PUSH1 0x20 ADD SWAP1 DUP2 MSTORE PUSH1 0x20 ADD PUSH1 0x0 KECCAK256 PUSH1 0x0 DUP3 ADD MLOAD DUP2 PUSH1 0x0 ADD SSTORE PUSH1 0x20 DUP3 ADD MLOAD DUP2 PUSH1 0x1 ADD SSTORE PUSH1 0x40 DUP3 ADD MLOAD DUP2 PUSH1 0x2 ADD PUSH1 0x0 PUSH2 0x100 EXP DUP2 SLOAD DUP2 PUSH1 0xFF MUL NOT AND SWAP1 DUP4 ISZERO ISZERO MUL OR SWAP1 SSTORE POP PUSH1 0x60 DUP3 ADD MLOAD DUP2 PUSH1 0x3 ADD SSTORE SWAP1 POP POP PUSH1 0x40 MLOAD DUP1 PUSH2 0x160 ADD PUSH1 0x40 MSTORE DUP1 DUP3 DUP2 MSTORE PUSH1 0x20 ADD CALLER PUSH20 0xFFFFFFFFFFFFFFFFFFFFFFFFFFFFFFFFFFFFFFFF AND DUP2 MSTORE PUSH1 0x20 ADD CALLVALUE DUP2 MSTORE PUSH1 0x20 ADD PUSH1 0x40 MLOAD DUP1 PUSH1 0x20 ADD PUSH1 0x40 MSTORE DUP1 PUSH1 0x0 DUP2 MSTORE POP DUP2 MSTORE PUSH1 0x20 ADD PUSH1 0x40 MLOAD DUP1 PUSH1 0x20 ADD PUSH1 0x40 MSTORE DUP1 PUSH1 0x0 DUP2 MSTORE POP DUP2 MSTORE PUSH1 0x20 ADD PUSH1 0x0 PUSH1 0x3 DUP2 GT ISZERO PUSH2 0xABA JUMPI PUSH2 0xAB9 PUSH2 0x2966 JUMP JUMPDEST JUMPDEST DUP2 MSTORE PUSH1 0x20 ADD TIMESTAMP DUP2 MSTORE PUSH1 0x20 ADD PUSH1 0x0 DUP2 MSTORE PUSH1 0x20 ADD PUSH1 0x0 ISZERO ISZERO DUP2 MSTORE PUSH1 0x20 ADD DUP5 DUP2 MSTORE PUSH1 0x20 ADD PUSH1 0xC PUSH1 0x0 DUP7 DUP2 MSTORE PUSH1 0x20 ADD SWAP1 DUP2 MSTORE PUSH1 0x20 ADD PUSH1 0x0 KECCAK256 PUSH1 0x4 ADD PUSH1 0x0 SWAP1 SLOAD SWAP1 PUSH2 0x100 EXP SWAP1 DIV PUSH1 0xFF AND PUSH1 0x3 DUP2 GT ISZERO PUSH2 0xB11 JUMPI PUSH2 0xB10 PUSH2 0x2966 JUMP JUMPDEST JUMPDEST DUP2 MSTORE POP PUSH1 0xB PUSH1 0x0 DUP4 DUP2 MSTORE PUSH1 0x20 ADD SWAP1 DUP2 MSTORE PUSH1 0x20 ADD PUSH1 0x0 KECCAK256 PUSH1 0x0 DUP3 ADD MLOAD DUP2 PUSH1 0x0 ADD SSTORE PUSH1 0x20 DUP3 ADD MLOAD DUP2 PUSH1 0x1 ADD PUSH1 0x0 PUSH2 0x100 EXP DUP2 SLOAD DUP2 PUSH20 0xFFFFFFFFFFFFFFFFFFFFFFFFFFFFFFFFFFFFFFFF MUL NOT AND SWAP1 DUP4 PUSH20 0xFFFFFFFFFFFFFFFFFFFFFFFFFFFFFFFFFFFFFFFF AND MUL OR SWAP1 SSTORE POP PUSH1 0x40 DUP3 ADD MLOAD DUP2 PUSH1 0x2 ADD SSTORE PUSH1 0x60 DUP3 ADD MLOAD DUP2 PUSH1 0x3 ADD SWAP1 DUP2 PUSH2 0xB97 SWAP2 SWAP1 PUSH2 0x3895 JUMP JUMPDEST POP PUSH1 0x80 DUP3 ADD MLOAD DUP2 PUSH1 0x4 ADD SWAP1 DUP2 PUSH2 0xBAD SWAP2 SWAP1 PUSH2 0x3895 JUMP JUMPDEST POP PUSH1 0xA0 DUP3 ADD MLOAD DUP2 PUSH1 0x5 ADD PUSH1 0x0 PUSH2 0x100 EXP DUP2 SLOAD DUP2 PUSH1 0xFF MUL NOT AND SWAP1 DUP4 PUSH1 0x3 DUP2 GT ISZERO PUSH2 0xBD9 JUMPI PUSH2 0xBD8 PUSH2 0x2966 JUMP JUMPDEST JUMPDEST MUL OR SWAP1 SSTORE POP PUSH1 0xC0 DUP3 ADD MLOAD DUP2 PUSH1 0x6 ADD SSTORE PUSH1 0xE0 DUP3 ADD MLOAD DUP2 PUSH1 0x7 ADD SSTORE PUSH2 0x100 DUP3 ADD MLOAD DUP2 PUSH1 0x8 ADD PUSH1 0x0 PUSH2 0x100 EXP DUP2 SLOAD DUP2 PUSH1 0xFF MUL NOT AND SWAP1 DUP4 ISZERO ISZERO MUL OR SWAP1 SSTORE POP PUSH2 0x120 DUP3 ADD MLOAD DUP2 PUSH1 0x9 ADD SSTORE PUSH2 0x140 DUP3 ADD MLOAD DUP2 PUSH1 0xA ADD PUSH1 0x0 PUSH2 0x100 EXP DUP2 SLOAD DUP2 PUSH1 0xFF MUL NOT AND SWAP1 DUP4 PUSH1 0x3 DUP2 GT ISZERO PUSH2 0xC4A JUMPI PUSH2 0xC49 PUSH2 0x2966 JUMP JUMPDEST JUMPDEST MUL OR SWAP1 SSTORE POP SWAP1 POP POP CALLVALUE PUSH1 0xC PUSH1 0x0 DUP6 DUP2 MSTORE PUSH1 0x20 ADD SWAP1 DUP2 MSTORE PUSH1 0x20 ADD PUSH1 0x0 KECCAK256 PUSH1 0x6 ADD PUSH1 0x0 DUP3 DUP3 SLOAD PUSH2 0xC78 SWAP2 SWAP1 PUSH2 0x3996 JUMP JUMPDEST SWAP3 POP POP DUP2 SWAP1 SSTORE POP PUSH1 0xF PUSH1 0x0 CALLER PUSH20 0xFFFFFFFFFFFFFFFFFFFFFFFFFFFFFFFFFFFFFFFF AND PUSH20 0xFFFFFFFFFFFFFFFFFFFFFFFFFFFFFFFFFFFFFFFF AND DUP2 MSTORE PUSH1 0x20 ADD SWAP1 DUP2 MSTORE PUSH1 0x20 ADD PUSH1 0x0 KECCAK256 DUP2 SWAP1 DUP1 PUSH1 0x1 DUP2 SLOAD ADD DUP1 DUP3 SSTORE DUP1 SWAP2 POP POP PUSH1 0x1 SWAP1 SUB SWAP1 PUSH1 0x0 MSTORE PUSH1 0x20 PUSH1 0x0 KECCAK256 ADD PUSH1 0x0 SWAP1 SWAP2 SWAP1 SWAP2 SWAP1 SWAP2 POP SSTORE CALLER PUSH20 0xFFFFFFFFFFFFFFFFFFFFFFFFFFFFFFFFFFFFFFFF AND PUSH32 0x1449C6DD7851ABC30ABF37F57715F492010519147CC2652FBC38202C18A6EE90 CALLVALUE DUP4 PUSH1 0x40 MLOAD PUSH2 0xD2D SWAP3 SWAP2 SWAP1 PUSH2 0x39CA JUMP JUMPDEST PUSH1 0x40 MLOAD DUP1 SWAP2 SUB SWAP1 LOG2 POP POP PUSH2 0xD3F PUSH2 0x257C JUMP JUMPDEST POP JUMP JUMPDEST PUSH2 0xD4A PUSH2 0x2760 JUMP JUMPDEST PUSH1 0xC PUSH1 0x0 DUP4 DUP2 MSTORE PUSH1 0x20 ADD SWAP1 DUP2 MSTORE PUSH1 0x20 ADD PUSH1 0x0 KECCAK256 PUSH1 0x40 MLOAD DUP1 PUSH2 0x100 ADD PUSH1 0x40 MSTORE SWAP1 DUP2 PUSH1 0x0 DUP3 ADD SLOAD DUP2 MSTORE PUSH1 0x20 ADD PUSH1 0x1 DUP3 ADD SLOAD DUP2 MSTORE PUSH1 0x20 ADD PUSH1 0x2 DUP3 ADD SLOAD DUP2 MSTORE PUSH1 0x20 ADD PUSH1 0x3 DUP3 ADD SLOAD DUP2 MSTORE PUSH1 0x20 ADD PUSH1 0x4 DUP3 ADD PUSH1 0x0 SWAP1 SLOAD SWAP1 PUSH2 0x100 EXP SWAP1 DIV PUSH1 0xFF AND PUSH1 0x3 DUP2 GT ISZERO PUSH2 0xDB6 JUMPI PUSH2 0xDB5 PUSH2 0x2966 JUMP JUMPDEST JUMPDEST PUSH1 0x3 DUP2 GT ISZERO PUSH2 0xDC8 JUMPI PUSH2 0xDC7 PUSH2 0x2966 JUMP JUMPDEST JUMPDEST DUP2 MSTORE PUSH1 0x20 ADD PUSH1 0x4 DUP3 ADD PUSH1 0x1 SWAP1 SLOAD SWAP1 PUSH2 0x100 EXP SWAP1 DIV PUSH1 0xFF AND ISZERO ISZERO ISZERO ISZERO DUP2 MSTORE PUSH1 0x20 ADD PUSH1 0x5 DUP3 ADD SLOAD DUP2 MSTORE PUSH1 0x20 ADD PUSH1 0x6 DUP3 ADD SLOAD DUP2 MSTORE POP POP SWAP1 POP SWAP2 SWAP1 POP JUMP JUMPDEST PUSH1 0xF PUSH1 0x20 MSTORE DUP2 PUSH1 0x0 MSTORE PUSH1 0x40 PUSH1 0x0 KECCAK256 DUP2 DUP2 SLOAD DUP2 LT PUSH2 0xE1E JUMPI PUSH1 0x0 DUP1 REVERT JUMPDEST SWAP1 PUSH1 0x0 MSTORE PUSH1 0x20 PUSH1 0x0 KECCAK256 ADD PUSH1 0x0 SWAP2 POP SWAP2 POP POP SLOAD DUP2 JUMP JUMPDEST PUSH2 0xE3B PUSH2 0x27B9 JUMP JUMPDEST PUSH1 0xB PUSH1 0x0 DUP4 DUP2 MSTORE PUSH1 0x20 ADD SWAP1 DUP2 MSTORE PUSH1 0x20 ADD PUSH1 0x0 KECCAK256 PUSH1 0x40 MLOAD DUP1 PUSH2 0x160 ADD PUSH1 0x40 MSTORE SWAP1 DUP2 PUSH1 0x0 DUP3 ADD SLOAD DUP2 MSTORE PUSH1 0x20 ADD PUSH1 0x1 DUP3 ADD PUSH1 0x0 SWAP1 SLOAD SWAP1 PUSH2 0x100 EXP SWAP1 DIV PUSH20 0xFFFFFFFFFFFFFFFFFFFFFFFFFFFFFFFFFFFFFFFF AND PUSH20 0xFFFFFFFFFFFFFFFFFFFFFFFFFFFFFFFFFFFFFFFF AND PUSH20 0xFFFFFFFFFFFFFFFFFFFFFFFFFFFFFFFFFFFFFFFF AND DUP2 MSTORE PUSH1 0x20 ADD PUSH1 0x2 DUP3 ADD SLOAD DUP2 MSTORE PUSH1 0x20 ADD PUSH1 0x3 DUP3 ADD DUP1 SLOAD PUSH2 0xED4 SWAP1 PUSH2 0x36B8 JUMP JUMPDEST DUP1 PUSH1 0x1F ADD PUSH1 0x20 DUP1 SWAP2 DIV MUL PUSH1 0x20 ADD PUSH1 0x40 MLOAD SWAP1 DUP2 ADD PUSH1 0x40 MSTORE DUP1 SWAP3 SWAP2 SWAP1 DUP2 DUP2 MSTORE PUSH1 0x20 ADD DUP3 DUP1 SLOAD PUSH2 0xF00 SWAP1 PUSH2 0x36B8 JUMP JUMPDEST DUP1 ISZERO PUSH2 0xF4D JUMPI DUP1 PUSH1 0x1F LT PUSH2 0xF22 JUMPI PUSH2 0x100 DUP1 DUP4 SLOAD DIV MUL DUP4 MSTORE SWAP2 PUSH1 0x20 ADD SWAP2 PUSH2 0xF4D JUMP JUMPDEST DUP3 ADD SWAP2 SWAP1 PUSH1 0x0 MSTORE PUSH1 0x20 PUSH1 0x0 KECCAK256 SWAP1 JUMPDEST DUP2 SLOAD DUP2 MSTORE SWAP1 PUSH1 0x1 ADD SWAP1 PUSH1 0x20 ADD DUP1 DUP4 GT PUSH2 0xF30 JUMPI DUP3 SWAP1 SUB PUSH1 0x1F AND DUP3 ADD SWAP2 JUMPDEST POP POP POP POP POP DUP2 MSTORE PUSH1 0x20 ADD PUSH1 0x4 DUP3 ADD DUP1 SLOAD PUSH2 0xF66 SWAP1 PUSH2 0x36B8 JUMP JUMPDEST DUP1 PUSH1 0x1F ADD PUSH1 0x20 DUP1 SWAP2 DIV MUL PUSH1 0x20 ADD PUSH1 0x40 MLOAD SWAP1 DUP2 ADD PUSH1 0x40 MSTORE DUP1 SWAP3 SWAP2 SWAP1 DUP2 DUP2 MSTORE PUSH1 0x20 ADD DUP3 DUP1 SLOAD PUSH2 0xF92 SWAP1 PUSH2 0x36B8 JUMP JUMPDEST DUP1 ISZERO PUSH2 0xFDF JUMPI DUP1 PUSH1 0x1F LT PUSH2 0xFB4 JUMPI PUSH2 0x100 DUP1 DUP4 SLOAD DIV MUL DUP4 MSTORE SWAP2 PUSH1 0x20 ADD SWAP2 PUSH2 0xFDF JUMP JUMPDEST DUP3 ADD SWAP2 SWAP1 PUSH1 0x0 MSTORE PUSH1 0x20 PUSH1 0x0 KECCAK256 SWAP1 JUMPDEST DUP2 SLOAD DUP2 MSTORE SWAP1 PUSH1 0x1 ADD SWAP1 PUSH1 0x20 ADD DUP1 DUP4 GT PUSH2 0xFC2 JUMPI DUP3 SWAP1 SUB PUSH1 0x1F AND DUP3 ADD SWAP2 JUMPDEST POP POP POP POP POP DUP2 MSTORE PUSH1 0x20 ADD PUSH1 0x5 DUP3 ADD PUSH1 0x0 SWAP1 SLOAD SWAP1 PUSH2 0x100 EXP SWAP1 DIV PUSH1 0xFF AND PUSH1 0x3 DUP2 GT ISZERO PUSH2 0x100D JUMPI PUSH2 0x100C PUSH2 0x2966 JUMP JUMPDEST JUMPDEST PUSH1 0x3 DUP2 GT ISZERO PUSH2 0x101F JUMPI PUSH2 0x101E PUSH2 0x2966 JUMP JUMPDEST JUMPDEST DUP2 MSTORE PUSH1 0x20 ADD PUSH1 0x6 DUP3 ADD SLOAD DUP2 MSTORE PUSH1 0x20 ADD PUSH1 0x7 DUP3 ADD SLOAD DUP2 MSTORE PUSH1 0x20 ADD PUSH1 0x8 DUP3 ADD PUSH1 0x0 SWAP1 SLOAD SWAP1 PUSH2 0x100 EXP SWAP1 DIV PUSH1 0xFF AND ISZERO ISZERO ISZERO ISZERO DUP2 MSTORE PUSH1 0x20 ADD PUSH1 0x9 DUP3 ADD SLOAD DUP2 MSTORE PUSH1 0x20 ADD PUSH1 0xA DUP3 ADD PUSH1 0x0 SWAP1 SLOAD SWAP1 PUSH2 0x100 EXP SWAP1 DIV PUSH1 0xFF AND PUSH1 0x3 DUP2 GT ISZERO PUSH2 0x1081 JUMPI PUSH2 0x1080 PUSH2 0x2966 JUMP JUMPDEST JUMPDEST PUSH1 0x3 DUP2 GT ISZERO PUSH2 0x1093 JUMPI PUSH2 0x1092 PUSH2 0x2966 JUMP JUMPDEST JUMPDEST DUP2 MSTORE POP POP SWAP1 POP SWAP2 SWAP1 POP JUMP JUMPDEST PUSH1 0x7 SLOAD DUP2 JUMP JUMPDEST PUSH2 0x10AC PUSH2 0x2441 JUMP JUMPDEST PUSH2 0x10B4 PUSH2 0x2585 JUMP JUMPDEST JUMP JUMPDEST PUSH1 0x0 DUP1 PUSH1 0x3 DUP2 GT ISZERO PUSH2 0x10CB JUMPI PUSH2 0x10CA PUSH2 0x2966 JUMP JUMPDEST JUMPDEST DUP3 PUSH1 0x3 DUP2 GT ISZERO PUSH2 0x10DE JUMPI PUSH2 0x10DD PUSH2 0x2966 JUMP JUMPDEST JUMPDEST SUB PUSH2 0x10EC JUMPI PUSH1 0x96 SWAP1 POP PUSH2 0x1191 JUMP JUMPDEST PUSH1 0x1 PUSH1 0x3 DUP2 GT ISZERO PUSH2 0x1100 JUMPI PUSH2 0x10FF PUSH2 0x2966 JUMP JUMPDEST JUMPDEST DUP3 PUSH1 0x3 DUP2 GT ISZERO PUSH2 0x1113 JUMPI PUSH2 0x1112 PUSH2 0x2966 JUMP JUMPDEST JUMPDEST SUB PUSH2 0x1121 JUMPI PUSH1 0xC8 SWAP1 POP PUSH2 0x1191 JUMP JUMPDEST PUSH1 0x2 PUSH1 0x3 DUP2 GT ISZERO PUSH2 0x1135 JUMPI PUSH2 0x1134 PUSH2 0x2966 JUMP JUMPDEST JUMPDEST DUP3 PUSH1 0x3 DUP2 GT ISZERO PUSH2 0x1148 JUMPI PUSH2 0x1147 PUSH2 0x2966 JUMP JUMPDEST JUMPDEST SUB PUSH2 0x1157 JUMPI PUSH2 0x12C SWAP1 POP PUSH2 0x1191 JUMP JUMPDEST PUSH1 0x3 DUP1 DUP2 GT ISZERO PUSH2 0x116A JUMPI PUSH2 0x1169 PUSH2 0x2966 JUMP JUMPDEST JUMPDEST DUP3 PUSH1 0x3 DUP2 GT ISZERO PUSH2 0x117D JUMPI PUSH2 0x117C PUSH2 0x2966 JUMP JUMPDEST JUMPDEST SUB PUSH2 0x118C JUMPI PUSH2 0x1F4 SWAP1 POP PUSH2 0x1191 JUMP JUMPDEST PUSH1 0x96 SWAP1 POP JUMPDEST SWAP2 SWAP1 POP JUMP JUMPDEST PUSH1 0x0 PUSH1 0x2 PUSH1 0x0 SWAP1 SLOAD SWAP1 PUSH2 0x100 EXP SWAP1 DIV PUSH1 0xFF AND SWAP1 POP SWAP1 JUMP JUMPDEST PUSH2 0x11B5 PUSH2 0x2441 JUMP JUMPDEST PUSH2 0x11BD PUSH2 0x195C JUMP JUMPDEST PUSH20 0xFFFFFFFFFFFFFFFFFFFFFFFFFFFFFFFFFFFFFFFF AND PUSH2 0x8FC SELFBALANCE SWAP1 DUP2 ISZERO MUL SWAP1 PUSH1 0x40 MLOAD PUSH1 0x0 PUSH1 0x40 MLOAD DUP1 DUP4 SUB DUP2 DUP6 DUP9 DUP9 CALL SWAP4 POP POP POP POP ISZERO DUP1 ISZERO PUSH2 0x1202 JUMPI RETURNDATASIZE PUSH1 0x0 DUP1 RETURNDATACOPY RETURNDATASIZE PUSH1 0x0 REVERT JUMPDEST POP JUMP JUMPDEST PUSH1 0x2 PUSH1 0x1 SWAP1 SLOAD SWAP1 PUSH2 0x100 EXP SWAP1 DIV PUSH20 0xFFFFFFFFFFFFFFFFFFFFFFFFFFFFFFFFFFFFFFFF AND DUP2 JUMP JUMPDEST PUSH1 0xC PUSH1 0x20 MSTORE DUP1 PUSH1 0x0 MSTORE PUSH1 0x40 PUSH1 0x0 KECCAK256 PUSH1 0x0 SWAP2 POP SWAP1 POP DUP1 PUSH1 0x0 ADD SLOAD SWAP1 DUP1 PUSH1 0x1 ADD SLOAD SWAP1 DUP1 PUSH1 0x2 ADD SLOAD SWAP1 DUP1 PUSH1 0x3 ADD SLOAD SWAP1 DUP1 PUSH1 0x4 ADD PUSH1 0x0 SWAP1 SLOAD SWAP1 PUSH2 0x100 EXP SWAP1 DIV PUSH1 0xFF AND SWAP1 DUP1 PUSH1 0x4 ADD PUSH1 0x1 SWAP1 SLOAD SWAP1 PUSH2 0x100 EXP SWAP1 DIV PUSH1 0xFF AND SWAP1 DUP1 PUSH1 0x5 ADD SLOAD SWAP1 DUP1 PUSH1 0x6 ADD SLOAD SWAP1 POP DUP9 JUMP JUMPDEST PUSH1 0xE PUSH1 0x0 CALLER PUSH20 0xFFFFFFFFFFFFFFFFFFFFFFFFFFFFFFFFFFFFFFFF AND PUSH20 0xFFFFFFFFFFFFFFFFFFFFFFFFFFFFFFFFFFFFFFFF AND DUP2 MSTORE PUSH1 0x20 ADD SWAP1 DUP2 MSTORE PUSH1 0x20 ADD PUSH1 0x0 KECCAK256 PUSH1 0x0 SWAP1 SLOAD SWAP1 PUSH2 0x100 EXP SWAP1 DIV PUSH1 0xFF AND DUP1 PUSH2 0x1317 JUMPI POP PUSH2 0x12E8 PUSH2 0x195C JUMP JUMPDEST PUSH20 0xFFFFFFFFFFFFFFFFFFFFFFFFFFFFFFFFFFFFFFFF AND CALLER PUSH20 0xFFFFFFFFFFFFFFFFFFFFFFFFFFFFFFFFFFFFFFFF AND EQ JUMPDEST PUSH2 0x1356 JUMPI PUSH1 0x40 MLOAD PUSH32 0x8C379A000000000000000000000000000000000000000000000000000000000 DUP2 MSTORE PUSH1 0x4 ADD PUSH2 0x134D SWAP1 PUSH2 0x3A3F JUMP JUMPDEST PUSH1 0x40 MLOAD DUP1 SWAP2 SUB SWAP1 REVERT JUMPDEST PUSH2 0x135E PUSH2 0x24BF JUMP JUMPDEST PUSH1 0x0 PUSH1 0xB PUSH1 0x0 DUP6 DUP2 MSTORE PUSH1 0x20 ADD SWAP1 DUP2 MSTORE PUSH1 0x20 ADD PUSH1 0x0 KECCAK256 SWAP1 POP PUSH1 0x0 PUSH1 0x3 DUP2 GT ISZERO PUSH2 0x1389 JUMPI PUSH2 0x1388 PUSH2 0x2966 JUMP JUMPDEST JUMPDEST DUP2 PUSH1 0x5 ADD PUSH1 0x0 SWAP1 SLOAD SWAP1 PUSH2 0x100 EXP SWAP1 DIV PUSH1 0xFF AND PUSH1 0x3 DUP2 GT ISZERO PUSH2 0x13AD JUMPI PUSH2 0x13AC PUSH2 0x2966 JUMP JUMPDEST JUMPDEST EQ PUSH2 0x13ED JUMPI PUSH1 0x40 MLOAD PUSH32 0x8C379A000000000000000000000000000000000000000000000000000000000 DUP2 MSTORE PUSH1 0x4 ADD PUSH2 0x13E4 SWAP1 PUSH2 0x3AAB JUMP JUMPDEST PUSH1 0x40 MLOAD DUP1 SWAP2 SUB SWAP1 REVERT JUMPDEST PUSH1 0x0 DUP2 PUSH1 0x1 ADD PUSH1 0x0 SWAP1 SLOAD SWAP1 PUSH2 0x100 EXP SWAP1 DIV PUSH20 0xFFFFFFFFFFFFFFFFFFFFFFFFFFFFFFFFFFFFFFFF AND SWAP1 POP PUSH1 0x0 PUSH1 0xA PUSH1 0x0 DUP4 PUSH20 0xFFFFFFFFFFFFFFFFFFFFFFFFFFFFFFFFFFFFFFFF AND PUSH20 0xFFFFFFFFFFFFFFFFFFFFFFFFFFFFFFFFFFFFFFFF AND DUP2 MSTORE PUSH1 0x20 ADD SWAP1 DUP2 MSTORE PUSH1 0x20 ADD PUSH1 0x0 KECCAK256 SWAP1 POP DUP1 PUSH1 0x2 ADD PUSH1 0x0 SWAP1 SLOAD SWAP1 PUSH2 0x100 EXP SWAP1 DIV PUSH1 0xFF AND DUP1 ISZERO PUSH2 0x147A JUMPI POP DUP6 DUP2 PUSH1 0x3 ADD SLOAD EQ JUMPDEST PUSH2 0x14B9 JUMPI PUSH1 0x40 MLOAD PUSH32 0x8C379A000000000000000000000000000000000000000000000000000000000 DUP2 MSTORE PUSH1 0x4 ADD PUSH2 0x14B0 SWAP1 PUSH2 0x3B17 JUMP JUMPDEST PUSH1 0x40 MLOAD DUP1 SWAP2 SUB SWAP1 REVERT JUMPDEST DUP5 DUP4 PUSH1 0x4 ADD SWAP1 DUP2 PUSH2 0x14CA SWAP2 SWAP1 PUSH2 0x3895 JUMP JUMPDEST POP TIMESTAMP DUP4 PUSH1 0x7 ADD DUP2 SWAP1 SSTORE POP PUSH1 0x1 DUP4 PUSH1 0x8 ADD PUSH1 0x0 PUSH2 0x100 EXP DUP2 SLOAD DUP2 PUSH1 0xFF MUL NOT AND SWAP1 DUP4 ISZERO ISZERO MUL OR SWAP1 SSTORE POP DUP4 PUSH2 0x14FD JUMPI PUSH1 0x2 PUSH2 0x1500 JUMP JUMPDEST PUSH1 0x1 JUMPDEST DUP4 PUSH1 0x5 ADD PUSH1 0x0 PUSH2 0x100 EXP DUP2 SLOAD DUP2 PUSH1 0xFF MUL NOT AND SWAP1 DUP4 PUSH1 0x3 DUP2 GT ISZERO PUSH2 0x1526 JUMPI PUSH2 0x1525 PUSH2 0x2966 JUMP JUMPDEST JUMPDEST MUL OR SWAP1 SSTORE POP PUSH1 0x0 DUP2 PUSH1 0x2 ADD PUSH1 0x0 PUSH2 0x100 EXP DUP2 SLOAD DUP2 PUSH1 0xFF MUL NOT AND SWAP1 DUP4 ISZERO ISZERO MUL OR SWAP1 SSTORE POP PUSH1 0x0 DUP5 ISZERO PUSH2 0x172A JUMPI PUSH1 0x0 PUSH2 0x156C DUP6 PUSH1 0xA ADD PUSH1 0x0 SWAP1 SLOAD SWAP1 PUSH2 0x100 EXP SWAP1 DIV PUSH1 0xFF AND PUSH2 0x10B6 JUMP JUMPDEST SWAP1 POP PUSH1 0x64 DUP2 DUP5 PUSH1 0x0 ADD SLOAD PUSH2 0x1580 SWAP2 SWAP1 PUSH2 0x3B37 JUMP JUMPDEST PUSH2 0x158A SWAP2 SWAP1 PUSH2 0x3BA8 JUMP JUMPDEST SWAP2 POP PUSH1 0x0 PUSH1 0x64 PUSH1 0x7 SLOAD DUP5 PUSH2 0x159E SWAP2 SWAP1 PUSH2 0x3B37 JUMP JUMPDEST PUSH2 0x15A8 SWAP2 SWAP1 PUSH2 0x3BA8 JUMP JUMPDEST SWAP1 POP DUP1 DUP4 PUSH2 0x15B6 SWAP2 SWAP1 PUSH2 0x3BD9 JUMP JUMPDEST SWAP3 POP DUP5 PUSH20 0xFFFFFFFFFFFFFFFFFFFFFFFFFFFFFFFFFFFFFFFF AND PUSH2 0x8FC DUP5 SWAP1 DUP2 ISZERO MUL SWAP1 PUSH1 0x40 MLOAD PUSH1 0x0 PUSH1 0x40 MLOAD DUP1 DUP4 SUB DUP2 DUP6 DUP9 DUP9 CALL SWAP4 POP POP POP POP ISZERO DUP1 ISZERO PUSH2 0x15FE JUMPI RETURNDATASIZE PUSH1 0x0 DUP1 RETURNDATACOPY RETURNDATASIZE PUSH1 0x0 REVERT JUMPDEST POP PUSH1 0x0 DUP2 GT ISZERO PUSH2 0x1672 JUMPI PUSH1 0x2 PUSH1 0x1 SWAP1 SLOAD SWAP1 PUSH2 0x100 EXP SWAP1 DIV PUSH20 0xFFFFFFFFFFFFFFFFFFFFFFFFFFFFFFFFFFFFFFFF AND PUSH20 0xFFFFFFFFFFFFFFFFFFFFFFFFFFFFFFFFFFFFFFFF AND PUSH2 0x8FC DUP3 SWAP1 DUP2 ISZERO MUL SWAP1 PUSH1 0x40 MLOAD PUSH1 0x0 PUSH1 0x40 MLOAD DUP1 DUP4 SUB DUP2 DUP6 DUP9 DUP9 CALL SWAP4 POP POP POP POP ISZERO DUP1 ISZERO PUSH2 0x1670 JUMPI RETURNDATASIZE PUSH1 0x0 DUP1 RETURNDATACOPY RETURNDATASIZE PUSH1 0x0 REVERT JUMPDEST POP JUMPDEST PUSH1 0x0 PUSH1 0xD PUSH1 0x0 DUP8 PUSH20 0xFFFFFFFFFFFFFFFFFFFFFFFFFFFFFFFFFFFFFFFF AND PUSH20 0xFFFFFFFFFFFFFFFFFFFFFFFFFFFFFFFFFFFFFFFF AND DUP2 MSTORE PUSH1 0x20 ADD SWAP1 DUP2 MSTORE PUSH1 0x20 ADD PUSH1 0x0 KECCAK256 SWAP1 POP DUP4 DUP2 PUSH1 0x1 ADD PUSH1 0x0 DUP3 DUP3 SLOAD PUSH2 0x16C9 SWAP2 SWAP1 PUSH2 0x3996 JUMP JUMPDEST SWAP3 POP POP DUP2 SWAP1 SSTORE POP DUP1 PUSH1 0x2 ADD PUSH1 0x0 DUP2 SLOAD DUP1 SWAP3 SWAP2 SWAP1 PUSH2 0x16E5 SWAP1 PUSH2 0x3C0D JUMP JUMPDEST SWAP2 SWAP1 POP SSTORE POP DUP1 PUSH1 0x4 ADD PUSH1 0x0 DUP2 SLOAD DUP1 SWAP3 SWAP2 SWAP1 PUSH2 0x16FF SWAP1 PUSH2 0x3C0D JUMP JUMPDEST SWAP2 SWAP1 POP SSTORE POP DUP1 PUSH1 0x5 ADD SLOAD DUP2 PUSH1 0x4 ADD SLOAD GT ISZERO PUSH2 0x1722 JUMPI DUP1 PUSH1 0x4 ADD SLOAD DUP2 PUSH1 0x5 ADD DUP2 SWAP1 SSTORE POP JUMPDEST POP POP POP PUSH2 0x1800 JUMP JUMPDEST PUSH1 0x2 PUSH1 0x1 SWAP1 SLOAD SWAP1 PUSH2 0x100 EXP SWAP1 DIV PUSH20 0xFFFFFFFFFFFFFFFFFFFFFFFFFFFFFFFFFFFFFFFF AND PUSH20 0xFFFFFFFFFFFFFFFFFFFFFFFFFFFFFFFFFFFFFFFF AND PUSH2 0x8FC DUP4 PUSH1 0x0 ADD SLOAD SWAP1 DUP2 ISZERO MUL SWAP1 PUSH1 0x40 MLOAD PUSH1 0x0 PUSH1 0x40 MLOAD DUP1 DUP4 SUB DUP2 DUP6 DUP9 DUP9 CALL SWAP4 POP POP POP POP ISZERO DUP1 ISZERO PUSH2 0x1796 JUMPI RETURNDATASIZE PUSH1 0x0 DUP1 RETURNDATACOPY RETURNDATASIZE PUSH1 0x0 REVERT JUMPDEST POP PUSH1 0x0 PUSH1 0xD PUSH1 0x0 DUP6 PUSH20 0xFFFFFFFFFFFFFFFFFFFFFFFFFFFFFFFFFFFFFFFF AND PUSH20 0xFFFFFFFFFFFFFFFFFFFFFFFFFFFFFFFFFFFFFFFF AND DUP2 MSTORE PUSH1 0x20 ADD SWAP1 DUP2 MSTORE PUSH1 0x20 ADD PUSH1 0x0 KECCAK256 SWAP1 POP DUP1 PUSH1 0x3 ADD PUSH1 0x0 DUP2 SLOAD DUP1 SWAP3 SWAP2 SWAP1 PUSH2 0x17EF SWAP1 PUSH2 0x3C0D JUMP JUMPDEST SWAP2 SWAP1 POP SSTORE POP PUSH1 0x0 DUP2 PUSH1 0x4 ADD DUP2 SWAP1 SSTORE POP POP JUMPDEST PUSH1 0xC PUSH1 0x0 DUP6 PUSH1 0x9 ADD SLOAD DUP2 MSTORE PUSH1 0x20 ADD SWAP1 DUP2 MSTORE PUSH1 0x20 ADD PUSH1 0x0 KECCAK256 PUSH1 0x5 ADD PUSH1 0x0 DUP2 SLOAD DUP1 SWAP3 SWAP2 SWAP1 PUSH2 0x182B SWAP1 PUSH2 0x3C0D JUMP JUMPDEST SWAP2 SWAP1 POP SSTORE POP DUP2 PUSH1 0x0 ADD SLOAD PUSH1 0xD PUSH1 0x0 DUP6 PUSH20 0xFFFFFFFFFFFFFFFFFFFFFFFFFFFFFFFFFFFFFFFF AND PUSH20 0xFFFFFFFFFFFFFFFFFFFFFFFFFFFFFFFFFFFFFFFF AND DUP2 MSTORE PUSH1 0x20 ADD SWAP1 DUP2 MSTORE PUSH1 0x20 ADD PUSH1 0x0 KECCAK256 PUSH1 0x0 ADD PUSH1 0x0 DUP3 DUP3 SLOAD PUSH2 0x1886 SWAP2 SWAP1 PUSH2 0x3996 JUMP JUMPDEST SWAP3 POP POP DUP2 SWAP1 SSTORE POP TIMESTAMP PUSH1 0xD PUSH1 0x0 DUP6 PUSH20 0xFFFFFFFFFFFFFFFFFFFFFFFFFFFFFFFFFFFFFFFF AND PUSH20 0xFFFFFFFFFFFFFFFFFFFFFFFFFFFFFFFFFFFFFFFF AND DUP2 MSTORE PUSH1 0x20 ADD SWAP1 DUP2 MSTORE PUSH1 0x20 ADD PUSH1 0x0 KECCAK256 PUSH1 0x6 ADD DUP2 SWAP1 SSTORE POP DUP3 PUSH20 0xFFFFFFFFFFFFFFFFFFFFFFFFFFFFFFFFFFFFFFFF AND DUP8 PUSH32 0xF531285CA704745EDDAB0F3FFD7E758C9D25CC5307E3C886D15ED35F880C6EE1 DUP8 DUP5 PUSH1 0x40 MLOAD PUSH2 0x191D SWAP3 SWAP2 SWAP1 PUSH2 0x3C55 JUMP JUMPDEST PUSH1 0x40 MLOAD DUP1 SWAP2 SUB SWAP1 LOG3 POP POP POP POP PUSH2 0x1931 PUSH2 0x257C JUMP JUMPDEST POP POP POP JUMP JUMPDEST PUSH2 0x193E PUSH2 0x2441 JUMP JUMPDEST PUSH2 0x1948 PUSH1 0x0 PUSH2 0x25E8 JUMP JUMPDEST JUMP JUMPDEST PUSH2 0x1952 PUSH2 0x2441 JUMP JUMPDEST PUSH2 0x195A PUSH2 0x26AC JUMP JUMPDEST JUMP JUMPDEST PUSH1 0x0 DUP1 PUSH1 0x0 SWAP1 SLOAD SWAP1 PUSH2 0x100 EXP SWAP1 DIV PUSH20 0xFFFFFFFFFFFFFFFFFFFFFFFFFFFFFFFFFFFFFFFF AND SWAP1 POP SWAP1 JUMP JUMPDEST PUSH1 0xB PUSH1 0x20 MSTORE DUP1 PUSH1 0x0 MSTORE PUSH1 0x40 PUSH1 0x0 KECCAK256 PUSH1 0x0 SWAP2 POP SWAP1 POP DUP1 PUSH1 0x0 ADD SLOAD SWAP1 DUP1 PUSH1 0x1 ADD PUSH1 0x0 SWAP1 SLOAD SWAP1 PUSH2 0x100 EXP SWAP1 DIV PUSH20 0xFFFFFFFFFFFFFFFFFFFFFFFFFFFFFFFFFFFFFFFF AND SWAP1 DUP1 PUSH1 0x2 ADD SLOAD SWAP1 DUP1 PUSH1 0x3 ADD DUP1 SLOAD PUSH2 0x19DA SWAP1 PUSH2 0x36B8 JUMP JUMPDEST DUP1 PUSH1 0x1F ADD PUSH1 0x20 DUP1 SWAP2 DIV MUL PUSH1 0x20 ADD PUSH1 0x40 MLOAD SWAP1 DUP2 ADD PUSH1 0x40 MSTORE DUP1 SWAP3 SWAP2 SWAP1 DUP2 DUP2 MSTORE PUSH1 0x20 ADD DUP3 DUP1 SLOAD PUSH2 0x1A06 SWAP1 PUSH2 0x36B8 JUMP JUMPDEST DUP1 ISZERO PUSH2 0x1A53 JUMPI DUP1 PUSH1 0x1F LT PUSH2 0x1A28 JUMPI PUSH2 0x100 DUP1 DUP4 SLOAD DIV MUL DUP4 MSTORE SWAP2 PUSH1 0x20 ADD SWAP2 PUSH2 0x1A53 JUMP JUMPDEST DUP3 ADD SWAP2 SWAP1 PUSH1 0x0 MSTORE PUSH1 0x20 PUSH1 0x0 KECCAK256 SWAP1 JUMPDEST DUP2 SLOAD DUP2 MSTORE SWAP1 PUSH1 0x1 ADD SWAP1 PUSH1 0x20 ADD DUP1 DUP4 GT PUSH2 0x1A36 JUMPI DUP3 SWAP1 SUB PUSH1 0x1F AND DUP3 ADD SWAP2 JUMPDEST POP POP POP POP POP SWAP1 DUP1 PUSH1 0x4 ADD DUP1 SLOAD PUSH2 0x1A68 SWAP1 PUSH2 0x36B8 JUMP JUMPDEST DUP1 PUSH1 0x1F ADD PUSH1 0x20 DUP1 SWAP2 DIV MUL PUSH1 0x20 ADD PUSH1 0x40 MLOAD SWAP1 DUP2 ADD PUSH1 0x40 MSTORE DUP1 SWAP3 SWAP2 SWAP1 DUP2 DUP2 MSTORE PUSH1 0x20 ADD DUP3 DUP1 SLOAD PUSH2 0x1A94 SWAP1 PUSH2 0x36B8 JUMP JUMPDEST DUP1 ISZERO PUSH2 0x1AE1 JUMPI DUP1 PUSH1 0x1F LT PUSH2 0x1AB6 JUMPI PUSH2 0x100 DUP1 DUP4 SLOAD DIV MUL DUP4 MSTORE SWAP2 PUSH1 0x20 ADD SWAP2 PUSH2 0x1AE1 JUMP JUMPDEST DUP3 ADD SWAP2 SWAP1 PUSH1 0x0 MSTORE PUSH1 0x20 PUSH1 0x0 KECCAK256 SWAP1 JUMPDEST DUP2 SLOAD DUP2 MSTORE SWAP1 PUSH1 0x1 ADD SWAP1 PUSH1 0x20 ADD DUP1 DUP4 GT PUSH2 0x1AC4 JUMPI DUP3 SWAP1 SUB PUSH1 0x1F AND DUP3 ADD SWAP2 JUMPDEST POP POP POP POP POP SWAP1 DUP1 PUSH1 0x5 ADD PUSH1 0x0 SWAP1 SLOAD SWAP1 PUSH2 0x100 EXP SWAP1 DIV PUSH1 0xFF AND SWAP1 DUP1 PUSH1 0x6 ADD SLOAD SWAP1 DUP1 PUSH1 0x7 ADD SLOAD SWAP1 DUP1 PUSH1 0x8 ADD PUSH1 0x0 SWAP1 SLOAD SWAP1 PUSH2 0x100 EXP SWAP1 DIV PUSH1 0xFF AND SWAP1 DUP1 PUSH1 0x9 ADD SLOAD SWAP1 DUP1 PUSH1 0xA ADD PUSH1 0x0 SWAP1 SLOAD SWAP1 PUSH2 0x100 EXP SWAP1 DIV PUSH1 0xFF AND SWAP1 POP DUP12 JUMP JUMPDEST PUSH1 0x60 PUSH1 0xF PUSH1 0x0 DUP4 PUSH20 0xFFFFFFFFFFFFFFFFFFFFFFFFFFFFFFFFFFFFFFFF AND PUSH20 0xFFFFFFFFFFFFFFFFFFFFFFFFFFFFFFFFFFFFFFFF AND DUP2 MSTORE PUSH1 0x20 ADD SWAP1 DUP2 MSTORE PUSH1 0x20 ADD PUSH1 0x0 KECCAK256 DUP1 SLOAD DUP1 PUSH1 0x20 MUL PUSH1 0x20 ADD PUSH1 0x40 MLOAD SWAP1 DUP2 ADD PUSH1 0x40 MSTORE DUP1 SWAP3 SWAP2 SWAP1 DUP2 DUP2 MSTORE PUSH1 0x20 ADD DUP3 DUP1 SLOAD DUP1 ISZERO PUSH2 0x1BC1 JUMPI PUSH1 0x20 MUL DUP3 ADD SWAP2 SWAP1 PUSH1 0x0 MSTORE PUSH1 0x20 PUSH1 0x0 KECCAK256 SWAP1 JUMPDEST DUP2 SLOAD DUP2 MSTORE PUSH1 0x20 ADD SWAP1 PUSH1 0x1 ADD SWAP1 DUP1 DUP4 GT PUSH2 0x1BAD JUMPI JUMPDEST POP POP POP POP POP SWAP1 POP SWAP2 SWAP1 POP JUMP JUMPDEST PUSH1 0xE PUSH1 0x20 MSTORE DUP1 PUSH1 0x0 MSTORE PUSH1 0x40 PUSH1 0x0 KECCAK256 PUSH1 0x0 SWAP2 POP SLOAD SWAP1 PUSH2 0x100 EXP SWAP1 DIV PUSH1 0xFF AND DUP2 JUMP JUMPDEST PUSH2 0x1BF5 PUSH2 0x2441 JUMP JUMPDEST DUP5 PUSH1 0x4 DUP2 SWAP1 SSTORE POP DUP4 PUSH1 0x5 DUP2 SWAP1 SSTORE POP DUP3 PUSH1 0x6 DUP2 SWAP1 SSTORE POP DUP2 PUSH1 0x7 DUP2 SWAP1 SSTORE POP DUP1 PUSH1 0x2 PUSH1 0x1 PUSH2 0x100 EXP DUP2 SLOAD DUP2 PUSH20 0xFFFFFFFFFFFFFFFFFFFFFFFFFFFFFFFFFFFFFFFF MUL NOT AND SWAP1 DUP4 PUSH20 0xFFFFFFFFFFFFFFFFFFFFFFFFFFFFFFFFFFFFFFFF AND MUL OR SWAP1 SSTORE POP POP POP POP POP POP JUMP JUMPDEST PUSH2 0x1C61 PUSH2 0x2441 JUMP JUMPDEST DUP1 PUSH1 0xE PUSH1 0x0 DUP5 PUSH20 0xFFFFFFFFFFFFFFFFFFFFFFFFFFFFFFFFFFFFFFFF AND PUSH20 0xFFFFFFFFFFFFFFFFFFFFFFFFFFFFFFFFFFFFFFFF AND DUP2 MSTORE PUSH1 0x20 ADD SWAP1 DUP2 MSTORE PUSH1 0x20 ADD PUSH1 0x0 KECCAK256 PUSH1 0x0 PUSH2 0x100 EXP DUP2 SLOAD DUP2 PUSH1 0xFF MUL NOT AND SWAP1 DUP4 ISZERO ISZERO MUL OR SWAP1 SSTORE POP DUP2 PUSH20 0xFFFFFFFFFFFFFFFFFFFFFFFFFFFFFFFFFFFFFFFF AND PUSH32 0x1964273D193FB2F4735C932D08BBDB5CBAAF807BB74A86B6F4BE09AF78D42C92 DUP3 PUSH1 0x40 MLOAD PUSH2 0x1CFE SWAP2 SWAP1 PUSH2 0x2DD2 JUMP JUMPDEST PUSH1 0x40 MLOAD DUP1 SWAP2 SUB SWAP1 LOG2 POP POP JUMP JUMPDEST PUSH1 0x5 SLOAD DUP2 JUMP JUMPDEST PUSH1 0xA PUSH1 0x20 MSTORE DUP1 PUSH1 0x0 MSTORE PUSH1 0x40 PUSH1 0x0 KECCAK256 PUSH1 0x0 SWAP2 POP SWAP1 POP DUP1 PUSH1 0x0 ADD SLOAD SWAP1 DUP1 PUSH1 0x1 ADD SLOAD SWAP1 DUP1 PUSH1 0x2 ADD PUSH1 0x0 SWAP1 SLOAD SWAP1 PUSH2 0x100 EXP SWAP1 DIV PUSH1 0xFF AND SWAP1 DUP1 PUSH1 0x3 ADD SLOAD SWAP1 POP DUP5 JUMP JUMPDEST PUSH1 0xE PUSH1 0x0 CALLER PUSH20 0xFFFFFFFFFFFFFFFFFFFFFFFFFFFFFFFFFFFFFFFF AND PUSH20 0xFFFFFFFFFFFFFFFFFFFFFFFFFFFFFFFFFFFFFFFF AND DUP2 MSTORE PUSH1 0x20 ADD SWAP1 DUP2 MSTORE PUSH1 0x20 ADD PUSH1 0x0 KECCAK256 PUSH1 0x0 SWAP1 SLOAD SWAP1 PUSH2 0x100 EXP SWAP1 DIV PUSH1 0xFF AND DUP1 PUSH2 0x1DD7 JUMPI POP PUSH2 0x1DA8 PUSH2 0x195C JUMP JUMPDEST PUSH20 0xFFFFFFFFFFFFFFFFFFFFFFFFFFFFFFFFFFFFFFFF AND CALLER PUSH20 0xFFFFFFFFFFFFFFFFFFFFFFFFFFFFFFFFFFFFFFFF AND EQ JUMPDEST PUSH2 0x1E16 JUMPI PUSH1 0x40 MLOAD PUSH32 0x8C379A000000000000000000000000000000000000000000000000000000000 DUP2 MSTORE PUSH1 0x4 ADD PUSH2 0x1E0D SWAP1 PUSH2 0x3A3F JUMP JUMPDEST PUSH1 0x40 MLOAD DUP1 SWAP2 SUB SWAP1 REVERT JUMPDEST PUSH1 0x0 PUSH1 0x3 DUP2 GT ISZERO PUSH2 0x1E2A JUMPI PUSH2 0x1E29 PUSH2 0x2966 JUMP JUMPDEST JUMPDEST PUSH1 0xB PUSH1 0x0 DUP5 DUP2 MSTORE PUSH1 0x20 ADD SWAP1 DUP2 MSTORE PUSH1 0x20 ADD PUSH1 0x0 KECCAK256 PUSH1 0x5 ADD PUSH1 0x0 SWAP1 SLOAD SWAP1 PUSH2 0x100 EXP SWAP1 DIV PUSH1 0xFF AND PUSH1 0x3 DUP2 GT ISZERO PUSH2 0x1E60 JUMPI PUSH2 0x1E5F PUSH2 0x2966 JUMP JUMPDEST JUMPDEST EQ PUSH2 0x1EA0 JUMPI PUSH1 0x40 MLOAD PUSH32 0x8C379A000000000000000000000000000000000000000000000000000000000 DUP2 MSTORE PUSH1 0x4 ADD PUSH2 0x1E97 SWAP1 PUSH2 0x3AAB JUMP JUMPDEST PUSH1 0x40 MLOAD DUP1 SWAP2 SUB SWAP1 REVERT JUMPDEST DUP1 PUSH1 0xB PUSH1 0x0 DUP5 DUP2 MSTORE PUSH1 0x20 ADD SWAP1 DUP2 MSTORE PUSH1 0x20 ADD PUSH1 0x0 KECCAK256 PUSH1 0x3 ADD SWAP1 DUP2 PUSH2 0x1EC3 SWAP2 SWAP1 PUSH2 0x3895 JUMP JUMPDEST POP PUSH1 0xB PUSH1 0x0 DUP4 DUP2 MSTORE PUSH1 0x20 ADD SWAP1 DUP2 MSTORE PUSH1 0x20 ADD PUSH1 0x0 KECCAK256 PUSH1 0x1 ADD PUSH1 0x0 SWAP1 SLOAD SWAP1 PUSH2 0x100 EXP SWAP1 DIV PUSH20 0xFFFFFFFFFFFFFFFFFFFFFFFFFFFFFFFFFFFFFFFF AND PUSH20 0xFFFFFFFFFFFFFFFFFFFFFFFFFFFFFFFFFFFFFFFF AND DUP3 PUSH32 0x2045572326018AC04CF292B4443D536BD6C25C4D945E0B5E707382E73829F779 PUSH1 0xB PUSH1 0x0 DUP7 DUP2 MSTORE PUSH1 0x20 ADD SWAP1 DUP2 MSTORE PUSH1 0x20 ADD PUSH1 0x0 KECCAK256 PUSH1 0x9 ADD SLOAD DUP5 PUSH1 0x40 MLOAD PUSH2 0x1F59 SWAP3 SWAP2 SWAP1 PUSH2 0x3C7E JUMP JUMPDEST PUSH1 0x40 MLOAD DUP1 SWAP2 SUB SWAP1 LOG3 POP POP JUMP JUMPDEST PUSH1 0x3 PUSH1 0x0 SWAP1 SLOAD SWAP1 PUSH2 0x100 EXP SWAP1 DIV PUSH20 0xFFFFFFFFFFFFFFFFFFFFFFFFFFFFFFFFFFFFFFFF AND DUP2 JUMP JUMPDEST PUSH1 0xD PUSH1 0x20 MSTORE DUP1 PUSH1 0x0 MSTORE PUSH1 0x40 PUSH1 0x0 KECCAK256 PUSH1 0x0 SWAP2 POP SWAP1 POP DUP1 PUSH1 0x0 ADD SLOAD SWAP1 DUP1 PUSH1 0x1 ADD SLOAD SWAP1 DUP1 PUSH1 0x2 ADD SLOAD SWAP1 DUP1 PUSH1 0x3 ADD SLOAD SWAP1 DUP1 PUSH1 0x4 ADD SLOAD SWAP1 DUP1 PUSH1 0x5 ADD SLOAD SWAP1 DUP1 PUSH1 0x6 ADD SLOAD SWAP1 POP DUP8 JUMP JUMPDEST PUSH1 0x6 SLOAD DUP2 JUMP JUMPDEST PUSH2 0x1FDB PUSH2 0x2441 JUMP JUMPDEST PUSH1 0x0 PUSH1 0xC PUSH1 0x0 DUP8 DUP2 MSTORE PUSH1 0x20 ADD SWAP1 DUP2 MSTORE PUSH1 0x20 ADD PUSH1 0x0 KECCAK256 PUSH1 0x0 ADD SLOAD EQ PUSH2 0x2034 JUMPI PUSH1 0x40 MLOAD PUSH32 0x8C379A000000000000000000000000000000000000000000000000000000000 DUP2 MSTORE PUSH1 0x4 ADD PUSH2 0x202B SWAP1 PUSH2 0x3CFA JUMP JUMPDEST PUSH1 0x40 MLOAD DUP1 SWAP2 SUB SWAP1 REVERT JUMPDEST PUSH1 0x40 MLOAD DUP1 PUSH2 0x100 ADD PUSH1 0x40 MSTORE DUP1 DUP7 DUP2 MSTORE PUSH1 0x20 ADD DUP6 DUP2 MSTORE PUSH1 0x20 ADD DUP5 DUP2 MSTORE PUSH1 0x20 ADD DUP4 DUP2 MSTORE PUSH1 0x20 ADD DUP3 PUSH1 0x3 DUP2 GT ISZERO PUSH2 0x206B JUMPI PUSH2 0x206A PUSH2 0x2966 JUMP JUMPDEST JUMPDEST DUP2 MSTORE PUSH1 0x20 ADD PUSH1 0x1 ISZERO ISZERO DUP2 MSTORE PUSH1 0x20 ADD PUSH1 0x0 DUP2 MSTORE PUSH1 0x20 ADD PUSH1 0x0 DUP2 MSTORE POP PUSH1 0xC PUSH1 0x0 DUP8 DUP2 MSTORE PUSH1 0x20 ADD SWAP1 DUP2 MSTORE PUSH1 0x20 ADD PUSH1 0x0 KECCAK256 PUSH1 0x0 DUP3 ADD MLOAD DUP2 PUSH1 0x0 ADD SSTORE PUSH1 0x20 DUP3 ADD MLOAD DUP2 PUSH1 0x1 ADD SSTORE PUSH1 0x40 DUP3 ADD MLOAD DUP2 PUSH1 0x2 ADD SSTORE PUSH1 0x60 DUP3 ADD MLOAD DUP2 PUSH1 0x3 ADD SSTORE PUSH1 0x80 DUP3 ADD MLOAD DUP2 PUSH1 0x4 ADD PUSH1 0x0 PUSH2 0x100 EXP DUP2 SLOAD DUP2 PUSH1 0xFF MUL NOT AND SWAP1 DUP4 PUSH1 0x3 DUP2 GT ISZERO PUSH2 0x20EB JUMPI PUSH2 0x20EA PUSH2 0x2966 JUMP JUMPDEST JUMPDEST MUL OR SWAP1 SSTORE POP PUSH1 0xA0 DUP3 ADD MLOAD DUP2 PUSH1 0x4 ADD PUSH1 0x1 PUSH2 0x100 EXP DUP2 SLOAD DUP2 PUSH1 0xFF MUL NOT AND SWAP1 DUP4 ISZERO ISZERO MUL OR SWAP1 SSTORE POP PUSH1 0xC0 DUP3 ADD MLOAD DUP2 PUSH1 0x5 ADD SSTORE PUSH1 0xE0 DUP3 ADD MLOAD DUP2 PUSH1 0x6 ADD SSTORE SWAP1 POP POP DUP5 PUSH32 0x129587D9E08AD0CE02EAF47578BF568FDA838194AB25452B17963223B17435DD DUP6 DUP6 DUP5 PUSH1 0x40 MLOAD PUSH2 0x215B SWAP4 SWAP3 SWAP2 SWAP1 PUSH2 0x3D1A JUMP JUMPDEST PUSH1 0x40 MLOAD DUP1 SWAP2 SUB SWAP1 LOG2 POP POP POP POP POP JUMP JUMPDEST PUSH2 0x2172 PUSH2 0x24BF JUMP JUMPDEST PUSH1 0x0 PUSH1 0xA PUSH1 0x0 CALLER PUSH20 0xFFFFFFFFFFFFFFFFFFFFFFFFFFFFFFFFFFFFFFFF AND PUSH20 0xFFFFFFFFFFFFFFFFFFFFFFFFFFFFFFFFFFFFFFFF AND DUP2 MSTORE PUSH1 0x20 ADD SWAP1 DUP2 MSTORE PUSH1 0x20 ADD PUSH1 0x0 KECCAK256 SWAP1 POP DUP1 PUSH1 0x2 ADD PUSH1 0x0 SWAP1 SLOAD SWAP1 PUSH2 0x100 EXP SWAP1 DIV PUSH1 0xFF AND PUSH2 0x2206 JUMPI PUSH1 0x40 MLOAD PUSH32 0x8C379A000000000000000000000000000000000000000000000000000000000 DUP2 MSTORE PUSH1 0x4 ADD PUSH2 0x21FD SWAP1 PUSH2 0x3D9D JUMP JUMPDEST PUSH1 0x40 MLOAD DUP1 SWAP2 SUB SWAP1 REVERT JUMPDEST PUSH3 0x15180 DUP2 PUSH1 0x1 ADD SLOAD PUSH2 0x2219 SWAP2 SWAP1 PUSH2 0x3996 JUMP JUMPDEST TIMESTAMP GT PUSH2 0x225A JUMPI PUSH1 0x40 MLOAD PUSH32 0x8C379A000000000000000000000000000000000000000000000000000000000 DUP2 MSTORE PUSH1 0x4 ADD PUSH2 0x2251 SWAP1 PUSH2 0x3E09 JUMP JUMPDEST PUSH1 0x40 MLOAD DUP1 SWAP2 SUB SWAP1 REVERT JUMPDEST PUSH1 0x0 DUP2 PUSH1 0x0 ADD SLOAD SWAP1 POP PUSH1 0x0 DUP3 PUSH1 0x2 ADD PUSH1 0x0 PUSH2 0x100 EXP DUP2 SLOAD DUP2 PUSH1 0xFF MUL NOT AND SWAP1 DUP4 ISZERO ISZERO MUL OR SWAP1 SSTORE POP PUSH1 0x0 PUSH1 0x3 DUP2 GT ISZERO PUSH2 0x2294 JUMPI PUSH2 0x2293 PUSH2 0x2966 JUMP JUMPDEST JUMPDEST PUSH1 0xB PUSH1 0x0 DUP5 PUSH1 0x3 ADD SLOAD DUP2 MSTORE PUSH1 0x20 ADD SWAP1 DUP2 MSTORE PUSH1 0x20 ADD PUSH1 0x0 KECCAK256 PUSH1 0x5 ADD PUSH1 0x0 SWAP1 SLOAD SWAP1 PUSH2 0x100 EXP SWAP1 DIV PUSH1 0xFF AND PUSH1 0x3 DUP2 GT ISZERO PUSH2 0x22CE JUMPI PUSH2 0x22CD PUSH2 0x2966 JUMP JUMPDEST JUMPDEST SUB PUSH2 0x2317 JUMPI PUSH1 0x2 PUSH1 0xB PUSH1 0x0 DUP5 PUSH1 0x3 ADD SLOAD DUP2 MSTORE PUSH1 0x20 ADD SWAP1 DUP2 MSTORE PUSH1 0x20 ADD PUSH1 0x0 KECCAK256 PUSH1 0x5 ADD PUSH1 0x0 PUSH2 0x100 EXP DUP2 SLOAD DUP2 PUSH1 0xFF MUL NOT AND SWAP1 DUP4 PUSH1 0x3 DUP2 GT ISZERO PUSH2 0x2311 JUMPI PUSH2 0x2310 PUSH2 0x2966 JUMP JUMPDEST JUMPDEST MUL OR SWAP1 SSTORE POP JUMPDEST CALLER PUSH20 0xFFFFFFFFFFFFFFFFFFFFFFFFFFFFFFFFFFFFFFFF AND PUSH2 0x8FC DUP3 SWAP1 DUP2 ISZERO MUL SWAP1 PUSH1 0x40 MLOAD PUSH1 0x0 PUSH1 0x40 MLOAD DUP1 DUP4 SUB DUP2 DUP6 DUP9 DUP9 CALL SWAP4 POP POP POP POP ISZERO DUP1 ISZERO PUSH2 0x235D JUMPI RETURNDATASIZE PUSH1 0x0 DUP1 RETURNDATACOPY RETURNDATASIZE PUSH1 0x0 REVERT JUMPDEST POP CALLER PUSH20 0xFFFFFFFFFFFFFFFFFFFFFFFFFFFFFFFFFFFFFFFF AND PUSH32 0x23D6711A1D031134A36921253C75AA59E967D38E369AC625992824315E204F20 DUP3 PUSH1 0x40 MLOAD PUSH2 0x23A4 SWAP2 SWAP1 PUSH2 0x2B57 JUMP JUMPDEST PUSH1 0x40 MLOAD DUP1 SWAP2 SUB SWAP1 LOG2 POP POP PUSH2 0x23B6 PUSH2 0x257C JUMP JUMPDEST JUMP JUMPDEST PUSH1 0x4 SLOAD DUP2 JUMP JUMPDEST PUSH2 0x23C6 PUSH2 0x2441 JUMP JUMPDEST PUSH1 0x0 PUSH20 0xFFFFFFFFFFFFFFFFFFFFFFFFFFFFFFFFFFFFFFFF AND DUP2 PUSH20 0xFFFFFFFFFFFFFFFFFFFFFFFFFFFFFFFFFFFFFFFF AND SUB PUSH2 0x2435 JUMPI PUSH1 0x40 MLOAD PUSH32 0x8C379A000000000000000000000000000000000000000000000000000000000 DUP2 MSTORE PUSH1 0x4 ADD PUSH2 0x242C SWAP1 PUSH2 0x3E9B JUMP JUMPDEST PUSH1 0x40 MLOAD DUP1 SWAP2 SUB SWAP1 REVERT JUMPDEST PUSH2 0x243E DUP2 PUSH2 0x25E8 JUMP JUMPDEST POP JUMP JUMPDEST PUSH2 0x2449 PUSH2 0x270F JUMP JUMPDEST PUSH20 0xFFFFFFFFFFFFFFFFFFFFFFFFFFFFFFFFFFFFFFFF AND PUSH2 0x2467 PUSH2 0x195C JUMP JUMPDEST PUSH20 0xFFFFFFFFFFFFFFFFFFFFFFFFFFFFFFFFFFFFFFFF AND EQ PUSH2 0x24BD JUMPI PUSH1 0x40 MLOAD PUSH32 0x8C379A000000000000000000000000000000000000000000000000000000000 DUP2 MSTORE PUSH1 0x4 ADD PUSH2 0x24B4 SWAP1 PUSH2 0x3F07 JUMP JUMPDEST PUSH1 0x40 MLOAD DUP1 SWAP2 SUB SWAP1 REVERT JUMPDEST JUMP JUMPDEST PUSH1 0x2 PUSH1 0x1 SLOAD SUB PUSH2 0x2504 JUMPI PUSH1 0x40 MLOAD PUSH32 0x8C379A000000000000000000000000000000000000000000000000000000000 DUP2 MSTORE PUSH1 0x4 ADD PUSH2 0x24FB SWAP1 PUSH2 0x3F73 JUMP JUMPDEST PUSH1 0x40 MLOAD DUP1 SWAP2 SUB SWAP1 REVERT JUMPDEST PUSH1 0x2 PUSH1 0x1 DUP2 SWAP1 SSTORE POP JUMP JUMPDEST PUSH2 0x2516 PUSH2 0x1196 JUMP JUMPDEST ISZERO PUSH2 0x2556 JUMPI PUSH1 0x40 MLOAD PUSH32 0x8C379A000000000000000000000000000000000000000000000000000000000 DUP2 MSTORE PUSH1 0x4 ADD PUSH2 0x254D SWAP1 PUSH2 0x3FDF JUMP JUMPDEST PUSH1 0x40 MLOAD DUP1 SWAP2 SUB SWAP1 REVERT JUMPDEST JUMP JUMPDEST PUSH1 0x0 DUP2 PUSH1 0x0 ADD SLOAD SWAP1 POP SWAP2 SWAP1 POP JUMP JUMPDEST PUSH1 0x1 DUP2 PUSH1 0x0 ADD PUSH1 0x0 DUP3 DUP3 SLOAD ADD SWAP3 POP POP DUP2 SWAP1 SSTORE POP POP JUMP JUMPDEST PUSH1 0x1 DUP1 DUP2 SWAP1 SSTORE POP JUMP JUMPDEST PUSH2 0x258D PUSH2 0x2717 JUMP JUMPDEST PUSH1 0x0 PUSH1 0x2 PUSH1 0x0 PUSH2 0x100 EXP DUP2 SLOAD DUP2 PUSH1 0xFF MUL NOT AND SWAP1 DUP4 ISZERO ISZERO MUL OR SWAP1 SSTORE POP PUSH32 0x5DB9EE0A495BF2E6FF9C91A7834C1BA4FDD244A5E8AA4E537BD38AEAE4B073AA PUSH2 0x25D1 PUSH2 0x270F JUMP JUMPDEST PUSH1 0x40 MLOAD PUSH2 0x25DE SWAP2 SWAP1 PUSH2 0x2DFC JUMP JUMPDEST PUSH1 0x40 MLOAD DUP1 SWAP2 SUB SWAP1 LOG1 JUMP JUMPDEST PUSH1 0x0 DUP1 PUSH1 0x0 SWAP1 SLOAD SWAP1 PUSH2 0x100 EXP SWAP1 DIV PUSH20 0xFFFFFFFFFFFFFFFFFFFFFFFFFFFFFFFFFFFFFFFF AND SWAP1 POP DUP2 PUSH1 0x0 DUP1 PUSH2 0x100 EXP DUP2 SLOAD DUP2 PUSH20 0xFFFFFFFFFFFFFFFFFFFFFFFFFFFFFFFFFFFFFFFF MUL NOT AND SWAP1 DUP4 PUSH20 0xFFFFFFFFFFFFFFFFFFFFFFFFFFFFFFFFFFFFFFFF AND MUL OR SWAP1 SSTORE POP DUP2 PUSH20 0xFFFFFFFFFFFFFFFFFFFFFFFFFFFFFFFFFFFFFFFF AND DUP2 PUSH20 0xFFFFFFFFFFFFFFFFFFFFFFFFFFFFFFFFFFFFFFFF AND PUSH32 0x8BE0079C531659141344CD1FD0A4F28419497F9722A3DAAFE3B4186F6B6457E0 PUSH1 0x40 MLOAD PUSH1 0x40 MLOAD DUP1 SWAP2 SUB SWAP1 LOG3 POP POP JUMP JUMPDEST PUSH2 0x26B4 PUSH2 0x250E JUMP JUMPDEST PUSH1 0x1 PUSH1 0x2 PUSH1 0x0 PUSH2 0x100 EXP DUP2 SLOAD DUP2 PUSH1 0xFF MUL NOT AND SWAP1 DUP4 ISZERO ISZERO MUL OR SWAP1 SSTORE POP PUSH32 0x62E78CEA01BEE320CD4E420270B5EA74000D11B0C9F74754EBDBFC544B05A258 PUSH2 0x26F8 PUSH2 0x270F JUMP JUMPDEST PUSH1 0x40 MLOAD PUSH2 0x2705 SWAP2 SWAP1 PUSH2 0x2DFC JUMP JUMPDEST PUSH1 0x40 MLOAD DUP1 SWAP2 SUB SWAP1 LOG1 JUMP JUMPDEST PUSH1 0x0 CALLER SWAP1 POP SWAP1 JUMP JUMPDEST PUSH2 0x271F PUSH2 0x1196 JUMP JUMPDEST PUSH2 0x275E JUMPI PUSH1 0x40 MLOAD PUSH32 0x8C379A000000000000000000000000000000000000000000000000000000000 DUP2 MSTORE PUSH1 0x4 ADD PUSH2 0x2755 SWAP1 PUSH2 0x404B JUMP JUMPDEST PUSH1 0x40 MLOAD DUP1 SWAP2 SUB SWAP1 REVERT JUMPDEST JUMP JUMPDEST PUSH1 0x40 MLOAD DUP1 PUSH2 0x100 ADD PUSH1 0x40 MSTORE DUP1 PUSH1 0x0 DUP2 MSTORE PUSH1 0x20 ADD PUSH1 0x0 DUP2 MSTORE PUSH1 0x20 ADD PUSH1 0x0 DUP2 MSTORE PUSH1 0x20 ADD PUSH1 0x0 DUP2 MSTORE PUSH1 0x20 ADD PUSH1 0x0 PUSH1 0x3 DUP2 GT ISZERO PUSH2 0x279C JUMPI PUSH2 0x279B PUSH2 0x2966 JUMP JUMPDEST JUMPDEST DUP2 MSTORE PUSH1 0x20 ADD PUSH1 0x0 ISZERO ISZERO DUP2 MSTORE PUSH1 0x20 ADD PUSH1 0x0 DUP2 MSTORE PUSH1 0x20 ADD PUSH1 0x0 DUP2 MSTORE POP SWAP1 JUMP JUMPDEST PUSH1 0x40 MLOAD DUP1 PUSH2 0x160 ADD PUSH1 0x40 MSTORE DUP1 PUSH1 0x0 DUP2 MSTORE PUSH1 0x20 ADD PUSH1 0x0 PUSH20 0xFFFFFFFFFFFFFFFFFFFFFFFFFFFFFFFFFFFFFFFF AND DUP2 MSTORE PUSH1 0x20 ADD PUSH1 0x0 DUP2 MSTORE PUSH1 0x20 ADD PUSH1 0x60 DUP2 MSTORE PUSH1 0x20 ADD PUSH1 0x60 DUP2 MSTORE PUSH1 0x20 ADD PUSH1 0x0 PUSH1 0x3 DUP2 GT ISZERO PUSH2 0x2812 JUMPI PUSH2 0x2811 PUSH2 0x2966 JUMP JUMPDEST JUMPDEST DUP2 MSTORE PUSH1 0x20 ADD PUSH1 0x0 DUP2 MSTORE PUSH1 0x20 ADD PUSH1 0x0 DUP2 MSTORE PUSH1 0x20 ADD PUSH1 0x0 ISZERO ISZERO DUP2 MSTORE PUSH1 0x20 ADD PUSH1 0x0 DUP2 MSTORE PUSH1 0x20 ADD PUSH1 0x0 PUSH1 0x3 DUP2 GT ISZERO PUSH2 0x2849 JUMPI PUSH2 0x2848 PUSH2 0x2966 JUMP JUMPDEST JUMPDEST DUP2 MSTORE POP SWAP1 JUMP JUMPDEST PUSH1 0x0 PUSH1 0x40 MLOAD SWAP1 POP SWAP1 JUMP JUMPDEST PUSH1 0x0 DUP1 REVERT JUMPDEST PUSH1 0x0 DUP1 REVERT JUMPDEST PUSH1 0x0 DUP2 SWAP1 POP SWAP2 SWAP1 POP JUMP JUMPDEST PUSH2 0x2876 DUP2 PUSH2 0x2863 JUMP JUMPDEST DUP2 EQ PUSH2 0x2881 JUMPI PUSH1 0x0 DUP1 REVERT JUMPDEST POP JUMP JUMPDEST PUSH1 0x0 DUP2 CALLDATALOAD SWAP1 POP PUSH2 0x2893 DUP2 PUSH2 0x286D JUMP JUMPDEST SWAP3 SWAP2 POP POP JUMP JUMPDEST PUSH1 0x0 DUP2 ISZERO ISZERO SWAP1 POP SWAP2 SWAP1 POP JUMP JUMPDEST PUSH2 0x28AE DUP2 PUSH2 0x2899 JUMP JUMPDEST DUP2 EQ PUSH2 0x28B9 JUMPI PUSH1 0x0 DUP1 REVERT JUMPDEST POP JUMP JUMPDEST PUSH1 0x0 DUP2 CALLDATALOAD SWAP1 POP PUSH2 0x28CB DUP2 PUSH2 0x28A5 JUMP JUMPDEST SWAP3 SWAP2 POP POP JUMP JUMPDEST PUSH1 0x0 DUP1 PUSH1 0x40 DUP4 DUP6 SUB SLT ISZERO PUSH2 0x28E8 JUMPI PUSH2 0x28E7 PUSH2 0x2859 JUMP JUMPDEST JUMPDEST PUSH1 0x0 PUSH2 0x28F6 DUP6 DUP3 DUP7 ADD PUSH2 0x2884 JUMP JUMPDEST SWAP3 POP POP PUSH1 0x20 PUSH2 0x2907 DUP6 DUP3 DUP7 ADD PUSH2 0x28BC JUMP JUMPDEST SWAP2 POP POP SWAP3 POP SWAP3 SWAP1 POP JUMP JUMPDEST PUSH1 0x0 PUSH1 0x20 DUP3 DUP5 SUB SLT ISZERO PUSH2 0x2927 JUMPI PUSH2 0x2926 PUSH2 0x2859 JUMP JUMPDEST JUMPDEST PUSH1 0x0 PUSH2 0x2935 DUP5 DUP3 DUP6 ADD PUSH2 0x2884 JUMP JUMPDEST SWAP2 POP POP SWAP3 SWAP2 POP POP JUMP JUMPDEST PUSH2 0x2947 DUP2 PUSH2 0x2863 JUMP JUMPDEST DUP3 MSTORE POP POP JUMP JUMPDEST PUSH1 0x0 DUP2 SWAP1 POP SWAP2 SWAP1 POP JUMP JUMPDEST PUSH2 0x2960 DUP2 PUSH2 0x294D JUMP JUMPDEST DUP3 MSTORE POP POP JUMP JUMPDEST PUSH32 0x4E487B7100000000000000000000000000000000000000000000000000000000 PUSH1 0x0 MSTORE PUSH1 0x21 PUSH1 0x4 MSTORE PUSH1 0x24 PUSH1 0x0 REVERT JUMPDEST PUSH1 0x4 DUP2 LT PUSH2 0x29A6 JUMPI PUSH2 0x29A5 PUSH2 0x2966 JUMP JUMPDEST JUMPDEST POP JUMP JUMPDEST PUSH1 0x0 DUP2 SWAP1 POP PUSH2 0x29B7 DUP3 PUSH2 0x2995 JUMP JUMPDEST SWAP2 SWAP1 POP JUMP JUMPDEST PUSH1 0x0 PUSH2 0x29C7 DUP3 PUSH2 0x29A9 JUMP JUMPDEST SWAP1 POP SWAP2 SWAP1 POP JUMP JUMPDEST PUSH2 0x29D7 DUP2 PUSH2 0x29BC JUMP JUMPDEST DUP3 MSTORE POP POP JUMP JUMPDEST PUSH2 0x29E6 DUP2 PUSH2 0x2899 JUMP JUMPDEST DUP3 MSTORE POP POP JUMP JUMPDEST PUSH2 0x100 DUP3 ADD PUSH1 0x0 DUP3 ADD MLOAD PUSH2 0x2A03 PUSH1 0x0 DUP6 ADD DUP3 PUSH2 0x293E JUMP JUMPDEST POP PUSH1 0x20 DUP3 ADD MLOAD PUSH2 0x2A16 PUSH1 0x20 DUP6 ADD DUP3 PUSH2 0x2957 JUMP JUMPDEST POP PUSH1 0x40 DUP3 ADD MLOAD PUSH2 0x2A29 PUSH1 0x40 DUP6 ADD DUP3 PUSH2 0x2957 JUMP JUMPDEST POP PUSH1 0x60 DUP3 ADD MLOAD PUSH2 0x2A3C PUSH1 0x60 DUP6 ADD DUP3 PUSH2 0x293E JUMP JUMPDEST POP PUSH1 0x80 DUP3 ADD MLOAD PUSH2 0x2A4F PUSH1 0x80 DUP6 ADD DUP3 PUSH2 0x29CE JUMP JUMPDEST POP PUSH1 0xA0 DUP3 ADD MLOAD PUSH2 0x2A62 PUSH1 0xA0 DUP6 ADD DUP3 PUSH2 0x29DD JUMP JUMPDEST POP PUSH1 0xC0 DUP3 ADD MLOAD PUSH2 0x2A75 PUSH1 0xC0 DUP6 ADD DUP3 PUSH2 0x293E JUMP JUMPDEST POP PUSH1 0xE0 DUP3 ADD MLOAD PUSH2 0x2A88 PUSH1 0xE0 DUP6 ADD DUP3 PUSH2 0x293E JUMP JUMPDEST POP POP POP POP JUMP JUMPDEST PUSH1 0x0 PUSH2 0x100 DUP3 ADD SWAP1 POP PUSH2 0x2AA4 PUSH1 0x0 DUP4 ADD DUP5 PUSH2 0x29EC JUMP JUMPDEST SWAP3 SWAP2 POP POP JUMP JUMPDEST PUSH1 0x0 PUSH20 0xFFFFFFFFFFFFFFFFFFFFFFFFFFFFFFFFFFFFFFFF DUP3 AND SWAP1 POP SWAP2 SWAP1 POP JUMP JUMPDEST PUSH1 0x0 PUSH2 0x2AD5 DUP3 PUSH2 0x2AAA JUMP JUMPDEST SWAP1 POP SWAP2 SWAP1 POP JUMP JUMPDEST PUSH2 0x2AE5 DUP2 PUSH2 0x2ACA JUMP JUMPDEST DUP2 EQ PUSH2 0x2AF0 JUMPI PUSH1 0x0 DUP1 REVERT JUMPDEST POP JUMP JUMPDEST PUSH1 0x0 DUP2 CALLDATALOAD SWAP1 POP PUSH2 0x2B02 DUP2 PUSH2 0x2ADC JUMP JUMPDEST SWAP3 SWAP2 POP POP JUMP JUMPDEST PUSH1 0x0 DUP1 PUSH1 0x40 DUP4 DUP6 SUB SLT ISZERO PUSH2 0x2B1F JUMPI PUSH2 0x2B1E PUSH2 0x2859 JUMP JUMPDEST JUMPDEST PUSH1 0x0 PUSH2 0x2B2D DUP6 DUP3 DUP7 ADD PUSH2 0x2AF3 JUMP JUMPDEST SWAP3 POP POP PUSH1 0x20 PUSH2 0x2B3E DUP6 DUP3 DUP7 ADD PUSH2 0x2884 JUMP JUMPDEST SWAP2 POP POP SWAP3 POP SWAP3 SWAP1 POP JUMP JUMPDEST PUSH2 0x2B51 DUP2 PUSH2 0x2863 JUMP JUMPDEST DUP3 MSTORE POP POP JUMP JUMPDEST PUSH1 0x0 PUSH1 0x20 DUP3 ADD SWAP1 POP PUSH2 0x2B6C PUSH1 0x0 DUP4 ADD DUP5 PUSH2 0x2B48 JUMP JUMPDEST SWAP3 SWAP2 POP POP JUMP JUMPDEST PUSH2 0x2B7B DUP2 PUSH2 0x2ACA JUMP JUMPDEST DUP3 MSTORE POP POP JUMP JUMPDEST PUSH1 0x0 DUP2 MLOAD SWAP1 POP SWAP2 SWAP1 POP JUMP JUMPDEST PUSH1 0x0 DUP3 DUP3 MSTORE PUSH1 0x20 DUP3 ADD SWAP1 POP SWAP3 SWAP2 POP POP JUMP JUMPDEST PUSH1 0x0 JUMPDEST DUP4 DUP2 LT ISZERO PUSH2 0x2BBB JUMPI DUP1 DUP3 ADD MLOAD DUP2 DUP5 ADD MSTORE PUSH1 0x20 DUP2 ADD SWAP1 POP PUSH2 0x2BA0 JUMP JUMPDEST PUSH1 0x0 DUP5 DUP5 ADD MSTORE POP POP POP POP JUMP JUMPDEST PUSH1 0x0 PUSH1 0x1F NOT PUSH1 0x1F DUP4 ADD AND SWAP1 POP SWAP2 SWAP1 POP JUMP JUMPDEST PUSH1 0x0 PUSH2 0x2BE3 DUP3 PUSH2 0x2B81 JUMP JUMPDEST PUSH2 0x2BED DUP2 DUP6 PUSH2 0x2B8C JUMP JUMPDEST SWAP4 POP PUSH2 0x2BFD DUP2 DUP6 PUSH1 0x20 DUP7 ADD PUSH2 0x2B9D JUMP JUMPDEST PUSH2 0x2C06 DUP2 PUSH2 0x2BC7 JUMP JUMPDEST DUP5 ADD SWAP2 POP POP SWAP3 SWAP2 POP POP JUMP JUMPDEST PUSH1 0x4 DUP2 LT PUSH2 0x2C22 JUMPI PUSH2 0x2C21 PUSH2 0x2966 JUMP JUMPDEST JUMPDEST POP JUMP JUMPDEST PUSH1 0x0 DUP2 SWAP1 POP PUSH2 0x2C33 DUP3 PUSH2 0x2C11 JUMP JUMPDEST SWAP2 SWAP1 POP JUMP JUMPDEST PUSH1 0x0 PUSH2 0x2C43 DUP3 PUSH2 0x2C25 JUMP JUMPDEST SWAP1 POP SWAP2 SWAP1 POP JUMP JUMPDEST PUSH2 0x2C53 DUP2 PUSH2 0x2C38 JUMP JUMPDEST DUP3 MSTORE POP POP JUMP JUMPDEST PUSH1 0x0 PUSH2 0x160 DUP4 ADD PUSH1 0x0 DUP4 ADD MLOAD PUSH2 0x2C72 PUSH1 0x0 DUP7 ADD DUP3 PUSH2 0x293E JUMP JUMPDEST POP PUSH1 0x20 DUP4 ADD MLOAD PUSH2 0x2C85 PUSH1 0x20 DUP7 ADD DUP3 PUSH2 0x2B72 JUMP JUMPDEST POP PUSH1 0x40 DUP4 ADD MLOAD PUSH2 0x2C98 PUSH1 0x40 DUP7 ADD DUP3 PUSH2 0x293E JUMP JUMPDEST POP PUSH1 0x60 DUP4 ADD MLOAD DUP5 DUP3 SUB PUSH1 0x60 DUP7 ADD MSTORE PUSH2 0x2CB0 DUP3 DUP3 PUSH2 0x2BD8 JUMP JUMPDEST SWAP2 POP POP PUSH1 0x80 DUP4 ADD MLOAD DUP5 DUP3 SUB PUSH1 0x80 DUP7 ADD MSTORE PUSH2 0x2CCA DUP3 DUP3 PUSH2 0x2BD8 JUMP JUMPDEST SWAP2 POP POP PUSH1 0xA0 DUP4 ADD MLOAD PUSH2 0x2CDF PUSH1 0xA0 DUP7 ADD DUP3 PUSH2 0x2C4A JUMP JUMPDEST POP PUSH1 0xC0 DUP4 ADD MLOAD PUSH2 0x2CF2 PUSH1 0xC0 DUP7 ADD DUP3 PUSH2 0x293E JUMP JUMPDEST POP PUSH1 0xE0 DUP4 ADD MLOAD PUSH2 0x2D05 PUSH1 0xE0 DUP7 ADD DUP3 PUSH2 0x293E JUMP JUMPDEST POP PUSH2 0x100 DUP4 ADD MLOAD PUSH2 0x2D1A PUSH2 0x100 DUP7 ADD DUP3 PUSH2 0x29DD JUMP JUMPDEST POP PUSH2 0x120 DUP4 ADD MLOAD PUSH2 0x2D2F PUSH2 0x120 DUP7 ADD DUP3 PUSH2 0x293E JUMP JUMPDEST POP PUSH2 0x140 DUP4 ADD MLOAD PUSH2 0x2D44 PUSH2 0x140 DUP7 ADD DUP3 PUSH2 0x29CE JUMP JUMPDEST POP DUP1 SWAP2 POP POP SWAP3 SWAP2 POP POP JUMP JUMPDEST PUSH1 0x0 PUSH1 0x20 DUP3 ADD SWAP1 POP DUP2 DUP2 SUB PUSH1 0x0 DUP4 ADD MSTORE PUSH2 0x2D69 DUP2 DUP5 PUSH2 0x2C59 JUMP JUMPDEST SWAP1 POP SWAP3 SWAP2 POP POP JUMP JUMPDEST PUSH1 0x4 DUP2 LT PUSH2 0x2D7E JUMPI PUSH1 0x0 DUP1 REVERT JUMPDEST POP JUMP JUMPDEST PUSH1 0x0 DUP2 CALLDATALOAD SWAP1 POP PUSH2 0x2D90 DUP2 PUSH2 0x2D71 JUMP JUMPDEST SWAP3 SWAP2 POP POP JUMP JUMPDEST PUSH1 0x0 PUSH1 0x20 DUP3 DUP5 SUB SLT ISZERO PUSH2 0x2DAC JUMPI PUSH2 0x2DAB PUSH2 0x2859 JUMP JUMPDEST JUMPDEST PUSH1 0x0 PUSH2 0x2DBA DUP5 DUP3 DUP6 ADD PUSH2 0x2D81 JUMP JUMPDEST SWAP2 POP POP SWAP3 SWAP2 POP POP JUMP JUMPDEST PUSH2 0x2DCC DUP2 PUSH2 0x2899 JUMP JUMPDEST DUP3 MSTORE POP POP JUMP JUMPDEST PUSH1 0x0 PUSH1 0x20 DUP3 ADD SWAP1 POP PUSH2 0x2DE7 PUSH1 0x0 DUP4 ADD DUP5 PUSH2 0x2DC3 JUMP JUMPDEST SWAP3 SWAP2 POP POP JUMP JUMPDEST PUSH2 0x2DF6 DUP2 PUSH2 0x2ACA JUMP JUMPDEST DUP3 MSTORE POP POP JUMP JUMPDEST PUSH1 0x0 PUSH1 0x20 DUP3 ADD SWAP1 POP PUSH2 0x2E11 PUSH1 0x0 DUP4 ADD DUP5 PUSH2 0x2DED JUMP JUMPDEST SWAP3 SWAP2 POP POP JUMP JUMPDEST PUSH2 0x2E20 DUP2 PUSH2 0x294D JUMP JUMPDEST DUP3 MSTORE POP POP JUMP JUMPDEST PUSH2 0x2E2F DUP2 PUSH2 0x29BC JUMP JUMPDEST DUP3 MSTORE POP POP JUMP JUMPDEST PUSH1 0x0 PUSH2 0x100 DUP3 ADD SWAP1 POP PUSH2 0x2E4B PUSH1 0x0 DUP4 ADD DUP12 PUSH2 0x2B48 JUMP JUMPDEST PUSH2 0x2E58 PUSH1 0x20 DUP4 ADD DUP11 PUSH2 0x2E17 JUMP JUMPDEST PUSH2 0x2E65 PUSH1 0x40 DUP4 ADD DUP10 PUSH2 0x2E17 JUMP JUMPDEST PUSH2 0x2E72 PUSH1 0x60 DUP4 ADD DUP9 PUSH2 0x2B48 JUMP JUMPDEST PUSH2 0x2E7F PUSH1 0x80 DUP4 ADD DUP8 PUSH2 0x2E26 JUMP JUMPDEST PUSH2 0x2E8C PUSH1 0xA0 DUP4 ADD DUP7 PUSH2 0x2DC3 JUMP JUMPDEST PUSH2 0x2E99 PUSH1 0xC0 DUP4 ADD DUP6 PUSH2 0x2B48 JUMP JUMPDEST PUSH2 0x2EA6 PUSH1 0xE0 DUP4 ADD DUP5 PUSH2 0x2B48 JUMP JUMPDEST SWAP10 SWAP9 POP POP POP POP POP POP POP POP POP JUMP JUMPDEST PUSH1 0x0 DUP1 REVERT JUMPDEST PUSH1 0x0 DUP1 REVERT JUMPDEST PUSH32 0x4E487B7100000000000000000000000000000000000000000000000000000000 PUSH1 0x0 MSTORE PUSH1 0x41 PUSH1 0x4 MSTORE PUSH1 0x24 PUSH1 0x0 REVERT JUMPDEST PUSH2 0x2EF5 DUP3 PUSH2 0x2BC7 JUMP JUMPDEST DUP2 ADD DUP2 DUP2 LT PUSH8 0xFFFFFFFFFFFFFFFF DUP3 GT OR ISZERO PUSH2 0x2F14 JUMPI PUSH2 0x2F13 PUSH2 0x2EBD JUMP JUMPDEST JUMPDEST DUP1 PUSH1 0x40 MSTORE POP POP POP JUMP JUMPDEST PUSH1 0x0 PUSH2 0x2F27 PUSH2 0x284F JUMP JUMPDEST SWAP1 POP PUSH2 0x2F33 DUP3 DUP3 PUSH2 0x2EEC JUMP JUMPDEST SWAP2 SWAP1 POP JUMP JUMPDEST PUSH1 0x0 PUSH8 0xFFFFFFFFFFFFFFFF DUP3 GT ISZERO PUSH2 0x2F53 JUMPI PUSH2 0x2F52 PUSH2 0x2EBD JUMP JUMPDEST JUMPDEST PUSH2 0x2F5C DUP3 PUSH2 0x2BC7 JUMP JUMPDEST SWAP1 POP PUSH1 0x20 DUP2 ADD SWAP1 POP SWAP2 SWAP1 POP JUMP JUMPDEST DUP3 DUP2 DUP4 CALLDATACOPY PUSH1 0x0 DUP4 DUP4 ADD MSTORE POP POP POP JUMP JUMPDEST PUSH1 0x0 PUSH2 0x2F8B PUSH2 0x2F86 DUP5 PUSH2 0x2F38 JUMP JUMPDEST PUSH2 0x2F1D JUMP JUMPDEST SWAP1 POP DUP3 DUP2 MSTORE PUSH1 0x20 DUP2 ADD DUP5 DUP5 DUP5 ADD GT ISZERO PUSH2 0x2FA7 JUMPI PUSH2 0x2FA6 PUSH2 0x2EB8 JUMP JUMPDEST JUMPDEST PUSH2 0x2FB2 DUP5 DUP3 DUP6 PUSH2 0x2F69 JUMP JUMPDEST POP SWAP4 SWAP3 POP POP POP JUMP JUMPDEST PUSH1 0x0 DUP3 PUSH1 0x1F DUP4 ADD SLT PUSH2 0x2FCF JUMPI PUSH2 0x2FCE PUSH2 0x2EB3 JUMP JUMPDEST JUMPDEST DUP2 CALLDATALOAD PUSH2 0x2FDF DUP5 DUP3 PUSH1 0x20 DUP7 ADD PUSH2 0x2F78 JUMP JUMPDEST SWAP2 POP POP SWAP3 SWAP2 POP POP JUMP JUMPDEST PUSH1 0x0 DUP1 PUSH1 0x0 PUSH1 0x60 DUP5 DUP7 SUB SLT ISZERO PUSH2 0x3001 JUMPI PUSH2 0x3000 PUSH2 0x2859 JUMP JUMPDEST JUMPDEST PUSH1 0x0 PUSH2 0x300F DUP7 DUP3 DUP8 ADD PUSH2 0x2884 JUMP JUMPDEST SWAP4 POP POP PUSH1 0x20 DUP5 ADD CALLDATALOAD PUSH8 0xFFFFFFFFFFFFFFFF DUP2 GT ISZERO PUSH2 0x3030 JUMPI PUSH2 0x302F PUSH2 0x285E JUMP JUMPDEST JUMPDEST PUSH2 0x303C DUP7 DUP3 DUP8 ADD PUSH2 0x2FBA JUMP JUMPDEST SWAP3 POP POP PUSH1 0x40 PUSH2 0x304D DUP7 DUP3 DUP8 ADD PUSH2 0x28BC JUMP JUMPDEST SWAP2 POP POP SWAP3 POP SWAP3 POP SWAP3 JUMP JUMPDEST PUSH1 0x0 DUP3 DUP3 MSTORE PUSH1 0x20 DUP3 ADD SWAP1 POP SWAP3 SWAP2 POP POP JUMP JUMPDEST PUSH1 0x0 PUSH2 0x3073 DUP3 PUSH2 0x2B81 JUMP JUMPDEST PUSH2 0x307D DUP2 DUP6 PUSH2 0x3057 JUMP JUMPDEST SWAP4 POP PUSH2 0x308D DUP2 DUP6 PUSH1 0x20 DUP7 ADD PUSH2 0x2B9D JUMP JUMPDEST PUSH2 0x3096 DUP2 PUSH2 0x2BC7 JUMP JUMPDEST DUP5 ADD SWAP2 POP POP SWAP3 SWAP2 POP POP JUMP JUMPDEST PUSH2 0x30AA DUP2 PUSH2 0x2C38 JUMP JUMPDEST DUP3 MSTORE POP POP JUMP JUMPDEST PUSH1 0x0 PUSH2 0x160 DUP3 ADD SWAP1 POP PUSH2 0x30C6 PUSH1 0x0 DUP4 ADD DUP15 PUSH2 0x2B48 JUMP JUMPDEST PUSH2 0x30D3 PUSH1 0x20 DUP4 ADD DUP14 PUSH2 0x2DED JUMP JUMPDEST PUSH2 0x30E0 PUSH1 0x40 DUP4 ADD DUP13 PUSH2 0x2B48 JUMP JUMPDEST DUP2 DUP2 SUB PUSH1 0x60 DUP4 ADD MSTORE PUSH2 0x30F2 DUP2 DUP12 PUSH2 0x3068 JUMP JUMPDEST SWAP1 POP DUP2 DUP2 SUB PUSH1 0x80 DUP4 ADD MSTORE PUSH2 0x3106 DUP2 DUP11 PUSH2 0x3068 JUMP JUMPDEST SWAP1 POP PUSH2 0x3115 PUSH1 0xA0 DUP4 ADD DUP10 PUSH2 0x30A1 JUMP JUMPDEST PUSH2 0x3122 PUSH1 0xC0 DUP4 ADD DUP9 PUSH2 0x2B48 JUMP JUMPDEST PUSH2 0x312F PUSH1 0xE0 DUP4 ADD DUP8 PUSH2 0x2B48 JUMP JUMPDEST PUSH2 0x313D PUSH2 0x100 DUP4 ADD DUP7 PUSH2 0x2DC3 JUMP JUMPDEST PUSH2 0x314B PUSH2 0x120 DUP4 ADD DUP6 PUSH2 0x2B48 JUMP JUMPDEST PUSH2 0x3159 PUSH2 0x140 DUP4 ADD DUP5 PUSH2 0x2E26 JUMP JUMPDEST SWAP13 SWAP12 POP POP POP POP POP POP POP POP POP POP POP POP JUMP JUMPDEST PUSH1 0x0 PUSH1 0x20 DUP3 DUP5 SUB SLT ISZERO PUSH2 0x317F JUMPI PUSH2 0x317E PUSH2 0x2859 JUMP JUMPDEST JUMPDEST PUSH1 0x0 PUSH2 0x318D DUP5 DUP3 DUP6 ADD PUSH2 0x2AF3 JUMP JUMPDEST SWAP2 POP POP SWAP3 SWAP2 POP POP JUMP JUMPDEST PUSH1 0x0 DUP2 MLOAD SWAP1 POP SWAP2 SWAP1 POP JUMP JUMPDEST PUSH1 0x0 DUP3 DUP3 MSTORE PUSH1 0x20 DUP3 ADD SWAP1 POP SWAP3 SWAP2 POP POP JUMP JUMPDEST PUSH1 0x0 DUP2 SWAP1 POP PUSH1 0x20 DUP3 ADD SWAP1 POP SWAP2 SWAP1 POP JUMP JUMPDEST PUSH1 0x0 PUSH2 0x31CE DUP4 DUP4 PUSH2 0x293E JUMP JUMPDEST PUSH1 0x20 DUP4 ADD SWAP1 POP SWAP3 SWAP2 POP POP JUMP JUMPDEST PUSH1 0x0 PUSH1 0x20 DUP3 ADD SWAP1 POP SWAP2 SWAP1 POP JUMP JUMPDEST PUSH1 0x0 PUSH2 0x31F2 DUP3 PUSH2 0x3196 JUMP JUMPDEST PUSH2 0x31FC DUP2 DUP6 PUSH2 0x31A1 JUMP JUMPDEST SWAP4 POP PUSH2 0x3207 DUP4 PUSH2 0x31B2 JUMP JUMPDEST DUP1 PUSH1 0x0 JUMPDEST DUP4 DUP2 LT ISZERO PUSH2 0x3238 JUMPI DUP2 MLOAD PUSH2 0x321F DUP9 DUP3 PUSH2 0x31C2 JUMP JUMPDEST SWAP8 POP PUSH2 0x322A DUP4 PUSH2 0x31DA JUMP JUMPDEST SWAP3 POP POP PUSH1 0x1 DUP2 ADD SWAP1 POP PUSH2 0x320B JUMP JUMPDEST POP DUP6 SWAP4 POP POP POP POP SWAP3 SWAP2 POP POP JUMP JUMPDEST PUSH1 0x0 PUSH1 0x20 DUP3 ADD SWAP1 POP DUP2 DUP2 SUB PUSH1 0x0 DUP4 ADD MSTORE PUSH2 0x325F DUP2 DUP5 PUSH2 0x31E7 JUMP JUMPDEST SWAP1 POP SWAP3 SWAP2 POP POP JUMP JUMPDEST PUSH1 0x0 DUP1 PUSH1 0x0 DUP1 PUSH1 0x0 PUSH1 0xA0 DUP7 DUP9 SUB SLT ISZERO PUSH2 0x3283 JUMPI PUSH2 0x3282 PUSH2 0x2859 JUMP JUMPDEST JUMPDEST PUSH1 0x0 PUSH2 0x3291 DUP9 DUP3 DUP10 ADD PUSH2 0x2884 JUMP JUMPDEST SWAP6 POP POP PUSH1 0x20 PUSH2 0x32A2 DUP9 DUP3 DUP10 ADD PUSH2 0x2884 JUMP JUMPDEST SWAP5 POP POP PUSH1 0x40 PUSH2 0x32B3 DUP9 DUP3 DUP10 ADD PUSH2 0x2884 JUMP JUMPDEST SWAP4 POP POP PUSH1 0x60 PUSH2 0x32C4 DUP9 DUP3 DUP10 ADD PUSH2 0x2884 JUMP JUMPDEST SWAP3 POP POP PUSH1 0x80 PUSH2 0x32D5 DUP9 DUP3 DUP10 ADD PUSH2 0x2AF3 JUMP JUMPDEST SWAP2 POP POP SWAP3 SWAP6 POP SWAP3 SWAP6 SWAP1 SWAP4 POP JUMP JUMPDEST PUSH1 0x0 DUP1 PUSH1 0x40 DUP4 DUP6 SUB SLT ISZERO PUSH2 0x32F9 JUMPI PUSH2 0x32F8 PUSH2 0x2859 JUMP JUMPDEST JUMPDEST PUSH1 0x0 PUSH2 0x3307 DUP6 DUP3 DUP7 ADD PUSH2 0x2AF3 JUMP JUMPDEST SWAP3 POP POP PUSH1 0x20 PUSH2 0x3318 DUP6 DUP3 DUP7 ADD PUSH2 0x28BC JUMP JUMPDEST SWAP2 POP POP SWAP3 POP SWAP3 SWAP1 POP JUMP JUMPDEST PUSH1 0x0 PUSH1 0x80 DUP3 ADD SWAP1 POP PUSH2 0x3337 PUSH1 0x0 DUP4 ADD DUP8 PUSH2 0x2B48 JUMP JUMPDEST PUSH2 0x3344 PUSH1 0x20 DUP4 ADD DUP7 PUSH2 0x2B48 JUMP JUMPDEST PUSH2 0x3351 PUSH1 0x40 DUP4 ADD DUP6 PUSH2 0x2DC3 JUMP JUMPDEST PUSH2 0x335E PUSH1 0x60 DUP4 ADD DUP5 PUSH2 0x2B48 JUMP JUMPDEST SWAP6 SWAP5 POP POP POP POP POP JUMP JUMPDEST PUSH1 0x0 DUP1 PUSH1 0x40 DUP4 DUP6 SUB SLT ISZERO PUSH2 0x337E JUMPI PUSH2 0x337D PUSH2 0x2859 JUMP JUMPDEST JUMPDEST PUSH1 0x0 PUSH2 0x338C DUP6 DUP3 DUP7 ADD PUSH2 0x2884 JUMP JUMPDEST SWAP3 POP POP PUSH1 0x20 DUP4 ADD CALLDATALOAD PUSH8 0xFFFFFFFFFFFFFFFF DUP2 GT ISZERO PUSH2 0x33AD JUMPI PUSH2 0x33AC PUSH2 0x285E JUMP JUMPDEST JUMPDEST PUSH2 0x33B9 DUP6 DUP3 DUP7 ADD PUSH2 0x2FBA JUMP JUMPDEST SWAP2 POP POP SWAP3 POP SWAP3 SWAP1 POP JUMP JUMPDEST PUSH1 0x0 PUSH1 0xE0 DUP3 ADD SWAP1 POP PUSH2 0x33D8 PUSH1 0x0 DUP4 ADD DUP11 PUSH2 0x2B48 JUMP JUMPDEST PUSH2 0x33E5 PUSH1 0x20 DUP4 ADD DUP10 PUSH2 0x2B48 JUMP JUMPDEST PUSH2 0x33F2 PUSH1 0x40 DUP4 ADD DUP9 PUSH2 0x2B48 JUMP JUMPDEST PUSH2 0x33FF PUSH1 0x60 DUP4 ADD DUP8 PUSH2 0x2B48 JUMP JUMPDEST PUSH2 0x340C PUSH1 0x80 DUP4 ADD DUP7 PUSH2 0x2B48 JUMP JUMPDEST PUSH2 0x3419 PUSH1 0xA0 DUP4 ADD DUP6 PUSH2 0x2B48 JUMP JUMPDEST PUSH2 0x3426 PUSH1 0xC0 DUP4 ADD DUP5 PUSH2 0x2B48 JUMP JUMPDEST SWAP9 SWAP8 POP POP POP POP POP POP POP POP JUMP JUMPDEST PUSH2 0x343B DUP2 PUSH2 0x294D JUMP JUMPDEST DUP2 EQ PUSH2 0x3446 JUMPI PUSH1 0x0 DUP1 REVERT JUMPDEST POP JUMP JUMPDEST PUSH1 0x0 DUP2 CALLDATALOAD SWAP1 POP PUSH2 0x3458 DUP2 PUSH2 0x3432 JUMP JUMPDEST SWAP3 SWAP2 POP POP JUMP JUMPDEST PUSH1 0x0 DUP1 PUSH1 0x0 DUP1 PUSH1 0x0 PUSH1 0xA0 DUP7 DUP9 SUB SLT ISZERO PUSH2 0x347A JUMPI PUSH2 0x3479 PUSH2 0x2859 JUMP JUMPDEST JUMPDEST PUSH1 0x0 PUSH2 0x3488 DUP9 DUP3 DUP10 ADD PUSH2 0x2884 JUMP JUMPDEST SWAP6 POP POP PUSH1 0x20 PUSH2 0x3499 DUP9 DUP3 DUP10 ADD PUSH2 0x3449 JUMP JUMPDEST SWAP5 POP POP PUSH1 0x40 PUSH2 0x34AA DUP9 DUP3 DUP10 ADD PUSH2 0x3449 JUMP JUMPDEST SWAP4 POP POP PUSH1 0x60 PUSH2 0x34BB DUP9 DUP3 DUP10 ADD PUSH2 0x2884 JUMP JUMPDEST SWAP3 POP POP PUSH1 0x80 PUSH2 0x34CC DUP9 DUP3 DUP10 ADD PUSH2 0x2D81 JUMP JUMPDEST SWAP2 POP POP SWAP3 SWAP6 POP SWAP3 SWAP6 SWAP1 SWAP4 POP JUMP JUMPDEST PUSH32 0x5374617220646F6573206E6F7420657869737400000000000000000000000000 PUSH1 0x0 DUP3 ADD MSTORE POP JUMP JUMPDEST PUSH1 0x0 PUSH2 0x350F PUSH1 0x13 DUP4 PUSH2 0x3057 JUMP JUMPDEST SWAP2 POP PUSH2 0x351A DUP3 PUSH2 0x34D9 JUMP JUMPDEST PUSH1 0x20 DUP3 ADD SWAP1 POP SWAP2 SWAP1 POP JUMP JUMPDEST PUSH1 0x0 PUSH1 0x20 DUP3 ADD SWAP1 POP DUP2 DUP2 SUB PUSH1 0x0 DUP4 ADD MSTORE PUSH2 0x353E DUP2 PUSH2 0x3502 JUMP JUMPDEST SWAP1 POP SWAP2 SWAP1 POP JUMP JUMPDEST PUSH32 0x496E76616C6964207374616B6520616D6F756E74000000000000000000000000 PUSH1 0x0 DUP3 ADD MSTORE POP JUMP JUMPDEST PUSH1 0x0 PUSH2 0x357B PUSH1 0x14 DUP4 PUSH2 0x3057 JUMP JUMPDEST SWAP2 POP PUSH2 0x3586 DUP3 PUSH2 0x3545 JUMP JUMPDEST PUSH1 0x20 DUP3 ADD SWAP1 POP SWAP2 SWAP1 POP JUMP JUMPDEST PUSH1 0x0 PUSH1 0x20 DUP3 ADD SWAP1 POP DUP2 DUP2 SUB PUSH1 0x0 DUP4 ADD MSTORE PUSH2 0x35AA DUP2 PUSH2 0x356E JUMP JUMPDEST SWAP1 POP SWAP2 SWAP1 POP JUMP JUMPDEST PUSH32 0x53746172206E6F74206163746976650000000000000000000000000000000000 PUSH1 0x0 DUP3 ADD MSTORE POP JUMP JUMPDEST PUSH1 0x0 PUSH2 0x35E7 PUSH1 0xF DUP4 PUSH2 0x3057 JUMP JUMPDEST SWAP2 POP PUSH2 0x35F2 DUP3 PUSH2 0x35B1 JUMP JUMPDEST PUSH1 0x20 DUP3 ADD SWAP1 POP SWAP2 SWAP1 POP JUMP JUMPDEST PUSH1 0x0 PUSH1 0x20 DUP3 ADD SWAP1 POP DUP2 DUP2 SUB PUSH1 0x0 DUP4 ADD MSTORE PUSH2 0x3616 DUP2 PUSH2 0x35DA JUMP JUMPDEST SWAP1 POP SWAP2 SWAP1 POP JUMP JUMPDEST PUSH32 0x416C7265616479206861766520616374697665207374616B6500000000000000 PUSH1 0x0 DUP3 ADD MSTORE POP JUMP JUMPDEST PUSH1 0x0 PUSH2 0x3653 PUSH1 0x19 DUP4 PUSH2 0x3057 JUMP JUMPDEST SWAP2 POP PUSH2 0x365E DUP3 PUSH2 0x361D JUMP JUMPDEST PUSH1 0x20 DUP3 ADD SWAP1 POP SWAP2 SWAP1 POP JUMP JUMPDEST PUSH1 0x0 PUSH1 0x20 DUP3 ADD SWAP1 POP DUP2 DUP2 SUB PUSH1 0x0 DUP4 ADD MSTORE PUSH2 0x3682 DUP2 PUSH2 0x3646 JUMP JUMPDEST SWAP1 POP SWAP2 SWAP1 POP JUMP JUMPDEST PUSH32 0x4E487B7100000000000000000000000000000000000000000000000000000000 PUSH1 0x0 MSTORE PUSH1 0x22 PUSH1 0x4 MSTORE PUSH1 0x24 PUSH1 0x0 REVERT JUMPDEST PUSH1 0x0 PUSH1 0x2 DUP3 DIV SWAP1 POP PUSH1 0x1 DUP3 AND DUP1 PUSH2 0x36D0 JUMPI PUSH1 0x7F DUP3 AND SWAP2 POP JUMPDEST PUSH1 0x20 DUP3 LT DUP2 SUB PUSH2 0x36E3 JUMPI PUSH2 0x36E2 PUSH2 0x3689 JUMP JUMPDEST JUMPDEST POP SWAP2 SWAP1 POP JUMP JUMPDEST PUSH1 0x0 DUP2 SWAP1 POP DUP2 PUSH1 0x0 MSTORE PUSH1 0x20 PUSH1 0x0 KECCAK256 SWAP1 POP SWAP2 SWAP1 POP JUMP JUMPDEST PUSH1 0x0 PUSH1 0x20 PUSH1 0x1F DUP4 ADD DIV SWAP1 POP SWAP2 SWAP1 POP JUMP JUMPDEST PUSH1 0x0 DUP3 DUP3 SHL SWAP1 POP SWAP3 SWAP2 POP POP JUMP JUMPDEST PUSH1 0x0 PUSH1 0x8 DUP4 MUL PUSH2 0x374B PUSH32 0xFFFFFFFFFFFFFFFFFFFFFFFFFFFFFFFFFFFFFFFFFFFFFFFFFFFFFFFFFFFFFFFF DUP3 PUSH2 0x370E JUMP JUMPDEST PUSH2 0x3755 DUP7 DUP4 PUSH2 0x370E JUMP JUMPDEST SWAP6 POP DUP1 NOT DUP5 AND SWAP4 POP DUP1 DUP7 AND DUP5 OR SWAP3 POP POP POP SWAP4 SWAP3 POP POP POP JUMP JUMPDEST PUSH1 0x0 DUP2 SWAP1 POP SWAP2 SWAP1 POP JUMP JUMPDEST PUSH1 0x0 PUSH2 0x3792 PUSH2 0x378D PUSH2 0x3788 DUP5 PUSH2 0x2863 JUMP JUMPDEST PUSH2 0x376D JUMP JUMPDEST PUSH2 0x2863 JUMP JUMPDEST SWAP1 POP SWAP2 SWAP1 POP JUMP JUMPDEST PUSH1 0x0 DUP2 SWAP1 POP SWAP2 SWAP1 POP JUMP JUMPDEST PUSH2 0x37AC DUP4 PUSH2 0x3777 JUMP JUMPDEST PUSH2 0x37C0 PUSH2 0x37B8 DUP3 PUSH2 0x3799 JUMP JUMPDEST DUP5 DUP5 SLOAD PUSH2 0x371B JUMP JUMPDEST DUP3 SSTORE POP POP POP POP JUMP JUMPDEST PUSH1 0x0 SWAP1 JUMP JUMPDEST PUSH2 0x37D5 PUSH2 0x37C8 JUMP JUMPDEST PUSH2 0x37E0 DUP2 DUP5 DUP5 PUSH2 0x37A3 JUMP JUMPDEST POP POP POP JUMP JUMPDEST JUMPDEST DUP2 DUP2 LT ISZERO PUSH2 0x3804 JUMPI PUSH2 0x37F9 PUSH1 0x0 DUP3 PUSH2 0x37CD JUMP JUMPDEST PUSH1 0x1 DUP2 ADD SWAP1 POP PUSH2 0x37E6 JUMP JUMPDEST POP POP JUMP JUMPDEST PUSH1 0x1F DUP3 GT ISZERO PUSH2 0x3849 JUMPI PUSH2 0x381A DUP2 PUSH2 0x36E9 JUMP JUMPDEST PUSH2 0x3823 DUP5 PUSH2 0x36FE JUMP JUMPDEST DUP2 ADD PUSH1 0x20 DUP6 LT ISZERO PUSH2 0x3832 JUMPI DUP2 SWAP1 POP JUMPDEST PUSH2 0x3846 PUSH2 0x383E DUP6 PUSH2 0x36FE JUMP JUMPDEST DUP4 ADD DUP3 PUSH2 0x37E5 JUMP JUMPDEST POP POP JUMPDEST POP POP POP JUMP JUMPDEST PUSH1 0x0 DUP3 DUP3 SHR SWAP1 POP SWAP3 SWAP2 POP POP JUMP JUMPDEST PUSH1 0x0 PUSH2 0x386C PUSH1 0x0 NOT DUP5 PUSH1 0x8 MUL PUSH2 0x384E JUMP JUMPDEST NOT DUP1 DUP4 AND SWAP2 POP POP SWAP3 SWAP2 POP POP JUMP JUMPDEST PUSH1 0x0 PUSH2 0x3885 DUP4 DUP4 PUSH2 0x385B JUMP JUMPDEST SWAP2 POP DUP3 PUSH1 0x2 MUL DUP3 OR SWAP1 POP SWAP3 SWAP2 POP POP JUMP JUMPDEST PUSH2 0x389E DUP3 PUSH2 0x2B81 JUMP JUMPDEST PUSH8 0xFFFFFFFFFFFFFFFF DUP2 GT ISZERO PUSH2 0x38B7 JUMPI PUSH2 0x38B6 PUSH2 0x2EBD JUMP JUMPDEST JUMPDEST PUSH2 0x38C1 DUP3 SLOAD PUSH2 0x36B8 JUMP JUMPDEST PUSH2 0x38CC DUP3 DUP3 DUP6 PUSH2 0x3808 JUMP JUMPDEST PUSH1 0x0 PUSH1 0x20 SWAP1 POP PUSH1 0x1F DUP4 GT PUSH1 0x1 DUP2 EQ PUSH2 0x38FF JUMPI PUSH1 0x0 DUP5 ISZERO PUSH2 0x38ED JUMPI DUP3 DUP8 ADD MLOAD SWAP1 POP JUMPDEST PUSH2 0x38F7 DUP6 DUP3 PUSH2 0x3879 JUMP JUMPDEST DUP7 SSTORE POP PUSH2 0x395F JUMP JUMPDEST PUSH1 0x1F NOT DUP5 AND PUSH2 0x390D DUP7 PUSH2 0x36E9 JUMP JUMPDEST PUSH1 0x0 JUMPDEST DUP3 DUP2 LT ISZERO PUSH2 0x3935 JUMPI DUP5 DUP10 ADD MLOAD DUP3 SSTORE PUSH1 0x1 DUP3 ADD SWAP2 POP PUSH1 0x20 DUP6 ADD SWAP5 POP PUSH1 0x20 DUP2 ADD SWAP1 POP PUSH2 0x3910 JUMP JUMPDEST DUP7 DUP4 LT ISZERO PUSH2 0x3952 JUMPI DUP5 DUP10 ADD MLOAD PUSH2 0x394E PUSH1 0x1F DUP10 AND DUP3 PUSH2 0x385B JUMP JUMPDEST DUP4 SSTORE POP JUMPDEST PUSH1 0x1 PUSH1 0x2 DUP9 MUL ADD DUP9 SSTORE POP POP POP JUMPDEST POP POP POP POP POP POP JUMP JUMPDEST PUSH32 0x4E487B7100000000000000000000000000000000000000000000000000000000 PUSH1 0x0 MSTORE PUSH1 0x11 PUSH1 0x4 MSTORE PUSH1 0x24 PUSH1 0x0 REVERT JUMPDEST PUSH1 0x0 PUSH2 0x39A1 DUP3 PUSH2 0x2863 JUMP JUMPDEST SWAP2 POP PUSH2 0x39AC DUP4 PUSH2 0x2863 JUMP JUMPDEST SWAP3 POP DUP3 DUP3 ADD SWAP1 POP DUP1 DUP3 GT ISZERO PUSH2 0x39C4 JUMPI PUSH2 0x39C3 PUSH2 0x3967 JUMP JUMPDEST JUMPDEST SWAP3 SWAP2 POP POP JUMP JUMPDEST PUSH1 0x0 PUSH1 0x40 DUP3 ADD SWAP1 POP PUSH2 0x39DF PUSH1 0x0 DUP4 ADD DUP6 PUSH2 0x2B48 JUMP JUMPDEST PUSH2 0x39EC PUSH1 0x20 DUP4 ADD DUP5 PUSH2 0x2B48 JUMP JUMPDEST SWAP4 SWAP3 POP POP POP JUMP JUMPDEST PUSH32 0x4E6F7420617574686F72697A6564204149000000000000000000000000000000 PUSH1 0x0 DUP3 ADD MSTORE POP JUMP JUMPDEST PUSH1 0x0 PUSH2 0x3A29 PUSH1 0x11 DUP4 PUSH2 0x3057 JUMP JUMPDEST SWAP2 POP PUSH2 0x3A34 DUP3 PUSH2 0x39F3 JUMP JUMPDEST PUSH1 0x20 DUP3 ADD SWAP1 POP SWAP2 SWAP1 POP JUMP JUMPDEST PUSH1 0x0 PUSH1 0x20 DUP3 ADD SWAP1 POP DUP2 DUP2 SUB PUSH1 0x0 DUP4 ADD MSTORE PUSH2 0x3A58 DUP2 PUSH2 0x3A1C JUMP JUMPDEST SWAP1 POP SWAP2 SWAP1 POP JUMP JUMPDEST PUSH32 0x4368616C6C656E6765206E6F7420616374697665000000000000000000000000 PUSH1 0x0 DUP3 ADD MSTORE POP JUMP JUMPDEST PUSH1 0x0 PUSH2 0x3A95 PUSH1 0x14 DUP4 PUSH2 0x3057 JUMP JUMPDEST SWAP2 POP PUSH2 0x3AA0 DUP3 PUSH2 0x3A5F JUMP JUMPDEST PUSH1 0x20 DUP3 ADD SWAP1 POP SWAP2 SWAP1 POP JUMP JUMPDEST PUSH1 0x0 PUSH1 0x20 DUP3 ADD SWAP1 POP DUP2 DUP2 SUB PUSH1 0x0 DUP4 ADD MSTORE PUSH2 0x3AC4 DUP2 PUSH2 0x3A88 JUMP JUMPDEST SWAP1 POP SWAP2 SWAP1 POP JUMP JUMPDEST PUSH32 0x496E76616C6964207374616B6500000000000000000000000000000000000000 PUSH1 0x0 DUP3 ADD MSTORE POP JUMP JUMPDEST PUSH1 0x0 PUSH2 0x3B01 PUSH1 0xD DUP4 PUSH2 0x3057 JUMP JUMPDEST SWAP2 POP PUSH2 0x3B0C DUP3 PUSH2 0x3ACB JUMP JUMPDEST PUSH1 0x20 DUP3 ADD SWAP1 POP SWAP2 SWAP1 POP JUMP JUMPDEST PUSH1 0x0 PUSH1 0x20 DUP3 ADD SWAP1 POP DUP2 DUP2 SUB PUSH1 0x0 DUP4 ADD MSTORE PUSH2 0x3B30 DUP2 PUSH2 0x3AF4 JUMP JUMPDEST SWAP1 POP SWAP2 SWAP1 POP JUMP JUMPDEST PUSH1 0x0 PUSH2 0x3B42 DUP3 PUSH2 0x2863 JUMP JUMPDEST SWAP2 POP PUSH2 0x3B4D DUP4 PUSH2 0x2863 JUMP JUMPDEST SWAP3 POP DUP3 DUP3 MUL PUSH2 0x3B5B DUP2 PUSH2 0x2863 JUMP JUMPDEST SWAP2 POP DUP3 DUP3 DIV DUP5 EQ DUP4 ISZERO OR PUSH2 0x3B72 JUMPI PUSH2 0x3B71 PUSH2 0x3967 JUMP JUMPDEST JUMPDEST POP SWAP3 SWAP2 POP POP JUMP JUMPDEST PUSH32 0x4E487B7100000000000000000000000000000000000000000000000000000000 PUSH1 0x0 MSTORE PUSH1 0x12 PUSH1 0x4 MSTORE PUSH1 0x24 PUSH1 0x0 REVERT JUMPDEST PUSH1 0x0 PUSH2 0x3BB3 DUP3 PUSH2 0x2863 JUMP JUMPDEST SWAP2 POP PUSH2 0x3BBE DUP4 PUSH2 0x2863 JUMP JUMPDEST SWAP3 POP DUP3 PUSH2 0x3BCE JUMPI PUSH2 0x3BCD PUSH2 0x3B79 JUMP JUMPDEST JUMPDEST DUP3 DUP3 DIV SWAP1 POP SWAP3 SWAP2 POP POP JUMP JUMPDEST PUSH1 0x0 PUSH2 0x3BE4 DUP3 PUSH2 0x2863 JUMP JUMPDEST SWAP2 POP PUSH2 0x3BEF DUP4 PUSH2 0x2863 JUMP JUMPDEST SWAP3 POP DUP3 DUP3 SUB SWAP1 POP DUP2 DUP2 GT ISZERO PUSH2 0x3C07 JUMPI PUSH2 0x3C06 PUSH2 0x3967 JUMP JUMPDEST JUMPDEST SWAP3 SWAP2 POP POP JUMP JUMPDEST PUSH1 0x0 PUSH2 0x3C18 DUP3 PUSH2 0x2863 JUMP JUMPDEST SWAP2 POP PUSH32 0xFFFFFFFFFFFFFFFFFFFFFFFFFFFFFFFFFFFFFFFFFFFFFFFFFFFFFFFFFFFFFFFF DUP3 SUB PUSH2 0x3C4A JUMPI PUSH2 0x3C49 PUSH2 0x3967 JUMP JUMPDEST JUMPDEST PUSH1 0x1 DUP3 ADD SWAP1 POP SWAP2 SWAP1 POP JUMP JUMPDEST PUSH1 0x0 PUSH1 0x40 DUP3 ADD SWAP1 POP PUSH2 0x3C6A PUSH1 0x0 DUP4 ADD DUP6 PUSH2 0x2DC3 JUMP JUMPDEST PUSH2 0x3C77 PUSH1 0x20 DUP4 ADD DUP5 PUSH2 0x2B48 JUMP JUMPDEST SWAP4 SWAP3 POP POP POP JUMP JUMPDEST PUSH1 0x0 PUSH1 0x40 DUP3 ADD SWAP1 POP PUSH2 0x3C93 PUSH1 0x0 DUP4 ADD DUP6 PUSH2 0x2B48 JUMP JUMPDEST DUP2 DUP2 SUB PUSH1 0x20 DUP4 ADD MSTORE PUSH2 0x3CA5 DUP2 DUP5 PUSH2 0x3068 JUMP JUMPDEST SWAP1 POP SWAP4 SWAP3 POP POP POP JUMP JUMPDEST PUSH32 0x5374617220616C72656164792065786973747300000000000000000000000000 PUSH1 0x0 DUP3 ADD MSTORE POP JUMP JUMPDEST PUSH1 0x0 PUSH2 0x3CE4 PUSH1 0x13 DUP4 PUSH2 0x3057 JUMP JUMPDEST SWAP2 POP PUSH2 0x3CEF DUP3 PUSH2 0x3CAE JUMP JUMPDEST PUSH1 0x20 DUP3 ADD SWAP1 POP SWAP2 SWAP1 POP JUMP JUMPDEST PUSH1 0x0 PUSH1 0x20 DUP3 ADD SWAP1 POP DUP2 DUP2 SUB PUSH1 0x0 DUP4 ADD MSTORE PUSH2 0x3D13 DUP2 PUSH2 0x3CD7 JUMP JUMPDEST SWAP1 POP SWAP2 SWAP1 POP JUMP JUMPDEST PUSH1 0x0 PUSH1 0x60 DUP3 ADD SWAP1 POP PUSH2 0x3D2F PUSH1 0x0 DUP4 ADD DUP7 PUSH2 0x2E17 JUMP JUMPDEST PUSH2 0x3D3C PUSH1 0x20 DUP4 ADD DUP6 PUSH2 0x2E17 JUMP JUMPDEST PUSH2 0x3D49 PUSH1 0x40 DUP4 ADD DUP5 PUSH2 0x2E26 JUMP JUMPDEST SWAP5 SWAP4 POP POP POP POP JUMP JUMPDEST PUSH32 0x4E6F20616374697665207374616B650000000000000000000000000000000000 PUSH1 0x0 DUP3 ADD MSTORE POP JUMP JUMPDEST PUSH1 0x0 PUSH2 0x3D87 PUSH1 0xF DUP4 PUSH2 0x3057 JUMP JUMPDEST SWAP2 POP PUSH2 0x3D92 DUP3 PUSH2 0x3D51 JUMP JUMPDEST PUSH1 0x20 DUP3 ADD SWAP1 POP SWAP2 SWAP1 POP JUMP JUMPDEST PUSH1 0x0 PUSH1 0x20 DUP3 ADD SWAP1 POP DUP2 DUP2 SUB PUSH1 0x0 DUP4 ADD MSTORE PUSH2 0x3DB6 DUP2 PUSH2 0x3D7A JUMP JUMPDEST SWAP1 POP SWAP2 SWAP1 POP JUMP JUMPDEST PUSH32 0x4D757374207761697420323420686F7572730000000000000000000000000000 PUSH1 0x0 DUP3 ADD MSTORE POP JUMP JUMPDEST PUSH1 0x0 PUSH2 0x3DF3 PUSH1 0x12 DUP4 PUSH2 0x3057 JUMP JUMPDEST SWAP2 POP PUSH2 0x3DFE DUP3 PUSH2 0x3DBD JUMP JUMPDEST PUSH1 0x20 DUP3 ADD SWAP1 POP SWAP2 SWAP1 POP JUMP JUMPDEST PUSH1 0x0 PUSH1 0x20 DUP3 ADD SWAP1 POP DUP2 DUP2 SUB PUSH1 0x0 DUP4 ADD MSTORE PUSH2 0x3E22 DUP2 PUSH2 0x3DE6 JUMP JUMPDEST SWAP1 POP SWAP2 SWAP1 POP JUMP JUMPDEST PUSH32 0x4F776E61626C653A206E6577206F776E657220697320746865207A65726F2061 PUSH1 0x0 DUP3 ADD MSTORE PUSH32 0x6464726573730000000000000000000000000000000000000000000000000000 PUSH1 0x20 DUP3 ADD MSTORE POP JUMP JUMPDEST PUSH1 0x0 PUSH2 0x3E85 PUSH1 0x26 DUP4 PUSH2 0x3057 JUMP JUMPDEST SWAP2 POP PUSH2 0x3E90 DUP3 PUSH2 0x3E29 JUMP JUMPDEST PUSH1 0x40 DUP3 ADD SWAP1 POP SWAP2 SWAP1 POP JUMP JUMPDEST PUSH1 0x0 PUSH1 0x20 DUP3 ADD SWAP1 POP DUP2 DUP2 SUB PUSH1 0x0 DUP4 ADD MSTORE PUSH2 0x3EB4 DUP2 PUSH2 0x3E78 JUMP JUMPDEST SWAP1 POP SWAP2 SWAP1 POP JUMP JUMPDEST PUSH32 0x4F776E61626C653A2063616C6C6572206973206E6F7420746865206F776E6572 PUSH1 0x0 DUP3 ADD MSTORE POP JUMP JUMPDEST PUSH1 0x0 PUSH2 0x3EF1 PUSH1 0x20 DUP4 PUSH2 0x3057 JUMP JUMPDEST SWAP2 POP PUSH2 0x3EFC DUP3 PUSH2 0x3EBB JUMP JUMPDEST PUSH1 0x20 DUP3 ADD SWAP1 POP SWAP2 SWAP1 POP JUMP JUMPDEST PUSH1 0x0 PUSH1 0x20 DUP3 ADD SWAP1 POP DUP2 DUP2 SUB PUSH1 0x0 DUP4 ADD MSTORE PUSH2 0x3F20 DUP2 PUSH2 0x3EE4 JUMP JUMPDEST SWAP1 POP SWAP2 SWAP1 POP JUMP JUMPDEST PUSH32 0x5265656E7472616E637947756172643A207265656E7472616E742063616C6C00 PUSH1 0x0 DUP3 ADD MSTORE POP JUMP JUMPDEST PUSH1 0x0 PUSH2 0x3F5D PUSH1 0x1F DUP4 PUSH2 0x3057 JUMP JUMPDEST SWAP2 POP PUSH2 0x3F68 DUP3 PUSH2 0x3F27 JUMP JUMPDEST PUSH1 0x20 DUP3 ADD SWAP1 POP SWAP2 SWAP1 POP JUMP JUMPDEST PUSH1 0x0 PUSH1 0x20 DUP3 ADD SWAP1 POP DUP2 DUP2 SUB PUSH1 0x0 DUP4 ADD MSTORE PUSH2 0x3F8C DUP2 PUSH2 0x3F50 JUMP JUMPDEST SWAP1 POP SWAP2 SWAP1 POP JUMP JUMPDEST PUSH32 0x5061757361626C653A2070617573656400000000000000000000000000000000 PUSH1 0x0 DUP3 ADD MSTORE POP JUMP JUMPDEST PUSH1 0x0 PUSH2 0x3FC9 PUSH1 0x10 DUP4 PUSH2 0x3057 JUMP JUMPDEST SWAP2 POP PUSH2 0x3FD4 DUP3 PUSH2 0x3F93 JUMP JUMPDEST PUSH1 0x20 DUP3 ADD SWAP1 POP SWAP2 SWAP1 POP JUMP JUMPDEST PUSH1 0x0 PUSH1 0x20 DUP3 ADD SWAP1 POP DUP2 DUP2 SUB PUSH1 0x0 DUP4 ADD MSTORE PUSH2 0x3FF8 DUP2 PUSH2 0x3FBC JUMP JUMPDEST SWAP1 POP SWAP2 SWAP1 POP JUMP JUMPDEST PUSH32 0x5061757361626C653A206E6F7420706175736564000000000000000000000000 PUSH1 0x0 DUP3 ADD MSTORE POP JUMP JUMPDEST PUSH1 0x0 PUSH2 0x4035 PUSH1 0x14 DUP4 PUSH2 0x3057 JUMP JUMPDEST SWAP2 POP PUSH2 0x4040 DUP3 PUSH2 0x3FFF JUMP JUMPDEST PUSH1 0x20 DUP3 ADD SWAP1 POP SWAP2 SWAP1 POP JUMP JUMPDEST PUSH1 0x0 PUSH1 0x20 DUP3 ADD SWAP1 POP DUP2 DUP2 SUB PUSH1 0x0 DUP4 ADD MSTORE PUSH2 0x4064 DUP2 PUSH2 0x4028 JUMP JUMPDEST SWAP1 POP SWAP2 SWAP1 POP JUMP INVALID LOG2 PUSH5 0x6970667358 0x22 SLT KECCAK256 SWAP5 BLOCKHASH DUP7 0xC0 CODECOPY 0xED PUSH13 0xACA28E079C1BB63EE61FD05904 CREATE2 0x5D 0xC8 0xDC 0xB5 LOG2 0x5C 0xB3 0xF8 0xC5 0xFC 0xB2 PUSH5 0x736F6C6343 STOP ADDMOD SGT STOP CALLER "
		},
		"gasEstimates": {
			"creation": {
				"codeDepositCost": "3309000",
				"executionCost": "infinite",
				"totalCost": "infinite"
			},
			"external": {
				"addStar(uint256,int256,int256,uint256,uint8)": "infinite",
				"authorizeAI(address,bool)": "infinite",
				"authorizedAI(address)": "2957",
				"challenges(uint256)": "infinite",
				"completeChallenge(uint256,string,bool)": "infinite",
				"createStake(uint256)": "infinite",
				"emergencyWithdraw()": "infinite",
				"getChallengeDetails(uint256)": "infinite",
				"getPlayerChallengeHistory(address)": "infinite",
				"getStarDetails(uint256)": "infinite",
				"getStarMultiplier(uint8)": "916",
				"houseFeePercent()": "2519",
				"maximumStake()": "2518",
				"minimumStake()": "2517",
				"oracleContract()": "2581",
				"owner()": "2568",
				"pause()": "infinite",
				"paused()": "2547",
				"playerChallengeHistory(address,uint256)": "infinite",
				"playerStakes(address)": "infinite",
				"playerStats(address)": "infinite",
				"renounceOwnership()": "30487",
				"setGameParameters(uint256,uint256,uint256,uint256,address)": "infinite",
				"stars(uint256)": "infinite",
				"storageWallet()": "2676",
				"submitChallenge(uint256,string)": "infinite",
				"transferOwnership(address)": "30854",
				"unpause()": "infinite",
				"updateStar(uint256,bool)": "infinite",
				"winMultiplier()": "2540",
				"withdrawBalance()": "infinite"
			}
		},
		"methodIdentifiers": {
			"addStar(uint256,int256,int256,uint256,uint8)": "d1ba26f9",
			"authorizeAI(address,bool)": "b4986922",
			"authorizedAI(address)": "9e32aaa3",
			"challenges(uint256)": "8f1d3776",
			"completeChallenge(uint256,string,bool)": "6a60bd00",
			"createStake(uint256)": "1bf6ddae",
			"emergencyWithdraw()": "db2e21bc",
			"getChallengeDetails(uint256)": "3d40a54f",
			"getPlayerChallengeHistory(address)": "929a1923",
			"getStarDetails(uint256)": "3081eafe",
			"getStarMultiplier(uint8)": "4b0ea4a6",
			"houseFeePercent()": "3e27fee2",
			"maximumStake()": "b5c6b453",
			"minimumStake()": "ec5ffac2",
			"oracleContract()": "bece7532",
			"owner()": "8da5cb5b",
			"pause()": "8456cb59",
			"paused()": "5c975abb",
			"playerChallengeHistory(address,uint256)": "358b3855",
			"playerStakes(address)": "b7d44644",
			"playerStats(address)": "cdafbbb6",
			"renounceOwnership()": "715018a6",
			"setGameParameters(uint256,uint256,uint256,uint256,address)": "a66d6dc0",
			"stars(uint256)": "685c6342",
			"storageWallet()": "619f3f61",
			"submitChallenge(uint256,string)": "bbed7fdb",
			"transferOwnership(address)": "f2fde38b",
			"unpause()": "3f4ba83a",
			"updateStar(uint256,bool)": "0355c892",
			"winMultiplier()": "cf24141a",
			"withdrawBalance()": "5fd8c710"
		}
	},
	"abi": [
		{
			"inputs": [
				{
					"internalType": "address",
					"name": "_storageWallet",
					"type": "address"
				}
			],
			"stateMutability": "nonpayable",
			"type": "constructor"
		},
		{
			"anonymous": false,
			"inputs": [
				{
					"indexed": true,
					"internalType": "address",
					"name": "aiAgent",
					"type": "address"
				},
				{
					"indexed": false,
					"internalType": "bool",
					"name": "authorized",
					"type": "bool"
				}
			],
			"name": "AIAgentAuthorized",
			"type": "event"
		},
		{
			"anonymous": false,
			"inputs": [
				{
					"indexed": true,
					"internalType": "uint256",
					"name": "challengeId",
					"type": "uint256"
				},
				{
					"indexed": true,
					"internalType": "address",
					"name": "player",
					"type": "address"
				},
				{
					"indexed": false,
					"internalType": "bool",
					"name": "success",
					"type": "bool"
				},
				{
					"indexed": false,
					"internalType": "uint256",
					"name": "payout",
					"type": "uint256"
				}
			],
			"name": "ChallengeCompleted",
			"type": "event"
		},
		{
			"anonymous": false,
			"inputs": [
				{
					"indexed": true,
					"internalType": "uint256",
					"name": "challengeId",
					"type": "uint256"
				},
				{
					"indexed": true,
					"internalType": "address",
					"name": "player",
					"type": "address"
				},
				{
					"indexed": false,
					"internalType": "uint256",
					"name": "starId",
					"type": "uint256"
				},
				{
					"indexed": false,
					"internalType": "string",
					"name": "challengeHash",
					"type": "string"
				}
			],
			"name": "ChallengeCreated",
			"type": "event"
		},
		{
			"anonymous": false,
			"inputs": [
				{
					"indexed": true,
					"internalType": "address",
					"name": "player",
					"type": "address"
				},
				{
					"indexed": false,
					"internalType": "uint256",
					"name": "amount",
					"type": "uint256"
				}
			],
			"name": "EmergencyWithdrawal",
			"type": "event"
		},
		{
			"anonymous": false,
			"inputs": [
				{
					"indexed": true,
					"internalType": "address",
					"name": "previousOwner",
					"type": "address"
				},
				{
					"indexed": true,
					"internalType": "address",
					"name": "newOwner",
					"type": "address"
				}
			],
			"name": "OwnershipTransferred",
			"type": "event"
		},
		{
			"anonymous": false,
			"inputs": [
				{
					"indexed": false,
					"internalType": "address",
					"name": "account",
					"type": "address"
				}
			],
			"name": "Paused",
			"type": "event"
		},
		{
			"anonymous": false,
			"inputs": [
				{
					"indexed": true,
					"internalType": "address",
					"name": "player",
					"type": "address"
				},
				{
					"indexed": false,
					"internalType": "uint256",
					"name": "amount",
					"type": "uint256"
				},
				{
					"indexed": false,
					"internalType": "uint256",
					"name": "challengeId",
					"type": "uint256"
				}
			],
			"name": "Staked",
			"type": "event"
		},
		{
			"anonymous": false,
			"inputs": [
				{
					"indexed": true,
					"internalType": "uint256",
					"name": "starId",
					"type": "uint256"
				},
				{
					"indexed": false,
					"internalType": "int256",
					"name": "latitude",
					"type": "int256"
				},
				{
					"indexed": false,
					"internalType": "int256",
					"name": "longitude",
					"type": "int256"
				},
				{
					"indexed": false,
					"internalType": "enum StarQuest.StarType",
					"name": "starType",
					"type": "uint8"
				}
			],
			"name": "StarAdded",
			"type": "event"
		},
		{
			"anonymous": false,
			"inputs": [
				{
					"indexed": true,
					"internalType": "uint256",
					"name": "starId",
					"type": "uint256"
				},
				{
					"indexed": false,
					"internalType": "bool",
					"name": "active",
					"type": "bool"
				}
			],
			"name": "StarUpdated",
			"type": "event"
		},
		{
			"anonymous": false,
			"inputs": [
				{
					"indexed": false,
					"internalType": "address",
					"name": "account",
					"type": "address"
				}
			],
			"name": "Unpaused",
			"type": "event"
		},
		{
			"inputs": [
				{
					"internalType": "uint256",
					"name": "starId",
					"type": "uint256"
				},
				{
					"internalType": "int256",
					"name": "latitude",
					"type": "int256"
				},
				{
					"internalType": "int256",
					"name": "longitude",
					"type": "int256"
				},
				{
					"internalType": "uint256",
					"name": "radius",
					"type": "uint256"
				},
				{
					"internalType": "enum StarQuest.StarType",
					"name": "starType",
					"type": "uint8"
				}
			],
			"name": "addStar",
			"outputs": [],
			"stateMutability": "nonpayable",
			"type": "function"
		},
		{
			"inputs": [
				{
					"internalType": "address",
					"name": "aiAgent",
					"type": "address"
				},
				{
					"internalType": "bool",
					"name": "authorized",
					"type": "bool"
				}
			],
			"name": "authorizeAI",
			"outputs": [],
			"stateMutability": "nonpayable",
			"type": "function"
		},
		{
			"inputs": [
				{
					"internalType": "address",
					"name": "",
					"type": "address"
				}
			],
			"name": "authorizedAI",
			"outputs": [
				{
					"internalType": "bool",
					"name": "",
					"type": "bool"
				}
			],
			"stateMutability": "view",
			"type": "function"
		},
		{
			"inputs": [
				{
					"internalType": "uint256",
					"name": "",
					"type": "uint256"
				}
			],
			"name": "challenges",
			"outputs": [
				{
					"internalType": "uint256",
					"name": "id",
					"type": "uint256"
				},
				{
					"internalType": "address",
					"name": "player",
					"type": "address"
				},
				{
					"internalType": "uint256",
					"name": "stakeAmount",
					"type": "uint256"
				},
				{
					"internalType": "string",
					"name": "challengeHash",
					"type": "string"
				},
				{
					"internalType": "string",
					"name": "proofHash",
					"type": "string"
				},
				{
					"internalType": "enum StarQuest.ChallengeStatus",
					"name": "status",
					"type": "uint8"
				},
				{
					"internalType": "uint256",
					"name": "createdAt",
					"type": "uint256"
				},
				{
					"internalType": "uint256",
					"name": "completedAt",
					"type": "uint256"
				},
				{
					"internalType": "bool",
					"name": "aiVerified",
					"type": "bool"
				},
				{
					"internalType": "uint256",
					"name": "starId",
					"type": "uint256"
				},
				{
					"internalType": "enum StarQuest.StarType",
					"name": "starType",
					"type": "uint8"
				}
			],
			"stateMutability": "view",
			"type": "function"
		},
		{
			"inputs": [
				{
					"internalType": "uint256",
					"name": "challengeId",
					"type": "uint256"
				},
				{
					"internalType": "string",
					"name": "proofHash",
					"type": "string"
				},
				{
					"internalType": "bool",
					"name": "success",
					"type": "bool"
				}
			],
			"name": "completeChallenge",
			"outputs": [],
			"stateMutability": "nonpayable",
			"type": "function"
		},
		{
			"inputs": [
				{
					"internalType": "uint256",
					"name": "starId",
					"type": "uint256"
				}
			],
			"name": "createStake",
			"outputs": [],
			"stateMutability": "payable",
			"type": "function"
		},
		{
			"inputs": [],
			"name": "emergencyWithdraw",
			"outputs": [],
			"stateMutability": "nonpayable",
			"type": "function"
		},
		{
			"inputs": [
				{
					"internalType": "uint256",
					"name": "challengeId",
					"type": "uint256"
				}
			],
			"name": "getChallengeDetails",
			"outputs": [
				{
					"components": [
						{
							"internalType": "uint256",
							"name": "id",
							"type": "uint256"
						},
						{
							"internalType": "address",
							"name": "player",
							"type": "address"
						},
						{
							"internalType": "uint256",
							"name": "stakeAmount",
							"type": "uint256"
						},
						{
							"internalType": "string",
							"name": "challengeHash",
							"type": "string"
						},
						{
							"internalType": "string",
							"name": "proofHash",
							"type": "string"
						},
						{
							"internalType": "enum StarQuest.ChallengeStatus",
							"name": "status",
							"type": "uint8"
						},
						{
							"internalType": "uint256",
							"name": "createdAt",
							"type": "uint256"
						},
						{
							"internalType": "uint256",
							"name": "completedAt",
							"type": "uint256"
						},
						{
							"internalType": "bool",
							"name": "aiVerified",
							"type": "bool"
						},
						{
							"internalType": "uint256",
							"name": "starId",
							"type": "uint256"
						},
						{
							"internalType": "enum StarQuest.StarType",
							"name": "starType",
							"type": "uint8"
						}
					],
					"internalType": "struct StarQuest.Challenge",
					"name": "",
					"type": "tuple"
				}
			],
			"stateMutability": "view",
			"type": "function"
		},
		{
			"inputs": [
				{
					"internalType": "address",
					"name": "player",
					"type": "address"
				}
			],
			"name": "getPlayerChallengeHistory",
			"outputs": [
				{
					"internalType": "uint256[]",
					"name": "",
					"type": "uint256[]"
				}
			],
			"stateMutability": "view",
			"type": "function"
		},
		{
			"inputs": [
				{
					"internalType": "uint256",
					"name": "starId",
					"type": "uint256"
				}
			],
			"name": "getStarDetails",
			"outputs": [
				{
					"components": [
						{
							"internalType": "uint256",
							"name": "id",
							"type": "uint256"
						},
						{
							"internalType": "int256",
							"name": "latitude",
							"type": "int256"
						},
						{
							"internalType": "int256",
							"name": "longitude",
							"type": "int256"
						},
						{
							"internalType": "uint256",
							"name": "radius",
							"type": "uint256"
						},
						{
							"internalType": "enum StarQuest.StarType",
							"name": "starType",
							"type": "uint8"
						},
						{
							"internalType": "bool",
							"name": "active",
							"type": "bool"
						},
						{
							"internalType": "uint256",
							"name": "challengesCompleted",
							"type": "uint256"
						},
						{
							"internalType": "uint256",
							"name": "totalStaked",
							"type": "uint256"
						}
					],
					"internalType": "struct StarQuest.Star",
					"name": "",
					"type": "tuple"
				}
			],
			"stateMutability": "view",
			"type": "function"
		},
		{
			"inputs": [
				{
					"internalType": "enum StarQuest.StarType",
					"name": "starType",
					"type": "uint8"
				}
			],
			"name": "getStarMultiplier",
			"outputs": [
				{
					"internalType": "uint256",
					"name": "",
					"type": "uint256"
				}
			],
			"stateMutability": "pure",
			"type": "function"
		},
		{
			"inputs": [],
			"name": "houseFeePercent",
			"outputs": [
				{
					"internalType": "uint256",
					"name": "",
					"type": "uint256"
				}
			],
			"stateMutability": "view",
			"type": "function"
		},
		{
			"inputs": [],
			"name": "maximumStake",
			"outputs": [
				{
					"internalType": "uint256",
					"name": "",
					"type": "uint256"
				}
			],
			"stateMutability": "view",
			"type": "function"
		},
		{
			"inputs": [],
			"name": "minimumStake",
			"outputs": [
				{
					"internalType": "uint256",
					"name": "",
					"type": "uint256"
				}
			],
			"stateMutability": "view",
			"type": "function"
		},
		{
			"inputs": [],
			"name": "oracleContract",
			"outputs": [
				{
					"internalType": "address",
					"name": "",
					"type": "address"
				}
			],
			"stateMutability": "view",
			"type": "function"
		},
		{
			"inputs": [],
			"name": "owner",
			"outputs": [
				{
					"internalType": "address",
					"name": "",
					"type": "address"
				}
			],
			"stateMutability": "view",
			"type": "function"
		},
		{
			"inputs": [],
			"name": "pause",
			"outputs": [],
			"stateMutability": "nonpayable",
			"type": "function"
		},
		{
			"inputs": [],
			"name": "paused",
			"outputs": [
				{
					"internalType": "bool",
					"name": "",
					"type": "bool"
				}
			],
			"stateMutability": "view",
			"type": "function"
		},
		{
			"inputs": [
				{
					"internalType": "address",
					"name": "",
					"type": "address"
				},
				{
					"internalType": "uint256",
					"name": "",
					"type": "uint256"
				}
			],
			"name": "playerChallengeHistory",
			"outputs": [
				{
					"internalType": "uint256",
					"name": "",
					"type": "uint256"
				}
			],
			"stateMutability": "view",
			"type": "function"
		},
		{
			"inputs": [
				{
					"internalType": "address",
					"name": "",
					"type": "address"
				}
			],
			"name": "playerStakes",
			"outputs": [
				{
					"internalType": "uint256",
					"name": "amount",
					"type": "uint256"
				},
				{
					"internalType": "uint256",
					"name": "timestamp",
					"type": "uint256"
				},
				{
					"internalType": "bool",
					"name": "active",
					"type": "bool"
				},
				{
					"internalType": "uint256",
					"name": "challengeId",
					"type": "uint256"
				}
			],
			"stateMutability": "view",
			"type": "function"
		},
		{
			"inputs": [
				{
					"internalType": "address",
					"name": "",
					"type": "address"
				}
			],
			"name": "playerStats",
			"outputs": [
				{
					"internalType": "uint256",
					"name": "totalStaked",
					"type": "uint256"
				},
				{
					"internalType": "uint256",
					"name": "totalWon",
					"type": "uint256"
				},
				{
					"internalType": "uint256",
					"name": "challengesCompleted",
					"type": "uint256"
				},
				{
					"internalType": "uint256",
					"name": "challengesFailed",
					"type": "uint256"
				},
				{
					"internalType": "uint256",
					"name": "currentStreak",
					"type": "uint256"
				},
				{
					"internalType": "uint256",
					"name": "longestStreak",
					"type": "uint256"
				},
				{
					"internalType": "uint256",
					"name": "lastPlayedTimestamp",
					"type": "uint256"
				}
			],
			"stateMutability": "view",
			"type": "function"
		},
		{
			"inputs": [],
			"name": "renounceOwnership",
			"outputs": [],
			"stateMutability": "nonpayable",
			"type": "function"
		},
		{
			"inputs": [
				{
					"internalType": "uint256",
					"name": "_minimumStake",
					"type": "uint256"
				},
				{
					"internalType": "uint256",
					"name": "_maximumStake",
					"type": "uint256"
				},
				{
					"internalType": "uint256",
					"name": "_winMultiplier",
					"type": "uint256"
				},
				{
					"internalType": "uint256",
					"name": "_houseFeePercent",
					"type": "uint256"
				},
				{
					"internalType": "address",
					"name": "_storageWallet",
					"type": "address"
				}
			],
			"name": "setGameParameters",
			"outputs": [],
			"stateMutability": "nonpayable",
			"type": "function"
		},
		{
			"inputs": [
				{
					"internalType": "uint256",
					"name": "",
					"type": "uint256"
				}
			],
			"name": "stars",
			"outputs": [
				{
					"internalType": "uint256",
					"name": "id",
					"type": "uint256"
				},
				{
					"internalType": "int256",
					"name": "latitude",
					"type": "int256"
				},
				{
					"internalType": "int256",
					"name": "longitude",
					"type": "int256"
				},
				{
					"internalType": "uint256",
					"name": "radius",
					"type": "uint256"
				},
				{
					"internalType": "enum StarQuest.StarType",
					"name": "starType",
					"type": "uint8"
				},
				{
					"internalType": "bool",
					"name": "active",
					"type": "bool"
				},
				{
					"internalType": "uint256",
					"name": "challengesCompleted",
					"type": "uint256"
				},
				{
					"internalType": "uint256",
					"name": "totalStaked",
					"type": "uint256"
				}
			],
			"stateMutability": "view",
			"type": "function"
		},
		{
			"inputs": [],
			"name": "storageWallet",
			"outputs": [
				{
					"internalType": "address",
					"name": "",
					"type": "address"
				}
			],
			"stateMutability": "view",
			"type": "function"
		},
		{
			"inputs": [
				{
					"internalType": "uint256",
					"name": "challengeId",
					"type": "uint256"
				},
				{
					"internalType": "string",
					"name": "challengeHash",
					"type": "string"
				}
			],
			"name": "submitChallenge",
			"outputs": [],
			"stateMutability": "nonpayable",
			"type": "function"
		},
		{
			"inputs": [
				{
					"internalType": "address",
					"name": "newOwner",
					"type": "address"
				}
			],
			"name": "transferOwnership",
			"outputs": [],
			"stateMutability": "nonpayable",
			"type": "function"
		},
		{
			"inputs": [],
			"name": "unpause",
			"outputs": [],
			"stateMutability": "nonpayable",
			"type": "function"
		},
		{
			"inputs": [
				{
					"internalType": "uint256",
					"name": "starId",
					"type": "uint256"
				},
				{
					"internalType": "bool",
					"name": "active",
					"type": "bool"
				}
			],
			"name": "updateStar",
			"outputs": [],
			"stateMutability": "nonpayable",
			"type": "function"
		},
		{
			"inputs": [],
			"name": "winMultiplier",
			"outputs": [
				{
					"internalType": "uint256",
					"name": "",
					"type": "uint256"
				}
			],
			"stateMutability": "view",
			"type": "function"
		},
		{
			"inputs": [],
			"name": "withdrawBalance",
			"outputs": [],
			"stateMutability": "nonpayable",
			"type": "function"
		},
		{
			"stateMutability": "payable",
			"type": "receive"
		}
	]
}